{
    "tests/prague/eip7702_set_code_tx/test_gas.py::test_self_set_code_cost[fork_PragueEIP7692-state_test-pre_authorized_True]": {
        "env": {
            "currentCoinbase": "0x2adc25665018aa1fe0e6bc666dac8fc2697ff9ba",
            "currentGasLimit": "0x016345785d8a0000",
            "currentNumber": "0x01",
            "currentTimestamp": "0x03e8",
            "currentRandom": "0x0000000000000000000000000000000000000000000000000000000000000000",
            "currentDifficulty": "0x00",
            "currentBaseFee": "0x07",
            "currentExcessBlobGas": "0x00"
        },
        "pre": {
            "0xa94f5374fce5edbc8e2a8697c15331677e6ebf0b": {
                "nonce": "0x01",
                "balance": "0x00",
                "code": "0xef0100a94f5374fce5edbc8e2a8697c15331677e6ebf0b",
                "storage": {}
            },
            "0x0000000000000000000000000000000000001000": {
                "nonce": "0x01",
                "balance": "0x00",
                "code": "0x5a73a94f5374fce5edbc8e2a8697c15331677e6ebf0b3b5a905090036005900360015500",
                "storage": {}
            },
            "0x8a0a19589531694250d570040a0c4b74576919b8": {
                "nonce": "0x00",
                "balance": "0x3635c9adc5dea00000",
                "code": "0x",
                "storage": {}
            }
        },
        "transaction": {
            "nonce": "0x00",
            "gasPrice": "0x0a",
            "gasLimit": [
                "0x0f4240"
            ],
            "to": "0x0000000000000000000000000000000000001000",
            "value": [
                "0x00"
            ],
            "data": [
                "0x"
            ],
            "sender": "0x8a0a19589531694250d570040a0c4b74576919b8",
            "secretKey": "0x9e7645d0cfd9c3a04eb7a9db59a4eb7d359f2e75c9164a9d6b9a7d54e1b6a36f"
        },
        "post": {
            "Prague": [
                {
                    "hash": "0x92e02b246461c8ce0ac7e95a929368586c72fb9f2c6b4030057cbc0a3455194b",
                    "logs": "0x1dcc4de8dec75d7aab85b567b6ccd41ad312451b948a7413f0a142fd40d49347",
                    "txbytes": "0xf860800a830f4240940000000000000000000000000000000000001000808026a0b40ebf5833618c93a48a79729e122ac82af3fed824fc1fe42a4ff7ddbd408cc4a05aceac157ca531fc1af242f6471a164f54c09172d2fed8b4b0f74402b49893bf",
                    "indexes": {
                        "data": 0,
                        "gas": 0,
                        "value": 0
                    }
                }
            ]
        },
        "_info": {
            "hash": "0x4d597d4bd1d96d3c14d3febf46581c9f85d91a3e54a599b6c0d4b20a383a0568",
            "comment": "`execution-spec-tests` generated test",
            "filling-transition-tool": "Hyperledger Besu evm 24.9-develop-beaee59",
            "description": "Test function documentation:\n\n    Test set to code account access cost when it delegates to itself.",
            "url": "https://github.com/ethereum/execution-spec-tests/blob/eip7692@v1.1.0/tests/prague/eip7702_set_code_tx/test_gas.py#L983",
            "reference-spec": "https://github.com/ethereum/EIPs/blob/master/EIPS/eip-7702.md",
            "reference-spec-version": "a6bf54ffc1506ed00f8234731684ccfe935ec9a3"
        }
    },
    "tests/prague/eip7702_set_code_tx/test_gas.py::test_self_set_code_cost[fork_PragueEIP7692-state_test-pre_authorized_False]": {
        "env": {
            "currentCoinbase": "0x2adc25665018aa1fe0e6bc666dac8fc2697ff9ba",
            "currentGasLimit": "0x016345785d8a0000",
            "currentNumber": "0x01",
            "currentTimestamp": "0x03e8",
            "currentRandom": "0x0000000000000000000000000000000000000000000000000000000000000000",
            "currentDifficulty": "0x00",
            "currentBaseFee": "0x07",
            "currentExcessBlobGas": "0x00"
        },
        "pre": {
            "0x0000000000000000000000000000000000001000": {
                "nonce": "0x01",
                "balance": "0x00",
                "code": "0x5a73a94f5374fce5edbc8e2a8697c15331677e6ebf0b3b5a905090036005900360015500",
                "storage": {}
            },
            "0x8a0a19589531694250d570040a0c4b74576919b8": {
                "nonce": "0x00",
                "balance": "0x3635c9adc5dea00000",
                "code": "0x",
                "storage": {}
            }
        },
        "transaction": {
            "nonce": "0x00",
            "maxPriorityFeePerGas": "0x00",
            "maxFeePerGas": "0x07",
            "gasLimit": [
                "0x0f4240"
            ],
            "to": "0x0000000000000000000000000000000000001000",
            "value": [
                "0x00"
            ],
            "data": [
                "0x"
            ],
            "accessLists": [
                []
            ],
            "authorizationList": [
                {
                    "chainId": "0x00",
                    "address": "0xa94f5374fce5edbc8e2a8697c15331677e6ebf0b",
                    "nonce": "0x00",
                    "v": "0x00",
                    "r": "0x54c7c92b1eede176959eefeb0ccce5c0e794991f16c1e8ac01700d162eb563bf",
                    "s": "0x71b8d0e049596a2602ef18ca11a6d1c3e6a6ee21394b652ac0ad91533ac3a772",
                    "signer": "0xa94f5374fce5edbc8e2a8697c15331677e6ebf0b"
                }
            ],
            "sender": "0x8a0a19589531694250d570040a0c4b74576919b8",
            "secretKey": "0x9e7645d0cfd9c3a04eb7a9db59a4eb7d359f2e75c9164a9d6b9a7d54e1b6a36f"
        },
        "post": {
            "Prague": [
                {
                    "hash": "0x14ff40228149c2c43096d44c16dc06b3e23fcf16bc88efb81aa5a382bed33701",
                    "logs": "0x1dcc4de8dec75d7aab85b567b6ccd41ad312451b948a7413f0a142fd40d49347",
                    "txbytes": "0x04f8c101808007830f42409400000000000000000000000000000000000010008080c0f85cf85a8094a94f5374fce5edbc8e2a8697c15331677e6ebf0b8080a054c7c92b1eede176959eefeb0ccce5c0e794991f16c1e8ac01700d162eb563bfa071b8d0e049596a2602ef18ca11a6d1c3e6a6ee21394b652ac0ad91533ac3a77201a0412add516b4681b7b69278537b60dab4cac3da236ec18fdd4b7d5b7387eb8acfa05d1e187e84b91247c8f50b665fae1835a365d92091239d72cb3934727fd8c8fe",
                    "indexes": {
                        "data": 0,
                        "gas": 0,
                        "value": 0
                    }
                }
            ]
        },
        "_info": {
            "hash": "0x3a1334c3c46c8a7c51543a78162d33553743b5d3ce86c640efc1df6f27ba6d0a",
            "comment": "`execution-spec-tests` generated test",
            "filling-transition-tool": "Hyperledger Besu evm 24.9-develop-beaee59",
            "description": "Test function documentation:\n\n    Test set to code account access cost when it delegates to itself.",
            "url": "https://github.com/ethereum/execution-spec-tests/blob/eip7692@v1.1.0/tests/prague/eip7702_set_code_tx/test_gas.py#L983",
            "reference-spec": "https://github.com/ethereum/EIPs/blob/master/EIPS/eip-7702.md",
            "reference-spec-version": "a6bf54ffc1506ed00f8234731684ccfe935ec9a3"
        }
    }
}