{
    "tests/cancun/eip4788_beacon_root/test_beacon_root_contract.py::test_beacon_root_selfdestruct[fork_Cancun-blockchain_test-timestamp_12]": {
        "_info": {
            "comment": "`execution-spec-tests` generated test",
            "filling-transition-tool": "evm version 1.13.12-unstable-cd0770ea-20240124",
            "reference-spec": "https://github.com/ethereum/EIPs/blob/master/EIPS/eip-4788.md",
            "reference-spec-version": "e7608fe8ac8a60934ca874f5aab7d5c1f4ff7782"
        },
        "network": "Cancun",
        "genesisRLP": "0xf90240f9023aa00000000000000000000000000000000000000000000000000000000000000000a01dcc4de8dec75d7aab85b567b6ccd41ad312451b948a7413f0a142fd40d49347940000000000000000000000000000000000000000a005626d8958e1423bca877777b6266250518977544e39fe8e0a1e5d66c626a093a056e81f171bcc55a6ff8345e692c0f86e5b48e01b996cadc001622fb5e363b421a056e81f171bcc55a6ff8345e692c0f86e5b48e01b996cadc001622fb5e363b421b9010000000000000000000000000000000000000000000000000000000000000000000000000000000000000000000000000000000000000000000000000000000000000000000000000000000000000000000000000000000000000000000000000000000000000000000000000000000000000000000000000000000000000000000000000000000000000000000000000000000000000000000000000000000000000000000000000000000000000000000000000000000000000000000000000000000000000000000000000000000000000000000000000000000000000000000000000000000000000000000000000000000000000000000000000000000000808088016345785d8a0000808000a0000000000000000000000000000000000000000000000000000000000000000088000000000000000007a056e81f171bcc55a6ff8345e692c0f86e5b48e01b996cadc001622fb5e363b4218080a00000000000000000000000000000000000000000000000000000000000000000c0c0c0",
        "genesisBlockHeader": {
            "parentHash": "0x0000000000000000000000000000000000000000000000000000000000000000",
            "uncleHash": "0x1dcc4de8dec75d7aab85b567b6ccd41ad312451b948a7413f0a142fd40d49347",
            "coinbase": "0x0000000000000000000000000000000000000000",
            "stateRoot": "0x05626d8958e1423bca877777b6266250518977544e39fe8e0a1e5d66c626a093",
            "transactionsTrie": "0x56e81f171bcc55a6ff8345e692c0f86e5b48e01b996cadc001622fb5e363b421",
            "receiptTrie": "0x56e81f171bcc55a6ff8345e692c0f86e5b48e01b996cadc001622fb5e363b421",
            "bloom": "0x00000000000000000000000000000000000000000000000000000000000000000000000000000000000000000000000000000000000000000000000000000000000000000000000000000000000000000000000000000000000000000000000000000000000000000000000000000000000000000000000000000000000000000000000000000000000000000000000000000000000000000000000000000000000000000000000000000000000000000000000000000000000000000000000000000000000000000000000000000000000000000000000000000000000000000000000000000000000000000000000000000000000000000000000000000000",
            "difficulty": "0x00",
            "number": "0x00",
            "gasLimit": "0x016345785d8a0000",
            "gasUsed": "0x00",
            "timestamp": "0x00",
            "extraData": "0x00",
            "mixHash": "0x0000000000000000000000000000000000000000000000000000000000000000",
            "nonce": "0x0000000000000000",
            "baseFeePerGas": "0x07",
            "withdrawalsRoot": "0x56e81f171bcc55a6ff8345e692c0f86e5b48e01b996cadc001622fb5e363b421",
            "blobGasUsed": "0x00",
            "excessBlobGas": "0x00",
            "parentBeaconBlockRoot": "0x0000000000000000000000000000000000000000000000000000000000000000",
            "hash": "0xa844a8a3a4a6bd9e96b3fbd15edcb7736476545a2aa836ca2bc979d0dc5def49"
        },
        "blocks": [
            {
                "rlp": "0xf902a5f9023ca0a844a8a3a4a6bd9e96b3fbd15edcb7736476545a2aa836ca2bc979d0dc5def49a01dcc4de8dec75d7aab85b567b6ccd41ad312451b948a7413f0a142fd40d49347942adc25665018aa1fe0e6bc666dac8fc2697ff9baa08206ae25ed20b5f658d6d1930615161ebc3904c11f88ebb95a66917697fb3f89a04d6663825495d104e7f070bbc10499dfb274ca900190944012a86c76d13d829ca00f73e138b049ee79ec5e393c8b6aab99eaba82a90239eed2ee4f0923697d64deb9010000000000000000000000000000000000000000000000000000000000000000000000000000000000000000000000000000000000000000000000000000000000000000000000000000000000000000000000000000000000000000000000000000000000000000000000000000000000000000000000000000000000000000000000000000000000000000000000000000000000000000000000000000000000000000000000000000000000000000000000000000000000000000000000000000000000000000000000000000000000000000000000000000000000000000000000000000000000000000000000000000000000000000000000000000000000800188016345785d8a000082d0b60c00a0000000000000000000000000000000000000000000000000000000000000000088000000000000000007a056e81f171bcc55a6ff8345e692c0f86e5b48e01b996cadc001622fb5e363b4218080a06c31fc15422ebad28aaf9089c306702f67540b53c7eea8b7d2941044b027100ff862f860800a830186a09400000000000000000000000000000000000000cc808026a0db42399e4a1e7e9734988e409e7afc0ed217480ddb02dea62c1c13a97abe967ba006d9ddf0873edffb2e6f2ee4bca6348b0d103e5b9c0e79e7894ccd90c134ac11c0c0",
                "blockHeader": {
                    "parentHash": "0xa844a8a3a4a6bd9e96b3fbd15edcb7736476545a2aa836ca2bc979d0dc5def49",
                    "uncleHash": "0x1dcc4de8dec75d7aab85b567b6ccd41ad312451b948a7413f0a142fd40d49347",
                    "coinbase": "0x2adc25665018aa1fe0e6bc666dac8fc2697ff9ba",
                    "stateRoot": "0x8206ae25ed20b5f658d6d1930615161ebc3904c11f88ebb95a66917697fb3f89",
                    "transactionsTrie": "0x4d6663825495d104e7f070bbc10499dfb274ca900190944012a86c76d13d829c",
                    "receiptTrie": "0x0f73e138b049ee79ec5e393c8b6aab99eaba82a90239eed2ee4f0923697d64de",
                    "bloom": "0x00000000000000000000000000000000000000000000000000000000000000000000000000000000000000000000000000000000000000000000000000000000000000000000000000000000000000000000000000000000000000000000000000000000000000000000000000000000000000000000000000000000000000000000000000000000000000000000000000000000000000000000000000000000000000000000000000000000000000000000000000000000000000000000000000000000000000000000000000000000000000000000000000000000000000000000000000000000000000000000000000000000000000000000000000000000",
                    "difficulty": "0x00",
                    "number": "0x01",
                    "gasLimit": "0x016345785d8a0000",
                    "gasUsed": "0xd0b6",
                    "timestamp": "0x0c",
                    "extraData": "0x00",
                    "mixHash": "0x0000000000000000000000000000000000000000000000000000000000000000",
                    "nonce": "0x0000000000000000",
                    "baseFeePerGas": "0x07",
                    "withdrawalsRoot": "0x56e81f171bcc55a6ff8345e692c0f86e5b48e01b996cadc001622fb5e363b421",
                    "blobGasUsed": "0x00",
                    "excessBlobGas": "0x00",
                    "parentBeaconBlockRoot": "0x6c31fc15422ebad28aaf9089c306702f67540b53c7eea8b7d2941044b027100f",
                    "hash": "0x3f56c63a3f6437c6f0e1b06100ecb57e06a5ee81fdd899a1241bd0c433e8286b"
                },
                "blocknumber": "1",
                "transactions": [
                    {
                        "type": "0x00",
                        "chainId": "0x01",
                        "nonce": "0x00",
                        "gasPrice": "0x0a",
                        "gasLimit": "0x0186a0",
                        "to": "0x00000000000000000000000000000000000000cc",
                        "value": "0x00",
                        "data": "0x",
                        "v": "0x26",
                        "r": "0xdb42399e4a1e7e9734988e409e7afc0ed217480ddb02dea62c1c13a97abe967b",
                        "s": "0x06d9ddf0873edffb2e6f2ee4bca6348b0d103e5b9c0e79e7894ccd90c134ac11",
                        "sender": "0xa94f5374fce5edbc8e2a8697c15331677e6ebf0b"
                    }
                ],
                "uncleHeaders": [],
                "withdrawals": []
            }
        ],
        "lastblockhash": "0x3f56c63a3f6437c6f0e1b06100ecb57e06a5ee81fdd899a1241bd0c433e8286b",
        "pre": {
            "0x00000000000000000000000000000000000000cc": {
                "nonce": "0x00",
                "balance": "0x00",
                "code": "0x60006000600060006000730000000000000000000000000000000000001337620186a0f1720f3df6d732807ef1319fb7b8bb8522d0beac0231600055",
                "storage": {}
            },
            "0x0000000000000000000000000000000000000100": {
                "nonce": "0x00",
                "balance": "0x010000000000",
                "code": "0x366000602037602060003660206000720f3df6d732807ef1319fb7b8bb8522d0beac02620186a0f16000556000516001553d6002553d600060003e600051600355",
                "storage": {}
            },
            "0x0000000000000000000000000000000000001337": {
                "nonce": "0x00",
                "balance": "0x0ba1",
                "code": "0x720f3df6d732807ef1319fb7b8bb8522d0beac02ff",
                "storage": {}
            },
            "0x000f3df6d732807ef1319fb7b8bb8522d0beac02": {
                "nonce": "0x01",
                "balance": "0x00",
                "code": "0x3373fffffffffffffffffffffffffffffffffffffffe14604d57602036146024575f5ffd5b5f35801560495762001fff810690815414603c575f5ffd5b62001fff01545f5260205ff35b5f5ffd5b62001fff42064281555f359062001fff015500",
                "storage": {}
            },
            "0xa94f5374fce5edbc8e2a8697c15331677e6ebf0b": {
                "nonce": "0x00",
                "balance": "0x010000000000",
                "code": "0x",
                "storage": {}
            }
        },
        "postState": {
            "0x00000000000000000000000000000000000000cc": {
                "nonce": "0x00",
                "balance": "0x00",
                "code": "0x60006000600060006000730000000000000000000000000000000000001337620186a0f1720f3df6d732807ef1319fb7b8bb8522d0beac0231600055",
                "storage": {
                    "0x00": "0x0ba1"
                }
            },
            "0x0000000000000000000000000000000000000100": {
                "nonce": "0x00",
                "balance": "0x010000000000",
                "code": "0x366000602037602060003660206000720f3df6d732807ef1319fb7b8bb8522d0beac02620186a0f16000556000516001553d6002553d600060003e600051600355",
                "storage": {}
            },
            "0x0000000000000000000000000000000000001337": {
                "nonce": "0x00",
                "balance": "0x00",
                "code": "0x720f3df6d732807ef1319fb7b8bb8522d0beac02ff",
                "storage": {}
            },
            "0x000f3df6d732807ef1319fb7b8bb8522d0beac02": {
                "nonce": "0x01",
                "balance": "0x0ba1",
                "code": "0x3373fffffffffffffffffffffffffffffffffffffffe14604d57602036146024575f5ffd5b5f35801560495762001fff810690815414603c575f5ffd5b62001fff01545f5260205ff35b5f5ffd5b62001fff42064281555f359062001fff015500",
                "storage": {
                    "0x0c": "0x0c",
                    "0x200b": "0x6c31fc15422ebad28aaf9089c306702f67540b53c7eea8b7d2941044b027100f"
                }
            },
            "0x2adc25665018aa1fe0e6bc666dac8fc2697ff9ba": {
                "nonce": "0x00",
                "balance": "0x027222",
                "code": "0x",
                "storage": {}
            },
            "0xa94f5374fce5edbc8e2a8697c15331677e6ebf0b": {
                "nonce": "0x01",
                "balance": "0xfffff7d8e4",
                "code": "0x",
                "storage": {}
            }
        },
        "sealEngine": "NoProof"
    }
}