{
    "000_shanghai": {
        "_info": {
            "filling-transition-tool": "evm version 1.11.0-unstable-f7ab681b-20221221",
            "filling-block-build-tool": "evm version 1.11.0-unstable-f7ab681b-20221221"
        },
        "blocks": [
            {
                "rlp": "0xf9029bf90219a0f51a84c6edeed23ef696619e39c02d78b967cc3d3939ad03943abe87070522ffa01dcc4de8dec75d7aab85b567b6ccd41ad312451b948a7413f0a142fd40d49347942adc25665018aa1fe0e6bc666dac8fc2697ff9baa03d67040c44b510530841562e6e579d83f7d2dd811659e2928368364b04bc1934a02bad57b8521a8d2a492526aecdb0e1244a14e1bc52809a046ac46a863ed9e54da01894738cbe23a5e6e0dc692ee183c05388a92ce7ac69af437b91e99e5b0cdfb3b9010000000000000000000000000000000000000000000000000000000000000000000000000000000000000000000000000000000000000000000000000000000000000000000000000000000000000000000000000000000000000000000000000000000000000000000000000000000000000000000000000000000000000000000000000000000000000000000000000000000000000000000000000000000000000000000000000000000000000000000000000000000000000000000000000000000000000000000000000000000000000000000000000000000000000000000000000000000000000000000000000000000000000000000000000000000000800188016345785d8a000082e0b70c80a0000000000000000000000000000000000000000000000000000000000000000088000000000000000007a07bae13217931ff0d7a6c5823c996492f28cd92da5a7788a9a68856bb2206741af862f860800a830186a0940000000000000000000000000000000000000100808025a086ddb9352affa90c20d71652b049404d8abcc6575e8e4a2c0bb9aa73fad9001ca01bb0d685e5589862ae3d2b083be59c4f754c326800dbc82712e9f81eebf2f61dc0d9d8808094000000000000000000000000000000000000010001",
                "blockHeader": {
                    "parentHash": "0xf51a84c6edeed23ef696619e39c02d78b967cc3d3939ad03943abe87070522ff",
                    "uncleHash": "0x1dcc4de8dec75d7aab85b567b6ccd41ad312451b948a7413f0a142fd40d49347",
                    "coinbase": "0x2adc25665018aa1fe0e6bc666dac8fc2697ff9ba",
                    "stateRoot": "0x3d67040c44b510530841562e6e579d83f7d2dd811659e2928368364b04bc1934",
                    "transactionsTrie": "0x2bad57b8521a8d2a492526aecdb0e1244a14e1bc52809a046ac46a863ed9e54d",
                    "receiptTrie": "0x1894738cbe23a5e6e0dc692ee183c05388a92ce7ac69af437b91e99e5b0cdfb3",
                    "bloom": "0x00000000000000000000000000000000000000000000000000000000000000000000000000000000000000000000000000000000000000000000000000000000000000000000000000000000000000000000000000000000000000000000000000000000000000000000000000000000000000000000000000000000000000000000000000000000000000000000000000000000000000000000000000000000000000000000000000000000000000000000000000000000000000000000000000000000000000000000000000000000000000000000000000000000000000000000000000000000000000000000000000000000000000000000000000000000",
                    "difficulty": "0x0",
                    "number": "0x1",
                    "gasLimit": "0x16345785d8a0000",
                    "gasUsed": "0xe0b7",
                    "timestamp": "0xc",
                    "extraData": "0x",
                    "mixHash": "0x0000000000000000000000000000000000000000000000000000000000000000",
                    "nonce": "0x0000000000000000",
                    "baseFeePerGas": "0x7",
                    "hash": "0xabf3bf1f5a4a90061cb06b2c0a7af8818d19f7afd4fff64bb3c4e381d022f019",
                    "withdrawalsRoot": "0x7bae13217931ff0d7a6c5823c996492f28cd92da5a7788a9a68856bb2206741a"
                },
                "blocknumber": "1"
            },
            {
                "rlp": "0xf90282f9021aa0abf3bf1f5a4a90061cb06b2c0a7af8818d19f7afd4fff64bb3c4e381d022f019a01dcc4de8dec75d7aab85b567b6ccd41ad312451b948a7413f0a142fd40d49347942adc25665018aa1fe0e6bc666dac8fc2697ff9baa04b89f19606b75f16e6f217a3c5d54db17abdd361d40eb5541ec19451c183bbfea08c500edaa09a8dce41c0dcce8ee2876f5f3150b8101d09faa9ba61db523507eaa0cda4364d9e43f15119746d96fb9d842997acbfa55f65b6d3f7a3b5f06cd250d1b9010000000000000000000000000000000000000000000000000000000000000000000000000000000000000000000000000000000000000000000000000000000000000000000000000000000000000000000000000000000000000000000000000000000000000000000000000000000000000000000000000000000000000000000000000000000000000000000000000000000000000000000000000000000000000000000000000000000000000000000000000000000000000000000000000000000000000000000000000000000000000000000000000000000000000000000000000000000000000000000000000000000000000000000000000000000000800288016345785d8a000083012e731880a0000000000000000000000000000000000000000000000000000000000000000088000000000000000007a056e81f171bcc55a6ff8345e692c0f86e5b48e01b996cadc001622fb5e363b421f862f860010a830186a0940000000000000000000000000000000000000100808026a025b1502ca1862804cfb6dca49ffb3cca3d8225a66df185ca857aab6f8a1f97a3a05d9178ca2d7a23b22e07ff2fe9a01ceb23a4acf041a0fcdf3d31752de802b74ec0",
                "blockHeader": {
                    "parentHash": "0xabf3bf1f5a4a90061cb06b2c0a7af8818d19f7afd4fff64bb3c4e381d022f019",
                    "uncleHash": "0x1dcc4de8dec75d7aab85b567b6ccd41ad312451b948a7413f0a142fd40d49347",
                    "coinbase": "0x2adc25665018aa1fe0e6bc666dac8fc2697ff9ba",
                    "stateRoot": "0x4b89f19606b75f16e6f217a3c5d54db17abdd361d40eb5541ec19451c183bbfe",
                    "transactionsTrie": "0x8c500edaa09a8dce41c0dcce8ee2876f5f3150b8101d09faa9ba61db523507ea",
                    "receiptTrie": "0xcda4364d9e43f15119746d96fb9d842997acbfa55f65b6d3f7a3b5f06cd250d1",
                    "bloom": "0x00000000000000000000000000000000000000000000000000000000000000000000000000000000000000000000000000000000000000000000000000000000000000000000000000000000000000000000000000000000000000000000000000000000000000000000000000000000000000000000000000000000000000000000000000000000000000000000000000000000000000000000000000000000000000000000000000000000000000000000000000000000000000000000000000000000000000000000000000000000000000000000000000000000000000000000000000000000000000000000000000000000000000000000000000000000",
                    "difficulty": "0x0",
                    "number": "0x2",
                    "gasLimit": "0x16345785d8a0000",
                    "gasUsed": "0x12e73",
                    "timestamp": "0x18",
                    "extraData": "0x",
                    "mixHash": "0x0000000000000000000000000000000000000000000000000000000000000000",
                    "nonce": "0x0000000000000000",
                    "baseFeePerGas": "0x7",
                    "hash": "0xe2bd886604f3cec2487e5ad4b609661fd43524ed465528f8b32ec7bc39a1bc60",
                    "withdrawalsRoot": "0x56e81f171bcc55a6ff8345e692c0f86e5b48e01b996cadc001622fb5e363b421"
                },
                "blocknumber": "2"
            }
        ],
        "genesisBlockHeader": {
            "parentHash": "0x0000000000000000000000000000000000000000000000000000000000000000",
            "uncleHash": "0x1dcc4de8dec75d7aab85b567b6ccd41ad312451b948a7413f0a142fd40d49347",
            "coinbase": "0x0000000000000000000000000000000000000000",
            "stateRoot": "0x32464b032f13a88e109a291f934a32a4b803cd1586c1bbe5523eed465d5c4873",
            "transactionsTrie": "0x56e81f171bcc55a6ff8345e692c0f86e5b48e01b996cadc001622fb5e363b421",
            "receiptTrie": "0x56e81f171bcc55a6ff8345e692c0f86e5b48e01b996cadc001622fb5e363b421",
            "bloom": "0x00000000000000000000000000000000000000000000000000000000000000000000000000000000000000000000000000000000000000000000000000000000000000000000000000000000000000000000000000000000000000000000000000000000000000000000000000000000000000000000000000000000000000000000000000000000000000000000000000000000000000000000000000000000000000000000000000000000000000000000000000000000000000000000000000000000000000000000000000000000000000000000000000000000000000000000000000000000000000000000000000000000000000000000000000000000",
            "difficulty": "0x20000",
            "number": "0x0",
            "gasLimit": "0x16345785d8a0000",
            "gasUsed": "0x0",
            "timestamp": "0x0",
            "extraData": "0x00",
            "mixHash": "0x0000000000000000000000000000000000000000000000000000000000000000",
            "nonce": "0x0000000000000000",
            "baseFeePerGas": "0x7",
            "hash": "0xf51a84c6edeed23ef696619e39c02d78b967cc3d3939ad03943abe87070522ff",
            "withdrawalsRoot": "0x56e81f171bcc55a6ff8345e692c0f86e5b48e01b996cadc001622fb5e363b421"
        },
        "lastblockhash": "0xe2bd886604f3cec2487e5ad4b609661fd43524ed465528f8b32ec7bc39a1bc60",
        "network": "Shanghai",
        "pre": {
            "0xa94f5374fce5edbc8e2a8697c15331677e6ebf0b": {
                "nonce": "0x0",
                "balance": "0x3635c9adc5dea00000",
                "code": "0x",
                "storage": {}
            },
            "0x0000000000000000000000000000000000000100": {
                "nonce": "0x0",
                "balance": "0x0",
                "code": "0x60008060008060016102005af180435550",
                "storage": {}
            },
            "0x0000000000000000000000000000000000000200": {
                "nonce": "0x0",
                "balance": "0x0",
                "code": "0x",
                "storage": {}
            }
        },
        "postState": {
            "0x0000000000000000000000000000000000000100": {
                "code": "0x60008060008060016102005af180435550",
                "storage": {
                    "0x0000000000000000000000000000000000000000000000000000000000000002": "0x0000000000000000000000000000000000000000000000000000000000000001"
                },
                "balance": "0x0"
            },
            "0x0000000000000000000000000000000000000200": {
                "balance": "0x1"
            },
            "0x2adc25665018aa1fe0e6bc666dac8fc2697ff9ba": {
                "balance": "0x62d7e"
            },
            "0xa94f5374fce5edbc8e2a8697c15331677e6ebf0b": {
                "balance": "0x3635c9adc5de8b685c",
                "nonce": "0x2"
            }
        },
        "sealEngine": "NoProof"
    }
}