{
    "000_shanghai": {
        "_info": {
            "filling-transition-tool": "evm version 1.11.0-unstable-f7ab681b-20221221",
            "filling-block-build-tool": "evm version 1.11.0-unstable-f7ab681b-20221221"
        },
        "blocks": [
            {
                "rlp": "0xf90320f9021aa0d2076778d27a2c40ef1fd7e21c9751fc6a10be10ad2f1ee6eb28b26d7985e2d7a01dcc4de8dec75d7aab85b567b6ccd41ad312451b948a7413f0a142fd40d49347942adc25665018aa1fe0e6bc666dac8fc2697ff9baa0fe3e13e82effefff727e3fdc39f7cbdfbab72dc17b5c031f5c50ffee3ea42a88a07442c7b0537a6eb4fa1e716f9c27f93f709029580114c5f988db69c86016c2e5a0565dbae32920fdc51f307a7eae972eed4f68bf2fa895f24169f0623ef1b6d66cb9010000000000000000000000000000000000000000000000000000000000000000000000000000000000000000000000000000000000000000000000000000000000000000000000000000000000000000000000000000000000000000000000000000000000000000000000000000000000000000000000000000000000000000000000000000000000000000000000000000000000000000000000000000000000000000000000000000000000000000000000000000000000000000000000000000000000000000000000000000000000000000000000000000000000000000000000000000000000000000000000000000000000000000000000000000000000800188016345785d8a0000830150c20c80a0000000000000000000000000000000000000000000000000000000000000000088000000000000000007a085412d5deeda0bdac568e7e7fa287b24c33da0ef1ba0a99248b7ead4faadec7cf8c4f860800a830186a0940000000000000000000000000000000000000300808026a0cbc098d492e6b1fcbdb61a993b5d9af820db066388b4c9f4707ee32addafd50da020f90b5fa35d575f8aa71504c7e2ee523e0d3c4fb86dd2886b2d46e8a33c4aa0f860010a830186a0940000000000000000000000000000000000000400808026a0e180dee1ed22645d45aad4334e91619bbd8d8b5b2c8e1366e0d8b8980059a797a0170f6aca5a65ec2028af11d1c1852e02541aef3df745f52c8f368f1aec4accf5c0f83adc8080940000000000000000000000000000000000000100843b9aca00dc0101940000000000000000000000000000000000000200843b9aca00",
                "blockHeader": {
                    "parentHash": "0xd2076778d27a2c40ef1fd7e21c9751fc6a10be10ad2f1ee6eb28b26d7985e2d7",
                    "uncleHash": "0x1dcc4de8dec75d7aab85b567b6ccd41ad312451b948a7413f0a142fd40d49347",
                    "coinbase": "0x2adc25665018aa1fe0e6bc666dac8fc2697ff9ba",
                    "stateRoot": "0xfe3e13e82effefff727e3fdc39f7cbdfbab72dc17b5c031f5c50ffee3ea42a88",
                    "transactionsTrie": "0x7442c7b0537a6eb4fa1e716f9c27f93f709029580114c5f988db69c86016c2e5",
                    "receiptTrie": "0x565dbae32920fdc51f307a7eae972eed4f68bf2fa895f24169f0623ef1b6d66c",
                    "bloom": "0x00000000000000000000000000000000000000000000000000000000000000000000000000000000000000000000000000000000000000000000000000000000000000000000000000000000000000000000000000000000000000000000000000000000000000000000000000000000000000000000000000000000000000000000000000000000000000000000000000000000000000000000000000000000000000000000000000000000000000000000000000000000000000000000000000000000000000000000000000000000000000000000000000000000000000000000000000000000000000000000000000000000000000000000000000000000",
                    "difficulty": "0x0",
                    "number": "0x1",
                    "gasLimit": "0x16345785d8a0000",
                    "gasUsed": "0x150c2",
                    "timestamp": "0xc",
                    "extraData": "0x",
                    "mixHash": "0x0000000000000000000000000000000000000000000000000000000000000000",
                    "nonce": "0x0000000000000000",
                    "baseFeePerGas": "0x7",
                    "hash": "0x0466e02ad6c85dbf050e2a5dbd4d0d3bd689871f395173ef4b57d1278f49689b",
                    "withdrawalsRoot": "0x85412d5deeda0bdac568e7e7fa287b24c33da0ef1ba0a99248b7ead4faadec7c"
                },
                "blocknumber": "1"
            },
            {
                "rlp": "0xf90320f9021aa00466e02ad6c85dbf050e2a5dbd4d0d3bd689871f395173ef4b57d1278f49689ba01dcc4de8dec75d7aab85b567b6ccd41ad312451b948a7413f0a142fd40d49347942adc25665018aa1fe0e6bc666dac8fc2697ff9baa07d82e351a71b6500cbde98517e800c78a7ade2bf9bf86ebeab2d9d6889310d0fa0e39a08eafac7cfd8be8770a185b7196712b0ea63416467649d8074425ba8f687a0565dbae32920fdc51f307a7eae972eed4f68bf2fa895f24169f0623ef1b6d66cb9010000000000000000000000000000000000000000000000000000000000000000000000000000000000000000000000000000000000000000000000000000000000000000000000000000000000000000000000000000000000000000000000000000000000000000000000000000000000000000000000000000000000000000000000000000000000000000000000000000000000000000000000000000000000000000000000000000000000000000000000000000000000000000000000000000000000000000000000000000000000000000000000000000000000000000000000000000000000000000000000000000000000000000000000000000000000800288016345785d8a0000830150c21880a0000000000000000000000000000000000000000000000000000000000000000088000000000000000007a02ccf6731bfadb4856ae4ffb81bbca7ab6a4ca11c837dedac7488bf7a9cc3f451f8c4f860020a830186a0940000000000000000000000000000000000000100808025a07315b23576abb7d7563d3348f2723fdb1f053e4bafca1349f7a145ce0180db25a05b91320f746105d676a207b19dbfd64bc4cff4a371a457a49990a4a16ba2056ff860030a830186a0940000000000000000000000000000000000000200808025a0b7a095276292f47aca1357a17a42b1dd4b30cf20e964263458aa79dfa84f192ca06c15c90e8640016f0e3c769829f64eb9309dd1e96e3accad3c1a6008bb67e202c0f83adc8080940000000000000000000000000000000000000300843b9aca00dc0101940000000000000000000000000000000000000400843b9aca00",
                "blockHeader": {
                    "parentHash": "0x0466e02ad6c85dbf050e2a5dbd4d0d3bd689871f395173ef4b57d1278f49689b",
                    "uncleHash": "0x1dcc4de8dec75d7aab85b567b6ccd41ad312451b948a7413f0a142fd40d49347",
                    "coinbase": "0x2adc25665018aa1fe0e6bc666dac8fc2697ff9ba",
                    "stateRoot": "0x7d82e351a71b6500cbde98517e800c78a7ade2bf9bf86ebeab2d9d6889310d0f",
                    "transactionsTrie": "0xe39a08eafac7cfd8be8770a185b7196712b0ea63416467649d8074425ba8f687",
                    "receiptTrie": "0x565dbae32920fdc51f307a7eae972eed4f68bf2fa895f24169f0623ef1b6d66c",
                    "bloom": "0x00000000000000000000000000000000000000000000000000000000000000000000000000000000000000000000000000000000000000000000000000000000000000000000000000000000000000000000000000000000000000000000000000000000000000000000000000000000000000000000000000000000000000000000000000000000000000000000000000000000000000000000000000000000000000000000000000000000000000000000000000000000000000000000000000000000000000000000000000000000000000000000000000000000000000000000000000000000000000000000000000000000000000000000000000000000",
                    "difficulty": "0x0",
                    "number": "0x2",
                    "gasLimit": "0x16345785d8a0000",
                    "gasUsed": "0x150c2",
                    "timestamp": "0x18",
                    "extraData": "0x",
                    "mixHash": "0x0000000000000000000000000000000000000000000000000000000000000000",
                    "nonce": "0x0000000000000000",
                    "baseFeePerGas": "0x7",
                    "hash": "0x805bdd9ca3f5e6a4cd1f42bef52832a5e2a9850fa4717fde174e76d9dd745c44",
                    "withdrawalsRoot": "0x2ccf6731bfadb4856ae4ffb81bbca7ab6a4ca11c837dedac7488bf7a9cc3f451"
                },
                "blocknumber": "2"
            }
        ],
        "genesisBlockHeader": {
            "parentHash": "0x0000000000000000000000000000000000000000000000000000000000000000",
            "uncleHash": "0x1dcc4de8dec75d7aab85b567b6ccd41ad312451b948a7413f0a142fd40d49347",
            "coinbase": "0x0000000000000000000000000000000000000000",
            "stateRoot": "0x3fc1efefb5bef89847fcc9120ce54578e0088cf53b4fddde8d7895e36167bbd5",
            "transactionsTrie": "0x56e81f171bcc55a6ff8345e692c0f86e5b48e01b996cadc001622fb5e363b421",
            "receiptTrie": "0x56e81f171bcc55a6ff8345e692c0f86e5b48e01b996cadc001622fb5e363b421",
            "bloom": "0x00000000000000000000000000000000000000000000000000000000000000000000000000000000000000000000000000000000000000000000000000000000000000000000000000000000000000000000000000000000000000000000000000000000000000000000000000000000000000000000000000000000000000000000000000000000000000000000000000000000000000000000000000000000000000000000000000000000000000000000000000000000000000000000000000000000000000000000000000000000000000000000000000000000000000000000000000000000000000000000000000000000000000000000000000000000",
            "difficulty": "0x20000",
            "number": "0x0",
            "gasLimit": "0x16345785d8a0000",
            "gasUsed": "0x0",
            "timestamp": "0x0",
            "extraData": "0x00",
            "mixHash": "0x0000000000000000000000000000000000000000000000000000000000000000",
            "nonce": "0x0000000000000000",
            "baseFeePerGas": "0x7",
            "hash": "0xd2076778d27a2c40ef1fd7e21c9751fc6a10be10ad2f1ee6eb28b26d7985e2d7",
            "withdrawalsRoot": "0x56e81f171bcc55a6ff8345e692c0f86e5b48e01b996cadc001622fb5e363b421"
        },
        "lastblockhash": "0x805bdd9ca3f5e6a4cd1f42bef52832a5e2a9850fa4717fde174e76d9dd745c44",
        "network": "Shanghai",
        "pre": {
            "0xa94f5374fce5edbc8e2a8697c15331677e6ebf0b": {
                "nonce": "0x0",
                "balance": "0x3635c9adc5dea00000",
                "code": "0x",
                "storage": {}
            },
            "0x0000000000000000000000000000000000000100": {
                "nonce": "0x0",
                "balance": "0x0",
                "code": "0x60014355",
                "storage": {}
            },
            "0x0000000000000000000000000000000000000200": {
                "nonce": "0x0",
                "balance": "0x0",
                "code": "0x60014355",
                "storage": {}
            },
            "0x0000000000000000000000000000000000000300": {
                "nonce": "0x0",
                "balance": "0x0",
                "code": "0x60014355",
                "storage": {}
            },
            "0x0000000000000000000000000000000000000400": {
                "nonce": "0x0",
                "balance": "0x0",
                "code": "0x60014355",
                "storage": {}
            }
        },
        "postState": {
            "0x0000000000000000000000000000000000000100": {
                "code": "0x60014355",
                "storage": {
                    "0x0000000000000000000000000000000000000000000000000000000000000002": "0x0000000000000000000000000000000000000000000000000000000000000001"
                },
                "balance": "0x3b9aca00"
            },
            "0x0000000000000000000000000000000000000200": {
                "code": "0x60014355",
                "storage": {
                    "0x0000000000000000000000000000000000000000000000000000000000000002": "0x0000000000000000000000000000000000000000000000000000000000000001"
                },
                "balance": "0x3b9aca00"
            },
            "0x0000000000000000000000000000000000000300": {
                "code": "0x60014355",
                "storage": {
                    "0x0000000000000000000000000000000000000000000000000000000000000001": "0x0000000000000000000000000000000000000000000000000000000000000001"
                },
                "balance": "0x3b9aca00"
            },
            "0x0000000000000000000000000000000000000400": {
                "code": "0x60014355",
                "storage": {
                    "0x0000000000000000000000000000000000000000000000000000000000000001": "0x0000000000000000000000000000000000000000000000000000000000000001"
                },
                "balance": "0x3b9aca00"
            },
            "0x2adc25665018aa1fe0e6bc666dac8fc2697ff9ba": {
                "balance": "0x7e48c"
            },
            "0xa94f5374fce5edbc8e2a8697c15331677e6ebf0b": {
                "balance": "0x3635c9adc5de85b0d8",
                "nonce": "0x4"
            }
        },
        "sealEngine": "NoProof"
    }
}