{
    "000_shanghai": {
        "_info": {
            "filling-transition-tool": "evm version 1.11.0-unstable-f7ab681b-20221221",
            "filling-block-build-tool": "evm version 1.11.0-unstable-f7ab681b-20221221"
        },
        "blocks": [
            {
                "rlp": "0xf9029bf90217a04f599e5f9ed2eea60aa208b0fd0080c05a8fd67f5a115b5777389d469c076822a01dcc4de8dec75d7aab85b567b6ccd41ad312451b948a7413f0a142fd40d49347942adc25665018aa1fe0e6bc666dac8fc2697ff9baa0d9399dd2019b8a24fe633ab59d5f4cc0236c0956fd72b15437cb29cdc2f98cf1a056e81f171bcc55a6ff8345e692c0f86e5b48e01b996cadc001622fb5e363b421a056e81f171bcc55a6ff8345e692c0f86e5b48e01b996cadc001622fb5e363b421b9010000000000000000000000000000000000000000000000000000000000000000000000000000000000000000000000000000000000000000000000000000000000000000000000000000000000000000000000000000000000000000000000000000000000000000000000000000000000000000000000000000000000000000000000000000000000000000000000000000000000000000000000000000000000000000000000000000000000000000000000000000000000000000000000000000000000000000000000000000000000000000000000000000000000000000000000000000000000000000000000000000000000000000000000000000000000800188016345785d8a0000800c80a0000000000000000000000000000000000000000000000000000000000000000088000000000000000007a09e70f91567557d92e0e5b8fa1cb7c34f89e5963ee857c0caac148e8d4e740287f861f85f800a825208940000000000000000000000000000000000000100808026a0b47d0e842721c23bf15774815647511dc23adf352b67ed28564ab76cc61a291fa013a79e29d060c547147f314e02fc8b11f4ca6ed870e2021c84c765c80784b9d6c0dcdb808094a94f5374fce5edbc8e2a8697c15331677e6ebf0b83033451",
                "expectException": "Transaction without funds",
                "blocknumber": "1"
            },
            {
                "rlp": "0xf90239f90217a04f599e5f9ed2eea60aa208b0fd0080c05a8fd67f5a115b5777389d469c076822a01dcc4de8dec75d7aab85b567b6ccd41ad312451b948a7413f0a142fd40d49347942adc25665018aa1fe0e6bc666dac8fc2697ff9baa0d9399dd2019b8a24fe633ab59d5f4cc0236c0956fd72b15437cb29cdc2f98cf1a056e81f171bcc55a6ff8345e692c0f86e5b48e01b996cadc001622fb5e363b421a056e81f171bcc55a6ff8345e692c0f86e5b48e01b996cadc001622fb5e363b421b9010000000000000000000000000000000000000000000000000000000000000000000000000000000000000000000000000000000000000000000000000000000000000000000000000000000000000000000000000000000000000000000000000000000000000000000000000000000000000000000000000000000000000000000000000000000000000000000000000000000000000000000000000000000000000000000000000000000000000000000000000000000000000000000000000000000000000000000000000000000000000000000000000000000000000000000000000000000000000000000000000000000000000000000000000000000000800188016345785d8a0000800c80a0000000000000000000000000000000000000000000000000000000000000000088000000000000000007a09e70f91567557d92e0e5b8fa1cb7c34f89e5963ee857c0caac148e8d4e740287c0c0dcdb808094a94f5374fce5edbc8e2a8697c15331677e6ebf0b83033451",
                "blockHeader": {
                    "parentHash": "0x4f599e5f9ed2eea60aa208b0fd0080c05a8fd67f5a115b5777389d469c076822",
                    "uncleHash": "0x1dcc4de8dec75d7aab85b567b6ccd41ad312451b948a7413f0a142fd40d49347",
                    "coinbase": "0x2adc25665018aa1fe0e6bc666dac8fc2697ff9ba",
                    "stateRoot": "0xd9399dd2019b8a24fe633ab59d5f4cc0236c0956fd72b15437cb29cdc2f98cf1",
                    "transactionsTrie": "0x56e81f171bcc55a6ff8345e692c0f86e5b48e01b996cadc001622fb5e363b421",
                    "receiptTrie": "0x56e81f171bcc55a6ff8345e692c0f86e5b48e01b996cadc001622fb5e363b421",
                    "bloom": "0x00000000000000000000000000000000000000000000000000000000000000000000000000000000000000000000000000000000000000000000000000000000000000000000000000000000000000000000000000000000000000000000000000000000000000000000000000000000000000000000000000000000000000000000000000000000000000000000000000000000000000000000000000000000000000000000000000000000000000000000000000000000000000000000000000000000000000000000000000000000000000000000000000000000000000000000000000000000000000000000000000000000000000000000000000000000",
                    "difficulty": "0x0",
                    "number": "0x1",
                    "gasLimit": "0x16345785d8a0000",
                    "gasUsed": "0x0",
                    "timestamp": "0xc",
                    "extraData": "0x",
                    "mixHash": "0x0000000000000000000000000000000000000000000000000000000000000000",
                    "nonce": "0x0000000000000000",
                    "baseFeePerGas": "0x7",
                    "hash": "0x8bcf2cb2005fff51846b1a091284ec2862ee079b0ec319f85faca820be24e784",
                    "withdrawalsRoot": "0x9e70f91567557d92e0e5b8fa1cb7c34f89e5963ee857c0caac148e8d4e740287"
                },
                "blocknumber": "1"
            },
            {
                "rlp": "0xf90281f90219a08bcf2cb2005fff51846b1a091284ec2862ee079b0ec319f85faca820be24e784a01dcc4de8dec75d7aab85b567b6ccd41ad312451b948a7413f0a142fd40d49347942adc25665018aa1fe0e6bc666dac8fc2697ff9baa000893659fcde4cd949207d134206085a035931b895525b9a4a6ed2a53256ae60a06609eed6a1db57d9d84439641d6014f0ab8896a72f97f6138a307da1d44e365aa0056b23fbba480696b65fe5a59b8f2148a1299103c4f57df839233af2cf4ca2d2b9010000000000000000000000000000000000000000000000000000000000000000000000000000000000000000000000000000000000000000000000000000000000000000000000000000000000000000000000000000000000000000000000000000000000000000000000000000000000000000000000000000000000000000000000000000000000000000000000000000000000000000000000000000000000000000000000000000000000000000000000000000000000000000000000000000000000000000000000000000000000000000000000000000000000000000000000000000000000000000000000000000000000000000000000000000000000800288016345785d8a00008252081880a0000000000000000000000000000000000000000000000000000000000000000088000000000000000007a056e81f171bcc55a6ff8345e692c0f86e5b48e01b996cadc001622fb5e363b421f861f85f800a825208940000000000000000000000000000000000000100808026a0b47d0e842721c23bf15774815647511dc23adf352b67ed28564ab76cc61a291fa013a79e29d060c547147f314e02fc8b11f4ca6ed870e2021c84c765c80784b9d6c0c0",
                "blockHeader": {
                    "parentHash": "0x8bcf2cb2005fff51846b1a091284ec2862ee079b0ec319f85faca820be24e784",
                    "uncleHash": "0x1dcc4de8dec75d7aab85b567b6ccd41ad312451b948a7413f0a142fd40d49347",
                    "coinbase": "0x2adc25665018aa1fe0e6bc666dac8fc2697ff9ba",
                    "stateRoot": "0x00893659fcde4cd949207d134206085a035931b895525b9a4a6ed2a53256ae60",
                    "transactionsTrie": "0x6609eed6a1db57d9d84439641d6014f0ab8896a72f97f6138a307da1d44e365a",
                    "receiptTrie": "0x056b23fbba480696b65fe5a59b8f2148a1299103c4f57df839233af2cf4ca2d2",
                    "bloom": "0x00000000000000000000000000000000000000000000000000000000000000000000000000000000000000000000000000000000000000000000000000000000000000000000000000000000000000000000000000000000000000000000000000000000000000000000000000000000000000000000000000000000000000000000000000000000000000000000000000000000000000000000000000000000000000000000000000000000000000000000000000000000000000000000000000000000000000000000000000000000000000000000000000000000000000000000000000000000000000000000000000000000000000000000000000000000",
                    "difficulty": "0x0",
                    "number": "0x2",
                    "gasLimit": "0x16345785d8a0000",
                    "gasUsed": "0x5208",
                    "timestamp": "0x18",
                    "extraData": "0x",
                    "mixHash": "0x0000000000000000000000000000000000000000000000000000000000000000",
                    "nonce": "0x0000000000000000",
                    "baseFeePerGas": "0x7",
                    "hash": "0xde65c58952004ac1eac4909e5f856e0c7d4028583e2cda5a9f49b782970a9fab",
                    "withdrawalsRoot": "0x56e81f171bcc55a6ff8345e692c0f86e5b48e01b996cadc001622fb5e363b421"
                },
                "blocknumber": "2"
            }
        ],
        "genesisBlockHeader": {
            "parentHash": "0x0000000000000000000000000000000000000000000000000000000000000000",
            "uncleHash": "0x1dcc4de8dec75d7aab85b567b6ccd41ad312451b948a7413f0a142fd40d49347",
            "coinbase": "0x0000000000000000000000000000000000000000",
            "stateRoot": "0x56e81f171bcc55a6ff8345e692c0f86e5b48e01b996cadc001622fb5e363b421",
            "transactionsTrie": "0x56e81f171bcc55a6ff8345e692c0f86e5b48e01b996cadc001622fb5e363b421",
            "receiptTrie": "0x56e81f171bcc55a6ff8345e692c0f86e5b48e01b996cadc001622fb5e363b421",
            "bloom": "0x00000000000000000000000000000000000000000000000000000000000000000000000000000000000000000000000000000000000000000000000000000000000000000000000000000000000000000000000000000000000000000000000000000000000000000000000000000000000000000000000000000000000000000000000000000000000000000000000000000000000000000000000000000000000000000000000000000000000000000000000000000000000000000000000000000000000000000000000000000000000000000000000000000000000000000000000000000000000000000000000000000000000000000000000000000000",
            "difficulty": "0x20000",
            "number": "0x0",
            "gasLimit": "0x16345785d8a0000",
            "gasUsed": "0x0",
            "timestamp": "0x0",
            "extraData": "0x00",
            "mixHash": "0x0000000000000000000000000000000000000000000000000000000000000000",
            "nonce": "0x0000000000000000",
            "baseFeePerGas": "0x7",
            "hash": "0x4f599e5f9ed2eea60aa208b0fd0080c05a8fd67f5a115b5777389d469c076822",
            "withdrawalsRoot": "0x56e81f171bcc55a6ff8345e692c0f86e5b48e01b996cadc001622fb5e363b421"
        },
        "lastblockhash": "0xde65c58952004ac1eac4909e5f856e0c7d4028583e2cda5a9f49b782970a9fab",
        "network": "Shanghai",
        "pre": {},
        "postState": {
            "0x2adc25665018aa1fe0e6bc666dac8fc2697ff9ba": {
                "balance": "0xf618"
            },
            "0xa94f5374fce5edbc8e2a8697c15331677e6ebf0b": {
                "balance": "0x1",
                "nonce": "0x1"
            }
        },
        "sealEngine": "NoProof"
    }
}