{
    "000_shanghai": {
        "_info": {
            "filling-transition-tool": "evm version 1.11.0-unstable-55f41d19-20230126",
            "filling-block-build-tool": "evm version 1.11.0-unstable-55f41d19-20230126"
        },
        "blocks": [
            {
                "rlp": "0xf9028cf90219a0ea2d7e0192d890c222f0302d972a02db0bf0c6d08257d73aa1210d08d24f30c3a01dcc4de8dec75d7aab85b567b6ccd41ad312451b948a7413f0a142fd40d49347942adc25665018aa1fe0e6bc666dac8fc2697ff9baa05271648ce214ca1efbb91c9897ff4f1538ff856d68a5d2ffd9bee7caf8589c3ea01caedad81421ea1697157f7355d4a2ebf77b5e3bf59fbd3b75f7a3a4942842afa06363485005a5cae5b903c3085b077d8b668552fb8aa354458f3966fe5aaf87dab9010000000000000000000000000000000000000000000000000000000000000000000000000000000000000000000000000000000000000000000000000000000000000000000000000000000000000000000000000000000000000000000000000000000000000000000000000000000000000000000000000000000000000000000000000000000000000000000000000000000000000000000000000000000000000000000000000000000000000000000000000000000000000000000000000000000000000000000000000000000000000000000000000000000000000000000000000000000000000000000000000000000000000000000000000000000000800188016345785d8a000082d01f0c80a0000000000000000000000000000000000000000000000000000000000000000088000000000000000007a082cc6fbe74c41496b382fcdf25216c5af7bdbb5a3929e8f2e61bd6445ab66436f853f851800a830f424080808560016000f325a0aa4416bc33be9eb3ac22a10724647c5352c934da54994aea094f24f3c7868741a07c67dae2f47ead0e15606a9cdd87b6a73f0fc84732c441633a6adf7bbf0a5032c0d9d88080946295ee1b4f6dd65047762f924ecd367c17eabf8f01",
                "blockHeader": {
                    "parentHash": "0xea2d7e0192d890c222f0302d972a02db0bf0c6d08257d73aa1210d08d24f30c3",
                    "uncleHash": "0x1dcc4de8dec75d7aab85b567b6ccd41ad312451b948a7413f0a142fd40d49347",
                    "coinbase": "0x2adc25665018aa1fe0e6bc666dac8fc2697ff9ba",
                    "stateRoot": "0x5271648ce214ca1efbb91c9897ff4f1538ff856d68a5d2ffd9bee7caf8589c3e",
                    "transactionsTrie": "0x1caedad81421ea1697157f7355d4a2ebf77b5e3bf59fbd3b75f7a3a4942842af",
                    "receiptTrie": "0x6363485005a5cae5b903c3085b077d8b668552fb8aa354458f3966fe5aaf87da",
                    "bloom": "0x00000000000000000000000000000000000000000000000000000000000000000000000000000000000000000000000000000000000000000000000000000000000000000000000000000000000000000000000000000000000000000000000000000000000000000000000000000000000000000000000000000000000000000000000000000000000000000000000000000000000000000000000000000000000000000000000000000000000000000000000000000000000000000000000000000000000000000000000000000000000000000000000000000000000000000000000000000000000000000000000000000000000000000000000000000000",
                    "difficulty": "0x0",
                    "number": "0x1",
                    "gasLimit": "0x16345785d8a0000",
                    "gasUsed": "0xd01f",
                    "timestamp": "0xc",
                    "extraData": "0x",
                    "mixHash": "0x0000000000000000000000000000000000000000000000000000000000000000",
                    "nonce": "0x0000000000000000",
                    "baseFeePerGas": "0x7",
                    "hash": "0xd236ae7d11f63e762b9f9b2c16d2a252344b20e3b7b3143be6520d7897594d99",
                    "withdrawalsRoot": "0x82cc6fbe74c41496b382fcdf25216c5af7bdbb5a3929e8f2e61bd6445ab66436"
                },
                "blocknumber": "1"
            }
        ],
        "genesisBlockHeader": {
            "parentHash": "0x0000000000000000000000000000000000000000000000000000000000000000",
            "uncleHash": "0x1dcc4de8dec75d7aab85b567b6ccd41ad312451b948a7413f0a142fd40d49347",
            "coinbase": "0x0000000000000000000000000000000000000000",
            "stateRoot": "0x70c42824108fafccadbfce71e6e22660c4fad89be18be324cd15ef351969a8c8",
            "transactionsTrie": "0x56e81f171bcc55a6ff8345e692c0f86e5b48e01b996cadc001622fb5e363b421",
            "receiptTrie": "0x56e81f171bcc55a6ff8345e692c0f86e5b48e01b996cadc001622fb5e363b421",
            "bloom": "0x00000000000000000000000000000000000000000000000000000000000000000000000000000000000000000000000000000000000000000000000000000000000000000000000000000000000000000000000000000000000000000000000000000000000000000000000000000000000000000000000000000000000000000000000000000000000000000000000000000000000000000000000000000000000000000000000000000000000000000000000000000000000000000000000000000000000000000000000000000000000000000000000000000000000000000000000000000000000000000000000000000000000000000000000000000000",
            "difficulty": "0x0",
            "number": "0x0",
            "gasLimit": "0x16345785d8a0000",
            "gasUsed": "0x0",
            "timestamp": "0x0",
            "extraData": "0x00",
            "mixHash": "0x0000000000000000000000000000000000000000000000000000000000000000",
            "nonce": "0x0000000000000000",
            "baseFeePerGas": "0x7",
            "hash": "0xea2d7e0192d890c222f0302d972a02db0bf0c6d08257d73aa1210d08d24f30c3",
            "withdrawalsRoot": "0x56e81f171bcc55a6ff8345e692c0f86e5b48e01b996cadc001622fb5e363b421"
        },
        "genesisRLP": "0xf9021cf90217a00000000000000000000000000000000000000000000000000000000000000000a01dcc4de8dec75d7aab85b567b6ccd41ad312451b948a7413f0a142fd40d49347940000000000000000000000000000000000000000a070c42824108fafccadbfce71e6e22660c4fad89be18be324cd15ef351969a8c8a056e81f171bcc55a6ff8345e692c0f86e5b48e01b996cadc001622fb5e363b421a056e81f171bcc55a6ff8345e692c0f86e5b48e01b996cadc001622fb5e363b421b9010000000000000000000000000000000000000000000000000000000000000000000000000000000000000000000000000000000000000000000000000000000000000000000000000000000000000000000000000000000000000000000000000000000000000000000000000000000000000000000000000000000000000000000000000000000000000000000000000000000000000000000000000000000000000000000000000000000000000000000000000000000000000000000000000000000000000000000000000000000000000000000000000000000000000000000000000000000000000000000000000000000000000000000000000000000000808088016345785d8a0000808000a0000000000000000000000000000000000000000000000000000000000000000088000000000000000007a056e81f171bcc55a6ff8345e692c0f86e5b48e01b996cadc001622fb5e363b421c0c0",
        "lastblockhash": "0xd236ae7d11f63e762b9f9b2c16d2a252344b20e3b7b3143be6520d7897594d99",
        "network": "Shanghai",
        "pre": {
            "0xa94f5374fce5edbc8e2a8697c15331677e6ebf0b": {
                "nonce": "0x0",
                "balance": "0x3635c9adc5dea00000",
                "code": "0x",
                "storage": {}
            }
        },
        "postState": {
            "0x2adc25665018aa1fe0e6bc666dac8fc2697ff9ba": {
                "balance": "0x2705d"
            },
            "0x6295ee1b4f6dd65047762f924ecd367c17eabf8f": {
                "code": "0x00",
                "balance": "0x3b9aca00",
                "nonce": "0x1"
            },
            "0xa94f5374fce5edbc8e2a8697c15331677e6ebf0b": {
                "balance": "0x3635c9adc5de97deca",
                "nonce": "0x1"
            }
        },
        "sealEngine": "NoProof"
    },
    "001_shanghai": {
        "_info": {
            "filling-transition-tool": "evm version 1.11.0-unstable-55f41d19-20230126",
            "filling-block-build-tool": "evm version 1.11.0-unstable-55f41d19-20230126"
        },
        "blocks": [
            {
                "rlp": "0xf90290f90219a0ea2d7e0192d890c222f0302d972a02db0bf0c6d08257d73aa1210d08d24f30c3a01dcc4de8dec75d7aab85b567b6ccd41ad312451b948a7413f0a142fd40d49347942adc25665018aa1fe0e6bc666dac8fc2697ff9baa0cc8529b2d5e0d5a288aab8adb5838f2c97750e4587eb0800d67431dc209b5dd3a0bf7edd579c619666a3c7728c7b21087597d07a3949b3edbd353327cd135a43c5a06363485005a5cae5b903c3085b077d8b668552fb8aa354458f3966fe5aaf87dab9010000000000000000000000000000000000000000000000000000000000000000000000000000000000000000000000000000000000000000000000000000000000000000000000000000000000000000000000000000000000000000000000000000000000000000000000000000000000000000000000000000000000000000000000000000000000000000000000000000000000000000000000000000000000000000000000000000000000000000000000000000000000000000000000000000000000000000000000000000000000000000000000000000000000000000000000000000000000000000000000000000000000000000000000000000000000800188016345785d8a000082d01f0c80a0000000000000000000000000000000000000000000000000000000000000000088000000000000000007a082cc6fbe74c41496b382fcdf25216c5af7bdbb5a3929e8f2e61bd6445ab66436f857f855800a830f424080843b9aca008560016000f325a02f2ab7fd4e7790efc24b7e87c11cdf46198f66a6999a8e1262df616affe00ae4a06d43b1ded801dd642e44d59ade66ad905f061c133c8c11ef39fa86278455b41fc0d9d88080946295ee1b4f6dd65047762f924ecd367c17eabf8f01",
                "blockHeader": {
                    "parentHash": "0xea2d7e0192d890c222f0302d972a02db0bf0c6d08257d73aa1210d08d24f30c3",
                    "uncleHash": "0x1dcc4de8dec75d7aab85b567b6ccd41ad312451b948a7413f0a142fd40d49347",
                    "coinbase": "0x2adc25665018aa1fe0e6bc666dac8fc2697ff9ba",
                    "stateRoot": "0xcc8529b2d5e0d5a288aab8adb5838f2c97750e4587eb0800d67431dc209b5dd3",
                    "transactionsTrie": "0xbf7edd579c619666a3c7728c7b21087597d07a3949b3edbd353327cd135a43c5",
                    "receiptTrie": "0x6363485005a5cae5b903c3085b077d8b668552fb8aa354458f3966fe5aaf87da",
                    "bloom": "0x00000000000000000000000000000000000000000000000000000000000000000000000000000000000000000000000000000000000000000000000000000000000000000000000000000000000000000000000000000000000000000000000000000000000000000000000000000000000000000000000000000000000000000000000000000000000000000000000000000000000000000000000000000000000000000000000000000000000000000000000000000000000000000000000000000000000000000000000000000000000000000000000000000000000000000000000000000000000000000000000000000000000000000000000000000000",
                    "difficulty": "0x0",
                    "number": "0x1",
                    "gasLimit": "0x16345785d8a0000",
                    "gasUsed": "0xd01f",
                    "timestamp": "0xc",
                    "extraData": "0x",
                    "mixHash": "0x0000000000000000000000000000000000000000000000000000000000000000",
                    "nonce": "0x0000000000000000",
                    "baseFeePerGas": "0x7",
                    "hash": "0x22522cf4dad63dbead0e5567e3405118768951cebf275e4fdf98ed4073bdd7b0",
                    "withdrawalsRoot": "0x82cc6fbe74c41496b382fcdf25216c5af7bdbb5a3929e8f2e61bd6445ab66436"
                },
                "blocknumber": "1"
            }
        ],
        "genesisBlockHeader": {
            "parentHash": "0x0000000000000000000000000000000000000000000000000000000000000000",
            "uncleHash": "0x1dcc4de8dec75d7aab85b567b6ccd41ad312451b948a7413f0a142fd40d49347",
            "coinbase": "0x0000000000000000000000000000000000000000",
            "stateRoot": "0x70c42824108fafccadbfce71e6e22660c4fad89be18be324cd15ef351969a8c8",
            "transactionsTrie": "0x56e81f171bcc55a6ff8345e692c0f86e5b48e01b996cadc001622fb5e363b421",
            "receiptTrie": "0x56e81f171bcc55a6ff8345e692c0f86e5b48e01b996cadc001622fb5e363b421",
            "bloom": "0x00000000000000000000000000000000000000000000000000000000000000000000000000000000000000000000000000000000000000000000000000000000000000000000000000000000000000000000000000000000000000000000000000000000000000000000000000000000000000000000000000000000000000000000000000000000000000000000000000000000000000000000000000000000000000000000000000000000000000000000000000000000000000000000000000000000000000000000000000000000000000000000000000000000000000000000000000000000000000000000000000000000000000000000000000000000",
            "difficulty": "0x0",
            "number": "0x0",
            "gasLimit": "0x16345785d8a0000",
            "gasUsed": "0x0",
            "timestamp": "0x0",
            "extraData": "0x00",
            "mixHash": "0x0000000000000000000000000000000000000000000000000000000000000000",
            "nonce": "0x0000000000000000",
            "baseFeePerGas": "0x7",
            "hash": "0xea2d7e0192d890c222f0302d972a02db0bf0c6d08257d73aa1210d08d24f30c3",
            "withdrawalsRoot": "0x56e81f171bcc55a6ff8345e692c0f86e5b48e01b996cadc001622fb5e363b421"
        },
        "genesisRLP": "0xf9021cf90217a00000000000000000000000000000000000000000000000000000000000000000a01dcc4de8dec75d7aab85b567b6ccd41ad312451b948a7413f0a142fd40d49347940000000000000000000000000000000000000000a070c42824108fafccadbfce71e6e22660c4fad89be18be324cd15ef351969a8c8a056e81f171bcc55a6ff8345e692c0f86e5b48e01b996cadc001622fb5e363b421a056e81f171bcc55a6ff8345e692c0f86e5b48e01b996cadc001622fb5e363b421b9010000000000000000000000000000000000000000000000000000000000000000000000000000000000000000000000000000000000000000000000000000000000000000000000000000000000000000000000000000000000000000000000000000000000000000000000000000000000000000000000000000000000000000000000000000000000000000000000000000000000000000000000000000000000000000000000000000000000000000000000000000000000000000000000000000000000000000000000000000000000000000000000000000000000000000000000000000000000000000000000000000000000000000000000000000000000808088016345785d8a0000808000a0000000000000000000000000000000000000000000000000000000000000000088000000000000000007a056e81f171bcc55a6ff8345e692c0f86e5b48e01b996cadc001622fb5e363b421c0c0",
        "lastblockhash": "0x22522cf4dad63dbead0e5567e3405118768951cebf275e4fdf98ed4073bdd7b0",
        "network": "Shanghai",
        "pre": {
            "0xa94f5374fce5edbc8e2a8697c15331677e6ebf0b": {
                "nonce": "0x0",
                "balance": "0x3635c9adc5dea00000",
                "code": "0x",
                "storage": {}
            }
        },
        "postState": {
            "0x2adc25665018aa1fe0e6bc666dac8fc2697ff9ba": {
                "balance": "0x2705d"
            },
            "0x6295ee1b4f6dd65047762f924ecd367c17eabf8f": {
                "code": "0x00",
                "balance": "0x77359400",
                "nonce": "0x1"
            },
            "0xa94f5374fce5edbc8e2a8697c15331677e6ebf0b": {
                "balance": "0x3635c9adc5a2fd14ca",
                "nonce": "0x1"
            }
        },
        "sealEngine": "NoProof"
    }
}