{
    "000_shanghai": {
        "_info": {
            "filling-transition-tool": "evm version 1.11.0-unstable-55f41d19-20230126",
            "filling-block-build-tool": "evm version 1.11.0-unstable-55f41d19-20230126"
        },
        "blocks": [
            {
                "rlp": "0xf902bbf90219a0d742425a3f6c7896b56a006ff41b61df21820e3c980fa7600feb86def0b1fe5ba01dcc4de8dec75d7aab85b567b6ccd41ad312451b948a7413f0a142fd40d49347942adc25665018aa1fe0e6bc666dac8fc2697ff9baa02488b4c8534475561411ac44672e1b839fb4a7a65754dbaeedab4aeec6322834a0c571cf73fd8fef916df38a63823699e208de1b224e5bdaed87a4c73f72a07f7ca0c49cb499769d5ea53f0aadde16031b1180b0da36ff3eb9b2fe987ef1e90557a4b9010000000000000000000000000000000000000000000000000000000000000000000000000000000000000000000000000000000000000000000000000000000000000000000000000000000000000000000000000000000000000000000000000000000000000000000000000000000000000000000000000000000000000000000000000000000000000000000000000000000000000000000000000000000000000000000000000000000000000000000000000000000000000000000000000000000000000000000000000000000000000000000000000000000000000000000000000000000000000000000000000000000000000000000000000000000000800188016345785d8a000082d1f50c80a0000000000000000000000000000000000000000000000000000000000000000088000000000000000007a08dbfabd4e0dde509292d6d557e411dfda784f96132e5db82abfe4f33cd613bd5f882f880800a830186a094000000000000000000000000000000000000010080a0000000000000000000000000000000000000000000000000000000000000020026a0fd75940662272e5daac655a822b10f101866916a2975c3821111ad4ab481d48ba067a11d0fcd31933ad4b62b4d6fd4f1540f93406d501e41b82ff59223303f60c5c0d9d8808094000000000000000000000000000000000000010063",
                "blockHeader": {
                    "parentHash": "0xd742425a3f6c7896b56a006ff41b61df21820e3c980fa7600feb86def0b1fe5b",
                    "uncleHash": "0x1dcc4de8dec75d7aab85b567b6ccd41ad312451b948a7413f0a142fd40d49347",
                    "coinbase": "0x2adc25665018aa1fe0e6bc666dac8fc2697ff9ba",
                    "stateRoot": "0x2488b4c8534475561411ac44672e1b839fb4a7a65754dbaeedab4aeec6322834",
                    "transactionsTrie": "0xc571cf73fd8fef916df38a63823699e208de1b224e5bdaed87a4c73f72a07f7c",
                    "receiptTrie": "0xc49cb499769d5ea53f0aadde16031b1180b0da36ff3eb9b2fe987ef1e90557a4",
                    "bloom": "0x00000000000000000000000000000000000000000000000000000000000000000000000000000000000000000000000000000000000000000000000000000000000000000000000000000000000000000000000000000000000000000000000000000000000000000000000000000000000000000000000000000000000000000000000000000000000000000000000000000000000000000000000000000000000000000000000000000000000000000000000000000000000000000000000000000000000000000000000000000000000000000000000000000000000000000000000000000000000000000000000000000000000000000000000000000000",
                    "difficulty": "0x0",
                    "number": "0x1",
                    "gasLimit": "0x16345785d8a0000",
                    "gasUsed": "0xd1f5",
                    "timestamp": "0xc",
                    "extraData": "0x",
                    "mixHash": "0x0000000000000000000000000000000000000000000000000000000000000000",
                    "nonce": "0x0000000000000000",
                    "baseFeePerGas": "0x7",
                    "hash": "0xd1774ac2b2a888a4d7e2b3cda7dd16f6c503799c8e3c3625a21e1b8b0409d531",
                    "withdrawalsRoot": "0x8dbfabd4e0dde509292d6d557e411dfda784f96132e5db82abfe4f33cd613bd5"
                },
                "blocknumber": "1"
            }
        ],
        "genesisBlockHeader": {
            "parentHash": "0x0000000000000000000000000000000000000000000000000000000000000000",
            "uncleHash": "0x1dcc4de8dec75d7aab85b567b6ccd41ad312451b948a7413f0a142fd40d49347",
            "coinbase": "0x0000000000000000000000000000000000000000",
            "stateRoot": "0x8bb5afd136d8adc6664a8bdd62e0f597524be5fb30047fe2c6725b30215de02d",
            "transactionsTrie": "0x56e81f171bcc55a6ff8345e692c0f86e5b48e01b996cadc001622fb5e363b421",
            "receiptTrie": "0x56e81f171bcc55a6ff8345e692c0f86e5b48e01b996cadc001622fb5e363b421",
            "bloom": "0x00000000000000000000000000000000000000000000000000000000000000000000000000000000000000000000000000000000000000000000000000000000000000000000000000000000000000000000000000000000000000000000000000000000000000000000000000000000000000000000000000000000000000000000000000000000000000000000000000000000000000000000000000000000000000000000000000000000000000000000000000000000000000000000000000000000000000000000000000000000000000000000000000000000000000000000000000000000000000000000000000000000000000000000000000000000",
            "difficulty": "0x0",
            "number": "0x0",
            "gasLimit": "0x16345785d8a0000",
            "gasUsed": "0x0",
            "timestamp": "0x0",
            "extraData": "0x00",
            "mixHash": "0x0000000000000000000000000000000000000000000000000000000000000000",
            "nonce": "0x0000000000000000",
            "baseFeePerGas": "0x7",
            "hash": "0xd742425a3f6c7896b56a006ff41b61df21820e3c980fa7600feb86def0b1fe5b",
            "withdrawalsRoot": "0x56e81f171bcc55a6ff8345e692c0f86e5b48e01b996cadc001622fb5e363b421"
        },
        "genesisRLP": "0xf9021cf90217a00000000000000000000000000000000000000000000000000000000000000000a01dcc4de8dec75d7aab85b567b6ccd41ad312451b948a7413f0a142fd40d49347940000000000000000000000000000000000000000a08bb5afd136d8adc6664a8bdd62e0f597524be5fb30047fe2c6725b30215de02da056e81f171bcc55a6ff8345e692c0f86e5b48e01b996cadc001622fb5e363b421a056e81f171bcc55a6ff8345e692c0f86e5b48e01b996cadc001622fb5e363b421b9010000000000000000000000000000000000000000000000000000000000000000000000000000000000000000000000000000000000000000000000000000000000000000000000000000000000000000000000000000000000000000000000000000000000000000000000000000000000000000000000000000000000000000000000000000000000000000000000000000000000000000000000000000000000000000000000000000000000000000000000000000000000000000000000000000000000000000000000000000000000000000000000000000000000000000000000000000000000000000000000000000000000000000000000000000000000808088016345785d8a0000808000a0000000000000000000000000000000000000000000000000000000000000000088000000000000000007a056e81f171bcc55a6ff8345e692c0f86e5b48e01b996cadc001622fb5e363b421c0c0",
        "lastblockhash": "0xd1774ac2b2a888a4d7e2b3cda7dd16f6c503799c8e3c3625a21e1b8b0409d531",
        "network": "Shanghai",
        "pre": {
            "0xa94f5374fce5edbc8e2a8697c15331677e6ebf0b": {
                "nonce": "0x0",
                "balance": "0x3635c9adc5dea00000",
                "code": "0x",
                "storage": {}
            },
            "0x0000000000000000000000000000000000000100": {
                "nonce": "0x0",
                "balance": "0x174876e800",
                "code": "0x60003580ff",
                "storage": {}
            },
            "0x0000000000000000000000000000000000000200": {
                "nonce": "0x0",
                "balance": "0x0",
                "code": "0x",
                "storage": {}
            }
        },
        "postState": {
            "0x0000000000000000000000000000000000000100": {
                "balance": "0x170cdc1e00"
            },
            "0x0000000000000000000000000000000000000200": {
                "balance": "0x174876e800"
            },
            "0x2adc25665018aa1fe0e6bc666dac8fc2697ff9ba": {
                "balance": "0x275df"
            },
            "0xa94f5374fce5edbc8e2a8697c15331677e6ebf0b": {
                "balance": "0x3635c9adc5de97cc6e",
                "nonce": "0x1"
            }
        },
        "sealEngine": "NoProof"
    }
}