[
  {
    "id": 0,
    "description": "ecMul output is 64 bytes",
    "sequencerAddress": "0x617b3a3528F9cDd6630fd3301B9c8911F7Bf063D",
    "sequencerPvtKey": "0x28b2b0318721be8c8339199172cd7cc8f5e273800a35616ec893083a4b32c02e",
    "genesis": [
      {
        "address": "0x617b3a3528F9cDd6630fd3301B9c8911F7Bf063D",
        "nonce": "0",
        "balance": "100000000000000000000",
        "pvtKey": "0x28b2b0318721be8c8339199172cd7cc8f5e273800a35616ec893083a4b32c02e"
      },
      {
        "address": "0x4d5Cf5032B2a844602278b01199ED191A86c93ff",
        "nonce": "0",
        "balance": "200000000000000000000",
        "pvtKey": "0x4d27a600dce8c29b7bd080e29a26972377dbb04d7a27d919adbb602bf13cfd23"
      },
      {
        "address": "0x1275fbb540c8efc58b812ba83b0d0b8b9917ae98",
        "nonce": "1",
        "balance": "0",
        "bytecode": "0x608060405234801561001057600080fd5b506004361061004c5760003560e01c806304772c1d146100515780631c43010f1461006d5780639cf9cfc814610089578063fe989d48146100a5575b600080fd5b61006b60048036038101906100669190610328565b6100c1565b005b61008760048036038101906100829190610328565b610136565b005b6100a3600480360381019061009e9190610328565b6101ab565b005b6100bf60048036038101906100ba9190610328565b610220565b005b6100c9610295565b60808183516020850160015afa80600055503d806001555060005b602081101561013157818160208110610100576100ff610489565b5b60200201516002826020811061011957610118610489565b5b0181905550808061012990610411565b9150506100e4565b505050565b61013e610295565b60408183516020850160085afa80600055503d806001555060005b60208110156101a65781816020811061017557610174610489565b5b60200201516002826020811061018e5761018d610489565b5b0181905550808061019e90610411565b915050610159565b505050565b6101b3610295565b60808183516020850160065afa80600055503d806001555060005b602081101561021b578181602081106101ea576101e9610489565b5b60200201516002826020811061020357610202610489565b5b0181905550808061021390610411565b9150506101ce565b505050565b610228610295565b60808183516020850160075afa80600055503d806001555060005b60208110156102905781816020811061025f5761025e610489565b5b60200201516002826020811061027857610277610489565b5b0181905550808061028890610411565b915050610243565b505050565b604051806104000160405280602090602082028036833780820191505090505090565b60006102cb6102c684610396565b610371565b9050828152602081018484840111156102e7576102e66104ec565b5b6102f28482856103d1565b509392505050565b600082601f83011261030f5761030e6104e7565b5b813561031f8482602086016102b8565b91505092915050565b60006020828403121561033e5761033d6104f6565b5b600082013567ffffffffffffffff81111561035c5761035b6104f1565b5b610368848285016102fa565b91505092915050565b600061037b61038c565b905061038782826103e0565b919050565b6000604051905090565b600067ffffffffffffffff8211156103b1576103b06104b8565b5b6103ba826104fb565b9050602081019050919050565b6000819050919050565b82818337600083830152505050565b6103e9826104fb565b810181811067ffffffffffffffff82111715610408576104076104b8565b5b80604052505050565b600061041c826103c7565b91507fffffffffffffffffffffffffffffffffffffffffffffffffffffffffffffffff82141561044f5761044e61045a565b5b600182019050919050565b7f4e487b7100000000000000000000000000000000000000000000000000000000600052601160045260246000fd5b7f4e487b7100000000000000000000000000000000000000000000000000000000600052603260045260246000fd5b7f4e487b7100000000000000000000000000000000000000000000000000000000600052604160045260246000fd5b600080fd5b600080fd5b600080fd5b600080fd5b6000601f19601f830116905091905056fea26469706673582212202966d4738303338a726cbf4b16a53f1282d8575e1c7ed1749fea9289c9a6756b64736f6c63430008070033",
        "abi": [
          {
            "inputs": [
              {
                "internalType": "bytes",
                "name": "input",
                "type": "bytes"
              }
            ],
            "name": "ecAdd",
            "outputs": [],
            "stateMutability": "nonpayable",
            "type": "function"
          },
          {
            "inputs": [
              {
                "internalType": "bytes",
                "name": "input",
                "type": "bytes"
              }
            ],
            "name": "ecMul",
            "outputs": [],
            "stateMutability": "nonpayable",
            "type": "function"
          },
          {
            "inputs": [
              {
                "internalType": "bytes",
                "name": "input",
                "type": "bytes"
              }
            ],
            "name": "ecPairingGeneric",
            "outputs": [],
            "stateMutability": "nonpayable",
            "type": "function"
          },
          {
            "inputs": [
              {
                "internalType": "bytes",
                "name": "input",
                "type": "bytes"
              }
            ],
            "name": "ecRecover",
            "outputs": [],
            "stateMutability": "nonpayable",
            "type": "function"
          }
        ],
        "storage": {}
      }
    ],
    "expectedOldRoot": "0x72d36f85e07d0cd9fc75567db9ca40e81410921ea9e16c76172a301ddcb97e0e",
    "txs": [
      {
        "type": 11,
        "deltaTimestamp": "1944498031",
        "l1Info": {
          "globalExitRoot": "0x090bcaf734c4f06c93954a827b45a6e8c67b8e0fd1e0a35a1c5982d6961828f9",
          "blockHash": "0x24a5871d68723340d9eadc674aa8ad75f3e33b61d5a9db7db92af856a19270bb",
          "timestamp": "42"
        },
        "reason": "",
        "indexL1InfoTree": 0,
        "customRawTx": "0x0b73e6af6f00000000"
      },
      {
        "from": "0x4d5Cf5032B2a844602278b01199ED191A86c93ff",
        "to": "0x1275fbb540c8efc58b812ba83b0d0b8b9917ae98",
        "nonce": 0,
        "value": "0",
        "rawTx": "0xf9010880808401c9c380941275fbb540c8efc58b812ba83b0d0b8b9917ae9880b8a4fe989d48000000000000000000000000000000000000000000000000000000000000002000000000000000000000000000000000000000000000000000000000000000602bd3e6d0f3b142924f5ca7b49ce5b9d54c4703d7ae5648e61d02268b1a0a9fb721611ce0a6af85915e2f1d70300909ce2e49dfad4a4619c8390cae66cefdb20400000000000000000000000000000000000000000000000011138ce750fa15c28207f3a0daef4b994231ec595c329e8e04ea1c30325b6021594bb036d2dc279dda125aafa044a757a55f2558541b0523db0eb7a2b82a8d356c809ea33e714d509e8e6f2812",


        "data": "0xfe989d48000000000000000000000000000000000000000000000000000000000000002000000000000000000000000000000000000000000000000000000000000000602bd3e6d0f3b142924f5ca7b49ce5b9d54c4703d7ae5648e61d02268b1a0a9fb721611ce0a6af85915e2f1d70300909ce2e49dfad4a4619c8390cae66cefdb20400000000000000000000000000000000000000000000000011138ce750fa15c2",
        "gasLimit": 30000000,
        "gasPrice": "0",
        "chainId": 1000,
        "reason": "",
        "indexL1InfoTree": 0,
        "customRawTx": "0xf8c880808401c9c380941275fbb540c8efc58b812ba83b0d0b8b9917ae9880b8a4fe989d48000000000000000000000000000000000000000000000000000000000000002000000000000000000000000000000000000000000000000000000000000000602bd3e6d0f3b142924f5ca7b49ce5b9d54c4703d7ae5648e61d02268b1a0a9fb721611ce0a6af85915e2f1d70300909ce2e49dfad4a4619c8390cae66cefdb20400000000000000000000000000000000000000000000000011138ce750fa15c28203e88080daef4b994231ec595c329e8e04ea1c30325b6021594bb036d2dc279dda125aaf44a757a55f2558541b0523db0eb7a2b82a8d356c809ea33e714d509e8e6f28121bff"
      }
    ],
    "expectedNewRoot": "0x19275c111a31bc53f0a46468b0bf82bd111dcca67ee933282c300ffdd4c827bd",
    "expectedNewLeafs": {
      "0x617b3a3528F9cDd6630fd3301B9c8911F7Bf063D": {
        "balance": "100000000000000000000",
        "nonce": "0",
        "storage": null,
        "hashBytecode": "0x0000000000000000000000000000000000000000000000000000000000000000",
        "bytecodeLength": 0
      },
      "0x4d5Cf5032B2a844602278b01199ED191A86c93ff": {
        "balance": "200000000000000000000",
        "nonce": "1",
        "storage": null,
        "hashBytecode": "0x0000000000000000000000000000000000000000000000000000000000000000",
        "bytecodeLength": 0
      },
      "0x1275fbb540c8efc58b812ba83b0d0b8b9917ae98": {
        "balance": "0",
        "nonce": "1",
        "storage": {
          "0x0000000000000000000000000000000000000000000000000000000000000000": "0x01",
          "0x0000000000000000000000000000000000000000000000000000000000000001": "0x40",
          "0x0000000000000000000000000000000000000000000000000000000000000002": "0x070a8d6a982153cae4be29d434e8faef8a47b274a053f5a4ee2a6c9c13c31e5c",
          "0x0000000000000000000000000000000000000000000000000000000000000003": "0x031b8ce914eba3a9ffb989f9cdd5b0f01943074bf4f0f315690ec3cec6981afc"
        },
        "hashBytecode": "0x6d842ee3d5b0df0b761ad7b684cdfbf4fef99f95f773165bc3f671e8b86995da",
        "bytecodeLength": 1346
      },
      "0x000000000000000000000000000000005ca1ab1e": {
        "balance": "0",
        "nonce": "0",
        "storage": {
          "0x0000000000000000000000000000000000000000000000000000000000000000": "0x01",
          "0x0000000000000000000000000000000000000000000000000000000000000002": "0x73e6af6f",
          "0xa6eef7e35abe7026729641147f7915573c7e97b47efa546f5f6e3230263bcb49": "0x72d36f85e07d0cd9fc75567db9ca40e81410921ea9e16c76172a301ddcb97e0e",
          "0x0000000000000000000000000000000000000000000000000000000000000003": "0x2e584fadad7b55959c4ebbe26d1f867431682a3ff6a618d8862b5899c89ac568"
        },
        "hashBytecode": "0x0000000000000000000000000000000000000000000000000000000000000000",
        "bytecodeLength": 0
      }
    },
    "newLocalExitRoot": "0x0000000000000000000000000000000000000000000000000000000000000000",
    "batchHashData": "0xfa25ac2511de728a6ac1b0208f104d115069bbbfa8b6352f1b3a000a28ff57a6",
    "batchL2Data": "0x0b73e6af6f00000000f8c880808401c9c380941275fbb540c8efc58b812ba83b0d0b8b9917ae9880b8a4fe989d48000000000000000000000000000000000000000000000000000000000000002000000000000000000000000000000000000000000000000000000000000000602bd3e6d0f3b142924f5ca7b49ce5b9d54c4703d7ae5648e61d02268b1a0a9fb721611ce0a6af85915e2f1d70300909ce2e49dfad4a4619c8390cae66cefdb20400000000000000000000000000000000000000000000000011138ce750fa15c28203e88080daef4b994231ec595c329e8e04ea1c30325b6021594bb036d2dc279dda125aaf44a757a55f2558541b0523db0eb7a2b82a8d356c809ea33e714d509e8e6f28121bff",
    "chainID": 1000,
    "oldAccInputHash": "0x0000000000000000000000000000000000000000000000000000000000000000",
    "forkID": 9,
    "l1InfoRoot": "0x090bcaf734c4f06c93954a827b45a6e8c67b8e0fd1e0a35a1c5982d6961828f9",
    "timestampLimit": "1944498031",
    "expectedNewAccInputHash": "0xbc2a369387bdc2e37d4c0d4e69277421dbff91d989537e0e40fa52519b069360",
    "oldBatchAccInputHash": "0x72d36f85e07d0cd9fc75567db9ca40e81410921ea9e16c76172a301ddcb97e0e",
    "oldStateRoot": "0x72d36f85e07d0cd9fc75567db9ca40e81410921ea9e16c76172a301ddcb97e0e",
    "newStateRoot": "0x19275c111a31bc53f0a46468b0bf82bd111dcca67ee933282c300ffdd4c827bd",
    "newBatchAccInputHash": "0x60accc3c72a5a592c5a944e24a65e401962fee136f18633b9e962b4805282f0b",
    "virtualCounters": {
      "steps": 313041,
      "arith": 20887,
      "binary": 21757,
      "memAlign": 127,
      "keccaks": 44,
      "padding": 41,
      "poseidon": 6517,
      "sha256": 0
    },
    "smtDepths": [2, 4]
  }
]