[
  {
    "id": 0,
    "description": "Selfdestruct",
    "chainID": 1000,
    "forkID": 8,
    "sequencerAddress": "0x617b3a3528F9cDd6630fd3301B9c8911F7Bf063D",
    "sequencerPvtKey": "0x28b2b0318721be8c8339199172cd7cc8f5e273800a35616ec893083a4b32c02e",
    "genesis": [
      {
        "balance": "0",
        "nonce": "0",
        "address": "0x0000000000000000000000000000000000000000"
      },
      {
        "balance": "0",
        "nonce": "0",
        "address": "0xAE4bB80bE56B819606589DE61d5ec3b522EEB032"
      },
      {
        "balance": "100000000000000000000",
        "nonce": "1",
        "address": "0x617b3a3528f9cdd6630fd3301b9c8911f7bf063d",
        "pvtKey": "0x28b2b0318721be8c8339199172cd7cc8f5e273800a35616ec893083a4b32c02e"
      },
      {
        "balance": "0",
        "nonce": "1",
        "address": "0x1275fbb540c8efc58b812ba83b0d0b8b9917ae98",
        "bytecode": "0x60806040526004361061003f5760003560e01c80632b68b9c6146100445780633fa4f2451461005b5780635cfb28e714610086578063718da7ee14610090575b600080fd5b34801561005057600080fd5b506100596100b9565b005b34801561006757600080fd5b506100706100f2565b60405161007d9190610195565b60405180910390f35b61008e6100f8565b005b34801561009c57600080fd5b506100b760048036038101906100b29190610159565b610101565b005b60008054906101000a900473ffffffffffffffffffffffffffffffffffffffff1673ffffffffffffffffffffffffffffffffffffffff16ff5b60015481565b34600181905550565b806000806101000a81548173ffffffffffffffffffffffffffffffffffffffff021916908373ffffffffffffffffffffffffffffffffffffffff16021790555050565b600081359050610153816101f1565b92915050565b60006020828403121561016f5761016e6101ec565b5b600061017d84828501610144565b91505092915050565b61018f816101e2565b82525050565b60006020820190506101aa6000830184610186565b92915050565b60006101bb826101c2565b9050919050565b600073ffffffffffffffffffffffffffffffffffffffff82169050919050565b6000819050919050565b600080fd5b6101fa816101b0565b811461020557600080fd5b5056fea26469706673582212207ae6e5d5feddef608b24cca98990c37cf78f8b377163a7c4951a429d90d6120464736f6c63430008070033",
        "storage": {},
        "contractName": "Selfdestruct"
      },
      {
        "address": "0x4d5Cf5032B2a844602278b01199ED191A86c93ff",
        "pvtKey": "0x4d27a600dce8c29b7bd080e29a26972377dbb04d7a27d919adbb602bf13cfd23",
        "balance": "200000000000000000000",
        "nonce": "0"
      }
    ],
    "expectedOldRoot": "0x2761798d338f390fa233a5ff12c7fd6a50ab8a82e559c25e2895516c3e4213c6",
    "txs": [
      {
        "type": 11,
        "deltaTimestamp": "1944498031",
        "l1Info": {
          "globalExitRoot": "0x16994edfddddb9480667b64174fc00d3b6da7290d37b8db3a16571b4ddf0789f",
          "blockHash": "0x24a5871d68723340d9eadc674aa8ad75f3e33b61d5a9db7db92af856a19270bb",
          "timestamp": "42"
        },
        "indexL1InfoTree": 0,
        "reason": "",
        "customRawTx": "0x0b73e6af6f00000000"
      },
      {
        "from": "0x4d5Cf5032B2a844602278b01199ED191A86c93ff",
        "to": "0x1275fbb540c8efc58b812ba83b0d0b8b9917ae98",
        "nonce": 0,
        "value": "0",
        "contractName": "Selfdestruct",
        "function": "setReceiver",
        "params": [
          "0x0000000000000000000000000000000000000001"
        ],
        "chainId": 1000,
        "reason": "",
        "gasLimit": 100000,
        "gasPrice": "1000000000",
        "data": "0x718da7ee0000000000000000000000000000000000000000000000000000000000000001",
        "customRawTx": "0xf84a80843b9aca00830186a0941275fbb540c8efc58b812ba83b0d0b8b9917ae9880a4718da7ee00000000000000000000000000000000000000000000000000000000000000018203e880800f169b9405991a5f4a96f9d1d726e43ab9d42e1d0b4daac7ec9b4797dd39e9b724cf48c46cbc1924dd25adc6536ef259bedcd822979734ae347e01d715303ad01cff",
        "rawTx": "0xf88a80843b9aca00830186a0941275fbb540c8efc58b812ba83b0d0b8b9917ae9880a4718da7ee00000000000000000000000000000000000000000000000000000000000000018207f4a00f169b9405991a5f4a96f9d1d726e43ab9d42e1d0b4daac7ec9b4797dd39e9b7a024cf48c46cbc1924dd25adc6536ef259bedcd822979734ae347e01d715303ad0"
      },
      {
        "from": "0x4d5Cf5032B2a844602278b01199ED191A86c93ff",
        "to": "0x1275fbb540c8efc58b812ba83b0d0b8b9917ae98",
        "nonce": 1,
        "value": "123456789",
        "contractName": "Selfdestruct",
        "function": "setVal",
        "params": [],
        "chainId": 1000,
        "reason": "",
        "gasLimit": 100000,
        "gasPrice": "1000000000",
        "data": "0x5cfb28e7",
        "customRawTx": "0xee01843b9aca00830186a0941275fbb540c8efc58b812ba83b0d0b8b9917ae9884075bcd15845cfb28e78203e88080b22ac440612ebcd45672cfc7dcbbbe7cde784294e5076827b1812f9ea9eee2736c3c774150514808053972653f74bbeb33918dc74aa9182cee7993283b1faa541bff",
        "rawTx": "0xf86e01843b9aca00830186a0941275fbb540c8efc58b812ba83b0d0b8b9917ae9884075bcd15845cfb28e78207f3a0b22ac440612ebcd45672cfc7dcbbbe7cde784294e5076827b1812f9ea9eee273a06c3c774150514808053972653f74bbeb33918dc74aa9182cee7993283b1faa54"
      },
      {
        "from": "0x4d5Cf5032B2a844602278b01199ED191A86c93ff",
        "to": "0x1275fbb540c8efc58b812ba83b0d0b8b9917ae98",
        "nonce": 2,
        "value": "0",
        "contractName": "Selfdestruct",
        "function": "destruct",
        "params": [],
        "chainId": 1000,
        "reason": "",
        "gasLimit": 100000,
        "gasPrice": "1000000000",
        "data": "0x2b68b9c6",
        "customRawTx": "0xea02843b9aca00830186a0941275fbb540c8efc58b812ba83b0d0b8b9917ae9880842b68b9c68203e88080f5b684b995dd9549bb5fd2ed23d3b388f75f559b14110277b4ae7de5bd7775ef1be51078330d1ef03f0e4fe0271e8e2502b6e98c1f7664a5e2aeae3ab04156d41cff",
        "rawTx": "0xf86a02843b9aca00830186a0941275fbb540c8efc58b812ba83b0d0b8b9917ae9880842b68b9c68207f4a0f5b684b995dd9549bb5fd2ed23d3b388f75f559b14110277b4ae7de5bd7775efa01be51078330d1ef03f0e4fe0271e8e2502b6e98c1f7664a5e2aeae3ab04156d4"
      }
    ],
    "expectedNewRoot": "0x895f95fa944da09237bb1b9711a0e66f7bc3fd27b08eb4e2b2b94726d0b2d0cd",
    "expectedNewLeafs": {
      "0x0000000000000000000000000000000000000000": {
        "balance": "0",
        "nonce": "0",
        "storage": null,
        "hashBytecode": "0x0000000000000000000000000000000000000000000000000000000000000000",
        "bytecodeLength": 0
      },
      "0xae4bb80be56b819606589de61d5ec3b522eeb032": {
        "balance": "0",
        "nonce": "0",
        "storage": null,
        "hashBytecode": "0x0000000000000000000000000000000000000000000000000000000000000000",
        "bytecodeLength": 0
      },
      "0x617b3a3528f9cdd6630fd3301b9c8911f7bf063d": {
        "balance": "100000140508000000000",
        "nonce": "1",
        "storage": null,
        "hashBytecode": "0x0000000000000000000000000000000000000000000000000000000000000000",
        "bytecodeLength": 0
      },
      "0x1275fbb540c8efc58b812ba83b0d0b8b9917ae98": {
        "balance": "0",
        "nonce": "1",
        "storage": {
          "0x0000000000000000000000000000000000000000000000000000000000000000": "0x01",
          "0x0000000000000000000000000000000000000000000000000000000000000001": "0x075bcd15"
        },
        "hashBytecode": "0xbbebd914926f549bcc798e9081a339e3745b9831b3c3906fb8bb2bcf2e05a160",
        "bytecodeLength": 574
      },
      "0x4d5cf5032b2a844602278b01199ed191a86c93ff": {
        "balance": "199999859491876543211",
        "nonce": "3",
        "storage": null,
        "hashBytecode": "0x0000000000000000000000000000000000000000000000000000000000000000",
        "bytecodeLength": 0
      },
      "0x000000000000000000000000000000005ca1ab1e": {
        "balance": "0",
        "nonce": "0",
        "storage": {
          "0x0000000000000000000000000000000000000000000000000000000000000000": "0x01",
          "0x0000000000000000000000000000000000000000000000000000000000000002": "0x73e6af6f",
          "0xa6eef7e35abe7026729641147f7915573c7e97b47efa546f5f6e3230263bcb49": "0x2761798d338f390fa233a5ff12c7fd6a50ab8a82e559c25e2895516c3e4213c6",
          "0x0000000000000000000000000000000000000000000000000000000000000003": "0xec9a95baade06355dff5723669ed4dec0b8c7404f8a36146ce93dd31235a48ec"
        },
        "hashBytecode": "0x0000000000000000000000000000000000000000000000000000000000000000",
        "bytecodeLength": 0
      },
      "0x0000000000000000000000000000000000000001": {
        "balance": "123456789",
        "nonce": "0",
        "storage": null,
        "hashBytecode": "0x0000000000000000000000000000000000000000000000000000000000000000",
        "bytecodeLength": 0
      }
    },
    "batchL2Data": "0x0b73e6af6f00000000f84a80843b9aca00830186a0941275fbb540c8efc58b812ba83b0d0b8b9917ae9880a4718da7ee00000000000000000000000000000000000000000000000000000000000000018203e880800f169b9405991a5f4a96f9d1d726e43ab9d42e1d0b4daac7ec9b4797dd39e9b724cf48c46cbc1924dd25adc6536ef259bedcd822979734ae347e01d715303ad01cffee01843b9aca00830186a0941275fbb540c8efc58b812ba83b0d0b8b9917ae9884075bcd15845cfb28e78203e88080b22ac440612ebcd45672cfc7dcbbbe7cde784294e5076827b1812f9ea9eee2736c3c774150514808053972653f74bbeb33918dc74aa9182cee7993283b1faa541bffea02843b9aca00830186a0941275fbb540c8efc58b812ba83b0d0b8b9917ae9880842b68b9c68203e88080f5b684b995dd9549bb5fd2ed23d3b388f75f559b14110277b4ae7de5bd7775ef1be51078330d1ef03f0e4fe0271e8e2502b6e98c1f7664a5e2aeae3ab04156d41cff",
    "l1InfoRoot": "0x090bcaf734c4f06c93954a827b45a6e8c67b8e0fd1e0a35a1c5982d6961828f9",
    "newLocalExitRoot": "0x0000000000000000000000000000000000000000000000000000000000000000",
    "batchHashData": "0x23abc481d6201e15f7e7780f194f8fa4dbab811b739b6a6d259e8c02bc7b0078",
    "oldLocalExitRoot": "0x0000000000000000000000000000000000000000000000000000000000000000",
    "oldAccInputHash": "0x0000000000000000000000000000000000000000000000000000000000000000",
    "timestampLimit": 1944498031,
    "oldBatchAccInputHash": "0x2761798d338f390fa233a5ff12c7fd6a50ab8a82e559c25e2895516c3e4213c6",
    "newBatchAccInputHash": "0x8d2a66911f2ef58f3cc3fe33f9c8513c0f9b534b0a448e6789a377db5d580eed",
    "oldStateRoot": "0x2761798d338f390fa233a5ff12c7fd6a50ab8a82e559c25e2895516c3e4213c6",
    "newStateRoot": "0x895f95fa944da09237bb1b9711a0e66f7bc3fd27b08eb4e2b2b94726d0b2d0cd",
    "expectedNewAccInputHash": "0xbc2a2f16da1eda57e334ec9903ed17685c876299758c4044964679e9e9a064ce",
    "virtualCounters": {
      "steps": 44342,
      "arith": 1892,
      "binary": 2682,
      "memAlign": 7,
      "keccaks": 17,
      "padding": 68,
      "poseidon": 2553,
      "sha256": 0
    },
    "smtDepths": [3, 4, 6, 6]
  }
]
