{
    "tests/osaka/eip7692_eof_v1/eip7620_eof_create/test_legacy_eof_creates.py::test_cross_version_creates_fail[fork_Osaka-state_test-deploy_eof_initcontainer-CREATE]": {
        "env": {
            "currentCoinbase": "0x2adc25665018aa1fe0e6bc666dac8fc2697ff9ba",
            "currentGasLimit": "0x016345785d8a0000",
            "currentNumber": "0x01",
            "currentTimestamp": "0x03e8",
            "currentRandom": "0x0000000000000000000000000000000000000000000000000000000000000000",
            "currentDifficulty": "0x00",
            "currentBaseFee": "0x07",
            "currentExcessBlobGas": "0x00"
        },
        "pre": {
            "0xa94f5374fce5edbc8e2a8697c15331677e6ebf0b": {
                "nonce": "0x00",
                "balance": "0x3635c9adc5dea00000",
                "code": "0x",
                "storage": {}
            },
            "0x0000000000000000000000000000000000001000": {
                "nonce": "0x01",
                "balance": "0x00",
                "code": "0x3660006000373660006000f060035561201560015500",
                "storage": {}
            }
        },
        "transaction": {
            "nonce": "0x00",
            "gasPrice": "0x0a",
            "gasLimit": [
                "0x989680"
            ],
            "to": "0x0000000000000000000000000000000000001000",
            "value": [
                "0x00"
            ],
            "data": [
                "0xef000101000402000100060300010014040000000080000260006000ee00ef00010100040200010001040000000080000000"
            ],
            "sender": "0xa94f5374fce5edbc8e2a8697c15331677e6ebf0b",
            "secretKey": "0x45a915e4d060149eb4365960e6a7a45f334393093061116b197e3240065ff2d8"
        },
        "post": {
            "Osaka": [
                {
                    "hash": "0x7d37011aa283336fc899a95e802fdd5fe242b6e9bbad211ed058b09ef2a3dd10",
                    "logs": "0x1dcc4de8dec75d7aab85b567b6ccd41ad312451b948a7413f0a142fd40d49347",
                    "txbytes": "0xf892800a8398968094000000000000000000000000000000000000100080b2ef000101000402000100060300010014040000000080000260006000ee00ef000101000402000100010400000000800000001ca08c20d0b82a834ac6cceb03cc4d439fc6f74e84c867a851a9d5672de70422dd4ea05532a5fc8e8f0de17044adadacf4d86fb276de9db65c0f0d46ae6994b3b59763",
                    "indexes": {
                        "data": 0,
                        "gas": 0,
                        "value": 0
                    }
                }
            ]
        },
        "_info": {
            "hash": "0x0e567bd88fd64a254568a51adf5320c83955a77046685efd93687e5117fcc066",
            "comment": "`execution-spec-tests` generated test",
            "filling-transition-tool": "Hyperledger Besu evm 24.10-develop-e720d8f",
            "description": "Test function documentation:\n\n    Verifies that CREATE and CREATE2 cannot create EOF contracts",
            "url": "https://github.com/ethereum/execution-spec-tests/blob/eip7692@v2.0.0/tests/osaka/eip7692_eof_v1/eip7620_eof_create/test_legacy_eof_creates.py#L31",
            "reference-spec": "https://github.com/ethereum/EIPs/blob/master/EIPS/eip-7620.md",
            "reference-spec-version": "52ddbcdddcf72dd72427c319f2beddeb468e1737"
        }
    },
    "tests/osaka/eip7692_eof_v1/eip7620_eof_create/test_legacy_eof_creates.py::test_cross_version_creates_fail[fork_Osaka-state_test-deploy_eof_initcontainer-CREATE2]": {
        "env": {
            "currentCoinbase": "0x2adc25665018aa1fe0e6bc666dac8fc2697ff9ba",
            "currentGasLimit": "0x016345785d8a0000",
            "currentNumber": "0x01",
            "currentTimestamp": "0x03e8",
            "currentRandom": "0x0000000000000000000000000000000000000000000000000000000000000000",
            "currentDifficulty": "0x00",
            "currentBaseFee": "0x07",
            "currentExcessBlobGas": "0x00"
        },
        "pre": {
            "0xa94f5374fce5edbc8e2a8697c15331677e6ebf0b": {
                "nonce": "0x00",
                "balance": "0x3635c9adc5dea00000",
                "code": "0x",
                "storage": {}
            },
            "0x0000000000000000000000000000000000001000": {
                "nonce": "0x01",
                "balance": "0x00",
                "code": "0x36600060003760003660006000f560035561201560015500",
                "storage": {}
            }
        },
        "transaction": {
            "nonce": "0x00",
            "gasPrice": "0x0a",
            "gasLimit": [
                "0x989680"
            ],
            "to": "0x0000000000000000000000000000000000001000",
            "value": [
                "0x00"
            ],
            "data": [
                "0xef000101000402000100060300010014040000000080000260006000ee00ef00010100040200010001040000000080000000"
            ],
            "sender": "0xa94f5374fce5edbc8e2a8697c15331677e6ebf0b",
            "secretKey": "0x45a915e4d060149eb4365960e6a7a45f334393093061116b197e3240065ff2d8"
        },
        "post": {
            "Osaka": [
                {
                    "hash": "0x91e0dbd83cdd2d3280713d220ce23094e4f0ce75d69202f678375b72a4c3024c",
                    "logs": "0x1dcc4de8dec75d7aab85b567b6ccd41ad312451b948a7413f0a142fd40d49347",
                    "txbytes": "0xf892800a8398968094000000000000000000000000000000000000100080b2ef000101000402000100060300010014040000000080000260006000ee00ef000101000402000100010400000000800000001ca08c20d0b82a834ac6cceb03cc4d439fc6f74e84c867a851a9d5672de70422dd4ea05532a5fc8e8f0de17044adadacf4d86fb276de9db65c0f0d46ae6994b3b59763",
                    "indexes": {
                        "data": 0,
                        "gas": 0,
                        "value": 0
                    }
                }
            ]
        },
        "_info": {
            "hash": "0x32ad8f3bf417d995ea35a41345fd7d6ecc0210f936b1ca4d369c5ecab4375dc9",
            "comment": "`execution-spec-tests` generated test",
            "filling-transition-tool": "Hyperledger Besu evm 24.10-develop-e720d8f",
            "description": "Test function documentation:\n\n    Verifies that CREATE and CREATE2 cannot create EOF contracts",
            "url": "https://github.com/ethereum/execution-spec-tests/blob/eip7692@v2.0.0/tests/osaka/eip7692_eof_v1/eip7620_eof_create/test_legacy_eof_creates.py#L31",
            "reference-spec": "https://github.com/ethereum/EIPs/blob/master/EIPS/eip-7620.md",
            "reference-spec-version": "52ddbcdddcf72dd72427c319f2beddeb468e1737"
        }
    },
    "tests/osaka/eip7692_eof_v1/eip7620_eof_create/test_legacy_eof_creates.py::test_cross_version_creates_fail[fork_Osaka-state_test-deploy_eof_container-CREATE]": {
        "env": {
            "currentCoinbase": "0x2adc25665018aa1fe0e6bc666dac8fc2697ff9ba",
            "currentGasLimit": "0x016345785d8a0000",
            "currentNumber": "0x01",
            "currentTimestamp": "0x03e8",
            "currentRandom": "0x0000000000000000000000000000000000000000000000000000000000000000",
            "currentDifficulty": "0x00",
            "currentBaseFee": "0x07",
            "currentExcessBlobGas": "0x00"
        },
        "pre": {
            "0xa94f5374fce5edbc8e2a8697c15331677e6ebf0b": {
                "nonce": "0x00",
                "balance": "0x3635c9adc5dea00000",
                "code": "0x",
                "storage": {}
            },
            "0x0000000000000000000000000000000000001000": {
                "nonce": "0x01",
                "balance": "0x00",
                "code": "0x3660006000373660006000f060035561201560015500",
                "storage": {}
            }
        },
        "transaction": {
            "nonce": "0x00",
            "gasPrice": "0x0a",
            "gasLimit": [
                "0x989680"
            ],
            "to": "0x0000000000000000000000000000000000001000",
            "value": [
                "0x00"
            ],
            "data": [
                "0xef00010100040200010001040000000080000000"
            ],
            "sender": "0xa94f5374fce5edbc8e2a8697c15331677e6ebf0b",
            "secretKey": "0x45a915e4d060149eb4365960e6a7a45f334393093061116b197e3240065ff2d8"
        },
        "post": {
            "Osaka": [
                {
                    "hash": "0x98ed0c2dba724a1d48020713a5eef6f6ecc9b06a04584caaf9f860a6035f5e55",
                    "logs": "0x1dcc4de8dec75d7aab85b567b6ccd41ad312451b948a7413f0a142fd40d49347",
                    "txbytes": "0xf874800a839896809400000000000000000000000000000000000010008094ef000101000402000100010400000000800000001ba0d7a7101ad7273ec22273a7c72bc60dcff9a2cac2088844dfc53345292091fa09a068dde97638322a60e42cb54bec40ce2c8bfd26dc54b1c8a8ab96e90e9c9a2882",
                    "indexes": {
                        "data": 0,
                        "gas": 0,
                        "value": 0
                    }
                }
            ]
        },
        "_info": {
            "hash": "0x7c59434a3c00fa9e4e1a058cf1decd829baeb7c798c5735b9ba33ac09de18b3c",
            "comment": "`execution-spec-tests` generated test",
            "filling-transition-tool": "Hyperledger Besu evm 24.10-develop-e720d8f",
            "description": "Test function documentation:\n\n    Verifies that CREATE and CREATE2 cannot create EOF contracts",
            "url": "https://github.com/ethereum/execution-spec-tests/blob/eip7692@v2.0.0/tests/osaka/eip7692_eof_v1/eip7620_eof_create/test_legacy_eof_creates.py#L31",
            "reference-spec": "https://github.com/ethereum/EIPs/blob/master/EIPS/eip-7620.md",
            "reference-spec-version": "52ddbcdddcf72dd72427c319f2beddeb468e1737"
        }
    },
    "tests/osaka/eip7692_eof_v1/eip7620_eof_create/test_legacy_eof_creates.py::test_cross_version_creates_fail[fork_Osaka-state_test-deploy_eof_container-CREATE2]": {
        "env": {
            "currentCoinbase": "0x2adc25665018aa1fe0e6bc666dac8fc2697ff9ba",
            "currentGasLimit": "0x016345785d8a0000",
            "currentNumber": "0x01",
            "currentTimestamp": "0x03e8",
            "currentRandom": "0x0000000000000000000000000000000000000000000000000000000000000000",
            "currentDifficulty": "0x00",
            "currentBaseFee": "0x07",
            "currentExcessBlobGas": "0x00"
        },
        "pre": {
            "0xa94f5374fce5edbc8e2a8697c15331677e6ebf0b": {
                "nonce": "0x00",
                "balance": "0x3635c9adc5dea00000",
                "code": "0x",
                "storage": {}
            },
            "0x0000000000000000000000000000000000001000": {
                "nonce": "0x01",
                "balance": "0x00",
                "code": "0x36600060003760003660006000f560035561201560015500",
                "storage": {}
            }
        },
        "transaction": {
            "nonce": "0x00",
            "gasPrice": "0x0a",
            "gasLimit": [
                "0x989680"
            ],
            "to": "0x0000000000000000000000000000000000001000",
            "value": [
                "0x00"
            ],
            "data": [
                "0xef00010100040200010001040000000080000000"
            ],
            "sender": "0xa94f5374fce5edbc8e2a8697c15331677e6ebf0b",
            "secretKey": "0x45a915e4d060149eb4365960e6a7a45f334393093061116b197e3240065ff2d8"
        },
        "post": {
            "Osaka": [
                {
                    "hash": "0x11531242065578efbd65395cddc4e826a3a15c85836b6dc883e8eb2909850021",
                    "logs": "0x1dcc4de8dec75d7aab85b567b6ccd41ad312451b948a7413f0a142fd40d49347",
                    "txbytes": "0xf874800a839896809400000000000000000000000000000000000010008094ef000101000402000100010400000000800000001ba0d7a7101ad7273ec22273a7c72bc60dcff9a2cac2088844dfc53345292091fa09a068dde97638322a60e42cb54bec40ce2c8bfd26dc54b1c8a8ab96e90e9c9a2882",
                    "indexes": {
                        "data": 0,
                        "gas": 0,
                        "value": 0
                    }
                }
            ]
        },
        "_info": {
            "hash": "0x2473dbe5f5f83777b661ea83f5cb65cc260eab3486778dcfadf10375a64d6e3a",
            "comment": "`execution-spec-tests` generated test",
            "filling-transition-tool": "Hyperledger Besu evm 24.10-develop-e720d8f",
            "description": "Test function documentation:\n\n    Verifies that CREATE and CREATE2 cannot create EOF contracts",
            "url": "https://github.com/ethereum/execution-spec-tests/blob/eip7692@v2.0.0/tests/osaka/eip7692_eof_v1/eip7620_eof_create/test_legacy_eof_creates.py#L31",
            "reference-spec": "https://github.com/ethereum/EIPs/blob/master/EIPS/eip-7620.md",
            "reference-spec-version": "52ddbcdddcf72dd72427c319f2beddeb468e1737"
        }
    }
}