{
    "tests/prague/eip7692_eof_v1/eip663_dupn_swapn_exchange/test_swapn.py::test_swapn_all_valid_immediates[fork_CancunEIP7692-blockchain_test]": {
        "network": "Prague",
        "genesisBlockHeader": {
            "parentHash": "0x0000000000000000000000000000000000000000000000000000000000000000",
            "uncleHash": "0x1dcc4de8dec75d7aab85b567b6ccd41ad312451b948a7413f0a142fd40d49347",
            "coinbase": "0x0000000000000000000000000000000000000000",
            "stateRoot": "0xe0c0d5f011b34714a0f6385aa7f912073b7e80fdd9bd64fd4051fbbe0a4e3a51",
            "transactionsTrie": "0x56e81f171bcc55a6ff8345e692c0f86e5b48e01b996cadc001622fb5e363b421",
            "receiptTrie": "0x56e81f171bcc55a6ff8345e692c0f86e5b48e01b996cadc001622fb5e363b421",
            "bloom": "0x00000000000000000000000000000000000000000000000000000000000000000000000000000000000000000000000000000000000000000000000000000000000000000000000000000000000000000000000000000000000000000000000000000000000000000000000000000000000000000000000000000000000000000000000000000000000000000000000000000000000000000000000000000000000000000000000000000000000000000000000000000000000000000000000000000000000000000000000000000000000000000000000000000000000000000000000000000000000000000000000000000000000000000000000000000000",
            "difficulty": "0x00",
            "number": "0x00",
            "gasLimit": "0x016345785d8a0000",
            "gasUsed": "0x00",
            "timestamp": "0x00",
            "extraData": "0x00",
            "mixHash": "0x0000000000000000000000000000000000000000000000000000000000000000",
            "nonce": "0x0000000000000000",
            "baseFeePerGas": "0x07",
            "withdrawalsRoot": "0x56e81f171bcc55a6ff8345e692c0f86e5b48e01b996cadc001622fb5e363b421",
            "blobGasUsed": "0x00",
            "excessBlobGas": "0x00",
            "parentBeaconBlockRoot": "0x0000000000000000000000000000000000000000000000000000000000000000",
            "hash": "0xc7d22683c0b81b186534a1667d0957a2d2860c13fe43e075568d68379747ab62"
        },
        "pre": {
            "0x000f3df6d732807ef1319fb7b8bb8522d0beac02": {
                "nonce": "0x01",
                "balance": "0x00",
                "code": "0x3373fffffffffffffffffffffffffffffffffffffffe14604d57602036146024575f5ffd5b5f35801560495762001fff810690815414603c575f5ffd5b62001fff01545f5260205ff35b5f5ffd5b62001fff42064281555f359062001fff015500",
                "storage": {}
            },
            "0x0000000000000000000000000000000000001000": {
                "nonce": "0x01",
                "balance": "0x00",
                "code": "0xef00010100040200010804040000000080010261050061050161050261050361050461050561050661050761050861050961050a61050b61050c61050d61050e61050f61051061051161051261051361051461051561051661051761051861051961051a61051b61051c61051d61051e61051f61052061052161052261052361052461052561052661052761052861052961052a61052b61052c61052d61052e61052f61053061053161053261053361053461053561053661053761053861053961053a61053b61053c61053d61053e61053f61054061054161054261054361054461054561054661054761054861054961054a61054b61054c61054d61054e61054f61055061055161055261055361055461055561055661055761055861055961055a61055b61055c61055d61055e61055f61056061056161056261056361056461056561056661056761056861056961056a61056b61056c61056d61056e61056f61057061057161057261057361057461057561057661057761057861057961057a61057b61057c61057d61057e61057f61058061058161058261058361058461058561058661058761058861058961058a61058b61058c61058d61058e61058f61059061059161059261059361059461059561059661059761059861059961059a61059b61059c61059d61059e61059f6105a06105a16105a26105a36105a46105a56105a66105a76105a86105a96105aa6105ab6105ac6105ad6105ae6105af6105b06105b16105b26105b36105b46105b56105b66105b76105b86105b96105ba6105bb6105bc6105bd6105be6105bf6105c06105c16105c26105c36105c46105c56105c66105c76105c86105c96105ca6105cb6105cc6105cd6105ce6105cf6105d06105d16105d26105d36105d46105d56105d66105d76105d86105d96105da6105db6105dc6105dd6105de6105df6105e06105e16105e26105e36105e46105e56105e66105e76105e86105e96105ea6105eb6105ec6105ed6105ee6105ef6105f06105f16105f26105f36105f46105f56105f66105f76105f86105f96105fa6105fb6105fc6105fd6105fe6105ff610600e7ff600055e7fe600155e7fd600255e7fc600355e7fb600455e7fa600555e7f9600655e7f8600755e7f7600855e7f6600955e7f5600a55e7f4600b55e7f3600c55e7f2600d55e7f1600e55e7f0600f55e7ef601055e7ee601155e7ed601255e7ec601355e7eb601455e7ea601555e7e9601655e7e8601755e7e7601855e7e6601955e7e5601a55e7e4601b55e7e3601c55e7e2601d55e7e1601e55e7e0601f55e7df602055e7de602155e7dd602255e7dc602355e7db602455e7da602555e7d9602655e7d8602755e7d7602855e7d6602955e7d5602a55e7d4602b55e7d3602c55e7d2602d55e7d1602e55e7d0602f55e7cf603055e7ce603155e7cd603255e7cc603355e7cb603455e7ca603555e7c9603655e7c8603755e7c7603855e7c6603955e7c5603a55e7c4603b55e7c3603c55e7c2603d55e7c1603e55e7c0603f55e7bf604055e7be604155e7bd604255e7bc604355e7bb604455e7ba604555e7b9604655e7b8604755e7b7604855e7b6604955e7b5604a55e7b4604b55e7b3604c55e7b2604d55e7b1604e55e7b0604f55e7af605055e7ae605155e7ad605255e7ac605355e7ab605455e7aa605555e7a9605655e7a8605755e7a7605855e7a6605955e7a5605a55e7a4605b55e7a3605c55e7a2605d55e7a1605e55e7a0605f55e79f606055e79e606155e79d606255e79c606355e79b606455e79a606555e799606655e798606755e797606855e796606955e795606a55e794606b55e793606c55e792606d55e791606e55e790606f55e78f607055e78e607155e78d607255e78c607355e78b607455e78a607555e789607655e788607755e787607855e786607955e785607a55e784607b55e783607c55e782607d55e781607e55e780607f55e77f608055e77e608155e77d608255e77c608355e77b608455e77a608555e779608655e778608755e777608855e776608955e775608a55e774608b55e773608c55e772608d55e771608e55e770608f55e76f609055e76e609155e76d609255e76c609355e76b609455e76a609555e769609655e768609755e767609855e766609955e765609a55e764609b55e763609c55e762609d55e761609e55e760609f55e75f60a055e75e60a155e75d60a255e75c60a355e75b60a455e75a60a555e75960a655e75860a755e75760a855e75660a955e75560aa55e75460ab55e75360ac55e75260ad55e75160ae55e75060af55e74f60b055e74e60b155e74d60b255e74c60b355e74b60b455e74a60b555e74960b655e74860b755e74760b855e74660b955e74560ba55e74460bb55e74360bc55e74260bd55e74160be55e74060bf55e73f60c055e73e60c155e73d60c255e73c60c355e73b60c455e73a60c555e73960c655e73860c755e73760c855e73660c955e73560ca55e73460cb55e73360cc55e73260cd55e73160ce55e73060cf55e72f60d055e72e60d155e72d60d255e72c60d355e72b60d455e72a60d555e72960d655e72860d755e72760d855e72660d955e72560da55e72460db55e72360dc55e72260dd55e72160de55e72060df55e71f60e055e71e60e155e71d60e255e71c60e355e71b60e455e71a60e555e71960e655e71860e755e71760e855e71660e955e71560ea55e71460eb55e71360ec55e71260ed55e71160ee55e71060ef55e70f60f055e70e60f155e70d60f255e70c60f355e70b60f455e70a60f555e70960f655e70860f755e70760f855e70660f955e70560fa55e70460fb55e70360fc55e70260fd55e70160fe55e70060ff5500",
                "storage": {}
            },
            "0xa94f5374fce5edbc8e2a8697c15331677e6ebf0b": {
                "nonce": "0x00",
                "balance": "0x3b9aca00",
                "code": "0x",
                "storage": {}
            }
        },
        "postState": {
            "0x0000000000000000000000000000000000001000": {
                "nonce": "0x01",
                "balance": "0x00",
                "code": "0xef00010100040200010804040000000080010261050061050161050261050361050461050561050661050761050861050961050a61050b61050c61050d61050e61050f61051061051161051261051361051461051561051661051761051861051961051a61051b61051c61051d61051e61051f61052061052161052261052361052461052561052661052761052861052961052a61052b61052c61052d61052e61052f61053061053161053261053361053461053561053661053761053861053961053a61053b61053c61053d61053e61053f61054061054161054261054361054461054561054661054761054861054961054a61054b61054c61054d61054e61054f61055061055161055261055361055461055561055661055761055861055961055a61055b61055c61055d61055e61055f61056061056161056261056361056461056561056661056761056861056961056a61056b61056c61056d61056e61056f61057061057161057261057361057461057561057661057761057861057961057a61057b61057c61057d61057e61057f61058061058161058261058361058461058561058661058761058861058961058a61058b61058c61058d61058e61058f61059061059161059261059361059461059561059661059761059861059961059a61059b61059c61059d61059e61059f6105a06105a16105a26105a36105a46105a56105a66105a76105a86105a96105aa6105ab6105ac6105ad6105ae6105af6105b06105b16105b26105b36105b46105b56105b66105b76105b86105b96105ba6105bb6105bc6105bd6105be6105bf6105c06105c16105c26105c36105c46105c56105c66105c76105c86105c96105ca6105cb6105cc6105cd6105ce6105cf6105d06105d16105d26105d36105d46105d56105d66105d76105d86105d96105da6105db6105dc6105dd6105de6105df6105e06105e16105e26105e36105e46105e56105e66105e76105e86105e96105ea6105eb6105ec6105ed6105ee6105ef6105f06105f16105f26105f36105f46105f56105f66105f76105f86105f96105fa6105fb6105fc6105fd6105fe6105ff610600e7ff600055e7fe600155e7fd600255e7fc600355e7fb600455e7fa600555e7f9600655e7f8600755e7f7600855e7f6600955e7f5600a55e7f4600b55e7f3600c55e7f2600d55e7f1600e55e7f0600f55e7ef601055e7ee601155e7ed601255e7ec601355e7eb601455e7ea601555e7e9601655e7e8601755e7e7601855e7e6601955e7e5601a55e7e4601b55e7e3601c55e7e2601d55e7e1601e55e7e0601f55e7df602055e7de602155e7dd602255e7dc602355e7db602455e7da602555e7d9602655e7d8602755e7d7602855e7d6602955e7d5602a55e7d4602b55e7d3602c55e7d2602d55e7d1602e55e7d0602f55e7cf603055e7ce603155e7cd603255e7cc603355e7cb603455e7ca603555e7c9603655e7c8603755e7c7603855e7c6603955e7c5603a55e7c4603b55e7c3603c55e7c2603d55e7c1603e55e7c0603f55e7bf604055e7be604155e7bd604255e7bc604355e7bb604455e7ba604555e7b9604655e7b8604755e7b7604855e7b6604955e7b5604a55e7b4604b55e7b3604c55e7b2604d55e7b1604e55e7b0604f55e7af605055e7ae605155e7ad605255e7ac605355e7ab605455e7aa605555e7a9605655e7a8605755e7a7605855e7a6605955e7a5605a55e7a4605b55e7a3605c55e7a2605d55e7a1605e55e7a0605f55e79f606055e79e606155e79d606255e79c606355e79b606455e79a606555e799606655e798606755e797606855e796606955e795606a55e794606b55e793606c55e792606d55e791606e55e790606f55e78f607055e78e607155e78d607255e78c607355e78b607455e78a607555e789607655e788607755e787607855e786607955e785607a55e784607b55e783607c55e782607d55e781607e55e780607f55e77f608055e77e608155e77d608255e77c608355e77b608455e77a608555e779608655e778608755e777608855e776608955e775608a55e774608b55e773608c55e772608d55e771608e55e770608f55e76f609055e76e609155e76d609255e76c609355e76b609455e76a609555e769609655e768609755e767609855e766609955e765609a55e764609b55e763609c55e762609d55e761609e55e760609f55e75f60a055e75e60a155e75d60a255e75c60a355e75b60a455e75a60a555e75960a655e75860a755e75760a855e75660a955e75560aa55e75460ab55e75360ac55e75260ad55e75160ae55e75060af55e74f60b055e74e60b155e74d60b255e74c60b355e74b60b455e74a60b555e74960b655e74860b755e74760b855e74660b955e74560ba55e74460bb55e74360bc55e74260bd55e74160be55e74060bf55e73f60c055e73e60c155e73d60c255e73c60c355e73b60c455e73a60c555e73960c655e73860c755e73760c855e73660c955e73560ca55e73460cb55e73360cc55e73260cd55e73160ce55e73060cf55e72f60d055e72e60d155e72d60d255e72c60d355e72b60d455e72a60d555e72960d655e72860d755e72760d855e72660d955e72560da55e72460db55e72360dc55e72260dd55e72160de55e72060df55e71f60e055e71e60e155e71d60e255e71c60e355e71b60e455e71a60e555e71960e655e71860e755e71760e855e71660e955e71560ea55e71460eb55e71360ec55e71260ed55e71160ee55e71060ef55e70f60f055e70e60f155e70d60f255e70c60f355e70b60f455e70a60f555e70960f655e70860f755e70760f855e70660f955e70560fa55e70460fb55e70360fc55e70260fd55e70160fe55e70060ff5500",
                "storage": {
                    "0x00": "0x0500",
                    "0x01": "0x0600",
                    "0x02": "0x05ff",
                    "0x03": "0x05fe",
                    "0x04": "0x05fd",
                    "0x05": "0x05fc",
                    "0x06": "0x05fb",
                    "0x07": "0x05fa",
                    "0x08": "0x05f9",
                    "0x09": "0x05f8",
                    "0x0a": "0x05f7",
                    "0x0b": "0x05f6",
                    "0x0c": "0x05f5",
                    "0x0d": "0x05f4",
                    "0x0e": "0x05f3",
                    "0x0f": "0x05f2",
                    "0x10": "0x05f1",
                    "0x11": "0x05f0",
                    "0x12": "0x05ef",
                    "0x13": "0x05ee",
                    "0x14": "0x05ed",
                    "0x15": "0x05ec",
                    "0x16": "0x05eb",
                    "0x17": "0x05ea",
                    "0x18": "0x05e9",
                    "0x19": "0x05e8",
                    "0x1a": "0x05e7",
                    "0x1b": "0x05e6",
                    "0x1c": "0x05e5",
                    "0x1d": "0x05e4",
                    "0x1e": "0x05e3",
                    "0x1f": "0x05e2",
                    "0x20": "0x05e1",
                    "0x21": "0x05e0",
                    "0x22": "0x05df",
                    "0x23": "0x05de",
                    "0x24": "0x05dd",
                    "0x25": "0x05dc",
                    "0x26": "0x05db",
                    "0x27": "0x05da",
                    "0x28": "0x05d9",
                    "0x29": "0x05d8",
                    "0x2a": "0x05d7",
                    "0x2b": "0x05d6",
                    "0x2c": "0x05d5",
                    "0x2d": "0x05d4",
                    "0x2e": "0x05d3",
                    "0x2f": "0x05d2",
                    "0x30": "0x05d1",
                    "0x31": "0x05d0",
                    "0x32": "0x05cf",
                    "0x33": "0x05ce",
                    "0x34": "0x05cd",
                    "0x35": "0x05cc",
                    "0x36": "0x05cb",
                    "0x37": "0x05ca",
                    "0x38": "0x05c9",
                    "0x39": "0x05c8",
                    "0x3a": "0x05c7",
                    "0x3b": "0x05c6",
                    "0x3c": "0x05c5",
                    "0x3d": "0x05c4",
                    "0x3e": "0x05c3",
                    "0x3f": "0x05c2",
                    "0x40": "0x05c1",
                    "0x41": "0x05c0",
                    "0x42": "0x05bf",
                    "0x43": "0x05be",
                    "0x44": "0x05bd",
                    "0x45": "0x05bc",
                    "0x46": "0x05bb",
                    "0x47": "0x05ba",
                    "0x48": "0x05b9",
                    "0x49": "0x05b8",
                    "0x4a": "0x05b7",
                    "0x4b": "0x05b6",
                    "0x4c": "0x05b5",
                    "0x4d": "0x05b4",
                    "0x4e": "0x05b3",
                    "0x4f": "0x05b2",
                    "0x50": "0x05b1",
                    "0x51": "0x05b0",
                    "0x52": "0x05af",
                    "0x53": "0x05ae",
                    "0x54": "0x05ad",
                    "0x55": "0x05ac",
                    "0x56": "0x05ab",
                    "0x57": "0x05aa",
                    "0x58": "0x05a9",
                    "0x59": "0x05a8",
                    "0x5a": "0x05a7",
                    "0x5b": "0x05a6",
                    "0x5c": "0x05a5",
                    "0x5d": "0x05a4",
                    "0x5e": "0x05a3",
                    "0x5f": "0x05a2",
                    "0x60": "0x05a1",
                    "0x61": "0x05a0",
                    "0x62": "0x059f",
                    "0x63": "0x059e",
                    "0x64": "0x059d",
                    "0x65": "0x059c",
                    "0x66": "0x059b",
                    "0x67": "0x059a",
                    "0x68": "0x0599",
                    "0x69": "0x0598",
                    "0x6a": "0x0597",
                    "0x6b": "0x0596",
                    "0x6c": "0x0595",
                    "0x6d": "0x0594",
                    "0x6e": "0x0593",
                    "0x6f": "0x0592",
                    "0x70": "0x0591",
                    "0x71": "0x0590",
                    "0x72": "0x058f",
                    "0x73": "0x058e",
                    "0x74": "0x058d",
                    "0x75": "0x058c",
                    "0x76": "0x058b",
                    "0x77": "0x058a",
                    "0x78": "0x0589",
                    "0x79": "0x0588",
                    "0x7a": "0x0587",
                    "0x7b": "0x0586",
                    "0x7c": "0x0585",
                    "0x7d": "0x0584",
                    "0x7e": "0x0583",
                    "0x7f": "0x0582",
                    "0x80": "0x0581",
                    "0x81": "0x0580",
                    "0x82": "0x057f",
                    "0x83": "0x057e",
                    "0x84": "0x057d",
                    "0x85": "0x057c",
                    "0x86": "0x057b",
                    "0x87": "0x057a",
                    "0x88": "0x0579",
                    "0x89": "0x0578",
                    "0x8a": "0x0577",
                    "0x8b": "0x0576",
                    "0x8c": "0x0575",
                    "0x8d": "0x0574",
                    "0x8e": "0x0573",
                    "0x8f": "0x0572",
                    "0x90": "0x0571",
                    "0x91": "0x0570",
                    "0x92": "0x056f",
                    "0x93": "0x056e",
                    "0x94": "0x056d",
                    "0x95": "0x056c",
                    "0x96": "0x056b",
                    "0x97": "0x056a",
                    "0x98": "0x0569",
                    "0x99": "0x0568",
                    "0x9a": "0x0567",
                    "0x9b": "0x0566",
                    "0x9c": "0x0565",
                    "0x9d": "0x0564",
                    "0x9e": "0x0563",
                    "0x9f": "0x0562",
                    "0xa0": "0x0561",
                    "0xa1": "0x0560",
                    "0xa2": "0x055f",
                    "0xa3": "0x055e",
                    "0xa4": "0x055d",
                    "0xa5": "0x055c",
                    "0xa6": "0x055b",
                    "0xa7": "0x055a",
                    "0xa8": "0x0559",
                    "0xa9": "0x0558",
                    "0xaa": "0x0557",
                    "0xab": "0x0556",
                    "0xac": "0x0555",
                    "0xad": "0x0554",
                    "0xae": "0x0553",
                    "0xaf": "0x0552",
                    "0xb0": "0x0551",
                    "0xb1": "0x0550",
                    "0xb2": "0x054f",
                    "0xb3": "0x054e",
                    "0xb4": "0x054d",
                    "0xb5": "0x054c",
                    "0xb6": "0x054b",
                    "0xb7": "0x054a",
                    "0xb8": "0x0549",
                    "0xb9": "0x0548",
                    "0xba": "0x0547",
                    "0xbb": "0x0546",
                    "0xbc": "0x0545",
                    "0xbd": "0x0544",
                    "0xbe": "0x0543",
                    "0xbf": "0x0542",
                    "0xc0": "0x0541",
                    "0xc1": "0x0540",
                    "0xc2": "0x053f",
                    "0xc3": "0x053e",
                    "0xc4": "0x053d",
                    "0xc5": "0x053c",
                    "0xc6": "0x053b",
                    "0xc7": "0x053a",
                    "0xc8": "0x0539",
                    "0xc9": "0x0538",
                    "0xca": "0x0537",
                    "0xcb": "0x0536",
                    "0xcc": "0x0535",
                    "0xcd": "0x0534",
                    "0xce": "0x0533",
                    "0xcf": "0x0532",
                    "0xd0": "0x0531",
                    "0xd1": "0x0530",
                    "0xd2": "0x052f",
                    "0xd3": "0x052e",
                    "0xd4": "0x052d",
                    "0xd5": "0x052c",
                    "0xd6": "0x052b",
                    "0xd7": "0x052a",
                    "0xd8": "0x0529",
                    "0xd9": "0x0528",
                    "0xda": "0x0527",
                    "0xdb": "0x0526",
                    "0xdc": "0x0525",
                    "0xdd": "0x0524",
                    "0xde": "0x0523",
                    "0xdf": "0x0522",
                    "0xe0": "0x0521",
                    "0xe1": "0x0520",
                    "0xe2": "0x051f",
                    "0xe3": "0x051e",
                    "0xe4": "0x051d",
                    "0xe5": "0x051c",
                    "0xe6": "0x051b",
                    "0xe7": "0x051a",
                    "0xe8": "0x0519",
                    "0xe9": "0x0518",
                    "0xea": "0x0517",
                    "0xeb": "0x0516",
                    "0xec": "0x0515",
                    "0xed": "0x0514",
                    "0xee": "0x0513",
                    "0xef": "0x0512",
                    "0xf0": "0x0511",
                    "0xf1": "0x0510",
                    "0xf2": "0x050f",
                    "0xf3": "0x050e",
                    "0xf4": "0x050d",
                    "0xf5": "0x050c",
                    "0xf6": "0x050b",
                    "0xf7": "0x050a",
                    "0xf8": "0x0509",
                    "0xf9": "0x0508",
                    "0xfa": "0x0507",
                    "0xfb": "0x0506",
                    "0xfc": "0x0505",
                    "0xfd": "0x0504",
                    "0xfe": "0x0503",
                    "0xff": "0x0502"
                }
            },
            "0x000f3df6d732807ef1319fb7b8bb8522d0beac02": {
                "nonce": "0x01",
                "balance": "0x00",
                "code": "0x3373fffffffffffffffffffffffffffffffffffffffe14604d57602036146024575f5ffd5b5f35801560495762001fff810690815414603c575f5ffd5b62001fff01545f5260205ff35b5f5ffd5b62001fff42064281555f359062001fff015500",
                "storage": {
                    "0x03e8": "0x03e8"
                }
            },
            "0x2adc25665018aa1fe0e6bc666dac8fc2697ff9ba": {
                "nonce": "0x00",
                "balance": "0x01040d21",
                "code": "0x",
                "storage": {}
            },
            "0xa94f5374fce5edbc8e2a8697c15331677e6ebf0b": {
                "nonce": "0x01",
                "balance": "0x3837f392",
                "code": "0x",
                "storage": {}
            }
        },
        "genesisRLP": "0xf90240f9023aa00000000000000000000000000000000000000000000000000000000000000000a01dcc4de8dec75d7aab85b567b6ccd41ad312451b948a7413f0a142fd40d49347940000000000000000000000000000000000000000a0e0c0d5f011b34714a0f6385aa7f912073b7e80fdd9bd64fd4051fbbe0a4e3a51a056e81f171bcc55a6ff8345e692c0f86e5b48e01b996cadc001622fb5e363b421a056e81f171bcc55a6ff8345e692c0f86e5b48e01b996cadc001622fb5e363b421b9010000000000000000000000000000000000000000000000000000000000000000000000000000000000000000000000000000000000000000000000000000000000000000000000000000000000000000000000000000000000000000000000000000000000000000000000000000000000000000000000000000000000000000000000000000000000000000000000000000000000000000000000000000000000000000000000000000000000000000000000000000000000000000000000000000000000000000000000000000000000000000000000000000000000000000000000000000000000000000000000000000000000000000000000000000000000808088016345785d8a0000808000a0000000000000000000000000000000000000000000000000000000000000000088000000000000000007a056e81f171bcc55a6ff8345e692c0f86e5b48e01b996cadc001622fb5e363b4218080a00000000000000000000000000000000000000000000000000000000000000000c0c0c0",
        "blocks": [
            {
                "blockHeader": {
                    "parentHash": "0xc7d22683c0b81b186534a1667d0957a2d2860c13fe43e075568d68379747ab62",
                    "uncleHash": "0x1dcc4de8dec75d7aab85b567b6ccd41ad312451b948a7413f0a142fd40d49347",
                    "coinbase": "0x2adc25665018aa1fe0e6bc666dac8fc2697ff9ba",
                    "stateRoot": "0x0b2d80a51937f7d5d5216d45ef61d5675ba6a5f094611602cf5fbc3cc8cb11e2",
                    "transactionsTrie": "0xafbe6ba11e7f3c98cf78214755fe0562f27a17af8056a67c92af9de521e2d051",
                    "receiptTrie": "0x30362005f29c6d0b2df3290285691c25724e4e56e0ff4010dac41bc93f40f335",
                    "bloom": "0x00000000000000000000000000000000000000000000000000000000000000000000000000000000000000000000000000000000000000000000000000000000000000000000000000000000000000000000000000000000000000000000000000000000000000000000000000000000000000000000000000000000000000000000000000000000000000000000000000000000000000000000000000000000000000000000000000000000000000000000000000000000000000000000000000000000000000000000000000000000000000000000000000000000000000000000000000000000000000000000000000000000000000000000000000000000",
                    "difficulty": "0x00",
                    "number": "0x01",
                    "gasLimit": "0x016345785d8a0000",
                    "gasUsed": "0x56af0b",
                    "timestamp": "0x03e8",
                    "extraData": "0x00",
                    "mixHash": "0x0000000000000000000000000000000000000000000000000000000000000000",
                    "nonce": "0x0000000000000000",
                    "baseFeePerGas": "0x07",
                    "withdrawalsRoot": "0x56e81f171bcc55a6ff8345e692c0f86e5b48e01b996cadc001622fb5e363b421",
                    "blobGasUsed": "0x00",
                    "excessBlobGas": "0x00",
                    "parentBeaconBlockRoot": "0x0000000000000000000000000000000000000000000000000000000000000000",
                    "hash": "0x7d53097b1734d911a26db8ac602c79d01d007b6de1f716b8e74e01f35926eb5d"
                },
                "transactions": [
                    {
                        "type": "0x00",
                        "chainId": "0x01",
                        "nonce": "0x00",
                        "gasPrice": "0x0a",
                        "gasLimit": "0x989680",
                        "to": "0x0000000000000000000000000000000000001000",
                        "value": "0x00",
                        "data": "0x",
                        "v": "0x1b",
                        "r": "0x0a827f57dab1e27137696202f240cb95cfc25acf2f077f6b32a7ca3ac039baf0",
                        "s": "0x55fdd3269172368d880a16fa4192049edd5211d8cbb1d5222a0a77b11174d574",
                        "sender": "0xa94f5374fce5edbc8e2a8697c15331677e6ebf0b"
                    }
                ],
                "uncleHeaders": [],
                "withdrawals": [],
                "rlp": "0xf902a8f9023fa0c7d22683c0b81b186534a1667d0957a2d2860c13fe43e075568d68379747ab62a01dcc4de8dec75d7aab85b567b6ccd41ad312451b948a7413f0a142fd40d49347942adc25665018aa1fe0e6bc666dac8fc2697ff9baa00b2d80a51937f7d5d5216d45ef61d5675ba6a5f094611602cf5fbc3cc8cb11e2a0afbe6ba11e7f3c98cf78214755fe0562f27a17af8056a67c92af9de521e2d051a030362005f29c6d0b2df3290285691c25724e4e56e0ff4010dac41bc93f40f335b9010000000000000000000000000000000000000000000000000000000000000000000000000000000000000000000000000000000000000000000000000000000000000000000000000000000000000000000000000000000000000000000000000000000000000000000000000000000000000000000000000000000000000000000000000000000000000000000000000000000000000000000000000000000000000000000000000000000000000000000000000000000000000000000000000000000000000000000000000000000000000000000000000000000000000000000000000000000000000000000000000000000000000000000000000000000000800188016345785d8a00008356af0b8203e800a0000000000000000000000000000000000000000000000000000000000000000088000000000000000007a056e81f171bcc55a6ff8345e692c0f86e5b48e01b996cadc001622fb5e363b4218080a00000000000000000000000000000000000000000000000000000000000000000f862f860800a8398968094000000000000000000000000000000000000100080801ba00a827f57dab1e27137696202f240cb95cfc25acf2f077f6b32a7ca3ac039baf0a055fdd3269172368d880a16fa4192049edd5211d8cbb1d5222a0a77b11174d574c0c0",
                "blocknumber": "1"
            }
        ],
        "lastblockhash": "0x7d53097b1734d911a26db8ac602c79d01d007b6de1f716b8e74e01f35926eb5d",
        "sealEngine": "NoProof",
        "_info": {
            "hash": "0xfd77135603cf72a1c7f69d0cdf700530311f78e772a1ec1c0b3ae60e526c4a00",
            "comment": "`execution-spec-tests` generated test",
            "filling-transition-tool": "evmone-t8n 0.12.0-dev+commit.85a89e56",
            "description": "Test function documentation:\n\n    Test case for all valid SWAPN immediates.",
            "url": "https://github.com/ethereum/execution-spec-tests/blob/eip7692@v1.0.4/tests/prague/eip7692_eof_v1/eip663_dupn_swapn_exchange/test_swapn.py#L20",
            "reference-spec": "https://github.com/ethereum/EIPs/blob/master/EIPS/eip-663.md",
            "reference-spec-version": "b658bb87fe039d29e9475d5cfaebca9b92e0fca2"
        }
    }
}