{
    "tests/prague/eip7692_eof_v1/eip3540_eof_v1/test_execution_function.py::test_eof_functions_contract_call_fail[fork_CancunEIP7692-blockchain_test-invalid_opcode]": {
        "network": "Prague",
        "genesisBlockHeader": {
            "parentHash": "0x0000000000000000000000000000000000000000000000000000000000000000",
            "uncleHash": "0x1dcc4de8dec75d7aab85b567b6ccd41ad312451b948a7413f0a142fd40d49347",
            "coinbase": "0x0000000000000000000000000000000000000000",
            "stateRoot": "0x3a72d07f6ac8f4f63a4a09fa399ea4270e829775eb7db496e6cd95315f53a8e4",
            "transactionsTrie": "0x56e81f171bcc55a6ff8345e692c0f86e5b48e01b996cadc001622fb5e363b421",
            "receiptTrie": "0x56e81f171bcc55a6ff8345e692c0f86e5b48e01b996cadc001622fb5e363b421",
            "bloom": "0x00000000000000000000000000000000000000000000000000000000000000000000000000000000000000000000000000000000000000000000000000000000000000000000000000000000000000000000000000000000000000000000000000000000000000000000000000000000000000000000000000000000000000000000000000000000000000000000000000000000000000000000000000000000000000000000000000000000000000000000000000000000000000000000000000000000000000000000000000000000000000000000000000000000000000000000000000000000000000000000000000000000000000000000000000000000",
            "difficulty": "0x00",
            "number": "0x00",
            "gasLimit": "0x016345785d8a0000",
            "gasUsed": "0x00",
            "timestamp": "0x00",
            "extraData": "0x00",
            "mixHash": "0x0000000000000000000000000000000000000000000000000000000000000000",
            "nonce": "0x0000000000000000",
            "baseFeePerGas": "0x07",
            "withdrawalsRoot": "0x56e81f171bcc55a6ff8345e692c0f86e5b48e01b996cadc001622fb5e363b421",
            "blobGasUsed": "0x00",
            "excessBlobGas": "0x00",
            "parentBeaconBlockRoot": "0x0000000000000000000000000000000000000000000000000000000000000000",
            "hash": "0xb8ed4990ded8fd1a154602917ea5501d849696c7b592600189ed8cf66e1062fd"
        },
        "pre": {
            "0x000f3df6d732807ef1319fb7b8bb8522d0beac02": {
                "nonce": "0x01",
                "balance": "0x00",
                "code": "0x3373fffffffffffffffffffffffffffffffffffffffe14604d57602036146024575f5ffd5b5f35801560495762001fff810690815414603c575f5ffd5b62001fff01545f5260205ff35b5f5ffd5b62001fff42064281555f359062001fff015500",
                "storage": {}
            },
            "0xa94f5374fce5edbc8e2a8697c15331677e6ebf0b": {
                "nonce": "0x00",
                "balance": "0x3635c9adc5dea00000",
                "code": "0x",
                "storage": {}
            },
            "0x0000000000000000000000000000000000001000": {
                "nonce": "0x01",
                "balance": "0x00",
                "code": "0xef000101000402000100010400000000800000fe",
                "storage": {}
            },
            "0x0000000000000000000000000000000000001100": {
                "nonce": "0x01",
                "balance": "0x00",
                "code": "0x6001600060006000600060007300000000000000000000000000000000000010005af15500",
                "storage": {}
            }
        },
        "postState": {
            "0x0000000000000000000000000000000000001000": {
                "nonce": "0x01",
                "balance": "0x00",
                "code": "0xef000101000402000100010400000000800000fe",
                "storage": {}
            },
            "0x0000000000000000000000000000000000001100": {
                "nonce": "0x01",
                "balance": "0x00",
                "code": "0x6001600060006000600060007300000000000000000000000000000000000010005af15500",
                "storage": {
                    "0x00": "0x01"
                }
            },
            "0x000f3df6d732807ef1319fb7b8bb8522d0beac02": {
                "nonce": "0x01",
                "balance": "0x00",
                "code": "0x3373fffffffffffffffffffffffffffffffffffffffe14604d57602036146024575f5ffd5b5f35801560495762001fff810690815414603c575f5ffd5b62001fff01545f5260205ff35b5f5ffd5b62001fff42064281555f359062001fff015500",
                "storage": {
                    "0x03e8": "0x03e8"
                }
            },
            "0x2adc25665018aa1fe0e6bc666dac8fc2697ff9ba": {
                "nonce": "0x00",
                "balance": "0x08ce158c",
                "code": "0x",
                "storage": {}
            },
            "0xa94f5374fce5edbc8e2a8697c15331677e6ebf0b": {
                "nonce": "0x01",
                "balance": "0x3635c9adc5c14662d8",
                "code": "0x",
                "storage": {}
            }
        },
        "genesisRLP": "0xf90240f9023aa00000000000000000000000000000000000000000000000000000000000000000a01dcc4de8dec75d7aab85b567b6ccd41ad312451b948a7413f0a142fd40d49347940000000000000000000000000000000000000000a03a72d07f6ac8f4f63a4a09fa399ea4270e829775eb7db496e6cd95315f53a8e4a056e81f171bcc55a6ff8345e692c0f86e5b48e01b996cadc001622fb5e363b421a056e81f171bcc55a6ff8345e692c0f86e5b48e01b996cadc001622fb5e363b421b9010000000000000000000000000000000000000000000000000000000000000000000000000000000000000000000000000000000000000000000000000000000000000000000000000000000000000000000000000000000000000000000000000000000000000000000000000000000000000000000000000000000000000000000000000000000000000000000000000000000000000000000000000000000000000000000000000000000000000000000000000000000000000000000000000000000000000000000000000000000000000000000000000000000000000000000000000000000000000000000000000000000000000000000000000000000000808088016345785d8a0000808000a0000000000000000000000000000000000000000000000000000000000000000088000000000000000007a056e81f171bcc55a6ff8345e692c0f86e5b48e01b996cadc001622fb5e363b4218080a00000000000000000000000000000000000000000000000000000000000000000c0c0c0",
        "blocks": [
            {
                "blockHeader": {
                    "parentHash": "0xb8ed4990ded8fd1a154602917ea5501d849696c7b592600189ed8cf66e1062fd",
                    "uncleHash": "0x1dcc4de8dec75d7aab85b567b6ccd41ad312451b948a7413f0a142fd40d49347",
                    "coinbase": "0x2adc25665018aa1fe0e6bc666dac8fc2697ff9ba",
                    "stateRoot": "0xfc72446c9307ea302f7f280f553af105aa7d13c8d1a2606f072165c0a00d4b5e",
                    "transactionsTrie": "0x3a6f4a06bc022527d2ee802fb4a55361dd618f0c30cf54e45e1dc1dc86430800",
                    "receiptTrie": "0xb321ed1ba839962a2c9b925b657a20632307767777eff577f1e3eb3e250e91c8",
                    "bloom": "0x00000000000000000000000000000000000000000000000000000000000000000000000000000000000000000000000000000000000000000000000000000000000000000000000000000000000000000000000000000000000000000000000000000000000000000000000000000000000000000000000000000000000000000000000000000000000000000000000000000000000000000000000000000000000000000000000000000000000000000000000000000000000000000000000000000000000000000000000000000000000000000000000000000000000000000000000000000000000000000000000000000000000000000000000000000000",
                    "difficulty": "0x00",
                    "number": "0x01",
                    "gasLimit": "0x016345785d8a0000",
                    "gasUsed": "0x02ef5c84",
                    "timestamp": "0x03e8",
                    "extraData": "0x00",
                    "mixHash": "0x0000000000000000000000000000000000000000000000000000000000000000",
                    "nonce": "0x0000000000000000",
                    "baseFeePerGas": "0x07",
                    "withdrawalsRoot": "0x56e81f171bcc55a6ff8345e692c0f86e5b48e01b996cadc001622fb5e363b421",
                    "blobGasUsed": "0x00",
                    "excessBlobGas": "0x00",
                    "parentBeaconBlockRoot": "0x0000000000000000000000000000000000000000000000000000000000000000",
                    "hash": "0xe483ef205db1fe0a0921b680cd6724e57db738d63bf61b1e3aeee4d09f4f4483"
                },
                "transactions": [
                    {
                        "type": "0x00",
                        "chainId": "0x01",
                        "nonce": "0x00",
                        "gasPrice": "0x0a",
                        "gasLimit": "0x02faf080",
                        "to": "0x0000000000000000000000000000000000001100",
                        "value": "0x00",
                        "data": "0x",
                        "v": "0x1c",
                        "r": "0x56c88a6605edb3f99e9e7cc00f610552b178d48d42c0b35ad6fac734c0494f0c",
                        "s": "0x3eeaa85d4f62077ba1752742940c70b52ca3c6cd939d7eaaa4157c45362365be",
                        "sender": "0xa94f5374fce5edbc8e2a8697c15331677e6ebf0b"
                    }
                ],
                "uncleHeaders": [],
                "withdrawals": [],
                "rlp": "0xf902aaf90240a0b8ed4990ded8fd1a154602917ea5501d849696c7b592600189ed8cf66e1062fda01dcc4de8dec75d7aab85b567b6ccd41ad312451b948a7413f0a142fd40d49347942adc25665018aa1fe0e6bc666dac8fc2697ff9baa0fc72446c9307ea302f7f280f553af105aa7d13c8d1a2606f072165c0a00d4b5ea03a6f4a06bc022527d2ee802fb4a55361dd618f0c30cf54e45e1dc1dc86430800a0b321ed1ba839962a2c9b925b657a20632307767777eff577f1e3eb3e250e91c8b9010000000000000000000000000000000000000000000000000000000000000000000000000000000000000000000000000000000000000000000000000000000000000000000000000000000000000000000000000000000000000000000000000000000000000000000000000000000000000000000000000000000000000000000000000000000000000000000000000000000000000000000000000000000000000000000000000000000000000000000000000000000000000000000000000000000000000000000000000000000000000000000000000000000000000000000000000000000000000000000000000000000000000000000000000000000000800188016345785d8a00008402ef5c848203e800a0000000000000000000000000000000000000000000000000000000000000000088000000000000000007a056e81f171bcc55a6ff8345e692c0f86e5b48e01b996cadc001622fb5e363b4218080a00000000000000000000000000000000000000000000000000000000000000000f863f861800a8402faf08094000000000000000000000000000000000000110080801ca056c88a6605edb3f99e9e7cc00f610552b178d48d42c0b35ad6fac734c0494f0ca03eeaa85d4f62077ba1752742940c70b52ca3c6cd939d7eaaa4157c45362365bec0c0",
                "blocknumber": "1"
            }
        ],
        "lastblockhash": "0xe483ef205db1fe0a0921b680cd6724e57db738d63bf61b1e3aeee4d09f4f4483",
        "sealEngine": "NoProof",
        "_info": {
            "hash": "0x6310f30a789a0a61afd30c6d505b48f85e1a2c2dde1f25dc8e3e1412195cbb76",
            "comment": "`execution-spec-tests` generated test",
            "filling-transition-tool": "evmone-t8n 0.12.0-dev+commit.85a89e56",
            "description": "Test function documentation:\n\n    Test simple contracts that are simply expected to fail on call.",
            "url": "https://github.com/ethereum/execution-spec-tests/blob/eip7692@v1.0.4/tests/prague/eip7692_eof_v1/eip3540_eof_v1/test_execution_function.py#L338",
            "reference-spec": "https://github.com/ethereum/EIPs/blob/master/EIPS/eip-4750.md",
            "reference-spec-version": "90f716078d0b08ce508a1e57803f885cc2f2e15e"
        }
    },
    "tests/prague/eip7692_eof_v1/eip3540_eof_v1/test_execution_function.py::test_eof_functions_contract_call_fail[fork_CancunEIP7692-blockchain_test-overflow_recursive_callf]": {
        "network": "Prague",
        "genesisBlockHeader": {
            "parentHash": "0x0000000000000000000000000000000000000000000000000000000000000000",
            "uncleHash": "0x1dcc4de8dec75d7aab85b567b6ccd41ad312451b948a7413f0a142fd40d49347",
            "coinbase": "0x0000000000000000000000000000000000000000",
            "stateRoot": "0x7f472af24f7a6ca49871dd4bda7e241edd65e7c48d3b534aa51f91bd4faf3122",
            "transactionsTrie": "0x56e81f171bcc55a6ff8345e692c0f86e5b48e01b996cadc001622fb5e363b421",
            "receiptTrie": "0x56e81f171bcc55a6ff8345e692c0f86e5b48e01b996cadc001622fb5e363b421",
            "bloom": "0x00000000000000000000000000000000000000000000000000000000000000000000000000000000000000000000000000000000000000000000000000000000000000000000000000000000000000000000000000000000000000000000000000000000000000000000000000000000000000000000000000000000000000000000000000000000000000000000000000000000000000000000000000000000000000000000000000000000000000000000000000000000000000000000000000000000000000000000000000000000000000000000000000000000000000000000000000000000000000000000000000000000000000000000000000000000",
            "difficulty": "0x00",
            "number": "0x00",
            "gasLimit": "0x016345785d8a0000",
            "gasUsed": "0x00",
            "timestamp": "0x00",
            "extraData": "0x00",
            "mixHash": "0x0000000000000000000000000000000000000000000000000000000000000000",
            "nonce": "0x0000000000000000",
            "baseFeePerGas": "0x07",
            "withdrawalsRoot": "0x56e81f171bcc55a6ff8345e692c0f86e5b48e01b996cadc001622fb5e363b421",
            "blobGasUsed": "0x00",
            "excessBlobGas": "0x00",
            "parentBeaconBlockRoot": "0x0000000000000000000000000000000000000000000000000000000000000000",
            "hash": "0xd7c538e8f78e8430fa6d73f865c0035ec50806f4aabbfdb595b1439629940665"
        },
        "pre": {
            "0x000f3df6d732807ef1319fb7b8bb8522d0beac02": {
                "nonce": "0x01",
                "balance": "0x00",
                "code": "0x3373fffffffffffffffffffffffffffffffffffffffe14604d57602036146024575f5ffd5b5f35801560495762001fff810690815414603c575f5ffd5b62001fff01545f5260205ff35b5f5ffd5b62001fff42064281555f359062001fff015500",
                "storage": {}
            },
            "0xa94f5374fce5edbc8e2a8697c15331677e6ebf0b": {
                "nonce": "0x00",
                "balance": "0x3635c9adc5dea00000",
                "code": "0x",
                "storage": {}
            },
            "0x0000000000000000000000000000000000001000": {
                "nonce": "0x01",
                "balance": "0x00",
                "code": "0xef0001010008020002000600110400000000800001010000036001e30001008061040103e1000250e4600101e30001e4",
                "storage": {}
            },
            "0x0000000000000000000000000000000000001100": {
                "nonce": "0x01",
                "balance": "0x00",
                "code": "0x6001600060006000600060007300000000000000000000000000000000000010005af15500",
                "storage": {}
            }
        },
        "postState": {
            "0x0000000000000000000000000000000000001000": {
                "nonce": "0x01",
                "balance": "0x00",
                "code": "0xef0001010008020002000600110400000000800001010000036001e30001008061040103e1000250e4600101e30001e4",
                "storage": {}
            },
            "0x0000000000000000000000000000000000001100": {
                "nonce": "0x01",
                "balance": "0x00",
                "code": "0x6001600060006000600060007300000000000000000000000000000000000010005af15500",
                "storage": {
                    "0x00": "0x01"
                }
            },
            "0x000f3df6d732807ef1319fb7b8bb8522d0beac02": {
                "nonce": "0x01",
                "balance": "0x00",
                "code": "0x3373fffffffffffffffffffffffffffffffffffffffe14604d57602036146024575f5ffd5b5f35801560495762001fff810690815414603c575f5ffd5b62001fff01545f5260205ff35b5f5ffd5b62001fff42064281555f359062001fff015500",
                "storage": {
                    "0x03e8": "0x03e8"
                }
            },
            "0x2adc25665018aa1fe0e6bc666dac8fc2697ff9ba": {
                "nonce": "0x00",
                "balance": "0x08ce158c",
                "code": "0x",
                "storage": {}
            },
            "0xa94f5374fce5edbc8e2a8697c15331677e6ebf0b": {
                "nonce": "0x01",
                "balance": "0x3635c9adc5c14662d8",
                "code": "0x",
                "storage": {}
            }
        },
        "genesisRLP": "0xf90240f9023aa00000000000000000000000000000000000000000000000000000000000000000a01dcc4de8dec75d7aab85b567b6ccd41ad312451b948a7413f0a142fd40d49347940000000000000000000000000000000000000000a07f472af24f7a6ca49871dd4bda7e241edd65e7c48d3b534aa51f91bd4faf3122a056e81f171bcc55a6ff8345e692c0f86e5b48e01b996cadc001622fb5e363b421a056e81f171bcc55a6ff8345e692c0f86e5b48e01b996cadc001622fb5e363b421b9010000000000000000000000000000000000000000000000000000000000000000000000000000000000000000000000000000000000000000000000000000000000000000000000000000000000000000000000000000000000000000000000000000000000000000000000000000000000000000000000000000000000000000000000000000000000000000000000000000000000000000000000000000000000000000000000000000000000000000000000000000000000000000000000000000000000000000000000000000000000000000000000000000000000000000000000000000000000000000000000000000000000000000000000000000000000808088016345785d8a0000808000a0000000000000000000000000000000000000000000000000000000000000000088000000000000000007a056e81f171bcc55a6ff8345e692c0f86e5b48e01b996cadc001622fb5e363b4218080a00000000000000000000000000000000000000000000000000000000000000000c0c0c0",
        "blocks": [
            {
                "blockHeader": {
                    "parentHash": "0xd7c538e8f78e8430fa6d73f865c0035ec50806f4aabbfdb595b1439629940665",
                    "uncleHash": "0x1dcc4de8dec75d7aab85b567b6ccd41ad312451b948a7413f0a142fd40d49347",
                    "coinbase": "0x2adc25665018aa1fe0e6bc666dac8fc2697ff9ba",
                    "stateRoot": "0x14d840ad5610482ad7345eb3e6b0a64fbe7cca2e015e04e15b4029a2a2e79e61",
                    "transactionsTrie": "0x3a6f4a06bc022527d2ee802fb4a55361dd618f0c30cf54e45e1dc1dc86430800",
                    "receiptTrie": "0xb321ed1ba839962a2c9b925b657a20632307767777eff577f1e3eb3e250e91c8",
                    "bloom": "0x00000000000000000000000000000000000000000000000000000000000000000000000000000000000000000000000000000000000000000000000000000000000000000000000000000000000000000000000000000000000000000000000000000000000000000000000000000000000000000000000000000000000000000000000000000000000000000000000000000000000000000000000000000000000000000000000000000000000000000000000000000000000000000000000000000000000000000000000000000000000000000000000000000000000000000000000000000000000000000000000000000000000000000000000000000000",
                    "difficulty": "0x00",
                    "number": "0x01",
                    "gasLimit": "0x016345785d8a0000",
                    "gasUsed": "0x02ef5c84",
                    "timestamp": "0x03e8",
                    "extraData": "0x00",
                    "mixHash": "0x0000000000000000000000000000000000000000000000000000000000000000",
                    "nonce": "0x0000000000000000",
                    "baseFeePerGas": "0x07",
                    "withdrawalsRoot": "0x56e81f171bcc55a6ff8345e692c0f86e5b48e01b996cadc001622fb5e363b421",
                    "blobGasUsed": "0x00",
                    "excessBlobGas": "0x00",
                    "parentBeaconBlockRoot": "0x0000000000000000000000000000000000000000000000000000000000000000",
                    "hash": "0xbf1ee8c70b0247dabde2886b4660c9aefd4ff4d07bbdcc69d748e9c9ea2c97f9"
                },
                "transactions": [
                    {
                        "type": "0x00",
                        "chainId": "0x01",
                        "nonce": "0x00",
                        "gasPrice": "0x0a",
                        "gasLimit": "0x02faf080",
                        "to": "0x0000000000000000000000000000000000001100",
                        "value": "0x00",
                        "data": "0x",
                        "v": "0x1c",
                        "r": "0x56c88a6605edb3f99e9e7cc00f610552b178d48d42c0b35ad6fac734c0494f0c",
                        "s": "0x3eeaa85d4f62077ba1752742940c70b52ca3c6cd939d7eaaa4157c45362365be",
                        "sender": "0xa94f5374fce5edbc8e2a8697c15331677e6ebf0b"
                    }
                ],
                "uncleHeaders": [],
                "withdrawals": [],
                "rlp": "0xf902aaf90240a0d7c538e8f78e8430fa6d73f865c0035ec50806f4aabbfdb595b1439629940665a01dcc4de8dec75d7aab85b567b6ccd41ad312451b948a7413f0a142fd40d49347942adc25665018aa1fe0e6bc666dac8fc2697ff9baa014d840ad5610482ad7345eb3e6b0a64fbe7cca2e015e04e15b4029a2a2e79e61a03a6f4a06bc022527d2ee802fb4a55361dd618f0c30cf54e45e1dc1dc86430800a0b321ed1ba839962a2c9b925b657a20632307767777eff577f1e3eb3e250e91c8b9010000000000000000000000000000000000000000000000000000000000000000000000000000000000000000000000000000000000000000000000000000000000000000000000000000000000000000000000000000000000000000000000000000000000000000000000000000000000000000000000000000000000000000000000000000000000000000000000000000000000000000000000000000000000000000000000000000000000000000000000000000000000000000000000000000000000000000000000000000000000000000000000000000000000000000000000000000000000000000000000000000000000000000000000000000000000800188016345785d8a00008402ef5c848203e800a0000000000000000000000000000000000000000000000000000000000000000088000000000000000007a056e81f171bcc55a6ff8345e692c0f86e5b48e01b996cadc001622fb5e363b4218080a00000000000000000000000000000000000000000000000000000000000000000f863f861800a8402faf08094000000000000000000000000000000000000110080801ca056c88a6605edb3f99e9e7cc00f610552b178d48d42c0b35ad6fac734c0494f0ca03eeaa85d4f62077ba1752742940c70b52ca3c6cd939d7eaaa4157c45362365bec0c0",
                "blocknumber": "1"
            }
        ],
        "lastblockhash": "0xbf1ee8c70b0247dabde2886b4660c9aefd4ff4d07bbdcc69d748e9c9ea2c97f9",
        "sealEngine": "NoProof",
        "_info": {
            "hash": "0xee33d33dc809287785c8b2e998be7c1ea59b221c0e532e262ce084f291cd17b9",
            "comment": "`execution-spec-tests` generated test",
            "filling-transition-tool": "evmone-t8n 0.12.0-dev+commit.85a89e56",
            "description": "Test function documentation:\n\n    Test simple contracts that are simply expected to fail on call.",
            "url": "https://github.com/ethereum/execution-spec-tests/blob/eip7692@v1.0.4/tests/prague/eip7692_eof_v1/eip3540_eof_v1/test_execution_function.py#L338",
            "reference-spec": "https://github.com/ethereum/EIPs/blob/master/EIPS/eip-4750.md",
            "reference-spec-version": "90f716078d0b08ce508a1e57803f885cc2f2e15e"
        }
    },
    "tests/prague/eip7692_eof_v1/eip3540_eof_v1/test_execution_function.py::test_eof_functions_contract_call_fail[fork_CancunEIP7692-blockchain_test-overflow_recursive_callf_sstore]": {
        "network": "Prague",
        "genesisBlockHeader": {
            "parentHash": "0x0000000000000000000000000000000000000000000000000000000000000000",
            "uncleHash": "0x1dcc4de8dec75d7aab85b567b6ccd41ad312451b948a7413f0a142fd40d49347",
            "coinbase": "0x0000000000000000000000000000000000000000",
            "stateRoot": "0x26edb3c3fbeaa1b4f0ee75033b44241b162b9cdf454f508bd6e2f704754d106b",
            "transactionsTrie": "0x56e81f171bcc55a6ff8345e692c0f86e5b48e01b996cadc001622fb5e363b421",
            "receiptTrie": "0x56e81f171bcc55a6ff8345e692c0f86e5b48e01b996cadc001622fb5e363b421",
            "bloom": "0x00000000000000000000000000000000000000000000000000000000000000000000000000000000000000000000000000000000000000000000000000000000000000000000000000000000000000000000000000000000000000000000000000000000000000000000000000000000000000000000000000000000000000000000000000000000000000000000000000000000000000000000000000000000000000000000000000000000000000000000000000000000000000000000000000000000000000000000000000000000000000000000000000000000000000000000000000000000000000000000000000000000000000000000000000000000",
            "difficulty": "0x00",
            "number": "0x00",
            "gasLimit": "0x016345785d8a0000",
            "gasUsed": "0x00",
            "timestamp": "0x00",
            "extraData": "0x00",
            "mixHash": "0x0000000000000000000000000000000000000000000000000000000000000000",
            "nonce": "0x0000000000000000",
            "baseFeePerGas": "0x07",
            "withdrawalsRoot": "0x56e81f171bcc55a6ff8345e692c0f86e5b48e01b996cadc001622fb5e363b421",
            "blobGasUsed": "0x00",
            "excessBlobGas": "0x00",
            "parentBeaconBlockRoot": "0x0000000000000000000000000000000000000000000000000000000000000000",
            "hash": "0xa18e6025e13b36da33b3e4778fac955a53be542a3513dec297f84fd3ff357c04"
        },
        "pre": {
            "0x000f3df6d732807ef1319fb7b8bb8522d0beac02": {
                "nonce": "0x01",
                "balance": "0x00",
                "code": "0x3373fffffffffffffffffffffffffffffffffffffffe14604d57602036146024575f5ffd5b5f35801560495762001fff810690815414603c575f5ffd5b62001fff01545f5260205ff35b5f5ffd5b62001fff42064281555f359062001fff015500",
                "storage": {}
            },
            "0xa94f5374fce5edbc8e2a8697c15331677e6ebf0b": {
                "nonce": "0x00",
                "balance": "0x3635c9adc5dea00000",
                "code": "0x",
                "storage": {}
            },
            "0x0000000000000000000000000000000000001000": {
                "nonce": "0x01",
                "balance": "0x00",
                "code": "0xef0001010008020002000900150400000000800002000000036001600055e30001005f548061040103e1000250e46001015f55e30001e4",
                "storage": {}
            },
            "0x0000000000000000000000000000000000001100": {
                "nonce": "0x01",
                "balance": "0x00",
                "code": "0x6001600060006000600060007300000000000000000000000000000000000010005af15500",
                "storage": {}
            }
        },
        "postState": {
            "0x0000000000000000000000000000000000001000": {
                "nonce": "0x01",
                "balance": "0x00",
                "code": "0xef0001010008020002000900150400000000800002000000036001600055e30001005f548061040103e1000250e46001015f55e30001e4",
                "storage": {}
            },
            "0x0000000000000000000000000000000000001100": {
                "nonce": "0x01",
                "balance": "0x00",
                "code": "0x6001600060006000600060007300000000000000000000000000000000000010005af15500",
                "storage": {
                    "0x00": "0x01"
                }
            },
            "0x000f3df6d732807ef1319fb7b8bb8522d0beac02": {
                "nonce": "0x01",
                "balance": "0x00",
                "code": "0x3373fffffffffffffffffffffffffffffffffffffffe14604d57602036146024575f5ffd5b5f35801560495762001fff810690815414603c575f5ffd5b62001fff01545f5260205ff35b5f5ffd5b62001fff42064281555f359062001fff015500",
                "storage": {
                    "0x03e8": "0x03e8"
                }
            },
            "0x2adc25665018aa1fe0e6bc666dac8fc2697ff9ba": {
                "nonce": "0x00",
                "balance": "0x08ce158c",
                "code": "0x",
                "storage": {}
            },
            "0xa94f5374fce5edbc8e2a8697c15331677e6ebf0b": {
                "nonce": "0x01",
                "balance": "0x3635c9adc5c14662d8",
                "code": "0x",
                "storage": {}
            }
        },
        "genesisRLP": "0xf90240f9023aa00000000000000000000000000000000000000000000000000000000000000000a01dcc4de8dec75d7aab85b567b6ccd41ad312451b948a7413f0a142fd40d49347940000000000000000000000000000000000000000a026edb3c3fbeaa1b4f0ee75033b44241b162b9cdf454f508bd6e2f704754d106ba056e81f171bcc55a6ff8345e692c0f86e5b48e01b996cadc001622fb5e363b421a056e81f171bcc55a6ff8345e692c0f86e5b48e01b996cadc001622fb5e363b421b9010000000000000000000000000000000000000000000000000000000000000000000000000000000000000000000000000000000000000000000000000000000000000000000000000000000000000000000000000000000000000000000000000000000000000000000000000000000000000000000000000000000000000000000000000000000000000000000000000000000000000000000000000000000000000000000000000000000000000000000000000000000000000000000000000000000000000000000000000000000000000000000000000000000000000000000000000000000000000000000000000000000000000000000000000000000000808088016345785d8a0000808000a0000000000000000000000000000000000000000000000000000000000000000088000000000000000007a056e81f171bcc55a6ff8345e692c0f86e5b48e01b996cadc001622fb5e363b4218080a00000000000000000000000000000000000000000000000000000000000000000c0c0c0",
        "blocks": [
            {
                "blockHeader": {
                    "parentHash": "0xa18e6025e13b36da33b3e4778fac955a53be542a3513dec297f84fd3ff357c04",
                    "uncleHash": "0x1dcc4de8dec75d7aab85b567b6ccd41ad312451b948a7413f0a142fd40d49347",
                    "coinbase": "0x2adc25665018aa1fe0e6bc666dac8fc2697ff9ba",
                    "stateRoot": "0xe25b07c68c3092a9f6fa773d19f18d0f57ba22bd0cb744e687323c974774490a",
                    "transactionsTrie": "0x3a6f4a06bc022527d2ee802fb4a55361dd618f0c30cf54e45e1dc1dc86430800",
                    "receiptTrie": "0xb321ed1ba839962a2c9b925b657a20632307767777eff577f1e3eb3e250e91c8",
                    "bloom": "0x00000000000000000000000000000000000000000000000000000000000000000000000000000000000000000000000000000000000000000000000000000000000000000000000000000000000000000000000000000000000000000000000000000000000000000000000000000000000000000000000000000000000000000000000000000000000000000000000000000000000000000000000000000000000000000000000000000000000000000000000000000000000000000000000000000000000000000000000000000000000000000000000000000000000000000000000000000000000000000000000000000000000000000000000000000000",
                    "difficulty": "0x00",
                    "number": "0x01",
                    "gasLimit": "0x016345785d8a0000",
                    "gasUsed": "0x02ef5c84",
                    "timestamp": "0x03e8",
                    "extraData": "0x00",
                    "mixHash": "0x0000000000000000000000000000000000000000000000000000000000000000",
                    "nonce": "0x0000000000000000",
                    "baseFeePerGas": "0x07",
                    "withdrawalsRoot": "0x56e81f171bcc55a6ff8345e692c0f86e5b48e01b996cadc001622fb5e363b421",
                    "blobGasUsed": "0x00",
                    "excessBlobGas": "0x00",
                    "parentBeaconBlockRoot": "0x0000000000000000000000000000000000000000000000000000000000000000",
                    "hash": "0xb19456486087bbc94679b7ac7a9dd797ffe7c2fa674b76aec379d800acc7c876"
                },
                "transactions": [
                    {
                        "type": "0x00",
                        "chainId": "0x01",
                        "nonce": "0x00",
                        "gasPrice": "0x0a",
                        "gasLimit": "0x02faf080",
                        "to": "0x0000000000000000000000000000000000001100",
                        "value": "0x00",
                        "data": "0x",
                        "v": "0x1c",
                        "r": "0x56c88a6605edb3f99e9e7cc00f610552b178d48d42c0b35ad6fac734c0494f0c",
                        "s": "0x3eeaa85d4f62077ba1752742940c70b52ca3c6cd939d7eaaa4157c45362365be",
                        "sender": "0xa94f5374fce5edbc8e2a8697c15331677e6ebf0b"
                    }
                ],
                "uncleHeaders": [],
                "withdrawals": [],
                "rlp": "0xf902aaf90240a0a18e6025e13b36da33b3e4778fac955a53be542a3513dec297f84fd3ff357c04a01dcc4de8dec75d7aab85b567b6ccd41ad312451b948a7413f0a142fd40d49347942adc25665018aa1fe0e6bc666dac8fc2697ff9baa0e25b07c68c3092a9f6fa773d19f18d0f57ba22bd0cb744e687323c974774490aa03a6f4a06bc022527d2ee802fb4a55361dd618f0c30cf54e45e1dc1dc86430800a0b321ed1ba839962a2c9b925b657a20632307767777eff577f1e3eb3e250e91c8b9010000000000000000000000000000000000000000000000000000000000000000000000000000000000000000000000000000000000000000000000000000000000000000000000000000000000000000000000000000000000000000000000000000000000000000000000000000000000000000000000000000000000000000000000000000000000000000000000000000000000000000000000000000000000000000000000000000000000000000000000000000000000000000000000000000000000000000000000000000000000000000000000000000000000000000000000000000000000000000000000000000000000000000000000000000000000800188016345785d8a00008402ef5c848203e800a0000000000000000000000000000000000000000000000000000000000000000088000000000000000007a056e81f171bcc55a6ff8345e692c0f86e5b48e01b996cadc001622fb5e363b4218080a00000000000000000000000000000000000000000000000000000000000000000f863f861800a8402faf08094000000000000000000000000000000000000110080801ca056c88a6605edb3f99e9e7cc00f610552b178d48d42c0b35ad6fac734c0494f0ca03eeaa85d4f62077ba1752742940c70b52ca3c6cd939d7eaaa4157c45362365bec0c0",
                "blocknumber": "1"
            }
        ],
        "lastblockhash": "0xb19456486087bbc94679b7ac7a9dd797ffe7c2fa674b76aec379d800acc7c876",
        "sealEngine": "NoProof",
        "_info": {
            "hash": "0xa96bede9f3e79c6887e5666f3e8e3c4f69ea04bb860717eb92083d261063a767",
            "comment": "`execution-spec-tests` generated test",
            "filling-transition-tool": "evmone-t8n 0.12.0-dev+commit.85a89e56",
            "description": "Test function documentation:\n\n    Test simple contracts that are simply expected to fail on call.",
            "url": "https://github.com/ethereum/execution-spec-tests/blob/eip7692@v1.0.4/tests/prague/eip7692_eof_v1/eip3540_eof_v1/test_execution_function.py#L338",
            "reference-spec": "https://github.com/ethereum/EIPs/blob/master/EIPS/eip-4750.md",
            "reference-spec-version": "90f716078d0b08ce508a1e57803f885cc2f2e15e"
        }
    },
    "tests/prague/eip7692_eof_v1/eip3540_eof_v1/test_execution_function.py::test_eof_functions_contract_call_fail[fork_CancunEIP7692-blockchain_test-overflow_recursive_callf_memory]": {
        "network": "Prague",
        "genesisBlockHeader": {
            "parentHash": "0x0000000000000000000000000000000000000000000000000000000000000000",
            "uncleHash": "0x1dcc4de8dec75d7aab85b567b6ccd41ad312451b948a7413f0a142fd40d49347",
            "coinbase": "0x0000000000000000000000000000000000000000",
            "stateRoot": "0xa8d5ceafef9949b9454ece761257741a0d2e1899b9b6df0765a7926827af2632",
            "transactionsTrie": "0x56e81f171bcc55a6ff8345e692c0f86e5b48e01b996cadc001622fb5e363b421",
            "receiptTrie": "0x56e81f171bcc55a6ff8345e692c0f86e5b48e01b996cadc001622fb5e363b421",
            "bloom": "0x00000000000000000000000000000000000000000000000000000000000000000000000000000000000000000000000000000000000000000000000000000000000000000000000000000000000000000000000000000000000000000000000000000000000000000000000000000000000000000000000000000000000000000000000000000000000000000000000000000000000000000000000000000000000000000000000000000000000000000000000000000000000000000000000000000000000000000000000000000000000000000000000000000000000000000000000000000000000000000000000000000000000000000000000000000000",
            "difficulty": "0x00",
            "number": "0x00",
            "gasLimit": "0x016345785d8a0000",
            "gasUsed": "0x00",
            "timestamp": "0x00",
            "extraData": "0x00",
            "mixHash": "0x0000000000000000000000000000000000000000000000000000000000000000",
            "nonce": "0x0000000000000000",
            "baseFeePerGas": "0x07",
            "withdrawalsRoot": "0x56e81f171bcc55a6ff8345e692c0f86e5b48e01b996cadc001622fb5e363b421",
            "blobGasUsed": "0x00",
            "excessBlobGas": "0x00",
            "parentBeaconBlockRoot": "0x0000000000000000000000000000000000000000000000000000000000000000",
            "hash": "0x6f51f793c6125697792ff070f064471c71f0eb9a54c5f47da243cd5c497551c2"
        },
        "pre": {
            "0x000f3df6d732807ef1319fb7b8bb8522d0beac02": {
                "nonce": "0x01",
                "balance": "0x00",
                "code": "0x3373fffffffffffffffffffffffffffffffffffffffe14604d57602036146024575f5ffd5b5f35801560495762001fff810690815414603c575f5ffd5b62001fff01545f5260205ff35b5f5ffd5b62001fff42064281555f359062001fff015500",
                "storage": {}
            },
            "0xa94f5374fce5edbc8e2a8697c15331677e6ebf0b": {
                "nonce": "0x00",
                "balance": "0x3635c9adc5dea00000",
                "code": "0x",
                "storage": {}
            },
            "0x0000000000000000000000000000000000001000": {
                "nonce": "0x01",
                "balance": "0x00",
                "code": "0xef0001010008020002000900150400000000800002000000036001600052e30001005f518061040103e1000250e46001015f52e30001e4",
                "storage": {}
            },
            "0x0000000000000000000000000000000000001100": {
                "nonce": "0x01",
                "balance": "0x00",
                "code": "0x6001600060006000600060007300000000000000000000000000000000000010005af15500",
                "storage": {}
            }
        },
        "postState": {
            "0x0000000000000000000000000000000000001000": {
                "nonce": "0x01",
                "balance": "0x00",
                "code": "0xef0001010008020002000900150400000000800002000000036001600052e30001005f518061040103e1000250e46001015f52e30001e4",
                "storage": {}
            },
            "0x0000000000000000000000000000000000001100": {
                "nonce": "0x01",
                "balance": "0x00",
                "code": "0x6001600060006000600060007300000000000000000000000000000000000010005af15500",
                "storage": {
                    "0x00": "0x01"
                }
            },
            "0x000f3df6d732807ef1319fb7b8bb8522d0beac02": {
                "nonce": "0x01",
                "balance": "0x00",
                "code": "0x3373fffffffffffffffffffffffffffffffffffffffe14604d57602036146024575f5ffd5b5f35801560495762001fff810690815414603c575f5ffd5b62001fff01545f5260205ff35b5f5ffd5b62001fff42064281555f359062001fff015500",
                "storage": {
                    "0x03e8": "0x03e8"
                }
            },
            "0x2adc25665018aa1fe0e6bc666dac8fc2697ff9ba": {
                "nonce": "0x00",
                "balance": "0x08ce158c",
                "code": "0x",
                "storage": {}
            },
            "0xa94f5374fce5edbc8e2a8697c15331677e6ebf0b": {
                "nonce": "0x01",
                "balance": "0x3635c9adc5c14662d8",
                "code": "0x",
                "storage": {}
            }
        },
        "genesisRLP": "0xf90240f9023aa00000000000000000000000000000000000000000000000000000000000000000a01dcc4de8dec75d7aab85b567b6ccd41ad312451b948a7413f0a142fd40d49347940000000000000000000000000000000000000000a0a8d5ceafef9949b9454ece761257741a0d2e1899b9b6df0765a7926827af2632a056e81f171bcc55a6ff8345e692c0f86e5b48e01b996cadc001622fb5e363b421a056e81f171bcc55a6ff8345e692c0f86e5b48e01b996cadc001622fb5e363b421b9010000000000000000000000000000000000000000000000000000000000000000000000000000000000000000000000000000000000000000000000000000000000000000000000000000000000000000000000000000000000000000000000000000000000000000000000000000000000000000000000000000000000000000000000000000000000000000000000000000000000000000000000000000000000000000000000000000000000000000000000000000000000000000000000000000000000000000000000000000000000000000000000000000000000000000000000000000000000000000000000000000000000000000000000000000000000808088016345785d8a0000808000a0000000000000000000000000000000000000000000000000000000000000000088000000000000000007a056e81f171bcc55a6ff8345e692c0f86e5b48e01b996cadc001622fb5e363b4218080a00000000000000000000000000000000000000000000000000000000000000000c0c0c0",
        "blocks": [
            {
                "blockHeader": {
                    "parentHash": "0x6f51f793c6125697792ff070f064471c71f0eb9a54c5f47da243cd5c497551c2",
                    "uncleHash": "0x1dcc4de8dec75d7aab85b567b6ccd41ad312451b948a7413f0a142fd40d49347",
                    "coinbase": "0x2adc25665018aa1fe0e6bc666dac8fc2697ff9ba",
                    "stateRoot": "0xccf8d8cb1205fd16116e162150ec7233c6b4f560d5163255b6dcdbc10bb55622",
                    "transactionsTrie": "0x3a6f4a06bc022527d2ee802fb4a55361dd618f0c30cf54e45e1dc1dc86430800",
                    "receiptTrie": "0xb321ed1ba839962a2c9b925b657a20632307767777eff577f1e3eb3e250e91c8",
                    "bloom": "0x00000000000000000000000000000000000000000000000000000000000000000000000000000000000000000000000000000000000000000000000000000000000000000000000000000000000000000000000000000000000000000000000000000000000000000000000000000000000000000000000000000000000000000000000000000000000000000000000000000000000000000000000000000000000000000000000000000000000000000000000000000000000000000000000000000000000000000000000000000000000000000000000000000000000000000000000000000000000000000000000000000000000000000000000000000000",
                    "difficulty": "0x00",
                    "number": "0x01",
                    "gasLimit": "0x016345785d8a0000",
                    "gasUsed": "0x02ef5c84",
                    "timestamp": "0x03e8",
                    "extraData": "0x00",
                    "mixHash": "0x0000000000000000000000000000000000000000000000000000000000000000",
                    "nonce": "0x0000000000000000",
                    "baseFeePerGas": "0x07",
                    "withdrawalsRoot": "0x56e81f171bcc55a6ff8345e692c0f86e5b48e01b996cadc001622fb5e363b421",
                    "blobGasUsed": "0x00",
                    "excessBlobGas": "0x00",
                    "parentBeaconBlockRoot": "0x0000000000000000000000000000000000000000000000000000000000000000",
                    "hash": "0xe4617b56815b32f559c80a16149a822641e109aa5b3e44c4dc8513733210f246"
                },
                "transactions": [
                    {
                        "type": "0x00",
                        "chainId": "0x01",
                        "nonce": "0x00",
                        "gasPrice": "0x0a",
                        "gasLimit": "0x02faf080",
                        "to": "0x0000000000000000000000000000000000001100",
                        "value": "0x00",
                        "data": "0x",
                        "v": "0x1c",
                        "r": "0x56c88a6605edb3f99e9e7cc00f610552b178d48d42c0b35ad6fac734c0494f0c",
                        "s": "0x3eeaa85d4f62077ba1752742940c70b52ca3c6cd939d7eaaa4157c45362365be",
                        "sender": "0xa94f5374fce5edbc8e2a8697c15331677e6ebf0b"
                    }
                ],
                "uncleHeaders": [],
                "withdrawals": [],
                "rlp": "0xf902aaf90240a06f51f793c6125697792ff070f064471c71f0eb9a54c5f47da243cd5c497551c2a01dcc4de8dec75d7aab85b567b6ccd41ad312451b948a7413f0a142fd40d49347942adc25665018aa1fe0e6bc666dac8fc2697ff9baa0ccf8d8cb1205fd16116e162150ec7233c6b4f560d5163255b6dcdbc10bb55622a03a6f4a06bc022527d2ee802fb4a55361dd618f0c30cf54e45e1dc1dc86430800a0b321ed1ba839962a2c9b925b657a20632307767777eff577f1e3eb3e250e91c8b9010000000000000000000000000000000000000000000000000000000000000000000000000000000000000000000000000000000000000000000000000000000000000000000000000000000000000000000000000000000000000000000000000000000000000000000000000000000000000000000000000000000000000000000000000000000000000000000000000000000000000000000000000000000000000000000000000000000000000000000000000000000000000000000000000000000000000000000000000000000000000000000000000000000000000000000000000000000000000000000000000000000000000000000000000000000000800188016345785d8a00008402ef5c848203e800a0000000000000000000000000000000000000000000000000000000000000000088000000000000000007a056e81f171bcc55a6ff8345e692c0f86e5b48e01b996cadc001622fb5e363b4218080a00000000000000000000000000000000000000000000000000000000000000000f863f861800a8402faf08094000000000000000000000000000000000000110080801ca056c88a6605edb3f99e9e7cc00f610552b178d48d42c0b35ad6fac734c0494f0ca03eeaa85d4f62077ba1752742940c70b52ca3c6cd939d7eaaa4157c45362365bec0c0",
                "blocknumber": "1"
            }
        ],
        "lastblockhash": "0xe4617b56815b32f559c80a16149a822641e109aa5b3e44c4dc8513733210f246",
        "sealEngine": "NoProof",
        "_info": {
            "hash": "0x7114680ea55a814c4b446fb4e96e2f6eca6b0f6a20236fe1576e99e3ce4da22c",
            "comment": "`execution-spec-tests` generated test",
            "filling-transition-tool": "evmone-t8n 0.12.0-dev+commit.85a89e56",
            "description": "Test function documentation:\n\n    Test simple contracts that are simply expected to fail on call.",
            "url": "https://github.com/ethereum/execution-spec-tests/blob/eip7692@v1.0.4/tests/prague/eip7692_eof_v1/eip3540_eof_v1/test_execution_function.py#L338",
            "reference-spec": "https://github.com/ethereum/EIPs/blob/master/EIPS/eip-4750.md",
            "reference-spec-version": "90f716078d0b08ce508a1e57803f885cc2f2e15e"
        }
    }
}