{
    "tests/prague/eip7692_eof_v1/eip663_dupn_swapn_exchange/test_exchange.py::test_exchange_all_valid_immediates[fork_CancunEIP7692-blockchain_test_hive]": {
        "network": "Prague",
        "genesisBlockHeader": {
            "parentHash": "0x0000000000000000000000000000000000000000000000000000000000000000",
            "uncleHash": "0x1dcc4de8dec75d7aab85b567b6ccd41ad312451b948a7413f0a142fd40d49347",
            "coinbase": "0x0000000000000000000000000000000000000000",
            "stateRoot": "0x0d20c26f156be6de32663d9c8813b9fa3a362a77c12d6058cc726c191bd07e98",
            "transactionsTrie": "0x56e81f171bcc55a6ff8345e692c0f86e5b48e01b996cadc001622fb5e363b421",
            "receiptTrie": "0x56e81f171bcc55a6ff8345e692c0f86e5b48e01b996cadc001622fb5e363b421",
            "bloom": "0x00000000000000000000000000000000000000000000000000000000000000000000000000000000000000000000000000000000000000000000000000000000000000000000000000000000000000000000000000000000000000000000000000000000000000000000000000000000000000000000000000000000000000000000000000000000000000000000000000000000000000000000000000000000000000000000000000000000000000000000000000000000000000000000000000000000000000000000000000000000000000000000000000000000000000000000000000000000000000000000000000000000000000000000000000000000",
            "difficulty": "0x00",
            "number": "0x00",
            "gasLimit": "0x016345785d8a0000",
            "gasUsed": "0x00",
            "timestamp": "0x00",
            "extraData": "0x00",
            "mixHash": "0x0000000000000000000000000000000000000000000000000000000000000000",
            "nonce": "0x0000000000000000",
            "baseFeePerGas": "0x07",
            "withdrawalsRoot": "0x56e81f171bcc55a6ff8345e692c0f86e5b48e01b996cadc001622fb5e363b421",
            "blobGasUsed": "0x00",
            "excessBlobGas": "0x00",
            "parentBeaconBlockRoot": "0x0000000000000000000000000000000000000000000000000000000000000000",
            "hash": "0x13694c46307069cfdd24d5854a15d78bfa4e252f43dbfd23cbbb8bfcfc47c5f6"
        },
        "pre": {
            "0x000f3df6d732807ef1319fb7b8bb8522d0beac02": {
                "nonce": "0x01",
                "balance": "0x00",
                "code": "0x3373fffffffffffffffffffffffffffffffffffffffe14604d57602036146024575f5ffd5b5f35801560495762001fff810690815414603c575f5ffd5b62001fff01545f5260205ff35b5f5ffd5b62001fff42064281555f359062001fff015500",
                "storage": {}
            },
            "0x0000000000000000000000000000000000001000": {
                "nonce": "0x01",
                "balance": "0x00",
                "code": "0xef000101000402000102cd04000000008000236103e86103e96103ea6103eb6103ec6103ed6103ee6103ef6103f06103f16103f26103f36103f46103f56103f66103f76103f86103f96103fa6103fb6103fc6103fd6103fe6103ff610400610401610402610403610404610405610406610407610408610409e800e801e802e803e804e805e806e807e808e809e80ae80be80ce80de80ee80fe810e811e812e813e814e815e816e817e818e819e81ae81be81ce81de81ee81fe820e821e822e823e824e825e826e827e828e829e82ae82be82ce82de82ee82fe830e831e832e833e834e835e836e837e838e839e83ae83be83ce83de83ee83fe840e841e842e843e844e845e846e847e848e849e84ae84be84ce84de84ee84fe850e851e852e853e854e855e856e857e858e859e85ae85be85ce85de85ee85fe860e861e862e863e864e865e866e867e868e869e86ae86be86ce86de86ee86fe870e871e872e873e874e875e876e877e878e879e87ae87be87ce87de87ee87fe880e881e882e883e884e885e886e887e888e889e88ae88be88ce88de88ee88fe890e891e892e893e894e895e896e897e898e899e89ae89be89ce89de89ee89fe8a0e8a1e8a2e8a3e8a4e8a5e8a6e8a7e8a8e8a9e8aae8abe8ace8ade8aee8afe8b0e8b1e8b2e8b3e8b4e8b5e8b6e8b7e8b8e8b9e8bae8bbe8bce8bde8bee8bfe8c0e8c1e8c2e8c3e8c4e8c5e8c6e8c7e8c8e8c9e8cae8cbe8cce8cde8cee8cfe8d0e8d1e8d2e8d3e8d4e8d5e8d6e8d7e8d8e8d9e8dae8dbe8dce8dde8dee8dfe8e0e8e1e8e2e8e3e8e4e8e5e8e6e8e7e8e8e8e9e8eae8ebe8ece8ede8eee8efe8f0e8f1e8f2e8f3e8f4e8f5e8f6e8f7e8f8e8f9e8fae8fbe8fce8fde8fee8ff600055600155600255600355600455600555600655600755600855600955600a55600b55600c55600d55600e55600f55601055601155601255601355601455601555601655601755601855601955601a55601b55601c55601d55601e55601f5560205560215500",
                "storage": {}
            },
            "0xa94f5374fce5edbc8e2a8697c15331677e6ebf0b": {
                "nonce": "0x00",
                "balance": "0x3b9aca00",
                "code": "0x",
                "storage": {}
            }
        },
        "postState": {
            "0x0000000000000000000000000000000000001000": {
                "nonce": "0x01",
                "balance": "0x00",
                "code": "0xef000101000402000102cd04000000008000236103e86103e96103ea6103eb6103ec6103ed6103ee6103ef6103f06103f16103f26103f36103f46103f56103f66103f76103f86103f96103fa6103fb6103fc6103fd6103fe6103ff610400610401610402610403610404610405610406610407610408610409e800e801e802e803e804e805e806e807e808e809e80ae80be80ce80de80ee80fe810e811e812e813e814e815e816e817e818e819e81ae81be81ce81de81ee81fe820e821e822e823e824e825e826e827e828e829e82ae82be82ce82de82ee82fe830e831e832e833e834e835e836e837e838e839e83ae83be83ce83de83ee83fe840e841e842e843e844e845e846e847e848e849e84ae84be84ce84de84ee84fe850e851e852e853e854e855e856e857e858e859e85ae85be85ce85de85ee85fe860e861e862e863e864e865e866e867e868e869e86ae86be86ce86de86ee86fe870e871e872e873e874e875e876e877e878e879e87ae87be87ce87de87ee87fe880e881e882e883e884e885e886e887e888e889e88ae88be88ce88de88ee88fe890e891e892e893e894e895e896e897e898e899e89ae89be89ce89de89ee89fe8a0e8a1e8a2e8a3e8a4e8a5e8a6e8a7e8a8e8a9e8aae8abe8ace8ade8aee8afe8b0e8b1e8b2e8b3e8b4e8b5e8b6e8b7e8b8e8b9e8bae8bbe8bce8bde8bee8bfe8c0e8c1e8c2e8c3e8c4e8c5e8c6e8c7e8c8e8c9e8cae8cbe8cce8cde8cee8cfe8d0e8d1e8d2e8d3e8d4e8d5e8d6e8d7e8d8e8d9e8dae8dbe8dce8dde8dee8dfe8e0e8e1e8e2e8e3e8e4e8e5e8e6e8e7e8e8e8e9e8eae8ebe8ece8ede8eee8efe8f0e8f1e8f2e8f3e8f4e8f5e8f6e8f7e8f8e8f9e8fae8fbe8fce8fde8fee8ff600055600155600255600355600455600555600655600755600855600955600a55600b55600c55600d55600e55600f55601055601155601255601355601455601555601655601755601855601955601a55601b55601c55601d55601e55601f5560205560215500",
                "storage": {
                    "0x00": "0x0409",
                    "0x01": "0x03f8",
                    "0x02": "0x03f7",
                    "0x03": "0x03f6",
                    "0x04": "0x03f5",
                    "0x05": "0x03f4",
                    "0x06": "0x03f3",
                    "0x07": "0x03f2",
                    "0x08": "0x03f1",
                    "0x09": "0x03f0",
                    "0x0a": "0x03ef",
                    "0x0b": "0x03ee",
                    "0x0c": "0x03ed",
                    "0x0d": "0x03ec",
                    "0x0e": "0x03eb",
                    "0x0f": "0x03ea",
                    "0x10": "0x03e9",
                    "0x11": "0x0408",
                    "0x12": "0x0407",
                    "0x13": "0x0406",
                    "0x14": "0x0405",
                    "0x15": "0x0404",
                    "0x16": "0x0403",
                    "0x17": "0x0402",
                    "0x18": "0x0401",
                    "0x19": "0x0400",
                    "0x1a": "0x03ff",
                    "0x1b": "0x03fe",
                    "0x1c": "0x03fd",
                    "0x1d": "0x03fc",
                    "0x1e": "0x03fb",
                    "0x1f": "0x03fa",
                    "0x20": "0x03f9",
                    "0x21": "0x03e8"
                }
            },
            "0x000f3df6d732807ef1319fb7b8bb8522d0beac02": {
                "nonce": "0x01",
                "balance": "0x00",
                "code": "0x3373fffffffffffffffffffffffffffffffffffffffe14604d57602036146024575f5ffd5b5f35801560495762001fff810690815414603c575f5ffd5b62001fff01545f5260205ff35b5f5ffd5b62001fff42064281555f359062001fff015500",
                "storage": {
                    "0x03e8": "0x03e8"
                }
            },
            "0x2adc25665018aa1fe0e6bc666dac8fc2697ff9ba": {
                "nonce": "0x00",
                "balance": "0x2366f4",
                "code": "0x",
                "storage": {}
            },
            "0xa94f5374fce5edbc8e2a8697c15331677e6ebf0b": {
                "nonce": "0x01",
                "balance": "0x3b24c828",
                "code": "0x",
                "storage": {}
            }
        },
        "engineNewPayloads": [
            {
                "executionPayload": {
                    "parentHash": "0x13694c46307069cfdd24d5854a15d78bfa4e252f43dbfd23cbbb8bfcfc47c5f6",
                    "feeRecipient": "0x2adc25665018aa1fe0e6bc666dac8fc2697ff9ba",
                    "stateRoot": "0x5caba81663ac63f378e2078240ec1cfaae5f9cb7e9aa42ddd570bf9cf4f77b9b",
                    "receiptsRoot": "0x8a22ef4c0156f97af74c058672af71bd7d86b6bb3fb417895e173e1c9c13d504",
                    "logsBloom": "0x00000000000000000000000000000000000000000000000000000000000000000000000000000000000000000000000000000000000000000000000000000000000000000000000000000000000000000000000000000000000000000000000000000000000000000000000000000000000000000000000000000000000000000000000000000000000000000000000000000000000000000000000000000000000000000000000000000000000000000000000000000000000000000000000000000000000000000000000000000000000000000000000000000000000000000000000000000000000000000000000000000000000000000000000000000000",
                    "blockNumber": "0x1",
                    "gasLimit": "0x16345785d8a0000",
                    "gasUsed": "0xbccfc",
                    "timestamp": "0x3e8",
                    "extraData": "0x00",
                    "prevRandao": "0x0000000000000000000000000000000000000000000000000000000000000000",
                    "baseFeePerGas": "0x7",
                    "blobGasUsed": "0x0",
                    "excessBlobGas": "0x0",
                    "blockHash": "0x1d3fc314c39eda1fbcc93248f7cd6f105ed6e7eafd05280ba281683daacdae5a",
                    "transactions": [
                        "0xf860800a8398968094000000000000000000000000000000000000100080801ba00a827f57dab1e27137696202f240cb95cfc25acf2f077f6b32a7ca3ac039baf0a055fdd3269172368d880a16fa4192049edd5211d8cbb1d5222a0a77b11174d574"
                    ],
                    "withdrawals": []
                },
                "version": "3",
                "expectedBlobVersionedHashes": [],
                "parentBeaconBlockRoot": "0x0000000000000000000000000000000000000000000000000000000000000000"
            }
        ],
        "engineFcuVersion": "3",
        "_info": {
            "hash": "0x9d89bb19943163027a533e24b6fc909c33111fc36edf4677cd4a86f752f7b97f",
            "comment": "`execution-spec-tests` generated test",
            "filling-transition-tool": "evmone-t8n 0.12.0-dev+commit.85a89e56",
            "description": "Test function documentation:\n\n    Test case for all valid EXCHANGE immediates.",
            "url": "https://github.com/ethereum/execution-spec-tests/blob/eip7692@v1.0.4/tests/prague/eip7692_eof_v1/eip663_dupn_swapn_exchange/test_exchange.py#L19",
            "reference-spec": "https://github.com/ethereum/EIPs/blob/master/EIPS/eip-663.md",
            "reference-spec-version": "b658bb87fe039d29e9475d5cfaebca9b92e0fca2"
        }
    }
}