{
    "tests/prague/eip7692_eof_v1/eip7620_eof_create/test_eofcreate.py::test_eofcreate_in_initcode_reverts[fork_CancunEIP7692-blockchain_test]": {
        "network": "Prague",
        "genesisBlockHeader": {
            "parentHash": "0x0000000000000000000000000000000000000000000000000000000000000000",
            "uncleHash": "0x1dcc4de8dec75d7aab85b567b6ccd41ad312451b948a7413f0a142fd40d49347",
            "coinbase": "0x0000000000000000000000000000000000000000",
            "stateRoot": "0xf42431fe5f35cb4e88d660fc359c816080894eff118a15d2a5c55b276fb9158e",
            "transactionsTrie": "0x56e81f171bcc55a6ff8345e692c0f86e5b48e01b996cadc001622fb5e363b421",
            "receiptTrie": "0x56e81f171bcc55a6ff8345e692c0f86e5b48e01b996cadc001622fb5e363b421",
            "bloom": "0x00000000000000000000000000000000000000000000000000000000000000000000000000000000000000000000000000000000000000000000000000000000000000000000000000000000000000000000000000000000000000000000000000000000000000000000000000000000000000000000000000000000000000000000000000000000000000000000000000000000000000000000000000000000000000000000000000000000000000000000000000000000000000000000000000000000000000000000000000000000000000000000000000000000000000000000000000000000000000000000000000000000000000000000000000000000",
            "difficulty": "0x00",
            "number": "0x00",
            "gasLimit": "0x016345785d8a0000",
            "gasUsed": "0x00",
            "timestamp": "0x00",
            "extraData": "0x00",
            "mixHash": "0x0000000000000000000000000000000000000000000000000000000000000000",
            "nonce": "0x0000000000000000",
            "baseFeePerGas": "0x07",
            "withdrawalsRoot": "0x56e81f171bcc55a6ff8345e692c0f86e5b48e01b996cadc001622fb5e363b421",
            "blobGasUsed": "0x00",
            "excessBlobGas": "0x00",
            "parentBeaconBlockRoot": "0x0000000000000000000000000000000000000000000000000000000000000000",
            "hash": "0x35886cc17afd1beab33ad164be0fe3ea51df06524f440f365021e9cde02ce461"
        },
        "pre": {
            "0x000f3df6d732807ef1319fb7b8bb8522d0beac02": {
                "nonce": "0x01",
                "balance": "0x00",
                "code": "0x3373fffffffffffffffffffffffffffffffffffffffe14604d57602036146024575f5ffd5b5f35801560495762001fff810690815414603c575f5ffd5b62001fff01545f5260205ff35b5f5ffd5b62001fff42064281555f359062001fff015500",
                "storage": {}
            },
            "0xa94f5374fce5edbc8e2a8697c15331677e6ebf0b": {
                "nonce": "0x00",
                "balance": "0x3635c9adc5dea00000",
                "code": "0x",
                "storage": {}
            },
            "0x0000000000000000000000000000000000001000": {
                "nonce": "0x01",
                "balance": "0x00",
                "code": "0xef00010100040200010014030001007804000000008000046000600060006000ec0060035561201560015500ef000101000402000100180300020032001404000000008000046000600060006000ec0060035561201560015560006000fdef000101000402000100060300010014040000000080000260006000ee00ef00010100040200010001040000000080000000ef00010100040200010001040000000080000000",
                "storage": {
                    "0x03": "0x2009"
                }
            }
        },
        "postState": {
            "0x0000000000000000000000000000000000001000": {
                "nonce": "0x02",
                "balance": "0x00",
                "code": "0xef00010100040200010014030001007804000000008000046000600060006000ec0060035561201560015500ef000101000402000100180300020032001404000000008000046000600060006000ec0060035561201560015560006000fdef000101000402000100060300010014040000000080000260006000ee00ef00010100040200010001040000000080000000ef00010100040200010001040000000080000000",
                "storage": {
                    "0x01": "0x2015"
                }
            },
            "0x000f3df6d732807ef1319fb7b8bb8522d0beac02": {
                "nonce": "0x01",
                "balance": "0x00",
                "code": "0x3373fffffffffffffffffffffffffffffffffffffffe14604d57602036146024575f5ffd5b5f35801560495762001fff810690815414603c575f5ffd5b62001fff01545f5260205ff35b5f5ffd5b62001fff42064281555f359062001fff015500",
                "storage": {
                    "0x03e8": "0x03e8"
                }
            },
            "0x2adc25665018aa1fe0e6bc666dac8fc2697ff9ba": {
                "nonce": "0x00",
                "balance": "0x071f52",
                "code": "0x",
                "storage": {}
            },
            "0xa94f5374fce5edbc8e2a8697c15331677e6ebf0b": {
                "nonce": "0x01",
                "balance": "0x3635c9adc5de884244",
                "code": "0x",
                "storage": {}
            }
        },
        "genesisRLP": "0xf90240f9023aa00000000000000000000000000000000000000000000000000000000000000000a01dcc4de8dec75d7aab85b567b6ccd41ad312451b948a7413f0a142fd40d49347940000000000000000000000000000000000000000a0f42431fe5f35cb4e88d660fc359c816080894eff118a15d2a5c55b276fb9158ea056e81f171bcc55a6ff8345e692c0f86e5b48e01b996cadc001622fb5e363b421a056e81f171bcc55a6ff8345e692c0f86e5b48e01b996cadc001622fb5e363b421b9010000000000000000000000000000000000000000000000000000000000000000000000000000000000000000000000000000000000000000000000000000000000000000000000000000000000000000000000000000000000000000000000000000000000000000000000000000000000000000000000000000000000000000000000000000000000000000000000000000000000000000000000000000000000000000000000000000000000000000000000000000000000000000000000000000000000000000000000000000000000000000000000000000000000000000000000000000000000000000000000000000000000000000000000000000000000808088016345785d8a0000808000a0000000000000000000000000000000000000000000000000000000000000000088000000000000000007a056e81f171bcc55a6ff8345e692c0f86e5b48e01b996cadc001622fb5e363b4218080a00000000000000000000000000000000000000000000000000000000000000000c0c0c0",
        "blocks": [
            {
                "blockHeader": {
                    "parentHash": "0x35886cc17afd1beab33ad164be0fe3ea51df06524f440f365021e9cde02ce461",
                    "uncleHash": "0x1dcc4de8dec75d7aab85b567b6ccd41ad312451b948a7413f0a142fd40d49347",
                    "coinbase": "0x2adc25665018aa1fe0e6bc666dac8fc2697ff9ba",
                    "stateRoot": "0x0eb46d3ab16d758c86ad2a45ce1c46fbead4fceded835043aa713f62d185bea2",
                    "transactionsTrie": "0xafbe6ba11e7f3c98cf78214755fe0562f27a17af8056a67c92af9de521e2d051",
                    "receiptTrie": "0x3ca67dee53f0ef821e73a9c89ff2bfbf1ded1e8df2b6e8880ed522f84aaa5038",
                    "bloom": "0x00000000000000000000000000000000000000000000000000000000000000000000000000000000000000000000000000000000000000000000000000000000000000000000000000000000000000000000000000000000000000000000000000000000000000000000000000000000000000000000000000000000000000000000000000000000000000000000000000000000000000000000000000000000000000000000000000000000000000000000000000000000000000000000000000000000000000000000000000000000000000000000000000000000000000000000000000000000000000000000000000000000000000000000000000000000",
                    "difficulty": "0x00",
                    "number": "0x01",
                    "gasLimit": "0x016345785d8a0000",
                    "gasUsed": "0x025fc6",
                    "timestamp": "0x03e8",
                    "extraData": "0x00",
                    "mixHash": "0x0000000000000000000000000000000000000000000000000000000000000000",
                    "nonce": "0x0000000000000000",
                    "baseFeePerGas": "0x07",
                    "withdrawalsRoot": "0x56e81f171bcc55a6ff8345e692c0f86e5b48e01b996cadc001622fb5e363b421",
                    "blobGasUsed": "0x00",
                    "excessBlobGas": "0x00",
                    "parentBeaconBlockRoot": "0x0000000000000000000000000000000000000000000000000000000000000000",
                    "hash": "0xea689a3bf49ebb986f0b54159cf152af69573793e33289496cf42fbfec1a3b17"
                },
                "transactions": [
                    {
                        "type": "0x00",
                        "chainId": "0x01",
                        "nonce": "0x00",
                        "gasPrice": "0x0a",
                        "gasLimit": "0x989680",
                        "to": "0x0000000000000000000000000000000000001000",
                        "value": "0x00",
                        "data": "0x",
                        "v": "0x1b",
                        "r": "0x0a827f57dab1e27137696202f240cb95cfc25acf2f077f6b32a7ca3ac039baf0",
                        "s": "0x55fdd3269172368d880a16fa4192049edd5211d8cbb1d5222a0a77b11174d574",
                        "sender": "0xa94f5374fce5edbc8e2a8697c15331677e6ebf0b"
                    }
                ],
                "uncleHeaders": [],
                "withdrawals": [],
                "rlp": "0xf902a8f9023fa035886cc17afd1beab33ad164be0fe3ea51df06524f440f365021e9cde02ce461a01dcc4de8dec75d7aab85b567b6ccd41ad312451b948a7413f0a142fd40d49347942adc25665018aa1fe0e6bc666dac8fc2697ff9baa00eb46d3ab16d758c86ad2a45ce1c46fbead4fceded835043aa713f62d185bea2a0afbe6ba11e7f3c98cf78214755fe0562f27a17af8056a67c92af9de521e2d051a03ca67dee53f0ef821e73a9c89ff2bfbf1ded1e8df2b6e8880ed522f84aaa5038b9010000000000000000000000000000000000000000000000000000000000000000000000000000000000000000000000000000000000000000000000000000000000000000000000000000000000000000000000000000000000000000000000000000000000000000000000000000000000000000000000000000000000000000000000000000000000000000000000000000000000000000000000000000000000000000000000000000000000000000000000000000000000000000000000000000000000000000000000000000000000000000000000000000000000000000000000000000000000000000000000000000000000000000000000000000000000800188016345785d8a000083025fc68203e800a0000000000000000000000000000000000000000000000000000000000000000088000000000000000007a056e81f171bcc55a6ff8345e692c0f86e5b48e01b996cadc001622fb5e363b4218080a00000000000000000000000000000000000000000000000000000000000000000f862f860800a8398968094000000000000000000000000000000000000100080801ba00a827f57dab1e27137696202f240cb95cfc25acf2f077f6b32a7ca3ac039baf0a055fdd3269172368d880a16fa4192049edd5211d8cbb1d5222a0a77b11174d574c0c0",
                "blocknumber": "1"
            }
        ],
        "lastblockhash": "0xea689a3bf49ebb986f0b54159cf152af69573793e33289496cf42fbfec1a3b17",
        "sealEngine": "NoProof",
        "_info": {
            "hash": "0xf101551f9b1533417d04e2caa25cbed5ea84bdad53c1498c425407487df28d24",
            "comment": "`execution-spec-tests` generated test",
            "filling-transition-tool": "evmone-t8n 0.12.0-dev+commit.85a89e56",
            "description": "Test function documentation:\n\n    Verifies an EOFCREATE occuring in an initcode is rolled back when the initcode reverts",
            "url": "https://github.com/ethereum/execution-spec-tests/blob/eip7692@v1.0.4/tests/prague/eip7692_eof_v1/eip7620_eof_create/test_eofcreate.py#L333",
            "reference-spec": "https://github.com/ethereum/EIPs/blob/master/EIPS/eip-7620.md",
            "reference-spec-version": "52ddbcdddcf72dd72427c319f2beddeb468e1737"
        }
    }
}