{
    "tests/prague/eip7692_eof_v1/eip3540_eof_v1/test_execution_function.py::test_eof_functions_contract_call_fail[fork_CancunEIP7692-blockchain_test_hive-invalid_opcode]": {
        "network": "Prague",
        "genesisBlockHeader": {
            "parentHash": "0x0000000000000000000000000000000000000000000000000000000000000000",
            "uncleHash": "0x1dcc4de8dec75d7aab85b567b6ccd41ad312451b948a7413f0a142fd40d49347",
            "coinbase": "0x0000000000000000000000000000000000000000",
            "stateRoot": "0x3a72d07f6ac8f4f63a4a09fa399ea4270e829775eb7db496e6cd95315f53a8e4",
            "transactionsTrie": "0x56e81f171bcc55a6ff8345e692c0f86e5b48e01b996cadc001622fb5e363b421",
            "receiptTrie": "0x56e81f171bcc55a6ff8345e692c0f86e5b48e01b996cadc001622fb5e363b421",
            "bloom": "0x00000000000000000000000000000000000000000000000000000000000000000000000000000000000000000000000000000000000000000000000000000000000000000000000000000000000000000000000000000000000000000000000000000000000000000000000000000000000000000000000000000000000000000000000000000000000000000000000000000000000000000000000000000000000000000000000000000000000000000000000000000000000000000000000000000000000000000000000000000000000000000000000000000000000000000000000000000000000000000000000000000000000000000000000000000000",
            "difficulty": "0x00",
            "number": "0x00",
            "gasLimit": "0x016345785d8a0000",
            "gasUsed": "0x00",
            "timestamp": "0x00",
            "extraData": "0x00",
            "mixHash": "0x0000000000000000000000000000000000000000000000000000000000000000",
            "nonce": "0x0000000000000000",
            "baseFeePerGas": "0x07",
            "withdrawalsRoot": "0x56e81f171bcc55a6ff8345e692c0f86e5b48e01b996cadc001622fb5e363b421",
            "blobGasUsed": "0x00",
            "excessBlobGas": "0x00",
            "parentBeaconBlockRoot": "0x0000000000000000000000000000000000000000000000000000000000000000",
            "hash": "0xb8ed4990ded8fd1a154602917ea5501d849696c7b592600189ed8cf66e1062fd"
        },
        "pre": {
            "0x000f3df6d732807ef1319fb7b8bb8522d0beac02": {
                "nonce": "0x01",
                "balance": "0x00",
                "code": "0x3373fffffffffffffffffffffffffffffffffffffffe14604d57602036146024575f5ffd5b5f35801560495762001fff810690815414603c575f5ffd5b62001fff01545f5260205ff35b5f5ffd5b62001fff42064281555f359062001fff015500",
                "storage": {}
            },
            "0xa94f5374fce5edbc8e2a8697c15331677e6ebf0b": {
                "nonce": "0x00",
                "balance": "0x3635c9adc5dea00000",
                "code": "0x",
                "storage": {}
            },
            "0x0000000000000000000000000000000000001000": {
                "nonce": "0x01",
                "balance": "0x00",
                "code": "0xef000101000402000100010400000000800000fe",
                "storage": {}
            },
            "0x0000000000000000000000000000000000001100": {
                "nonce": "0x01",
                "balance": "0x00",
                "code": "0x6001600060006000600060007300000000000000000000000000000000000010005af15500",
                "storage": {}
            }
        },
        "postState": {
            "0x0000000000000000000000000000000000001000": {
                "nonce": "0x01",
                "balance": "0x00",
                "code": "0xef000101000402000100010400000000800000fe",
                "storage": {}
            },
            "0x0000000000000000000000000000000000001100": {
                "nonce": "0x01",
                "balance": "0x00",
                "code": "0x6001600060006000600060007300000000000000000000000000000000000010005af15500",
                "storage": {
                    "0x00": "0x01"
                }
            },
            "0x000f3df6d732807ef1319fb7b8bb8522d0beac02": {
                "nonce": "0x01",
                "balance": "0x00",
                "code": "0x3373fffffffffffffffffffffffffffffffffffffffe14604d57602036146024575f5ffd5b5f35801560495762001fff810690815414603c575f5ffd5b62001fff01545f5260205ff35b5f5ffd5b62001fff42064281555f359062001fff015500",
                "storage": {
                    "0x03e8": "0x03e8"
                }
            },
            "0x2adc25665018aa1fe0e6bc666dac8fc2697ff9ba": {
                "nonce": "0x00",
                "balance": "0x08ce158c",
                "code": "0x",
                "storage": {}
            },
            "0xa94f5374fce5edbc8e2a8697c15331677e6ebf0b": {
                "nonce": "0x01",
                "balance": "0x3635c9adc5c14662d8",
                "code": "0x",
                "storage": {}
            }
        },
        "engineNewPayloads": [
            {
                "executionPayload": {
                    "parentHash": "0xb8ed4990ded8fd1a154602917ea5501d849696c7b592600189ed8cf66e1062fd",
                    "feeRecipient": "0x2adc25665018aa1fe0e6bc666dac8fc2697ff9ba",
                    "stateRoot": "0xfc72446c9307ea302f7f280f553af105aa7d13c8d1a2606f072165c0a00d4b5e",
                    "receiptsRoot": "0xb321ed1ba839962a2c9b925b657a20632307767777eff577f1e3eb3e250e91c8",
                    "logsBloom": "0x00000000000000000000000000000000000000000000000000000000000000000000000000000000000000000000000000000000000000000000000000000000000000000000000000000000000000000000000000000000000000000000000000000000000000000000000000000000000000000000000000000000000000000000000000000000000000000000000000000000000000000000000000000000000000000000000000000000000000000000000000000000000000000000000000000000000000000000000000000000000000000000000000000000000000000000000000000000000000000000000000000000000000000000000000000000",
                    "blockNumber": "0x1",
                    "gasLimit": "0x16345785d8a0000",
                    "gasUsed": "0x2ef5c84",
                    "timestamp": "0x3e8",
                    "extraData": "0x00",
                    "prevRandao": "0x0000000000000000000000000000000000000000000000000000000000000000",
                    "baseFeePerGas": "0x7",
                    "blobGasUsed": "0x0",
                    "excessBlobGas": "0x0",
                    "blockHash": "0xe483ef205db1fe0a0921b680cd6724e57db738d63bf61b1e3aeee4d09f4f4483",
                    "transactions": [
                        "0xf861800a8402faf08094000000000000000000000000000000000000110080801ca056c88a6605edb3f99e9e7cc00f610552b178d48d42c0b35ad6fac734c0494f0ca03eeaa85d4f62077ba1752742940c70b52ca3c6cd939d7eaaa4157c45362365be"
                    ],
                    "withdrawals": []
                },
                "version": "3",
                "expectedBlobVersionedHashes": [],
                "parentBeaconBlockRoot": "0x0000000000000000000000000000000000000000000000000000000000000000"
            }
        ],
        "engineFcuVersion": "3",
        "_info": {
            "hash": "0x03717fe0fbafd4c66685529416c844b0d191e397e15d1cd02c5414419d8964f9",
            "comment": "`execution-spec-tests` generated test",
            "filling-transition-tool": "evmone-t8n 0.12.0-dev+commit.85a89e56",
            "description": "Test function documentation:\n\n    Test simple contracts that are simply expected to fail on call.",
            "url": "https://github.com/ethereum/execution-spec-tests/blob/eip7692@v1.0.4/tests/prague/eip7692_eof_v1/eip3540_eof_v1/test_execution_function.py#L338",
            "reference-spec": "https://github.com/ethereum/EIPs/blob/master/EIPS/eip-4750.md",
            "reference-spec-version": "90f716078d0b08ce508a1e57803f885cc2f2e15e"
        }
    },
    "tests/prague/eip7692_eof_v1/eip3540_eof_v1/test_execution_function.py::test_eof_functions_contract_call_fail[fork_CancunEIP7692-blockchain_test_hive-overflow_recursive_callf]": {
        "network": "Prague",
        "genesisBlockHeader": {
            "parentHash": "0x0000000000000000000000000000000000000000000000000000000000000000",
            "uncleHash": "0x1dcc4de8dec75d7aab85b567b6ccd41ad312451b948a7413f0a142fd40d49347",
            "coinbase": "0x0000000000000000000000000000000000000000",
            "stateRoot": "0x7f472af24f7a6ca49871dd4bda7e241edd65e7c48d3b534aa51f91bd4faf3122",
            "transactionsTrie": "0x56e81f171bcc55a6ff8345e692c0f86e5b48e01b996cadc001622fb5e363b421",
            "receiptTrie": "0x56e81f171bcc55a6ff8345e692c0f86e5b48e01b996cadc001622fb5e363b421",
            "bloom": "0x00000000000000000000000000000000000000000000000000000000000000000000000000000000000000000000000000000000000000000000000000000000000000000000000000000000000000000000000000000000000000000000000000000000000000000000000000000000000000000000000000000000000000000000000000000000000000000000000000000000000000000000000000000000000000000000000000000000000000000000000000000000000000000000000000000000000000000000000000000000000000000000000000000000000000000000000000000000000000000000000000000000000000000000000000000000",
            "difficulty": "0x00",
            "number": "0x00",
            "gasLimit": "0x016345785d8a0000",
            "gasUsed": "0x00",
            "timestamp": "0x00",
            "extraData": "0x00",
            "mixHash": "0x0000000000000000000000000000000000000000000000000000000000000000",
            "nonce": "0x0000000000000000",
            "baseFeePerGas": "0x07",
            "withdrawalsRoot": "0x56e81f171bcc55a6ff8345e692c0f86e5b48e01b996cadc001622fb5e363b421",
            "blobGasUsed": "0x00",
            "excessBlobGas": "0x00",
            "parentBeaconBlockRoot": "0x0000000000000000000000000000000000000000000000000000000000000000",
            "hash": "0xd7c538e8f78e8430fa6d73f865c0035ec50806f4aabbfdb595b1439629940665"
        },
        "pre": {
            "0x000f3df6d732807ef1319fb7b8bb8522d0beac02": {
                "nonce": "0x01",
                "balance": "0x00",
                "code": "0x3373fffffffffffffffffffffffffffffffffffffffe14604d57602036146024575f5ffd5b5f35801560495762001fff810690815414603c575f5ffd5b62001fff01545f5260205ff35b5f5ffd5b62001fff42064281555f359062001fff015500",
                "storage": {}
            },
            "0xa94f5374fce5edbc8e2a8697c15331677e6ebf0b": {
                "nonce": "0x00",
                "balance": "0x3635c9adc5dea00000",
                "code": "0x",
                "storage": {}
            },
            "0x0000000000000000000000000000000000001000": {
                "nonce": "0x01",
                "balance": "0x00",
                "code": "0xef0001010008020002000600110400000000800001010000036001e30001008061040103e1000250e4600101e30001e4",
                "storage": {}
            },
            "0x0000000000000000000000000000000000001100": {
                "nonce": "0x01",
                "balance": "0x00",
                "code": "0x6001600060006000600060007300000000000000000000000000000000000010005af15500",
                "storage": {}
            }
        },
        "postState": {
            "0x0000000000000000000000000000000000001000": {
                "nonce": "0x01",
                "balance": "0x00",
                "code": "0xef0001010008020002000600110400000000800001010000036001e30001008061040103e1000250e4600101e30001e4",
                "storage": {}
            },
            "0x0000000000000000000000000000000000001100": {
                "nonce": "0x01",
                "balance": "0x00",
                "code": "0x6001600060006000600060007300000000000000000000000000000000000010005af15500",
                "storage": {
                    "0x00": "0x01"
                }
            },
            "0x000f3df6d732807ef1319fb7b8bb8522d0beac02": {
                "nonce": "0x01",
                "balance": "0x00",
                "code": "0x3373fffffffffffffffffffffffffffffffffffffffe14604d57602036146024575f5ffd5b5f35801560495762001fff810690815414603c575f5ffd5b62001fff01545f5260205ff35b5f5ffd5b62001fff42064281555f359062001fff015500",
                "storage": {
                    "0x03e8": "0x03e8"
                }
            },
            "0x2adc25665018aa1fe0e6bc666dac8fc2697ff9ba": {
                "nonce": "0x00",
                "balance": "0x08ce158c",
                "code": "0x",
                "storage": {}
            },
            "0xa94f5374fce5edbc8e2a8697c15331677e6ebf0b": {
                "nonce": "0x01",
                "balance": "0x3635c9adc5c14662d8",
                "code": "0x",
                "storage": {}
            }
        },
        "engineNewPayloads": [
            {
                "executionPayload": {
                    "parentHash": "0xd7c538e8f78e8430fa6d73f865c0035ec50806f4aabbfdb595b1439629940665",
                    "feeRecipient": "0x2adc25665018aa1fe0e6bc666dac8fc2697ff9ba",
                    "stateRoot": "0x14d840ad5610482ad7345eb3e6b0a64fbe7cca2e015e04e15b4029a2a2e79e61",
                    "receiptsRoot": "0xb321ed1ba839962a2c9b925b657a20632307767777eff577f1e3eb3e250e91c8",
                    "logsBloom": "0x00000000000000000000000000000000000000000000000000000000000000000000000000000000000000000000000000000000000000000000000000000000000000000000000000000000000000000000000000000000000000000000000000000000000000000000000000000000000000000000000000000000000000000000000000000000000000000000000000000000000000000000000000000000000000000000000000000000000000000000000000000000000000000000000000000000000000000000000000000000000000000000000000000000000000000000000000000000000000000000000000000000000000000000000000000000",
                    "blockNumber": "0x1",
                    "gasLimit": "0x16345785d8a0000",
                    "gasUsed": "0x2ef5c84",
                    "timestamp": "0x3e8",
                    "extraData": "0x00",
                    "prevRandao": "0x0000000000000000000000000000000000000000000000000000000000000000",
                    "baseFeePerGas": "0x7",
                    "blobGasUsed": "0x0",
                    "excessBlobGas": "0x0",
                    "blockHash": "0xbf1ee8c70b0247dabde2886b4660c9aefd4ff4d07bbdcc69d748e9c9ea2c97f9",
                    "transactions": [
                        "0xf861800a8402faf08094000000000000000000000000000000000000110080801ca056c88a6605edb3f99e9e7cc00f610552b178d48d42c0b35ad6fac734c0494f0ca03eeaa85d4f62077ba1752742940c70b52ca3c6cd939d7eaaa4157c45362365be"
                    ],
                    "withdrawals": []
                },
                "version": "3",
                "expectedBlobVersionedHashes": [],
                "parentBeaconBlockRoot": "0x0000000000000000000000000000000000000000000000000000000000000000"
            }
        ],
        "engineFcuVersion": "3",
        "_info": {
            "hash": "0xc3aea924f97093d528792ec059a6a92c2f660fb2e0173fac4c67ad35ae3f5ef8",
            "comment": "`execution-spec-tests` generated test",
            "filling-transition-tool": "evmone-t8n 0.12.0-dev+commit.85a89e56",
            "description": "Test function documentation:\n\n    Test simple contracts that are simply expected to fail on call.",
            "url": "https://github.com/ethereum/execution-spec-tests/blob/eip7692@v1.0.4/tests/prague/eip7692_eof_v1/eip3540_eof_v1/test_execution_function.py#L338",
            "reference-spec": "https://github.com/ethereum/EIPs/blob/master/EIPS/eip-4750.md",
            "reference-spec-version": "90f716078d0b08ce508a1e57803f885cc2f2e15e"
        }
    },
    "tests/prague/eip7692_eof_v1/eip3540_eof_v1/test_execution_function.py::test_eof_functions_contract_call_fail[fork_CancunEIP7692-blockchain_test_hive-overflow_recursive_callf_sstore]": {
        "network": "Prague",
        "genesisBlockHeader": {
            "parentHash": "0x0000000000000000000000000000000000000000000000000000000000000000",
            "uncleHash": "0x1dcc4de8dec75d7aab85b567b6ccd41ad312451b948a7413f0a142fd40d49347",
            "coinbase": "0x0000000000000000000000000000000000000000",
            "stateRoot": "0x26edb3c3fbeaa1b4f0ee75033b44241b162b9cdf454f508bd6e2f704754d106b",
            "transactionsTrie": "0x56e81f171bcc55a6ff8345e692c0f86e5b48e01b996cadc001622fb5e363b421",
            "receiptTrie": "0x56e81f171bcc55a6ff8345e692c0f86e5b48e01b996cadc001622fb5e363b421",
            "bloom": "0x00000000000000000000000000000000000000000000000000000000000000000000000000000000000000000000000000000000000000000000000000000000000000000000000000000000000000000000000000000000000000000000000000000000000000000000000000000000000000000000000000000000000000000000000000000000000000000000000000000000000000000000000000000000000000000000000000000000000000000000000000000000000000000000000000000000000000000000000000000000000000000000000000000000000000000000000000000000000000000000000000000000000000000000000000000000",
            "difficulty": "0x00",
            "number": "0x00",
            "gasLimit": "0x016345785d8a0000",
            "gasUsed": "0x00",
            "timestamp": "0x00",
            "extraData": "0x00",
            "mixHash": "0x0000000000000000000000000000000000000000000000000000000000000000",
            "nonce": "0x0000000000000000",
            "baseFeePerGas": "0x07",
            "withdrawalsRoot": "0x56e81f171bcc55a6ff8345e692c0f86e5b48e01b996cadc001622fb5e363b421",
            "blobGasUsed": "0x00",
            "excessBlobGas": "0x00",
            "parentBeaconBlockRoot": "0x0000000000000000000000000000000000000000000000000000000000000000",
            "hash": "0xa18e6025e13b36da33b3e4778fac955a53be542a3513dec297f84fd3ff357c04"
        },
        "pre": {
            "0x000f3df6d732807ef1319fb7b8bb8522d0beac02": {
                "nonce": "0x01",
                "balance": "0x00",
                "code": "0x3373fffffffffffffffffffffffffffffffffffffffe14604d57602036146024575f5ffd5b5f35801560495762001fff810690815414603c575f5ffd5b62001fff01545f5260205ff35b5f5ffd5b62001fff42064281555f359062001fff015500",
                "storage": {}
            },
            "0xa94f5374fce5edbc8e2a8697c15331677e6ebf0b": {
                "nonce": "0x00",
                "balance": "0x3635c9adc5dea00000",
                "code": "0x",
                "storage": {}
            },
            "0x0000000000000000000000000000000000001000": {
                "nonce": "0x01",
                "balance": "0x00",
                "code": "0xef0001010008020002000900150400000000800002000000036001600055e30001005f548061040103e1000250e46001015f55e30001e4",
                "storage": {}
            },
            "0x0000000000000000000000000000000000001100": {
                "nonce": "0x01",
                "balance": "0x00",
                "code": "0x6001600060006000600060007300000000000000000000000000000000000010005af15500",
                "storage": {}
            }
        },
        "postState": {
            "0x0000000000000000000000000000000000001000": {
                "nonce": "0x01",
                "balance": "0x00",
                "code": "0xef0001010008020002000900150400000000800002000000036001600055e30001005f548061040103e1000250e46001015f55e30001e4",
                "storage": {}
            },
            "0x0000000000000000000000000000000000001100": {
                "nonce": "0x01",
                "balance": "0x00",
                "code": "0x6001600060006000600060007300000000000000000000000000000000000010005af15500",
                "storage": {
                    "0x00": "0x01"
                }
            },
            "0x000f3df6d732807ef1319fb7b8bb8522d0beac02": {
                "nonce": "0x01",
                "balance": "0x00",
                "code": "0x3373fffffffffffffffffffffffffffffffffffffffe14604d57602036146024575f5ffd5b5f35801560495762001fff810690815414603c575f5ffd5b62001fff01545f5260205ff35b5f5ffd5b62001fff42064281555f359062001fff015500",
                "storage": {
                    "0x03e8": "0x03e8"
                }
            },
            "0x2adc25665018aa1fe0e6bc666dac8fc2697ff9ba": {
                "nonce": "0x00",
                "balance": "0x08ce158c",
                "code": "0x",
                "storage": {}
            },
            "0xa94f5374fce5edbc8e2a8697c15331677e6ebf0b": {
                "nonce": "0x01",
                "balance": "0x3635c9adc5c14662d8",
                "code": "0x",
                "storage": {}
            }
        },
        "engineNewPayloads": [
            {
                "executionPayload": {
                    "parentHash": "0xa18e6025e13b36da33b3e4778fac955a53be542a3513dec297f84fd3ff357c04",
                    "feeRecipient": "0x2adc25665018aa1fe0e6bc666dac8fc2697ff9ba",
                    "stateRoot": "0xe25b07c68c3092a9f6fa773d19f18d0f57ba22bd0cb744e687323c974774490a",
                    "receiptsRoot": "0xb321ed1ba839962a2c9b925b657a20632307767777eff577f1e3eb3e250e91c8",
                    "logsBloom": "0x00000000000000000000000000000000000000000000000000000000000000000000000000000000000000000000000000000000000000000000000000000000000000000000000000000000000000000000000000000000000000000000000000000000000000000000000000000000000000000000000000000000000000000000000000000000000000000000000000000000000000000000000000000000000000000000000000000000000000000000000000000000000000000000000000000000000000000000000000000000000000000000000000000000000000000000000000000000000000000000000000000000000000000000000000000000",
                    "blockNumber": "0x1",
                    "gasLimit": "0x16345785d8a0000",
                    "gasUsed": "0x2ef5c84",
                    "timestamp": "0x3e8",
                    "extraData": "0x00",
                    "prevRandao": "0x0000000000000000000000000000000000000000000000000000000000000000",
                    "baseFeePerGas": "0x7",
                    "blobGasUsed": "0x0",
                    "excessBlobGas": "0x0",
                    "blockHash": "0xb19456486087bbc94679b7ac7a9dd797ffe7c2fa674b76aec379d800acc7c876",
                    "transactions": [
                        "0xf861800a8402faf08094000000000000000000000000000000000000110080801ca056c88a6605edb3f99e9e7cc00f610552b178d48d42c0b35ad6fac734c0494f0ca03eeaa85d4f62077ba1752742940c70b52ca3c6cd939d7eaaa4157c45362365be"
                    ],
                    "withdrawals": []
                },
                "version": "3",
                "expectedBlobVersionedHashes": [],
                "parentBeaconBlockRoot": "0x0000000000000000000000000000000000000000000000000000000000000000"
            }
        ],
        "engineFcuVersion": "3",
        "_info": {
            "hash": "0xb39d27670196888c880301d047c0811a81798716559aba7c9a61c32faadc5f38",
            "comment": "`execution-spec-tests` generated test",
            "filling-transition-tool": "evmone-t8n 0.12.0-dev+commit.85a89e56",
            "description": "Test function documentation:\n\n    Test simple contracts that are simply expected to fail on call.",
            "url": "https://github.com/ethereum/execution-spec-tests/blob/eip7692@v1.0.4/tests/prague/eip7692_eof_v1/eip3540_eof_v1/test_execution_function.py#L338",
            "reference-spec": "https://github.com/ethereum/EIPs/blob/master/EIPS/eip-4750.md",
            "reference-spec-version": "90f716078d0b08ce508a1e57803f885cc2f2e15e"
        }
    },
    "tests/prague/eip7692_eof_v1/eip3540_eof_v1/test_execution_function.py::test_eof_functions_contract_call_fail[fork_CancunEIP7692-blockchain_test_hive-overflow_recursive_callf_memory]": {
        "network": "Prague",
        "genesisBlockHeader": {
            "parentHash": "0x0000000000000000000000000000000000000000000000000000000000000000",
            "uncleHash": "0x1dcc4de8dec75d7aab85b567b6ccd41ad312451b948a7413f0a142fd40d49347",
            "coinbase": "0x0000000000000000000000000000000000000000",
            "stateRoot": "0xa8d5ceafef9949b9454ece761257741a0d2e1899b9b6df0765a7926827af2632",
            "transactionsTrie": "0x56e81f171bcc55a6ff8345e692c0f86e5b48e01b996cadc001622fb5e363b421",
            "receiptTrie": "0x56e81f171bcc55a6ff8345e692c0f86e5b48e01b996cadc001622fb5e363b421",
            "bloom": "0x00000000000000000000000000000000000000000000000000000000000000000000000000000000000000000000000000000000000000000000000000000000000000000000000000000000000000000000000000000000000000000000000000000000000000000000000000000000000000000000000000000000000000000000000000000000000000000000000000000000000000000000000000000000000000000000000000000000000000000000000000000000000000000000000000000000000000000000000000000000000000000000000000000000000000000000000000000000000000000000000000000000000000000000000000000000",
            "difficulty": "0x00",
            "number": "0x00",
            "gasLimit": "0x016345785d8a0000",
            "gasUsed": "0x00",
            "timestamp": "0x00",
            "extraData": "0x00",
            "mixHash": "0x0000000000000000000000000000000000000000000000000000000000000000",
            "nonce": "0x0000000000000000",
            "baseFeePerGas": "0x07",
            "withdrawalsRoot": "0x56e81f171bcc55a6ff8345e692c0f86e5b48e01b996cadc001622fb5e363b421",
            "blobGasUsed": "0x00",
            "excessBlobGas": "0x00",
            "parentBeaconBlockRoot": "0x0000000000000000000000000000000000000000000000000000000000000000",
            "hash": "0x6f51f793c6125697792ff070f064471c71f0eb9a54c5f47da243cd5c497551c2"
        },
        "pre": {
            "0x000f3df6d732807ef1319fb7b8bb8522d0beac02": {
                "nonce": "0x01",
                "balance": "0x00",
                "code": "0x3373fffffffffffffffffffffffffffffffffffffffe14604d57602036146024575f5ffd5b5f35801560495762001fff810690815414603c575f5ffd5b62001fff01545f5260205ff35b5f5ffd5b62001fff42064281555f359062001fff015500",
                "storage": {}
            },
            "0xa94f5374fce5edbc8e2a8697c15331677e6ebf0b": {
                "nonce": "0x00",
                "balance": "0x3635c9adc5dea00000",
                "code": "0x",
                "storage": {}
            },
            "0x0000000000000000000000000000000000001000": {
                "nonce": "0x01",
                "balance": "0x00",
                "code": "0xef0001010008020002000900150400000000800002000000036001600052e30001005f518061040103e1000250e46001015f52e30001e4",
                "storage": {}
            },
            "0x0000000000000000000000000000000000001100": {
                "nonce": "0x01",
                "balance": "0x00",
                "code": "0x6001600060006000600060007300000000000000000000000000000000000010005af15500",
                "storage": {}
            }
        },
        "postState": {
            "0x0000000000000000000000000000000000001000": {
                "nonce": "0x01",
                "balance": "0x00",
                "code": "0xef0001010008020002000900150400000000800002000000036001600052e30001005f518061040103e1000250e46001015f52e30001e4",
                "storage": {}
            },
            "0x0000000000000000000000000000000000001100": {
                "nonce": "0x01",
                "balance": "0x00",
                "code": "0x6001600060006000600060007300000000000000000000000000000000000010005af15500",
                "storage": {
                    "0x00": "0x01"
                }
            },
            "0x000f3df6d732807ef1319fb7b8bb8522d0beac02": {
                "nonce": "0x01",
                "balance": "0x00",
                "code": "0x3373fffffffffffffffffffffffffffffffffffffffe14604d57602036146024575f5ffd5b5f35801560495762001fff810690815414603c575f5ffd5b62001fff01545f5260205ff35b5f5ffd5b62001fff42064281555f359062001fff015500",
                "storage": {
                    "0x03e8": "0x03e8"
                }
            },
            "0x2adc25665018aa1fe0e6bc666dac8fc2697ff9ba": {
                "nonce": "0x00",
                "balance": "0x08ce158c",
                "code": "0x",
                "storage": {}
            },
            "0xa94f5374fce5edbc8e2a8697c15331677e6ebf0b": {
                "nonce": "0x01",
                "balance": "0x3635c9adc5c14662d8",
                "code": "0x",
                "storage": {}
            }
        },
        "engineNewPayloads": [
            {
                "executionPayload": {
                    "parentHash": "0x6f51f793c6125697792ff070f064471c71f0eb9a54c5f47da243cd5c497551c2",
                    "feeRecipient": "0x2adc25665018aa1fe0e6bc666dac8fc2697ff9ba",
                    "stateRoot": "0xccf8d8cb1205fd16116e162150ec7233c6b4f560d5163255b6dcdbc10bb55622",
                    "receiptsRoot": "0xb321ed1ba839962a2c9b925b657a20632307767777eff577f1e3eb3e250e91c8",
                    "logsBloom": "0x00000000000000000000000000000000000000000000000000000000000000000000000000000000000000000000000000000000000000000000000000000000000000000000000000000000000000000000000000000000000000000000000000000000000000000000000000000000000000000000000000000000000000000000000000000000000000000000000000000000000000000000000000000000000000000000000000000000000000000000000000000000000000000000000000000000000000000000000000000000000000000000000000000000000000000000000000000000000000000000000000000000000000000000000000000000",
                    "blockNumber": "0x1",
                    "gasLimit": "0x16345785d8a0000",
                    "gasUsed": "0x2ef5c84",
                    "timestamp": "0x3e8",
                    "extraData": "0x00",
                    "prevRandao": "0x0000000000000000000000000000000000000000000000000000000000000000",
                    "baseFeePerGas": "0x7",
                    "blobGasUsed": "0x0",
                    "excessBlobGas": "0x0",
                    "blockHash": "0xe4617b56815b32f559c80a16149a822641e109aa5b3e44c4dc8513733210f246",
                    "transactions": [
                        "0xf861800a8402faf08094000000000000000000000000000000000000110080801ca056c88a6605edb3f99e9e7cc00f610552b178d48d42c0b35ad6fac734c0494f0ca03eeaa85d4f62077ba1752742940c70b52ca3c6cd939d7eaaa4157c45362365be"
                    ],
                    "withdrawals": []
                },
                "version": "3",
                "expectedBlobVersionedHashes": [],
                "parentBeaconBlockRoot": "0x0000000000000000000000000000000000000000000000000000000000000000"
            }
        ],
        "engineFcuVersion": "3",
        "_info": {
            "hash": "0xa4c0ff5dcc51c335a0f99cdcf14260ce6c78b7fa0a53e0b1ccf9218d4b9872e4",
            "comment": "`execution-spec-tests` generated test",
            "filling-transition-tool": "evmone-t8n 0.12.0-dev+commit.85a89e56",
            "description": "Test function documentation:\n\n    Test simple contracts that are simply expected to fail on call.",
            "url": "https://github.com/ethereum/execution-spec-tests/blob/eip7692@v1.0.4/tests/prague/eip7692_eof_v1/eip3540_eof_v1/test_execution_function.py#L338",
            "reference-spec": "https://github.com/ethereum/EIPs/blob/master/EIPS/eip-4750.md",
            "reference-spec-version": "90f716078d0b08ce508a1e57803f885cc2f2e15e"
        }
    }
}