{
    "tests/prague/eip7692_eof_v1/eip4200_relative_jumps/test_rjump.py::test_rjump_zero[fork_CancunEIP7692-blockchain_test]": {
        "network": "Prague",
        "genesisBlockHeader": {
            "parentHash": "0x0000000000000000000000000000000000000000000000000000000000000000",
            "uncleHash": "0x1dcc4de8dec75d7aab85b567b6ccd41ad312451b948a7413f0a142fd40d49347",
            "coinbase": "0x0000000000000000000000000000000000000000",
            "stateRoot": "0x97accc13cd7065af77eaee85131e5d2f06444e6354f378518302297e0653ded7",
            "transactionsTrie": "0x56e81f171bcc55a6ff8345e692c0f86e5b48e01b996cadc001622fb5e363b421",
            "receiptTrie": "0x56e81f171bcc55a6ff8345e692c0f86e5b48e01b996cadc001622fb5e363b421",
            "bloom": "0x00000000000000000000000000000000000000000000000000000000000000000000000000000000000000000000000000000000000000000000000000000000000000000000000000000000000000000000000000000000000000000000000000000000000000000000000000000000000000000000000000000000000000000000000000000000000000000000000000000000000000000000000000000000000000000000000000000000000000000000000000000000000000000000000000000000000000000000000000000000000000000000000000000000000000000000000000000000000000000000000000000000000000000000000000000000",
            "difficulty": "0x00",
            "number": "0x00",
            "gasLimit": "0x016345785d8a0000",
            "gasUsed": "0x00",
            "timestamp": "0x00",
            "extraData": "0x00",
            "mixHash": "0x0000000000000000000000000000000000000000000000000000000000000000",
            "nonce": "0x0000000000000000",
            "baseFeePerGas": "0x07",
            "withdrawalsRoot": "0x56e81f171bcc55a6ff8345e692c0f86e5b48e01b996cadc001622fb5e363b421",
            "blobGasUsed": "0x00",
            "excessBlobGas": "0x00",
            "parentBeaconBlockRoot": "0x0000000000000000000000000000000000000000000000000000000000000000",
            "hash": "0x3426d2936f0e669de8731bcd884d0b33b5a34d1461a913f635a55e57ff742597"
        },
        "pre": {
            "0x000f3df6d732807ef1319fb7b8bb8522d0beac02": {
                "nonce": "0x01",
                "balance": "0x00",
                "code": "0x3373fffffffffffffffffffffffffffffffffffffffe14604d57602036146024575f5ffd5b5f35801560495762001fff810690815414603c575f5ffd5b62001fff01545f5260205ff35b5f5ffd5b62001fff42064281555f359062001fff015500",
                "storage": {}
            },
            "0xa94f5374fce5edbc8e2a8697c15331677e6ebf0b": {
                "nonce": "0x00",
                "balance": "0x3635c9adc5dea00000",
                "code": "0x",
                "storage": {}
            },
            "0x0000000000000000000000000000000000001000": {
                "nonce": "0x01",
                "balance": "0x00",
                "code": "0xef0001010004020001000a0400000000800002e0000061201560015500",
                "storage": {}
            }
        },
        "postState": {
            "0x0000000000000000000000000000000000001000": {
                "nonce": "0x01",
                "balance": "0x00",
                "code": "0xef0001010004020001000a0400000000800002e0000061201560015500",
                "storage": {
                    "0x01": "0x2015"
                }
            },
            "0x000f3df6d732807ef1319fb7b8bb8522d0beac02": {
                "nonce": "0x01",
                "balance": "0x00",
                "code": "0x3373fffffffffffffffffffffffffffffffffffffffe14604d57602036146024575f5ffd5b5f35801560495762001fff810690815414603c575f5ffd5b62001fff01545f5260205ff35b5f5ffd5b62001fff42064281555f359062001fff015500",
                "storage": {
                    "0x03e8": "0x03e8"
                }
            },
            "0x2adc25665018aa1fe0e6bc666dac8fc2697ff9ba": {
                "nonce": "0x00",
                "balance": "0x01f92c",
                "code": "0x",
                "storage": {}
            },
            "0xa94f5374fce5edbc8e2a8697c15331677e6ebf0b": {
                "nonce": "0x01",
                "balance": "0x3635c9adc5de996c18",
                "code": "0x",
                "storage": {}
            }
        },
        "lastblockhash": "0x2cec130105eddefb77445d6c5e0ab7d44befe89e8e8a11c81d1ac7076272ea66",
        "genesisRLP": "0xf90240f9023aa00000000000000000000000000000000000000000000000000000000000000000a01dcc4de8dec75d7aab85b567b6ccd41ad312451b948a7413f0a142fd40d49347940000000000000000000000000000000000000000a097accc13cd7065af77eaee85131e5d2f06444e6354f378518302297e0653ded7a056e81f171bcc55a6ff8345e692c0f86e5b48e01b996cadc001622fb5e363b421a056e81f171bcc55a6ff8345e692c0f86e5b48e01b996cadc001622fb5e363b421b9010000000000000000000000000000000000000000000000000000000000000000000000000000000000000000000000000000000000000000000000000000000000000000000000000000000000000000000000000000000000000000000000000000000000000000000000000000000000000000000000000000000000000000000000000000000000000000000000000000000000000000000000000000000000000000000000000000000000000000000000000000000000000000000000000000000000000000000000000000000000000000000000000000000000000000000000000000000000000000000000000000000000000000000000000000000000808088016345785d8a0000808000a0000000000000000000000000000000000000000000000000000000000000000088000000000000000007a056e81f171bcc55a6ff8345e692c0f86e5b48e01b996cadc001622fb5e363b4218080a00000000000000000000000000000000000000000000000000000000000000000c0c0c0",
        "blocks": [
            {
                "blockHeader": {
                    "parentHash": "0x3426d2936f0e669de8731bcd884d0b33b5a34d1461a913f635a55e57ff742597",
                    "uncleHash": "0x1dcc4de8dec75d7aab85b567b6ccd41ad312451b948a7413f0a142fd40d49347",
                    "coinbase": "0x2adc25665018aa1fe0e6bc666dac8fc2697ff9ba",
                    "stateRoot": "0x914c87c0c258dfb37aa5378a93a43ea9b9f1171985ae720b5ada2f1e4e785685",
                    "transactionsTrie": "0xec9d10cff79619f2df45db8c66526ef3fbd32d283fdd2dcc9b55c0efe643d8c3",
                    "receiptTrie": "0x9593f56abf23bcbb26d27b0c6e46a56415d9103ed6b4d8ac7b4182f9f250cafa",
                    "bloom": "0x00000000000000000000000000000000000000000000000000000000000000000000000000000000000000000000000000000000000000000000000000000000000000000000000000000000000000000000000000000000000000000000000000000000000000000000000000000000000000000000000000000000000000000000000000000000000000000000000000000000000000000000000000000000000000000000000000000000000000000000000000000000000000000000000000000000000000000000000000000000000000000000000000000000000000000000000000000000000000000000000000000000000000000000000000000000",
                    "difficulty": "0x00",
                    "number": "0x01",
                    "gasLimit": "0x016345785d8a0000",
                    "gasUsed": "0xa864",
                    "timestamp": "0x03e8",
                    "extraData": "0x00",
                    "mixHash": "0x0000000000000000000000000000000000000000000000000000000000000000",
                    "nonce": "0x0000000000000000",
                    "baseFeePerGas": "0x07",
                    "withdrawalsRoot": "0x56e81f171bcc55a6ff8345e692c0f86e5b48e01b996cadc001622fb5e363b421",
                    "blobGasUsed": "0x00",
                    "excessBlobGas": "0x00",
                    "parentBeaconBlockRoot": "0x0000000000000000000000000000000000000000000000000000000000000000",
                    "hash": "0x2cec130105eddefb77445d6c5e0ab7d44befe89e8e8a11c81d1ac7076272ea66"
                },
                "transactions": [
                    {
                        "type": "0x00",
                        "chainId": "0x01",
                        "nonce": "0x00",
                        "gasPrice": "0x0a",
                        "gasLimit": "0x989680",
                        "to": "0x0000000000000000000000000000000000001000",
                        "value": "0x00",
                        "data": "0x",
                        "v": "0x26",
                        "r": "0xe5d462429669f661291a8dc4c49a092cfd4922b6f3f31c9189a2f4adf5ecd730",
                        "s": "0x01494afaf472fbb80bcb107ffeb918a2b9115f454027840615d6d20d63c69ac0",
                        "sender": "0xa94f5374fce5edbc8e2a8697c15331677e6ebf0b"
                    }
                ],
                "uncleHeaders": [],
                "withdrawals": [],
                "rlp": "0xf902a7f9023ea03426d2936f0e669de8731bcd884d0b33b5a34d1461a913f635a55e57ff742597a01dcc4de8dec75d7aab85b567b6ccd41ad312451b948a7413f0a142fd40d49347942adc25665018aa1fe0e6bc666dac8fc2697ff9baa0914c87c0c258dfb37aa5378a93a43ea9b9f1171985ae720b5ada2f1e4e785685a0ec9d10cff79619f2df45db8c66526ef3fbd32d283fdd2dcc9b55c0efe643d8c3a09593f56abf23bcbb26d27b0c6e46a56415d9103ed6b4d8ac7b4182f9f250cafab9010000000000000000000000000000000000000000000000000000000000000000000000000000000000000000000000000000000000000000000000000000000000000000000000000000000000000000000000000000000000000000000000000000000000000000000000000000000000000000000000000000000000000000000000000000000000000000000000000000000000000000000000000000000000000000000000000000000000000000000000000000000000000000000000000000000000000000000000000000000000000000000000000000000000000000000000000000000000000000000000000000000000000000000000000000000000800188016345785d8a000082a8648203e800a0000000000000000000000000000000000000000000000000000000000000000088000000000000000007a056e81f171bcc55a6ff8345e692c0f86e5b48e01b996cadc001622fb5e363b4218080a00000000000000000000000000000000000000000000000000000000000000000f862f860800a83989680940000000000000000000000000000000000001000808026a0e5d462429669f661291a8dc4c49a092cfd4922b6f3f31c9189a2f4adf5ecd730a001494afaf472fbb80bcb107ffeb918a2b9115f454027840615d6d20d63c69ac0c0c0",
                "blocknumber": "1"
            }
        ],
        "sealEngine": "NoProof",
        "_info": {
            "hash": "0xcb8140df52512343c77083420b1696d705504922e307d3c6d7fd83b40c1fd243",
            "comment": "`execution-spec-tests` generated test",
            "filling-transition-tool": "evmone-t8n 0.12.0-dev+commit.26d56091",
            "description": "Test function documentation:\nEOF1V4200_0002 (Valid) EOF code containing RJUMP (Zero)",
            "url": "https://github.com/ethereum/execution-spec-tests/tree/v3.0.0/tests/prague/eip7692_eof_v1/eip4200_relative_jumps/test_rjump.py#L66",
            "reference-spec": "https://github.com/ethereum/EIPs/blob/master/EIPS/eip-4200.md",
            "reference-spec-version": "17d4a8d12d2b5e0f2985c866376c16c8c6df7cba"
        }
    }
}