{
    "000-fork=ShanghaiToCancunAtTime15k-deploy_on_shanghai": {
        "_info": {
            "filling-transition-tool": "evm version 1.13.5-unstable-4d161dee-20231019",
            "reference-spec": "https://github.com/ethereum/EIPs/blob/master/EIPS/eip-4788.md",
            "reference-spec-version": "e7608fe8ac8a60934ca874f5aab7d5c1f4ff7782"
        },
        "network": "ShanghaiToCancunAtTime15k",
        "genesisRLP": "0xf9021df90217a00000000000000000000000000000000000000000000000000000000000000000a01dcc4de8dec75d7aab85b567b6ccd41ad312451b948a7413f0a142fd40d49347940000000000000000000000000000000000000000a07aa3de3b8d1e6949ab31772b27e6b4b2aff9df19f557e542de4e73dc404d026ca056e81f171bcc55a6ff8345e692c0f86e5b48e01b996cadc001622fb5e363b421a056e81f171bcc55a6ff8345e692c0f86e5b48e01b996cadc001622fb5e363b421b9010000000000000000000000000000000000000000000000000000000000000000000000000000000000000000000000000000000000000000000000000000000000000000000000000000000000000000000000000000000000000000000000000000000000000000000000000000000000000000000000000000000000000000000000000000000000000000000000000000000000000000000000000000000000000000000000000000000000000000000000000000000000000000000000000000000000000000000000000000000000000000000000000000000000000000000000000000000000000000000000000000000000000000000000000000000000808088016345785d8a0000808000a0000000000000000000000000000000000000000000000000000000000000000088000000000000000007a056e81f171bcc55a6ff8345e692c0f86e5b48e01b996cadc001622fb5e363b421c0c0c0",
        "genesisBlockHeader": {
            "parentHash": "0x0000000000000000000000000000000000000000000000000000000000000000",
            "uncleHash": "0x1dcc4de8dec75d7aab85b567b6ccd41ad312451b948a7413f0a142fd40d49347",
            "coinbase": "0x0000000000000000000000000000000000000000",
            "stateRoot": "0x7aa3de3b8d1e6949ab31772b27e6b4b2aff9df19f557e542de4e73dc404d026c",
            "transactionsTrie": "0x56e81f171bcc55a6ff8345e692c0f86e5b48e01b996cadc001622fb5e363b421",
            "receiptTrie": "0x56e81f171bcc55a6ff8345e692c0f86e5b48e01b996cadc001622fb5e363b421",
            "bloom": "0x00000000000000000000000000000000000000000000000000000000000000000000000000000000000000000000000000000000000000000000000000000000000000000000000000000000000000000000000000000000000000000000000000000000000000000000000000000000000000000000000000000000000000000000000000000000000000000000000000000000000000000000000000000000000000000000000000000000000000000000000000000000000000000000000000000000000000000000000000000000000000000000000000000000000000000000000000000000000000000000000000000000000000000000000000000000",
            "difficulty": "0x00",
            "number": "0x00",
            "gasLimit": "0x016345785d8a0000",
            "gasUsed": "0x00",
            "timestamp": "0x00",
            "extraData": "0x00",
            "mixHash": "0x0000000000000000000000000000000000000000000000000000000000000000",
            "nonce": "0x0000000000000000",
            "baseFeePerGas": "0x07",
            "withdrawalsRoot": "0x56e81f171bcc55a6ff8345e692c0f86e5b48e01b996cadc001622fb5e363b421",
            "hash": "0x7d78488cdb2d75f66cea94a95b23c5c4764ad9247775508f3a75308447b1ced8"
        },
        "blocks": [
            {
                "rlp": "0xf902daf9021ca07d78488cdb2d75f66cea94a95b23c5c4764ad9247775508f3a75308447b1ced8a01dcc4de8dec75d7aab85b567b6ccd41ad312451b948a7413f0a142fd40d49347942adc25665018aa1fe0e6bc666dac8fc2697ff9baa0b2bc88d6f6337f6097ac76a43fc6e1a2aad390c4d8e80419455dd826e35647aea0d87da2b23fc7bbfa7e2994ee830e73325af892d036e2e5d90d9f17ff2dd41d9da0d5caddb93c844bd1c4a6364ec17b3f09afea9b2f335d8aba110ef6b0c9d9bfebb9010000000000000000000000000000000000000000000000000000000000000000000000000000000000000000000000000000000000000000000000000000000000000000000000000000000000000000000000000000000000000000000000000000000000000000000000000000000000000000000000000000000000000000000000000000000000000000000000000000000000000000000000000000000000000000000000000000000000000000000000000000000000000000000000000000000000000000000000000000000000000000000000000000000000000000000000000000000000000000000000000000000000000000000000000000000000800188016345785d8a000083012164821d4c80a0000000000000000000000000000000000000000000000000000000000000000088000000000000000007a02aef4d3e6939af0b4bf4c0e7572a214eb7db9ba52937e1e82ad6c64b52d2e8bbf885f8838085e8d4a510008303d0908080b86a60618060095f395ff33373fffffffffffffffffffffffffffffffffffffffe14604d57602036146024575f5ffd5b5f35801560495762001fff810690815414603c575f5ffd5b62001fff01545f5260205ff35b5f5ffd5b62001fff42064281555f359062001fff0155001b820539851b9b6eb1f0c0f2d8808094000f3df6d732807ef1319fb7b8bb8522d0beac0201d8010194fffffffffffffffffffffffffffffffffffffffe01",
                "blockHeader": {
                    "parentHash": "0x7d78488cdb2d75f66cea94a95b23c5c4764ad9247775508f3a75308447b1ced8",
                    "uncleHash": "0x1dcc4de8dec75d7aab85b567b6ccd41ad312451b948a7413f0a142fd40d49347",
                    "coinbase": "0x2adc25665018aa1fe0e6bc666dac8fc2697ff9ba",
                    "stateRoot": "0xb2bc88d6f6337f6097ac76a43fc6e1a2aad390c4d8e80419455dd826e35647ae",
                    "transactionsTrie": "0xd87da2b23fc7bbfa7e2994ee830e73325af892d036e2e5d90d9f17ff2dd41d9d",
                    "receiptTrie": "0xd5caddb93c844bd1c4a6364ec17b3f09afea9b2f335d8aba110ef6b0c9d9bfeb",
                    "bloom": "0x00000000000000000000000000000000000000000000000000000000000000000000000000000000000000000000000000000000000000000000000000000000000000000000000000000000000000000000000000000000000000000000000000000000000000000000000000000000000000000000000000000000000000000000000000000000000000000000000000000000000000000000000000000000000000000000000000000000000000000000000000000000000000000000000000000000000000000000000000000000000000000000000000000000000000000000000000000000000000000000000000000000000000000000000000000000",
                    "difficulty": "0x00",
                    "number": "0x01",
                    "gasLimit": "0x016345785d8a0000",
                    "gasUsed": "0x012164",
                    "timestamp": "0x1d4c",
                    "extraData": "0x",
                    "mixHash": "0x0000000000000000000000000000000000000000000000000000000000000000",
                    "nonce": "0x0000000000000000",
                    "baseFeePerGas": "0x07",
                    "withdrawalsRoot": "0x2aef4d3e6939af0b4bf4c0e7572a214eb7db9ba52937e1e82ad6c64b52d2e8bb",
                    "hash": "0x81bfef792658e8b8e2765d0fedd75d1c28048f3abb21b52f53126bd9cc73f501"
                },
                "blocknumber": "1",
                "transactions": [
                    {
                        "type": "0x00",
                        "chainId": "0x01",
                        "nonce": "0x00",
                        "gasPrice": "0xe8d4a51000",
                        "gasLimit": "0x03d090",
                        "to": "",
                        "value": "0x00",
                        "data": "0x60618060095f395ff33373fffffffffffffffffffffffffffffffffffffffe14604d57602036146024575f5ffd5b5f35801560495762001fff810690815414603c575f5ffd5b62001fff01545f5260205ff35b5f5ffd5b62001fff42064281555f359062001fff015500",
                        "v": "0x1b",
                        "r": "0x0539",
                        "s": "0x1b9b6eb1f0",
                        "sender": "0x0b799c86a49deeb90402691f1041aa3af2d3c875"
                    }
                ],
                "uncleHeaders": [],
                "withdrawals": [
                    {
                        "index": "0x00",
                        "validatorIndex": "0x00",
                        "address": "0x000f3df6d732807ef1319fb7b8bb8522d0beac02",
                        "amount": "0x01"
                    },
                    {
                        "index": "0x01",
                        "validatorIndex": "0x01",
                        "address": "0xfffffffffffffffffffffffffffffffffffffffe",
                        "amount": "0x01"
                    }
                ]
            },
            {
                "rlp": "0xf90300f9023fa081bfef792658e8b8e2765d0fedd75d1c28048f3abb21b52f53126bd9cc73f501a01dcc4de8dec75d7aab85b567b6ccd41ad312451b948a7413f0a142fd40d49347942adc25665018aa1fe0e6bc666dac8fc2697ff9baa0db77e53c53956bfe3e356c40a0ca29e3c06f64217cdae8c364fbf071eb6614e7a064491dfba31aa11099c81e1c7c95f0818b4f927d4b3552143a25ea44512fe125a01ccaf316c85ab72468f194a8a6bf7f7cac5730696d7dd3a5dc298fac47cfe273b9010000000000000000000000000000000000000000000000000000000000000000000000000000000000000000000000000000000000000000000000000000000000000000000000000000000000000000000000000000000000000000000000000000000000000000000000000000000000000000000000000000000000000000000000000000000000000000000000000000000000000000000000000000000000000000000000000000000000000000000000000000000000000000000000000000000000000000000000000000000000000000000000000000000000000000000000000000000000000000000000000000000000000000000000000000000000800288016345785d8a00008301c748823a9880a0000000000000000000000000000000000000000000000000000000000000000088000000000000000007a0d21739e00fbe6b25846bb8079ed6fd6533baa1e8b127b158f651ae16edac1f108080a06c31fc15422ebad28aaf9089c306702f67540b53c7eea8b7d2941044b027100ff888b88602f88301808007830f424094000000000000000000000000000000000000010080a00000000000000000000000000000000000000000000000000000000000003a98c001a0faa933f2812dcf366269cdad3b8bdbf6d293fe5dcd0d3313089d619e99b77c2ea0541ff2b494d5a6856ee685c0647a47b60a6eb7823dd0b72c74123ea33f0e4e41c0f2d8028094000f3df6d732807ef1319fb7b8bb8522d0beac0201d8030194fffffffffffffffffffffffffffffffffffffffe01",
                "blockHeader": {
                    "parentHash": "0x81bfef792658e8b8e2765d0fedd75d1c28048f3abb21b52f53126bd9cc73f501",
                    "uncleHash": "0x1dcc4de8dec75d7aab85b567b6ccd41ad312451b948a7413f0a142fd40d49347",
                    "coinbase": "0x2adc25665018aa1fe0e6bc666dac8fc2697ff9ba",
                    "stateRoot": "0xdb77e53c53956bfe3e356c40a0ca29e3c06f64217cdae8c364fbf071eb6614e7",
                    "transactionsTrie": "0x64491dfba31aa11099c81e1c7c95f0818b4f927d4b3552143a25ea44512fe125",
                    "receiptTrie": "0x1ccaf316c85ab72468f194a8a6bf7f7cac5730696d7dd3a5dc298fac47cfe273",
                    "bloom": "0x00000000000000000000000000000000000000000000000000000000000000000000000000000000000000000000000000000000000000000000000000000000000000000000000000000000000000000000000000000000000000000000000000000000000000000000000000000000000000000000000000000000000000000000000000000000000000000000000000000000000000000000000000000000000000000000000000000000000000000000000000000000000000000000000000000000000000000000000000000000000000000000000000000000000000000000000000000000000000000000000000000000000000000000000000000000",
                    "difficulty": "0x00",
                    "number": "0x02",
                    "gasLimit": "0x016345785d8a0000",
                    "gasUsed": "0x01c748",
                    "timestamp": "0x3a98",
                    "extraData": "0x",
                    "mixHash": "0x0000000000000000000000000000000000000000000000000000000000000000",
                    "nonce": "0x0000000000000000",
                    "baseFeePerGas": "0x07",
                    "withdrawalsRoot": "0xd21739e00fbe6b25846bb8079ed6fd6533baa1e8b127b158f651ae16edac1f10",
                    "blobGasUsed": "0x00",
                    "excessBlobGas": "0x00",
                    "parentBeaconBlockRoot": "0x6c31fc15422ebad28aaf9089c306702f67540b53c7eea8b7d2941044b027100f",
                    "hash": "0x9182d2f5db4ed12bb138e1af1eed318743af4580bd2b3f06b2ba583307195ef3"
                },
                "blocknumber": "2",
                "transactions": [
                    {
                        "type": "0x02",
                        "chainId": "0x01",
                        "nonce": "0x00",
                        "maxPriorityFeePerGas": "0x00",
                        "maxFeePerGas": "0x07",
                        "gasLimit": "0x0f4240",
                        "to": "0x0000000000000000000000000000000000000100",
                        "value": "0x00",
                        "data": "0x0000000000000000000000000000000000000000000000000000000000003a98",
                        "accessList": [],
                        "v": "0x01",
                        "r": "0xfaa933f2812dcf366269cdad3b8bdbf6d293fe5dcd0d3313089d619e99b77c2e",
                        "s": "0x541ff2b494d5a6856ee685c0647a47b60a6eb7823dd0b72c74123ea33f0e4e41",
                        "sender": "0xa94f5374fce5edbc8e2a8697c15331677e6ebf0b"
                    }
                ],
                "uncleHeaders": [],
                "withdrawals": [
                    {
                        "index": "0x02",
                        "validatorIndex": "0x00",
                        "address": "0x000f3df6d732807ef1319fb7b8bb8522d0beac02",
                        "amount": "0x01"
                    },
                    {
                        "index": "0x03",
                        "validatorIndex": "0x01",
                        "address": "0xfffffffffffffffffffffffffffffffffffffffe",
                        "amount": "0x01"
                    }
                ]
            }
        ],
        "lastblockhash": "0x9182d2f5db4ed12bb138e1af1eed318743af4580bd2b3f06b2ba583307195ef3",
        "pre": {
            "0x0000000000000000000000000000000000000100": {
                "nonce": "0x00",
                "balance": "0x010000000000",
                "code": "0x366000602037602060003660206000720f3df6d732807ef1319fb7b8bb8522d0beac02620186a0f16000556000516001553d6002553d600060003e600051600355",
                "storage": {}
            },
            "0x000f3df6d732807ef1319fb7b8bb8522d0beac02": {
                "nonce": "0x00",
                "balance": "0x00",
                "code": "0x",
                "storage": {}
            },
            "0x0b799c86a49deeb90402691f1041aa3af2d3c875": {
                "nonce": "0x00",
                "balance": "0x03782dace9d90000",
                "code": "0x",
                "storage": {}
            },
            "0xa94f5374fce5edbc8e2a8697c15331677e6ebf0b": {
                "nonce": "0x00",
                "balance": "0x010000000000",
                "code": "0x",
                "storage": {}
            }
        },
        "postState": {
            "0x0000000000000000000000000000000000000100": {
                "nonce": "0x00",
                "balance": "0x010000000000",
                "code": "0x366000602037602060003660206000720f3df6d732807ef1319fb7b8bb8522d0beac02620186a0f16000556000516001553d6002553d600060003e600051600355",
                "storage": {
                    "0x00": "0x01",
                    "0x01": "0x6c31fc15422ebad28aaf9089c306702f67540b53c7eea8b7d2941044b027100f",
                    "0x02": "0x20",
                    "0x03": "0x6c31fc15422ebad28aaf9089c306702f67540b53c7eea8b7d2941044b027100f"
                }
            },
            "0x000f3df6d732807ef1319fb7b8bb8522d0beac02": {
                "nonce": "0x01",
                "balance": "0x77359400",
                "code": "0x3373fffffffffffffffffffffffffffffffffffffffe14604d57602036146024575f5ffd5b5f35801560495762001fff810690815414603c575f5ffd5b62001fff01545f5260205ff35b5f5ffd5b62001fff42064281555f359062001fff015500",
                "storage": {
                    "0x1a99": "0x3a98",
                    "0x3a98": "0x6c31fc15422ebad28aaf9089c306702f67540b53c7eea8b7d2941044b027100f"
                }
            },
            "0x0b799c86a49deeb90402691f1041aa3af2d3c875": {
                "nonce": "0x01",
                "balance": "0x0270faab824ec000",
                "code": "0x",
                "storage": {}
            },
            "0x2adc25665018aa1fe0e6bc666dac8fc2697ff9ba": {
                "nonce": "0x00",
                "balance": "0x0107330167825644",
                "code": "0x",
                "storage": {}
            },
            "0xa94f5374fce5edbc8e2a8697c15331677e6ebf0b": {
                "nonce": "0x01",
                "balance": "0xfffff38d08",
                "code": "0x",
                "storage": {}
            },
            "0xfffffffffffffffffffffffffffffffffffffffe": {
                "nonce": "0x00",
                "balance": "0x77359400",
                "code": "0x",
                "storage": {}
            }
        },
        "sealEngine": "NoProof"
    },
    "001-fork=ShanghaiToCancunAtTime15k-deploy_on_cancun": {
        "_info": {
            "filling-transition-tool": "evm version 1.13.5-unstable-4d161dee-20231019",
            "reference-spec": "https://github.com/ethereum/EIPs/blob/master/EIPS/eip-4788.md",
            "reference-spec-version": "e7608fe8ac8a60934ca874f5aab7d5c1f4ff7782"
        },
        "network": "ShanghaiToCancunAtTime15k",
        "genesisRLP": "0xf9021df90217a00000000000000000000000000000000000000000000000000000000000000000a01dcc4de8dec75d7aab85b567b6ccd41ad312451b948a7413f0a142fd40d49347940000000000000000000000000000000000000000a07aa3de3b8d1e6949ab31772b27e6b4b2aff9df19f557e542de4e73dc404d026ca056e81f171bcc55a6ff8345e692c0f86e5b48e01b996cadc001622fb5e363b421a056e81f171bcc55a6ff8345e692c0f86e5b48e01b996cadc001622fb5e363b421b9010000000000000000000000000000000000000000000000000000000000000000000000000000000000000000000000000000000000000000000000000000000000000000000000000000000000000000000000000000000000000000000000000000000000000000000000000000000000000000000000000000000000000000000000000000000000000000000000000000000000000000000000000000000000000000000000000000000000000000000000000000000000000000000000000000000000000000000000000000000000000000000000000000000000000000000000000000000000000000000000000000000000000000000000000000000000808088016345785d8a0000808000a0000000000000000000000000000000000000000000000000000000000000000088000000000000000007a056e81f171bcc55a6ff8345e692c0f86e5b48e01b996cadc001622fb5e363b421c0c0c0",
        "genesisBlockHeader": {
            "parentHash": "0x0000000000000000000000000000000000000000000000000000000000000000",
            "uncleHash": "0x1dcc4de8dec75d7aab85b567b6ccd41ad312451b948a7413f0a142fd40d49347",
            "coinbase": "0x0000000000000000000000000000000000000000",
            "stateRoot": "0x7aa3de3b8d1e6949ab31772b27e6b4b2aff9df19f557e542de4e73dc404d026c",
            "transactionsTrie": "0x56e81f171bcc55a6ff8345e692c0f86e5b48e01b996cadc001622fb5e363b421",
            "receiptTrie": "0x56e81f171bcc55a6ff8345e692c0f86e5b48e01b996cadc001622fb5e363b421",
            "bloom": "0x00000000000000000000000000000000000000000000000000000000000000000000000000000000000000000000000000000000000000000000000000000000000000000000000000000000000000000000000000000000000000000000000000000000000000000000000000000000000000000000000000000000000000000000000000000000000000000000000000000000000000000000000000000000000000000000000000000000000000000000000000000000000000000000000000000000000000000000000000000000000000000000000000000000000000000000000000000000000000000000000000000000000000000000000000000000",
            "difficulty": "0x00",
            "number": "0x00",
            "gasLimit": "0x016345785d8a0000",
            "gasUsed": "0x00",
            "timestamp": "0x00",
            "extraData": "0x00",
            "mixHash": "0x0000000000000000000000000000000000000000000000000000000000000000",
            "nonce": "0x0000000000000000",
            "baseFeePerGas": "0x07",
            "withdrawalsRoot": "0x56e81f171bcc55a6ff8345e692c0f86e5b48e01b996cadc001622fb5e363b421",
            "hash": "0x7d78488cdb2d75f66cea94a95b23c5c4764ad9247775508f3a75308447b1ced8"
        },
        "blocks": [
            {
                "rlp": "0xf902fdf9023fa07d78488cdb2d75f66cea94a95b23c5c4764ad9247775508f3a75308447b1ced8a01dcc4de8dec75d7aab85b567b6ccd41ad312451b948a7413f0a142fd40d49347942adc25665018aa1fe0e6bc666dac8fc2697ff9baa0b2bc88d6f6337f6097ac76a43fc6e1a2aad390c4d8e80419455dd826e35647aea0d87da2b23fc7bbfa7e2994ee830e73325af892d036e2e5d90d9f17ff2dd41d9da0d5caddb93c844bd1c4a6364ec17b3f09afea9b2f335d8aba110ef6b0c9d9bfebb9010000000000000000000000000000000000000000000000000000000000000000000000000000000000000000000000000000000000000000000000000000000000000000000000000000000000000000000000000000000000000000000000000000000000000000000000000000000000000000000000000000000000000000000000000000000000000000000000000000000000000000000000000000000000000000000000000000000000000000000000000000000000000000000000000000000000000000000000000000000000000000000000000000000000000000000000000000000000000000000000000000000000000000000000000000000000800188016345785d8a000083012164823a9880a0000000000000000000000000000000000000000000000000000000000000000088000000000000000007a02aef4d3e6939af0b4bf4c0e7572a214eb7db9ba52937e1e82ad6c64b52d2e8bb8080a06c31fc15422ebad28aaf9089c306702f67540b53c7eea8b7d2941044b027100ff885f8838085e8d4a510008303d0908080b86a60618060095f395ff33373fffffffffffffffffffffffffffffffffffffffe14604d57602036146024575f5ffd5b5f35801560495762001fff810690815414603c575f5ffd5b62001fff01545f5260205ff35b5f5ffd5b62001fff42064281555f359062001fff0155001b820539851b9b6eb1f0c0f2d8808094000f3df6d732807ef1319fb7b8bb8522d0beac0201d8010194fffffffffffffffffffffffffffffffffffffffe01",
                "blockHeader": {
                    "parentHash": "0x7d78488cdb2d75f66cea94a95b23c5c4764ad9247775508f3a75308447b1ced8",
                    "uncleHash": "0x1dcc4de8dec75d7aab85b567b6ccd41ad312451b948a7413f0a142fd40d49347",
                    "coinbase": "0x2adc25665018aa1fe0e6bc666dac8fc2697ff9ba",
                    "stateRoot": "0xb2bc88d6f6337f6097ac76a43fc6e1a2aad390c4d8e80419455dd826e35647ae",
                    "transactionsTrie": "0xd87da2b23fc7bbfa7e2994ee830e73325af892d036e2e5d90d9f17ff2dd41d9d",
                    "receiptTrie": "0xd5caddb93c844bd1c4a6364ec17b3f09afea9b2f335d8aba110ef6b0c9d9bfeb",
                    "bloom": "0x00000000000000000000000000000000000000000000000000000000000000000000000000000000000000000000000000000000000000000000000000000000000000000000000000000000000000000000000000000000000000000000000000000000000000000000000000000000000000000000000000000000000000000000000000000000000000000000000000000000000000000000000000000000000000000000000000000000000000000000000000000000000000000000000000000000000000000000000000000000000000000000000000000000000000000000000000000000000000000000000000000000000000000000000000000000",
                    "difficulty": "0x00",
                    "number": "0x01",
                    "gasLimit": "0x016345785d8a0000",
                    "gasUsed": "0x012164",
                    "timestamp": "0x3a98",
                    "extraData": "0x",
                    "mixHash": "0x0000000000000000000000000000000000000000000000000000000000000000",
                    "nonce": "0x0000000000000000",
                    "baseFeePerGas": "0x07",
                    "withdrawalsRoot": "0x2aef4d3e6939af0b4bf4c0e7572a214eb7db9ba52937e1e82ad6c64b52d2e8bb",
                    "blobGasUsed": "0x00",
                    "excessBlobGas": "0x00",
                    "parentBeaconBlockRoot": "0x6c31fc15422ebad28aaf9089c306702f67540b53c7eea8b7d2941044b027100f",
                    "hash": "0xb00548c52e692561d8829350e2a92e7e5d42049bb8002eb90482af52a92b99ef"
                },
                "blocknumber": "1",
                "transactions": [
                    {
                        "type": "0x00",
                        "chainId": "0x01",
                        "nonce": "0x00",
                        "gasPrice": "0xe8d4a51000",
                        "gasLimit": "0x03d090",
                        "to": "",
                        "value": "0x00",
                        "data": "0x60618060095f395ff33373fffffffffffffffffffffffffffffffffffffffe14604d57602036146024575f5ffd5b5f35801560495762001fff810690815414603c575f5ffd5b62001fff01545f5260205ff35b5f5ffd5b62001fff42064281555f359062001fff015500",
                        "v": "0x1b",
                        "r": "0x0539",
                        "s": "0x1b9b6eb1f0",
                        "sender": "0x0b799c86a49deeb90402691f1041aa3af2d3c875"
                    }
                ],
                "uncleHeaders": [],
                "withdrawals": [
                    {
                        "index": "0x00",
                        "validatorIndex": "0x00",
                        "address": "0x000f3df6d732807ef1319fb7b8bb8522d0beac02",
                        "amount": "0x01"
                    },
                    {
                        "index": "0x01",
                        "validatorIndex": "0x01",
                        "address": "0xfffffffffffffffffffffffffffffffffffffffe",
                        "amount": "0x01"
                    }
                ]
            },
            {
                "rlp": "0xf90300f9023fa0b00548c52e692561d8829350e2a92e7e5d42049bb8002eb90482af52a92b99efa01dcc4de8dec75d7aab85b567b6ccd41ad312451b948a7413f0a142fd40d49347942adc25665018aa1fe0e6bc666dac8fc2697ff9baa0685fa25415c775ddd60a0b2fbc72e1d0547b2fb52e2e6394e1a98029867fc794a0387f60e7f39304df7b59884c5a0bbeafe3929a243a91902599d2dca0ff76ee63a01ccaf316c85ab72468f194a8a6bf7f7cac5730696d7dd3a5dc298fac47cfe273b9010000000000000000000000000000000000000000000000000000000000000000000000000000000000000000000000000000000000000000000000000000000000000000000000000000000000000000000000000000000000000000000000000000000000000000000000000000000000000000000000000000000000000000000000000000000000000000000000000000000000000000000000000000000000000000000000000000000000000000000000000000000000000000000000000000000000000000000000000000000000000000000000000000000000000000000000000000000000000000000000000000000000000000000000000000000000800288016345785d8a00008301c74882753080a0000000000000000000000000000000000000000000000000000000000000000088000000000000000007a0d21739e00fbe6b25846bb8079ed6fd6533baa1e8b127b158f651ae16edac1f108080a06c31fc15422ebad28aaf9089c306702f67540b53c7eea8b7d2941044b027100ff888b88602f88301808007830f424094000000000000000000000000000000000000010080a00000000000000000000000000000000000000000000000000000000000007530c001a0be320ea113ae1b3a5c09485a35a9d82454abf7fb845b7965ae9157b70bd6f05aa02c123e499090d51f5aa922637d22f81ddb4fcd9696f4837e3b62d3af7944264cc0f2d8028094000f3df6d732807ef1319fb7b8bb8522d0beac0201d8030194fffffffffffffffffffffffffffffffffffffffe01",
                "blockHeader": {
                    "parentHash": "0xb00548c52e692561d8829350e2a92e7e5d42049bb8002eb90482af52a92b99ef",
                    "uncleHash": "0x1dcc4de8dec75d7aab85b567b6ccd41ad312451b948a7413f0a142fd40d49347",
                    "coinbase": "0x2adc25665018aa1fe0e6bc666dac8fc2697ff9ba",
                    "stateRoot": "0x685fa25415c775ddd60a0b2fbc72e1d0547b2fb52e2e6394e1a98029867fc794",
                    "transactionsTrie": "0x387f60e7f39304df7b59884c5a0bbeafe3929a243a91902599d2dca0ff76ee63",
                    "receiptTrie": "0x1ccaf316c85ab72468f194a8a6bf7f7cac5730696d7dd3a5dc298fac47cfe273",
                    "bloom": "0x00000000000000000000000000000000000000000000000000000000000000000000000000000000000000000000000000000000000000000000000000000000000000000000000000000000000000000000000000000000000000000000000000000000000000000000000000000000000000000000000000000000000000000000000000000000000000000000000000000000000000000000000000000000000000000000000000000000000000000000000000000000000000000000000000000000000000000000000000000000000000000000000000000000000000000000000000000000000000000000000000000000000000000000000000000000",
                    "difficulty": "0x00",
                    "number": "0x02",
                    "gasLimit": "0x016345785d8a0000",
                    "gasUsed": "0x01c748",
                    "timestamp": "0x7530",
                    "extraData": "0x",
                    "mixHash": "0x0000000000000000000000000000000000000000000000000000000000000000",
                    "nonce": "0x0000000000000000",
                    "baseFeePerGas": "0x07",
                    "withdrawalsRoot": "0xd21739e00fbe6b25846bb8079ed6fd6533baa1e8b127b158f651ae16edac1f10",
                    "blobGasUsed": "0x00",
                    "excessBlobGas": "0x00",
                    "parentBeaconBlockRoot": "0x6c31fc15422ebad28aaf9089c306702f67540b53c7eea8b7d2941044b027100f",
                    "hash": "0xe13ca7335d94aa20d689029625668f308fe76fdc0bde59e3de47a9e5256bb250"
                },
                "blocknumber": "2",
                "transactions": [
                    {
                        "type": "0x02",
                        "chainId": "0x01",
                        "nonce": "0x00",
                        "maxPriorityFeePerGas": "0x00",
                        "maxFeePerGas": "0x07",
                        "gasLimit": "0x0f4240",
                        "to": "0x0000000000000000000000000000000000000100",
                        "value": "0x00",
                        "data": "0x0000000000000000000000000000000000000000000000000000000000007530",
                        "accessList": [],
                        "v": "0x01",
                        "r": "0xbe320ea113ae1b3a5c09485a35a9d82454abf7fb845b7965ae9157b70bd6f05a",
                        "s": "0x2c123e499090d51f5aa922637d22f81ddb4fcd9696f4837e3b62d3af7944264c",
                        "sender": "0xa94f5374fce5edbc8e2a8697c15331677e6ebf0b"
                    }
                ],
                "uncleHeaders": [],
                "withdrawals": [
                    {
                        "index": "0x02",
                        "validatorIndex": "0x00",
                        "address": "0x000f3df6d732807ef1319fb7b8bb8522d0beac02",
                        "amount": "0x01"
                    },
                    {
                        "index": "0x03",
                        "validatorIndex": "0x01",
                        "address": "0xfffffffffffffffffffffffffffffffffffffffe",
                        "amount": "0x01"
                    }
                ]
            }
        ],
        "lastblockhash": "0xe13ca7335d94aa20d689029625668f308fe76fdc0bde59e3de47a9e5256bb250",
        "pre": {
            "0x0000000000000000000000000000000000000100": {
                "nonce": "0x00",
                "balance": "0x010000000000",
                "code": "0x366000602037602060003660206000720f3df6d732807ef1319fb7b8bb8522d0beac02620186a0f16000556000516001553d6002553d600060003e600051600355",
                "storage": {}
            },
            "0x000f3df6d732807ef1319fb7b8bb8522d0beac02": {
                "nonce": "0x00",
                "balance": "0x00",
                "code": "0x",
                "storage": {}
            },
            "0x0b799c86a49deeb90402691f1041aa3af2d3c875": {
                "nonce": "0x00",
                "balance": "0x03782dace9d90000",
                "code": "0x",
                "storage": {}
            },
            "0xa94f5374fce5edbc8e2a8697c15331677e6ebf0b": {
                "nonce": "0x00",
                "balance": "0x010000000000",
                "code": "0x",
                "storage": {}
            }
        },
        "postState": {
            "0x0000000000000000000000000000000000000100": {
                "nonce": "0x00",
                "balance": "0x010000000000",
                "code": "0x366000602037602060003660206000720f3df6d732807ef1319fb7b8bb8522d0beac02620186a0f16000556000516001553d6002553d600060003e600051600355",
                "storage": {
                    "0x00": "0x01",
                    "0x01": "0x6c31fc15422ebad28aaf9089c306702f67540b53c7eea8b7d2941044b027100f",
                    "0x02": "0x20",
                    "0x03": "0x6c31fc15422ebad28aaf9089c306702f67540b53c7eea8b7d2941044b027100f"
                }
            },
            "0x000f3df6d732807ef1319fb7b8bb8522d0beac02": {
                "nonce": "0x01",
                "balance": "0x77359400",
                "code": "0x3373fffffffffffffffffffffffffffffffffffffffe14604d57602036146024575f5ffd5b5f35801560495762001fff810690815414603c575f5ffd5b62001fff01545f5260205ff35b5f5ffd5b62001fff42064281555f359062001fff015500",
                "storage": {
                    "0x1533": "0x7530",
                    "0x3532": "0x6c31fc15422ebad28aaf9089c306702f67540b53c7eea8b7d2941044b027100f"
                }
            },
            "0x0b799c86a49deeb90402691f1041aa3af2d3c875": {
                "nonce": "0x01",
                "balance": "0x0270faab824ec000",
                "code": "0x",
                "storage": {}
            },
            "0x2adc25665018aa1fe0e6bc666dac8fc2697ff9ba": {
                "nonce": "0x00",
                "balance": "0x0107330167825644",
                "code": "0x",
                "storage": {}
            },
            "0xa94f5374fce5edbc8e2a8697c15331677e6ebf0b": {
                "nonce": "0x01",
                "balance": "0xfffff38d08",
                "code": "0x",
                "storage": {}
            },
            "0xfffffffffffffffffffffffffffffffffffffffe": {
                "nonce": "0x00",
                "balance": "0x77359400",
                "code": "0x",
                "storage": {}
            }
        },
        "sealEngine": "NoProof"
    }
}