{
    "000-fork=ShanghaiToCancunAtTime15k-deploy_on_shanghai": {
        "_info": {
            "filling-transition-tool": "evm version 1.13.0-unstable-b1a1675c-20230912",
            "reference-spec": "https://github.com/ethereum/EIPs/blob/master/EIPS/eip-4788.md",
            "reference-spec-version": "e7608fe8ac8a60934ca874f5aab7d5c1f4ff7782"
        },
        "blocks": [
            {
                "rlp": "0xf902d7f9021ca00bcc0dc7aa46ea51225b9d3c2b685f10139601707004c36825633e0011727a94a01dcc4de8dec75d7aab85b567b6ccd41ad312451b948a7413f0a142fd40d49347942adc25665018aa1fe0e6bc666dac8fc2697ff9baa0429e080460b806e927adbdff9276422ec7f4e5e8b3781ec4dd82e5816f576fe8a030d0bb90c2b36900af99b8c5f6f9c9997c018bc1556592afef14fc433a9b449aa075fa3800bcf7dd848f86691ec3558f7161f85f6b78bbb4e85c8425374dfdae1bb9010000000000000000000000000000000000000000000000000000000000000000000000000000000000000000000000000000000000000000000000000000000000000000000000000000000000000000000000000000000000000000000000000000000000000000000000000000000000000000000000000000000000000000000000000000000000000000000000000000000000000000000000000000000000000000000000000000000000000000000000000000000000000000000000000000000000000000000000000000000000000000000000000000000000000000000000000000000000000000000000000000000000000000000000000000000000800188016345785d8a0000830119c6821d4c80a0000000000000000000000000000000000000000000000000000000000000000088000000000000000007a017e12bbb1615dbb58429e8bbf7696cc719a70f832033a6aa3747d7e5dc08c19cf882f8808085e8d4a5100083027eac8080b86160588060095f395ff33373fffffffffffffffffffffffffffffffffffffffe14604457602036146024575f5ffd5b620180005f350680545f35146037575f5ffd5b6201800001545f5260205ff35b6201800042064281555f3590620180000155001b8205398b133700f3a77843802897dbc0f2d8808094beac00ddb15f3b6d645c48263dc93862413a222d01d8010194fffffffffffffffffffffffffffffffffffffffe01",
                "blockHeader": {
                    "parentHash": "0x0bcc0dc7aa46ea51225b9d3c2b685f10139601707004c36825633e0011727a94",
                    "uncleHash": "0x1dcc4de8dec75d7aab85b567b6ccd41ad312451b948a7413f0a142fd40d49347",
                    "coinbase": "0x2adc25665018aa1fe0e6bc666dac8fc2697ff9ba",
                    "stateRoot": "0x429e080460b806e927adbdff9276422ec7f4e5e8b3781ec4dd82e5816f576fe8",
                    "transactionsTrie": "0x30d0bb90c2b36900af99b8c5f6f9c9997c018bc1556592afef14fc433a9b449a",
                    "receiptTrie": "0x75fa3800bcf7dd848f86691ec3558f7161f85f6b78bbb4e85c8425374dfdae1b",
                    "bloom": "0x00000000000000000000000000000000000000000000000000000000000000000000000000000000000000000000000000000000000000000000000000000000000000000000000000000000000000000000000000000000000000000000000000000000000000000000000000000000000000000000000000000000000000000000000000000000000000000000000000000000000000000000000000000000000000000000000000000000000000000000000000000000000000000000000000000000000000000000000000000000000000000000000000000000000000000000000000000000000000000000000000000000000000000000000000000000",
                    "difficulty": "0x00",
                    "number": "0x01",
                    "gasLimit": "0x016345785d8a0000",
                    "gasUsed": "0x0119c6",
                    "timestamp": "0x1d4c",
                    "extraData": "0x",
                    "mixHash": "0x0000000000000000000000000000000000000000000000000000000000000000",
                    "nonce": "0x0000000000000000",
                    "baseFeePerGas": "0x07",
                    "withdrawalsRoot": "0x17e12bbb1615dbb58429e8bbf7696cc719a70f832033a6aa3747d7e5dc08c19c",
                    "hash": "0x9a7c6cce2da786663f969e3f4310e2b1932a8be60d6bff41851d9974917728f0"
                },
                "engineNewPayload": {
                    "executionPayload": {
                        "parentHash": "0x0bcc0dc7aa46ea51225b9d3c2b685f10139601707004c36825633e0011727a94",
                        "feeRecipient": "0x2adc25665018aa1fe0e6bc666dac8fc2697ff9ba",
                        "stateRoot": "0x429e080460b806e927adbdff9276422ec7f4e5e8b3781ec4dd82e5816f576fe8",
                        "receiptsRoot": "0x75fa3800bcf7dd848f86691ec3558f7161f85f6b78bbb4e85c8425374dfdae1b",
                        "logsBloom": "0x00000000000000000000000000000000000000000000000000000000000000000000000000000000000000000000000000000000000000000000000000000000000000000000000000000000000000000000000000000000000000000000000000000000000000000000000000000000000000000000000000000000000000000000000000000000000000000000000000000000000000000000000000000000000000000000000000000000000000000000000000000000000000000000000000000000000000000000000000000000000000000000000000000000000000000000000000000000000000000000000000000000000000000000000000000000",
                        "blockNumber": "0x1",
                        "gasLimit": "0x16345785d8a0000",
                        "gasUsed": "0x119c6",
                        "timestamp": "0x1d4c",
                        "extraData": "0x",
                        "prevRandao": "0x0000000000000000000000000000000000000000000000000000000000000000",
                        "baseFeePerGas": "0x7",
                        "blockHash": "0x9a7c6cce2da786663f969e3f4310e2b1932a8be60d6bff41851d9974917728f0",
                        "transactions": [
                            "0xf8808085e8d4a5100083027eac8080b86160588060095f395ff33373fffffffffffffffffffffffffffffffffffffffe14604457602036146024575f5ffd5b620180005f350680545f35146037575f5ffd5b6201800001545f5260205ff35b6201800042064281555f3590620180000155001b8205398b133700f3a77843802897db"
                        ],
                        "withdrawals": [
                            {
                                "index": "0x0",
                                "validatorIndex": "0x0",
                                "address": "0xbeac00ddb15f3b6d645c48263dc93862413a222d",
                                "amount": "0x1"
                            },
                            {
                                "index": "0x1",
                                "validatorIndex": "0x1",
                                "address": "0xfffffffffffffffffffffffffffffffffffffffe",
                                "amount": "0x1"
                            }
                        ]
                    },
                    "version": "2"
                },
                "blocknumber": "1",
                "transactions": [
                    {
                        "type": "0x00",
                        "chainId": "0x01",
                        "nonce": "0x00",
                        "gasPrice": "0xe8d4a51000",
                        "gasLimit": "0x027eac",
                        "to": "",
                        "value": "0x00",
                        "data": "0x60588060095f395ff33373fffffffffffffffffffffffffffffffffffffffe14604457602036146024575f5ffd5b620180005f350680545f35146037575f5ffd5b6201800001545f5260205ff35b6201800042064281555f359062018000015500",
                        "v": "0x1b",
                        "r": "0x0539",
                        "s": "0x133700f3a77843802897db",
                        "sender": "0x3e266d3c3a70c238bdddafef1ba06fbd58958d70"
                    }
                ],
                "uncleHeaders": [],
                "withdrawals": [
                    {
                        "index": "0x00",
                        "validatorIndex": "0x00",
                        "address": "0xbeac00ddb15f3b6d645c48263dc93862413a222d",
                        "amount": "0x01"
                    },
                    {
                        "index": "0x01",
                        "validatorIndex": "0x01",
                        "address": "0xfffffffffffffffffffffffffffffffffffffffe",
                        "amount": "0x01"
                    }
                ]
            },
            {
                "rlp": "0xf90300f9023fa09a7c6cce2da786663f969e3f4310e2b1932a8be60d6bff41851d9974917728f0a01dcc4de8dec75d7aab85b567b6ccd41ad312451b948a7413f0a142fd40d49347942adc25665018aa1fe0e6bc666dac8fc2697ff9baa0690b3e10b1c9310984929d828620a356d702542d0cced757950885a0194b08f8a064491dfba31aa11099c81e1c7c95f0818b4f927d4b3552143a25ea44512fe125a050b17ddc667987b8eb7e2ee715da195e6349d9f70909bab1fa57909fd6f8947ab9010000000000000000000000000000000000000000000000000000000000000000000000000000000000000000000000000000000000000000000000000000000000000000000000000000000000000000000000000000000000000000000000000000000000000000000000000000000000000000000000000000000000000000000000000000000000000000000000000000000000000000000000000000000000000000000000000000000000000000000000000000000000000000000000000000000000000000000000000000000000000000000000000000000000000000000000000000000000000000000000000000000000000000000000000000000000800288016345785d8a00008301c734823a9880a0000000000000000000000000000000000000000000000000000000000000000088000000000000000007a0cc9f7b64e70199c60f6f3a377a150895403ff41fec4dec288fb72234400fae1d8080a06c31fc15422ebad28aaf9089c306702f67540b53c7eea8b7d2941044b027100ff888b88602f88301808007830f424094000000000000000000000000000000000000010080a00000000000000000000000000000000000000000000000000000000000003a98c001a0faa933f2812dcf366269cdad3b8bdbf6d293fe5dcd0d3313089d619e99b77c2ea0541ff2b494d5a6856ee685c0647a47b60a6eb7823dd0b72c74123ea33f0e4e41c0f2d8028094beac00ddb15f3b6d645c48263dc93862413a222d01d8030194fffffffffffffffffffffffffffffffffffffffe01",
                "blockHeader": {
                    "parentHash": "0x9a7c6cce2da786663f969e3f4310e2b1932a8be60d6bff41851d9974917728f0",
                    "uncleHash": "0x1dcc4de8dec75d7aab85b567b6ccd41ad312451b948a7413f0a142fd40d49347",
                    "coinbase": "0x2adc25665018aa1fe0e6bc666dac8fc2697ff9ba",
                    "stateRoot": "0x690b3e10b1c9310984929d828620a356d702542d0cced757950885a0194b08f8",
                    "transactionsTrie": "0x64491dfba31aa11099c81e1c7c95f0818b4f927d4b3552143a25ea44512fe125",
                    "receiptTrie": "0x50b17ddc667987b8eb7e2ee715da195e6349d9f70909bab1fa57909fd6f8947a",
                    "bloom": "0x00000000000000000000000000000000000000000000000000000000000000000000000000000000000000000000000000000000000000000000000000000000000000000000000000000000000000000000000000000000000000000000000000000000000000000000000000000000000000000000000000000000000000000000000000000000000000000000000000000000000000000000000000000000000000000000000000000000000000000000000000000000000000000000000000000000000000000000000000000000000000000000000000000000000000000000000000000000000000000000000000000000000000000000000000000000",
                    "difficulty": "0x00",
                    "number": "0x02",
                    "gasLimit": "0x016345785d8a0000",
                    "gasUsed": "0x01c734",
                    "timestamp": "0x3a98",
                    "extraData": "0x",
                    "mixHash": "0x0000000000000000000000000000000000000000000000000000000000000000",
                    "nonce": "0x0000000000000000",
                    "baseFeePerGas": "0x07",
                    "withdrawalsRoot": "0xcc9f7b64e70199c60f6f3a377a150895403ff41fec4dec288fb72234400fae1d",
                    "blobGasUsed": "0x00",
                    "excessBlobGas": "0x00",
                    "parentBeaconBlockRoot": "0x6c31fc15422ebad28aaf9089c306702f67540b53c7eea8b7d2941044b027100f",
                    "hash": "0x8268192ccc0bc450f1102eccc9b6ec6695ca4b645490787bebe08845de8e454b"
                },
                "engineNewPayload": {
                    "executionPayload": {
                        "parentHash": "0x9a7c6cce2da786663f969e3f4310e2b1932a8be60d6bff41851d9974917728f0",
                        "feeRecipient": "0x2adc25665018aa1fe0e6bc666dac8fc2697ff9ba",
                        "stateRoot": "0x690b3e10b1c9310984929d828620a356d702542d0cced757950885a0194b08f8",
                        "receiptsRoot": "0x50b17ddc667987b8eb7e2ee715da195e6349d9f70909bab1fa57909fd6f8947a",
                        "logsBloom": "0x00000000000000000000000000000000000000000000000000000000000000000000000000000000000000000000000000000000000000000000000000000000000000000000000000000000000000000000000000000000000000000000000000000000000000000000000000000000000000000000000000000000000000000000000000000000000000000000000000000000000000000000000000000000000000000000000000000000000000000000000000000000000000000000000000000000000000000000000000000000000000000000000000000000000000000000000000000000000000000000000000000000000000000000000000000000",
                        "blockNumber": "0x2",
                        "gasLimit": "0x16345785d8a0000",
                        "gasUsed": "0x1c734",
                        "timestamp": "0x3a98",
                        "extraData": "0x",
                        "prevRandao": "0x0000000000000000000000000000000000000000000000000000000000000000",
                        "baseFeePerGas": "0x7",
                        "blobGasUsed": "0x0",
                        "excessBlobGas": "0x0",
                        "blockHash": "0x8268192ccc0bc450f1102eccc9b6ec6695ca4b645490787bebe08845de8e454b",
                        "transactions": [
                            "0x02f88301808007830f424094000000000000000000000000000000000000010080a00000000000000000000000000000000000000000000000000000000000003a98c001a0faa933f2812dcf366269cdad3b8bdbf6d293fe5dcd0d3313089d619e99b77c2ea0541ff2b494d5a6856ee685c0647a47b60a6eb7823dd0b72c74123ea33f0e4e41"
                        ],
                        "withdrawals": [
                            {
                                "index": "0x2",
                                "validatorIndex": "0x0",
                                "address": "0xbeac00ddb15f3b6d645c48263dc93862413a222d",
                                "amount": "0x1"
                            },
                            {
                                "index": "0x3",
                                "validatorIndex": "0x1",
                                "address": "0xfffffffffffffffffffffffffffffffffffffffe",
                                "amount": "0x1"
                            }
                        ]
                    },
                    "expectedBlobVersionedHashes": [],
                    "version": "3",
                    "parentBeaconBlockRoot": "0x6c31fc15422ebad28aaf9089c306702f67540b53c7eea8b7d2941044b027100f"
                },
                "blocknumber": "2",
                "transactions": [
                    {
                        "type": "0x02",
                        "chainId": "0x01",
                        "nonce": "0x00",
                        "maxPriorityFeePerGas": "0x00",
                        "maxFeePerGas": "0x07",
                        "gasLimit": "0x0f4240",
                        "to": "0x0000000000000000000000000000000000000100",
                        "value": "0x00",
                        "data": "0x0000000000000000000000000000000000000000000000000000000000003a98",
                        "accessList": [],
                        "v": "0x01",
                        "r": "0xfaa933f2812dcf366269cdad3b8bdbf6d293fe5dcd0d3313089d619e99b77c2e",
                        "s": "0x541ff2b494d5a6856ee685c0647a47b60a6eb7823dd0b72c74123ea33f0e4e41",
                        "sender": "0xa94f5374fce5edbc8e2a8697c15331677e6ebf0b"
                    }
                ],
                "uncleHeaders": [],
                "withdrawals": [
                    {
                        "index": "0x02",
                        "validatorIndex": "0x00",
                        "address": "0xbeac00ddb15f3b6d645c48263dc93862413a222d",
                        "amount": "0x01"
                    },
                    {
                        "index": "0x03",
                        "validatorIndex": "0x01",
                        "address": "0xfffffffffffffffffffffffffffffffffffffffe",
                        "amount": "0x01"
                    }
                ]
            }
        ],
        "genesisBlockHeader": {
            "parentHash": "0x0000000000000000000000000000000000000000000000000000000000000000",
            "uncleHash": "0x1dcc4de8dec75d7aab85b567b6ccd41ad312451b948a7413f0a142fd40d49347",
            "coinbase": "0x0000000000000000000000000000000000000000",
            "stateRoot": "0xa0d70e0219a7436f4e22b1c11f441bfc4065ae56565378c7435bcf19a014ed46",
            "transactionsTrie": "0x56e81f171bcc55a6ff8345e692c0f86e5b48e01b996cadc001622fb5e363b421",
            "receiptTrie": "0x56e81f171bcc55a6ff8345e692c0f86e5b48e01b996cadc001622fb5e363b421",
            "bloom": "0x00000000000000000000000000000000000000000000000000000000000000000000000000000000000000000000000000000000000000000000000000000000000000000000000000000000000000000000000000000000000000000000000000000000000000000000000000000000000000000000000000000000000000000000000000000000000000000000000000000000000000000000000000000000000000000000000000000000000000000000000000000000000000000000000000000000000000000000000000000000000000000000000000000000000000000000000000000000000000000000000000000000000000000000000000000000",
            "difficulty": "0x00",
            "number": "0x00",
            "gasLimit": "0x016345785d8a0000",
            "gasUsed": "0x00",
            "timestamp": "0x00",
            "extraData": "0x00",
            "mixHash": "0x0000000000000000000000000000000000000000000000000000000000000000",
            "nonce": "0x0000000000000000",
            "baseFeePerGas": "0x07",
            "withdrawalsRoot": "0x56e81f171bcc55a6ff8345e692c0f86e5b48e01b996cadc001622fb5e363b421",
            "hash": "0x0bcc0dc7aa46ea51225b9d3c2b685f10139601707004c36825633e0011727a94"
        },
        "genesisRLP": "0xf9021df90217a00000000000000000000000000000000000000000000000000000000000000000a01dcc4de8dec75d7aab85b567b6ccd41ad312451b948a7413f0a142fd40d49347940000000000000000000000000000000000000000a0a0d70e0219a7436f4e22b1c11f441bfc4065ae56565378c7435bcf19a014ed46a056e81f171bcc55a6ff8345e692c0f86e5b48e01b996cadc001622fb5e363b421a056e81f171bcc55a6ff8345e692c0f86e5b48e01b996cadc001622fb5e363b421b9010000000000000000000000000000000000000000000000000000000000000000000000000000000000000000000000000000000000000000000000000000000000000000000000000000000000000000000000000000000000000000000000000000000000000000000000000000000000000000000000000000000000000000000000000000000000000000000000000000000000000000000000000000000000000000000000000000000000000000000000000000000000000000000000000000000000000000000000000000000000000000000000000000000000000000000000000000000000000000000000000000000000000000000000000000000000808088016345785d8a0000808000a0000000000000000000000000000000000000000000000000000000000000000088000000000000000007a056e81f171bcc55a6ff8345e692c0f86e5b48e01b996cadc001622fb5e363b421c0c0c0",
        "lastblockhash": "0x8268192ccc0bc450f1102eccc9b6ec6695ca4b645490787bebe08845de8e454b",
        "network": "ShanghaiToCancunAtTime15k",
        "pre": {
            "0x0000000000000000000000000000000000000100": {
                "nonce": "0x00",
                "balance": "0x010000000000",
                "code": "0x36600060203760206000366020600073beac00ddb15f3b6d645c48263dc93862413a222d620186a0f16000556000516001553d6002553d600060003e600051600355",
                "storage": {}
            },
            "0x3e266d3c3a70c238bdddafef1ba06fbd58958d70": {
                "nonce": "0x00",
                "balance": "0x0244de623cc6c000",
                "code": "0x",
                "storage": {}
            },
            "0xa94f5374fce5edbc8e2a8697c15331677e6ebf0b": {
                "nonce": "0x00",
                "balance": "0x010000000000",
                "code": "0x",
                "storage": {}
            },
            "0xbeac00ddb15f3b6d645c48263dc93862413a222d": {
                "nonce": "0x00",
                "balance": "0x00",
                "code": "0x",
                "storage": {}
            },
            "0xfffffffffffffffffffffffffffffffffffffffe": {
                "nonce": "0x00",
                "balance": "0x00",
                "code": "0x",
                "storage": {}
            }
        },
        "postState": {
            "0x0000000000000000000000000000000000000100": {
                "nonce": "0x00",
                "balance": "0x010000000000",
                "code": "0x36600060203760206000366020600073beac00ddb15f3b6d645c48263dc93862413a222d620186a0f16000556000516001553d6002553d600060003e600051600355",
                "storage": {
                    "0x00": "0x01",
                    "0x01": "0x6c31fc15422ebad28aaf9089c306702f67540b53c7eea8b7d2941044b027100f",
                    "0x02": "0x20",
                    "0x03": "0x6c31fc15422ebad28aaf9089c306702f67540b53c7eea8b7d2941044b027100f"
                }
            },
            "0x2adc25665018aa1fe0e6bc666dac8fc2697ff9ba": {
                "nonce": "0x00",
                "balance": "0x0100457da632ab96",
                "code": "0x",
                "storage": {}
            },
            "0x3e266d3c3a70c238bdddafef1ba06fbd58958d70": {
                "nonce": "0x01",
                "balance": "0x014498e4968c6000",
                "code": "0x",
                "storage": {}
            },
            "0xa94f5374fce5edbc8e2a8697c15331677e6ebf0b": {
                "nonce": "0x01",
                "balance": "0xfffff38d94",
                "code": "0x",
                "storage": {}
            },
            "0xbeac00ddb15f3b6d645c48263dc93862413a222d": {
                "nonce": "0x01",
                "balance": "0x77359400",
                "code": "0x3373fffffffffffffffffffffffffffffffffffffffe14604457602036146024575f5ffd5b620180005f350680545f35146037575f5ffd5b6201800001545f5260205ff35b6201800042064281555f359062018000015500",
                "storage": {
                    "0x3a98": "0x3a98",
                    "0x01ba98": "0x6c31fc15422ebad28aaf9089c306702f67540b53c7eea8b7d2941044b027100f"
                }
            },
            "0xfffffffffffffffffffffffffffffffffffffffe": {
                "nonce": "0x00",
                "balance": "0x77359400",
                "code": "0x",
                "storage": {}
            }
        },
        "sealEngine": "NoProof"
    },
    "001-fork=ShanghaiToCancunAtTime15k-deploy_on_cancun": {
        "_info": {
            "filling-transition-tool": "evm version 1.13.0-unstable-b1a1675c-20230912",
            "reference-spec": "https://github.com/ethereum/EIPs/blob/master/EIPS/eip-4788.md",
            "reference-spec-version": "e7608fe8ac8a60934ca874f5aab7d5c1f4ff7782"
        },
        "blocks": [
            {
                "rlp": "0xf902faf9023fa00bcc0dc7aa46ea51225b9d3c2b685f10139601707004c36825633e0011727a94a01dcc4de8dec75d7aab85b567b6ccd41ad312451b948a7413f0a142fd40d49347942adc25665018aa1fe0e6bc666dac8fc2697ff9baa0429e080460b806e927adbdff9276422ec7f4e5e8b3781ec4dd82e5816f576fe8a030d0bb90c2b36900af99b8c5f6f9c9997c018bc1556592afef14fc433a9b449aa075fa3800bcf7dd848f86691ec3558f7161f85f6b78bbb4e85c8425374dfdae1bb9010000000000000000000000000000000000000000000000000000000000000000000000000000000000000000000000000000000000000000000000000000000000000000000000000000000000000000000000000000000000000000000000000000000000000000000000000000000000000000000000000000000000000000000000000000000000000000000000000000000000000000000000000000000000000000000000000000000000000000000000000000000000000000000000000000000000000000000000000000000000000000000000000000000000000000000000000000000000000000000000000000000000000000000000000000000000800188016345785d8a0000830119c6823a9880a0000000000000000000000000000000000000000000000000000000000000000088000000000000000007a017e12bbb1615dbb58429e8bbf7696cc719a70f832033a6aa3747d7e5dc08c19c8080a06c31fc15422ebad28aaf9089c306702f67540b53c7eea8b7d2941044b027100ff882f8808085e8d4a5100083027eac8080b86160588060095f395ff33373fffffffffffffffffffffffffffffffffffffffe14604457602036146024575f5ffd5b620180005f350680545f35146037575f5ffd5b6201800001545f5260205ff35b6201800042064281555f3590620180000155001b8205398b133700f3a77843802897dbc0f2d8808094beac00ddb15f3b6d645c48263dc93862413a222d01d8010194fffffffffffffffffffffffffffffffffffffffe01",
                "blockHeader": {
                    "parentHash": "0x0bcc0dc7aa46ea51225b9d3c2b685f10139601707004c36825633e0011727a94",
                    "uncleHash": "0x1dcc4de8dec75d7aab85b567b6ccd41ad312451b948a7413f0a142fd40d49347",
                    "coinbase": "0x2adc25665018aa1fe0e6bc666dac8fc2697ff9ba",
                    "stateRoot": "0x429e080460b806e927adbdff9276422ec7f4e5e8b3781ec4dd82e5816f576fe8",
                    "transactionsTrie": "0x30d0bb90c2b36900af99b8c5f6f9c9997c018bc1556592afef14fc433a9b449a",
                    "receiptTrie": "0x75fa3800bcf7dd848f86691ec3558f7161f85f6b78bbb4e85c8425374dfdae1b",
                    "bloom": "0x00000000000000000000000000000000000000000000000000000000000000000000000000000000000000000000000000000000000000000000000000000000000000000000000000000000000000000000000000000000000000000000000000000000000000000000000000000000000000000000000000000000000000000000000000000000000000000000000000000000000000000000000000000000000000000000000000000000000000000000000000000000000000000000000000000000000000000000000000000000000000000000000000000000000000000000000000000000000000000000000000000000000000000000000000000000",
                    "difficulty": "0x00",
                    "number": "0x01",
                    "gasLimit": "0x016345785d8a0000",
                    "gasUsed": "0x0119c6",
                    "timestamp": "0x3a98",
                    "extraData": "0x",
                    "mixHash": "0x0000000000000000000000000000000000000000000000000000000000000000",
                    "nonce": "0x0000000000000000",
                    "baseFeePerGas": "0x07",
                    "withdrawalsRoot": "0x17e12bbb1615dbb58429e8bbf7696cc719a70f832033a6aa3747d7e5dc08c19c",
                    "blobGasUsed": "0x00",
                    "excessBlobGas": "0x00",
                    "parentBeaconBlockRoot": "0x6c31fc15422ebad28aaf9089c306702f67540b53c7eea8b7d2941044b027100f",
                    "hash": "0x314eb39fad34c4c7f090d9b6a8338bc12314b3447ee408f609caaa9a3bd3fe2e"
                },
                "engineNewPayload": {
                    "executionPayload": {
                        "parentHash": "0x0bcc0dc7aa46ea51225b9d3c2b685f10139601707004c36825633e0011727a94",
                        "feeRecipient": "0x2adc25665018aa1fe0e6bc666dac8fc2697ff9ba",
                        "stateRoot": "0x429e080460b806e927adbdff9276422ec7f4e5e8b3781ec4dd82e5816f576fe8",
                        "receiptsRoot": "0x75fa3800bcf7dd848f86691ec3558f7161f85f6b78bbb4e85c8425374dfdae1b",
                        "logsBloom": "0x00000000000000000000000000000000000000000000000000000000000000000000000000000000000000000000000000000000000000000000000000000000000000000000000000000000000000000000000000000000000000000000000000000000000000000000000000000000000000000000000000000000000000000000000000000000000000000000000000000000000000000000000000000000000000000000000000000000000000000000000000000000000000000000000000000000000000000000000000000000000000000000000000000000000000000000000000000000000000000000000000000000000000000000000000000000",
                        "blockNumber": "0x1",
                        "gasLimit": "0x16345785d8a0000",
                        "gasUsed": "0x119c6",
                        "timestamp": "0x3a98",
                        "extraData": "0x",
                        "prevRandao": "0x0000000000000000000000000000000000000000000000000000000000000000",
                        "baseFeePerGas": "0x7",
                        "blobGasUsed": "0x0",
                        "excessBlobGas": "0x0",
                        "blockHash": "0x314eb39fad34c4c7f090d9b6a8338bc12314b3447ee408f609caaa9a3bd3fe2e",
                        "transactions": [
                            "0xf8808085e8d4a5100083027eac8080b86160588060095f395ff33373fffffffffffffffffffffffffffffffffffffffe14604457602036146024575f5ffd5b620180005f350680545f35146037575f5ffd5b6201800001545f5260205ff35b6201800042064281555f3590620180000155001b8205398b133700f3a77843802897db"
                        ],
                        "withdrawals": [
                            {
                                "index": "0x0",
                                "validatorIndex": "0x0",
                                "address": "0xbeac00ddb15f3b6d645c48263dc93862413a222d",
                                "amount": "0x1"
                            },
                            {
                                "index": "0x1",
                                "validatorIndex": "0x1",
                                "address": "0xfffffffffffffffffffffffffffffffffffffffe",
                                "amount": "0x1"
                            }
                        ]
                    },
                    "expectedBlobVersionedHashes": [],
                    "version": "3",
                    "parentBeaconBlockRoot": "0x6c31fc15422ebad28aaf9089c306702f67540b53c7eea8b7d2941044b027100f"
                },
                "blocknumber": "1",
                "transactions": [
                    {
                        "type": "0x00",
                        "chainId": "0x01",
                        "nonce": "0x00",
                        "gasPrice": "0xe8d4a51000",
                        "gasLimit": "0x027eac",
                        "to": "",
                        "value": "0x00",
                        "data": "0x60588060095f395ff33373fffffffffffffffffffffffffffffffffffffffe14604457602036146024575f5ffd5b620180005f350680545f35146037575f5ffd5b6201800001545f5260205ff35b6201800042064281555f359062018000015500",
                        "v": "0x1b",
                        "r": "0x0539",
                        "s": "0x133700f3a77843802897db",
                        "sender": "0x3e266d3c3a70c238bdddafef1ba06fbd58958d70"
                    }
                ],
                "uncleHeaders": [],
                "withdrawals": [
                    {
                        "index": "0x00",
                        "validatorIndex": "0x00",
                        "address": "0xbeac00ddb15f3b6d645c48263dc93862413a222d",
                        "amount": "0x01"
                    },
                    {
                        "index": "0x01",
                        "validatorIndex": "0x01",
                        "address": "0xfffffffffffffffffffffffffffffffffffffffe",
                        "amount": "0x01"
                    }
                ]
            },
            {
                "rlp": "0xf90300f9023fa0314eb39fad34c4c7f090d9b6a8338bc12314b3447ee408f609caaa9a3bd3fe2ea01dcc4de8dec75d7aab85b567b6ccd41ad312451b948a7413f0a142fd40d49347942adc25665018aa1fe0e6bc666dac8fc2697ff9baa0374259a76e54997174cecf6bb6cc5e770308029731c5857c3051e5f4928b885da0387f60e7f39304df7b59884c5a0bbeafe3929a243a91902599d2dca0ff76ee63a050b17ddc667987b8eb7e2ee715da195e6349d9f70909bab1fa57909fd6f8947ab9010000000000000000000000000000000000000000000000000000000000000000000000000000000000000000000000000000000000000000000000000000000000000000000000000000000000000000000000000000000000000000000000000000000000000000000000000000000000000000000000000000000000000000000000000000000000000000000000000000000000000000000000000000000000000000000000000000000000000000000000000000000000000000000000000000000000000000000000000000000000000000000000000000000000000000000000000000000000000000000000000000000000000000000000000000000000800288016345785d8a00008301c73482753080a0000000000000000000000000000000000000000000000000000000000000000088000000000000000007a0cc9f7b64e70199c60f6f3a377a150895403ff41fec4dec288fb72234400fae1d8080a06c31fc15422ebad28aaf9089c306702f67540b53c7eea8b7d2941044b027100ff888b88602f88301808007830f424094000000000000000000000000000000000000010080a00000000000000000000000000000000000000000000000000000000000007530c001a0be320ea113ae1b3a5c09485a35a9d82454abf7fb845b7965ae9157b70bd6f05aa02c123e499090d51f5aa922637d22f81ddb4fcd9696f4837e3b62d3af7944264cc0f2d8028094beac00ddb15f3b6d645c48263dc93862413a222d01d8030194fffffffffffffffffffffffffffffffffffffffe01",
                "blockHeader": {
                    "parentHash": "0x314eb39fad34c4c7f090d9b6a8338bc12314b3447ee408f609caaa9a3bd3fe2e",
                    "uncleHash": "0x1dcc4de8dec75d7aab85b567b6ccd41ad312451b948a7413f0a142fd40d49347",
                    "coinbase": "0x2adc25665018aa1fe0e6bc666dac8fc2697ff9ba",
                    "stateRoot": "0x374259a76e54997174cecf6bb6cc5e770308029731c5857c3051e5f4928b885d",
                    "transactionsTrie": "0x387f60e7f39304df7b59884c5a0bbeafe3929a243a91902599d2dca0ff76ee63",
                    "receiptTrie": "0x50b17ddc667987b8eb7e2ee715da195e6349d9f70909bab1fa57909fd6f8947a",
                    "bloom": "0x00000000000000000000000000000000000000000000000000000000000000000000000000000000000000000000000000000000000000000000000000000000000000000000000000000000000000000000000000000000000000000000000000000000000000000000000000000000000000000000000000000000000000000000000000000000000000000000000000000000000000000000000000000000000000000000000000000000000000000000000000000000000000000000000000000000000000000000000000000000000000000000000000000000000000000000000000000000000000000000000000000000000000000000000000000000",
                    "difficulty": "0x00",
                    "number": "0x02",
                    "gasLimit": "0x016345785d8a0000",
                    "gasUsed": "0x01c734",
                    "timestamp": "0x7530",
                    "extraData": "0x",
                    "mixHash": "0x0000000000000000000000000000000000000000000000000000000000000000",
                    "nonce": "0x0000000000000000",
                    "baseFeePerGas": "0x07",
                    "withdrawalsRoot": "0xcc9f7b64e70199c60f6f3a377a150895403ff41fec4dec288fb72234400fae1d",
                    "blobGasUsed": "0x00",
                    "excessBlobGas": "0x00",
                    "parentBeaconBlockRoot": "0x6c31fc15422ebad28aaf9089c306702f67540b53c7eea8b7d2941044b027100f",
                    "hash": "0x0af32b24487eb6c1ddd56b3fd5168884f823403c1af6b08b4a5f21dfadd9417d"
                },
                "engineNewPayload": {
                    "executionPayload": {
                        "parentHash": "0x314eb39fad34c4c7f090d9b6a8338bc12314b3447ee408f609caaa9a3bd3fe2e",
                        "feeRecipient": "0x2adc25665018aa1fe0e6bc666dac8fc2697ff9ba",
                        "stateRoot": "0x374259a76e54997174cecf6bb6cc5e770308029731c5857c3051e5f4928b885d",
                        "receiptsRoot": "0x50b17ddc667987b8eb7e2ee715da195e6349d9f70909bab1fa57909fd6f8947a",
                        "logsBloom": "0x00000000000000000000000000000000000000000000000000000000000000000000000000000000000000000000000000000000000000000000000000000000000000000000000000000000000000000000000000000000000000000000000000000000000000000000000000000000000000000000000000000000000000000000000000000000000000000000000000000000000000000000000000000000000000000000000000000000000000000000000000000000000000000000000000000000000000000000000000000000000000000000000000000000000000000000000000000000000000000000000000000000000000000000000000000000",
                        "blockNumber": "0x2",
                        "gasLimit": "0x16345785d8a0000",
                        "gasUsed": "0x1c734",
                        "timestamp": "0x7530",
                        "extraData": "0x",
                        "prevRandao": "0x0000000000000000000000000000000000000000000000000000000000000000",
                        "baseFeePerGas": "0x7",
                        "blobGasUsed": "0x0",
                        "excessBlobGas": "0x0",
                        "blockHash": "0x0af32b24487eb6c1ddd56b3fd5168884f823403c1af6b08b4a5f21dfadd9417d",
                        "transactions": [
                            "0x02f88301808007830f424094000000000000000000000000000000000000010080a00000000000000000000000000000000000000000000000000000000000007530c001a0be320ea113ae1b3a5c09485a35a9d82454abf7fb845b7965ae9157b70bd6f05aa02c123e499090d51f5aa922637d22f81ddb4fcd9696f4837e3b62d3af7944264c"
                        ],
                        "withdrawals": [
                            {
                                "index": "0x2",
                                "validatorIndex": "0x0",
                                "address": "0xbeac00ddb15f3b6d645c48263dc93862413a222d",
                                "amount": "0x1"
                            },
                            {
                                "index": "0x3",
                                "validatorIndex": "0x1",
                                "address": "0xfffffffffffffffffffffffffffffffffffffffe",
                                "amount": "0x1"
                            }
                        ]
                    },
                    "expectedBlobVersionedHashes": [],
                    "version": "3",
                    "parentBeaconBlockRoot": "0x6c31fc15422ebad28aaf9089c306702f67540b53c7eea8b7d2941044b027100f"
                },
                "blocknumber": "2",
                "transactions": [
                    {
                        "type": "0x02",
                        "chainId": "0x01",
                        "nonce": "0x00",
                        "maxPriorityFeePerGas": "0x00",
                        "maxFeePerGas": "0x07",
                        "gasLimit": "0x0f4240",
                        "to": "0x0000000000000000000000000000000000000100",
                        "value": "0x00",
                        "data": "0x0000000000000000000000000000000000000000000000000000000000007530",
                        "accessList": [],
                        "v": "0x01",
                        "r": "0xbe320ea113ae1b3a5c09485a35a9d82454abf7fb845b7965ae9157b70bd6f05a",
                        "s": "0x2c123e499090d51f5aa922637d22f81ddb4fcd9696f4837e3b62d3af7944264c",
                        "sender": "0xa94f5374fce5edbc8e2a8697c15331677e6ebf0b"
                    }
                ],
                "uncleHeaders": [],
                "withdrawals": [
                    {
                        "index": "0x02",
                        "validatorIndex": "0x00",
                        "address": "0xbeac00ddb15f3b6d645c48263dc93862413a222d",
                        "amount": "0x01"
                    },
                    {
                        "index": "0x03",
                        "validatorIndex": "0x01",
                        "address": "0xfffffffffffffffffffffffffffffffffffffffe",
                        "amount": "0x01"
                    }
                ]
            }
        ],
        "genesisBlockHeader": {
            "parentHash": "0x0000000000000000000000000000000000000000000000000000000000000000",
            "uncleHash": "0x1dcc4de8dec75d7aab85b567b6ccd41ad312451b948a7413f0a142fd40d49347",
            "coinbase": "0x0000000000000000000000000000000000000000",
            "stateRoot": "0xa0d70e0219a7436f4e22b1c11f441bfc4065ae56565378c7435bcf19a014ed46",
            "transactionsTrie": "0x56e81f171bcc55a6ff8345e692c0f86e5b48e01b996cadc001622fb5e363b421",
            "receiptTrie": "0x56e81f171bcc55a6ff8345e692c0f86e5b48e01b996cadc001622fb5e363b421",
            "bloom": "0x00000000000000000000000000000000000000000000000000000000000000000000000000000000000000000000000000000000000000000000000000000000000000000000000000000000000000000000000000000000000000000000000000000000000000000000000000000000000000000000000000000000000000000000000000000000000000000000000000000000000000000000000000000000000000000000000000000000000000000000000000000000000000000000000000000000000000000000000000000000000000000000000000000000000000000000000000000000000000000000000000000000000000000000000000000000",
            "difficulty": "0x00",
            "number": "0x00",
            "gasLimit": "0x016345785d8a0000",
            "gasUsed": "0x00",
            "timestamp": "0x00",
            "extraData": "0x00",
            "mixHash": "0x0000000000000000000000000000000000000000000000000000000000000000",
            "nonce": "0x0000000000000000",
            "baseFeePerGas": "0x07",
            "withdrawalsRoot": "0x56e81f171bcc55a6ff8345e692c0f86e5b48e01b996cadc001622fb5e363b421",
            "hash": "0x0bcc0dc7aa46ea51225b9d3c2b685f10139601707004c36825633e0011727a94"
        },
        "genesisRLP": "0xf9021df90217a00000000000000000000000000000000000000000000000000000000000000000a01dcc4de8dec75d7aab85b567b6ccd41ad312451b948a7413f0a142fd40d49347940000000000000000000000000000000000000000a0a0d70e0219a7436f4e22b1c11f441bfc4065ae56565378c7435bcf19a014ed46a056e81f171bcc55a6ff8345e692c0f86e5b48e01b996cadc001622fb5e363b421a056e81f171bcc55a6ff8345e692c0f86e5b48e01b996cadc001622fb5e363b421b9010000000000000000000000000000000000000000000000000000000000000000000000000000000000000000000000000000000000000000000000000000000000000000000000000000000000000000000000000000000000000000000000000000000000000000000000000000000000000000000000000000000000000000000000000000000000000000000000000000000000000000000000000000000000000000000000000000000000000000000000000000000000000000000000000000000000000000000000000000000000000000000000000000000000000000000000000000000000000000000000000000000000000000000000000000000000808088016345785d8a0000808000a0000000000000000000000000000000000000000000000000000000000000000088000000000000000007a056e81f171bcc55a6ff8345e692c0f86e5b48e01b996cadc001622fb5e363b421c0c0c0",
        "lastblockhash": "0x0af32b24487eb6c1ddd56b3fd5168884f823403c1af6b08b4a5f21dfadd9417d",
        "network": "ShanghaiToCancunAtTime15k",
        "pre": {
            "0x0000000000000000000000000000000000000100": {
                "nonce": "0x00",
                "balance": "0x010000000000",
                "code": "0x36600060203760206000366020600073beac00ddb15f3b6d645c48263dc93862413a222d620186a0f16000556000516001553d6002553d600060003e600051600355",
                "storage": {}
            },
            "0x3e266d3c3a70c238bdddafef1ba06fbd58958d70": {
                "nonce": "0x00",
                "balance": "0x0244de623cc6c000",
                "code": "0x",
                "storage": {}
            },
            "0xa94f5374fce5edbc8e2a8697c15331677e6ebf0b": {
                "nonce": "0x00",
                "balance": "0x010000000000",
                "code": "0x",
                "storage": {}
            },
            "0xbeac00ddb15f3b6d645c48263dc93862413a222d": {
                "nonce": "0x00",
                "balance": "0x00",
                "code": "0x",
                "storage": {}
            },
            "0xfffffffffffffffffffffffffffffffffffffffe": {
                "nonce": "0x00",
                "balance": "0x00",
                "code": "0x",
                "storage": {}
            }
        },
        "postState": {
            "0x0000000000000000000000000000000000000100": {
                "nonce": "0x00",
                "balance": "0x010000000000",
                "code": "0x36600060203760206000366020600073beac00ddb15f3b6d645c48263dc93862413a222d620186a0f16000556000516001553d6002553d600060003e600051600355",
                "storage": {
                    "0x00": "0x01",
                    "0x01": "0x6c31fc15422ebad28aaf9089c306702f67540b53c7eea8b7d2941044b027100f",
                    "0x02": "0x20",
                    "0x03": "0x6c31fc15422ebad28aaf9089c306702f67540b53c7eea8b7d2941044b027100f"
                }
            },
            "0x2adc25665018aa1fe0e6bc666dac8fc2697ff9ba": {
                "nonce": "0x00",
                "balance": "0x0100457da632ab96",
                "code": "0x",
                "storage": {}
            },
            "0x3e266d3c3a70c238bdddafef1ba06fbd58958d70": {
                "nonce": "0x01",
                "balance": "0x014498e4968c6000",
                "code": "0x",
                "storage": {}
            },
            "0xa94f5374fce5edbc8e2a8697c15331677e6ebf0b": {
                "nonce": "0x01",
                "balance": "0xfffff38d94",
                "code": "0x",
                "storage": {}
            },
            "0xbeac00ddb15f3b6d645c48263dc93862413a222d": {
                "nonce": "0x01",
                "balance": "0x77359400",
                "code": "0x3373fffffffffffffffffffffffffffffffffffffffe14604457602036146024575f5ffd5b620180005f350680545f35146037575f5ffd5b6201800001545f5260205ff35b6201800042064281555f359062018000015500",
                "storage": {
                    "0x7530": "0x7530",
                    "0x01f530": "0x6c31fc15422ebad28aaf9089c306702f67540b53c7eea8b7d2941044b027100f"
                }
            },
            "0xfffffffffffffffffffffffffffffffffffffffe": {
                "nonce": "0x00",
                "balance": "0x77359400",
                "code": "0x",
                "storage": {}
            }
        },
        "sealEngine": "NoProof"
    }
}