{
    "000-fork=ShanghaiToCancunAtTime15k-timestamp=15000": {
        "_info": {
            "filling-transition-tool": "evm version 1.13.0-unstable-b1a1675c-20230912",
            "reference-spec": "https://github.com/ethereum/EIPs/blob/master/EIPS/eip-4788.md",
            "reference-spec-version": "e7608fe8ac8a60934ca874f5aab7d5c1f4ff7782"
        },
        "blocks": [
            {
                "rlp": "0xf902fff9023ea05aeb09fa0f251cec690cb15626072c2d8a03b67352566f3b8e45b02db0b055baa01dcc4de8dec75d7aab85b567b6ccd41ad312451b948a7413f0a142fd40d49347942adc25665018aa1fe0e6bc666dac8fc2697ff9baa0a831956d34e8e9937ac997b8750084e7bae7edde999a712daf574e57dcdb2498a064491dfba31aa11099c81e1c7c95f0818b4f927d4b3552143a25ea44512fe125a0037c6a35920271e48744434ea58c2e865d703f151d7bfea7a823cfc9b4232bbbb9010000000000000000000000000000000000000000000000000000000000000000000000000000000000000000000000000000000000000000000000000000000000000000000000000000000000000000000000000000000000000000000000000000000000000000000000000000000000000000000000000000000000000000000000000000000000000000000000000000000000000000000000000000000000000000000000000000000000000000000000000000000000000000000000000000000000000000000000000000000000000000000000000000000000000000000000000000000000000000000000000000000000000000000000000000000000800188016345785d8a000082cd31823a9880a0000000000000000000000000000000000000000000000000000000000000000088000000000000000007a017e12bbb1615dbb58429e8bbf7696cc719a70f832033a6aa3747d7e5dc08c19c8080a06c31fc15422ebad28aaf9089c306702f67540b53c7eea8b7d2941044b027100ff888b88602f88301808007830f424094000000000000000000000000000000000000010080a00000000000000000000000000000000000000000000000000000000000003a98c001a0faa933f2812dcf366269cdad3b8bdbf6d293fe5dcd0d3313089d619e99b77c2ea0541ff2b494d5a6856ee685c0647a47b60a6eb7823dd0b72c74123ea33f0e4e41c0f2d8808094beac00ddb15f3b6d645c48263dc93862413a222d01d8010194fffffffffffffffffffffffffffffffffffffffe01",
                "blockHeader": {
                    "parentHash": "0x5aeb09fa0f251cec690cb15626072c2d8a03b67352566f3b8e45b02db0b055ba",
                    "uncleHash": "0x1dcc4de8dec75d7aab85b567b6ccd41ad312451b948a7413f0a142fd40d49347",
                    "coinbase": "0x2adc25665018aa1fe0e6bc666dac8fc2697ff9ba",
                    "stateRoot": "0xa831956d34e8e9937ac997b8750084e7bae7edde999a712daf574e57dcdb2498",
                    "transactionsTrie": "0x64491dfba31aa11099c81e1c7c95f0818b4f927d4b3552143a25ea44512fe125",
                    "receiptTrie": "0x037c6a35920271e48744434ea58c2e865d703f151d7bfea7a823cfc9b4232bbb",
                    "bloom": "0x00000000000000000000000000000000000000000000000000000000000000000000000000000000000000000000000000000000000000000000000000000000000000000000000000000000000000000000000000000000000000000000000000000000000000000000000000000000000000000000000000000000000000000000000000000000000000000000000000000000000000000000000000000000000000000000000000000000000000000000000000000000000000000000000000000000000000000000000000000000000000000000000000000000000000000000000000000000000000000000000000000000000000000000000000000000",
                    "difficulty": "0x00",
                    "number": "0x01",
                    "gasLimit": "0x016345785d8a0000",
                    "gasUsed": "0xcd31",
                    "timestamp": "0x3a98",
                    "extraData": "0x",
                    "mixHash": "0x0000000000000000000000000000000000000000000000000000000000000000",
                    "nonce": "0x0000000000000000",
                    "baseFeePerGas": "0x07",
                    "withdrawalsRoot": "0x17e12bbb1615dbb58429e8bbf7696cc719a70f832033a6aa3747d7e5dc08c19c",
                    "blobGasUsed": "0x00",
                    "excessBlobGas": "0x00",
                    "parentBeaconBlockRoot": "0x6c31fc15422ebad28aaf9089c306702f67540b53c7eea8b7d2941044b027100f",
                    "hash": "0x650aa9d2d568b330fe42ab8faee14e01ceded6b260e0d18bcc7ecc7ae30acc76"
                },
                "engineNewPayload": {
                    "executionPayload": {
                        "parentHash": "0x5aeb09fa0f251cec690cb15626072c2d8a03b67352566f3b8e45b02db0b055ba",
                        "feeRecipient": "0x2adc25665018aa1fe0e6bc666dac8fc2697ff9ba",
                        "stateRoot": "0xa831956d34e8e9937ac997b8750084e7bae7edde999a712daf574e57dcdb2498",
                        "receiptsRoot": "0x037c6a35920271e48744434ea58c2e865d703f151d7bfea7a823cfc9b4232bbb",
                        "logsBloom": "0x00000000000000000000000000000000000000000000000000000000000000000000000000000000000000000000000000000000000000000000000000000000000000000000000000000000000000000000000000000000000000000000000000000000000000000000000000000000000000000000000000000000000000000000000000000000000000000000000000000000000000000000000000000000000000000000000000000000000000000000000000000000000000000000000000000000000000000000000000000000000000000000000000000000000000000000000000000000000000000000000000000000000000000000000000000000",
                        "blockNumber": "0x1",
                        "gasLimit": "0x16345785d8a0000",
                        "gasUsed": "0xcd31",
                        "timestamp": "0x3a98",
                        "extraData": "0x",
                        "prevRandao": "0x0000000000000000000000000000000000000000000000000000000000000000",
                        "baseFeePerGas": "0x7",
                        "blobGasUsed": "0x0",
                        "excessBlobGas": "0x0",
                        "blockHash": "0x650aa9d2d568b330fe42ab8faee14e01ceded6b260e0d18bcc7ecc7ae30acc76",
                        "transactions": [
                            "0x02f88301808007830f424094000000000000000000000000000000000000010080a00000000000000000000000000000000000000000000000000000000000003a98c001a0faa933f2812dcf366269cdad3b8bdbf6d293fe5dcd0d3313089d619e99b77c2ea0541ff2b494d5a6856ee685c0647a47b60a6eb7823dd0b72c74123ea33f0e4e41"
                        ],
                        "withdrawals": [
                            {
                                "index": "0x0",
                                "validatorIndex": "0x0",
                                "address": "0xbeac00ddb15f3b6d645c48263dc93862413a222d",
                                "amount": "0x1"
                            },
                            {
                                "index": "0x1",
                                "validatorIndex": "0x1",
                                "address": "0xfffffffffffffffffffffffffffffffffffffffe",
                                "amount": "0x1"
                            }
                        ]
                    },
                    "expectedBlobVersionedHashes": [],
                    "version": "3",
                    "parentBeaconBlockRoot": "0x6c31fc15422ebad28aaf9089c306702f67540b53c7eea8b7d2941044b027100f"
                },
                "blocknumber": "1",
                "transactions": [
                    {
                        "type": "0x02",
                        "chainId": "0x01",
                        "nonce": "0x00",
                        "maxPriorityFeePerGas": "0x00",
                        "maxFeePerGas": "0x07",
                        "gasLimit": "0x0f4240",
                        "to": "0x0000000000000000000000000000000000000100",
                        "value": "0x00",
                        "data": "0x0000000000000000000000000000000000000000000000000000000000003a98",
                        "accessList": [],
                        "v": "0x01",
                        "r": "0xfaa933f2812dcf366269cdad3b8bdbf6d293fe5dcd0d3313089d619e99b77c2e",
                        "s": "0x541ff2b494d5a6856ee685c0647a47b60a6eb7823dd0b72c74123ea33f0e4e41",
                        "sender": "0xa94f5374fce5edbc8e2a8697c15331677e6ebf0b"
                    }
                ],
                "uncleHeaders": [],
                "withdrawals": [
                    {
                        "index": "0x00",
                        "validatorIndex": "0x00",
                        "address": "0xbeac00ddb15f3b6d645c48263dc93862413a222d",
                        "amount": "0x01"
                    },
                    {
                        "index": "0x01",
                        "validatorIndex": "0x01",
                        "address": "0xfffffffffffffffffffffffffffffffffffffffe",
                        "amount": "0x01"
                    }
                ]
            }
        ],
        "genesisBlockHeader": {
            "parentHash": "0x0000000000000000000000000000000000000000000000000000000000000000",
            "uncleHash": "0x1dcc4de8dec75d7aab85b567b6ccd41ad312451b948a7413f0a142fd40d49347",
            "coinbase": "0x0000000000000000000000000000000000000000",
            "stateRoot": "0x89dcfdc6c0369cb05ec0dec8794e2a0e7f21d20f11c9f2762eeebe35244377f2",
            "transactionsTrie": "0x56e81f171bcc55a6ff8345e692c0f86e5b48e01b996cadc001622fb5e363b421",
            "receiptTrie": "0x56e81f171bcc55a6ff8345e692c0f86e5b48e01b996cadc001622fb5e363b421",
            "bloom": "0x00000000000000000000000000000000000000000000000000000000000000000000000000000000000000000000000000000000000000000000000000000000000000000000000000000000000000000000000000000000000000000000000000000000000000000000000000000000000000000000000000000000000000000000000000000000000000000000000000000000000000000000000000000000000000000000000000000000000000000000000000000000000000000000000000000000000000000000000000000000000000000000000000000000000000000000000000000000000000000000000000000000000000000000000000000000",
            "difficulty": "0x00",
            "number": "0x00",
            "gasLimit": "0x016345785d8a0000",
            "gasUsed": "0x00",
            "timestamp": "0x00",
            "extraData": "0x00",
            "mixHash": "0x0000000000000000000000000000000000000000000000000000000000000000",
            "nonce": "0x0000000000000000",
            "baseFeePerGas": "0x07",
            "withdrawalsRoot": "0x56e81f171bcc55a6ff8345e692c0f86e5b48e01b996cadc001622fb5e363b421",
            "hash": "0x5aeb09fa0f251cec690cb15626072c2d8a03b67352566f3b8e45b02db0b055ba"
        },
        "genesisRLP": "0xf9021df90217a00000000000000000000000000000000000000000000000000000000000000000a01dcc4de8dec75d7aab85b567b6ccd41ad312451b948a7413f0a142fd40d49347940000000000000000000000000000000000000000a089dcfdc6c0369cb05ec0dec8794e2a0e7f21d20f11c9f2762eeebe35244377f2a056e81f171bcc55a6ff8345e692c0f86e5b48e01b996cadc001622fb5e363b421a056e81f171bcc55a6ff8345e692c0f86e5b48e01b996cadc001622fb5e363b421b9010000000000000000000000000000000000000000000000000000000000000000000000000000000000000000000000000000000000000000000000000000000000000000000000000000000000000000000000000000000000000000000000000000000000000000000000000000000000000000000000000000000000000000000000000000000000000000000000000000000000000000000000000000000000000000000000000000000000000000000000000000000000000000000000000000000000000000000000000000000000000000000000000000000000000000000000000000000000000000000000000000000000000000000000000000000000808088016345785d8a0000808000a0000000000000000000000000000000000000000000000000000000000000000088000000000000000007a056e81f171bcc55a6ff8345e692c0f86e5b48e01b996cadc001622fb5e363b421c0c0c0",
        "lastblockhash": "0x650aa9d2d568b330fe42ab8faee14e01ceded6b260e0d18bcc7ecc7ae30acc76",
        "network": "ShanghaiToCancunAtTime15k",
        "pre": {
            "0x0000000000000000000000000000000000000100": {
                "nonce": "0x00",
                "balance": "0x010000000000",
                "code": "0x36600060203760206000366020600073beac00ddb15f3b6d645c48263dc93862413a222d620186a0f16000556000516001553d6002553d600060003e600051600355",
                "storage": {}
            },
            "0xa94f5374fce5edbc8e2a8697c15331677e6ebf0b": {
                "nonce": "0x00",
                "balance": "0x010000000000",
                "code": "0x",
                "storage": {}
            },
            "0xbeac00ddb15f3b6d645c48263dc93862413a222d": {
                "nonce": "0x00",
                "balance": "0x00",
                "code": "0x",
                "storage": {}
            },
            "0xfffffffffffffffffffffffffffffffffffffffe": {
                "nonce": "0x00",
                "balance": "0x00",
                "code": "0x",
                "storage": {}
            }
        },
        "postState": {
            "0x0000000000000000000000000000000000000100": {
                "nonce": "0x00",
                "balance": "0x010000000000",
                "code": "0x36600060203760206000366020600073beac00ddb15f3b6d645c48263dc93862413a222d620186a0f16000556000516001553d6002553d600060003e600051600355",
                "storage": {
                    "0x00": "0x01"
                }
            },
            "0xa94f5374fce5edbc8e2a8697c15331677e6ebf0b": {
                "nonce": "0x01",
                "balance": "0xfffffa63a9",
                "code": "0x",
                "storage": {}
            },
            "0xbeac00ddb15f3b6d645c48263dc93862413a222d": {
                "nonce": "0x00",
                "balance": "0x3b9aca00",
                "code": "0x",
                "storage": {}
            },
            "0xfffffffffffffffffffffffffffffffffffffffe": {
                "nonce": "0x00",
                "balance": "0x3b9aca00",
                "code": "0x",
                "storage": {}
            }
        },
        "sealEngine": "NoProof"
    }
}