{
    "tests/prague/eip2537_bls_12_381_precompiles/test_bls12_g1add.py::test_valid[fork_PragueEIP7692-state_test-bls_g1add_g1+p1-]": {
        "env": {
            "currentCoinbase": "0x2adc25665018aa1fe0e6bc666dac8fc2697ff9ba",
            "currentGasLimit": "0x016345785d8a0000",
            "currentNumber": "0x01",
            "currentTimestamp": "0x03e8",
            "currentRandom": "0x0000000000000000000000000000000000000000000000000000000000000000",
            "currentDifficulty": "0x00",
            "currentBaseFee": "0x07",
            "currentExcessBlobGas": "0x00"
        },
        "pre": {
            "0x0000000000000000000000000000000000001000": {
                "nonce": "0x01",
                "balance": "0x00",
                "code": "0x366000600037600060003660006000600b6101f4f16000553d6001553d600060003e3d600020600255",
                "storage": {}
            },
            "0xa94f5374fce5edbc8e2a8697c15331677e6ebf0b": {
                "nonce": "0x00",
                "balance": "0x038d7ea4c68000",
                "code": "0x",
                "storage": {}
            }
        },
        "transaction": {
            "nonce": "0x00",
            "gasPrice": "0x0a",
            "gasLimit": [
                "0x989874"
            ],
            "to": "0x0000000000000000000000000000000000001000",
            "value": [
                "0x00"
            ],
            "data": [
                "0x0000000000000000000000000000000017f1d3a73197d7942695638c4fa9ac0fc3688c4f9774b905a14e3a3f171bac586c55e83ff97a1aeffb3af00adb22c6bb0000000000000000000000000000000008b3f481e3aaa0f1a09e30ed741d8ae4fcf5e095d5d00af600db18cb2c04b3edd03cc744a2888ae40caa232946c5e7e100000000000000000000000000000000112b98340eee2777cc3c14163dea3ec97977ac3dc5c70da32e6e87578f44912e902ccef9efe28d4a78b8999dfbca942600000000000000000000000000000000186b28d92356c4dfec4b5201ad099dbdede3781f8998ddf929b4cd7756192185ca7b8f4ef7088f813270ac3d48868a21"
            ],
            "sender": "0xa94f5374fce5edbc8e2a8697c15331677e6ebf0b",
            "secretKey": "0x45a915e4d060149eb4365960e6a7a45f334393093061116b197e3240065ff2d8"
        },
        "post": {
            "Prague": [
                {
                    "hash": "0x632f47a7be6570082fd348597afa07b474b6f01e246cbd92f347b60e539e9794",
                    "logs": "0x1dcc4de8dec75d7aab85b567b6ccd41ad312451b948a7413f0a142fd40d49347",
                    "txbytes": "0xf90162800a8398987494000000000000000000000000000000000000100080b901000000000000000000000000000000000017f1d3a73197d7942695638c4fa9ac0fc3688c4f9774b905a14e3a3f171bac586c55e83ff97a1aeffb3af00adb22c6bb0000000000000000000000000000000008b3f481e3aaa0f1a09e30ed741d8ae4fcf5e095d5d00af600db18cb2c04b3edd03cc744a2888ae40caa232946c5e7e100000000000000000000000000000000112b98340eee2777cc3c14163dea3ec97977ac3dc5c70da32e6e87578f44912e902ccef9efe28d4a78b8999dfbca942600000000000000000000000000000000186b28d92356c4dfec4b5201ad099dbdede3781f8998ddf929b4cd7756192185ca7b8f4ef7088f813270ac3d48868a2126a07d733f84a28debd91508f31250852ab8f5db8af121ee966a8beaec3b99f98e48a009fe4a8b104e94643eb2c5a5075c9e8da41af4725c501385f1ecae68a3b54527",
                    "indexes": {
                        "data": 0,
                        "gas": 0,
                        "value": 0
                    }
                }
            ]
        },
        "_info": {
            "hash": "0x31d7595638c73bf1a571efc8b0caf6ae82888bc3161711b6401990308df7579b",
            "comment": "`execution-spec-tests` generated test",
            "filling-transition-tool": "Hyperledger Besu evm 24.9-develop-beaee59",
            "description": "Test function documentation:\n\n    Test the BLS12_G1ADD precompile.",
            "url": "https://github.com/ethereum/execution-spec-tests/blob/eip7692@v1.1.0/tests/prague/eip2537_bls_12_381_precompiles/test_bls12_g1add.py#L24",
            "reference-spec": "https://github.com/ethereum/EIPs/blob/master/EIPS/eip-2537.md",
            "reference-spec-version": "cd0f016ad0c4c68b8b1f5c502ef61ab9353b6e5e"
        }
    },
    "tests/prague/eip2537_bls_12_381_precompiles/test_bls12_g1add.py::test_valid[fork_PragueEIP7692-state_test-bls_g1add_p1+g1-]": {
        "env": {
            "currentCoinbase": "0x2adc25665018aa1fe0e6bc666dac8fc2697ff9ba",
            "currentGasLimit": "0x016345785d8a0000",
            "currentNumber": "0x01",
            "currentTimestamp": "0x03e8",
            "currentRandom": "0x0000000000000000000000000000000000000000000000000000000000000000",
            "currentDifficulty": "0x00",
            "currentBaseFee": "0x07",
            "currentExcessBlobGas": "0x00"
        },
        "pre": {
            "0x0000000000000000000000000000000000001000": {
                "nonce": "0x01",
                "balance": "0x00",
                "code": "0x366000600037600060003660006000600b6101f4f16000553d6001553d600060003e3d600020600255",
                "storage": {}
            },
            "0xa94f5374fce5edbc8e2a8697c15331677e6ebf0b": {
                "nonce": "0x00",
                "balance": "0x038d7ea4c68000",
                "code": "0x",
                "storage": {}
            }
        },
        "transaction": {
            "nonce": "0x00",
            "gasPrice": "0x0a",
            "gasLimit": [
                "0x989874"
            ],
            "to": "0x0000000000000000000000000000000000001000",
            "value": [
                "0x00"
            ],
            "data": [
                "0x00000000000000000000000000000000112b98340eee2777cc3c14163dea3ec97977ac3dc5c70da32e6e87578f44912e902ccef9efe28d4a78b8999dfbca942600000000000000000000000000000000186b28d92356c4dfec4b5201ad099dbdede3781f8998ddf929b4cd7756192185ca7b8f4ef7088f813270ac3d48868a210000000000000000000000000000000017f1d3a73197d7942695638c4fa9ac0fc3688c4f9774b905a14e3a3f171bac586c55e83ff97a1aeffb3af00adb22c6bb0000000000000000000000000000000008b3f481e3aaa0f1a09e30ed741d8ae4fcf5e095d5d00af600db18cb2c04b3edd03cc744a2888ae40caa232946c5e7e1"
            ],
            "sender": "0xa94f5374fce5edbc8e2a8697c15331677e6ebf0b",
            "secretKey": "0x45a915e4d060149eb4365960e6a7a45f334393093061116b197e3240065ff2d8"
        },
        "post": {
            "Prague": [
                {
                    "hash": "0x632f47a7be6570082fd348597afa07b474b6f01e246cbd92f347b60e539e9794",
                    "logs": "0x1dcc4de8dec75d7aab85b567b6ccd41ad312451b948a7413f0a142fd40d49347",
                    "txbytes": "0xf90162800a8398987494000000000000000000000000000000000000100080b9010000000000000000000000000000000000112b98340eee2777cc3c14163dea3ec97977ac3dc5c70da32e6e87578f44912e902ccef9efe28d4a78b8999dfbca942600000000000000000000000000000000186b28d92356c4dfec4b5201ad099dbdede3781f8998ddf929b4cd7756192185ca7b8f4ef7088f813270ac3d48868a210000000000000000000000000000000017f1d3a73197d7942695638c4fa9ac0fc3688c4f9774b905a14e3a3f171bac586c55e83ff97a1aeffb3af00adb22c6bb0000000000000000000000000000000008b3f481e3aaa0f1a09e30ed741d8ae4fcf5e095d5d00af600db18cb2c04b3edd03cc744a2888ae40caa232946c5e7e126a022515412d128235a94b701df79612be5df4c7a09ae8c0bd92eb708f2722635a8a05ffd3acb2bda2ef3607355f1a0d6c114f5aa66319db5701f45b9787a0790d863",
                    "indexes": {
                        "data": 0,
                        "gas": 0,
                        "value": 0
                    }
                }
            ]
        },
        "_info": {
            "hash": "0x09b73f18e52de6d730020fc841217acbee7837c4b39c1d691524367a996d1412",
            "comment": "`execution-spec-tests` generated test",
            "filling-transition-tool": "Hyperledger Besu evm 24.9-develop-beaee59",
            "description": "Test function documentation:\n\n    Test the BLS12_G1ADD precompile.",
            "url": "https://github.com/ethereum/execution-spec-tests/blob/eip7692@v1.1.0/tests/prague/eip2537_bls_12_381_precompiles/test_bls12_g1add.py#L24",
            "reference-spec": "https://github.com/ethereum/EIPs/blob/master/EIPS/eip-2537.md",
            "reference-spec-version": "cd0f016ad0c4c68b8b1f5c502ef61ab9353b6e5e"
        }
    },
    "tests/prague/eip2537_bls_12_381_precompiles/test_bls12_g1add.py::test_valid[fork_PragueEIP7692-state_test-bls_g1add_g1_wrong_order+g1-]": {
        "env": {
            "currentCoinbase": "0x2adc25665018aa1fe0e6bc666dac8fc2697ff9ba",
            "currentGasLimit": "0x016345785d8a0000",
            "currentNumber": "0x01",
            "currentTimestamp": "0x03e8",
            "currentRandom": "0x0000000000000000000000000000000000000000000000000000000000000000",
            "currentDifficulty": "0x00",
            "currentBaseFee": "0x07",
            "currentExcessBlobGas": "0x00"
        },
        "pre": {
            "0x0000000000000000000000000000000000001000": {
                "nonce": "0x01",
                "balance": "0x00",
                "code": "0x366000600037600060003660006000600b6101f4f16000553d6001553d600060003e3d600020600255",
                "storage": {}
            },
            "0xa94f5374fce5edbc8e2a8697c15331677e6ebf0b": {
                "nonce": "0x00",
                "balance": "0x038d7ea4c68000",
                "code": "0x",
                "storage": {}
            }
        },
        "transaction": {
            "nonce": "0x00",
            "gasPrice": "0x0a",
            "gasLimit": [
                "0x989874"
            ],
            "to": "0x0000000000000000000000000000000000001000",
            "value": [
                "0x00"
            ],
            "data": [
                "0x000000000000000000000000000000000123456789abcdef0123456789abcdef0123456789abcdef0123456789abcdef0123456789abcdef0123456789abcdef00000000000000000000000000000000193fb7cedb32b2c3adc06ec11a96bc0d661869316f5e4a577a9f7c179593987beb4fb2ee424dbb2f5dd891e228b46c4a0000000000000000000000000000000017f1d3a73197d7942695638c4fa9ac0fc3688c4f9774b905a14e3a3f171bac586c55e83ff97a1aeffb3af00adb22c6bb0000000000000000000000000000000008b3f481e3aaa0f1a09e30ed741d8ae4fcf5e095d5d00af600db18cb2c04b3edd03cc744a2888ae40caa232946c5e7e1"
            ],
            "sender": "0xa94f5374fce5edbc8e2a8697c15331677e6ebf0b",
            "secretKey": "0x45a915e4d060149eb4365960e6a7a45f334393093061116b197e3240065ff2d8"
        },
        "post": {
            "Prague": [
                {
                    "hash": "0xad318aee9c4c19de061809819be38c65e8de67dea68152d5148f8ba5d6218b0d",
                    "logs": "0x1dcc4de8dec75d7aab85b567b6ccd41ad312451b948a7413f0a142fd40d49347",
                    "txbytes": "0xf90162800a8398987494000000000000000000000000000000000000100080b90100000000000000000000000000000000000123456789abcdef0123456789abcdef0123456789abcdef0123456789abcdef0123456789abcdef0123456789abcdef00000000000000000000000000000000193fb7cedb32b2c3adc06ec11a96bc0d661869316f5e4a577a9f7c179593987beb4fb2ee424dbb2f5dd891e228b46c4a0000000000000000000000000000000017f1d3a73197d7942695638c4fa9ac0fc3688c4f9774b905a14e3a3f171bac586c55e83ff97a1aeffb3af00adb22c6bb0000000000000000000000000000000008b3f481e3aaa0f1a09e30ed741d8ae4fcf5e095d5d00af600db18cb2c04b3edd03cc744a2888ae40caa232946c5e7e126a0c6155b0abfc2b489783de5adb2ca4ac233a2031c3698292d16db78f2812bab6ca07c2ed68f97922ad3148ac2d3bf55acba5fea46c6a0456a7f1a1cff7b7ef52ddd",
                    "indexes": {
                        "data": 0,
                        "gas": 0,
                        "value": 0
                    }
                }
            ]
        },
        "_info": {
            "hash": "0x9d38ff41a843e653b7047ca34b32dcde473ccf3fdcf5c43d0da6f0f820684f1a",
            "comment": "`execution-spec-tests` generated test",
            "filling-transition-tool": "Hyperledger Besu evm 24.9-develop-beaee59",
            "description": "Test function documentation:\n\n    Test the BLS12_G1ADD precompile.",
            "url": "https://github.com/ethereum/execution-spec-tests/blob/eip7692@v1.1.0/tests/prague/eip2537_bls_12_381_precompiles/test_bls12_g1add.py#L24",
            "reference-spec": "https://github.com/ethereum/EIPs/blob/master/EIPS/eip-2537.md",
            "reference-spec-version": "cd0f016ad0c4c68b8b1f5c502ef61ab9353b6e5e"
        }
    },
    "tests/prague/eip2537_bls_12_381_precompiles/test_bls12_g1add.py::test_valid[fork_PragueEIP7692-state_test-bls_g1add_(g1+0=g1)-]": {
        "env": {
            "currentCoinbase": "0x2adc25665018aa1fe0e6bc666dac8fc2697ff9ba",
            "currentGasLimit": "0x016345785d8a0000",
            "currentNumber": "0x01",
            "currentTimestamp": "0x03e8",
            "currentRandom": "0x0000000000000000000000000000000000000000000000000000000000000000",
            "currentDifficulty": "0x00",
            "currentBaseFee": "0x07",
            "currentExcessBlobGas": "0x00"
        },
        "pre": {
            "0x0000000000000000000000000000000000001000": {
                "nonce": "0x01",
                "balance": "0x00",
                "code": "0x366000600037600060003660006000600b6101f4f16000553d6001553d600060003e3d600020600255",
                "storage": {}
            },
            "0xa94f5374fce5edbc8e2a8697c15331677e6ebf0b": {
                "nonce": "0x00",
                "balance": "0x038d7ea4c68000",
                "code": "0x",
                "storage": {}
            }
        },
        "transaction": {
            "nonce": "0x00",
            "gasPrice": "0x0a",
            "gasLimit": [
                "0x989874"
            ],
            "to": "0x0000000000000000000000000000000000001000",
            "value": [
                "0x00"
            ],
            "data": [
                "0x0000000000000000000000000000000017f1d3a73197d7942695638c4fa9ac0fc3688c4f9774b905a14e3a3f171bac586c55e83ff97a1aeffb3af00adb22c6bb0000000000000000000000000000000008b3f481e3aaa0f1a09e30ed741d8ae4fcf5e095d5d00af600db18cb2c04b3edd03cc744a2888ae40caa232946c5e7e10000000000000000000000000000000000000000000000000000000000000000000000000000000000000000000000000000000000000000000000000000000000000000000000000000000000000000000000000000000000000000000000000000000000000000000000000000000000000000000000000000000000000000"
            ],
            "sender": "0xa94f5374fce5edbc8e2a8697c15331677e6ebf0b",
            "secretKey": "0x45a915e4d060149eb4365960e6a7a45f334393093061116b197e3240065ff2d8"
        },
        "post": {
            "Prague": [
                {
                    "hash": "0xd7c66298bab98442fe30754c9324ae4f35164f24e03ab8131ee5f17018057dc9",
                    "logs": "0x1dcc4de8dec75d7aab85b567b6ccd41ad312451b948a7413f0a142fd40d49347",
                    "txbytes": "0xf90162800a8398987494000000000000000000000000000000000000100080b901000000000000000000000000000000000017f1d3a73197d7942695638c4fa9ac0fc3688c4f9774b905a14e3a3f171bac586c55e83ff97a1aeffb3af00adb22c6bb0000000000000000000000000000000008b3f481e3aaa0f1a09e30ed741d8ae4fcf5e095d5d00af600db18cb2c04b3edd03cc744a2888ae40caa232946c5e7e1000000000000000000000000000000000000000000000000000000000000000000000000000000000000000000000000000000000000000000000000000000000000000000000000000000000000000000000000000000000000000000000000000000000000000000000000000000000000000000000000000000000000000025a050df38d7aea6d02a706daa84f4bf6e0b66776a549e6624b9769857bda284d840a032352ceb085db937ae7ac6af41ef878352b6af73092d16583babcbe5b710f1ea",
                    "indexes": {
                        "data": 0,
                        "gas": 0,
                        "value": 0
                    }
                }
            ]
        },
        "_info": {
            "hash": "0x3584ece82908dbd2a0cae2b783486b8dfd697ce39a3c6dd4e96c99069894f907",
            "comment": "`execution-spec-tests` generated test",
            "filling-transition-tool": "Hyperledger Besu evm 24.9-develop-beaee59",
            "description": "Test function documentation:\n\n    Test the BLS12_G1ADD precompile.",
            "url": "https://github.com/ethereum/execution-spec-tests/blob/eip7692@v1.1.0/tests/prague/eip2537_bls_12_381_precompiles/test_bls12_g1add.py#L24",
            "reference-spec": "https://github.com/ethereum/EIPs/blob/master/EIPS/eip-2537.md",
            "reference-spec-version": "cd0f016ad0c4c68b8b1f5c502ef61ab9353b6e5e"
        }
    },
    "tests/prague/eip2537_bls_12_381_precompiles/test_bls12_g1add.py::test_valid[fork_PragueEIP7692-state_test-bls_g1add_(p1+0=p1)-]": {
        "env": {
            "currentCoinbase": "0x2adc25665018aa1fe0e6bc666dac8fc2697ff9ba",
            "currentGasLimit": "0x016345785d8a0000",
            "currentNumber": "0x01",
            "currentTimestamp": "0x03e8",
            "currentRandom": "0x0000000000000000000000000000000000000000000000000000000000000000",
            "currentDifficulty": "0x00",
            "currentBaseFee": "0x07",
            "currentExcessBlobGas": "0x00"
        },
        "pre": {
            "0x0000000000000000000000000000000000001000": {
                "nonce": "0x01",
                "balance": "0x00",
                "code": "0x366000600037600060003660006000600b6101f4f16000553d6001553d600060003e3d600020600255",
                "storage": {}
            },
            "0xa94f5374fce5edbc8e2a8697c15331677e6ebf0b": {
                "nonce": "0x00",
                "balance": "0x038d7ea4c68000",
                "code": "0x",
                "storage": {}
            }
        },
        "transaction": {
            "nonce": "0x00",
            "gasPrice": "0x0a",
            "gasLimit": [
                "0x989874"
            ],
            "to": "0x0000000000000000000000000000000000001000",
            "value": [
                "0x00"
            ],
            "data": [
                "0x00000000000000000000000000000000112b98340eee2777cc3c14163dea3ec97977ac3dc5c70da32e6e87578f44912e902ccef9efe28d4a78b8999dfbca942600000000000000000000000000000000186b28d92356c4dfec4b5201ad099dbdede3781f8998ddf929b4cd7756192185ca7b8f4ef7088f813270ac3d48868a210000000000000000000000000000000000000000000000000000000000000000000000000000000000000000000000000000000000000000000000000000000000000000000000000000000000000000000000000000000000000000000000000000000000000000000000000000000000000000000000000000000000000000"
            ],
            "sender": "0xa94f5374fce5edbc8e2a8697c15331677e6ebf0b",
            "secretKey": "0x45a915e4d060149eb4365960e6a7a45f334393093061116b197e3240065ff2d8"
        },
        "post": {
            "Prague": [
                {
                    "hash": "0xc91fd14a103afebf3002d9a03d85f7ec4713937bd7f035e1c490827b52e18ba9",
                    "logs": "0x1dcc4de8dec75d7aab85b567b6ccd41ad312451b948a7413f0a142fd40d49347",
                    "txbytes": "0xf90162800a8398987494000000000000000000000000000000000000100080b9010000000000000000000000000000000000112b98340eee2777cc3c14163dea3ec97977ac3dc5c70da32e6e87578f44912e902ccef9efe28d4a78b8999dfbca942600000000000000000000000000000000186b28d92356c4dfec4b5201ad099dbdede3781f8998ddf929b4cd7756192185ca7b8f4ef7088f813270ac3d48868a21000000000000000000000000000000000000000000000000000000000000000000000000000000000000000000000000000000000000000000000000000000000000000000000000000000000000000000000000000000000000000000000000000000000000000000000000000000000000000000000000000000000000000026a02191133ecc5c9de53a722a3220c1fb7ff18728f4dbc5f1d2166f9cf3ae929411a0329e494c06af36bb9dadc8a56e92454c8480fa1fcc0d4f5a5667efe451cfc3e7",
                    "indexes": {
                        "data": 0,
                        "gas": 0,
                        "value": 0
                    }
                }
            ]
        },
        "_info": {
            "hash": "0x9d85cc0c10f7b549eb8ca5c042ecd963ff3a08a651fe51ef168fc9a98e09204b",
            "comment": "`execution-spec-tests` generated test",
            "filling-transition-tool": "Hyperledger Besu evm 24.9-develop-beaee59",
            "description": "Test function documentation:\n\n    Test the BLS12_G1ADD precompile.",
            "url": "https://github.com/ethereum/execution-spec-tests/blob/eip7692@v1.1.0/tests/prague/eip2537_bls_12_381_precompiles/test_bls12_g1add.py#L24",
            "reference-spec": "https://github.com/ethereum/EIPs/blob/master/EIPS/eip-2537.md",
            "reference-spec-version": "cd0f016ad0c4c68b8b1f5c502ef61ab9353b6e5e"
        }
    },
    "tests/prague/eip2537_bls_12_381_precompiles/test_bls12_g1add.py::test_valid[fork_PragueEIP7692-state_test-bls_g1add_(g1-g1=0)-]": {
        "env": {
            "currentCoinbase": "0x2adc25665018aa1fe0e6bc666dac8fc2697ff9ba",
            "currentGasLimit": "0x016345785d8a0000",
            "currentNumber": "0x01",
            "currentTimestamp": "0x03e8",
            "currentRandom": "0x0000000000000000000000000000000000000000000000000000000000000000",
            "currentDifficulty": "0x00",
            "currentBaseFee": "0x07",
            "currentExcessBlobGas": "0x00"
        },
        "pre": {
            "0x0000000000000000000000000000000000001000": {
                "nonce": "0x01",
                "balance": "0x00",
                "code": "0x366000600037600060003660006000600b6101f4f16000553d6001553d600060003e3d600020600255",
                "storage": {}
            },
            "0xa94f5374fce5edbc8e2a8697c15331677e6ebf0b": {
                "nonce": "0x00",
                "balance": "0x038d7ea4c68000",
                "code": "0x",
                "storage": {}
            }
        },
        "transaction": {
            "nonce": "0x00",
            "gasPrice": "0x0a",
            "gasLimit": [
                "0x989874"
            ],
            "to": "0x0000000000000000000000000000000000001000",
            "value": [
                "0x00"
            ],
            "data": [
                "0x0000000000000000000000000000000017f1d3a73197d7942695638c4fa9ac0fc3688c4f9774b905a14e3a3f171bac586c55e83ff97a1aeffb3af00adb22c6bb0000000000000000000000000000000008b3f481e3aaa0f1a09e30ed741d8ae4fcf5e095d5d00af600db18cb2c04b3edd03cc744a2888ae40caa232946c5e7e10000000000000000000000000000000017f1d3a73197d7942695638c4fa9ac0fc3688c4f9774b905a14e3a3f171bac586c55e83ff97a1aeffb3af00adb22c6bb00000000000000000000000000000000114d1d6855d545a8aa7d76c8cf2e21f267816aef1db507c96655b9d5caac42364e6f38ba0ecb751bad54dcd6b939c2ca"
            ],
            "sender": "0xa94f5374fce5edbc8e2a8697c15331677e6ebf0b",
            "secretKey": "0x45a915e4d060149eb4365960e6a7a45f334393093061116b197e3240065ff2d8"
        },
        "post": {
            "Prague": [
                {
                    "hash": "0x0853a8eb70a80044a4b4cbf3a64e01ec3c4db93a2b233e6dc5d5befe0f99a938",
                    "logs": "0x1dcc4de8dec75d7aab85b567b6ccd41ad312451b948a7413f0a142fd40d49347",
                    "txbytes": "0xf90162800a8398987494000000000000000000000000000000000000100080b901000000000000000000000000000000000017f1d3a73197d7942695638c4fa9ac0fc3688c4f9774b905a14e3a3f171bac586c55e83ff97a1aeffb3af00adb22c6bb0000000000000000000000000000000008b3f481e3aaa0f1a09e30ed741d8ae4fcf5e095d5d00af600db18cb2c04b3edd03cc744a2888ae40caa232946c5e7e10000000000000000000000000000000017f1d3a73197d7942695638c4fa9ac0fc3688c4f9774b905a14e3a3f171bac586c55e83ff97a1aeffb3af00adb22c6bb00000000000000000000000000000000114d1d6855d545a8aa7d76c8cf2e21f267816aef1db507c96655b9d5caac42364e6f38ba0ecb751bad54dcd6b939c2ca26a0e4c0106bcab376e9138372248a830abfd46b6d9df35e8400f98db4de81690693a04e4fdd464894e47e68cd1fd8244290a88dbc241b841e4a5c4e502ac075a2d382",
                    "indexes": {
                        "data": 0,
                        "gas": 0,
                        "value": 0
                    }
                }
            ]
        },
        "_info": {
            "hash": "0xa6977f7f40429bd7c67befef8a50aea516a061027020d32dd0fdd800f304498c",
            "comment": "`execution-spec-tests` generated test",
            "filling-transition-tool": "Hyperledger Besu evm 24.9-develop-beaee59",
            "description": "Test function documentation:\n\n    Test the BLS12_G1ADD precompile.",
            "url": "https://github.com/ethereum/execution-spec-tests/blob/eip7692@v1.1.0/tests/prague/eip2537_bls_12_381_precompiles/test_bls12_g1add.py#L24",
            "reference-spec": "https://github.com/ethereum/EIPs/blob/master/EIPS/eip-2537.md",
            "reference-spec-version": "cd0f016ad0c4c68b8b1f5c502ef61ab9353b6e5e"
        }
    },
    "tests/prague/eip2537_bls_12_381_precompiles/test_bls12_g1add.py::test_valid[fork_PragueEIP7692-state_test-bls_g1add_(p1-p1=0)-]": {
        "env": {
            "currentCoinbase": "0x2adc25665018aa1fe0e6bc666dac8fc2697ff9ba",
            "currentGasLimit": "0x016345785d8a0000",
            "currentNumber": "0x01",
            "currentTimestamp": "0x03e8",
            "currentRandom": "0x0000000000000000000000000000000000000000000000000000000000000000",
            "currentDifficulty": "0x00",
            "currentBaseFee": "0x07",
            "currentExcessBlobGas": "0x00"
        },
        "pre": {
            "0x0000000000000000000000000000000000001000": {
                "nonce": "0x01",
                "balance": "0x00",
                "code": "0x366000600037600060003660006000600b6101f4f16000553d6001553d600060003e3d600020600255",
                "storage": {}
            },
            "0xa94f5374fce5edbc8e2a8697c15331677e6ebf0b": {
                "nonce": "0x00",
                "balance": "0x038d7ea4c68000",
                "code": "0x",
                "storage": {}
            }
        },
        "transaction": {
            "nonce": "0x00",
            "gasPrice": "0x0a",
            "gasLimit": [
                "0x989874"
            ],
            "to": "0x0000000000000000000000000000000000001000",
            "value": [
                "0x00"
            ],
            "data": [
                "0x00000000000000000000000000000000112b98340eee2777cc3c14163dea3ec97977ac3dc5c70da32e6e87578f44912e902ccef9efe28d4a78b8999dfbca942600000000000000000000000000000000186b28d92356c4dfec4b5201ad099dbdede3781f8998ddf929b4cd7756192185ca7b8f4ef7088f813270ac3d48868a2100000000000000000000000000000000112b98340eee2777cc3c14163dea3ec97977ac3dc5c70da32e6e87578f44912e902ccef9efe28d4a78b8999dfbca9426000000000000000000000000000000000195e911162921ba5ed055b496420f197693d36569ec34c63d7c0529a097d49e543070afba4b707e878e53c2b779208a"
            ],
            "sender": "0xa94f5374fce5edbc8e2a8697c15331677e6ebf0b",
            "secretKey": "0x45a915e4d060149eb4365960e6a7a45f334393093061116b197e3240065ff2d8"
        },
        "post": {
            "Prague": [
                {
                    "hash": "0x0bb33d02bed06b9ae176b593dcefa15ffc1c7d35b31e061d4498f0cf24055c40",
                    "logs": "0x1dcc4de8dec75d7aab85b567b6ccd41ad312451b948a7413f0a142fd40d49347",
                    "txbytes": "0xf90162800a8398987494000000000000000000000000000000000000100080b9010000000000000000000000000000000000112b98340eee2777cc3c14163dea3ec97977ac3dc5c70da32e6e87578f44912e902ccef9efe28d4a78b8999dfbca942600000000000000000000000000000000186b28d92356c4dfec4b5201ad099dbdede3781f8998ddf929b4cd7756192185ca7b8f4ef7088f813270ac3d48868a2100000000000000000000000000000000112b98340eee2777cc3c14163dea3ec97977ac3dc5c70da32e6e87578f44912e902ccef9efe28d4a78b8999dfbca9426000000000000000000000000000000000195e911162921ba5ed055b496420f197693d36569ec34c63d7c0529a097d49e543070afba4b707e878e53c2b779208a25a01b9db4bb589771ffb6a83ed7dfd94e683b5edfb563e40b0c7ec624aef218617ca0487a42f8110b1128b96e8cfbdac23de775fe32eb28abfb4db3b4333d1029588d",
                    "indexes": {
                        "data": 0,
                        "gas": 0,
                        "value": 0
                    }
                }
            ]
        },
        "_info": {
            "hash": "0xb671894bf1af5ca4d5dc7376eba2510d0a724a4eff1b1b84451e4fcbc89d7588",
            "comment": "`execution-spec-tests` generated test",
            "filling-transition-tool": "Hyperledger Besu evm 24.9-develop-beaee59",
            "description": "Test function documentation:\n\n    Test the BLS12_G1ADD precompile.",
            "url": "https://github.com/ethereum/execution-spec-tests/blob/eip7692@v1.1.0/tests/prague/eip2537_bls_12_381_precompiles/test_bls12_g1add.py#L24",
            "reference-spec": "https://github.com/ethereum/EIPs/blob/master/EIPS/eip-2537.md",
            "reference-spec-version": "cd0f016ad0c4c68b8b1f5c502ef61ab9353b6e5e"
        }
    },
    "tests/prague/eip2537_bls_12_381_precompiles/test_bls12_g1add.py::test_valid[fork_PragueEIP7692-state_test-bls_g1add_(g1+g1=2*g1)-]": {
        "env": {
            "currentCoinbase": "0x2adc25665018aa1fe0e6bc666dac8fc2697ff9ba",
            "currentGasLimit": "0x016345785d8a0000",
            "currentNumber": "0x01",
            "currentTimestamp": "0x03e8",
            "currentRandom": "0x0000000000000000000000000000000000000000000000000000000000000000",
            "currentDifficulty": "0x00",
            "currentBaseFee": "0x07",
            "currentExcessBlobGas": "0x00"
        },
        "pre": {
            "0x0000000000000000000000000000000000001000": {
                "nonce": "0x01",
                "balance": "0x00",
                "code": "0x366000600037600060003660006000600b6101f4f16000553d6001553d600060003e3d600020600255",
                "storage": {}
            },
            "0xa94f5374fce5edbc8e2a8697c15331677e6ebf0b": {
                "nonce": "0x00",
                "balance": "0x038d7ea4c68000",
                "code": "0x",
                "storage": {}
            }
        },
        "transaction": {
            "nonce": "0x00",
            "gasPrice": "0x0a",
            "gasLimit": [
                "0x989874"
            ],
            "to": "0x0000000000000000000000000000000000001000",
            "value": [
                "0x00"
            ],
            "data": [
                "0x0000000000000000000000000000000017f1d3a73197d7942695638c4fa9ac0fc3688c4f9774b905a14e3a3f171bac586c55e83ff97a1aeffb3af00adb22c6bb0000000000000000000000000000000008b3f481e3aaa0f1a09e30ed741d8ae4fcf5e095d5d00af600db18cb2c04b3edd03cc744a2888ae40caa232946c5e7e10000000000000000000000000000000017f1d3a73197d7942695638c4fa9ac0fc3688c4f9774b905a14e3a3f171bac586c55e83ff97a1aeffb3af00adb22c6bb0000000000000000000000000000000008b3f481e3aaa0f1a09e30ed741d8ae4fcf5e095d5d00af600db18cb2c04b3edd03cc744a2888ae40caa232946c5e7e1"
            ],
            "sender": "0xa94f5374fce5edbc8e2a8697c15331677e6ebf0b",
            "secretKey": "0x45a915e4d060149eb4365960e6a7a45f334393093061116b197e3240065ff2d8"
        },
        "post": {
            "Prague": [
                {
                    "hash": "0x878aa509469174daf6965b90110255ef8f1743ddc893415eab8cc7af060da24d",
                    "logs": "0x1dcc4de8dec75d7aab85b567b6ccd41ad312451b948a7413f0a142fd40d49347",
                    "txbytes": "0xf90162800a8398987494000000000000000000000000000000000000100080b901000000000000000000000000000000000017f1d3a73197d7942695638c4fa9ac0fc3688c4f9774b905a14e3a3f171bac586c55e83ff97a1aeffb3af00adb22c6bb0000000000000000000000000000000008b3f481e3aaa0f1a09e30ed741d8ae4fcf5e095d5d00af600db18cb2c04b3edd03cc744a2888ae40caa232946c5e7e10000000000000000000000000000000017f1d3a73197d7942695638c4fa9ac0fc3688c4f9774b905a14e3a3f171bac586c55e83ff97a1aeffb3af00adb22c6bb0000000000000000000000000000000008b3f481e3aaa0f1a09e30ed741d8ae4fcf5e095d5d00af600db18cb2c04b3edd03cc744a2888ae40caa232946c5e7e126a0e4e527a9fd8797970b4d98702bb473fac44cfe374d346a52d986c1cd4b778faba01d17881fa12903798e77dda0dac395de24389e8193a7e4e79f90e59504ac4b55",
                    "indexes": {
                        "data": 0,
                        "gas": 0,
                        "value": 0
                    }
                }
            ]
        },
        "_info": {
            "hash": "0xed348e9a118e892fcd160085132e609e0f38afaf2589b5538055c4b2ea9777fe",
            "comment": "`execution-spec-tests` generated test",
            "filling-transition-tool": "Hyperledger Besu evm 24.9-develop-beaee59",
            "description": "Test function documentation:\n\n    Test the BLS12_G1ADD precompile.",
            "url": "https://github.com/ethereum/execution-spec-tests/blob/eip7692@v1.1.0/tests/prague/eip2537_bls_12_381_precompiles/test_bls12_g1add.py#L24",
            "reference-spec": "https://github.com/ethereum/EIPs/blob/master/EIPS/eip-2537.md",
            "reference-spec-version": "cd0f016ad0c4c68b8b1f5c502ef61ab9353b6e5e"
        }
    },
    "tests/prague/eip2537_bls_12_381_precompiles/test_bls12_g1add.py::test_valid[fork_PragueEIP7692-state_test-bls_g1add_(p1+p1=2*p1)-]": {
        "env": {
            "currentCoinbase": "0x2adc25665018aa1fe0e6bc666dac8fc2697ff9ba",
            "currentGasLimit": "0x016345785d8a0000",
            "currentNumber": "0x01",
            "currentTimestamp": "0x03e8",
            "currentRandom": "0x0000000000000000000000000000000000000000000000000000000000000000",
            "currentDifficulty": "0x00",
            "currentBaseFee": "0x07",
            "currentExcessBlobGas": "0x00"
        },
        "pre": {
            "0x0000000000000000000000000000000000001000": {
                "nonce": "0x01",
                "balance": "0x00",
                "code": "0x366000600037600060003660006000600b6101f4f16000553d6001553d600060003e3d600020600255",
                "storage": {}
            },
            "0xa94f5374fce5edbc8e2a8697c15331677e6ebf0b": {
                "nonce": "0x00",
                "balance": "0x038d7ea4c68000",
                "code": "0x",
                "storage": {}
            }
        },
        "transaction": {
            "nonce": "0x00",
            "gasPrice": "0x0a",
            "gasLimit": [
                "0x989874"
            ],
            "to": "0x0000000000000000000000000000000000001000",
            "value": [
                "0x00"
            ],
            "data": [
                "0x00000000000000000000000000000000112b98340eee2777cc3c14163dea3ec97977ac3dc5c70da32e6e87578f44912e902ccef9efe28d4a78b8999dfbca942600000000000000000000000000000000186b28d92356c4dfec4b5201ad099dbdede3781f8998ddf929b4cd7756192185ca7b8f4ef7088f813270ac3d48868a2100000000000000000000000000000000112b98340eee2777cc3c14163dea3ec97977ac3dc5c70da32e6e87578f44912e902ccef9efe28d4a78b8999dfbca942600000000000000000000000000000000186b28d92356c4dfec4b5201ad099dbdede3781f8998ddf929b4cd7756192185ca7b8f4ef7088f813270ac3d48868a21"
            ],
            "sender": "0xa94f5374fce5edbc8e2a8697c15331677e6ebf0b",
            "secretKey": "0x45a915e4d060149eb4365960e6a7a45f334393093061116b197e3240065ff2d8"
        },
        "post": {
            "Prague": [
                {
                    "hash": "0x12dfe87cf3c1e52483ee0f1bda6d89912557127d38257ff9547f2c7ec98b3b7c",
                    "logs": "0x1dcc4de8dec75d7aab85b567b6ccd41ad312451b948a7413f0a142fd40d49347",
                    "txbytes": "0xf90162800a8398987494000000000000000000000000000000000000100080b9010000000000000000000000000000000000112b98340eee2777cc3c14163dea3ec97977ac3dc5c70da32e6e87578f44912e902ccef9efe28d4a78b8999dfbca942600000000000000000000000000000000186b28d92356c4dfec4b5201ad099dbdede3781f8998ddf929b4cd7756192185ca7b8f4ef7088f813270ac3d48868a2100000000000000000000000000000000112b98340eee2777cc3c14163dea3ec97977ac3dc5c70da32e6e87578f44912e902ccef9efe28d4a78b8999dfbca942600000000000000000000000000000000186b28d92356c4dfec4b5201ad099dbdede3781f8998ddf929b4cd7756192185ca7b8f4ef7088f813270ac3d48868a2125a0420a06fa5b6e8b6953de7118f8e85924ed9f464c289f2da40e876fcc1acbd897a005a552a2c21a010f998557924d3418674ecdc1fc3e24f8dced38fe6cd52ae56b",
                    "indexes": {
                        "data": 0,
                        "gas": 0,
                        "value": 0
                    }
                }
            ]
        },
        "_info": {
            "hash": "0x806c74de20ed88a15a860cb187b2b12e366229b43054f7d873abf884fb51f3fd",
            "comment": "`execution-spec-tests` generated test",
            "filling-transition-tool": "Hyperledger Besu evm 24.9-develop-beaee59",
            "description": "Test function documentation:\n\n    Test the BLS12_G1ADD precompile.",
            "url": "https://github.com/ethereum/execution-spec-tests/blob/eip7692@v1.1.0/tests/prague/eip2537_bls_12_381_precompiles/test_bls12_g1add.py#L24",
            "reference-spec": "https://github.com/ethereum/EIPs/blob/master/EIPS/eip-2537.md",
            "reference-spec-version": "cd0f016ad0c4c68b8b1f5c502ef61ab9353b6e5e"
        }
    },
    "tests/prague/eip2537_bls_12_381_precompiles/test_bls12_g1add.py::test_valid[fork_PragueEIP7692-state_test-inf_plus_inf-]": {
        "env": {
            "currentCoinbase": "0x2adc25665018aa1fe0e6bc666dac8fc2697ff9ba",
            "currentGasLimit": "0x016345785d8a0000",
            "currentNumber": "0x01",
            "currentTimestamp": "0x03e8",
            "currentRandom": "0x0000000000000000000000000000000000000000000000000000000000000000",
            "currentDifficulty": "0x00",
            "currentBaseFee": "0x07",
            "currentExcessBlobGas": "0x00"
        },
        "pre": {
            "0x0000000000000000000000000000000000001000": {
                "nonce": "0x01",
                "balance": "0x00",
                "code": "0x366000600037600060003660006000600b6101f4f16000553d6001553d600060003e3d600020600255",
                "storage": {}
            },
            "0xa94f5374fce5edbc8e2a8697c15331677e6ebf0b": {
                "nonce": "0x00",
                "balance": "0x038d7ea4c68000",
                "code": "0x",
                "storage": {}
            }
        },
        "transaction": {
            "nonce": "0x00",
            "gasPrice": "0x0a",
            "gasLimit": [
                "0x989874"
            ],
            "to": "0x0000000000000000000000000000000000001000",
            "value": [
                "0x00"
            ],
            "data": [
                "0x00000000000000000000000000000000000000000000000000000000000000000000000000000000000000000000000000000000000000000000000000000000000000000000000000000000000000000000000000000000000000000000000000000000000000000000000000000000000000000000000000000000000000000000000000000000000000000000000000000000000000000000000000000000000000000000000000000000000000000000000000000000000000000000000000000000000000000000000000000000000000000000000000000000000000000000000000000000000000000000000000000000000000000000000000000000"
            ],
            "sender": "0xa94f5374fce5edbc8e2a8697c15331677e6ebf0b",
            "secretKey": "0x45a915e4d060149eb4365960e6a7a45f334393093061116b197e3240065ff2d8"
        },
        "post": {
            "Prague": [
                {
                    "hash": "0x5cb4e79061dbee0414935b99aed8eb4db759ca4d9bc857c818b520a8e8e11226",
                    "logs": "0x1dcc4de8dec75d7aab85b567b6ccd41ad312451b948a7413f0a142fd40d49347",
                    "txbytes": "0xf90162800a8398987494000000000000000000000000000000000000100080b901000000000000000000000000000000000000000000000000000000000000000000000000000000000000000000000000000000000000000000000000000000000000000000000000000000000000000000000000000000000000000000000000000000000000000000000000000000000000000000000000000000000000000000000000000000000000000000000000000000000000000000000000000000000000000000000000000000000000000000000000000000000000000000000000000000000000000000000000000000000000000000000000000000000000000000000000000000000000000000000000000000000000000000000000000000000026a05945f4ac2b4d0e3040eb5b7473aeeb6cdceec63b6695dbf3b3b018f9f88bc2a1a012e77e347c6e3d67beb5a1e9dbbf141813fdc78ffa421a46732c06931115c826",
                    "indexes": {
                        "data": 0,
                        "gas": 0,
                        "value": 0
                    }
                }
            ]
        },
        "_info": {
            "hash": "0x58e18a62d775de0943b7beb043f2177af8f27ae2f202c5e4d06edfffa06e93f6",
            "comment": "`execution-spec-tests` generated test",
            "filling-transition-tool": "Hyperledger Besu evm 24.9-develop-beaee59",
            "description": "Test function documentation:\n\n    Test the BLS12_G1ADD precompile.",
            "url": "https://github.com/ethereum/execution-spec-tests/blob/eip7692@v1.1.0/tests/prague/eip2537_bls_12_381_precompiles/test_bls12_g1add.py#L24",
            "reference-spec": "https://github.com/ethereum/EIPs/blob/master/EIPS/eip-2537.md",
            "reference-spec-version": "cd0f016ad0c4c68b8b1f5c502ef61ab9353b6e5e"
        }
    },
    "tests/prague/eip2537_bls_12_381_precompiles/test_bls12_g1add.py::test_valid[fork_PragueEIP7692-state_test-not_in_subgroup_1-]": {
        "env": {
            "currentCoinbase": "0x2adc25665018aa1fe0e6bc666dac8fc2697ff9ba",
            "currentGasLimit": "0x016345785d8a0000",
            "currentNumber": "0x01",
            "currentTimestamp": "0x03e8",
            "currentRandom": "0x0000000000000000000000000000000000000000000000000000000000000000",
            "currentDifficulty": "0x00",
            "currentBaseFee": "0x07",
            "currentExcessBlobGas": "0x00"
        },
        "pre": {
            "0x0000000000000000000000000000000000001000": {
                "nonce": "0x01",
                "balance": "0x00",
                "code": "0x366000600037600060003660006000600b6101f4f16000553d6001553d600060003e3d600020600255",
                "storage": {}
            },
            "0xa94f5374fce5edbc8e2a8697c15331677e6ebf0b": {
                "nonce": "0x00",
                "balance": "0x038d7ea4c68000",
                "code": "0x",
                "storage": {}
            }
        },
        "transaction": {
            "nonce": "0x00",
            "gasPrice": "0x0a",
            "gasLimit": [
                "0x989874"
            ],
            "to": "0x0000000000000000000000000000000000001000",
            "value": [
                "0x00"
            ],
            "data": [
                "0x00000000000000000000000000000000000000000000000000000000000000000000000000000000000000000000000000000000000000000000000000000000000000000000000000000000000000000000000000000000000000000000000000000000000000000000000000000000000000000000000000000000000000020000000000000000000000000000000000000000000000000000000000000000000000000000000000000000000000000000000000000000000000000000000000000000000000000000000000000000000000000000000000000000000000000000000000000000000000000000000000000000000000000000000000000002"
            ],
            "sender": "0xa94f5374fce5edbc8e2a8697c15331677e6ebf0b",
            "secretKey": "0x45a915e4d060149eb4365960e6a7a45f334393093061116b197e3240065ff2d8"
        },
        "post": {
            "Prague": [
                {
                    "hash": "0xd75b66eeb1307e8629596c5d62cecf5e7ad53a195b35da99cf9935dbfa26f524",
                    "logs": "0x1dcc4de8dec75d7aab85b567b6ccd41ad312451b948a7413f0a142fd40d49347",
                    "txbytes": "0xf90162800a8398987494000000000000000000000000000000000000100080b901000000000000000000000000000000000000000000000000000000000000000000000000000000000000000000000000000000000000000000000000000000000000000000000000000000000000000000000000000000000000000000000000000000000000000000000000000000000000000000000000000000000000000002000000000000000000000000000000000000000000000000000000000000000000000000000000000000000000000000000000000000000000000000000000000000000000000000000000000000000000000000000000000000000000000000000000000000000000000000000000000000000000000000000000000000000225a04197958b4f2237cbc4fd7d2b56d9a19a1785d222ace07a3f129de507dee56d75a02d2195a092eaa0a707d9b2feb0735a4ac16d1238382abe7727f109126bb7a090",
                    "indexes": {
                        "data": 0,
                        "gas": 0,
                        "value": 0
                    }
                }
            ]
        },
        "_info": {
            "hash": "0x16dbfcb715db3c7400e3148463f4a8a45b57b129d617d76e7fbe20a38cf64e21",
            "comment": "`execution-spec-tests` generated test",
            "filling-transition-tool": "Hyperledger Besu evm 24.9-develop-beaee59",
            "description": "Test function documentation:\n\n    Test the BLS12_G1ADD precompile.",
            "url": "https://github.com/ethereum/execution-spec-tests/blob/eip7692@v1.1.0/tests/prague/eip2537_bls_12_381_precompiles/test_bls12_g1add.py#L24",
            "reference-spec": "https://github.com/ethereum/EIPs/blob/master/EIPS/eip-2537.md",
            "reference-spec-version": "cd0f016ad0c4c68b8b1f5c502ef61ab9353b6e5e"
        }
    },
    "tests/prague/eip2537_bls_12_381_precompiles/test_bls12_g1add.py::test_valid[fork_PragueEIP7692-state_test-not_in_subgroup_2-]": {
        "env": {
            "currentCoinbase": "0x2adc25665018aa1fe0e6bc666dac8fc2697ff9ba",
            "currentGasLimit": "0x016345785d8a0000",
            "currentNumber": "0x01",
            "currentTimestamp": "0x03e8",
            "currentRandom": "0x0000000000000000000000000000000000000000000000000000000000000000",
            "currentDifficulty": "0x00",
            "currentBaseFee": "0x07",
            "currentExcessBlobGas": "0x00"
        },
        "pre": {
            "0x0000000000000000000000000000000000001000": {
                "nonce": "0x01",
                "balance": "0x00",
                "code": "0x366000600037600060003660006000600b6101f4f16000553d6001553d600060003e3d600020600255",
                "storage": {}
            },
            "0xa94f5374fce5edbc8e2a8697c15331677e6ebf0b": {
                "nonce": "0x00",
                "balance": "0x038d7ea4c68000",
                "code": "0x",
                "storage": {}
            }
        },
        "transaction": {
            "nonce": "0x00",
            "gasPrice": "0x0a",
            "gasLimit": [
                "0x989874"
            ],
            "to": "0x0000000000000000000000000000000000001000",
            "value": [
                "0x00"
            ],
            "data": [
                "0x000000000000000000000000000000000000000000000000000000000000000000000000000000000000000000000000000000000000000000000000000000000000000000000000000000000000000000000000000000000000000000000000000000000000000000000000000000000000000000000000000000000000000200000000000000000000000000000000000000000000000000000000000000000000000000000000000000000000000000000000000000000000000000000000000000000000000000000000000000001a0111ea397fe69a4b1ba7b6434bacd764774b84f38512bf6730d2a0f6b0f6241eabfffeb153ffffb9feffffffffaaa9"
            ],
            "sender": "0xa94f5374fce5edbc8e2a8697c15331677e6ebf0b",
            "secretKey": "0x45a915e4d060149eb4365960e6a7a45f334393093061116b197e3240065ff2d8"
        },
        "post": {
            "Prague": [
                {
                    "hash": "0x5ca641eb7d17c1f2eb0aec1a48117906f9079f4eebf129d1e482c024eabc4946",
                    "logs": "0x1dcc4de8dec75d7aab85b567b6ccd41ad312451b948a7413f0a142fd40d49347",
                    "txbytes": "0xf90162800a8398987494000000000000000000000000000000000000100080b90100000000000000000000000000000000000000000000000000000000000000000000000000000000000000000000000000000000000000000000000000000000000000000000000000000000000000000000000000000000000000000000000000000000000000000000000000000000000000000000000000000000000000000200000000000000000000000000000000000000000000000000000000000000000000000000000000000000000000000000000000000000000000000000000000000000000000000000000000000000001a0111ea397fe69a4b1ba7b6434bacd764774b84f38512bf6730d2a0f6b0f6241eabfffeb153ffffb9feffffffffaaa926a04872afd9e27557d8af2fb2151b3f8b485b8607e2d18a5549fd884d9b986890f8a028a141e07642de47d150c5885946bc24c0eed5d27e1a9a8ec22cf54389c74ac0",
                    "indexes": {
                        "data": 0,
                        "gas": 0,
                        "value": 0
                    }
                }
            ]
        },
        "_info": {
            "hash": "0xd6d4599658e0677f206f3b99649587d9571d9ad83896e3eb287753ce972902b6",
            "comment": "`execution-spec-tests` generated test",
            "filling-transition-tool": "Hyperledger Besu evm 24.9-develop-beaee59",
            "description": "Test function documentation:\n\n    Test the BLS12_G1ADD precompile.",
            "url": "https://github.com/ethereum/execution-spec-tests/blob/eip7692@v1.1.0/tests/prague/eip2537_bls_12_381_precompiles/test_bls12_g1add.py#L24",
            "reference-spec": "https://github.com/ethereum/EIPs/blob/master/EIPS/eip-2537.md",
            "reference-spec-version": "cd0f016ad0c4c68b8b1f5c502ef61ab9353b6e5e"
        }
    }
}