{
    "000-fork=Berlin": {
        "_info": {
            "filling-transition-tool": "evm version 1.13.0-unstable-998b2182-20230919",
            "reference-spec": "https://github.com/ethereum/EIPs/blob/master/EIPS/eip-2930.md",
            "reference-spec-version": "c9db53a936c5c9cbe2db32ba0d1b86c4c6e73534"
        },
        "network": "Berlin",
        "genesisRLP": "0xf901fdf901f8a00000000000000000000000000000000000000000000000000000000000000000a01dcc4de8dec75d7aab85b567b6ccd41ad312451b948a7413f0a142fd40d49347940000000000000000000000000000000000000000a07ca5207156b9c65aca3ac89e905f0ec30da7588118ca729dc4284db2c4b45c60a056e81f171bcc55a6ff8345e692c0f86e5b48e01b996cadc001622fb5e363b421a056e81f171bcc55a6ff8345e692c0f86e5b48e01b996cadc001622fb5e363b421b9010000000000000000000000000000000000000000000000000000000000000000000000000000000000000000000000000000000000000000000000000000000000000000000000000000000000000000000000000000000000000000000000000000000000000000000000000000000000000000000000000000000000000000000000000000000000000000000000000000000000000000000000000000000000000000000000000000000000000000000000000000000000000000000000000000000000000000000000000000000000000000000000000000000000000000000000000000000000000000000000000000000000000000000000000000000000830200008088016345785d8a0000808000a00000000000000000000000000000000000000000000000000000000000000000880000000000000000c0c0",
        "genesisBlockHeader": {
            "parentHash": "0x0000000000000000000000000000000000000000000000000000000000000000",
            "uncleHash": "0x1dcc4de8dec75d7aab85b567b6ccd41ad312451b948a7413f0a142fd40d49347",
            "coinbase": "0x0000000000000000000000000000000000000000",
            "stateRoot": "0x7ca5207156b9c65aca3ac89e905f0ec30da7588118ca729dc4284db2c4b45c60",
            "transactionsTrie": "0x56e81f171bcc55a6ff8345e692c0f86e5b48e01b996cadc001622fb5e363b421",
            "receiptTrie": "0x56e81f171bcc55a6ff8345e692c0f86e5b48e01b996cadc001622fb5e363b421",
            "bloom": "0x00000000000000000000000000000000000000000000000000000000000000000000000000000000000000000000000000000000000000000000000000000000000000000000000000000000000000000000000000000000000000000000000000000000000000000000000000000000000000000000000000000000000000000000000000000000000000000000000000000000000000000000000000000000000000000000000000000000000000000000000000000000000000000000000000000000000000000000000000000000000000000000000000000000000000000000000000000000000000000000000000000000000000000000000000000000",
            "difficulty": "0x020000",
            "number": "0x00",
            "gasLimit": "0x016345785d8a0000",
            "gasUsed": "0x00",
            "timestamp": "0x00",
            "extraData": "0x00",
            "mixHash": "0x0000000000000000000000000000000000000000000000000000000000000000",
            "nonce": "0x0000000000000000",
            "hash": "0xe540ee23594e55591795578f92e1e70e1f4c4e4b22f6046f350ae3ce49d42b41"
        },
        "blocks": [
            {
                "rlp": "0xf902a2f901fca0e540ee23594e55591795578f92e1e70e1f4c4e4b22f6046f350ae3ce49d42b41a01dcc4de8dec75d7aab85b567b6ccd41ad312451b948a7413f0a142fd40d49347942adc25665018aa1fe0e6bc666dac8fc2697ff9baa051799508f764047aee6606bc6a00863856f83ee5b91555f00c8a3cbdfbec5acba083036377ab0b67bd49b91ee1f4bbf5155c36ebf76f81ed88a00276f21693e92ca0c166d1f62ef90bdef78d79a4b28579b279621fbcd156aba3060f242d5feeda67b9010000000000000000000000000000000000000000000000000000000000000000000000000000000000000000000000000000000000000000000000000000000000000000000000000000000000000000000000000000000000000000000000000000000000000000000000000000000000000000000000000000000000000000000000000000000000000000000000000000000000000000000000000000000000000000000000000000000000000000000000000000000000000000000000000000000000000000000000000000000000000000000000000000000000000000000000000000000000000000000000000000000000000000000000000000000000830200000188016345785d8a00008273428203e800a00000000000000000000000000000000000000000000000000000000000000000880000000000000000f8a0b89e01f89b0180078304ef0094000000000000000000000000000000000000aaaa0180f838f7940000000000000000000000000000000000000000e1a0000000000000000000000000000000000000000000000000000000000000000001a02e16eb72206c93c471b5894800495ee9c64ae2d9823bcc4d6adeb5d9d9af0dd4a03be6691e933a0816c59d059a556c27c6753e6ce76d1e357b9201865c80b28df3c0",
                "blockHeader": {
                    "parentHash": "0xe540ee23594e55591795578f92e1e70e1f4c4e4b22f6046f350ae3ce49d42b41",
                    "uncleHash": "0x1dcc4de8dec75d7aab85b567b6ccd41ad312451b948a7413f0a142fd40d49347",
                    "coinbase": "0x2adc25665018aa1fe0e6bc666dac8fc2697ff9ba",
                    "stateRoot": "0x51799508f764047aee6606bc6a00863856f83ee5b91555f00c8a3cbdfbec5acb",
                    "transactionsTrie": "0x83036377ab0b67bd49b91ee1f4bbf5155c36ebf76f81ed88a00276f21693e92c",
                    "receiptTrie": "0xc166d1f62ef90bdef78d79a4b28579b279621fbcd156aba3060f242d5feeda67",
                    "bloom": "0x00000000000000000000000000000000000000000000000000000000000000000000000000000000000000000000000000000000000000000000000000000000000000000000000000000000000000000000000000000000000000000000000000000000000000000000000000000000000000000000000000000000000000000000000000000000000000000000000000000000000000000000000000000000000000000000000000000000000000000000000000000000000000000000000000000000000000000000000000000000000000000000000000000000000000000000000000000000000000000000000000000000000000000000000000000000",
                    "difficulty": "0x020000",
                    "number": "0x01",
                    "gasLimit": "0x016345785d8a0000",
                    "gasUsed": "0x7342",
                    "timestamp": "0x03e8",
                    "extraData": "0x00",
                    "mixHash": "0x0000000000000000000000000000000000000000000000000000000000000000",
                    "nonce": "0x0000000000000000",
                    "hash": "0x0b2f11e1a37119802e23c8cafeca6bea3ad8bc3ffb312ba2c01aaf6ed0598ea6"
                },
                "transactions": [
                    {
                        "type": "0x01",
                        "chainId": "0x01",
                        "nonce": "0x00",
                        "gasPrice": "0x07",
                        "gasLimit": "0x04ef00",
                        "to": "0x000000000000000000000000000000000000aaaa",
                        "value": "0x01",
                        "data": "0x",
                        "accessList": [
                            {
                                "address": "0x0000000000000000000000000000000000000000",
                                "storageKeys": [
                                    "0x0000000000000000000000000000000000000000000000000000000000000000"
                                ]
                            }
                        ],
                        "v": "0x01",
                        "r": "0x2e16eb72206c93c471b5894800495ee9c64ae2d9823bcc4d6adeb5d9d9af0dd4",
                        "s": "0x3be6691e933a0816c59d059a556c27c6753e6ce76d1e357b9201865c80b28df3",
                        "sender": "0xa94f5374fce5edbc8e2a8697c15331677e6ebf0b"
                    }
                ],
                "uncleHeaders": []
            }
        ],
        "lastblockhash": "0x0b2f11e1a37119802e23c8cafeca6bea3ad8bc3ffb312ba2c01aaf6ed0598ea6",
        "pre": {
            "0x000000000000000000000000000000000000aaaa": {
                "nonce": "0x01",
                "balance": "0x03",
                "code": "0x5854505854",
                "storage": {}
            },
            "0xa94f5374fce5edbc8e2a8697c15331677e6ebf0b": {
                "nonce": "0x00",
                "balance": "0x300000",
                "code": "0x",
                "storage": {}
            }
        },
        "postState": {
            "0x000000000000000000000000000000000000aaaa": {
                "nonce": "0x01",
                "balance": "0x04",
                "code": "0x5854505854",
                "storage": {}
            },
            "0x2adc25665018aa1fe0e6bc666dac8fc2697ff9ba": {
                "nonce": "0x00",
                "balance": "0x1bc16d674ecb26ce",
                "code": "0x",
                "storage": {}
            },
            "0xa94f5374fce5edbc8e2a8697c15331677e6ebf0b": {
                "nonce": "0x01",
                "balance": "0x2cd931",
                "code": "0x",
                "storage": {}
            }
        },
        "sealEngine": "NoProof"
    },
    "001-fork=London": {
        "_info": {
            "filling-transition-tool": "evm version 1.13.0-unstable-998b2182-20230919",
            "reference-spec": "https://github.com/ethereum/EIPs/blob/master/EIPS/eip-2930.md",
            "reference-spec-version": "c9db53a936c5c9cbe2db32ba0d1b86c4c6e73534"
        },
        "network": "London",
        "genesisRLP": "0xf901fef901f9a00000000000000000000000000000000000000000000000000000000000000000a01dcc4de8dec75d7aab85b567b6ccd41ad312451b948a7413f0a142fd40d49347940000000000000000000000000000000000000000a07ca5207156b9c65aca3ac89e905f0ec30da7588118ca729dc4284db2c4b45c60a056e81f171bcc55a6ff8345e692c0f86e5b48e01b996cadc001622fb5e363b421a056e81f171bcc55a6ff8345e692c0f86e5b48e01b996cadc001622fb5e363b421b9010000000000000000000000000000000000000000000000000000000000000000000000000000000000000000000000000000000000000000000000000000000000000000000000000000000000000000000000000000000000000000000000000000000000000000000000000000000000000000000000000000000000000000000000000000000000000000000000000000000000000000000000000000000000000000000000000000000000000000000000000000000000000000000000000000000000000000000000000000000000000000000000000000000000000000000000000000000000000000000000000000000000000000000000000000000000830200008088016345785d8a0000808000a0000000000000000000000000000000000000000000000000000000000000000088000000000000000007c0c0",
        "genesisBlockHeader": {
            "parentHash": "0x0000000000000000000000000000000000000000000000000000000000000000",
            "uncleHash": "0x1dcc4de8dec75d7aab85b567b6ccd41ad312451b948a7413f0a142fd40d49347",
            "coinbase": "0x0000000000000000000000000000000000000000",
            "stateRoot": "0x7ca5207156b9c65aca3ac89e905f0ec30da7588118ca729dc4284db2c4b45c60",
            "transactionsTrie": "0x56e81f171bcc55a6ff8345e692c0f86e5b48e01b996cadc001622fb5e363b421",
            "receiptTrie": "0x56e81f171bcc55a6ff8345e692c0f86e5b48e01b996cadc001622fb5e363b421",
            "bloom": "0x00000000000000000000000000000000000000000000000000000000000000000000000000000000000000000000000000000000000000000000000000000000000000000000000000000000000000000000000000000000000000000000000000000000000000000000000000000000000000000000000000000000000000000000000000000000000000000000000000000000000000000000000000000000000000000000000000000000000000000000000000000000000000000000000000000000000000000000000000000000000000000000000000000000000000000000000000000000000000000000000000000000000000000000000000000000",
            "difficulty": "0x020000",
            "number": "0x00",
            "gasLimit": "0x016345785d8a0000",
            "gasUsed": "0x00",
            "timestamp": "0x00",
            "extraData": "0x00",
            "mixHash": "0x0000000000000000000000000000000000000000000000000000000000000000",
            "nonce": "0x0000000000000000",
            "baseFeePerGas": "0x07",
            "hash": "0xdb93bdc16193a5896b90fab6471d77faacb899c66f3f90e41bfa5a736987a8cb"
        },
        "blocks": [
            {
                "rlp": "0xf902a3f901fda0db93bdc16193a5896b90fab6471d77faacb899c66f3f90e41bfa5a736987a8cba01dcc4de8dec75d7aab85b567b6ccd41ad312451b948a7413f0a142fd40d49347942adc25665018aa1fe0e6bc666dac8fc2697ff9baa0aa7787f93658761ab396c85c2c328b327191ee8462420a8b6706fdc7d1fd26afa083036377ab0b67bd49b91ee1f4bbf5155c36ebf76f81ed88a00276f21693e92ca0c166d1f62ef90bdef78d79a4b28579b279621fbcd156aba3060f242d5feeda67b9010000000000000000000000000000000000000000000000000000000000000000000000000000000000000000000000000000000000000000000000000000000000000000000000000000000000000000000000000000000000000000000000000000000000000000000000000000000000000000000000000000000000000000000000000000000000000000000000000000000000000000000000000000000000000000000000000000000000000000000000000000000000000000000000000000000000000000000000000000000000000000000000000000000000000000000000000000000000000000000000000000000000000000000000000000000000830200000188016345785d8a00008273428203e800a0000000000000000000000000000000000000000000000000000000000000000088000000000000000007f8a0b89e01f89b0180078304ef0094000000000000000000000000000000000000aaaa0180f838f7940000000000000000000000000000000000000000e1a0000000000000000000000000000000000000000000000000000000000000000001a02e16eb72206c93c471b5894800495ee9c64ae2d9823bcc4d6adeb5d9d9af0dd4a03be6691e933a0816c59d059a556c27c6753e6ce76d1e357b9201865c80b28df3c0",
                "blockHeader": {
                    "parentHash": "0xdb93bdc16193a5896b90fab6471d77faacb899c66f3f90e41bfa5a736987a8cb",
                    "uncleHash": "0x1dcc4de8dec75d7aab85b567b6ccd41ad312451b948a7413f0a142fd40d49347",
                    "coinbase": "0x2adc25665018aa1fe0e6bc666dac8fc2697ff9ba",
                    "stateRoot": "0xaa7787f93658761ab396c85c2c328b327191ee8462420a8b6706fdc7d1fd26af",
                    "transactionsTrie": "0x83036377ab0b67bd49b91ee1f4bbf5155c36ebf76f81ed88a00276f21693e92c",
                    "receiptTrie": "0xc166d1f62ef90bdef78d79a4b28579b279621fbcd156aba3060f242d5feeda67",
                    "bloom": "0x00000000000000000000000000000000000000000000000000000000000000000000000000000000000000000000000000000000000000000000000000000000000000000000000000000000000000000000000000000000000000000000000000000000000000000000000000000000000000000000000000000000000000000000000000000000000000000000000000000000000000000000000000000000000000000000000000000000000000000000000000000000000000000000000000000000000000000000000000000000000000000000000000000000000000000000000000000000000000000000000000000000000000000000000000000000",
                    "difficulty": "0x020000",
                    "number": "0x01",
                    "gasLimit": "0x016345785d8a0000",
                    "gasUsed": "0x7342",
                    "timestamp": "0x03e8",
                    "extraData": "0x00",
                    "mixHash": "0x0000000000000000000000000000000000000000000000000000000000000000",
                    "nonce": "0x0000000000000000",
                    "baseFeePerGas": "0x07",
                    "hash": "0x8c7a047db9fb186f2ecdcc0c438948ddf32ddf1c3d851fc868cb835870268a47"
                },
                "transactions": [
                    {
                        "type": "0x01",
                        "chainId": "0x01",
                        "nonce": "0x00",
                        "gasPrice": "0x07",
                        "gasLimit": "0x04ef00",
                        "to": "0x000000000000000000000000000000000000aaaa",
                        "value": "0x01",
                        "data": "0x",
                        "accessList": [
                            {
                                "address": "0x0000000000000000000000000000000000000000",
                                "storageKeys": [
                                    "0x0000000000000000000000000000000000000000000000000000000000000000"
                                ]
                            }
                        ],
                        "v": "0x01",
                        "r": "0x2e16eb72206c93c471b5894800495ee9c64ae2d9823bcc4d6adeb5d9d9af0dd4",
                        "s": "0x3be6691e933a0816c59d059a556c27c6753e6ce76d1e357b9201865c80b28df3",
                        "sender": "0xa94f5374fce5edbc8e2a8697c15331677e6ebf0b"
                    }
                ],
                "uncleHeaders": []
            }
        ],
        "lastblockhash": "0x8c7a047db9fb186f2ecdcc0c438948ddf32ddf1c3d851fc868cb835870268a47",
        "pre": {
            "0x000000000000000000000000000000000000aaaa": {
                "nonce": "0x01",
                "balance": "0x03",
                "code": "0x5854505854",
                "storage": {}
            },
            "0xa94f5374fce5edbc8e2a8697c15331677e6ebf0b": {
                "nonce": "0x00",
                "balance": "0x300000",
                "code": "0x",
                "storage": {}
            }
        },
        "postState": {
            "0x000000000000000000000000000000000000aaaa": {
                "nonce": "0x01",
                "balance": "0x04",
                "code": "0x5854505854",
                "storage": {}
            },
            "0x2adc25665018aa1fe0e6bc666dac8fc2697ff9ba": {
                "nonce": "0x00",
                "balance": "0x1bc16d674ec80000",
                "code": "0x",
                "storage": {}
            },
            "0xa94f5374fce5edbc8e2a8697c15331677e6ebf0b": {
                "nonce": "0x01",
                "balance": "0x2cd931",
                "code": "0x",
                "storage": {}
            }
        },
        "sealEngine": "NoProof"
    }
}