{
    "tests/prague/eip7692_eof_v1/eip3540_eof_v1/test_extcode.py::test_legacy_calls_eof_sstore[fork_CancunEIP7692-blockchain_test_hive]": {
        "network": "Prague",
        "genesisBlockHeader": {
            "parentHash": "0x0000000000000000000000000000000000000000000000000000000000000000",
            "uncleHash": "0x1dcc4de8dec75d7aab85b567b6ccd41ad312451b948a7413f0a142fd40d49347",
            "coinbase": "0x0000000000000000000000000000000000000000",
            "stateRoot": "0x65f1e2476dcfd1b05350e483e2d28b72055fa7eecac995a2a2071c44ef52d56c",
            "transactionsTrie": "0x56e81f171bcc55a6ff8345e692c0f86e5b48e01b996cadc001622fb5e363b421",
            "receiptTrie": "0x56e81f171bcc55a6ff8345e692c0f86e5b48e01b996cadc001622fb5e363b421",
            "bloom": "0x00000000000000000000000000000000000000000000000000000000000000000000000000000000000000000000000000000000000000000000000000000000000000000000000000000000000000000000000000000000000000000000000000000000000000000000000000000000000000000000000000000000000000000000000000000000000000000000000000000000000000000000000000000000000000000000000000000000000000000000000000000000000000000000000000000000000000000000000000000000000000000000000000000000000000000000000000000000000000000000000000000000000000000000000000000000",
            "difficulty": "0x00",
            "number": "0x00",
            "gasLimit": "0x016345785d8a0000",
            "gasUsed": "0x00",
            "timestamp": "0x00",
            "extraData": "0x00",
            "mixHash": "0x0000000000000000000000000000000000000000000000000000000000000000",
            "nonce": "0x0000000000000000",
            "baseFeePerGas": "0x07",
            "withdrawalsRoot": "0x56e81f171bcc55a6ff8345e692c0f86e5b48e01b996cadc001622fb5e363b421",
            "blobGasUsed": "0x00",
            "excessBlobGas": "0x00",
            "parentBeaconBlockRoot": "0x0000000000000000000000000000000000000000000000000000000000000000",
            "hash": "0x0b41fa7c93b1292cab2b149089fe3f09a9657ec6481540523fa6abb938b8b47e"
        },
        "pre": {
            "0x000f3df6d732807ef1319fb7b8bb8522d0beac02": {
                "nonce": "0x01",
                "balance": "0x00",
                "code": "0x3373fffffffffffffffffffffffffffffffffffffffe14604d57602036146024575f5ffd5b5f35801560495762001fff810690815414603c575f5ffd5b62001fff01545f5260205ff35b5f5ffd5b62001fff42064281555f359062001fff015500",
                "storage": {}
            },
            "0x0000000000000000000000000000000000001000": {
                "nonce": "0x01",
                "balance": "0x00",
                "code": "0xef000101000402000100040400000000800000e0000000",
                "storage": {}
            },
            "0x0000000000000000000000000000000000001100": {
                "nonce": "0x01",
                "balance": "0x00",
                "code": "0x60025b00",
                "storage": {}
            },
            "0x0000000000000000000000000000000000001200": {
                "nonce": "0x01",
                "balance": "0x00",
                "code": "0x7300000000000000000000000000000000000011003b6000557300000000000000000000000000000000000011003b600060007300000000000000000000000000000000000011003c6000516001557300000000000000000000000000000000000011003f6002557300000000000000000000000000000000000010003b6003557300000000000000000000000000000000000010003b600060207300000000000000000000000000000000000010003c6020516004557300000000000000000000000000000000000010003f600555",
                "storage": {}
            },
            "0xa94f5374fce5edbc8e2a8697c15331677e6ebf0b": {
                "nonce": "0x00",
                "balance": "0x3635c9adc5dea00000",
                "code": "0x",
                "storage": {}
            }
        },
        "postState": {
            "0x0000000000000000000000000000000000001000": {
                "nonce": "0x01",
                "balance": "0x00",
                "code": "0xef000101000402000100040400000000800000e0000000",
                "storage": {}
            },
            "0x0000000000000000000000000000000000001100": {
                "nonce": "0x01",
                "balance": "0x00",
                "code": "0x60025b00",
                "storage": {}
            },
            "0x0000000000000000000000000000000000001200": {
                "nonce": "0x01",
                "balance": "0x00",
                "code": "0x7300000000000000000000000000000000000011003b6000557300000000000000000000000000000000000011003b600060007300000000000000000000000000000000000011003c6000516001557300000000000000000000000000000000000011003f6002557300000000000000000000000000000000000010003b6003557300000000000000000000000000000000000010003b600060207300000000000000000000000000000000000010003c6020516004557300000000000000000000000000000000000010003f600555",
                "storage": {
                    "0x00": "0x04",
                    "0x01": "0x60025b0000000000000000000000000000000000000000000000000000000000",
                    "0x02": "0x854774aba1a837412a610c9fb4e2aa1340700b9d0073a74476b5ea0d7856da7c",
                    "0x03": "0x02",
                    "0x04": "0xef00000000000000000000000000000000000000000000000000000000000000",
                    "0x05": "0x9dbf3648db8210552e9c4f75c6a1c3057c0ca432043bd648be15fe7be05646f5"
                }
            },
            "0x000f3df6d732807ef1319fb7b8bb8522d0beac02": {
                "nonce": "0x01",
                "balance": "0x00",
                "code": "0x3373fffffffffffffffffffffffffffffffffffffffe14604d57602036146024575f5ffd5b5f35801560495762001fff810690815414603c575f5ffd5b62001fff01545f5260205ff35b5f5ffd5b62001fff42064281555f359062001fff015500",
                "storage": {
                    "0x03e8": "0x03e8"
                }
            },
            "0x2adc25665018aa1fe0e6bc666dac8fc2697ff9ba": {
                "nonce": "0x00",
                "balance": "0x074ce2",
                "code": "0x",
                "storage": {}
            },
            "0xa94f5374fce5edbc8e2a8697c15331677e6ebf0b": {
                "nonce": "0x01",
                "balance": "0x3635c9adc5de87aa64",
                "code": "0x",
                "storage": {}
            }
        },
        "engineNewPayloads": [
            {
                "executionPayload": {
                    "parentHash": "0x0b41fa7c93b1292cab2b149089fe3f09a9657ec6481540523fa6abb938b8b47e",
                    "feeRecipient": "0x2adc25665018aa1fe0e6bc666dac8fc2697ff9ba",
                    "stateRoot": "0x75813731ab796b28d3d97acccbedf8a3bb8a635e7bde2d3a8b9252503a9ec946",
                    "receiptsRoot": "0x0f0dea4e65d8eb0b24937e16086941a9c95964d03994f17610174656db323aa6",
                    "logsBloom": "0x00000000000000000000000000000000000000000000000000000000000000000000000000000000000000000000000000000000000000000000000000000000000000000000000000000000000000000000000000000000000000000000000000000000000000000000000000000000000000000000000000000000000000000000000000000000000000000000000000000000000000000000000000000000000000000000000000000000000000000000000000000000000000000000000000000000000000000000000000000000000000000000000000000000000000000000000000000000000000000000000000000000000000000000000000000000",
                    "blockNumber": "0x1",
                    "gasLimit": "0x16345785d8a0000",
                    "gasUsed": "0x26ef6",
                    "timestamp": "0x3e8",
                    "extraData": "0x00",
                    "prevRandao": "0x0000000000000000000000000000000000000000000000000000000000000000",
                    "baseFeePerGas": "0x7",
                    "blobGasUsed": "0x0",
                    "excessBlobGas": "0x0",
                    "blockHash": "0x04893b737c9437ab04c040085d9029ec28e0031ff1db4a3949a4d1b5c0bb14d3",
                    "transactions": [
                        "0xf861800a8402faf08094000000000000000000000000000000000000120080801ca0a1e643d63381920366e4a3c8585ea62b0b5129c5068e82c1ab925755a312300ca0478ccccc7869805668c19a8e84adef75e29a9f02556255d04768e325bdeef4b0"
                    ],
                    "withdrawals": []
                },
                "version": "3",
                "expectedBlobVersionedHashes": [],
                "parentBeaconBlockRoot": "0x0000000000000000000000000000000000000000000000000000000000000000"
            }
        ],
        "engineFcuVersion": "3",
        "_info": {
            "hash": "0x4b9322b27a1e61fb89eedbaa2118fa2cafe3fc53bc7d7a49d23cfdd23fb8d929",
            "comment": "`execution-spec-tests` generated test",
            "filling-transition-tool": "evmone-t8n 0.12.0-dev+commit.85a89e56",
            "description": "Test function documentation:\nTest EXTCODE* opcodes calling EOF and legacy contracts",
            "url": "https://github.com/ethereum/execution-spec-tests/blob/eip7692@v1.0.4/tests/prague/eip7692_eof_v1/eip3540_eof_v1/test_extcode.py#L19",
            "reference-spec": "https://github.com/ethereum/EIPs/blob/master/EIPS/eip-4750.md",
            "reference-spec-version": "90f716078d0b08ce508a1e57803f885cc2f2e15e"
        }
    }
}