{
    "tests/prague/eip7692_eof_v1/eip7069_extcall/test_returndataload.py::test_returndatacopy_handling[fork_PragueEIP7692-state_test-size_30-offset_30-len_30-EXTCALL]": {
        "env": {
            "currentCoinbase": "0x2adc25665018aa1fe0e6bc666dac8fc2697ff9ba",
            "currentGasLimit": "0x016345785d8a0000",
            "currentNumber": "0x01",
            "currentTimestamp": "0x03e8",
            "currentRandom": "0x0000000000000000000000000000000000000000000000000000000000000000",
            "currentDifficulty": "0x00",
            "currentBaseFee": "0x07",
            "currentExcessBlobGas": "0x00"
        },
        "pre": {
            "0xa94f5374fce5edbc8e2a8697c15331677e6ebf0b": {
                "nonce": "0x00",
                "balance": "0x0de0b6b3a7640000",
                "code": "0x",
                "storage": {}
            },
            "0x0000000000000000000000000000000000001000": {
                "nonce": "0x01",
                "balance": "0x00",
                "code": "0xef0001010004020001000a0400300000800003d260006000d3d26000f3303030303030303030303030303030303030303030303030303030303030303030303030303030303030303030303030",
                "storage": {}
            },
            "0x0000000000000000000000000000000000001100": {
                "nonce": "0x01",
                "balance": "0x00",
                "code": "0xef0001010004020001001c0400000000800004600060006000611000f86030603060003e61201560015560306000f3",
                "storage": {}
            },
            "0x0000000000000000000000000000000000001200": {
                "nonce": "0x01",
                "balance": "0x00",
                "code": "0x5b7fffffffffffffffffffffffffffffffffffffffffffffffffffffffffffffffff6000527fffffffffffffffffffffffffffffffffffffffffffffffffffffffffffffffff6020526000600060006000611100620f4240f43d600060003e600051611000556020516110015561201560015500",
                "storage": {}
            }
        },
        "transaction": {
            "nonce": "0x00",
            "gasPrice": "0x0a",
            "gasLimit": [
                "0x1e8480"
            ],
            "to": "0x0000000000000000000000000000000000001200",
            "value": [
                "0x00"
            ],
            "data": [
                "0x"
            ],
            "sender": "0xa94f5374fce5edbc8e2a8697c15331677e6ebf0b",
            "secretKey": "0x45a915e4d060149eb4365960e6a7a45f334393093061116b197e3240065ff2d8"
        },
        "post": {
            "Prague": [
                {
                    "hash": "0x90d8fb1e1eaac03c06dd72d92a731fd9cc86b8be1a7029fe277dddd16a03f80f",
                    "logs": "0x1dcc4de8dec75d7aab85b567b6ccd41ad312451b948a7413f0a142fd40d49347",
                    "txbytes": "0xf860800a831e8480940000000000000000000000000000000000001200808025a0579270f05e0fb88612d80ef3697e95436cfc7138ed2dff05f1ef8ef23d63697ba012375b06fa1aab67d5d80cb235011a8899a981bef190290b2cdbff5b50d52f34",
                    "indexes": {
                        "data": 0,
                        "gas": 0,
                        "value": 0
                    }
                }
            ]
        },
        "_info": {
            "hash": "0x8039e0ccde1a94b0477d0a6449018020e7edbcf25691150094b62c5393ff8a21",
            "comment": "`execution-spec-tests` generated test",
            "filling-transition-tool": "Hyperledger Besu evm 24.7-develop-30c96c7",
            "description": "Test function documentation:\n\n    Tests ReturnDataLoad including multiple offset conditions and differeing legacy vs. eof\n    boundary conditions.\n\n    entrypoint creates a \"0xff\" test area of memory, delegate calls to caller.\n    Caller is either EOF or legacy, as per parameter.  Calls returner and copies the return data\n    based on offset and size params.  Cases are expected to trigger boundary violations.\n\n    Entrypoint copies the test area to storage slots, and the expected result is asserted.",
            "url": "https://github.com/ethereum/execution-spec-tests/blob/eip7692-prague@v1.0.7/tests/prague/eip7692_eof_v1/eip7069_extcall/test_returndataload.py#L33",
            "reference-spec": "https://github.com/ethereum/EIPs/blob/master/EIPS/eip-7069.md",
            "reference-spec-version": "1795943aeacc86131d5ab6bb3d65824b3b1d4cad"
        }
    }
}