{
    "tests/prague/eip7692_eof_v1/eip7069_extcall/test_returndataload.py::test_returndatacopy_oob[fork_PragueEIP7692-state_test-opcode_CALL]": {
        "env": {
            "currentCoinbase": "0x2adc25665018aa1fe0e6bc666dac8fc2697ff9ba",
            "currentGasLimit": "0x016345785d8a0000",
            "currentNumber": "0x01",
            "currentTimestamp": "0x03e8",
            "currentRandom": "0x0000000000000000000000000000000000000000000000000000000000000000",
            "currentDifficulty": "0x00",
            "currentBaseFee": "0x07",
            "currentExcessBlobGas": "0x00"
        },
        "pre": {
            "0xa94f5374fce5edbc8e2a8697c15331677e6ebf0b": {
                "nonce": "0x00",
                "balance": "0x3635c9adc5dea00000",
                "code": "0x",
                "storage": {}
            },
            "0x0000000000000000000000000000000000001000": {
                "nonce": "0x01",
                "balance": "0x00",
                "code": "0xef0001010004020001000c04000000008000036001600060003e60016000f3",
                "storage": {}
            },
            "0x0000000000000000000000000000000000001100": {
                "nonce": "0x01",
                "balance": "0x00",
                "code": "0x6001600060003e60016000f3",
                "storage": {}
            },
            "0x0000000000000000000000000000000000001200": {
                "nonce": "0x01",
                "balance": "0x00",
                "code": "0x600060006000600060006110005af16002553d6005556001600060003e600051600455600060006000600060006111005af16003553d60065500",
                "storage": {
                    "0x02": "0x1984",
                    "0x04": "0x1984",
                    "0x05": "0x1984",
                    "0x03": "0x1984",
                    "0x06": "0x1984"
                }
            }
        },
        "transaction": {
            "nonce": "0x00",
            "gasPrice": "0x0a",
            "gasLimit": [
                "0x1e8480"
            ],
            "to": "0x0000000000000000000000000000000000001200",
            "value": [
                "0x00"
            ],
            "data": [
                "0x"
            ],
            "sender": "0xa94f5374fce5edbc8e2a8697c15331677e6ebf0b",
            "secretKey": "0x45a915e4d060149eb4365960e6a7a45f334393093061116b197e3240065ff2d8"
        },
        "post": {
            "Prague": [
                {
                    "hash": "0xda61aaa1018100dbcc6d4efca1ad1fb0747f17089ea66fd9eb51d873f189501d",
                    "logs": "0x1dcc4de8dec75d7aab85b567b6ccd41ad312451b948a7413f0a142fd40d49347",
                    "txbytes": "0xf860800a831e8480940000000000000000000000000000000000001200808025a0579270f05e0fb88612d80ef3697e95436cfc7138ed2dff05f1ef8ef23d63697ba012375b06fa1aab67d5d80cb235011a8899a981bef190290b2cdbff5b50d52f34",
                    "indexes": {
                        "data": 0,
                        "gas": 0,
                        "value": 0
                    }
                }
            ]
        },
        "_info": {
            "hash": "0x93b556382d29b51381039497c0bbff1f7fe578cf11e820eb9699f0e65306627a",
            "comment": "`execution-spec-tests` generated test",
            "filling-transition-tool": "Hyperledger Besu evm 24.9-develop-0d63955",
            "description": "Test function documentation:\n\n    Extends the RETURNDATACOPY test for correct out-of-bounds behavior, by checking if the\n    caller frame's context being EOF or legacy doesn't impact the execution logic of the\n    RETURNDATACOPY instance under test.",
            "url": "https://github.com/ethereum/execution-spec-tests/blob/eip7692@v1.1.1/tests/prague/eip7692_eof_v1/eip7069_extcall/test_returndataload.py#L270",
            "reference-spec": "https://github.com/ethereum/EIPs/blob/master/EIPS/eip-7069.md",
            "reference-spec-version": "1795943aeacc86131d5ab6bb3d65824b3b1d4cad"
        }
    },
    "tests/prague/eip7692_eof_v1/eip7069_extcall/test_returndataload.py::test_returndatacopy_oob[fork_PragueEIP7692-state_test-opcode_EXTCALL]": {
        "env": {
            "currentCoinbase": "0x2adc25665018aa1fe0e6bc666dac8fc2697ff9ba",
            "currentGasLimit": "0x016345785d8a0000",
            "currentNumber": "0x01",
            "currentTimestamp": "0x03e8",
            "currentRandom": "0x0000000000000000000000000000000000000000000000000000000000000000",
            "currentDifficulty": "0x00",
            "currentBaseFee": "0x07",
            "currentExcessBlobGas": "0x00"
        },
        "pre": {
            "0xa94f5374fce5edbc8e2a8697c15331677e6ebf0b": {
                "nonce": "0x00",
                "balance": "0x3635c9adc5dea00000",
                "code": "0x",
                "storage": {}
            },
            "0x0000000000000000000000000000000000001000": {
                "nonce": "0x01",
                "balance": "0x00",
                "code": "0xef0001010004020001000c04000000008000036001600060003e60016000f3",
                "storage": {}
            },
            "0x0000000000000000000000000000000000001100": {
                "nonce": "0x01",
                "balance": "0x00",
                "code": "0x6001600060003e60016000f3",
                "storage": {}
            },
            "0x0000000000000000000000000000000000001200": {
                "nonce": "0x01",
                "balance": "0x00",
                "code": "0xef000101000402000100300400000000800004600060006000611000f86002553d6005556001600060003e600051600455600060006000611100f86003553d60065500",
                "storage": {}
            }
        },
        "transaction": {
            "nonce": "0x00",
            "gasPrice": "0x0a",
            "gasLimit": [
                "0x1e8480"
            ],
            "to": "0x0000000000000000000000000000000000001200",
            "value": [
                "0x00"
            ],
            "data": [
                "0x"
            ],
            "sender": "0xa94f5374fce5edbc8e2a8697c15331677e6ebf0b",
            "secretKey": "0x45a915e4d060149eb4365960e6a7a45f334393093061116b197e3240065ff2d8"
        },
        "post": {
            "Prague": [
                {
                    "hash": "0x3cc197ffe28e91b622fc38e5612059116f8337bd253f3d9ce84705f3bab23b04",
                    "logs": "0x1dcc4de8dec75d7aab85b567b6ccd41ad312451b948a7413f0a142fd40d49347",
                    "txbytes": "0xf860800a831e8480940000000000000000000000000000000000001200808025a0579270f05e0fb88612d80ef3697e95436cfc7138ed2dff05f1ef8ef23d63697ba012375b06fa1aab67d5d80cb235011a8899a981bef190290b2cdbff5b50d52f34",
                    "indexes": {
                        "data": 0,
                        "gas": 0,
                        "value": 0
                    }
                }
            ]
        },
        "_info": {
            "hash": "0x5daa4589facdca77d4011fb3fa062c5a28a4023e4256d18e837e06f8a679d1a1",
            "comment": "`execution-spec-tests` generated test",
            "filling-transition-tool": "Hyperledger Besu evm 24.9-develop-0d63955",
            "description": "Test function documentation:\n\n    Extends the RETURNDATACOPY test for correct out-of-bounds behavior, by checking if the\n    caller frame's context being EOF or legacy doesn't impact the execution logic of the\n    RETURNDATACOPY instance under test.",
            "url": "https://github.com/ethereum/execution-spec-tests/blob/eip7692@v1.1.1/tests/prague/eip7692_eof_v1/eip7069_extcall/test_returndataload.py#L270",
            "reference-spec": "https://github.com/ethereum/EIPs/blob/master/EIPS/eip-7069.md",
            "reference-spec-version": "1795943aeacc86131d5ab6bb3d65824b3b1d4cad"
        }
    }
}