{
    "000-fork=Cancun": {
        "_info": {
            "filling-transition-tool": "evm version 1.13.0-unstable-fd389791-20230926",
            "reference-spec": "https://github.com/ethereum/EIPs/blob/master/EIPS/eip-1153.md",
            "reference-spec-version": "6f0be621c76a05a7b3aaf0e9297afd425c26e9d0"
        },
        "network": "Cancun",
        "genesisRLP": "0xf90240f9023aa00000000000000000000000000000000000000000000000000000000000000000a01dcc4de8dec75d7aab85b567b6ccd41ad312451b948a7413f0a142fd40d49347940000000000000000000000000000000000000000a092317acbfd1918ca84d730a5360e07312402da35ccab3e6b97b280ae8fd99c57a056e81f171bcc55a6ff8345e692c0f86e5b48e01b996cadc001622fb5e363b421a056e81f171bcc55a6ff8345e692c0f86e5b48e01b996cadc001622fb5e363b421b9010000000000000000000000000000000000000000000000000000000000000000000000000000000000000000000000000000000000000000000000000000000000000000000000000000000000000000000000000000000000000000000000000000000000000000000000000000000000000000000000000000000000000000000000000000000000000000000000000000000000000000000000000000000000000000000000000000000000000000000000000000000000000000000000000000000000000000000000000000000000000000000000000000000000000000000000000000000000000000000000000000000000000000000000000000000000808088016345785d8a0000808000a0000000000000000000000000000000000000000000000000000000000000000088000000000000000007a056e81f171bcc55a6ff8345e692c0f86e5b48e01b996cadc001622fb5e363b4218080a00000000000000000000000000000000000000000000000000000000000000000c0c0c0",
        "genesisBlockHeader": {
            "parentHash": "0x0000000000000000000000000000000000000000000000000000000000000000",
            "uncleHash": "0x1dcc4de8dec75d7aab85b567b6ccd41ad312451b948a7413f0a142fd40d49347",
            "coinbase": "0x0000000000000000000000000000000000000000",
            "stateRoot": "0x92317acbfd1918ca84d730a5360e07312402da35ccab3e6b97b280ae8fd99c57",
            "transactionsTrie": "0x56e81f171bcc55a6ff8345e692c0f86e5b48e01b996cadc001622fb5e363b421",
            "receiptTrie": "0x56e81f171bcc55a6ff8345e692c0f86e5b48e01b996cadc001622fb5e363b421",
            "bloom": "0x00000000000000000000000000000000000000000000000000000000000000000000000000000000000000000000000000000000000000000000000000000000000000000000000000000000000000000000000000000000000000000000000000000000000000000000000000000000000000000000000000000000000000000000000000000000000000000000000000000000000000000000000000000000000000000000000000000000000000000000000000000000000000000000000000000000000000000000000000000000000000000000000000000000000000000000000000000000000000000000000000000000000000000000000000000000",
            "difficulty": "0x00",
            "number": "0x00",
            "gasLimit": "0x016345785d8a0000",
            "gasUsed": "0x00",
            "timestamp": "0x00",
            "extraData": "0x00",
            "mixHash": "0x0000000000000000000000000000000000000000000000000000000000000000",
            "nonce": "0x0000000000000000",
            "baseFeePerGas": "0x07",
            "withdrawalsRoot": "0x56e81f171bcc55a6ff8345e692c0f86e5b48e01b996cadc001622fb5e363b421",
            "blobGasUsed": "0x00",
            "excessBlobGas": "0x00",
            "parentBeaconBlockRoot": "0x0000000000000000000000000000000000000000000000000000000000000000",
            "hash": "0x607d56dcf077624b10fb9240c8572ffb95cf4cb8f58c4d95880abc16b19d2250"
        },
        "blocks": [
            {
                "rlp": "0xf902a7f9023ea0607d56dcf077624b10fb9240c8572ffb95cf4cb8f58c4d95880abc16b19d2250a01dcc4de8dec75d7aab85b567b6ccd41ad312451b948a7413f0a142fd40d49347942adc25665018aa1fe0e6bc666dac8fc2697ff9baa0c1968b9b36fee0b55dc727e828f4481eb59148740091f55ec509dc5aacc4ce3fa0578602b2b7e3a3291c3eefca3a08bc13c0d194f9845a39b6f3bcf843d9fed79da077e65041c9f39e32cbc3c7313c8a3470959f7a66b7d07ea289d94db481a1e916b9010000000000000000000000000000000000000000000000000000000000000000000000000000000000000000000000000000000000000000000000000000000000000000000000000000000000000000000000000000000000000000000000000000000000000000000000000000000000000000000000000000000000000000000000000000000000000000000000000000000000000000000000000000000000000000000000000000000000000000000000000000000000000000000000000000000000000000000000000000000000000000000000000000000000000000000000000000000000000000000000000000000000000000000000000000000000800188016345785d8a000082c29a8203e800a0000000000000000000000000000000000000000000000000000000000000000088000000000000000007a056e81f171bcc55a6ff8345e692c0f86e5b48e01b996cadc001622fb5e363b4218080a00000000000000000000000000000000000000000000000000000000000000000f862f860800a830f4240940000000000000000000000000000000000000100808025a06ed8419ab28c42e73d2f147ebdddfd5de4fb1eb6b4f332d0c5fab55da6ee7eaaa05930cef304a571952dbcc5d64ddb799bba262cfe26fcdded394288f1999164cec0c0",
                "blockHeader": {
                    "parentHash": "0x607d56dcf077624b10fb9240c8572ffb95cf4cb8f58c4d95880abc16b19d2250",
                    "uncleHash": "0x1dcc4de8dec75d7aab85b567b6ccd41ad312451b948a7413f0a142fd40d49347",
                    "coinbase": "0x2adc25665018aa1fe0e6bc666dac8fc2697ff9ba",
                    "stateRoot": "0xc1968b9b36fee0b55dc727e828f4481eb59148740091f55ec509dc5aacc4ce3f",
                    "transactionsTrie": "0x578602b2b7e3a3291c3eefca3a08bc13c0d194f9845a39b6f3bcf843d9fed79d",
                    "receiptTrie": "0x77e65041c9f39e32cbc3c7313c8a3470959f7a66b7d07ea289d94db481a1e916",
                    "bloom": "0x00000000000000000000000000000000000000000000000000000000000000000000000000000000000000000000000000000000000000000000000000000000000000000000000000000000000000000000000000000000000000000000000000000000000000000000000000000000000000000000000000000000000000000000000000000000000000000000000000000000000000000000000000000000000000000000000000000000000000000000000000000000000000000000000000000000000000000000000000000000000000000000000000000000000000000000000000000000000000000000000000000000000000000000000000000000",
                    "difficulty": "0x00",
                    "number": "0x01",
                    "gasLimit": "0x016345785d8a0000",
                    "gasUsed": "0xc29a",
                    "timestamp": "0x03e8",
                    "extraData": "0x00",
                    "mixHash": "0x0000000000000000000000000000000000000000000000000000000000000000",
                    "nonce": "0x0000000000000000",
                    "baseFeePerGas": "0x07",
                    "withdrawalsRoot": "0x56e81f171bcc55a6ff8345e692c0f86e5b48e01b996cadc001622fb5e363b421",
                    "blobGasUsed": "0x00",
                    "excessBlobGas": "0x00",
                    "parentBeaconBlockRoot": "0x0000000000000000000000000000000000000000000000000000000000000000",
                    "hash": "0x19518e5f0bd46498a0f8a71d306311b14d9738f34e834744e2fb6d1621dc676a"
                },
                "transactions": [
                    {
                        "type": "0x00",
                        "chainId": "0x01",
                        "nonce": "0x00",
                        "gasPrice": "0x0a",
                        "gasLimit": "0x0f4240",
                        "to": "0x0000000000000000000000000000000000000100",
                        "value": "0x00",
                        "data": "0x",
                        "v": "0x25",
                        "r": "0x6ed8419ab28c42e73d2f147ebdddfd5de4fb1eb6b4f332d0c5fab55da6ee7eaa",
                        "s": "0x5930cef304a571952dbcc5d64ddb799bba262cfe26fcdded394288f1999164ce",
                        "sender": "0xa94f5374fce5edbc8e2a8697c15331677e6ebf0b"
                    }
                ],
                "uncleHeaders": [],
                "withdrawals": []
            }
        ],
        "lastblockhash": "0x19518e5f0bd46498a0f8a71d306311b14d9738f34e834744e2fb6d1621dc676a",
        "pre": {
            "0x0000000000000000000000000000000000000100": {
                "nonce": "0x00",
                "balance": "0x00",
                "code": "0x6104d260015d6104d260045d6104d27001000000000000000000000000000000005d6104d27ffffffffffffffffffffffffffffffffffffffffffffffffffffffffffffffffe5d60005c60005560035c6003556fffffffffffffffffffffffffffffffff5c6fffffffffffffffffffffffffffffffff557ffffffffffffffffffffffffffffffffffffffffffffffffffffffffffffffffd5c7ffffffffffffffffffffffffffffffffffffffffffffffffffffffffffffffffd5560025c60025560055c6005557001000000000000000000000000000000015c700100000000000000000000000000000001557fffffffffffffffffffffffffffffffffffffffffffffffffffffffffffffffff5c7fffffffffffffffffffffffffffffffffffffffffffffffffffffffffffffffff55",
                "storage": {
                    "0x00": "0xffff",
                    "0x01": "0xffff",
                    "0x02": "0xffff",
                    "0x03": "0xffff",
                    "0x04": "0xffff",
                    "0x05": "0xffff",
                    "0xffffffffffffffffffffffffffffffff": "0xffff",
                    "0x0100000000000000000000000000000000": "0xffff",
                    "0x0100000000000000000000000000000001": "0xffff",
                    "0xfffffffffffffffffffffffffffffffffffffffffffffffffffffffffffffffd": "0xffff",
                    "0xfffffffffffffffffffffffffffffffffffffffffffffffffffffffffffffffe": "0xffff",
                    "0xffffffffffffffffffffffffffffffffffffffffffffffffffffffffffffffff": "0xffff"
                }
            },
            "0x000f3df6d732807ef1319fb7b8bb8522d0beac02": {
                "nonce": "0x01",
                "balance": "0x00",
                "code": "0x3373fffffffffffffffffffffffffffffffffffffffe14604d57602036146024575f5ffd5b5f35801560495762001fff810690815414603c575f5ffd5b62001fff01545f5260205ff35b5f5ffd5b62001fff42064281555f359062001fff015500",
                "storage": {}
            },
            "0xa94f5374fce5edbc8e2a8697c15331677e6ebf0b": {
                "nonce": "0x00",
                "balance": "0x989680",
                "code": "0x",
                "storage": {}
            }
        },
        "postState": {
            "0x0000000000000000000000000000000000000100": {
                "nonce": "0x00",
                "balance": "0x00",
                "code": "0x6104d260015d6104d260045d6104d27001000000000000000000000000000000005d6104d27ffffffffffffffffffffffffffffffffffffffffffffffffffffffffffffffffe5d60005c60005560035c6003556fffffffffffffffffffffffffffffffff5c6fffffffffffffffffffffffffffffffff557ffffffffffffffffffffffffffffffffffffffffffffffffffffffffffffffffd5c7ffffffffffffffffffffffffffffffffffffffffffffffffffffffffffffffffd5560025c60025560055c6005557001000000000000000000000000000000015c700100000000000000000000000000000001557fffffffffffffffffffffffffffffffffffffffffffffffffffffffffffffffff5c7fffffffffffffffffffffffffffffffffffffffffffffffffffffffffffffffff55",
                "storage": {
                    "0x01": "0xffff",
                    "0x04": "0xffff",
                    "0x0100000000000000000000000000000000": "0xffff",
                    "0xfffffffffffffffffffffffffffffffffffffffffffffffffffffffffffffffe": "0xffff"
                }
            },
            "0x000f3df6d732807ef1319fb7b8bb8522d0beac02": {
                "nonce": "0x01",
                "balance": "0x00",
                "code": "0x3373fffffffffffffffffffffffffffffffffffffffe14604d57602036146024575f5ffd5b5f35801560495762001fff810690815414603c575f5ffd5b62001fff01545f5260205ff35b5f5ffd5b62001fff42064281555f359062001fff015500",
                "storage": {
                    "0x03e8": "0x03e8"
                }
            },
            "0x2adc25665018aa1fe0e6bc666dac8fc2697ff9ba": {
                "nonce": "0x00",
                "balance": "0x0247ce",
                "code": "0x",
                "storage": {}
            },
            "0xa94f5374fce5edbc8e2a8697c15331677e6ebf0b": {
                "nonce": "0x01",
                "balance": "0x90fc7c",
                "code": "0x",
                "storage": {}
            }
        },
        "sealEngine": "NoProof"
    }
}