{
    "000_berlin": {
        "_info": {
            "filling-transition-tool": "evm version 1.11.0-unstable-55f41d19-20230126",
            "filling-block-build-tool": "evm version 1.11.0-unstable-55f41d19-20230126"
        },
        "blocks": [
            {
                "rlp": "0xf90264f901fca087c5fa7cef8b99fc333b662c1a4306c7d41d9d43a23414b15aa25b3e093ae88fa01dcc4de8dec75d7aab85b567b6ccd41ad312451b948a7413f0a142fd40d49347942adc25665018aa1fe0e6bc666dac8fc2697ff9baa0d921e74bfe864514fa508003336b8f66eb98d748c5163749827029a1ed7db265a08e987be72f36f97a98838e03d9e5d1b3d22795606240f16684532b1c994b4ee7a00812e2d0238699cad1dd4c1274804ed2dde9a35df8ee002d48bbf3ef87857a63b9010000000000000000000000000000000000000000000000000000000000000000000000000000000000000000000000000000000000000000000000000000000000000000000000000000000000000000000000000000000000000000000000000000000000000000000000000000000000000000000000000000000000000000000000000000000000000000000000000000000000000000000000000000000000000000000000000000000000000000000000000000000000000000000000000000000000000000000000000000000000000000000000000000000000000000000000000000000000000000000000000000000000000000000000000000000000830200000188016345785d8a000082a8ad8203e800a00000000000000000000000000000000000000000000000000000000000000000880000000000000000f862f860800a8307a12094100000000000000000000000000000000000000080801ca091df80a63242846dcf1cc16c35e6ba39212cde92aad946f9c286fa0029782b54a0446170c2fb714c717885485ea7d93bf9277f3fb3d89ffd73e9b7f5f8eda3997bc0",
                "blockHeader": {
                    "parentHash": "0x87c5fa7cef8b99fc333b662c1a4306c7d41d9d43a23414b15aa25b3e093ae88f",
                    "uncleHash": "0x1dcc4de8dec75d7aab85b567b6ccd41ad312451b948a7413f0a142fd40d49347",
                    "coinbase": "0x2adc25665018aa1fe0e6bc666dac8fc2697ff9ba",
                    "stateRoot": "0xd921e74bfe864514fa508003336b8f66eb98d748c5163749827029a1ed7db265",
                    "transactionsTrie": "0x8e987be72f36f97a98838e03d9e5d1b3d22795606240f16684532b1c994b4ee7",
                    "receiptTrie": "0x0812e2d0238699cad1dd4c1274804ed2dde9a35df8ee002d48bbf3ef87857a63",
                    "bloom": "0x00000000000000000000000000000000000000000000000000000000000000000000000000000000000000000000000000000000000000000000000000000000000000000000000000000000000000000000000000000000000000000000000000000000000000000000000000000000000000000000000000000000000000000000000000000000000000000000000000000000000000000000000000000000000000000000000000000000000000000000000000000000000000000000000000000000000000000000000000000000000000000000000000000000000000000000000000000000000000000000000000000000000000000000000000000000",
                    "difficulty": "0x20000",
                    "number": "0x1",
                    "gasLimit": "0x16345785d8a0000",
                    "gasUsed": "0xa8ad",
                    "timestamp": "0x3e8",
                    "extraData": "0x00",
                    "mixHash": "0x0000000000000000000000000000000000000000000000000000000000000000",
                    "nonce": "0x0000000000000000",
                    "hash": "0xd559e3c6a8f7914c5a88132efdbc5d5114ab338e6dff340858193956021fb81f"
                }
            }
        ],
        "genesisBlockHeader": {
            "parentHash": "0x0000000000000000000000000000000000000000000000000000000000000000",
            "uncleHash": "0x1dcc4de8dec75d7aab85b567b6ccd41ad312451b948a7413f0a142fd40d49347",
            "coinbase": "0x0000000000000000000000000000000000000000",
            "stateRoot": "0x369ba8b2e5b32d675d07933d6fb851d97d3ca66c60a829f7356163d92ae0439a",
            "transactionsTrie": "0x56e81f171bcc55a6ff8345e692c0f86e5b48e01b996cadc001622fb5e363b421",
            "receiptTrie": "0x56e81f171bcc55a6ff8345e692c0f86e5b48e01b996cadc001622fb5e363b421",
            "bloom": "0x00000000000000000000000000000000000000000000000000000000000000000000000000000000000000000000000000000000000000000000000000000000000000000000000000000000000000000000000000000000000000000000000000000000000000000000000000000000000000000000000000000000000000000000000000000000000000000000000000000000000000000000000000000000000000000000000000000000000000000000000000000000000000000000000000000000000000000000000000000000000000000000000000000000000000000000000000000000000000000000000000000000000000000000000000000000",
            "difficulty": "0x20000",
            "number": "0x0",
            "gasLimit": "0x16345785d8a0000",
            "gasUsed": "0xb1a2bc2ec50000",
            "timestamp": "0x0",
            "extraData": "0x00",
            "mixHash": "0x0000000000000000000000000000000000000000000000000000000000000000",
            "nonce": "0x0000000000000000",
            "hash": "0x87c5fa7cef8b99fc333b662c1a4306c7d41d9d43a23414b15aa25b3e093ae88f"
        },
        "genesisRLP": "0xf90204f901ffa00000000000000000000000000000000000000000000000000000000000000000a01dcc4de8dec75d7aab85b567b6ccd41ad312451b948a7413f0a142fd40d49347940000000000000000000000000000000000000000a0369ba8b2e5b32d675d07933d6fb851d97d3ca66c60a829f7356163d92ae0439aa056e81f171bcc55a6ff8345e692c0f86e5b48e01b996cadc001622fb5e363b421a056e81f171bcc55a6ff8345e692c0f86e5b48e01b996cadc001622fb5e363b421b9010000000000000000000000000000000000000000000000000000000000000000000000000000000000000000000000000000000000000000000000000000000000000000000000000000000000000000000000000000000000000000000000000000000000000000000000000000000000000000000000000000000000000000000000000000000000000000000000000000000000000000000000000000000000000000000000000000000000000000000000000000000000000000000000000000000000000000000000000000000000000000000000000000000000000000000000000000000000000000000000000000000000000000000000000000000000830200008088016345785d8a000087b1a2bc2ec500008000a00000000000000000000000000000000000000000000000000000000000000000880000000000000000c0c0",
        "lastblockhash": "0xd559e3c6a8f7914c5a88132efdbc5d5114ab338e6dff340858193956021fb81f",
        "network": "Berlin",
        "pre": {
            "0x1000000000000000000000000000000000000000": {
                "nonce": "0x0",
                "balance": "0xba1a9ce0ba1a9ce",
                "code": "0x6010565b6000828201905092915050565b601a600260016003565b60005560206000f3",
                "storage": {}
            },
            "0xa94f5374fce5edbc8e2a8697c15331677e6ebf0b": {
                "nonce": "0x0",
                "balance": "0xba1a9ce0ba1a9ce",
                "code": "0x",
                "storage": {}
            }
        },
        "postState": {
            "0x1000000000000000000000000000000000000000": {
                "code": "0x6010565b6000828201905092915050565b601a600260016003565b60005560206000f3",
                "storage": {
                    "0x0000000000000000000000000000000000000000000000000000000000000000": "0x0000000000000000000000000000000000000000000000000000000000000003"
                },
                "balance": "0xba1a9ce0ba1a9ce"
            },
            "0x2adc25665018aa1fe0e6bc666dac8fc2697ff9ba": {
                "balance": "0x1bc16d674ece96c2"
            },
            "0xa94f5374fce5edbc8e2a8697c15331677e6ebf0b": {
                "balance": "0xba1a9ce0b9b130c",
                "nonce": "0x1"
            }
        },
        "sealEngine": "NoProof"
    },
    "000_london": {
        "_info": {
            "filling-transition-tool": "evm version 1.11.0-unstable-55f41d19-20230126",
            "filling-block-build-tool": "evm version 1.11.0-unstable-55f41d19-20230126"
        },
        "blocks": [
            {
                "rlp": "0xf90265f901fda0e3c84688fa32c20955c535c7d25b5b4b196079e40a9c47c9cb1edb5e58b3dce5a01dcc4de8dec75d7aab85b567b6ccd41ad312451b948a7413f0a142fd40d49347942adc25665018aa1fe0e6bc666dac8fc2697ff9baa05c0f211cd1bea44ac01bd3fd7e0ab742d316adabd139bcf60a7aac6c458d596da08e987be72f36f97a98838e03d9e5d1b3d22795606240f16684532b1c994b4ee7a00812e2d0238699cad1dd4c1274804ed2dde9a35df8ee002d48bbf3ef87857a63b9010000000000000000000000000000000000000000000000000000000000000000000000000000000000000000000000000000000000000000000000000000000000000000000000000000000000000000000000000000000000000000000000000000000000000000000000000000000000000000000000000000000000000000000000000000000000000000000000000000000000000000000000000000000000000000000000000000000000000000000000000000000000000000000000000000000000000000000000000000000000000000000000000000000000000000000000000000000000000000000000000000000000000000000000000000000000830200000188016345785d8a000082a8ad8203e800a0000000000000000000000000000000000000000000000000000000000000000088000000000000000007f862f860800a8307a12094100000000000000000000000000000000000000080801ca091df80a63242846dcf1cc16c35e6ba39212cde92aad946f9c286fa0029782b54a0446170c2fb714c717885485ea7d93bf9277f3fb3d89ffd73e9b7f5f8eda3997bc0",
                "blockHeader": {
                    "parentHash": "0xe3c84688fa32c20955c535c7d25b5b4b196079e40a9c47c9cb1edb5e58b3dce5",
                    "uncleHash": "0x1dcc4de8dec75d7aab85b567b6ccd41ad312451b948a7413f0a142fd40d49347",
                    "coinbase": "0x2adc25665018aa1fe0e6bc666dac8fc2697ff9ba",
                    "stateRoot": "0x5c0f211cd1bea44ac01bd3fd7e0ab742d316adabd139bcf60a7aac6c458d596d",
                    "transactionsTrie": "0x8e987be72f36f97a98838e03d9e5d1b3d22795606240f16684532b1c994b4ee7",
                    "receiptTrie": "0x0812e2d0238699cad1dd4c1274804ed2dde9a35df8ee002d48bbf3ef87857a63",
                    "bloom": "0x00000000000000000000000000000000000000000000000000000000000000000000000000000000000000000000000000000000000000000000000000000000000000000000000000000000000000000000000000000000000000000000000000000000000000000000000000000000000000000000000000000000000000000000000000000000000000000000000000000000000000000000000000000000000000000000000000000000000000000000000000000000000000000000000000000000000000000000000000000000000000000000000000000000000000000000000000000000000000000000000000000000000000000000000000000000",
                    "difficulty": "0x20000",
                    "number": "0x1",
                    "gasLimit": "0x16345785d8a0000",
                    "gasUsed": "0xa8ad",
                    "timestamp": "0x3e8",
                    "extraData": "0x00",
                    "mixHash": "0x0000000000000000000000000000000000000000000000000000000000000000",
                    "nonce": "0x0000000000000000",
                    "baseFeePerGas": "0x7",
                    "hash": "0x9dd7eba03ca879b20b01bcde412e88d7e5a17a7b110dbd5bf7d0821da3c13f58"
                }
            }
        ],
        "genesisBlockHeader": {
            "parentHash": "0x0000000000000000000000000000000000000000000000000000000000000000",
            "uncleHash": "0x1dcc4de8dec75d7aab85b567b6ccd41ad312451b948a7413f0a142fd40d49347",
            "coinbase": "0x0000000000000000000000000000000000000000",
            "stateRoot": "0x369ba8b2e5b32d675d07933d6fb851d97d3ca66c60a829f7356163d92ae0439a",
            "transactionsTrie": "0x56e81f171bcc55a6ff8345e692c0f86e5b48e01b996cadc001622fb5e363b421",
            "receiptTrie": "0x56e81f171bcc55a6ff8345e692c0f86e5b48e01b996cadc001622fb5e363b421",
            "bloom": "0x00000000000000000000000000000000000000000000000000000000000000000000000000000000000000000000000000000000000000000000000000000000000000000000000000000000000000000000000000000000000000000000000000000000000000000000000000000000000000000000000000000000000000000000000000000000000000000000000000000000000000000000000000000000000000000000000000000000000000000000000000000000000000000000000000000000000000000000000000000000000000000000000000000000000000000000000000000000000000000000000000000000000000000000000000000000",
            "difficulty": "0x20000",
            "number": "0x0",
            "gasLimit": "0x16345785d8a0000",
            "gasUsed": "0xb1a2bc2ec50000",
            "timestamp": "0x0",
            "extraData": "0x00",
            "mixHash": "0x0000000000000000000000000000000000000000000000000000000000000000",
            "nonce": "0x0000000000000000",
            "baseFeePerGas": "0x7",
            "hash": "0xe3c84688fa32c20955c535c7d25b5b4b196079e40a9c47c9cb1edb5e58b3dce5"
        },
        "genesisRLP": "0xf90205f90200a00000000000000000000000000000000000000000000000000000000000000000a01dcc4de8dec75d7aab85b567b6ccd41ad312451b948a7413f0a142fd40d49347940000000000000000000000000000000000000000a0369ba8b2e5b32d675d07933d6fb851d97d3ca66c60a829f7356163d92ae0439aa056e81f171bcc55a6ff8345e692c0f86e5b48e01b996cadc001622fb5e363b421a056e81f171bcc55a6ff8345e692c0f86e5b48e01b996cadc001622fb5e363b421b9010000000000000000000000000000000000000000000000000000000000000000000000000000000000000000000000000000000000000000000000000000000000000000000000000000000000000000000000000000000000000000000000000000000000000000000000000000000000000000000000000000000000000000000000000000000000000000000000000000000000000000000000000000000000000000000000000000000000000000000000000000000000000000000000000000000000000000000000000000000000000000000000000000000000000000000000000000000000000000000000000000000000000000000000000000000000830200008088016345785d8a000087b1a2bc2ec500008000a0000000000000000000000000000000000000000000000000000000000000000088000000000000000007c0c0",
        "lastblockhash": "0x9dd7eba03ca879b20b01bcde412e88d7e5a17a7b110dbd5bf7d0821da3c13f58",
        "network": "London",
        "pre": {
            "0x1000000000000000000000000000000000000000": {
                "nonce": "0x0",
                "balance": "0xba1a9ce0ba1a9ce",
                "code": "0x6010565b6000828201905092915050565b601a600260016003565b60005560206000f3",
                "storage": {}
            },
            "0xa94f5374fce5edbc8e2a8697c15331677e6ebf0b": {
                "nonce": "0x0",
                "balance": "0xba1a9ce0ba1a9ce",
                "code": "0x",
                "storage": {}
            }
        },
        "postState": {
            "0x1000000000000000000000000000000000000000": {
                "code": "0x6010565b6000828201905092915050565b601a600260016003565b60005560206000f3",
                "storage": {
                    "0x0000000000000000000000000000000000000000000000000000000000000000": "0x0000000000000000000000000000000000000000000000000000000000000003"
                },
                "balance": "0xba1a9ce0ba1a9ce"
            },
            "0x2adc25665018aa1fe0e6bc666dac8fc2697ff9ba": {
                "balance": "0x1bc16d674ec9fa07"
            },
            "0xa94f5374fce5edbc8e2a8697c15331677e6ebf0b": {
                "balance": "0xba1a9ce0b9b130c",
                "nonce": "0x1"
            }
        },
        "sealEngine": "NoProof"
    },
    "000_merge": {
        "_info": {
            "filling-transition-tool": "evm version 1.11.0-unstable-55f41d19-20230126",
            "filling-block-build-tool": "evm version 1.11.0-unstable-55f41d19-20230126"
        },
        "blocks": [
            {
                "rlp": "0xf90262f901faa0410451c9f28fdc58f474c2e2f2b02f6b37e1fa4b5643eb281f92b62c2b4f1de1a01dcc4de8dec75d7aab85b567b6ccd41ad312451b948a7413f0a142fd40d49347942adc25665018aa1fe0e6bc666dac8fc2697ff9baa0e3d83cac3fbe146a6ee8ef05b28bc94e9906405cd976ccb1152f4ddc70b71a49a08e987be72f36f97a98838e03d9e5d1b3d22795606240f16684532b1c994b4ee7a00812e2d0238699cad1dd4c1274804ed2dde9a35df8ee002d48bbf3ef87857a63b9010000000000000000000000000000000000000000000000000000000000000000000000000000000000000000000000000000000000000000000000000000000000000000000000000000000000000000000000000000000000000000000000000000000000000000000000000000000000000000000000000000000000000000000000000000000000000000000000000000000000000000000000000000000000000000000000000000000000000000000000000000000000000000000000000000000000000000000000000000000000000000000000000000000000000000000000000000000000000000000000000000000000000000000000000000000000800188016345785d8a000082a8ad8203e800a0000000000000000000000000000000000000000000000000000000000000000088000000000000000007f862f860800a8307a12094100000000000000000000000000000000000000080801ca091df80a63242846dcf1cc16c35e6ba39212cde92aad946f9c286fa0029782b54a0446170c2fb714c717885485ea7d93bf9277f3fb3d89ffd73e9b7f5f8eda3997bc0",
                "blockHeader": {
                    "parentHash": "0x410451c9f28fdc58f474c2e2f2b02f6b37e1fa4b5643eb281f92b62c2b4f1de1",
                    "uncleHash": "0x1dcc4de8dec75d7aab85b567b6ccd41ad312451b948a7413f0a142fd40d49347",
                    "coinbase": "0x2adc25665018aa1fe0e6bc666dac8fc2697ff9ba",
                    "stateRoot": "0xe3d83cac3fbe146a6ee8ef05b28bc94e9906405cd976ccb1152f4ddc70b71a49",
                    "transactionsTrie": "0x8e987be72f36f97a98838e03d9e5d1b3d22795606240f16684532b1c994b4ee7",
                    "receiptTrie": "0x0812e2d0238699cad1dd4c1274804ed2dde9a35df8ee002d48bbf3ef87857a63",
                    "bloom": "0x00000000000000000000000000000000000000000000000000000000000000000000000000000000000000000000000000000000000000000000000000000000000000000000000000000000000000000000000000000000000000000000000000000000000000000000000000000000000000000000000000000000000000000000000000000000000000000000000000000000000000000000000000000000000000000000000000000000000000000000000000000000000000000000000000000000000000000000000000000000000000000000000000000000000000000000000000000000000000000000000000000000000000000000000000000000",
                    "difficulty": "0x0",
                    "number": "0x1",
                    "gasLimit": "0x16345785d8a0000",
                    "gasUsed": "0xa8ad",
                    "timestamp": "0x3e8",
                    "extraData": "0x00",
                    "mixHash": "0x0000000000000000000000000000000000000000000000000000000000000000",
                    "nonce": "0x0000000000000000",
                    "baseFeePerGas": "0x7",
                    "hash": "0x24c8d31b29c9f1cc396d389f45cc8b6a35a353f3257a1a4bc0c0f97da94b62dc"
                }
            }
        ],
        "genesisBlockHeader": {
            "parentHash": "0x0000000000000000000000000000000000000000000000000000000000000000",
            "uncleHash": "0x1dcc4de8dec75d7aab85b567b6ccd41ad312451b948a7413f0a142fd40d49347",
            "coinbase": "0x0000000000000000000000000000000000000000",
            "stateRoot": "0x369ba8b2e5b32d675d07933d6fb851d97d3ca66c60a829f7356163d92ae0439a",
            "transactionsTrie": "0x56e81f171bcc55a6ff8345e692c0f86e5b48e01b996cadc001622fb5e363b421",
            "receiptTrie": "0x56e81f171bcc55a6ff8345e692c0f86e5b48e01b996cadc001622fb5e363b421",
            "bloom": "0x00000000000000000000000000000000000000000000000000000000000000000000000000000000000000000000000000000000000000000000000000000000000000000000000000000000000000000000000000000000000000000000000000000000000000000000000000000000000000000000000000000000000000000000000000000000000000000000000000000000000000000000000000000000000000000000000000000000000000000000000000000000000000000000000000000000000000000000000000000000000000000000000000000000000000000000000000000000000000000000000000000000000000000000000000000000",
            "difficulty": "0x0",
            "number": "0x0",
            "gasLimit": "0x16345785d8a0000",
            "gasUsed": "0xb1a2bc2ec50000",
            "timestamp": "0x0",
            "extraData": "0x00",
            "mixHash": "0x0000000000000000000000000000000000000000000000000000000000000000",
            "nonce": "0x0000000000000000",
            "baseFeePerGas": "0x7",
            "hash": "0x410451c9f28fdc58f474c2e2f2b02f6b37e1fa4b5643eb281f92b62c2b4f1de1"
        },
        "genesisRLP": "0xf90202f901fda00000000000000000000000000000000000000000000000000000000000000000a01dcc4de8dec75d7aab85b567b6ccd41ad312451b948a7413f0a142fd40d49347940000000000000000000000000000000000000000a0369ba8b2e5b32d675d07933d6fb851d97d3ca66c60a829f7356163d92ae0439aa056e81f171bcc55a6ff8345e692c0f86e5b48e01b996cadc001622fb5e363b421a056e81f171bcc55a6ff8345e692c0f86e5b48e01b996cadc001622fb5e363b421b9010000000000000000000000000000000000000000000000000000000000000000000000000000000000000000000000000000000000000000000000000000000000000000000000000000000000000000000000000000000000000000000000000000000000000000000000000000000000000000000000000000000000000000000000000000000000000000000000000000000000000000000000000000000000000000000000000000000000000000000000000000000000000000000000000000000000000000000000000000000000000000000000000000000000000000000000000000000000000000000000000000000000000000000000000000000000808088016345785d8a000087b1a2bc2ec500008000a0000000000000000000000000000000000000000000000000000000000000000088000000000000000007c0c0",
        "lastblockhash": "0x24c8d31b29c9f1cc396d389f45cc8b6a35a353f3257a1a4bc0c0f97da94b62dc",
        "network": "Merge",
        "pre": {
            "0x1000000000000000000000000000000000000000": {
                "nonce": "0x0",
                "balance": "0xba1a9ce0ba1a9ce",
                "code": "0x6010565b6000828201905092915050565b601a600260016003565b60005560206000f3",
                "storage": {}
            },
            "0xa94f5374fce5edbc8e2a8697c15331677e6ebf0b": {
                "nonce": "0x0",
                "balance": "0xba1a9ce0ba1a9ce",
                "code": "0x",
                "storage": {}
            }
        },
        "postState": {
            "0x1000000000000000000000000000000000000000": {
                "code": "0x6010565b6000828201905092915050565b601a600260016003565b60005560206000f3",
                "storage": {
                    "0x0000000000000000000000000000000000000000000000000000000000000000": "0x0000000000000000000000000000000000000000000000000000000000000003"
                },
                "balance": "0xba1a9ce0ba1a9ce"
            },
            "0x2adc25665018aa1fe0e6bc666dac8fc2697ff9ba": {
                "balance": "0x1fa07"
            },
            "0xa94f5374fce5edbc8e2a8697c15331677e6ebf0b": {
                "balance": "0xba1a9ce0b9b130c",
                "nonce": "0x1"
            }
        },
        "sealEngine": "NoProof"
    },
    "000_shanghai": {
        "_info": {
            "filling-transition-tool": "evm version 1.11.0-unstable-55f41d19-20230126",
            "filling-block-build-tool": "evm version 1.11.0-unstable-55f41d19-20230126"
        },
        "blocks": [
            {
                "rlp": "0xf90284f9021ba060e1efe498e464db084f5b654f60b2d2af5b85e043af938556b665d687bbcdb4a01dcc4de8dec75d7aab85b567b6ccd41ad312451b948a7413f0a142fd40d49347942adc25665018aa1fe0e6bc666dac8fc2697ff9baa0e3d83cac3fbe146a6ee8ef05b28bc94e9906405cd976ccb1152f4ddc70b71a49a08e987be72f36f97a98838e03d9e5d1b3d22795606240f16684532b1c994b4ee7a00812e2d0238699cad1dd4c1274804ed2dde9a35df8ee002d48bbf3ef87857a63b9010000000000000000000000000000000000000000000000000000000000000000000000000000000000000000000000000000000000000000000000000000000000000000000000000000000000000000000000000000000000000000000000000000000000000000000000000000000000000000000000000000000000000000000000000000000000000000000000000000000000000000000000000000000000000000000000000000000000000000000000000000000000000000000000000000000000000000000000000000000000000000000000000000000000000000000000000000000000000000000000000000000000000000000000000000000000800188016345785d8a000082a8ad8203e800a0000000000000000000000000000000000000000000000000000000000000000088000000000000000007a056e81f171bcc55a6ff8345e692c0f86e5b48e01b996cadc001622fb5e363b421f862f860800a8307a12094100000000000000000000000000000000000000080801ca091df80a63242846dcf1cc16c35e6ba39212cde92aad946f9c286fa0029782b54a0446170c2fb714c717885485ea7d93bf9277f3fb3d89ffd73e9b7f5f8eda3997bc0c0",
                "blockHeader": {
                    "parentHash": "0x60e1efe498e464db084f5b654f60b2d2af5b85e043af938556b665d687bbcdb4",
                    "uncleHash": "0x1dcc4de8dec75d7aab85b567b6ccd41ad312451b948a7413f0a142fd40d49347",
                    "coinbase": "0x2adc25665018aa1fe0e6bc666dac8fc2697ff9ba",
                    "stateRoot": "0xe3d83cac3fbe146a6ee8ef05b28bc94e9906405cd976ccb1152f4ddc70b71a49",
                    "transactionsTrie": "0x8e987be72f36f97a98838e03d9e5d1b3d22795606240f16684532b1c994b4ee7",
                    "receiptTrie": "0x0812e2d0238699cad1dd4c1274804ed2dde9a35df8ee002d48bbf3ef87857a63",
                    "bloom": "0x00000000000000000000000000000000000000000000000000000000000000000000000000000000000000000000000000000000000000000000000000000000000000000000000000000000000000000000000000000000000000000000000000000000000000000000000000000000000000000000000000000000000000000000000000000000000000000000000000000000000000000000000000000000000000000000000000000000000000000000000000000000000000000000000000000000000000000000000000000000000000000000000000000000000000000000000000000000000000000000000000000000000000000000000000000000",
                    "difficulty": "0x0",
                    "number": "0x1",
                    "gasLimit": "0x16345785d8a0000",
                    "gasUsed": "0xa8ad",
                    "timestamp": "0x3e8",
                    "extraData": "0x00",
                    "mixHash": "0x0000000000000000000000000000000000000000000000000000000000000000",
                    "nonce": "0x0000000000000000",
                    "baseFeePerGas": "0x7",
                    "hash": "0x8731172b2b6488cf61ff670e8e14add9cca1128e30f274ddd3b371b14c7d3309",
                    "withdrawalsRoot": "0x56e81f171bcc55a6ff8345e692c0f86e5b48e01b996cadc001622fb5e363b421"
                }
            }
        ],
        "genesisBlockHeader": {
            "parentHash": "0x0000000000000000000000000000000000000000000000000000000000000000",
            "uncleHash": "0x1dcc4de8dec75d7aab85b567b6ccd41ad312451b948a7413f0a142fd40d49347",
            "coinbase": "0x0000000000000000000000000000000000000000",
            "stateRoot": "0x369ba8b2e5b32d675d07933d6fb851d97d3ca66c60a829f7356163d92ae0439a",
            "transactionsTrie": "0x56e81f171bcc55a6ff8345e692c0f86e5b48e01b996cadc001622fb5e363b421",
            "receiptTrie": "0x56e81f171bcc55a6ff8345e692c0f86e5b48e01b996cadc001622fb5e363b421",
            "bloom": "0x00000000000000000000000000000000000000000000000000000000000000000000000000000000000000000000000000000000000000000000000000000000000000000000000000000000000000000000000000000000000000000000000000000000000000000000000000000000000000000000000000000000000000000000000000000000000000000000000000000000000000000000000000000000000000000000000000000000000000000000000000000000000000000000000000000000000000000000000000000000000000000000000000000000000000000000000000000000000000000000000000000000000000000000000000000000",
            "difficulty": "0x0",
            "number": "0x0",
            "gasLimit": "0x16345785d8a0000",
            "gasUsed": "0xb1a2bc2ec50000",
            "timestamp": "0x0",
            "extraData": "0x00",
            "mixHash": "0x0000000000000000000000000000000000000000000000000000000000000000",
            "nonce": "0x0000000000000000",
            "baseFeePerGas": "0x7",
            "hash": "0x60e1efe498e464db084f5b654f60b2d2af5b85e043af938556b665d687bbcdb4",
            "withdrawalsRoot": "0x56e81f171bcc55a6ff8345e692c0f86e5b48e01b996cadc001622fb5e363b421"
        },
        "genesisRLP": "0xf90223f9021ea00000000000000000000000000000000000000000000000000000000000000000a01dcc4de8dec75d7aab85b567b6ccd41ad312451b948a7413f0a142fd40d49347940000000000000000000000000000000000000000a0369ba8b2e5b32d675d07933d6fb851d97d3ca66c60a829f7356163d92ae0439aa056e81f171bcc55a6ff8345e692c0f86e5b48e01b996cadc001622fb5e363b421a056e81f171bcc55a6ff8345e692c0f86e5b48e01b996cadc001622fb5e363b421b9010000000000000000000000000000000000000000000000000000000000000000000000000000000000000000000000000000000000000000000000000000000000000000000000000000000000000000000000000000000000000000000000000000000000000000000000000000000000000000000000000000000000000000000000000000000000000000000000000000000000000000000000000000000000000000000000000000000000000000000000000000000000000000000000000000000000000000000000000000000000000000000000000000000000000000000000000000000000000000000000000000000000000000000000000000000000808088016345785d8a000087b1a2bc2ec500008000a0000000000000000000000000000000000000000000000000000000000000000088000000000000000007a056e81f171bcc55a6ff8345e692c0f86e5b48e01b996cadc001622fb5e363b421c0c0",
        "lastblockhash": "0x8731172b2b6488cf61ff670e8e14add9cca1128e30f274ddd3b371b14c7d3309",
        "network": "Shanghai",
        "pre": {
            "0x1000000000000000000000000000000000000000": {
                "nonce": "0x0",
                "balance": "0xba1a9ce0ba1a9ce",
                "code": "0x6010565b6000828201905092915050565b601a600260016003565b60005560206000f3",
                "storage": {}
            },
            "0xa94f5374fce5edbc8e2a8697c15331677e6ebf0b": {
                "nonce": "0x0",
                "balance": "0xba1a9ce0ba1a9ce",
                "code": "0x",
                "storage": {}
            }
        },
        "postState": {
            "0x1000000000000000000000000000000000000000": {
                "code": "0x6010565b6000828201905092915050565b601a600260016003565b60005560206000f3",
                "storage": {
                    "0x0000000000000000000000000000000000000000000000000000000000000000": "0x0000000000000000000000000000000000000000000000000000000000000003"
                },
                "balance": "0xba1a9ce0ba1a9ce"
            },
            "0x2adc25665018aa1fe0e6bc666dac8fc2697ff9ba": {
                "balance": "0x1fa07"
            },
            "0xa94f5374fce5edbc8e2a8697c15331677e6ebf0b": {
                "balance": "0xba1a9ce0b9b130c",
                "nonce": "0x1"
            }
        },
        "sealEngine": "NoProof"
    }
}