{
    "tests/prague/eip7692_eof_v1/eip3540_eof_v1/test_calls.py::test_eof_calls_legacy_mstore[fork_PragueEIP7692-state_test-extcall]": {
        "env": {
            "currentCoinbase": "0x2adc25665018aa1fe0e6bc666dac8fc2697ff9ba",
            "currentGasLimit": "0x016345785d8a0000",
            "currentNumber": "0x01",
            "currentTimestamp": "0x03e8",
            "currentRandom": "0x0000000000000000000000000000000000000000000000000000000000000000",
            "currentDifficulty": "0x00",
            "currentBaseFee": "0x07",
            "currentExcessBlobGas": "0x00"
        },
        "pre": {
            "0xa94f5374fce5edbc8e2a8697c15331677e6ebf0b": {
                "nonce": "0x00",
                "balance": "0x3635c9adc5dea00000",
                "code": "0x",
                "storage": {}
            },
            "0x0000000000000000000000000000000000001000": {
                "nonce": "0x01",
                "balance": "0x00",
                "code": "0x604260005360206000f3",
                "storage": {}
            },
            "0x0000000000000000000000000000000000001100": {
                "nonce": "0x01",
                "balance": "0x00",
                "code": "0xef000101000402000100300400000000800004600060006000730000000000000000000000000000000000001000f86002553d6004556000f760035561201560015500",
                "storage": {}
            }
        },
        "transaction": {
            "nonce": "0x00",
            "gasPrice": "0x0a",
            "gasLimit": [
                "0x02faf080"
            ],
            "to": "0x0000000000000000000000000000000000001100",
            "value": [
                "0x00"
            ],
            "data": [
                "0x"
            ],
            "sender": "0xa94f5374fce5edbc8e2a8697c15331677e6ebf0b",
            "secretKey": "0x45a915e4d060149eb4365960e6a7a45f334393093061116b197e3240065ff2d8"
        },
        "post": {
            "Prague": [
                {
                    "hash": "0xa1a738cf5153d84159b2049afbb85d9a60bd57035d8d4cf8a3343b2250ff7805",
                    "logs": "0x1dcc4de8dec75d7aab85b567b6ccd41ad312451b948a7413f0a142fd40d49347",
                    "txbytes": "0xf861800a8402faf08094000000000000000000000000000000000000110080801ca056c88a6605edb3f99e9e7cc00f610552b178d48d42c0b35ad6fac734c0494f0ca03eeaa85d4f62077ba1752742940c70b52ca3c6cd939d7eaaa4157c45362365be",
                    "indexes": {
                        "data": 0,
                        "gas": 0,
                        "value": 0
                    }
                }
            ]
        },
        "_info": {
            "hash": "0x499e265d571aad1bd4fab13f4f4f126a0b9fa5d9eac9807ca1721a2c41064b96",
            "comment": "`execution-spec-tests` generated test",
            "filling-transition-tool": "Hyperledger Besu evm 24.7-develop-8ca7129",
            "description": "Test function documentation:\nTest EOF contracts calling Legacy contracts that return data",
            "url": "https://github.com/ethereum/execution-spec-tests/blob/eip7692-prague@v1.0.5/tests/prague/eip7692_eof_v1/eip3540_eof_v1/test_calls.py#L403",
            "reference-spec": "https://github.com/ethereum/EIPs/blob/master/EIPS/eip-3540.md",
            "reference-spec-version": "2f013de4065babde7c02f84a2ce9864a3c5bfbd3"
        }
    },
    "tests/prague/eip7692_eof_v1/eip3540_eof_v1/test_calls.py::test_eof_calls_legacy_mstore[fork_PragueEIP7692-state_test-extdelegatecall]": {
        "env": {
            "currentCoinbase": "0x2adc25665018aa1fe0e6bc666dac8fc2697ff9ba",
            "currentGasLimit": "0x016345785d8a0000",
            "currentNumber": "0x01",
            "currentTimestamp": "0x03e8",
            "currentRandom": "0x0000000000000000000000000000000000000000000000000000000000000000",
            "currentDifficulty": "0x00",
            "currentBaseFee": "0x07",
            "currentExcessBlobGas": "0x00"
        },
        "pre": {
            "0xa94f5374fce5edbc8e2a8697c15331677e6ebf0b": {
                "nonce": "0x00",
                "balance": "0x3635c9adc5dea00000",
                "code": "0x",
                "storage": {}
            },
            "0x0000000000000000000000000000000000001000": {
                "nonce": "0x01",
                "balance": "0x00",
                "code": "0x604260005360206000f3",
                "storage": {}
            },
            "0x0000000000000000000000000000000000001100": {
                "nonce": "0x01",
                "balance": "0x00",
                "code": "0xef0001010004020001002e040000000080000360006000730000000000000000000000000000000000001000f96002553d6004556000f760035561201560015500",
                "storage": {}
            }
        },
        "transaction": {
            "nonce": "0x00",
            "gasPrice": "0x0a",
            "gasLimit": [
                "0x02faf080"
            ],
            "to": "0x0000000000000000000000000000000000001100",
            "value": [
                "0x00"
            ],
            "data": [
                "0x"
            ],
            "sender": "0xa94f5374fce5edbc8e2a8697c15331677e6ebf0b",
            "secretKey": "0x45a915e4d060149eb4365960e6a7a45f334393093061116b197e3240065ff2d8"
        },
        "post": {
            "Prague": [
                {
                    "hash": "0x9cb7498ef4cb3e6466f3e8fcceb32dcb30db864f2f164bb1618509e3012a9a49",
                    "logs": "0x1dcc4de8dec75d7aab85b567b6ccd41ad312451b948a7413f0a142fd40d49347",
                    "txbytes": "0xf861800a8402faf08094000000000000000000000000000000000000110080801ca056c88a6605edb3f99e9e7cc00f610552b178d48d42c0b35ad6fac734c0494f0ca03eeaa85d4f62077ba1752742940c70b52ca3c6cd939d7eaaa4157c45362365be",
                    "indexes": {
                        "data": 0,
                        "gas": 0,
                        "value": 0
                    }
                }
            ]
        },
        "_info": {
            "hash": "0xfe075a2418f5a7429c2677a3ee8346411a20dc311016e4268c84edc66080d9aa",
            "comment": "`execution-spec-tests` generated test",
            "filling-transition-tool": "Hyperledger Besu evm 24.7-develop-8ca7129",
            "description": "Test function documentation:\nTest EOF contracts calling Legacy contracts that return data",
            "url": "https://github.com/ethereum/execution-spec-tests/blob/eip7692-prague@v1.0.5/tests/prague/eip7692_eof_v1/eip3540_eof_v1/test_calls.py#L403",
            "reference-spec": "https://github.com/ethereum/EIPs/blob/master/EIPS/eip-3540.md",
            "reference-spec-version": "2f013de4065babde7c02f84a2ce9864a3c5bfbd3"
        }
    },
    "tests/prague/eip7692_eof_v1/eip3540_eof_v1/test_calls.py::test_eof_calls_legacy_mstore[fork_PragueEIP7692-state_test-extstaticall]": {
        "env": {
            "currentCoinbase": "0x2adc25665018aa1fe0e6bc666dac8fc2697ff9ba",
            "currentGasLimit": "0x016345785d8a0000",
            "currentNumber": "0x01",
            "currentTimestamp": "0x03e8",
            "currentRandom": "0x0000000000000000000000000000000000000000000000000000000000000000",
            "currentDifficulty": "0x00",
            "currentBaseFee": "0x07",
            "currentExcessBlobGas": "0x00"
        },
        "pre": {
            "0xa94f5374fce5edbc8e2a8697c15331677e6ebf0b": {
                "nonce": "0x00",
                "balance": "0x3635c9adc5dea00000",
                "code": "0x",
                "storage": {}
            },
            "0x0000000000000000000000000000000000001000": {
                "nonce": "0x01",
                "balance": "0x00",
                "code": "0x604260005360206000f3",
                "storage": {}
            },
            "0x0000000000000000000000000000000000001100": {
                "nonce": "0x01",
                "balance": "0x00",
                "code": "0xef0001010004020001002e040000000080000360006000730000000000000000000000000000000000001000fb6002553d6004556000f760035561201560015500",
                "storage": {}
            }
        },
        "transaction": {
            "nonce": "0x00",
            "gasPrice": "0x0a",
            "gasLimit": [
                "0x02faf080"
            ],
            "to": "0x0000000000000000000000000000000000001100",
            "value": [
                "0x00"
            ],
            "data": [
                "0x"
            ],
            "sender": "0xa94f5374fce5edbc8e2a8697c15331677e6ebf0b",
            "secretKey": "0x45a915e4d060149eb4365960e6a7a45f334393093061116b197e3240065ff2d8"
        },
        "post": {
            "Prague": [
                {
                    "hash": "0xf732b12db4e7ca318e2f73111aa0809bf7f3aa9bf970fe5bf8217f8c4af6c2c2",
                    "logs": "0x1dcc4de8dec75d7aab85b567b6ccd41ad312451b948a7413f0a142fd40d49347",
                    "txbytes": "0xf861800a8402faf08094000000000000000000000000000000000000110080801ca056c88a6605edb3f99e9e7cc00f610552b178d48d42c0b35ad6fac734c0494f0ca03eeaa85d4f62077ba1752742940c70b52ca3c6cd939d7eaaa4157c45362365be",
                    "indexes": {
                        "data": 0,
                        "gas": 0,
                        "value": 0
                    }
                }
            ]
        },
        "_info": {
            "hash": "0xc388ad4dc98afd233d1b1ed30144b0feca16cb7097720b38dc82aaec4c0984c6",
            "comment": "`execution-spec-tests` generated test",
            "filling-transition-tool": "Hyperledger Besu evm 24.7-develop-8ca7129",
            "description": "Test function documentation:\nTest EOF contracts calling Legacy contracts that return data",
            "url": "https://github.com/ethereum/execution-spec-tests/blob/eip7692-prague@v1.0.5/tests/prague/eip7692_eof_v1/eip3540_eof_v1/test_calls.py#L403",
            "reference-spec": "https://github.com/ethereum/EIPs/blob/master/EIPS/eip-3540.md",
            "reference-spec-version": "2f013de4065babde7c02f84a2ce9864a3c5bfbd3"
        }
    }
}