{
    "tests/prague/eip2537_bls_12_381_precompiles/test_bls12_g2msm.py::test_call_types[fork_PragueEIP7692-state_test-inf_times_zero-call_opcode_STATICCALL-]": {
        "env": {
            "currentCoinbase": "0x2adc25665018aa1fe0e6bc666dac8fc2697ff9ba",
            "currentGasLimit": "0x016345785d8a0000",
            "currentNumber": "0x01",
            "currentTimestamp": "0x03e8",
            "currentRandom": "0x0000000000000000000000000000000000000000000000000000000000000000",
            "currentDifficulty": "0x00",
            "currentBaseFee": "0x07",
            "currentExcessBlobGas": "0x00"
        },
        "pre": {
            "0x0000000000000000000000000000000000001000": {
                "nonce": "0x01",
                "balance": "0x00",
                "code": "0x36600060003760006000366000601061d2f0fa6000553d6001553d600060003e3d600020600255",
                "storage": {}
            },
            "0xa94f5374fce5edbc8e2a8697c15331677e6ebf0b": {
                "nonce": "0x00",
                "balance": "0x038d7ea4c68000",
                "code": "0x",
                "storage": {}
            }
        },
        "transaction": {
            "nonce": "0x00",
            "gasPrice": "0x0a",
            "gasLimit": [
                "0x996970"
            ],
            "to": "0x0000000000000000000000000000000000001000",
            "value": [
                "0x00"
            ],
            "data": [
                "0x000000000000000000000000000000000000000000000000000000000000000000000000000000000000000000000000000000000000000000000000000000000000000000000000000000000000000000000000000000000000000000000000000000000000000000000000000000000000000000000000000000000000000000000000000000000000000000000000000000000000000000000000000000000000000000000000000000000000000000000000000000000000000000000000000000000000000000000000000000000000000000000000000000000000000000000000000000000000000000000000000000000000000000000000000000000000000000000000000000000000000000000000000000000000000000000000"
            ],
            "sender": "0xa94f5374fce5edbc8e2a8697c15331677e6ebf0b",
            "secretKey": "0x45a915e4d060149eb4365960e6a7a45f334393093061116b197e3240065ff2d8"
        },
        "post": {
            "Prague": [
                {
                    "hash": "0x7f57ae21afd063b23f5e37ecc4d563f31640edb1eb166f953470bcb764698e16",
                    "logs": "0x1dcc4de8dec75d7aab85b567b6ccd41ad312451b948a7413f0a142fd40d49347",
                    "txbytes": "0xf90182800a8399697094000000000000000000000000000000000000100080b9012000000000000000000000000000000000000000000000000000000000000000000000000000000000000000000000000000000000000000000000000000000000000000000000000000000000000000000000000000000000000000000000000000000000000000000000000000000000000000000000000000000000000000000000000000000000000000000000000000000000000000000000000000000000000000000000000000000000000000000000000000000000000000000000000000000000000000000000000000000000000000000000000000000000000000000000000000000000000000000000000000000000000000000000000000000000000000000000000000000000000000000000000000000000000000000000000025a068dc0a10987ead2e56f7bf16264739957faaef4424014fdadc50851373e53862a04f737fcd9499c1f523d4bebd4b969559e24e44e39ab51b6f722a2436a2981495",
                    "indexes": {
                        "data": 0,
                        "gas": 0,
                        "value": 0
                    }
                }
            ]
        },
        "_info": {
            "hash": "0x937265785107ac734973e416101b47c71c9bdd3687c76f7171566f51d64aafe5",
            "comment": "`execution-spec-tests` generated test",
            "filling-transition-tool": "Hyperledger Besu evm 24.9-develop-0d63955",
            "description": "Test function documentation:\n\n    Test the BLS12_G2MSM precompile using different call types.",
            "url": "https://github.com/ethereum/execution-spec-tests/blob/eip7692@v1.1.1/tests/prague/eip2537_bls_12_381_precompiles/test_bls12_g2msm.py#L111",
            "reference-spec": "https://github.com/ethereum/EIPs/blob/master/EIPS/eip-2537.md",
            "reference-spec-version": "cd0f016ad0c4c68b8b1f5c502ef61ab9353b6e5e"
        }
    },
    "tests/prague/eip2537_bls_12_381_precompiles/test_bls12_g2msm.py::test_call_types[fork_PragueEIP7692-state_test-inf_times_zero-call_opcode_DELEGATECALL-]": {
        "env": {
            "currentCoinbase": "0x2adc25665018aa1fe0e6bc666dac8fc2697ff9ba",
            "currentGasLimit": "0x016345785d8a0000",
            "currentNumber": "0x01",
            "currentTimestamp": "0x03e8",
            "currentRandom": "0x0000000000000000000000000000000000000000000000000000000000000000",
            "currentDifficulty": "0x00",
            "currentBaseFee": "0x07",
            "currentExcessBlobGas": "0x00"
        },
        "pre": {
            "0x0000000000000000000000000000000000001000": {
                "nonce": "0x01",
                "balance": "0x00",
                "code": "0x36600060003760006000366000601061d2f0f46000553d6001553d600060003e3d600020600255",
                "storage": {}
            },
            "0xa94f5374fce5edbc8e2a8697c15331677e6ebf0b": {
                "nonce": "0x00",
                "balance": "0x038d7ea4c68000",
                "code": "0x",
                "storage": {}
            }
        },
        "transaction": {
            "nonce": "0x00",
            "gasPrice": "0x0a",
            "gasLimit": [
                "0x996970"
            ],
            "to": "0x0000000000000000000000000000000000001000",
            "value": [
                "0x00"
            ],
            "data": [
                "0x000000000000000000000000000000000000000000000000000000000000000000000000000000000000000000000000000000000000000000000000000000000000000000000000000000000000000000000000000000000000000000000000000000000000000000000000000000000000000000000000000000000000000000000000000000000000000000000000000000000000000000000000000000000000000000000000000000000000000000000000000000000000000000000000000000000000000000000000000000000000000000000000000000000000000000000000000000000000000000000000000000000000000000000000000000000000000000000000000000000000000000000000000000000000000000000000"
            ],
            "sender": "0xa94f5374fce5edbc8e2a8697c15331677e6ebf0b",
            "secretKey": "0x45a915e4d060149eb4365960e6a7a45f334393093061116b197e3240065ff2d8"
        },
        "post": {
            "Prague": [
                {
                    "hash": "0xeb3c21533519fec4fd5c37fb3cbeec0e5024d927286f9ef45ec2fe945e4e5b3f",
                    "logs": "0x1dcc4de8dec75d7aab85b567b6ccd41ad312451b948a7413f0a142fd40d49347",
                    "txbytes": "0xf90182800a8399697094000000000000000000000000000000000000100080b9012000000000000000000000000000000000000000000000000000000000000000000000000000000000000000000000000000000000000000000000000000000000000000000000000000000000000000000000000000000000000000000000000000000000000000000000000000000000000000000000000000000000000000000000000000000000000000000000000000000000000000000000000000000000000000000000000000000000000000000000000000000000000000000000000000000000000000000000000000000000000000000000000000000000000000000000000000000000000000000000000000000000000000000000000000000000000000000000000000000000000000000000000000000000000000000000000025a068dc0a10987ead2e56f7bf16264739957faaef4424014fdadc50851373e53862a04f737fcd9499c1f523d4bebd4b969559e24e44e39ab51b6f722a2436a2981495",
                    "indexes": {
                        "data": 0,
                        "gas": 0,
                        "value": 0
                    }
                }
            ]
        },
        "_info": {
            "hash": "0xe85e4278312eae8f1d6b552514640203a2784f76561e751e31cbb636ef128d28",
            "comment": "`execution-spec-tests` generated test",
            "filling-transition-tool": "Hyperledger Besu evm 24.9-develop-0d63955",
            "description": "Test function documentation:\n\n    Test the BLS12_G2MSM precompile using different call types.",
            "url": "https://github.com/ethereum/execution-spec-tests/blob/eip7692@v1.1.1/tests/prague/eip2537_bls_12_381_precompiles/test_bls12_g2msm.py#L111",
            "reference-spec": "https://github.com/ethereum/EIPs/blob/master/EIPS/eip-2537.md",
            "reference-spec-version": "cd0f016ad0c4c68b8b1f5c502ef61ab9353b6e5e"
        }
    },
    "tests/prague/eip2537_bls_12_381_precompiles/test_bls12_g2msm.py::test_call_types[fork_PragueEIP7692-state_test-inf_times_zero-call_opcode_CALLCODE-]": {
        "env": {
            "currentCoinbase": "0x2adc25665018aa1fe0e6bc666dac8fc2697ff9ba",
            "currentGasLimit": "0x016345785d8a0000",
            "currentNumber": "0x01",
            "currentTimestamp": "0x03e8",
            "currentRandom": "0x0000000000000000000000000000000000000000000000000000000000000000",
            "currentDifficulty": "0x00",
            "currentBaseFee": "0x07",
            "currentExcessBlobGas": "0x00"
        },
        "pre": {
            "0x0000000000000000000000000000000000001000": {
                "nonce": "0x01",
                "balance": "0x00",
                "code": "0x366000600037600060003660006000601061d2f0f26000553d6001553d600060003e3d600020600255",
                "storage": {}
            },
            "0xa94f5374fce5edbc8e2a8697c15331677e6ebf0b": {
                "nonce": "0x00",
                "balance": "0x038d7ea4c68000",
                "code": "0x",
                "storage": {}
            }
        },
        "transaction": {
            "nonce": "0x00",
            "gasPrice": "0x0a",
            "gasLimit": [
                "0x996970"
            ],
            "to": "0x0000000000000000000000000000000000001000",
            "value": [
                "0x00"
            ],
            "data": [
                "0x000000000000000000000000000000000000000000000000000000000000000000000000000000000000000000000000000000000000000000000000000000000000000000000000000000000000000000000000000000000000000000000000000000000000000000000000000000000000000000000000000000000000000000000000000000000000000000000000000000000000000000000000000000000000000000000000000000000000000000000000000000000000000000000000000000000000000000000000000000000000000000000000000000000000000000000000000000000000000000000000000000000000000000000000000000000000000000000000000000000000000000000000000000000000000000000000"
            ],
            "sender": "0xa94f5374fce5edbc8e2a8697c15331677e6ebf0b",
            "secretKey": "0x45a915e4d060149eb4365960e6a7a45f334393093061116b197e3240065ff2d8"
        },
        "post": {
            "Prague": [
                {
                    "hash": "0x5e69e122a5f269ab0b78976fa72af57581943d813634932952239073e28e70cd",
                    "logs": "0x1dcc4de8dec75d7aab85b567b6ccd41ad312451b948a7413f0a142fd40d49347",
                    "txbytes": "0xf90182800a8399697094000000000000000000000000000000000000100080b9012000000000000000000000000000000000000000000000000000000000000000000000000000000000000000000000000000000000000000000000000000000000000000000000000000000000000000000000000000000000000000000000000000000000000000000000000000000000000000000000000000000000000000000000000000000000000000000000000000000000000000000000000000000000000000000000000000000000000000000000000000000000000000000000000000000000000000000000000000000000000000000000000000000000000000000000000000000000000000000000000000000000000000000000000000000000000000000000000000000000000000000000000000000000000000000000000025a068dc0a10987ead2e56f7bf16264739957faaef4424014fdadc50851373e53862a04f737fcd9499c1f523d4bebd4b969559e24e44e39ab51b6f722a2436a2981495",
                    "indexes": {
                        "data": 0,
                        "gas": 0,
                        "value": 0
                    }
                }
            ]
        },
        "_info": {
            "hash": "0x9060b9575e2d343bb642edcf6dd153ce180a584eb4e8a6377339daea43357a3e",
            "comment": "`execution-spec-tests` generated test",
            "filling-transition-tool": "Hyperledger Besu evm 24.9-develop-0d63955",
            "description": "Test function documentation:\n\n    Test the BLS12_G2MSM precompile using different call types.",
            "url": "https://github.com/ethereum/execution-spec-tests/blob/eip7692@v1.1.1/tests/prague/eip2537_bls_12_381_precompiles/test_bls12_g2msm.py#L111",
            "reference-spec": "https://github.com/ethereum/EIPs/blob/master/EIPS/eip-2537.md",
            "reference-spec-version": "cd0f016ad0c4c68b8b1f5c502ef61ab9353b6e5e"
        }
    }
}