{
    "tests/cancun/eip7516_blobgasfee/test_blobgasfee_opcode.py::test_blobbasefee_during_fork[fork_ShanghaiToCancunAtTime15k-blockchain_test]": {
        "_info": {
            "comment": "`execution-spec-tests` generated test",
            "filling-transition-tool": "evm version 1.13.12-unstable-cd0770ea-20240124",
            "reference-spec": "https://github.com/ethereum/EIPs/blob/master/EIPS/eip-7516.md",
            "reference-spec-version": "2ade0452efe8124378f35284676ddfd16dd56ecd"
        },
        "network": "ShanghaiToCancunAtTime15k",
        "genesisRLP": "0xf9021df90217a00000000000000000000000000000000000000000000000000000000000000000a01dcc4de8dec75d7aab85b567b6ccd41ad312451b948a7413f0a142fd40d49347940000000000000000000000000000000000000000a0e9e575281143d92a09651e0d994297e00088a008b1f01af5bc9edaf5053cdb71a056e81f171bcc55a6ff8345e692c0f86e5b48e01b996cadc001622fb5e363b421a056e81f171bcc55a6ff8345e692c0f86e5b48e01b996cadc001622fb5e363b421b9010000000000000000000000000000000000000000000000000000000000000000000000000000000000000000000000000000000000000000000000000000000000000000000000000000000000000000000000000000000000000000000000000000000000000000000000000000000000000000000000000000000000000000000000000000000000000000000000000000000000000000000000000000000000000000000000000000000000000000000000000000000000000000000000000000000000000000000000000000000000000000000000000000000000000000000000000000000000000000000000000000000000000000000000000000000000808088016345785d8a0000808000a0000000000000000000000000000000000000000000000000000000000000000088000000000000000007a056e81f171bcc55a6ff8345e692c0f86e5b48e01b996cadc001622fb5e363b421c0c0c0",
        "genesisBlockHeader": {
            "parentHash": "0x0000000000000000000000000000000000000000000000000000000000000000",
            "uncleHash": "0x1dcc4de8dec75d7aab85b567b6ccd41ad312451b948a7413f0a142fd40d49347",
            "coinbase": "0x0000000000000000000000000000000000000000",
            "stateRoot": "0xe9e575281143d92a09651e0d994297e00088a008b1f01af5bc9edaf5053cdb71",
            "transactionsTrie": "0x56e81f171bcc55a6ff8345e692c0f86e5b48e01b996cadc001622fb5e363b421",
            "receiptTrie": "0x56e81f171bcc55a6ff8345e692c0f86e5b48e01b996cadc001622fb5e363b421",
            "bloom": "0x00000000000000000000000000000000000000000000000000000000000000000000000000000000000000000000000000000000000000000000000000000000000000000000000000000000000000000000000000000000000000000000000000000000000000000000000000000000000000000000000000000000000000000000000000000000000000000000000000000000000000000000000000000000000000000000000000000000000000000000000000000000000000000000000000000000000000000000000000000000000000000000000000000000000000000000000000000000000000000000000000000000000000000000000000000000",
            "difficulty": "0x00",
            "number": "0x00",
            "gasLimit": "0x016345785d8a0000",
            "gasUsed": "0x00",
            "timestamp": "0x00",
            "extraData": "0x00",
            "mixHash": "0x0000000000000000000000000000000000000000000000000000000000000000",
            "nonce": "0x0000000000000000",
            "baseFeePerGas": "0x07",
            "withdrawalsRoot": "0x56e81f171bcc55a6ff8345e692c0f86e5b48e01b996cadc001622fb5e363b421",
            "hash": "0x7fd744c32a1758e5c815d49034a538f8a22a22101c6e5a4d2f31a69a2a5917ad"
        },
        "blocks": [
            {
                "rlp": "0xf90289f9021ca07fd744c32a1758e5c815d49034a538f8a22a22101c6e5a4d2f31a69a2a5917ada01dcc4de8dec75d7aab85b567b6ccd41ad312451b948a7413f0a142fd40d49347942adc25665018aa1fe0e6bc666dac8fc2697ff9baa071f45622b46a0be10d8c06a67ddc993933ba8f08922525c0768855dbd4d9f38aa00fe91412a1972bfc336f46726e2d5616b033ad0b7b58b5abb3cf596c18c936fca0fe1031d3afe85b36192c7e26089083ffcadf2a006869c9d3eaae3056dceaea4bb9010000000000000000000000000000000000000000000000000000000000000000000000000000000000000000000000000000000000000000000000000000000000000000000000000000000000000000000000000000000000000000000000000000000000000000000000000000000000000000000000000000000000000000000000000000000000000000000000000000000000000000000000000000000000000000000000000000000000000000000000000000000000000000000000000000000000000000000000000000000000000000000000000000000000000000000000000000000000000000000000000000000000000000000000000000000000800188016345785d8a000083015d0e821d4c80a0000000000000000000000000000000000000000000000000000000000000000088000000000000000007a056e81f171bcc55a6ff8345e692c0f86e5b48e01b996cadc001622fb5e363b421f866f86480843b9aca00830f4240940000000000000000000000000000000000000100808025a078bda1e1cb92b405bf1c49f292286f622ebd05ea52b0d7793e7e614c560c86d3a07e9b6734e2203cd58a048e8b1750bea1d9ccdf10f5d612dad80550fdd2081c4ac0c0",
                "blockHeader": {
                    "parentHash": "0x7fd744c32a1758e5c815d49034a538f8a22a22101c6e5a4d2f31a69a2a5917ad",
                    "uncleHash": "0x1dcc4de8dec75d7aab85b567b6ccd41ad312451b948a7413f0a142fd40d49347",
                    "coinbase": "0x2adc25665018aa1fe0e6bc666dac8fc2697ff9ba",
                    "stateRoot": "0x71f45622b46a0be10d8c06a67ddc993933ba8f08922525c0768855dbd4d9f38a",
                    "transactionsTrie": "0x0fe91412a1972bfc336f46726e2d5616b033ad0b7b58b5abb3cf596c18c936fc",
                    "receiptTrie": "0xfe1031d3afe85b36192c7e26089083ffcadf2a006869c9d3eaae3056dceaea4b",
                    "bloom": "0x00000000000000000000000000000000000000000000000000000000000000000000000000000000000000000000000000000000000000000000000000000000000000000000000000000000000000000000000000000000000000000000000000000000000000000000000000000000000000000000000000000000000000000000000000000000000000000000000000000000000000000000000000000000000000000000000000000000000000000000000000000000000000000000000000000000000000000000000000000000000000000000000000000000000000000000000000000000000000000000000000000000000000000000000000000000",
                    "difficulty": "0x00",
                    "number": "0x01",
                    "gasLimit": "0x016345785d8a0000",
                    "gasUsed": "0x015d0e",
                    "timestamp": "0x1d4c",
                    "extraData": "0x",
                    "mixHash": "0x0000000000000000000000000000000000000000000000000000000000000000",
                    "nonce": "0x0000000000000000",
                    "baseFeePerGas": "0x07",
                    "withdrawalsRoot": "0x56e81f171bcc55a6ff8345e692c0f86e5b48e01b996cadc001622fb5e363b421",
                    "hash": "0xbb024e45e70769a0dfea6cda3477651b26200bbbcaba46510eca5b3c994c6c2a"
                },
                "blocknumber": "1",
                "transactions": [
                    {
                        "type": "0x00",
                        "chainId": "0x01",
                        "nonce": "0x00",
                        "gasPrice": "0x3b9aca00",
                        "gasLimit": "0x0f4240",
                        "to": "0x0000000000000000000000000000000000000100",
                        "value": "0x00",
                        "data": "0x",
                        "v": "0x25",
                        "r": "0x78bda1e1cb92b405bf1c49f292286f622ebd05ea52b0d7793e7e614c560c86d3",
                        "s": "0x7e9b6734e2203cd58a048e8b1750bea1d9ccdf10f5d612dad80550fdd2081c4a",
                        "sender": "0xa94f5374fce5edbc8e2a8697c15331677e6ebf0b"
                    }
                ],
                "uncleHeaders": [],
                "withdrawals": []
            },
            {
                "rlp": "0xf90289f9021ca0bb024e45e70769a0dfea6cda3477651b26200bbbcaba46510eca5b3c994c6c2aa01dcc4de8dec75d7aab85b567b6ccd41ad312451b948a7413f0a142fd40d49347942adc25665018aa1fe0e6bc666dac8fc2697ff9baa0612186557d411e0af77103bbb7f2dfd57e735a7fd31723b5ea86cc4411b0c1cfa0bbf0ef003e447b033280e14920471e3d1079e0420ff336551a69bc058282826fa0fe1031d3afe85b36192c7e26089083ffcadf2a006869c9d3eaae3056dceaea4bb9010000000000000000000000000000000000000000000000000000000000000000000000000000000000000000000000000000000000000000000000000000000000000000000000000000000000000000000000000000000000000000000000000000000000000000000000000000000000000000000000000000000000000000000000000000000000000000000000000000000000000000000000000000000000000000000000000000000000000000000000000000000000000000000000000000000000000000000000000000000000000000000000000000000000000000000000000000000000000000000000000000000000000000000000000000000000800288016345785d8a000083015d0e823a9780a0000000000000000000000000000000000000000000000000000000000000000088000000000000000007a056e81f171bcc55a6ff8345e692c0f86e5b48e01b996cadc001622fb5e363b421f866f86401843b9aca00830f4240940000000000000000000000000000000000000100808025a05a305eeb6255567555610c96fec7c90e285aef7d705790174cacff4095e58b5aa009a597b4bbf42f22c544ca3b6e8988ee7c304bb0c9c2470dba9ca1c958625402c0c0",
                "blockHeader": {
                    "parentHash": "0xbb024e45e70769a0dfea6cda3477651b26200bbbcaba46510eca5b3c994c6c2a",
                    "uncleHash": "0x1dcc4de8dec75d7aab85b567b6ccd41ad312451b948a7413f0a142fd40d49347",
                    "coinbase": "0x2adc25665018aa1fe0e6bc666dac8fc2697ff9ba",
                    "stateRoot": "0x612186557d411e0af77103bbb7f2dfd57e735a7fd31723b5ea86cc4411b0c1cf",
                    "transactionsTrie": "0xbbf0ef003e447b033280e14920471e3d1079e0420ff336551a69bc058282826f",
                    "receiptTrie": "0xfe1031d3afe85b36192c7e26089083ffcadf2a006869c9d3eaae3056dceaea4b",
                    "bloom": "0x00000000000000000000000000000000000000000000000000000000000000000000000000000000000000000000000000000000000000000000000000000000000000000000000000000000000000000000000000000000000000000000000000000000000000000000000000000000000000000000000000000000000000000000000000000000000000000000000000000000000000000000000000000000000000000000000000000000000000000000000000000000000000000000000000000000000000000000000000000000000000000000000000000000000000000000000000000000000000000000000000000000000000000000000000000000",
                    "difficulty": "0x00",
                    "number": "0x02",
                    "gasLimit": "0x016345785d8a0000",
                    "gasUsed": "0x015d0e",
                    "timestamp": "0x3a97",
                    "extraData": "0x",
                    "mixHash": "0x0000000000000000000000000000000000000000000000000000000000000000",
                    "nonce": "0x0000000000000000",
                    "baseFeePerGas": "0x07",
                    "withdrawalsRoot": "0x56e81f171bcc55a6ff8345e692c0f86e5b48e01b996cadc001622fb5e363b421",
                    "hash": "0xaaf20a877b0d6e351e380cf2496761c1fab7a188fc8a2ccd7a382a14f899cfff"
                },
                "blocknumber": "2",
                "transactions": [
                    {
                        "type": "0x00",
                        "chainId": "0x01",
                        "nonce": "0x01",
                        "gasPrice": "0x3b9aca00",
                        "gasLimit": "0x0f4240",
                        "to": "0x0000000000000000000000000000000000000100",
                        "value": "0x00",
                        "data": "0x",
                        "v": "0x25",
                        "r": "0x5a305eeb6255567555610c96fec7c90e285aef7d705790174cacff4095e58b5a",
                        "s": "0x09a597b4bbf42f22c544ca3b6e8988ee7c304bb0c9c2470dba9ca1c958625402",
                        "sender": "0xa94f5374fce5edbc8e2a8697c15331677e6ebf0b"
                    }
                ],
                "uncleHeaders": [],
                "withdrawals": []
            },
            {
                "rlp": "0xf902abf9023ea0aaf20a877b0d6e351e380cf2496761c1fab7a188fc8a2ccd7a382a14f899cfffa01dcc4de8dec75d7aab85b567b6ccd41ad312451b948a7413f0a142fd40d49347942adc25665018aa1fe0e6bc666dac8fc2697ff9baa0aa3a5da509c2d0b5d0bd44387bea2a9a0cec12fd28ca40afea49df3c9b52c5b2a00b07513b1742c08217da6ca0ee521005b23f3b6ea638c6a368132e4df359e09ea0029086b067b48abbd5d8cdade9e4161e288342af5850ca5c07d626db2c52c1b6b9010000000000000000000000000000000000000000000000000000000000000000000000000000000000000000000000000000000000000000000000000000000000000000000000000000000000000000000000000000000000000000000000000000000000000000000000000000000000000000000000000000000000000000000000000000000000000000000000000000000000000000000000000000000000000000000000000000000000000000000000000000000000000000000000000000000000000000000000000000000000000000000000000000000000000000000000000000000000000000000000000000000000000000000000000000000000800388016345785d8a000082b29d823a9880a0000000000000000000000000000000000000000000000000000000000000000088000000000000000007a056e81f171bcc55a6ff8345e692c0f86e5b48e01b996cadc001622fb5e363b4218080a00000000000000000000000000000000000000000000000000000000000000000f866f86402843b9aca00830f4240940000000000000000000000000000000000000100808026a080830b778f8433c8b58035d9c099d6aa7cd892b3dc68569b703da1eb91add652a06d52d9f26efdcdf3f4087f02cd961cae2fd7a6773140e4bf867e49aacaf9d87fc0c0",
                "blockHeader": {
                    "parentHash": "0xaaf20a877b0d6e351e380cf2496761c1fab7a188fc8a2ccd7a382a14f899cfff",
                    "uncleHash": "0x1dcc4de8dec75d7aab85b567b6ccd41ad312451b948a7413f0a142fd40d49347",
                    "coinbase": "0x2adc25665018aa1fe0e6bc666dac8fc2697ff9ba",
                    "stateRoot": "0xaa3a5da509c2d0b5d0bd44387bea2a9a0cec12fd28ca40afea49df3c9b52c5b2",
                    "transactionsTrie": "0x0b07513b1742c08217da6ca0ee521005b23f3b6ea638c6a368132e4df359e09e",
                    "receiptTrie": "0x029086b067b48abbd5d8cdade9e4161e288342af5850ca5c07d626db2c52c1b6",
                    "bloom": "0x00000000000000000000000000000000000000000000000000000000000000000000000000000000000000000000000000000000000000000000000000000000000000000000000000000000000000000000000000000000000000000000000000000000000000000000000000000000000000000000000000000000000000000000000000000000000000000000000000000000000000000000000000000000000000000000000000000000000000000000000000000000000000000000000000000000000000000000000000000000000000000000000000000000000000000000000000000000000000000000000000000000000000000000000000000000",
                    "difficulty": "0x00",
                    "number": "0x03",
                    "gasLimit": "0x016345785d8a0000",
                    "gasUsed": "0xb29d",
                    "timestamp": "0x3a98",
                    "extraData": "0x",
                    "mixHash": "0x0000000000000000000000000000000000000000000000000000000000000000",
                    "nonce": "0x0000000000000000",
                    "baseFeePerGas": "0x07",
                    "withdrawalsRoot": "0x56e81f171bcc55a6ff8345e692c0f86e5b48e01b996cadc001622fb5e363b421",
                    "blobGasUsed": "0x00",
                    "excessBlobGas": "0x00",
                    "parentBeaconBlockRoot": "0x0000000000000000000000000000000000000000000000000000000000000000",
                    "hash": "0xc0331cc849aa5a865a312af744ce8a18c1068e49831c65a8f507ab4fae004f7d"
                },
                "blocknumber": "3",
                "transactions": [
                    {
                        "type": "0x00",
                        "chainId": "0x01",
                        "nonce": "0x02",
                        "gasPrice": "0x3b9aca00",
                        "gasLimit": "0x0f4240",
                        "to": "0x0000000000000000000000000000000000000100",
                        "value": "0x00",
                        "data": "0x",
                        "v": "0x26",
                        "r": "0x80830b778f8433c8b58035d9c099d6aa7cd892b3dc68569b703da1eb91add652",
                        "s": "0x6d52d9f26efdcdf3f4087f02cd961cae2fd7a6773140e4bf867e49aacaf9d87f",
                        "sender": "0xa94f5374fce5edbc8e2a8697c15331677e6ebf0b"
                    }
                ],
                "uncleHeaders": [],
                "withdrawals": []
            }
        ],
        "lastblockhash": "0xc0331cc849aa5a865a312af744ce8a18c1068e49831c65a8f507ab4fae004f7d",
        "pre": {
            "0x0000000000000000000000000000000000000100": {
                "nonce": "0x00",
                "balance": "0x00",
                "code": "0x6000600060006000600073000000000000000000000000000000000000020061fffff14355",
                "storage": {
                    "0x01": "0x01",
                    "0x02": "0x01"
                }
            },
            "0x0000000000000000000000000000000000000200": {
                "nonce": "0x00",
                "balance": "0x00",
                "code": "0x4a00",
                "storage": {}
            },
            "0x000f3df6d732807ef1319fb7b8bb8522d0beac02": {
                "nonce": "0x01",
                "balance": "0x00",
                "code": "0x3373fffffffffffffffffffffffffffffffffffffffe14604d57602036146024575f5ffd5b5f35801560495762001fff810690815414603c575f5ffd5b62001fff01545f5260205ff35b5f5ffd5b62001fff42064281555f359062001fff015500",
                "storage": {}
            },
            "0xa94f5374fce5edbc8e2a8697c15331677e6ebf0b": {
                "nonce": "0x00",
                "balance": "0x1d6329f1c35ca4bfabb9f5610000000000",
                "code": "0x",
                "storage": {}
            }
        },
        "postState": {
            "0x0000000000000000000000000000000000000100": {
                "nonce": "0x00",
                "balance": "0x00",
                "code": "0x6000600060006000600073000000000000000000000000000000000000020061fffff14355",
                "storage": {
                    "0x03": "0x01"
                }
            },
            "0x0000000000000000000000000000000000000200": {
                "nonce": "0x00",
                "balance": "0x00",
                "code": "0x4a00",
                "storage": {}
            },
            "0x000f3df6d732807ef1319fb7b8bb8522d0beac02": {
                "nonce": "0x01",
                "balance": "0x00",
                "code": "0x3373fffffffffffffffffffffffffffffffffffffffe14604d57602036146024575f5ffd5b5f35801560495762001fff810690815414603c575f5ffd5b62001fff01545f5260205ff35b5f5ffd5b62001fff42064281555f359062001fff015500",
                "storage": {
                    "0x1a99": "0x3a98"
                }
            },
            "0x2adc25665018aa1fe0e6bc666dac8fc2697ff9ba": {
                "nonce": "0x00",
                "balance": "0xcc20bdfc00f1",
                "code": "0x",
                "storage": {}
            },
            "0xa94f5374fce5edbc8e2a8697c15331677e6ebf0b": {
                "nonce": "0x03",
                "balance": "0x1d6329f1c35ca4bfabb9f494df41ec0600",
                "code": "0x",
                "storage": {}
            }
        },
        "sealEngine": "NoProof"
    }
}