{
    "tests/cancun/eip7516_blobgasfee/test_blobgasfee_opcode.py::test_blobbasefee_during_fork[fork_ShanghaiToCancunAtTime15k-blockchain_test-]": {
        "network": "ShanghaiToCancunAtTime15k",
        "genesisBlockHeader": {
            "parentHash": "0x0000000000000000000000000000000000000000000000000000000000000000",
            "uncleHash": "0x1dcc4de8dec75d7aab85b567b6ccd41ad312451b948a7413f0a142fd40d49347",
            "coinbase": "0x0000000000000000000000000000000000000000",
            "stateRoot": "0x699e74cfc7e9dbe3ed05075b461b65ccfbe19d10569d2bde13f0c488cca34881",
            "transactionsTrie": "0x56e81f171bcc55a6ff8345e692c0f86e5b48e01b996cadc001622fb5e363b421",
            "receiptTrie": "0x56e81f171bcc55a6ff8345e692c0f86e5b48e01b996cadc001622fb5e363b421",
            "bloom": "0x00000000000000000000000000000000000000000000000000000000000000000000000000000000000000000000000000000000000000000000000000000000000000000000000000000000000000000000000000000000000000000000000000000000000000000000000000000000000000000000000000000000000000000000000000000000000000000000000000000000000000000000000000000000000000000000000000000000000000000000000000000000000000000000000000000000000000000000000000000000000000000000000000000000000000000000000000000000000000000000000000000000000000000000000000000000",
            "difficulty": "0x00",
            "number": "0x00",
            "gasLimit": "0x016345785d8a0000",
            "gasUsed": "0x00",
            "timestamp": "0x00",
            "extraData": "0x00",
            "mixHash": "0x0000000000000000000000000000000000000000000000000000000000000000",
            "nonce": "0x0000000000000000",
            "baseFeePerGas": "0x07",
            "withdrawalsRoot": "0x56e81f171bcc55a6ff8345e692c0f86e5b48e01b996cadc001622fb5e363b421",
            "hash": "0xcb4c9938e7b1914d336042a552c87b371cf84a364e03539587928d84581482de"
        },
        "pre": {
            "0x000f3df6d732807ef1319fb7b8bb8522d0beac02": {
                "nonce": "0x01",
                "balance": "0x00",
                "code": "0x3373fffffffffffffffffffffffffffffffffffffffe14604d57602036146024575f5ffd5b5f35801560495762001fff810690815414603c575f5ffd5b62001fff01545f5260205ff35b5f5ffd5b62001fff42064281555f359062001fff015500",
                "storage": {}
            },
            "0x0000000000000000000000000000000000001000": {
                "nonce": "0x01",
                "balance": "0x00",
                "code": "0x4a00",
                "storage": {}
            },
            "0x0000000000000000000000000000000000001100": {
                "nonce": "0x01",
                "balance": "0x00",
                "code": "0x6000600060006000600061100061fffff14355",
                "storage": {}
            },
            "0xa94f5374fce5edbc8e2a8697c15331677e6ebf0b": {
                "nonce": "0x00",
                "balance": "0x3635c9adc5dea00000",
                "code": "0x",
                "storage": {}
            }
        },
        "postState": {
            "0x0000000000000000000000000000000000001000": {
                "nonce": "0x01",
                "balance": "0x00",
                "code": "0x4a00",
                "storage": {}
            },
            "0x0000000000000000000000000000000000001100": {
                "nonce": "0x01",
                "balance": "0x00",
                "code": "0x6000600060006000600061100061fffff14355",
                "storage": {
                    "0x03": "0x01"
                }
            },
            "0x000f3df6d732807ef1319fb7b8bb8522d0beac02": {
                "nonce": "0x01",
                "balance": "0x00",
                "code": "0x3373fffffffffffffffffffffffffffffffffffffffe14604d57602036146024575f5ffd5b5f35801560495762001fff810690815414603c575f5ffd5b62001fff01545f5260205ff35b5f5ffd5b62001fff42064281555f359062001fff015500",
                "storage": {
                    "0x1a99": "0x3a98"
                }
            },
            "0x2adc25665018aa1fe0e6bc666dac8fc2697ff9ba": {
                "nonce": "0x00",
                "balance": "0x0a750b",
                "code": "0x",
                "storage": {}
            },
            "0xa94f5374fce5edbc8e2a8697c15331677e6ebf0b": {
                "nonce": "0x03",
                "balance": "0x3635c9adc5de7d2486",
                "code": "0x",
                "storage": {}
            }
        },
        "lastblockhash": "0x629a79fbebc8f80b494ccafe1e651d867ed30b2da5862e1232c2f5b78f42b23c",
        "genesisRLP": "0xf9021df90217a00000000000000000000000000000000000000000000000000000000000000000a01dcc4de8dec75d7aab85b567b6ccd41ad312451b948a7413f0a142fd40d49347940000000000000000000000000000000000000000a0699e74cfc7e9dbe3ed05075b461b65ccfbe19d10569d2bde13f0c488cca34881a056e81f171bcc55a6ff8345e692c0f86e5b48e01b996cadc001622fb5e363b421a056e81f171bcc55a6ff8345e692c0f86e5b48e01b996cadc001622fb5e363b421b9010000000000000000000000000000000000000000000000000000000000000000000000000000000000000000000000000000000000000000000000000000000000000000000000000000000000000000000000000000000000000000000000000000000000000000000000000000000000000000000000000000000000000000000000000000000000000000000000000000000000000000000000000000000000000000000000000000000000000000000000000000000000000000000000000000000000000000000000000000000000000000000000000000000000000000000000000000000000000000000000000000000000000000000000000000000000808088016345785d8a0000808000a0000000000000000000000000000000000000000000000000000000000000000088000000000000000007a056e81f171bcc55a6ff8345e692c0f86e5b48e01b996cadc001622fb5e363b421c0c0c0",
        "blocks": [
            {
                "blockHeader": {
                    "parentHash": "0xcb4c9938e7b1914d336042a552c87b371cf84a364e03539587928d84581482de",
                    "uncleHash": "0x1dcc4de8dec75d7aab85b567b6ccd41ad312451b948a7413f0a142fd40d49347",
                    "coinbase": "0x2adc25665018aa1fe0e6bc666dac8fc2697ff9ba",
                    "stateRoot": "0xbefa543e4446b07a904c2e3d511b5fbaebe2dfd3f81ad58aee28bf979ca87815",
                    "transactionsTrie": "0xaf19826acc3905e291753071d89e2bbe00120b61034d84f03bc4c4e9f328a08b",
                    "receiptTrie": "0x6a1dcd11dc97c554adeef87bed26d022694d8408c135fc704d95b87b116112a2",
                    "bloom": "0x00000000000000000000000000000000000000000000000000000000000000000000000000000000000000000000000000000000000000000000000000000000000000000000000000000000000000000000000000000000000000000000000000000000000000000000000000000000000000000000000000000000000000000000000000000000000000000000000000000000000000000000000000000000000000000000000000000000000000000000000000000000000000000000000000000000000000000000000000000000000000000000000000000000000000000000000000000000000000000000000000000000000000000000000000000000",
                    "difficulty": "0x00",
                    "number": "0x01",
                    "gasLimit": "0x016345785d8a0000",
                    "gasUsed": "0x0164de",
                    "timestamp": "0x1d4c",
                    "extraData": "0x",
                    "mixHash": "0x0000000000000000000000000000000000000000000000000000000000000000",
                    "nonce": "0x0000000000000000",
                    "baseFeePerGas": "0x07",
                    "withdrawalsRoot": "0x56e81f171bcc55a6ff8345e692c0f86e5b48e01b996cadc001622fb5e363b421",
                    "hash": "0xc108699c3328fc79522bc787c8d600b66f5aadfad6254045c7d1ab0460759f77"
                },
                "transactions": [
                    {
                        "type": "0x00",
                        "chainId": "0x01",
                        "nonce": "0x00",
                        "gasPrice": "0x0a",
                        "gasLimit": "0x0f4240",
                        "to": "0x0000000000000000000000000000000000001100",
                        "value": "0x00",
                        "data": "0x",
                        "v": "0x25",
                        "r": "0xae470d7da8404176546d3a7697b2e3ae957efde6c03d33075dcf9c70bd5f6685",
                        "s": "0x38c93673ba928426221e7e315a75dd0be0e2ea74b5a0a91d7482dbfdb339b362",
                        "sender": "0xa94f5374fce5edbc8e2a8697c15331677e6ebf0b"
                    }
                ],
                "uncleHeaders": [],
                "withdrawals": [],
                "rlp": "0xf90285f9021ca0cb4c9938e7b1914d336042a552c87b371cf84a364e03539587928d84581482dea01dcc4de8dec75d7aab85b567b6ccd41ad312451b948a7413f0a142fd40d49347942adc25665018aa1fe0e6bc666dac8fc2697ff9baa0befa543e4446b07a904c2e3d511b5fbaebe2dfd3f81ad58aee28bf979ca87815a0af19826acc3905e291753071d89e2bbe00120b61034d84f03bc4c4e9f328a08ba06a1dcd11dc97c554adeef87bed26d022694d8408c135fc704d95b87b116112a2b9010000000000000000000000000000000000000000000000000000000000000000000000000000000000000000000000000000000000000000000000000000000000000000000000000000000000000000000000000000000000000000000000000000000000000000000000000000000000000000000000000000000000000000000000000000000000000000000000000000000000000000000000000000000000000000000000000000000000000000000000000000000000000000000000000000000000000000000000000000000000000000000000000000000000000000000000000000000000000000000000000000000000000000000000000000000000800188016345785d8a0000830164de821d4c80a0000000000000000000000000000000000000000000000000000000000000000088000000000000000007a056e81f171bcc55a6ff8345e692c0f86e5b48e01b996cadc001622fb5e363b421f862f860800a830f4240940000000000000000000000000000000000001100808025a0ae470d7da8404176546d3a7697b2e3ae957efde6c03d33075dcf9c70bd5f6685a038c93673ba928426221e7e315a75dd0be0e2ea74b5a0a91d7482dbfdb339b362c0c0",
                "blocknumber": "1"
            },
            {
                "blockHeader": {
                    "parentHash": "0xc108699c3328fc79522bc787c8d600b66f5aadfad6254045c7d1ab0460759f77",
                    "uncleHash": "0x1dcc4de8dec75d7aab85b567b6ccd41ad312451b948a7413f0a142fd40d49347",
                    "coinbase": "0x2adc25665018aa1fe0e6bc666dac8fc2697ff9ba",
                    "stateRoot": "0x4823e46af9760ee789bdbab214e173ab2df079e0aa6365bdf06544b6a2a44860",
                    "transactionsTrie": "0xf28be9b670fdc0f4f224a38080bf151cd23e432b94b7af9d75cd75df6fbd482a",
                    "receiptTrie": "0x6a1dcd11dc97c554adeef87bed26d022694d8408c135fc704d95b87b116112a2",
                    "bloom": "0x00000000000000000000000000000000000000000000000000000000000000000000000000000000000000000000000000000000000000000000000000000000000000000000000000000000000000000000000000000000000000000000000000000000000000000000000000000000000000000000000000000000000000000000000000000000000000000000000000000000000000000000000000000000000000000000000000000000000000000000000000000000000000000000000000000000000000000000000000000000000000000000000000000000000000000000000000000000000000000000000000000000000000000000000000000000",
                    "difficulty": "0x00",
                    "number": "0x02",
                    "gasLimit": "0x016345785d8a0000",
                    "gasUsed": "0x0164de",
                    "timestamp": "0x3a97",
                    "extraData": "0x",
                    "mixHash": "0x0000000000000000000000000000000000000000000000000000000000000000",
                    "nonce": "0x0000000000000000",
                    "baseFeePerGas": "0x07",
                    "withdrawalsRoot": "0x56e81f171bcc55a6ff8345e692c0f86e5b48e01b996cadc001622fb5e363b421",
                    "hash": "0x406abc7e8c2443e7fab347bedd2a63dc191574866afe819aa518f1a5dd737b55"
                },
                "transactions": [
                    {
                        "type": "0x00",
                        "chainId": "0x01",
                        "nonce": "0x01",
                        "gasPrice": "0x0a",
                        "gasLimit": "0x0f4240",
                        "to": "0x0000000000000000000000000000000000001100",
                        "value": "0x00",
                        "data": "0x",
                        "v": "0x26",
                        "r": "0x2d39d8492ea1e7535a4fe794fa3294d85efe8f3cdea4a7d90747be3e689be250",
                        "s": "0x32c1d18e86062537e28ce8ba9a657691e85f46ec8c6d9e3f44520af2765d12ac",
                        "sender": "0xa94f5374fce5edbc8e2a8697c15331677e6ebf0b"
                    }
                ],
                "uncleHeaders": [],
                "withdrawals": [],
                "rlp": "0xf90285f9021ca0c108699c3328fc79522bc787c8d600b66f5aadfad6254045c7d1ab0460759f77a01dcc4de8dec75d7aab85b567b6ccd41ad312451b948a7413f0a142fd40d49347942adc25665018aa1fe0e6bc666dac8fc2697ff9baa04823e46af9760ee789bdbab214e173ab2df079e0aa6365bdf06544b6a2a44860a0f28be9b670fdc0f4f224a38080bf151cd23e432b94b7af9d75cd75df6fbd482aa06a1dcd11dc97c554adeef87bed26d022694d8408c135fc704d95b87b116112a2b9010000000000000000000000000000000000000000000000000000000000000000000000000000000000000000000000000000000000000000000000000000000000000000000000000000000000000000000000000000000000000000000000000000000000000000000000000000000000000000000000000000000000000000000000000000000000000000000000000000000000000000000000000000000000000000000000000000000000000000000000000000000000000000000000000000000000000000000000000000000000000000000000000000000000000000000000000000000000000000000000000000000000000000000000000000000000800288016345785d8a0000830164de823a9780a0000000000000000000000000000000000000000000000000000000000000000088000000000000000007a056e81f171bcc55a6ff8345e692c0f86e5b48e01b996cadc001622fb5e363b421f862f860010a830f4240940000000000000000000000000000000000001100808026a02d39d8492ea1e7535a4fe794fa3294d85efe8f3cdea4a7d90747be3e689be250a032c1d18e86062537e28ce8ba9a657691e85f46ec8c6d9e3f44520af2765d12acc0c0",
                "blocknumber": "2"
            },
            {
                "blockHeader": {
                    "parentHash": "0x406abc7e8c2443e7fab347bedd2a63dc191574866afe819aa518f1a5dd737b55",
                    "uncleHash": "0x1dcc4de8dec75d7aab85b567b6ccd41ad312451b948a7413f0a142fd40d49347",
                    "coinbase": "0x2adc25665018aa1fe0e6bc666dac8fc2697ff9ba",
                    "stateRoot": "0x00f3c0189fe59dfc97f6aa1640c0b5dbf68752ea94260ac8f87bc8840fced2cf",
                    "transactionsTrie": "0xbce2be07cb9ef21719c38bc845abd809c764db49d600d1ed06e1a1c1b2258c56",
                    "receiptTrie": "0x029086b067b48abbd5d8cdade9e4161e288342af5850ca5c07d626db2c52c1b6",
                    "bloom": "0x00000000000000000000000000000000000000000000000000000000000000000000000000000000000000000000000000000000000000000000000000000000000000000000000000000000000000000000000000000000000000000000000000000000000000000000000000000000000000000000000000000000000000000000000000000000000000000000000000000000000000000000000000000000000000000000000000000000000000000000000000000000000000000000000000000000000000000000000000000000000000000000000000000000000000000000000000000000000000000000000000000000000000000000000000000000",
                    "difficulty": "0x00",
                    "number": "0x03",
                    "gasLimit": "0x016345785d8a0000",
                    "gasUsed": "0xb29d",
                    "timestamp": "0x3a98",
                    "extraData": "0x",
                    "mixHash": "0x0000000000000000000000000000000000000000000000000000000000000000",
                    "nonce": "0x0000000000000000",
                    "baseFeePerGas": "0x07",
                    "withdrawalsRoot": "0x56e81f171bcc55a6ff8345e692c0f86e5b48e01b996cadc001622fb5e363b421",
                    "blobGasUsed": "0x00",
                    "excessBlobGas": "0x00",
                    "parentBeaconBlockRoot": "0x0000000000000000000000000000000000000000000000000000000000000000",
                    "hash": "0x629a79fbebc8f80b494ccafe1e651d867ed30b2da5862e1232c2f5b78f42b23c"
                },
                "transactions": [
                    {
                        "type": "0x00",
                        "chainId": "0x01",
                        "nonce": "0x02",
                        "gasPrice": "0x0a",
                        "gasLimit": "0x0f4240",
                        "to": "0x0000000000000000000000000000000000001100",
                        "value": "0x00",
                        "data": "0x",
                        "v": "0x26",
                        "r": "0xe9cce47c832ecc846704432d18cbb032602cba525784f7f67449e04147045203",
                        "s": "0x4c18881ea2db8b8b46443712b540101c24f5f1fc1c1d238fcbff24a3d114affc",
                        "sender": "0xa94f5374fce5edbc8e2a8697c15331677e6ebf0b"
                    }
                ],
                "uncleHeaders": [],
                "withdrawals": [],
                "rlp": "0xf902a7f9023ea0406abc7e8c2443e7fab347bedd2a63dc191574866afe819aa518f1a5dd737b55a01dcc4de8dec75d7aab85b567b6ccd41ad312451b948a7413f0a142fd40d49347942adc25665018aa1fe0e6bc666dac8fc2697ff9baa000f3c0189fe59dfc97f6aa1640c0b5dbf68752ea94260ac8f87bc8840fced2cfa0bce2be07cb9ef21719c38bc845abd809c764db49d600d1ed06e1a1c1b2258c56a0029086b067b48abbd5d8cdade9e4161e288342af5850ca5c07d626db2c52c1b6b9010000000000000000000000000000000000000000000000000000000000000000000000000000000000000000000000000000000000000000000000000000000000000000000000000000000000000000000000000000000000000000000000000000000000000000000000000000000000000000000000000000000000000000000000000000000000000000000000000000000000000000000000000000000000000000000000000000000000000000000000000000000000000000000000000000000000000000000000000000000000000000000000000000000000000000000000000000000000000000000000000000000000000000000000000000000000800388016345785d8a000082b29d823a9880a0000000000000000000000000000000000000000000000000000000000000000088000000000000000007a056e81f171bcc55a6ff8345e692c0f86e5b48e01b996cadc001622fb5e363b4218080a00000000000000000000000000000000000000000000000000000000000000000f862f860020a830f4240940000000000000000000000000000000000001100808026a0e9cce47c832ecc846704432d18cbb032602cba525784f7f67449e04147045203a04c18881ea2db8b8b46443712b540101c24f5f1fc1c1d238fcbff24a3d114affcc0c0",
                "blocknumber": "3"
            }
        ],
        "sealEngine": "NoProof",
        "_info": {
            "hash": "0xfcb518877c9721413a95b8d6fbf8a3526625e20995709114a2070f16da8cae73",
            "comment": "`execution-spec-tests` generated test",
            "filling-transition-tool": "evm version 1.14.12-unstable-e100dcf1-20241017",
            "description": "Test function documentation:\n\n    Tests that the BLOBBASEFEE opcode results on exception when called before the fork and\n    succeeds when called after the fork.",
            "url": "https://github.com/ethereum/execution-spec-tests/blob/Not a git repository; this should only be seen in framework tests./tests/cancun/eip7516_blobgasfee/test_blobgasfee_opcode.py#L198",
            "reference-spec": "https://github.com/ethereum/EIPs/blob/master/EIPS/eip-7516.md",
            "reference-spec-version": "2ade0452efe8124378f35284676ddfd16dd56ecd"
        }
    }
}