{
    "tests/verkle/eip4762_verkle_gas_witness/test_sstore.py::test_sstore_insufficient_gas[fork_Verkle-blockchain_test-insufficient_for_storage_slot]": {
        "network": "Verkle",
        "genesisBlockHeader": {
            "parentHash": "0x0000000000000000000000000000000000000000000000000000000000000000",
            "uncleHash": "0x1dcc4de8dec75d7aab85b567b6ccd41ad312451b948a7413f0a142fd40d49347",
            "coinbase": "0x0000000000000000000000000000000000000000",
            "stateRoot": "0x4fcdecba31f6bd4f473b12282c9dd7f04c5a6a4a4d255252fe68fe39a62d350a",
            "transactionsTrie": "0x56e81f171bcc55a6ff8345e692c0f86e5b48e01b996cadc001622fb5e363b421",
            "receiptTrie": "0x56e81f171bcc55a6ff8345e692c0f86e5b48e01b996cadc001622fb5e363b421",
            "bloom": "0x00000000000000000000000000000000000000000000000000000000000000000000000000000000000000000000000000000000000000000000000000000000000000000000000000000000000000000000000000000000000000000000000000000000000000000000000000000000000000000000000000000000000000000000000000000000000000000000000000000000000000000000000000000000000000000000000000000000000000000000000000000000000000000000000000000000000000000000000000000000000000000000000000000000000000000000000000000000000000000000000000000000000000000000000000000000",
            "difficulty": "0x00",
            "number": "0x00",
            "gasLimit": "0x02540be400",
            "gasUsed": "0x00",
            "timestamp": "0x00",
            "extraData": "0x00",
            "mixHash": "0x0000000000000000000000000000000000000000000000000000000000000000",
            "nonce": "0x0000000000000000",
            "baseFeePerGas": "0x07",
            "withdrawalsRoot": "0x56e81f171bcc55a6ff8345e692c0f86e5b48e01b996cadc001622fb5e363b421",
            "hash": "0x0d738824c5544ccf1cadc20834c9b0e613848a8acc53a49b6d8569d578da1973"
        },
        "pre": {
            "0xfffffffffffffffffffffffffffffffffffffffe": {
                "nonce": "0x01",
                "balance": "0x00",
                "code": "0x60203611603157600143035f35116029575f356120000143116029576120005f3506545f5260205ff35b5f5f5260205ff35b5f5ffd00",
                "storage": {}
            },
            "0xa94f5374fce5edbc8e2a8697c15331677e6ebf0b": {
                "nonce": "0x00",
                "balance": "0x3635c9adc5dea00000",
                "code": "0x",
                "storage": {}
            },
            "0x8a0a19589531694250d570040a0c4b74576919b8": {
                "nonce": "0x00",
                "balance": "0x00",
                "code": "0x60ff61138855",
                "storage": {
                    "0x00": "0xaa",
                    "0x03e8": "0xbb"
                }
            }
        },
        "lastblockhash": "0xccbbbd68801ac61428cdcc17cc815906fee5ca4b075a86cf1858b77e4158e5ba",
        "genesisRLP": "0xf9021af90214a00000000000000000000000000000000000000000000000000000000000000000a01dcc4de8dec75d7aab85b567b6ccd41ad312451b948a7413f0a142fd40d49347940000000000000000000000000000000000000000a04fcdecba31f6bd4f473b12282c9dd7f04c5a6a4a4d255252fe68fe39a62d350aa056e81f171bcc55a6ff8345e692c0f86e5b48e01b996cadc001622fb5e363b421a056e81f171bcc55a6ff8345e692c0f86e5b48e01b996cadc001622fb5e363b421b901000000000000000000000000000000000000000000000000000000000000000000000000000000000000000000000000000000000000000000000000000000000000000000000000000000000000000000000000000000000000000000000000000000000000000000000000000000000000000000000000000000000000000000000000000000000000000000000000000000000000000000000000000000000000000000000000000000000000000000000000000000000000000000000000000000000000000000000000000000000000000000000000000000000000000000000000000000000000000000000000000000000000000000000000000000000080808502540be400808000a0000000000000000000000000000000000000000000000000000000000000000088000000000000000007a056e81f171bcc55a6ff8345e692c0f86e5b48e01b996cadc001622fb5e363b421c0c0c0",
        "blocks": [
            {
                "blockHeader": {
                    "parentHash": "0x0d738824c5544ccf1cadc20834c9b0e613848a8acc53a49b6d8569d578da1973",
                    "uncleHash": "0x1dcc4de8dec75d7aab85b567b6ccd41ad312451b948a7413f0a142fd40d49347",
                    "coinbase": "0x2adc25665018aa1fe0e6bc666dac8fc2697ff9ba",
                    "stateRoot": "0x67af2580b06c100e54ea9971a81f706fb68e8ff23d35b45c1422b93fcf33a70d",
                    "transactionsTrie": "0x7ca6bf9a6fe902abbbd011118f8527cbc1cd47a5a5df801e32ab1cbb5f0fd54d",
                    "receiptTrie": "0x9cc274d81e90ccb39cb143d8349778f4d89fbb356dadc4bef50e373fd9e0e02b",
                    "bloom": "0x00000000000000000000000000000000000000000000000000000000000000000000000000000000000000000000000000000000000000000000000000000000000000000000000000000000000000000000000000000000000000000000000000000000000000000000000000000000000000000000000000000000000000000000000000000000000000000000000000000000000000000000000000000000000000000000000000000000000000000000000000000000000000000000000000000000000000000000000000000000000000000000000000000000000000000000000000000000000000000000000000000000000000000000000000000000",
                    "difficulty": "0x00",
                    "number": "0x01",
                    "gasLimit": "0x02540be400",
                    "gasUsed": "0x68b5",
                    "timestamp": "0x0c",
                    "extraData": "0x",
                    "mixHash": "0x0000000000000000000000000000000000000000000000000000000000000000",
                    "nonce": "0x0000000000000000",
                    "baseFeePerGas": "0x07",
                    "withdrawalsRoot": "0x56e81f171bcc55a6ff8345e692c0f86e5b48e01b996cadc001622fb5e363b421",
                    "hash": "0xccbbbd68801ac61428cdcc17cc815906fee5ca4b075a86cf1858b77e4158e5ba"
                },
                "transactions": [
                    {
                        "type": "0x00",
                        "chainId": "0x01",
                        "nonce": "0x00",
                        "gasPrice": "0x0a",
                        "gasLimit": "0x68b5",
                        "to": "0x8a0a19589531694250d570040a0c4b74576919b8",
                        "value": "0x00",
                        "data": "0x",
                        "v": "0x25",
                        "r": "0xaf8825ba07259c4c38137dbdae5116411d89b4480c30eccd8afee2acf8a7ac15",
                        "s": "0x1759b11a74e9b4e20fc1f64f224c6fe35fd91fa328610b9c85bcc2900c152602",
                        "sender": "0xa94f5374fce5edbc8e2a8697c15331677e6ebf0b"
                    }
                ],
                "uncleHeaders": [],
                "withdrawals": [],
                "witness": {
                    "stateDiff": [
                        {
                            "stem": "0x0365b079a274a1808d56484ce5bd97914629907d75767f51439102e22cd50d",
                            "suffixDiffs": [
                                {
                                    "suffix": 0,
                                    "currentValue": "0x00000000000000000000000000000000000000000000003635c9adc5dea00000",
                                    "newValue": "0x00000000000000000000000000000001000000000000003635c9adc5de9be8ee"
                                },
                                {
                                    "suffix": 1,
                                    "currentValue": "0xc5d2460186f7233c927e7db2dcc703c0e500b653ca82273b7bfad8045d85a470",
                                    "newValue": null
                                }
                            ]
                        },
                        {
                            "stem": "0x5b5fdfedd6a0e932da408ac7d772a36513d1eee9b9926e52620c43a433aad7",
                            "suffixDiffs": [
                                {
                                    "suffix": 64,
                                    "newValue": "0x0d738824c5544ccf1cadc20834c9b0e613848a8acc53a49b6d8569d578da1973",
                                    "currentValue": null
                                }
                            ]
                        },
                        {
                            "stem": "0x914ec5f0e0c27fe094862fbd89a6abe684939af6940434d8bf218cedb2d624",
                            "suffixDiffs": [
                                {
                                    "suffix": 0,
                                    "newValue": "0x0000000000000000000000000000000000000000000000000000000000013a1f",
                                    "currentValue": null
                                },
                                {
                                    "suffix": 1,
                                    "newValue": "0xc5d2460186f7233c927e7db2dcc703c0e500b653ca82273b7bfad8045d85a470",
                                    "currentValue": null
                                }
                            ]
                        },
                        {
                            "stem": "0xecb505156708480caf702cd85124f67f3ed78ae4bc890a6dcb62574ba9a90c",
                            "suffixDiffs": [
                                {
                                    "suffix": 0,
                                    "currentValue": "0x0000000000000006000000000000000000000000000000000000000000000000",
                                    "newValue": null
                                },
                                {
                                    "suffix": 1,
                                    "currentValue": "0x7282f179d16bce06b9c8ae0bfe0d61c55274142072c30efc78c3292384769422",
                                    "newValue": null
                                },
                                {
                                    "suffix": 128,
                                    "currentValue": "0x0060ff6113885500000000000000000000000000000000000000000000000000",
                                    "newValue": null
                                }
                            ]
                        }
                    ],
                    "verkleProof": {
                        "otherStems": [],
                        "depthExtensionPresent": "0xa0a080a",
                        "commitmentsByPath": [
                            "0x360bcc4c15a10f6f058d1d07e13e9a271da3da0cd69026d5a9ab25e1c0a5d697",
                            "0x324e7b7405bbfae46866bad5c94ac2983093b86f85035fe5984ec40a1b5e5ce3",
                            "0x61506c1cc4f27c9231a546a4b0d249d5f3ba4ba9e63c5ebb84087665eb396e95",
                            "0x4909fc1889e10819cda41706a26373145c4e4575d68b96569af12db69040b6e1",
                            "0x4e79621acb16cd49a6d9d0a0205546a076b4c00a52fc4aaa28f3d45b70a6c41d",
                            "0x139841b0845b4cf6fae1f6c3109008fe97a843f0ad1f9218d21938e91d3e2521",
                            "0x5f64fdb90130954987dc3390b769ecc0075df502f60b2f4f638b2b75d1ccccb8"
                        ],
                        "d": "0x263a392073c59f6e612f1f50202d0d958393963afcab4cf5946358429f39002a",
                        "ipaProof": {
                            "cl": [
                                "0x25a7ddccbddb70ebe6c1453ca02f8833ef0f4e32c1bcc399217b12af4333a723",
                                "0x33a0770ac963a36951d970c9facb534befabcf6b56d8c3f3365c3b1ef9f9c3e7",
                                "0x35f94b0940a7e729d4423e19e8861277d3aa7b97b94ec50a1f109119caafbfa1",
                                "0x4e81c5fc8d36adcefb3056b2f45c5d6fcccd5c9a76cff68f50cc277aa7170211",
                                "0x4fb2f3793de8ed40d3f0a61a8bca7f56fc85c028c5401b90be7e986bed3d0470",
                                "0x19640957eef387cba37c5ab5e7db0c72b6851fecaad092e90f492e7d7c6760cb",
                                "0x35db68b30041eeb56c959cfb5755acc9bcde934c28b0ad36fb5e90edd5e5e7af",
                                "0x15bf07c14385ac0d255f169ec080772d45ee71e47587385b47e55e4f4ac0efe4"
                            ],
                            "cr": [
                                "0x5f077b3b51ebfb0f0674d88c02e0e60bc0ef3092f84674370688c4786d00c14c",
                                "0x24666c5a10f74de960395ef3f7055f9f51d03b51dfaa4f6b2cd780e7a93115c7",
                                "0x66c30ee4e3934109948fd9db24b800ff8e3fcc31f97aef5c377dfab84932f43c",
                                "0x1df7bf4f422cd1332a8abe7af8386b68fb5c9f39081ba7af7aea089549d0246d",
                                "0x431f93c5a09e7fa0b4fd8b5bb629a46915e6f752fa56ce976a450efc551748ba",
                                "0x5038771958d30985bb380ce41d677c53dbcf8237984a25a5689b91004b3257fd",
                                "0x423171da9b8b017ebd452da32754412665e6be4181ccd85e2b978b144d9b670a",
                                "0x72ef70dda08b52e6f127e59ba9e1c6ce6bd99f2bc3a19da5e71e0214aab79833"
                            ],
                            "finalEvaluation": "0x00a4e4d10c948a1c5716de16a70185462e71d1c537c7667a654c41c40bab5cb8"
                        }
                    }
                },
                "rlp": "0xf9027ef90216a00d738824c5544ccf1cadc20834c9b0e613848a8acc53a49b6d8569d578da1973a01dcc4de8dec75d7aab85b567b6ccd41ad312451b948a7413f0a142fd40d49347942adc25665018aa1fe0e6bc666dac8fc2697ff9baa067af2580b06c100e54ea9971a81f706fb68e8ff23d35b45c1422b93fcf33a70da07ca6bf9a6fe902abbbd011118f8527cbc1cd47a5a5df801e32ab1cbb5f0fd54da09cc274d81e90ccb39cb143d8349778f4d89fbb356dadc4bef50e373fd9e0e02bb901000000000000000000000000000000000000000000000000000000000000000000000000000000000000000000000000000000000000000000000000000000000000000000000000000000000000000000000000000000000000000000000000000000000000000000000000000000000000000000000000000000000000000000000000000000000000000000000000000000000000000000000000000000000000000000000000000000000000000000000000000000000000000000000000000000000000000000000000000000000000000000000000000000000000000000000000000000000000000000000000000000000000000000000000000000000080018502540be4008268b50c80a0000000000000000000000000000000000000000000000000000000000000000088000000000000000007a056e81f171bcc55a6ff8345e692c0f86e5b48e01b996cadc001622fb5e363b421f861f85f800a8268b5948a0a19589531694250d570040a0c4b74576919b8808025a0af8825ba07259c4c38137dbdae5116411d89b4480c30eccd8afee2acf8a7ac15a01759b11a74e9b4e20fc1f64f224c6fe35fd91fa328610b9c85bcc2900c152602c0c0",
                "blocknumber": "1"
            }
        ],
        "sealEngine": "NoProof",
        "_info": {
            "hash": "0x328738f7d9abb5848e2775aca47982bd3c8402d06ac52bb26517319d086f1485",
            "comment": "`execution-spec-tests` generated test",
            "filling-transition-tool": "evm version 1.12.1-unstable-c329550a-20241022",
            "description": "Test function documentation:\n\n    Test SSTORE with insufficient gas.",
            "url": "https://github.com/ethereum/execution-spec-tests/blob/verkle@v0.0.6/tests/verkle/eip4762_verkle_gas_witness/test_sstore.py#L63",
            "reference-spec": "https://github.com/ethereum/EIPs/blob/master/EIPS/eip-4762.md",
            "reference-spec-version": "2f8299df31bb8173618901a03a8366a3183479b0"
        }
    },
    "tests/verkle/eip4762_verkle_gas_witness/test_sstore.py::test_sstore_insufficient_gas[fork_Verkle-blockchain_test-just_enough_for_storage_slot]": {
        "network": "Verkle",
        "genesisBlockHeader": {
            "parentHash": "0x0000000000000000000000000000000000000000000000000000000000000000",
            "uncleHash": "0x1dcc4de8dec75d7aab85b567b6ccd41ad312451b948a7413f0a142fd40d49347",
            "coinbase": "0x0000000000000000000000000000000000000000",
            "stateRoot": "0x4fcdecba31f6bd4f473b12282c9dd7f04c5a6a4a4d255252fe68fe39a62d350a",
            "transactionsTrie": "0x56e81f171bcc55a6ff8345e692c0f86e5b48e01b996cadc001622fb5e363b421",
            "receiptTrie": "0x56e81f171bcc55a6ff8345e692c0f86e5b48e01b996cadc001622fb5e363b421",
            "bloom": "0x00000000000000000000000000000000000000000000000000000000000000000000000000000000000000000000000000000000000000000000000000000000000000000000000000000000000000000000000000000000000000000000000000000000000000000000000000000000000000000000000000000000000000000000000000000000000000000000000000000000000000000000000000000000000000000000000000000000000000000000000000000000000000000000000000000000000000000000000000000000000000000000000000000000000000000000000000000000000000000000000000000000000000000000000000000000",
            "difficulty": "0x00",
            "number": "0x00",
            "gasLimit": "0x02540be400",
            "gasUsed": "0x00",
            "timestamp": "0x00",
            "extraData": "0x00",
            "mixHash": "0x0000000000000000000000000000000000000000000000000000000000000000",
            "nonce": "0x0000000000000000",
            "baseFeePerGas": "0x07",
            "withdrawalsRoot": "0x56e81f171bcc55a6ff8345e692c0f86e5b48e01b996cadc001622fb5e363b421",
            "hash": "0x0d738824c5544ccf1cadc20834c9b0e613848a8acc53a49b6d8569d578da1973"
        },
        "pre": {
            "0xfffffffffffffffffffffffffffffffffffffffe": {
                "nonce": "0x01",
                "balance": "0x00",
                "code": "0x60203611603157600143035f35116029575f356120000143116029576120005f3506545f5260205ff35b5f5f5260205ff35b5f5ffd00",
                "storage": {}
            },
            "0xa94f5374fce5edbc8e2a8697c15331677e6ebf0b": {
                "nonce": "0x00",
                "balance": "0x3635c9adc5dea00000",
                "code": "0x",
                "storage": {}
            },
            "0x8a0a19589531694250d570040a0c4b74576919b8": {
                "nonce": "0x00",
                "balance": "0x00",
                "code": "0x60ff61138855",
                "storage": {
                    "0x00": "0xaa",
                    "0x03e8": "0xbb"
                }
            }
        },
        "lastblockhash": "0xb4b4d9b85776e34fb7980977aba632f4cd69a66ad9f7075f9ff74e2c6e8abd91",
        "genesisRLP": "0xf9021af90214a00000000000000000000000000000000000000000000000000000000000000000a01dcc4de8dec75d7aab85b567b6ccd41ad312451b948a7413f0a142fd40d49347940000000000000000000000000000000000000000a04fcdecba31f6bd4f473b12282c9dd7f04c5a6a4a4d255252fe68fe39a62d350aa056e81f171bcc55a6ff8345e692c0f86e5b48e01b996cadc001622fb5e363b421a056e81f171bcc55a6ff8345e692c0f86e5b48e01b996cadc001622fb5e363b421b901000000000000000000000000000000000000000000000000000000000000000000000000000000000000000000000000000000000000000000000000000000000000000000000000000000000000000000000000000000000000000000000000000000000000000000000000000000000000000000000000000000000000000000000000000000000000000000000000000000000000000000000000000000000000000000000000000000000000000000000000000000000000000000000000000000000000000000000000000000000000000000000000000000000000000000000000000000000000000000000000000000000000000000000000000000000080808502540be400808000a0000000000000000000000000000000000000000000000000000000000000000088000000000000000007a056e81f171bcc55a6ff8345e692c0f86e5b48e01b996cadc001622fb5e363b421c0c0c0",
        "blocks": [
            {
                "blockHeader": {
                    "parentHash": "0x0d738824c5544ccf1cadc20834c9b0e613848a8acc53a49b6d8569d578da1973",
                    "uncleHash": "0x1dcc4de8dec75d7aab85b567b6ccd41ad312451b948a7413f0a142fd40d49347",
                    "coinbase": "0x2adc25665018aa1fe0e6bc666dac8fc2697ff9ba",
                    "stateRoot": "0x19e569699745889f04b20b2d4a0334ffd6431c46a21979d90b8bc60084424a9e",
                    "transactionsTrie": "0x41a9a401012ddf1bed53d0002cd74670317018e9d935b4a9b6f52a26e2863253",
                    "receiptTrie": "0xdca598e89efa841a958431b21f70a7ae2d309b37f3cf8e75b26bebdb0ffdc8d7",
                    "bloom": "0x00000000000000000000000000000000000000000000000000000000000000000000000000000000000000000000000000000000000000000000000000000000000000000000000000000000000000000000000000000000000000000000000000000000000000000000000000000000000000000000000000000000000000000000000000000000000000000000000000000000000000000000000000000000000000000000000000000000000000000000000000000000000000000000000000000000000000000000000000000000000000000000000000000000000000000000000000000000000000000000000000000000000000000000000000000000",
                    "difficulty": "0x00",
                    "number": "0x01",
                    "gasLimit": "0x02540be400",
                    "gasUsed": "0x68b6",
                    "timestamp": "0x0c",
                    "extraData": "0x",
                    "mixHash": "0x0000000000000000000000000000000000000000000000000000000000000000",
                    "nonce": "0x0000000000000000",
                    "baseFeePerGas": "0x07",
                    "withdrawalsRoot": "0x56e81f171bcc55a6ff8345e692c0f86e5b48e01b996cadc001622fb5e363b421",
                    "hash": "0xb4b4d9b85776e34fb7980977aba632f4cd69a66ad9f7075f9ff74e2c6e8abd91"
                },
                "transactions": [
                    {
                        "type": "0x00",
                        "chainId": "0x01",
                        "nonce": "0x00",
                        "gasPrice": "0x0a",
                        "gasLimit": "0x68b6",
                        "to": "0x8a0a19589531694250d570040a0c4b74576919b8",
                        "value": "0x00",
                        "data": "0x",
                        "v": "0x26",
                        "r": "0xd5fab69825ad152367713141df7ed7ebbcd3767bc15889587499ecbeb24c203b",
                        "s": "0x14f19ebe41cbf234b070fe77b24d47d0f3222a8e2ac3ed2a9ddcd3004a855975",
                        "sender": "0xa94f5374fce5edbc8e2a8697c15331677e6ebf0b"
                    }
                ],
                "uncleHeaders": [],
                "withdrawals": [],
                "witness": {
                    "stateDiff": [
                        {
                            "stem": "0x0365b079a274a1808d56484ce5bd97914629907d75767f51439102e22cd50d",
                            "suffixDiffs": [
                                {
                                    "suffix": 0,
                                    "currentValue": "0x00000000000000000000000000000000000000000000003635c9adc5dea00000",
                                    "newValue": "0x00000000000000000000000000000001000000000000003635c9adc5de9be8e4"
                                },
                                {
                                    "suffix": 1,
                                    "currentValue": "0xc5d2460186f7233c927e7db2dcc703c0e500b653ca82273b7bfad8045d85a470",
                                    "newValue": null
                                }
                            ]
                        },
                        {
                            "stem": "0x5b5fdfedd6a0e932da408ac7d772a36513d1eee9b9926e52620c43a433aad7",
                            "suffixDiffs": [
                                {
                                    "suffix": 64,
                                    "newValue": "0x0d738824c5544ccf1cadc20834c9b0e613848a8acc53a49b6d8569d578da1973",
                                    "currentValue": null
                                }
                            ]
                        },
                        {
                            "stem": "0x68c14f74285a378921b2c355680778fb29701d412020f79156120cf31d211d",
                            "suffixDiffs": [
                                {
                                    "suffix": 136,
                                    "newValue": "0x00000000000000000000000000000000000000000000000000000000000000ff",
                                    "currentValue": null
                                }
                            ]
                        },
                        {
                            "stem": "0x914ec5f0e0c27fe094862fbd89a6abe684939af6940434d8bf218cedb2d624",
                            "suffixDiffs": [
                                {
                                    "suffix": 0,
                                    "newValue": "0x0000000000000000000000000000000000000000000000000000000000013a22",
                                    "currentValue": null
                                },
                                {
                                    "suffix": 1,
                                    "newValue": "0xc5d2460186f7233c927e7db2dcc703c0e500b653ca82273b7bfad8045d85a470",
                                    "currentValue": null
                                }
                            ]
                        },
                        {
                            "stem": "0xecb505156708480caf702cd85124f67f3ed78ae4bc890a6dcb62574ba9a90c",
                            "suffixDiffs": [
                                {
                                    "suffix": 0,
                                    "currentValue": "0x0000000000000006000000000000000000000000000000000000000000000000",
                                    "newValue": null
                                },
                                {
                                    "suffix": 1,
                                    "currentValue": "0x7282f179d16bce06b9c8ae0bfe0d61c55274142072c30efc78c3292384769422",
                                    "newValue": null
                                },
                                {
                                    "suffix": 128,
                                    "currentValue": "0x0060ff6113885500000000000000000000000000000000000000000000000000",
                                    "newValue": null
                                }
                            ]
                        }
                    ],
                    "verkleProof": {
                        "otherStems": [],
                        "depthExtensionPresent": "0xa0a08080a",
                        "commitmentsByPath": [
                            "0x360bcc4c15a10f6f058d1d07e13e9a271da3da0cd69026d5a9ab25e1c0a5d697",
                            "0x324e7b7405bbfae46866bad5c94ac2983093b86f85035fe5984ec40a1b5e5ce3",
                            "0x61506c1cc4f27c9231a546a4b0d249d5f3ba4ba9e63c5ebb84087665eb396e95",
                            "0x4909fc1889e10819cda41706a26373145c4e4575d68b96569af12db69040b6e1",
                            "0x4e79621acb16cd49a6d9d0a0205546a076b4c00a52fc4aaa28f3d45b70a6c41d",
                            "0x139841b0845b4cf6fae1f6c3109008fe97a843f0ad1f9218d21938e91d3e2521",
                            "0x5f64fdb90130954987dc3390b769ecc0075df502f60b2f4f638b2b75d1ccccb8"
                        ],
                        "d": "0x1577dfbbd6e635b7e18059fc2514a2a1279af80496b348b68735e75940947846",
                        "ipaProof": {
                            "cl": [
                                "0x20932d8a9c6005ee1aa397f56601708f3f44e2b301cda1b2cb89f5d5fd771c63",
                                "0x52bdf6800e422ff281a8edb0b0b906f6336c45e73703e98d3aae9bf7309b5b84",
                                "0x571085f7c098af4a595c0317077af70e46ae63100c71a86d60cfe219c44482ed",
                                "0x22e7fceeeb99a5c5d5983ebf5c128a0de7cf2ab567093cc669ce958c89fcfd33",
                                "0x101a58147e92e05a4f1e91583fee93f16f3a9993e388c716516eadd0fb97d0c5",
                                "0x250f7556349216ea7231094aa9939b7db5934068ceca567ef43596271848efcb",
                                "0x02131d3aae6d40df677b0aa44fa689f805b5f1629acc3b83680205ef6700ccb9",
                                "0x4def796fde96e1c92681764bd70af8b46aaf285ffbaa89a0f1ddb8cd95080791"
                            ],
                            "cr": [
                                "0x3fb92e6079b25e97837d99df06ec03936199511377953fed800bf32b665d19f8",
                                "0x32dbb7f8aa4a361970c8419ad4924a234d7075544e6cfd16608bd8a9ddfe4f9e",
                                "0x15a949b705eb0bd1889e23fda1d7fc778ee8bef5cfc06805074a9df21b20dbdc",
                                "0x16986e2c81d7870a55d932bdd63fcbd2098fa063ae3709a125967fdb6de11cf0",
                                "0x2ec9675aeb410401cb80ff731469e63621eccea006f79c686c86e0e4a647d322",
                                "0x47a9c01278cf2a364423688aa077111e323032d951c2e7677e14301c2b784b1b",
                                "0x016af3a290aa77bf864d9458453fcbf8d341a04af410909a73082b400dbee9ba",
                                "0x4584e1b3669be1aecb67eac2b23e838d661d686b78eb4b01a3ad9c0eabfe73a8"
                            ],
                            "finalEvaluation": "0x17a70584eba4c1d24a5155aee07f4114a79988d03a4874616f345372bbadebf7"
                        }
                    }
                },
                "rlp": "0xf9027ef90216a00d738824c5544ccf1cadc20834c9b0e613848a8acc53a49b6d8569d578da1973a01dcc4de8dec75d7aab85b567b6ccd41ad312451b948a7413f0a142fd40d49347942adc25665018aa1fe0e6bc666dac8fc2697ff9baa019e569699745889f04b20b2d4a0334ffd6431c46a21979d90b8bc60084424a9ea041a9a401012ddf1bed53d0002cd74670317018e9d935b4a9b6f52a26e2863253a0dca598e89efa841a958431b21f70a7ae2d309b37f3cf8e75b26bebdb0ffdc8d7b901000000000000000000000000000000000000000000000000000000000000000000000000000000000000000000000000000000000000000000000000000000000000000000000000000000000000000000000000000000000000000000000000000000000000000000000000000000000000000000000000000000000000000000000000000000000000000000000000000000000000000000000000000000000000000000000000000000000000000000000000000000000000000000000000000000000000000000000000000000000000000000000000000000000000000000000000000000000000000000000000000000000000000000000000000000000080018502540be4008268b60c80a0000000000000000000000000000000000000000000000000000000000000000088000000000000000007a056e81f171bcc55a6ff8345e692c0f86e5b48e01b996cadc001622fb5e363b421f861f85f800a8268b6948a0a19589531694250d570040a0c4b74576919b8808026a0d5fab69825ad152367713141df7ed7ebbcd3767bc15889587499ecbeb24c203ba014f19ebe41cbf234b070fe77b24d47d0f3222a8e2ac3ed2a9ddcd3004a855975c0c0",
                "blocknumber": "1"
            }
        ],
        "sealEngine": "NoProof",
        "_info": {
            "hash": "0x4e214aab52ed4e81535a1d648d0101e959c722b0e69ef56a026356be4f0a3de7",
            "comment": "`execution-spec-tests` generated test",
            "filling-transition-tool": "evm version 1.12.1-unstable-c329550a-20241022",
            "description": "Test function documentation:\n\n    Test SSTORE with insufficient gas.",
            "url": "https://github.com/ethereum/execution-spec-tests/blob/verkle@v0.0.6/tests/verkle/eip4762_verkle_gas_witness/test_sstore.py#L63",
            "reference-spec": "https://github.com/ethereum/EIPs/blob/master/EIPS/eip-4762.md",
            "reference-spec-version": "2f8299df31bb8173618901a03a8366a3183479b0"
        }
    }
}