{
    "tests/prague/eip7692_eof_v1/eip6206_jumpf/test_jumpf_stack.py::test_jumpf_stack_non_returning_rules[fork_CancunEIP7692-blockchain_test_hive-h-0-ti-0]": {
        "network": "Prague",
        "genesisBlockHeader": {
            "parentHash": "0x0000000000000000000000000000000000000000000000000000000000000000",
            "uncleHash": "0x1dcc4de8dec75d7aab85b567b6ccd41ad312451b948a7413f0a142fd40d49347",
            "coinbase": "0x0000000000000000000000000000000000000000",
            "stateRoot": "0xed8457da629fd705992870d91d0030cd76322c74fd623817cc7da4622d05aa5f",
            "transactionsTrie": "0x56e81f171bcc55a6ff8345e692c0f86e5b48e01b996cadc001622fb5e363b421",
            "receiptTrie": "0x56e81f171bcc55a6ff8345e692c0f86e5b48e01b996cadc001622fb5e363b421",
            "bloom": "0x00000000000000000000000000000000000000000000000000000000000000000000000000000000000000000000000000000000000000000000000000000000000000000000000000000000000000000000000000000000000000000000000000000000000000000000000000000000000000000000000000000000000000000000000000000000000000000000000000000000000000000000000000000000000000000000000000000000000000000000000000000000000000000000000000000000000000000000000000000000000000000000000000000000000000000000000000000000000000000000000000000000000000000000000000000000",
            "difficulty": "0x00",
            "number": "0x00",
            "gasLimit": "0x016345785d8a0000",
            "gasUsed": "0x00",
            "timestamp": "0x00",
            "extraData": "0x00",
            "mixHash": "0x0000000000000000000000000000000000000000000000000000000000000000",
            "nonce": "0x0000000000000000",
            "baseFeePerGas": "0x07",
            "withdrawalsRoot": "0x56e81f171bcc55a6ff8345e692c0f86e5b48e01b996cadc001622fb5e363b421",
            "blobGasUsed": "0x00",
            "excessBlobGas": "0x00",
            "parentBeaconBlockRoot": "0x0000000000000000000000000000000000000000000000000000000000000000",
            "hash": "0x9885a3ff8a47c34dcbe6047fc3076f99931a5990d039ee28c7045b79c006250f"
        },
        "pre": {
            "0x000f3df6d732807ef1319fb7b8bb8522d0beac02": {
                "nonce": "0x01",
                "balance": "0x00",
                "code": "0x3373fffffffffffffffffffffffffffffffffffffffe14604d57602036146024575f5ffd5b5f35801560495762001fff810690815414603c575f5ffd5b62001fff01545f5260205ff35b5f5ffd5b62001fff42064281555f359062001fff015500",
                "storage": {}
            },
            "0x0000000000000000000000000000000000001000": {
                "nonce": "0x01",
                "balance": "0x00",
                "code": "0xef000101000c02000300030003000704000000008000000080000000800002e50001e5000261201560015500",
                "storage": {}
            },
            "0xa94f5374fce5edbc8e2a8697c15331677e6ebf0b": {
                "nonce": "0x00",
                "balance": "0x3635c9adc5dea00000",
                "code": "0x",
                "storage": {}
            }
        },
        "postState": {
            "0x0000000000000000000000000000000000001000": {
                "nonce": "0x01",
                "balance": "0x00",
                "code": "0xef000101000c02000300030003000704000000008000000080000000800002e50001e5000261201560015500",
                "storage": {
                    "0x01": "0x2015"
                }
            },
            "0x000f3df6d732807ef1319fb7b8bb8522d0beac02": {
                "nonce": "0x01",
                "balance": "0x00",
                "code": "0x3373fffffffffffffffffffffffffffffffffffffffe14604d57602036146024575f5ffd5b5f35801560495762001fff810690815414603c575f5ffd5b62001fff01545f5260205ff35b5f5ffd5b62001fff42064281555f359062001fff015500",
                "storage": {
                    "0x03e8": "0x03e8"
                }
            },
            "0x2adc25665018aa1fe0e6bc666dac8fc2697ff9ba": {
                "nonce": "0x00",
                "balance": "0x01f974",
                "code": "0x",
                "storage": {}
            },
            "0xa94f5374fce5edbc8e2a8697c15331677e6ebf0b": {
                "nonce": "0x01",
                "balance": "0x3635c9adc5de996b28",
                "code": "0x",
                "storage": {}
            }
        },
        "engineNewPayloads": [
            {
                "executionPayload": {
                    "parentHash": "0x9885a3ff8a47c34dcbe6047fc3076f99931a5990d039ee28c7045b79c006250f",
                    "feeRecipient": "0x2adc25665018aa1fe0e6bc666dac8fc2697ff9ba",
                    "stateRoot": "0x630badb0aee806b3173ea4e1ea444d0f2383717604391d2632d98aabde1df3b7",
                    "receiptsRoot": "0xd71775f676d04998417db4e11d4dd82686cf51ba2fc4e24a156fcf1795f7eb02",
                    "logsBloom": "0x00000000000000000000000000000000000000000000000000000000000000000000000000000000000000000000000000000000000000000000000000000000000000000000000000000000000000000000000000000000000000000000000000000000000000000000000000000000000000000000000000000000000000000000000000000000000000000000000000000000000000000000000000000000000000000000000000000000000000000000000000000000000000000000000000000000000000000000000000000000000000000000000000000000000000000000000000000000000000000000000000000000000000000000000000000000",
                    "blockNumber": "0x1",
                    "gasLimit": "0x16345785d8a0000",
                    "gasUsed": "0xa87c",
                    "timestamp": "0x3e8",
                    "extraData": "0x00",
                    "prevRandao": "0x0000000000000000000000000000000000000000000000000000000000000000",
                    "baseFeePerGas": "0x7",
                    "blobGasUsed": "0x0",
                    "excessBlobGas": "0x0",
                    "blockHash": "0x699ddb1b8bf95b87181b8890c7390d4b82b2320089926fad67f2bb36ab977f3f",
                    "transactions": [
                        "0xf860800a8398968094000000000000000000000000000000000000100080011ba036e2a736f4d7a9ccf9861e08ee4390e50c4933a4678cd5836840525f648d498da06f9aee13849dae6ad31abce2527033fc96d62c8a5b530c1a1a2c98aac7abf242"
                    ],
                    "withdrawals": []
                },
                "version": "3",
                "expectedBlobVersionedHashes": [],
                "parentBeaconBlockRoot": "0x0000000000000000000000000000000000000000000000000000000000000000"
            }
        ],
        "engineFcuVersion": "3",
        "_info": {
            "hash": "0x5d113233e5106c723fe1933d47f93f6ced8280202a01fac265deba8ff06819fb",
            "comment": "`execution-spec-tests` generated test",
            "filling-transition-tool": "evmone-t8n 0.12.0-dev+commit.85a89e56",
            "description": "Test function documentation:\n\n    Tests for JUMPF validation stack rules.  Non-returning section cases.\n    Valid cases are executed.",
            "url": "https://github.com/ethereum/execution-spec-tests/blob/eip7692@v1.0.4/tests/prague/eip7692_eof_v1/eip6206_jumpf/test_jumpf_stack.py#L19",
            "reference-spec": "https://github.com/ethereum/EIPs/blob/master/EIPS/eip-6206.md",
            "reference-spec-version": "2f365ea0cd58faa6e26013ea77ce6d538175f7d0"
        }
    },
    "tests/prague/eip7692_eof_v1/eip6206_jumpf/test_jumpf_stack.py::test_jumpf_stack_non_returning_rules[fork_CancunEIP7692-blockchain_test_hive-h-2-ti-0]": {
        "network": "Prague",
        "genesisBlockHeader": {
            "parentHash": "0x0000000000000000000000000000000000000000000000000000000000000000",
            "uncleHash": "0x1dcc4de8dec75d7aab85b567b6ccd41ad312451b948a7413f0a142fd40d49347",
            "coinbase": "0x0000000000000000000000000000000000000000",
            "stateRoot": "0xfdee3141e0f14543f6a3b44c8e0c1ba35a65c5e4f34502036db727942f880aea",
            "transactionsTrie": "0x56e81f171bcc55a6ff8345e692c0f86e5b48e01b996cadc001622fb5e363b421",
            "receiptTrie": "0x56e81f171bcc55a6ff8345e692c0f86e5b48e01b996cadc001622fb5e363b421",
            "bloom": "0x00000000000000000000000000000000000000000000000000000000000000000000000000000000000000000000000000000000000000000000000000000000000000000000000000000000000000000000000000000000000000000000000000000000000000000000000000000000000000000000000000000000000000000000000000000000000000000000000000000000000000000000000000000000000000000000000000000000000000000000000000000000000000000000000000000000000000000000000000000000000000000000000000000000000000000000000000000000000000000000000000000000000000000000000000000000",
            "difficulty": "0x00",
            "number": "0x00",
            "gasLimit": "0x016345785d8a0000",
            "gasUsed": "0x00",
            "timestamp": "0x00",
            "extraData": "0x00",
            "mixHash": "0x0000000000000000000000000000000000000000000000000000000000000000",
            "nonce": "0x0000000000000000",
            "baseFeePerGas": "0x07",
            "withdrawalsRoot": "0x56e81f171bcc55a6ff8345e692c0f86e5b48e01b996cadc001622fb5e363b421",
            "blobGasUsed": "0x00",
            "excessBlobGas": "0x00",
            "parentBeaconBlockRoot": "0x0000000000000000000000000000000000000000000000000000000000000000",
            "hash": "0x8b335e47fe054345c60e23e1a77d23675398c6cec8d4ad82ef28654af606ebd3"
        },
        "pre": {
            "0x000f3df6d732807ef1319fb7b8bb8522d0beac02": {
                "nonce": "0x01",
                "balance": "0x00",
                "code": "0x3373fffffffffffffffffffffffffffffffffffffffe14604d57602036146024575f5ffd5b5f35801560495762001fff810690815414603c575f5ffd5b62001fff01545f5260205ff35b5f5ffd5b62001fff42064281555f359062001fff015500",
                "storage": {}
            },
            "0x0000000000000000000000000000000000001000": {
                "nonce": "0x01",
                "balance": "0x00",
                "code": "0xef000101000c02000300030005000704000000008000000080000200800002e500015f5fe5000261201560015500",
                "storage": {}
            },
            "0xa94f5374fce5edbc8e2a8697c15331677e6ebf0b": {
                "nonce": "0x00",
                "balance": "0x3635c9adc5dea00000",
                "code": "0x",
                "storage": {}
            }
        },
        "postState": {
            "0x0000000000000000000000000000000000001000": {
                "nonce": "0x01",
                "balance": "0x00",
                "code": "0xef000101000c02000300030005000704000000008000000080000200800002e500015f5fe5000261201560015500",
                "storage": {
                    "0x01": "0x2015"
                }
            },
            "0x000f3df6d732807ef1319fb7b8bb8522d0beac02": {
                "nonce": "0x01",
                "balance": "0x00",
                "code": "0x3373fffffffffffffffffffffffffffffffffffffffe14604d57602036146024575f5ffd5b5f35801560495762001fff810690815414603c575f5ffd5b62001fff01545f5260205ff35b5f5ffd5b62001fff42064281555f359062001fff015500",
                "storage": {
                    "0x03e8": "0x03e8"
                }
            },
            "0x2adc25665018aa1fe0e6bc666dac8fc2697ff9ba": {
                "nonce": "0x00",
                "balance": "0x01f980",
                "code": "0x",
                "storage": {}
            },
            "0xa94f5374fce5edbc8e2a8697c15331677e6ebf0b": {
                "nonce": "0x01",
                "balance": "0x3635c9adc5de996b00",
                "code": "0x",
                "storage": {}
            }
        },
        "engineNewPayloads": [
            {
                "executionPayload": {
                    "parentHash": "0x8b335e47fe054345c60e23e1a77d23675398c6cec8d4ad82ef28654af606ebd3",
                    "feeRecipient": "0x2adc25665018aa1fe0e6bc666dac8fc2697ff9ba",
                    "stateRoot": "0x04ef6c48c2e0bb3eb912829ebff63e240e6e1f90383099a9e00e3cc07a1cd9e4",
                    "receiptsRoot": "0x287002cebb06be4b86ed944e3af11d8e1ad2cb9f1c1317f5d24393c0b9cd314a",
                    "logsBloom": "0x00000000000000000000000000000000000000000000000000000000000000000000000000000000000000000000000000000000000000000000000000000000000000000000000000000000000000000000000000000000000000000000000000000000000000000000000000000000000000000000000000000000000000000000000000000000000000000000000000000000000000000000000000000000000000000000000000000000000000000000000000000000000000000000000000000000000000000000000000000000000000000000000000000000000000000000000000000000000000000000000000000000000000000000000000000000",
                    "blockNumber": "0x1",
                    "gasLimit": "0x16345785d8a0000",
                    "gasUsed": "0xa880",
                    "timestamp": "0x3e8",
                    "extraData": "0x00",
                    "prevRandao": "0x0000000000000000000000000000000000000000000000000000000000000000",
                    "baseFeePerGas": "0x7",
                    "blobGasUsed": "0x0",
                    "excessBlobGas": "0x0",
                    "blockHash": "0x0e44cd1c63d12bca97a0a41f2daf6663d8658cc9bb85fd3a5a26e32387017bf8",
                    "transactions": [
                        "0xf860800a8398968094000000000000000000000000000000000000100080011ba036e2a736f4d7a9ccf9861e08ee4390e50c4933a4678cd5836840525f648d498da06f9aee13849dae6ad31abce2527033fc96d62c8a5b530c1a1a2c98aac7abf242"
                    ],
                    "withdrawals": []
                },
                "version": "3",
                "expectedBlobVersionedHashes": [],
                "parentBeaconBlockRoot": "0x0000000000000000000000000000000000000000000000000000000000000000"
            }
        ],
        "engineFcuVersion": "3",
        "_info": {
            "hash": "0xe010b5f13292a91a505881b7ffe3b79038eb392b0171a019c4f6be3435edf446",
            "comment": "`execution-spec-tests` generated test",
            "filling-transition-tool": "evmone-t8n 0.12.0-dev+commit.85a89e56",
            "description": "Test function documentation:\n\n    Tests for JUMPF validation stack rules.  Non-returning section cases.\n    Valid cases are executed.",
            "url": "https://github.com/ethereum/execution-spec-tests/blob/eip7692@v1.0.4/tests/prague/eip7692_eof_v1/eip6206_jumpf/test_jumpf_stack.py#L19",
            "reference-spec": "https://github.com/ethereum/EIPs/blob/master/EIPS/eip-6206.md",
            "reference-spec-version": "2f365ea0cd58faa6e26013ea77ce6d538175f7d0"
        }
    },
    "tests/prague/eip7692_eof_v1/eip6206_jumpf/test_jumpf_stack.py::test_jumpf_stack_non_returning_rules[fork_CancunEIP7692-blockchain_test_hive-h-2-ti-2]": {
        "network": "Prague",
        "genesisBlockHeader": {
            "parentHash": "0x0000000000000000000000000000000000000000000000000000000000000000",
            "uncleHash": "0x1dcc4de8dec75d7aab85b567b6ccd41ad312451b948a7413f0a142fd40d49347",
            "coinbase": "0x0000000000000000000000000000000000000000",
            "stateRoot": "0x8a3cde47754d28b3a7a1e55593d68cef583ee4b9e92f226519c7a581ce8adaaa",
            "transactionsTrie": "0x56e81f171bcc55a6ff8345e692c0f86e5b48e01b996cadc001622fb5e363b421",
            "receiptTrie": "0x56e81f171bcc55a6ff8345e692c0f86e5b48e01b996cadc001622fb5e363b421",
            "bloom": "0x00000000000000000000000000000000000000000000000000000000000000000000000000000000000000000000000000000000000000000000000000000000000000000000000000000000000000000000000000000000000000000000000000000000000000000000000000000000000000000000000000000000000000000000000000000000000000000000000000000000000000000000000000000000000000000000000000000000000000000000000000000000000000000000000000000000000000000000000000000000000000000000000000000000000000000000000000000000000000000000000000000000000000000000000000000000",
            "difficulty": "0x00",
            "number": "0x00",
            "gasLimit": "0x016345785d8a0000",
            "gasUsed": "0x00",
            "timestamp": "0x00",
            "extraData": "0x00",
            "mixHash": "0x0000000000000000000000000000000000000000000000000000000000000000",
            "nonce": "0x0000000000000000",
            "baseFeePerGas": "0x07",
            "withdrawalsRoot": "0x56e81f171bcc55a6ff8345e692c0f86e5b48e01b996cadc001622fb5e363b421",
            "blobGasUsed": "0x00",
            "excessBlobGas": "0x00",
            "parentBeaconBlockRoot": "0x0000000000000000000000000000000000000000000000000000000000000000",
            "hash": "0xe0cddbdd8beaa75d7a1fb7f86f054ca5458a52a3959e316658b94813e6f17e9a"
        },
        "pre": {
            "0x000f3df6d732807ef1319fb7b8bb8522d0beac02": {
                "nonce": "0x01",
                "balance": "0x00",
                "code": "0x3373fffffffffffffffffffffffffffffffffffffffe14604d57602036146024575f5ffd5b5f35801560495762001fff810690815414603c575f5ffd5b62001fff01545f5260205ff35b5f5ffd5b62001fff42064281555f359062001fff015500",
                "storage": {}
            },
            "0x0000000000000000000000000000000000001000": {
                "nonce": "0x01",
                "balance": "0x00",
                "code": "0xef000101000c02000300030005000904000000008000000080000202800002e500015f5fe50002505061201560015500",
                "storage": {}
            },
            "0xa94f5374fce5edbc8e2a8697c15331677e6ebf0b": {
                "nonce": "0x00",
                "balance": "0x3635c9adc5dea00000",
                "code": "0x",
                "storage": {}
            }
        },
        "postState": {
            "0x0000000000000000000000000000000000001000": {
                "nonce": "0x01",
                "balance": "0x00",
                "code": "0xef000101000c02000300030005000904000000008000000080000202800002e500015f5fe50002505061201560015500",
                "storage": {
                    "0x01": "0x2015"
                }
            },
            "0x000f3df6d732807ef1319fb7b8bb8522d0beac02": {
                "nonce": "0x01",
                "balance": "0x00",
                "code": "0x3373fffffffffffffffffffffffffffffffffffffffe14604d57602036146024575f5ffd5b5f35801560495762001fff810690815414603c575f5ffd5b62001fff01545f5260205ff35b5f5ffd5b62001fff42064281555f359062001fff015500",
                "storage": {
                    "0x03e8": "0x03e8"
                }
            },
            "0x2adc25665018aa1fe0e6bc666dac8fc2697ff9ba": {
                "nonce": "0x00",
                "balance": "0x01f98c",
                "code": "0x",
                "storage": {}
            },
            "0xa94f5374fce5edbc8e2a8697c15331677e6ebf0b": {
                "nonce": "0x01",
                "balance": "0x3635c9adc5de996ad8",
                "code": "0x",
                "storage": {}
            }
        },
        "engineNewPayloads": [
            {
                "executionPayload": {
                    "parentHash": "0xe0cddbdd8beaa75d7a1fb7f86f054ca5458a52a3959e316658b94813e6f17e9a",
                    "feeRecipient": "0x2adc25665018aa1fe0e6bc666dac8fc2697ff9ba",
                    "stateRoot": "0x185286bf7169459ee6516875676162285676d7f440845431a8bbe7d5cf2924fc",
                    "receiptsRoot": "0xce0b2b69c9850cd0a5775676d0d963615f780c8e080df6b49f5dc3f1f6db86a1",
                    "logsBloom": "0x00000000000000000000000000000000000000000000000000000000000000000000000000000000000000000000000000000000000000000000000000000000000000000000000000000000000000000000000000000000000000000000000000000000000000000000000000000000000000000000000000000000000000000000000000000000000000000000000000000000000000000000000000000000000000000000000000000000000000000000000000000000000000000000000000000000000000000000000000000000000000000000000000000000000000000000000000000000000000000000000000000000000000000000000000000000",
                    "blockNumber": "0x1",
                    "gasLimit": "0x16345785d8a0000",
                    "gasUsed": "0xa884",
                    "timestamp": "0x3e8",
                    "extraData": "0x00",
                    "prevRandao": "0x0000000000000000000000000000000000000000000000000000000000000000",
                    "baseFeePerGas": "0x7",
                    "blobGasUsed": "0x0",
                    "excessBlobGas": "0x0",
                    "blockHash": "0xac47b49f4a73318809aeb9a950dec5a7f5f03c35c84e340f85e97877578fa580",
                    "transactions": [
                        "0xf860800a8398968094000000000000000000000000000000000000100080011ba036e2a736f4d7a9ccf9861e08ee4390e50c4933a4678cd5836840525f648d498da06f9aee13849dae6ad31abce2527033fc96d62c8a5b530c1a1a2c98aac7abf242"
                    ],
                    "withdrawals": []
                },
                "version": "3",
                "expectedBlobVersionedHashes": [],
                "parentBeaconBlockRoot": "0x0000000000000000000000000000000000000000000000000000000000000000"
            }
        ],
        "engineFcuVersion": "3",
        "_info": {
            "hash": "0x1ce1dd137feecde7caca2d2903f6ae4ebc5bc8147751f21e1fae9e1718520fa2",
            "comment": "`execution-spec-tests` generated test",
            "filling-transition-tool": "evmone-t8n 0.12.0-dev+commit.85a89e56",
            "description": "Test function documentation:\n\n    Tests for JUMPF validation stack rules.  Non-returning section cases.\n    Valid cases are executed.",
            "url": "https://github.com/ethereum/execution-spec-tests/blob/eip7692@v1.0.4/tests/prague/eip7692_eof_v1/eip6206_jumpf/test_jumpf_stack.py#L19",
            "reference-spec": "https://github.com/ethereum/EIPs/blob/master/EIPS/eip-6206.md",
            "reference-spec-version": "2f365ea0cd58faa6e26013ea77ce6d538175f7d0"
        }
    },
    "tests/prague/eip7692_eof_v1/eip6206_jumpf/test_jumpf_stack.py::test_jumpf_stack_non_returning_rules[fork_CancunEIP7692-blockchain_test_hive-h-4-ti-0]": {
        "network": "Prague",
        "genesisBlockHeader": {
            "parentHash": "0x0000000000000000000000000000000000000000000000000000000000000000",
            "uncleHash": "0x1dcc4de8dec75d7aab85b567b6ccd41ad312451b948a7413f0a142fd40d49347",
            "coinbase": "0x0000000000000000000000000000000000000000",
            "stateRoot": "0xa635eed44bdb023f73b229f8e875dd59a9f7c1a20506e90f00efff20e66c7706",
            "transactionsTrie": "0x56e81f171bcc55a6ff8345e692c0f86e5b48e01b996cadc001622fb5e363b421",
            "receiptTrie": "0x56e81f171bcc55a6ff8345e692c0f86e5b48e01b996cadc001622fb5e363b421",
            "bloom": "0x00000000000000000000000000000000000000000000000000000000000000000000000000000000000000000000000000000000000000000000000000000000000000000000000000000000000000000000000000000000000000000000000000000000000000000000000000000000000000000000000000000000000000000000000000000000000000000000000000000000000000000000000000000000000000000000000000000000000000000000000000000000000000000000000000000000000000000000000000000000000000000000000000000000000000000000000000000000000000000000000000000000000000000000000000000000",
            "difficulty": "0x00",
            "number": "0x00",
            "gasLimit": "0x016345785d8a0000",
            "gasUsed": "0x00",
            "timestamp": "0x00",
            "extraData": "0x00",
            "mixHash": "0x0000000000000000000000000000000000000000000000000000000000000000",
            "nonce": "0x0000000000000000",
            "baseFeePerGas": "0x07",
            "withdrawalsRoot": "0x56e81f171bcc55a6ff8345e692c0f86e5b48e01b996cadc001622fb5e363b421",
            "blobGasUsed": "0x00",
            "excessBlobGas": "0x00",
            "parentBeaconBlockRoot": "0x0000000000000000000000000000000000000000000000000000000000000000",
            "hash": "0x1f602338e6c0c06e6da99328d539640dd4093e6c587d38406ad9182fccc69e52"
        },
        "pre": {
            "0x000f3df6d732807ef1319fb7b8bb8522d0beac02": {
                "nonce": "0x01",
                "balance": "0x00",
                "code": "0x3373fffffffffffffffffffffffffffffffffffffffe14604d57602036146024575f5ffd5b5f35801560495762001fff810690815414603c575f5ffd5b62001fff01545f5260205ff35b5f5ffd5b62001fff42064281555f359062001fff015500",
                "storage": {}
            },
            "0x0000000000000000000000000000000000001000": {
                "nonce": "0x01",
                "balance": "0x00",
                "code": "0xef000101000c02000300030007000704000000008000000080000400800002e500015f5f5f5fe5000261201560015500",
                "storage": {}
            },
            "0xa94f5374fce5edbc8e2a8697c15331677e6ebf0b": {
                "nonce": "0x00",
                "balance": "0x3635c9adc5dea00000",
                "code": "0x",
                "storage": {}
            }
        },
        "postState": {
            "0x0000000000000000000000000000000000001000": {
                "nonce": "0x01",
                "balance": "0x00",
                "code": "0xef000101000c02000300030007000704000000008000000080000400800002e500015f5f5f5fe5000261201560015500",
                "storage": {
                    "0x01": "0x2015"
                }
            },
            "0x000f3df6d732807ef1319fb7b8bb8522d0beac02": {
                "nonce": "0x01",
                "balance": "0x00",
                "code": "0x3373fffffffffffffffffffffffffffffffffffffffe14604d57602036146024575f5ffd5b5f35801560495762001fff810690815414603c575f5ffd5b62001fff01545f5260205ff35b5f5ffd5b62001fff42064281555f359062001fff015500",
                "storage": {
                    "0x03e8": "0x03e8"
                }
            },
            "0x2adc25665018aa1fe0e6bc666dac8fc2697ff9ba": {
                "nonce": "0x00",
                "balance": "0x01f98c",
                "code": "0x",
                "storage": {}
            },
            "0xa94f5374fce5edbc8e2a8697c15331677e6ebf0b": {
                "nonce": "0x01",
                "balance": "0x3635c9adc5de996ad8",
                "code": "0x",
                "storage": {}
            }
        },
        "engineNewPayloads": [
            {
                "executionPayload": {
                    "parentHash": "0x1f602338e6c0c06e6da99328d539640dd4093e6c587d38406ad9182fccc69e52",
                    "feeRecipient": "0x2adc25665018aa1fe0e6bc666dac8fc2697ff9ba",
                    "stateRoot": "0x7e0b00dcedbf574b836cfae59f534c2c6c4bf5d86890dccca8a1d046b531d046",
                    "receiptsRoot": "0xce0b2b69c9850cd0a5775676d0d963615f780c8e080df6b49f5dc3f1f6db86a1",
                    "logsBloom": "0x00000000000000000000000000000000000000000000000000000000000000000000000000000000000000000000000000000000000000000000000000000000000000000000000000000000000000000000000000000000000000000000000000000000000000000000000000000000000000000000000000000000000000000000000000000000000000000000000000000000000000000000000000000000000000000000000000000000000000000000000000000000000000000000000000000000000000000000000000000000000000000000000000000000000000000000000000000000000000000000000000000000000000000000000000000000",
                    "blockNumber": "0x1",
                    "gasLimit": "0x16345785d8a0000",
                    "gasUsed": "0xa884",
                    "timestamp": "0x3e8",
                    "extraData": "0x00",
                    "prevRandao": "0x0000000000000000000000000000000000000000000000000000000000000000",
                    "baseFeePerGas": "0x7",
                    "blobGasUsed": "0x0",
                    "excessBlobGas": "0x0",
                    "blockHash": "0xacabb1541f21f8577ac53979c906ea05a030f3fcb5d554fb0b6ef662175dcddd",
                    "transactions": [
                        "0xf860800a8398968094000000000000000000000000000000000000100080011ba036e2a736f4d7a9ccf9861e08ee4390e50c4933a4678cd5836840525f648d498da06f9aee13849dae6ad31abce2527033fc96d62c8a5b530c1a1a2c98aac7abf242"
                    ],
                    "withdrawals": []
                },
                "version": "3",
                "expectedBlobVersionedHashes": [],
                "parentBeaconBlockRoot": "0x0000000000000000000000000000000000000000000000000000000000000000"
            }
        ],
        "engineFcuVersion": "3",
        "_info": {
            "hash": "0xd49cc6521299733402312bae5089b52cb12f72d31f6f42b72e061500c649f065",
            "comment": "`execution-spec-tests` generated test",
            "filling-transition-tool": "evmone-t8n 0.12.0-dev+commit.85a89e56",
            "description": "Test function documentation:\n\n    Tests for JUMPF validation stack rules.  Non-returning section cases.\n    Valid cases are executed.",
            "url": "https://github.com/ethereum/execution-spec-tests/blob/eip7692@v1.0.4/tests/prague/eip7692_eof_v1/eip6206_jumpf/test_jumpf_stack.py#L19",
            "reference-spec": "https://github.com/ethereum/EIPs/blob/master/EIPS/eip-6206.md",
            "reference-spec-version": "2f365ea0cd58faa6e26013ea77ce6d538175f7d0"
        }
    },
    "tests/prague/eip7692_eof_v1/eip6206_jumpf/test_jumpf_stack.py::test_jumpf_stack_non_returning_rules[fork_CancunEIP7692-blockchain_test_hive-h-4-ti-2]": {
        "network": "Prague",
        "genesisBlockHeader": {
            "parentHash": "0x0000000000000000000000000000000000000000000000000000000000000000",
            "uncleHash": "0x1dcc4de8dec75d7aab85b567b6ccd41ad312451b948a7413f0a142fd40d49347",
            "coinbase": "0x0000000000000000000000000000000000000000",
            "stateRoot": "0xf78da5748b80ae4599e85a0795ddd6479b0d95952a5db888596f6d1ac7e18450",
            "transactionsTrie": "0x56e81f171bcc55a6ff8345e692c0f86e5b48e01b996cadc001622fb5e363b421",
            "receiptTrie": "0x56e81f171bcc55a6ff8345e692c0f86e5b48e01b996cadc001622fb5e363b421",
            "bloom": "0x00000000000000000000000000000000000000000000000000000000000000000000000000000000000000000000000000000000000000000000000000000000000000000000000000000000000000000000000000000000000000000000000000000000000000000000000000000000000000000000000000000000000000000000000000000000000000000000000000000000000000000000000000000000000000000000000000000000000000000000000000000000000000000000000000000000000000000000000000000000000000000000000000000000000000000000000000000000000000000000000000000000000000000000000000000000",
            "difficulty": "0x00",
            "number": "0x00",
            "gasLimit": "0x016345785d8a0000",
            "gasUsed": "0x00",
            "timestamp": "0x00",
            "extraData": "0x00",
            "mixHash": "0x0000000000000000000000000000000000000000000000000000000000000000",
            "nonce": "0x0000000000000000",
            "baseFeePerGas": "0x07",
            "withdrawalsRoot": "0x56e81f171bcc55a6ff8345e692c0f86e5b48e01b996cadc001622fb5e363b421",
            "blobGasUsed": "0x00",
            "excessBlobGas": "0x00",
            "parentBeaconBlockRoot": "0x0000000000000000000000000000000000000000000000000000000000000000",
            "hash": "0x6898ea56efab193fdeb909f41faca939721eb12d1218b9076b1401d861580f30"
        },
        "pre": {
            "0x000f3df6d732807ef1319fb7b8bb8522d0beac02": {
                "nonce": "0x01",
                "balance": "0x00",
                "code": "0x3373fffffffffffffffffffffffffffffffffffffffe14604d57602036146024575f5ffd5b5f35801560495762001fff810690815414603c575f5ffd5b62001fff01545f5260205ff35b5f5ffd5b62001fff42064281555f359062001fff015500",
                "storage": {}
            },
            "0x0000000000000000000000000000000000001000": {
                "nonce": "0x01",
                "balance": "0x00",
                "code": "0xef000101000c02000300030007000904000000008000000080000402800002e500015f5f5f5fe50002505061201560015500",
                "storage": {}
            },
            "0xa94f5374fce5edbc8e2a8697c15331677e6ebf0b": {
                "nonce": "0x00",
                "balance": "0x3635c9adc5dea00000",
                "code": "0x",
                "storage": {}
            }
        },
        "postState": {
            "0x0000000000000000000000000000000000001000": {
                "nonce": "0x01",
                "balance": "0x00",
                "code": "0xef000101000c02000300030007000904000000008000000080000402800002e500015f5f5f5fe50002505061201560015500",
                "storage": {
                    "0x01": "0x2015"
                }
            },
            "0x000f3df6d732807ef1319fb7b8bb8522d0beac02": {
                "nonce": "0x01",
                "balance": "0x00",
                "code": "0x3373fffffffffffffffffffffffffffffffffffffffe14604d57602036146024575f5ffd5b5f35801560495762001fff810690815414603c575f5ffd5b62001fff01545f5260205ff35b5f5ffd5b62001fff42064281555f359062001fff015500",
                "storage": {
                    "0x03e8": "0x03e8"
                }
            },
            "0x2adc25665018aa1fe0e6bc666dac8fc2697ff9ba": {
                "nonce": "0x00",
                "balance": "0x01f998",
                "code": "0x",
                "storage": {}
            },
            "0xa94f5374fce5edbc8e2a8697c15331677e6ebf0b": {
                "nonce": "0x01",
                "balance": "0x3635c9adc5de996ab0",
                "code": "0x",
                "storage": {}
            }
        },
        "engineNewPayloads": [
            {
                "executionPayload": {
                    "parentHash": "0x6898ea56efab193fdeb909f41faca939721eb12d1218b9076b1401d861580f30",
                    "feeRecipient": "0x2adc25665018aa1fe0e6bc666dac8fc2697ff9ba",
                    "stateRoot": "0x6aa81a381c66de48e2a854257603a4d1636cb34b8902ec9f8072e8b1d0950ee7",
                    "receiptsRoot": "0xc8c1065959bcd7a62719ba86e6831b4be19772c60b5d1f13bfde4ef9d13cb851",
                    "logsBloom": "0x00000000000000000000000000000000000000000000000000000000000000000000000000000000000000000000000000000000000000000000000000000000000000000000000000000000000000000000000000000000000000000000000000000000000000000000000000000000000000000000000000000000000000000000000000000000000000000000000000000000000000000000000000000000000000000000000000000000000000000000000000000000000000000000000000000000000000000000000000000000000000000000000000000000000000000000000000000000000000000000000000000000000000000000000000000000",
                    "blockNumber": "0x1",
                    "gasLimit": "0x16345785d8a0000",
                    "gasUsed": "0xa888",
                    "timestamp": "0x3e8",
                    "extraData": "0x00",
                    "prevRandao": "0x0000000000000000000000000000000000000000000000000000000000000000",
                    "baseFeePerGas": "0x7",
                    "blobGasUsed": "0x0",
                    "excessBlobGas": "0x0",
                    "blockHash": "0xe0b1401d2c19ca4b3b596bc994654acc97843ab5bdc85b43cd54114faa875fba",
                    "transactions": [
                        "0xf860800a8398968094000000000000000000000000000000000000100080011ba036e2a736f4d7a9ccf9861e08ee4390e50c4933a4678cd5836840525f648d498da06f9aee13849dae6ad31abce2527033fc96d62c8a5b530c1a1a2c98aac7abf242"
                    ],
                    "withdrawals": []
                },
                "version": "3",
                "expectedBlobVersionedHashes": [],
                "parentBeaconBlockRoot": "0x0000000000000000000000000000000000000000000000000000000000000000"
            }
        ],
        "engineFcuVersion": "3",
        "_info": {
            "hash": "0xd6fc0ed0188cdfb5422f0258d7d7cc35b03d3a71219ceb6672e7c97d80b2207b",
            "comment": "`execution-spec-tests` generated test",
            "filling-transition-tool": "evmone-t8n 0.12.0-dev+commit.85a89e56",
            "description": "Test function documentation:\n\n    Tests for JUMPF validation stack rules.  Non-returning section cases.\n    Valid cases are executed.",
            "url": "https://github.com/ethereum/execution-spec-tests/blob/eip7692@v1.0.4/tests/prague/eip7692_eof_v1/eip6206_jumpf/test_jumpf_stack.py#L19",
            "reference-spec": "https://github.com/ethereum/EIPs/blob/master/EIPS/eip-6206.md",
            "reference-spec-version": "2f365ea0cd58faa6e26013ea77ce6d538175f7d0"
        }
    },
    "tests/prague/eip7692_eof_v1/eip6206_jumpf/test_jumpf_stack.py::test_jumpf_stack_non_returning_rules[fork_CancunEIP7692-blockchain_test_hive-h-4-ti-4]": {
        "network": "Prague",
        "genesisBlockHeader": {
            "parentHash": "0x0000000000000000000000000000000000000000000000000000000000000000",
            "uncleHash": "0x1dcc4de8dec75d7aab85b567b6ccd41ad312451b948a7413f0a142fd40d49347",
            "coinbase": "0x0000000000000000000000000000000000000000",
            "stateRoot": "0x72d1bd219f1493148bf4b9917a8b94ad39df2965069e3c5bc878e49f94f0bc24",
            "transactionsTrie": "0x56e81f171bcc55a6ff8345e692c0f86e5b48e01b996cadc001622fb5e363b421",
            "receiptTrie": "0x56e81f171bcc55a6ff8345e692c0f86e5b48e01b996cadc001622fb5e363b421",
            "bloom": "0x00000000000000000000000000000000000000000000000000000000000000000000000000000000000000000000000000000000000000000000000000000000000000000000000000000000000000000000000000000000000000000000000000000000000000000000000000000000000000000000000000000000000000000000000000000000000000000000000000000000000000000000000000000000000000000000000000000000000000000000000000000000000000000000000000000000000000000000000000000000000000000000000000000000000000000000000000000000000000000000000000000000000000000000000000000000",
            "difficulty": "0x00",
            "number": "0x00",
            "gasLimit": "0x016345785d8a0000",
            "gasUsed": "0x00",
            "timestamp": "0x00",
            "extraData": "0x00",
            "mixHash": "0x0000000000000000000000000000000000000000000000000000000000000000",
            "nonce": "0x0000000000000000",
            "baseFeePerGas": "0x07",
            "withdrawalsRoot": "0x56e81f171bcc55a6ff8345e692c0f86e5b48e01b996cadc001622fb5e363b421",
            "blobGasUsed": "0x00",
            "excessBlobGas": "0x00",
            "parentBeaconBlockRoot": "0x0000000000000000000000000000000000000000000000000000000000000000",
            "hash": "0x0da420ed80c25f76232a313ddb0ceb2f659015a0c48222f51d71fd3a1e73eca6"
        },
        "pre": {
            "0x000f3df6d732807ef1319fb7b8bb8522d0beac02": {
                "nonce": "0x01",
                "balance": "0x00",
                "code": "0x3373fffffffffffffffffffffffffffffffffffffffe14604d57602036146024575f5ffd5b5f35801560495762001fff810690815414603c575f5ffd5b62001fff01545f5260205ff35b5f5ffd5b62001fff42064281555f359062001fff015500",
                "storage": {}
            },
            "0x0000000000000000000000000000000000001000": {
                "nonce": "0x01",
                "balance": "0x00",
                "code": "0xef000101000c02000300030007000b04000000008000000080000404800004e500015f5f5f5fe500025050505061201560015500",
                "storage": {}
            },
            "0xa94f5374fce5edbc8e2a8697c15331677e6ebf0b": {
                "nonce": "0x00",
                "balance": "0x3635c9adc5dea00000",
                "code": "0x",
                "storage": {}
            }
        },
        "postState": {
            "0x0000000000000000000000000000000000001000": {
                "nonce": "0x01",
                "balance": "0x00",
                "code": "0xef000101000c02000300030007000b04000000008000000080000404800004e500015f5f5f5fe500025050505061201560015500",
                "storage": {
                    "0x01": "0x2015"
                }
            },
            "0x000f3df6d732807ef1319fb7b8bb8522d0beac02": {
                "nonce": "0x01",
                "balance": "0x00",
                "code": "0x3373fffffffffffffffffffffffffffffffffffffffe14604d57602036146024575f5ffd5b5f35801560495762001fff810690815414603c575f5ffd5b62001fff01545f5260205ff35b5f5ffd5b62001fff42064281555f359062001fff015500",
                "storage": {
                    "0x03e8": "0x03e8"
                }
            },
            "0x2adc25665018aa1fe0e6bc666dac8fc2697ff9ba": {
                "nonce": "0x00",
                "balance": "0x01f9a4",
                "code": "0x",
                "storage": {}
            },
            "0xa94f5374fce5edbc8e2a8697c15331677e6ebf0b": {
                "nonce": "0x01",
                "balance": "0x3635c9adc5de996a88",
                "code": "0x",
                "storage": {}
            }
        },
        "engineNewPayloads": [
            {
                "executionPayload": {
                    "parentHash": "0x0da420ed80c25f76232a313ddb0ceb2f659015a0c48222f51d71fd3a1e73eca6",
                    "feeRecipient": "0x2adc25665018aa1fe0e6bc666dac8fc2697ff9ba",
                    "stateRoot": "0xb1fc80a4e909e5192114efd9b0ab2c6160f454e812e2ed2655fe78421d52ffe9",
                    "receiptsRoot": "0xa1fec96a38a9d550d3fe44688dd83f34a99d261a36d8f46ece6f9f5bc2dc6bac",
                    "logsBloom": "0x00000000000000000000000000000000000000000000000000000000000000000000000000000000000000000000000000000000000000000000000000000000000000000000000000000000000000000000000000000000000000000000000000000000000000000000000000000000000000000000000000000000000000000000000000000000000000000000000000000000000000000000000000000000000000000000000000000000000000000000000000000000000000000000000000000000000000000000000000000000000000000000000000000000000000000000000000000000000000000000000000000000000000000000000000000000",
                    "blockNumber": "0x1",
                    "gasLimit": "0x16345785d8a0000",
                    "gasUsed": "0xa88c",
                    "timestamp": "0x3e8",
                    "extraData": "0x00",
                    "prevRandao": "0x0000000000000000000000000000000000000000000000000000000000000000",
                    "baseFeePerGas": "0x7",
                    "blobGasUsed": "0x0",
                    "excessBlobGas": "0x0",
                    "blockHash": "0xdc03b6dee8feff17a5201fd53c80ea67c252b9337dcbd8439050019c51c4d2fb",
                    "transactions": [
                        "0xf860800a8398968094000000000000000000000000000000000000100080011ba036e2a736f4d7a9ccf9861e08ee4390e50c4933a4678cd5836840525f648d498da06f9aee13849dae6ad31abce2527033fc96d62c8a5b530c1a1a2c98aac7abf242"
                    ],
                    "withdrawals": []
                },
                "version": "3",
                "expectedBlobVersionedHashes": [],
                "parentBeaconBlockRoot": "0x0000000000000000000000000000000000000000000000000000000000000000"
            }
        ],
        "engineFcuVersion": "3",
        "_info": {
            "hash": "0x528da894632ef78a1c67502f691b2a50e347da38e50d7652296fc0edd7f8ff80",
            "comment": "`execution-spec-tests` generated test",
            "filling-transition-tool": "evmone-t8n 0.12.0-dev+commit.85a89e56",
            "description": "Test function documentation:\n\n    Tests for JUMPF validation stack rules.  Non-returning section cases.\n    Valid cases are executed.",
            "url": "https://github.com/ethereum/execution-spec-tests/blob/eip7692@v1.0.4/tests/prague/eip7692_eof_v1/eip6206_jumpf/test_jumpf_stack.py#L19",
            "reference-spec": "https://github.com/ethereum/EIPs/blob/master/EIPS/eip-6206.md",
            "reference-spec-version": "2f365ea0cd58faa6e26013ea77ce6d538175f7d0"
        }
    }
}