{
    "000-fork=Cancun-beacon_root=12-timestamp=12": {
        "_info": {
            "filling-transition-tool": "evm version 1.12.1-unstable-07890811-20230804",
            "reference-spec": "https://github.com/ethereum/EIPs/blob/master/EIPS/eip-4788.md",
            "reference-spec-version": "f0eb6a364aaf5ccb43516fa2c269a54fb881ecfd"
        },
        "blocks": [
            {
                "rlp": "0xf902ccf9023da09ea8e7d8a82d4277f88a52c8443678d35c84afd43ea75589a96eea209da3bf12a01dcc4de8dec75d7aab85b567b6ccd41ad312451b948a7413f0a142fd40d49347942adc25665018aa1fe0e6bc666dac8fc2697ff9baa0626eb6f365c02b8fbac60ff7bfd77bb9386b3c47f59e0e7ec5b988499f56d938a07d98be72f9136e95c03dd194c12ac10b3bd8a1d92997c22c25b49a3b734e9adaa0ec150835a95e5ae49ea1f60e84a9158f6b05ff9acc2f7ce4218d5077216db323b9010000000000000000000000000000000000000000000000000000000000000000000000000000000000000000000000000000000000000000000000000000000000000000000000000000000000000000000000000000000000000000000000000000000000000000000000000000000000000000000000000000000000000000000000000000000000000000000000000000000000000000000000000000000000000000000000000000000000000000000000000000000000000000000000000000000000000000000000000000000000000000000000000000000000000000000000000000000000000000000000000000000000000000000000000000000000800188016345785d8a00008301bcfd0c00a0000000000000000000000000000000000000000000000000000000000000000088000000000000000007a056e81f171bcc55a6ff8345e692c0f86e5b48e01b996cadc001622fb5e363b4218080a0000000000000000000000000000000000000000000000000000000000000000cf888b88602f88301808007830f424094000000000000000000000000000000000000010080a0000000000000000000000000000000000000000000000000000000000000000cc080a09def14c251e6d0b857c40d13f8bd358608277d2c90cb2340ac4fe75cbe35f445a05cd757be2f85dd0560322bd54d04199a371c950a83e4706b7f8e2840dbdc01ebc0c0",
                "blockHeader": {
                    "parentHash": "0x9ea8e7d8a82d4277f88a52c8443678d35c84afd43ea75589a96eea209da3bf12",
                    "uncleHash": "0x1dcc4de8dec75d7aab85b567b6ccd41ad312451b948a7413f0a142fd40d49347",
                    "coinbase": "0x2adc25665018aa1fe0e6bc666dac8fc2697ff9ba",
                    "stateRoot": "0x626eb6f365c02b8fbac60ff7bfd77bb9386b3c47f59e0e7ec5b988499f56d938",
                    "transactionsTrie": "0x7d98be72f9136e95c03dd194c12ac10b3bd8a1d92997c22c25b49a3b734e9ada",
                    "receiptTrie": "0xec150835a95e5ae49ea1f60e84a9158f6b05ff9acc2f7ce4218d5077216db323",
                    "bloom": "0x00000000000000000000000000000000000000000000000000000000000000000000000000000000000000000000000000000000000000000000000000000000000000000000000000000000000000000000000000000000000000000000000000000000000000000000000000000000000000000000000000000000000000000000000000000000000000000000000000000000000000000000000000000000000000000000000000000000000000000000000000000000000000000000000000000000000000000000000000000000000000000000000000000000000000000000000000000000000000000000000000000000000000000000000000000000",
                    "difficulty": "0x00",
                    "number": "0x01",
                    "gasLimit": "0x016345785d8a0000",
                    "gasUsed": "0x01bcfd",
                    "timestamp": "0x0c",
                    "extraData": "0x00",
                    "mixHash": "0x0000000000000000000000000000000000000000000000000000000000000000",
                    "nonce": "0x0000000000000000",
                    "baseFeePerGas": "0x07",
                    "withdrawalsRoot": "0x56e81f171bcc55a6ff8345e692c0f86e5b48e01b996cadc001622fb5e363b421",
                    "blobGasUsed": "0x00",
                    "excessBlobGas": "0x00",
                    "parentBeaconBlockRoot": "0x000000000000000000000000000000000000000000000000000000000000000c",
                    "hash": "0xfe3c8009ca6995f448dd29b1d4e003b40adc4d92657df35a56d7d09a266f73d7"
                },
                "engineNewPayload": {
                    "executionPayload": {
                        "parentHash": "0x9ea8e7d8a82d4277f88a52c8443678d35c84afd43ea75589a96eea209da3bf12",
                        "feeRecipient": "0x2adc25665018aa1fe0e6bc666dac8fc2697ff9ba",
                        "stateRoot": "0x626eb6f365c02b8fbac60ff7bfd77bb9386b3c47f59e0e7ec5b988499f56d938",
                        "receiptsRoot": "0xec150835a95e5ae49ea1f60e84a9158f6b05ff9acc2f7ce4218d5077216db323",
                        "logsBloom": "0x00000000000000000000000000000000000000000000000000000000000000000000000000000000000000000000000000000000000000000000000000000000000000000000000000000000000000000000000000000000000000000000000000000000000000000000000000000000000000000000000000000000000000000000000000000000000000000000000000000000000000000000000000000000000000000000000000000000000000000000000000000000000000000000000000000000000000000000000000000000000000000000000000000000000000000000000000000000000000000000000000000000000000000000000000000000",
                        "blockNumber": "0x1",
                        "gasLimit": "0x16345785d8a0000",
                        "gasUsed": "0x1bcfd",
                        "timestamp": "0xc",
                        "extraData": "0x00",
                        "prevRandao": "0x0000000000000000000000000000000000000000000000000000000000000000",
                        "baseFeePerGas": "0x7",
                        "blobGasUsed": "0x0",
                        "excessBlobGas": "0x0",
                        "blockHash": "0xfe3c8009ca6995f448dd29b1d4e003b40adc4d92657df35a56d7d09a266f73d7",
                        "transactions": [
                            "0x02f88301808007830f424094000000000000000000000000000000000000010080a0000000000000000000000000000000000000000000000000000000000000000cc080a09def14c251e6d0b857c40d13f8bd358608277d2c90cb2340ac4fe75cbe35f445a05cd757be2f85dd0560322bd54d04199a371c950a83e4706b7f8e2840dbdc01eb"
                        ],
                        "withdrawals": []
                    },
                    "expectedBlobVersionedHashes": [],
                    "version": "3",
                    "parentBeaconBlockRoot": "0x000000000000000000000000000000000000000000000000000000000000000c"
                },
                "transactions": [
                    {
                        "type": "0x02",
                        "chainId": "0x01",
                        "nonce": "0x00",
                        "maxPriorityFeePerGas": "0x00",
                        "maxFeePerGas": "0x07",
                        "gasLimit": "0x0f4240",
                        "to": "0x0000000000000000000000000000000000000100",
                        "value": "0x00",
                        "data": "0x000000000000000000000000000000000000000000000000000000000000000c",
                        "accessList": [],
                        "v": "0x00",
                        "r": "0x9def14c251e6d0b857c40d13f8bd358608277d2c90cb2340ac4fe75cbe35f445",
                        "s": "0x5cd757be2f85dd0560322bd54d04199a371c950a83e4706b7f8e2840dbdc01eb",
                        "sender": "0xa94f5374fce5edbc8e2a8697c15331677e6ebf0b"
                    }
                ],
                "uncleHeaders": [],
                "withdrawals": []
            }
        ],
        "genesisBlockHeader": {
            "parentHash": "0x0000000000000000000000000000000000000000000000000000000000000000",
            "uncleHash": "0x1dcc4de8dec75d7aab85b567b6ccd41ad312451b948a7413f0a142fd40d49347",
            "coinbase": "0x0000000000000000000000000000000000000000",
            "stateRoot": "0x0c91098ca68427b9fed0a888996e0e31d0337b95f6dbec91035fa6fb626bf97d",
            "transactionsTrie": "0x56e81f171bcc55a6ff8345e692c0f86e5b48e01b996cadc001622fb5e363b421",
            "receiptTrie": "0x56e81f171bcc55a6ff8345e692c0f86e5b48e01b996cadc001622fb5e363b421",
            "bloom": "0x00000000000000000000000000000000000000000000000000000000000000000000000000000000000000000000000000000000000000000000000000000000000000000000000000000000000000000000000000000000000000000000000000000000000000000000000000000000000000000000000000000000000000000000000000000000000000000000000000000000000000000000000000000000000000000000000000000000000000000000000000000000000000000000000000000000000000000000000000000000000000000000000000000000000000000000000000000000000000000000000000000000000000000000000000000000",
            "difficulty": "0x00",
            "number": "0x00",
            "gasLimit": "0x016345785d8a0000",
            "gasUsed": "0x00",
            "timestamp": "0x00",
            "extraData": "0x00",
            "mixHash": "0x0000000000000000000000000000000000000000000000000000000000000000",
            "nonce": "0x0000000000000000",
            "baseFeePerGas": "0x07",
            "withdrawalsRoot": "0x56e81f171bcc55a6ff8345e692c0f86e5b48e01b996cadc001622fb5e363b421",
            "blobGasUsed": "0x00",
            "excessBlobGas": "0x00",
            "parentBeaconBlockRoot": "0x0000000000000000000000000000000000000000000000000000000000000000",
            "hash": "0x9ea8e7d8a82d4277f88a52c8443678d35c84afd43ea75589a96eea209da3bf12"
        },
        "genesisRLP": "0xf90240f9023aa00000000000000000000000000000000000000000000000000000000000000000a01dcc4de8dec75d7aab85b567b6ccd41ad312451b948a7413f0a142fd40d49347940000000000000000000000000000000000000000a00c91098ca68427b9fed0a888996e0e31d0337b95f6dbec91035fa6fb626bf97da056e81f171bcc55a6ff8345e692c0f86e5b48e01b996cadc001622fb5e363b421a056e81f171bcc55a6ff8345e692c0f86e5b48e01b996cadc001622fb5e363b421b9010000000000000000000000000000000000000000000000000000000000000000000000000000000000000000000000000000000000000000000000000000000000000000000000000000000000000000000000000000000000000000000000000000000000000000000000000000000000000000000000000000000000000000000000000000000000000000000000000000000000000000000000000000000000000000000000000000000000000000000000000000000000000000000000000000000000000000000000000000000000000000000000000000000000000000000000000000000000000000000000000000000000000000000000000000000000808088016345785d8a0000808000a0000000000000000000000000000000000000000000000000000000000000000088000000000000000007a056e81f171bcc55a6ff8345e692c0f86e5b48e01b996cadc001622fb5e363b4218080a00000000000000000000000000000000000000000000000000000000000000000c0c0c0",
        "lastblockhash": "0xfe3c8009ca6995f448dd29b1d4e003b40adc4d92657df35a56d7d09a266f73d7",
        "network": "Cancun",
        "pre": {
            "0x000000000000000000000000000000000000000b": {
                "nonce": "0x01",
                "balance": "0x00",
                "code": "0x",
                "storage": {}
            },
            "0x0000000000000000000000000000000000000100": {
                "nonce": "0x00",
                "balance": "0x010000000000",
                "code": "0x366000600037602060003660006000600b611068f16000556000516001553d6002553d600060003e600051600355",
                "storage": {}
            },
            "0xa94f5374fce5edbc8e2a8697c15331677e6ebf0b": {
                "nonce": "0x00",
                "balance": "0x010000000000",
                "code": "0x",
                "storage": {}
            }
        },
        "postState": {
            "0x000000000000000000000000000000000000000b": {
                "nonce": "0x01",
                "balance": "0x00",
                "code": "0x",
                "storage": {
                    "0x0c": "0x0c",
                    "0x01800c": "0x0c"
                }
            },
            "0x0000000000000000000000000000000000000100": {
                "nonce": "0x00",
                "balance": "0x010000000000",
                "code": "0x366000600037602060003660006000600b611068f16000556000516001553d6002553d600060003e600051600355",
                "storage": {
                    "0x00": "0x01",
                    "0x01": "0x0c",
                    "0x02": "0x20",
                    "0x03": "0x0c"
                }
            },
            "0xa94f5374fce5edbc8e2a8697c15331677e6ebf0b": {
                "nonce": "0x01",
                "balance": "0xfffff3d515",
                "code": "0x",
                "storage": {}
            }
        },
        "sealEngine": "NoProof"
    },
    "001-fork=Cancun-beacon_root=4294967296-timestamp=4294967296": {
        "_info": {
            "filling-transition-tool": "evm version 1.12.1-unstable-07890811-20230804",
            "reference-spec": "https://github.com/ethereum/EIPs/blob/master/EIPS/eip-4788.md",
            "reference-spec-version": "f0eb6a364aaf5ccb43516fa2c269a54fb881ecfd"
        },
        "blocks": [
            {
                "rlp": "0xf902d1f90242a09ea8e7d8a82d4277f88a52c8443678d35c84afd43ea75589a96eea209da3bf12a01dcc4de8dec75d7aab85b567b6ccd41ad312451b948a7413f0a142fd40d49347942adc25665018aa1fe0e6bc666dac8fc2697ff9baa032ec8987b088a56779e9a0ebfd77529297690a60a4858dedd8be2bffac393fa5a0650bdb895a3cb0b6e1fbcb064599574ac83e33d9ad9841ac0a84b31dd6a28477a0ec150835a95e5ae49ea1f60e84a9158f6b05ff9acc2f7ce4218d5077216db323b9010000000000000000000000000000000000000000000000000000000000000000000000000000000000000000000000000000000000000000000000000000000000000000000000000000000000000000000000000000000000000000000000000000000000000000000000000000000000000000000000000000000000000000000000000000000000000000000000000000000000000000000000000000000000000000000000000000000000000000000000000000000000000000000000000000000000000000000000000000000000000000000000000000000000000000000000000000000000000000000000000000000000000000000000000000000000800188016345785d8a00008301bcfd85010000000000a0000000000000000000000000000000000000000000000000000000000000000088000000000000000007a056e81f171bcc55a6ff8345e692c0f86e5b48e01b996cadc001622fb5e363b4218080a00000000000000000000000000000000000000000000000000000000100000000f888b88602f88301808007830f424094000000000000000000000000000000000000010080a00000000000000000000000000000000000000000000000000000000100000000c001a0f1da5ef451c6557383cd350619f550fc8ed70403dcf642ff0d288ff8617e4e1ba0366e72a2bbd616876f2b4f1c2a1fe60e786a9a7d1da5872d590707980d67e1bfc0c0",
                "blockHeader": {
                    "parentHash": "0x9ea8e7d8a82d4277f88a52c8443678d35c84afd43ea75589a96eea209da3bf12",
                    "uncleHash": "0x1dcc4de8dec75d7aab85b567b6ccd41ad312451b948a7413f0a142fd40d49347",
                    "coinbase": "0x2adc25665018aa1fe0e6bc666dac8fc2697ff9ba",
                    "stateRoot": "0x32ec8987b088a56779e9a0ebfd77529297690a60a4858dedd8be2bffac393fa5",
                    "transactionsTrie": "0x650bdb895a3cb0b6e1fbcb064599574ac83e33d9ad9841ac0a84b31dd6a28477",
                    "receiptTrie": "0xec150835a95e5ae49ea1f60e84a9158f6b05ff9acc2f7ce4218d5077216db323",
                    "bloom": "0x00000000000000000000000000000000000000000000000000000000000000000000000000000000000000000000000000000000000000000000000000000000000000000000000000000000000000000000000000000000000000000000000000000000000000000000000000000000000000000000000000000000000000000000000000000000000000000000000000000000000000000000000000000000000000000000000000000000000000000000000000000000000000000000000000000000000000000000000000000000000000000000000000000000000000000000000000000000000000000000000000000000000000000000000000000000",
                    "difficulty": "0x00",
                    "number": "0x01",
                    "gasLimit": "0x016345785d8a0000",
                    "gasUsed": "0x01bcfd",
                    "timestamp": "0x0100000000",
                    "extraData": "0x00",
                    "mixHash": "0x0000000000000000000000000000000000000000000000000000000000000000",
                    "nonce": "0x0000000000000000",
                    "baseFeePerGas": "0x07",
                    "withdrawalsRoot": "0x56e81f171bcc55a6ff8345e692c0f86e5b48e01b996cadc001622fb5e363b421",
                    "blobGasUsed": "0x00",
                    "excessBlobGas": "0x00",
                    "parentBeaconBlockRoot": "0x0000000000000000000000000000000000000000000000000000000100000000",
                    "hash": "0xef89afbeea365b8efc3f7132f56f3d960ee9257af3a643dd49199b0e2d1b35ce"
                },
                "engineNewPayload": {
                    "executionPayload": {
                        "parentHash": "0x9ea8e7d8a82d4277f88a52c8443678d35c84afd43ea75589a96eea209da3bf12",
                        "feeRecipient": "0x2adc25665018aa1fe0e6bc666dac8fc2697ff9ba",
                        "stateRoot": "0x32ec8987b088a56779e9a0ebfd77529297690a60a4858dedd8be2bffac393fa5",
                        "receiptsRoot": "0xec150835a95e5ae49ea1f60e84a9158f6b05ff9acc2f7ce4218d5077216db323",
                        "logsBloom": "0x00000000000000000000000000000000000000000000000000000000000000000000000000000000000000000000000000000000000000000000000000000000000000000000000000000000000000000000000000000000000000000000000000000000000000000000000000000000000000000000000000000000000000000000000000000000000000000000000000000000000000000000000000000000000000000000000000000000000000000000000000000000000000000000000000000000000000000000000000000000000000000000000000000000000000000000000000000000000000000000000000000000000000000000000000000000",
                        "blockNumber": "0x1",
                        "gasLimit": "0x16345785d8a0000",
                        "gasUsed": "0x1bcfd",
                        "timestamp": "0x100000000",
                        "extraData": "0x00",
                        "prevRandao": "0x0000000000000000000000000000000000000000000000000000000000000000",
                        "baseFeePerGas": "0x7",
                        "blobGasUsed": "0x0",
                        "excessBlobGas": "0x0",
                        "blockHash": "0xef89afbeea365b8efc3f7132f56f3d960ee9257af3a643dd49199b0e2d1b35ce",
                        "transactions": [
                            "0x02f88301808007830f424094000000000000000000000000000000000000010080a00000000000000000000000000000000000000000000000000000000100000000c001a0f1da5ef451c6557383cd350619f550fc8ed70403dcf642ff0d288ff8617e4e1ba0366e72a2bbd616876f2b4f1c2a1fe60e786a9a7d1da5872d590707980d67e1bf"
                        ],
                        "withdrawals": []
                    },
                    "expectedBlobVersionedHashes": [],
                    "version": "3",
                    "parentBeaconBlockRoot": "0x0000000000000000000000000000000000000000000000000000000100000000"
                },
                "transactions": [
                    {
                        "type": "0x02",
                        "chainId": "0x01",
                        "nonce": "0x00",
                        "maxPriorityFeePerGas": "0x00",
                        "maxFeePerGas": "0x07",
                        "gasLimit": "0x0f4240",
                        "to": "0x0000000000000000000000000000000000000100",
                        "value": "0x00",
                        "data": "0x0000000000000000000000000000000000000000000000000000000100000000",
                        "accessList": [],
                        "v": "0x01",
                        "r": "0xf1da5ef451c6557383cd350619f550fc8ed70403dcf642ff0d288ff8617e4e1b",
                        "s": "0x366e72a2bbd616876f2b4f1c2a1fe60e786a9a7d1da5872d590707980d67e1bf",
                        "sender": "0xa94f5374fce5edbc8e2a8697c15331677e6ebf0b"
                    }
                ],
                "uncleHeaders": [],
                "withdrawals": []
            }
        ],
        "genesisBlockHeader": {
            "parentHash": "0x0000000000000000000000000000000000000000000000000000000000000000",
            "uncleHash": "0x1dcc4de8dec75d7aab85b567b6ccd41ad312451b948a7413f0a142fd40d49347",
            "coinbase": "0x0000000000000000000000000000000000000000",
            "stateRoot": "0x0c91098ca68427b9fed0a888996e0e31d0337b95f6dbec91035fa6fb626bf97d",
            "transactionsTrie": "0x56e81f171bcc55a6ff8345e692c0f86e5b48e01b996cadc001622fb5e363b421",
            "receiptTrie": "0x56e81f171bcc55a6ff8345e692c0f86e5b48e01b996cadc001622fb5e363b421",
            "bloom": "0x00000000000000000000000000000000000000000000000000000000000000000000000000000000000000000000000000000000000000000000000000000000000000000000000000000000000000000000000000000000000000000000000000000000000000000000000000000000000000000000000000000000000000000000000000000000000000000000000000000000000000000000000000000000000000000000000000000000000000000000000000000000000000000000000000000000000000000000000000000000000000000000000000000000000000000000000000000000000000000000000000000000000000000000000000000000",
            "difficulty": "0x00",
            "number": "0x00",
            "gasLimit": "0x016345785d8a0000",
            "gasUsed": "0x00",
            "timestamp": "0x00",
            "extraData": "0x00",
            "mixHash": "0x0000000000000000000000000000000000000000000000000000000000000000",
            "nonce": "0x0000000000000000",
            "baseFeePerGas": "0x07",
            "withdrawalsRoot": "0x56e81f171bcc55a6ff8345e692c0f86e5b48e01b996cadc001622fb5e363b421",
            "blobGasUsed": "0x00",
            "excessBlobGas": "0x00",
            "parentBeaconBlockRoot": "0x0000000000000000000000000000000000000000000000000000000000000000",
            "hash": "0x9ea8e7d8a82d4277f88a52c8443678d35c84afd43ea75589a96eea209da3bf12"
        },
        "genesisRLP": "0xf90240f9023aa00000000000000000000000000000000000000000000000000000000000000000a01dcc4de8dec75d7aab85b567b6ccd41ad312451b948a7413f0a142fd40d49347940000000000000000000000000000000000000000a00c91098ca68427b9fed0a888996e0e31d0337b95f6dbec91035fa6fb626bf97da056e81f171bcc55a6ff8345e692c0f86e5b48e01b996cadc001622fb5e363b421a056e81f171bcc55a6ff8345e692c0f86e5b48e01b996cadc001622fb5e363b421b9010000000000000000000000000000000000000000000000000000000000000000000000000000000000000000000000000000000000000000000000000000000000000000000000000000000000000000000000000000000000000000000000000000000000000000000000000000000000000000000000000000000000000000000000000000000000000000000000000000000000000000000000000000000000000000000000000000000000000000000000000000000000000000000000000000000000000000000000000000000000000000000000000000000000000000000000000000000000000000000000000000000000000000000000000000000000808088016345785d8a0000808000a0000000000000000000000000000000000000000000000000000000000000000088000000000000000007a056e81f171bcc55a6ff8345e692c0f86e5b48e01b996cadc001622fb5e363b4218080a00000000000000000000000000000000000000000000000000000000000000000c0c0c0",
        "lastblockhash": "0xef89afbeea365b8efc3f7132f56f3d960ee9257af3a643dd49199b0e2d1b35ce",
        "network": "Cancun",
        "pre": {
            "0x000000000000000000000000000000000000000b": {
                "nonce": "0x01",
                "balance": "0x00",
                "code": "0x",
                "storage": {}
            },
            "0x0000000000000000000000000000000000000100": {
                "nonce": "0x00",
                "balance": "0x010000000000",
                "code": "0x366000600037602060003660006000600b611068f16000556000516001553d6002553d600060003e600051600355",
                "storage": {}
            },
            "0xa94f5374fce5edbc8e2a8697c15331677e6ebf0b": {
                "nonce": "0x00",
                "balance": "0x010000000000",
                "code": "0x",
                "storage": {}
            }
        },
        "postState": {
            "0x000000000000000000000000000000000000000b": {
                "nonce": "0x01",
                "balance": "0x00",
                "code": "0x",
                "storage": {
                    "0x010000": "0x0100000000",
                    "0x028000": "0x0100000000"
                }
            },
            "0x0000000000000000000000000000000000000100": {
                "nonce": "0x00",
                "balance": "0x010000000000",
                "code": "0x366000600037602060003660006000600b611068f16000556000516001553d6002553d600060003e600051600355",
                "storage": {
                    "0x00": "0x01",
                    "0x01": "0x0100000000",
                    "0x02": "0x20",
                    "0x03": "0x0100000000"
                }
            },
            "0xa94f5374fce5edbc8e2a8697c15331677e6ebf0b": {
                "nonce": "0x01",
                "balance": "0xfffff3d515",
                "code": "0x",
                "storage": {}
            }
        },
        "sealEngine": "NoProof"
    },
    "002-fork=Cancun-beacon_root=18446744073709551614-timestamp=18446744073709551614": {
        "_info": {
            "filling-transition-tool": "evm version 1.12.1-unstable-07890811-20230804",
            "reference-spec": "https://github.com/ethereum/EIPs/blob/master/EIPS/eip-4788.md",
            "reference-spec-version": "f0eb6a364aaf5ccb43516fa2c269a54fb881ecfd"
        },
        "blocks": [
            {
                "rlp": "0xf902d4f90245a09ea8e7d8a82d4277f88a52c8443678d35c84afd43ea75589a96eea209da3bf12a01dcc4de8dec75d7aab85b567b6ccd41ad312451b948a7413f0a142fd40d49347942adc25665018aa1fe0e6bc666dac8fc2697ff9baa09b58df921372544d21e794cb2da17cc548878d82f10cc5ffa46b36b9c757d526a045940ea2be08d38af48890991f7625883eaa15b65319ac4c8839984d75367878a08045b0c2cf5b8b4b42ea3cb2bd5709d76ca145329a06a93b283e7df5930f49adb9010000000000000000000000000000000000000000000000000000000000000000000000000000000000000000000000000000000000000000000000000000000000000000000000000000000000000000000000000000000000000000000000000000000000000000000000000000000000000000000000000000000000000000000000000000000000000000000000000000000000000000000000000000000000000000000000000000000000000000000000000000000000000000000000000000000000000000000000000000000000000000000000000000000000000000000000000000000000000000000000000000000000000000000000000000000000800188016345785d8a00008301bd5188fffffffffffffffe00a0000000000000000000000000000000000000000000000000000000000000000088000000000000000007a056e81f171bcc55a6ff8345e692c0f86e5b48e01b996cadc001622fb5e363b4218080a0000000000000000000000000000000000000000000000000fffffffffffffffef888b88602f88301808007830f424094000000000000000000000000000000000000010080a0000000000000000000000000000000000000000000000000fffffffffffffffec080a08ada516b63964a6f07446230ca581dfa6ad8b47d8c9793b6b0ba51df01ce8b80a0779eda8846e63b5ab4916f09a951092337d6dff2ad541fecbcfaaedbd9053f5cc0c0",
                "blockHeader": {
                    "parentHash": "0x9ea8e7d8a82d4277f88a52c8443678d35c84afd43ea75589a96eea209da3bf12",
                    "uncleHash": "0x1dcc4de8dec75d7aab85b567b6ccd41ad312451b948a7413f0a142fd40d49347",
                    "coinbase": "0x2adc25665018aa1fe0e6bc666dac8fc2697ff9ba",
                    "stateRoot": "0x9b58df921372544d21e794cb2da17cc548878d82f10cc5ffa46b36b9c757d526",
                    "transactionsTrie": "0x45940ea2be08d38af48890991f7625883eaa15b65319ac4c8839984d75367878",
                    "receiptTrie": "0x8045b0c2cf5b8b4b42ea3cb2bd5709d76ca145329a06a93b283e7df5930f49ad",
                    "bloom": "0x00000000000000000000000000000000000000000000000000000000000000000000000000000000000000000000000000000000000000000000000000000000000000000000000000000000000000000000000000000000000000000000000000000000000000000000000000000000000000000000000000000000000000000000000000000000000000000000000000000000000000000000000000000000000000000000000000000000000000000000000000000000000000000000000000000000000000000000000000000000000000000000000000000000000000000000000000000000000000000000000000000000000000000000000000000000",
                    "difficulty": "0x00",
                    "number": "0x01",
                    "gasLimit": "0x016345785d8a0000",
                    "gasUsed": "0x01bd51",
                    "timestamp": "0xfffffffffffffffe",
                    "extraData": "0x00",
                    "mixHash": "0x0000000000000000000000000000000000000000000000000000000000000000",
                    "nonce": "0x0000000000000000",
                    "baseFeePerGas": "0x07",
                    "withdrawalsRoot": "0x56e81f171bcc55a6ff8345e692c0f86e5b48e01b996cadc001622fb5e363b421",
                    "blobGasUsed": "0x00",
                    "excessBlobGas": "0x00",
                    "parentBeaconBlockRoot": "0x000000000000000000000000000000000000000000000000fffffffffffffffe",
                    "hash": "0x60e41a1e28b0ef42886a6deb6e40cabcab1016f5e7ca03ee4fff2113b222380f"
                },
                "engineNewPayload": {
                    "executionPayload": {
                        "parentHash": "0x9ea8e7d8a82d4277f88a52c8443678d35c84afd43ea75589a96eea209da3bf12",
                        "feeRecipient": "0x2adc25665018aa1fe0e6bc666dac8fc2697ff9ba",
                        "stateRoot": "0x9b58df921372544d21e794cb2da17cc548878d82f10cc5ffa46b36b9c757d526",
                        "receiptsRoot": "0x8045b0c2cf5b8b4b42ea3cb2bd5709d76ca145329a06a93b283e7df5930f49ad",
                        "logsBloom": "0x00000000000000000000000000000000000000000000000000000000000000000000000000000000000000000000000000000000000000000000000000000000000000000000000000000000000000000000000000000000000000000000000000000000000000000000000000000000000000000000000000000000000000000000000000000000000000000000000000000000000000000000000000000000000000000000000000000000000000000000000000000000000000000000000000000000000000000000000000000000000000000000000000000000000000000000000000000000000000000000000000000000000000000000000000000000",
                        "blockNumber": "0x1",
                        "gasLimit": "0x16345785d8a0000",
                        "gasUsed": "0x1bd51",
                        "timestamp": "0xfffffffffffffffe",
                        "extraData": "0x00",
                        "prevRandao": "0x0000000000000000000000000000000000000000000000000000000000000000",
                        "baseFeePerGas": "0x7",
                        "blobGasUsed": "0x0",
                        "excessBlobGas": "0x0",
                        "blockHash": "0x60e41a1e28b0ef42886a6deb6e40cabcab1016f5e7ca03ee4fff2113b222380f",
                        "transactions": [
                            "0x02f88301808007830f424094000000000000000000000000000000000000010080a0000000000000000000000000000000000000000000000000fffffffffffffffec080a08ada516b63964a6f07446230ca581dfa6ad8b47d8c9793b6b0ba51df01ce8b80a0779eda8846e63b5ab4916f09a951092337d6dff2ad541fecbcfaaedbd9053f5c"
                        ],
                        "withdrawals": []
                    },
                    "expectedBlobVersionedHashes": [],
                    "version": "3",
                    "parentBeaconBlockRoot": "0x000000000000000000000000000000000000000000000000fffffffffffffffe"
                },
                "transactions": [
                    {
                        "type": "0x02",
                        "chainId": "0x01",
                        "nonce": "0x00",
                        "maxPriorityFeePerGas": "0x00",
                        "maxFeePerGas": "0x07",
                        "gasLimit": "0x0f4240",
                        "to": "0x0000000000000000000000000000000000000100",
                        "value": "0x00",
                        "data": "0x000000000000000000000000000000000000000000000000fffffffffffffffe",
                        "accessList": [],
                        "v": "0x00",
                        "r": "0x8ada516b63964a6f07446230ca581dfa6ad8b47d8c9793b6b0ba51df01ce8b80",
                        "s": "0x779eda8846e63b5ab4916f09a951092337d6dff2ad541fecbcfaaedbd9053f5c",
                        "sender": "0xa94f5374fce5edbc8e2a8697c15331677e6ebf0b"
                    }
                ],
                "uncleHeaders": [],
                "withdrawals": []
            }
        ],
        "genesisBlockHeader": {
            "parentHash": "0x0000000000000000000000000000000000000000000000000000000000000000",
            "uncleHash": "0x1dcc4de8dec75d7aab85b567b6ccd41ad312451b948a7413f0a142fd40d49347",
            "coinbase": "0x0000000000000000000000000000000000000000",
            "stateRoot": "0x0c91098ca68427b9fed0a888996e0e31d0337b95f6dbec91035fa6fb626bf97d",
            "transactionsTrie": "0x56e81f171bcc55a6ff8345e692c0f86e5b48e01b996cadc001622fb5e363b421",
            "receiptTrie": "0x56e81f171bcc55a6ff8345e692c0f86e5b48e01b996cadc001622fb5e363b421",
            "bloom": "0x00000000000000000000000000000000000000000000000000000000000000000000000000000000000000000000000000000000000000000000000000000000000000000000000000000000000000000000000000000000000000000000000000000000000000000000000000000000000000000000000000000000000000000000000000000000000000000000000000000000000000000000000000000000000000000000000000000000000000000000000000000000000000000000000000000000000000000000000000000000000000000000000000000000000000000000000000000000000000000000000000000000000000000000000000000000",
            "difficulty": "0x00",
            "number": "0x00",
            "gasLimit": "0x016345785d8a0000",
            "gasUsed": "0x00",
            "timestamp": "0x00",
            "extraData": "0x00",
            "mixHash": "0x0000000000000000000000000000000000000000000000000000000000000000",
            "nonce": "0x0000000000000000",
            "baseFeePerGas": "0x07",
            "withdrawalsRoot": "0x56e81f171bcc55a6ff8345e692c0f86e5b48e01b996cadc001622fb5e363b421",
            "blobGasUsed": "0x00",
            "excessBlobGas": "0x00",
            "parentBeaconBlockRoot": "0x0000000000000000000000000000000000000000000000000000000000000000",
            "hash": "0x9ea8e7d8a82d4277f88a52c8443678d35c84afd43ea75589a96eea209da3bf12"
        },
        "genesisRLP": "0xf90240f9023aa00000000000000000000000000000000000000000000000000000000000000000a01dcc4de8dec75d7aab85b567b6ccd41ad312451b948a7413f0a142fd40d49347940000000000000000000000000000000000000000a00c91098ca68427b9fed0a888996e0e31d0337b95f6dbec91035fa6fb626bf97da056e81f171bcc55a6ff8345e692c0f86e5b48e01b996cadc001622fb5e363b421a056e81f171bcc55a6ff8345e692c0f86e5b48e01b996cadc001622fb5e363b421b9010000000000000000000000000000000000000000000000000000000000000000000000000000000000000000000000000000000000000000000000000000000000000000000000000000000000000000000000000000000000000000000000000000000000000000000000000000000000000000000000000000000000000000000000000000000000000000000000000000000000000000000000000000000000000000000000000000000000000000000000000000000000000000000000000000000000000000000000000000000000000000000000000000000000000000000000000000000000000000000000000000000000000000000000000000000000808088016345785d8a0000808000a0000000000000000000000000000000000000000000000000000000000000000088000000000000000007a056e81f171bcc55a6ff8345e692c0f86e5b48e01b996cadc001622fb5e363b4218080a00000000000000000000000000000000000000000000000000000000000000000c0c0c0",
        "lastblockhash": "0x60e41a1e28b0ef42886a6deb6e40cabcab1016f5e7ca03ee4fff2113b222380f",
        "network": "Cancun",
        "pre": {
            "0x000000000000000000000000000000000000000b": {
                "nonce": "0x01",
                "balance": "0x00",
                "code": "0x",
                "storage": {}
            },
            "0x0000000000000000000000000000000000000100": {
                "nonce": "0x00",
                "balance": "0x010000000000",
                "code": "0x366000600037602060003660006000600b611068f16000556000516001553d6002553d600060003e600051600355",
                "storage": {}
            },
            "0xa94f5374fce5edbc8e2a8697c15331677e6ebf0b": {
                "nonce": "0x00",
                "balance": "0x010000000000",
                "code": "0x",
                "storage": {}
            }
        },
        "postState": {
            "0x000000000000000000000000000000000000000b": {
                "nonce": "0x01",
                "balance": "0x00",
                "code": "0x",
                "storage": {
                    "0xfffe": "0xfffffffffffffffe",
                    "0x027ffe": "0xfffffffffffffffe"
                }
            },
            "0x0000000000000000000000000000000000000100": {
                "nonce": "0x00",
                "balance": "0x010000000000",
                "code": "0x366000600037602060003660006000600b611068f16000556000516001553d6002553d600060003e600051600355",
                "storage": {
                    "0x00": "0x01",
                    "0x01": "0xfffffffffffffffe",
                    "0x02": "0x20",
                    "0x03": "0xfffffffffffffffe"
                }
            },
            "0xa94f5374fce5edbc8e2a8697c15331677e6ebf0b": {
                "nonce": "0x01",
                "balance": "0xfffff3d2c9",
                "code": "0x",
                "storage": {}
            }
        },
        "sealEngine": "NoProof"
    },
    "003-fork=Cancun-beacon_root=18446744073709551615-timestamp=18446744073709551615": {
        "_info": {
            "filling-transition-tool": "evm version 1.12.1-unstable-07890811-20230804",
            "reference-spec": "https://github.com/ethereum/EIPs/blob/master/EIPS/eip-4788.md",
            "reference-spec-version": "f0eb6a364aaf5ccb43516fa2c269a54fb881ecfd"
        },
        "blocks": [
            {
                "rlp": "0xf902d4f90245a09ea8e7d8a82d4277f88a52c8443678d35c84afd43ea75589a96eea209da3bf12a01dcc4de8dec75d7aab85b567b6ccd41ad312451b948a7413f0a142fd40d49347942adc25665018aa1fe0e6bc666dac8fc2697ff9baa0a95a35fdab02bf7f4bfaf72b97abc7d302647c1b1fca299995aef5fc17e9b4a9a05907f3e4766e470b54377808628d4b1a0a0c5bd2defe780be17f67a2fb066e6ba08045b0c2cf5b8b4b42ea3cb2bd5709d76ca145329a06a93b283e7df5930f49adb9010000000000000000000000000000000000000000000000000000000000000000000000000000000000000000000000000000000000000000000000000000000000000000000000000000000000000000000000000000000000000000000000000000000000000000000000000000000000000000000000000000000000000000000000000000000000000000000000000000000000000000000000000000000000000000000000000000000000000000000000000000000000000000000000000000000000000000000000000000000000000000000000000000000000000000000000000000000000000000000000000000000000000000000000000000000000800188016345785d8a00008301bd5188ffffffffffffffff00a0000000000000000000000000000000000000000000000000000000000000000088000000000000000007a056e81f171bcc55a6ff8345e692c0f86e5b48e01b996cadc001622fb5e363b4218080a0000000000000000000000000000000000000000000000000fffffffffffffffff888b88602f88301808007830f424094000000000000000000000000000000000000010080a0000000000000000000000000000000000000000000000000ffffffffffffffffc080a0fd3e629c54b1e09f0e5465bc330b65ad3b5f71829273427c62b94d25af1c259ea04ef3fe26f50c507a69db97c193966b83256b437a8a58f5d9dc32b8fd88522d7cc0c0",
                "blockHeader": {
                    "parentHash": "0x9ea8e7d8a82d4277f88a52c8443678d35c84afd43ea75589a96eea209da3bf12",
                    "uncleHash": "0x1dcc4de8dec75d7aab85b567b6ccd41ad312451b948a7413f0a142fd40d49347",
                    "coinbase": "0x2adc25665018aa1fe0e6bc666dac8fc2697ff9ba",
                    "stateRoot": "0xa95a35fdab02bf7f4bfaf72b97abc7d302647c1b1fca299995aef5fc17e9b4a9",
                    "transactionsTrie": "0x5907f3e4766e470b54377808628d4b1a0a0c5bd2defe780be17f67a2fb066e6b",
                    "receiptTrie": "0x8045b0c2cf5b8b4b42ea3cb2bd5709d76ca145329a06a93b283e7df5930f49ad",
                    "bloom": "0x00000000000000000000000000000000000000000000000000000000000000000000000000000000000000000000000000000000000000000000000000000000000000000000000000000000000000000000000000000000000000000000000000000000000000000000000000000000000000000000000000000000000000000000000000000000000000000000000000000000000000000000000000000000000000000000000000000000000000000000000000000000000000000000000000000000000000000000000000000000000000000000000000000000000000000000000000000000000000000000000000000000000000000000000000000000",
                    "difficulty": "0x00",
                    "number": "0x01",
                    "gasLimit": "0x016345785d8a0000",
                    "gasUsed": "0x01bd51",
                    "timestamp": "0xffffffffffffffff",
                    "extraData": "0x00",
                    "mixHash": "0x0000000000000000000000000000000000000000000000000000000000000000",
                    "nonce": "0x0000000000000000",
                    "baseFeePerGas": "0x07",
                    "withdrawalsRoot": "0x56e81f171bcc55a6ff8345e692c0f86e5b48e01b996cadc001622fb5e363b421",
                    "blobGasUsed": "0x00",
                    "excessBlobGas": "0x00",
                    "parentBeaconBlockRoot": "0x000000000000000000000000000000000000000000000000ffffffffffffffff",
                    "hash": "0xa00ca493cb6fef8e7cd1e15155b958e3e038c8cdb6535680b256486c13d3f647"
                },
                "engineNewPayload": {
                    "executionPayload": {
                        "parentHash": "0x9ea8e7d8a82d4277f88a52c8443678d35c84afd43ea75589a96eea209da3bf12",
                        "feeRecipient": "0x2adc25665018aa1fe0e6bc666dac8fc2697ff9ba",
                        "stateRoot": "0xa95a35fdab02bf7f4bfaf72b97abc7d302647c1b1fca299995aef5fc17e9b4a9",
                        "receiptsRoot": "0x8045b0c2cf5b8b4b42ea3cb2bd5709d76ca145329a06a93b283e7df5930f49ad",
                        "logsBloom": "0x00000000000000000000000000000000000000000000000000000000000000000000000000000000000000000000000000000000000000000000000000000000000000000000000000000000000000000000000000000000000000000000000000000000000000000000000000000000000000000000000000000000000000000000000000000000000000000000000000000000000000000000000000000000000000000000000000000000000000000000000000000000000000000000000000000000000000000000000000000000000000000000000000000000000000000000000000000000000000000000000000000000000000000000000000000000",
                        "blockNumber": "0x1",
                        "gasLimit": "0x16345785d8a0000",
                        "gasUsed": "0x1bd51",
                        "timestamp": "0xffffffffffffffff",
                        "extraData": "0x00",
                        "prevRandao": "0x0000000000000000000000000000000000000000000000000000000000000000",
                        "baseFeePerGas": "0x7",
                        "blobGasUsed": "0x0",
                        "excessBlobGas": "0x0",
                        "blockHash": "0xa00ca493cb6fef8e7cd1e15155b958e3e038c8cdb6535680b256486c13d3f647",
                        "transactions": [
                            "0x02f88301808007830f424094000000000000000000000000000000000000010080a0000000000000000000000000000000000000000000000000ffffffffffffffffc080a0fd3e629c54b1e09f0e5465bc330b65ad3b5f71829273427c62b94d25af1c259ea04ef3fe26f50c507a69db97c193966b83256b437a8a58f5d9dc32b8fd88522d7c"
                        ],
                        "withdrawals": []
                    },
                    "expectedBlobVersionedHashes": [],
                    "version": "3",
                    "parentBeaconBlockRoot": "0x000000000000000000000000000000000000000000000000ffffffffffffffff"
                },
                "transactions": [
                    {
                        "type": "0x02",
                        "chainId": "0x01",
                        "nonce": "0x00",
                        "maxPriorityFeePerGas": "0x00",
                        "maxFeePerGas": "0x07",
                        "gasLimit": "0x0f4240",
                        "to": "0x0000000000000000000000000000000000000100",
                        "value": "0x00",
                        "data": "0x000000000000000000000000000000000000000000000000ffffffffffffffff",
                        "accessList": [],
                        "v": "0x00",
                        "r": "0xfd3e629c54b1e09f0e5465bc330b65ad3b5f71829273427c62b94d25af1c259e",
                        "s": "0x4ef3fe26f50c507a69db97c193966b83256b437a8a58f5d9dc32b8fd88522d7c",
                        "sender": "0xa94f5374fce5edbc8e2a8697c15331677e6ebf0b"
                    }
                ],
                "uncleHeaders": [],
                "withdrawals": []
            }
        ],
        "genesisBlockHeader": {
            "parentHash": "0x0000000000000000000000000000000000000000000000000000000000000000",
            "uncleHash": "0x1dcc4de8dec75d7aab85b567b6ccd41ad312451b948a7413f0a142fd40d49347",
            "coinbase": "0x0000000000000000000000000000000000000000",
            "stateRoot": "0x0c91098ca68427b9fed0a888996e0e31d0337b95f6dbec91035fa6fb626bf97d",
            "transactionsTrie": "0x56e81f171bcc55a6ff8345e692c0f86e5b48e01b996cadc001622fb5e363b421",
            "receiptTrie": "0x56e81f171bcc55a6ff8345e692c0f86e5b48e01b996cadc001622fb5e363b421",
            "bloom": "0x00000000000000000000000000000000000000000000000000000000000000000000000000000000000000000000000000000000000000000000000000000000000000000000000000000000000000000000000000000000000000000000000000000000000000000000000000000000000000000000000000000000000000000000000000000000000000000000000000000000000000000000000000000000000000000000000000000000000000000000000000000000000000000000000000000000000000000000000000000000000000000000000000000000000000000000000000000000000000000000000000000000000000000000000000000000",
            "difficulty": "0x00",
            "number": "0x00",
            "gasLimit": "0x016345785d8a0000",
            "gasUsed": "0x00",
            "timestamp": "0x00",
            "extraData": "0x00",
            "mixHash": "0x0000000000000000000000000000000000000000000000000000000000000000",
            "nonce": "0x0000000000000000",
            "baseFeePerGas": "0x07",
            "withdrawalsRoot": "0x56e81f171bcc55a6ff8345e692c0f86e5b48e01b996cadc001622fb5e363b421",
            "blobGasUsed": "0x00",
            "excessBlobGas": "0x00",
            "parentBeaconBlockRoot": "0x0000000000000000000000000000000000000000000000000000000000000000",
            "hash": "0x9ea8e7d8a82d4277f88a52c8443678d35c84afd43ea75589a96eea209da3bf12"
        },
        "genesisRLP": "0xf90240f9023aa00000000000000000000000000000000000000000000000000000000000000000a01dcc4de8dec75d7aab85b567b6ccd41ad312451b948a7413f0a142fd40d49347940000000000000000000000000000000000000000a00c91098ca68427b9fed0a888996e0e31d0337b95f6dbec91035fa6fb626bf97da056e81f171bcc55a6ff8345e692c0f86e5b48e01b996cadc001622fb5e363b421a056e81f171bcc55a6ff8345e692c0f86e5b48e01b996cadc001622fb5e363b421b9010000000000000000000000000000000000000000000000000000000000000000000000000000000000000000000000000000000000000000000000000000000000000000000000000000000000000000000000000000000000000000000000000000000000000000000000000000000000000000000000000000000000000000000000000000000000000000000000000000000000000000000000000000000000000000000000000000000000000000000000000000000000000000000000000000000000000000000000000000000000000000000000000000000000000000000000000000000000000000000000000000000000000000000000000000000000808088016345785d8a0000808000a0000000000000000000000000000000000000000000000000000000000000000088000000000000000007a056e81f171bcc55a6ff8345e692c0f86e5b48e01b996cadc001622fb5e363b4218080a00000000000000000000000000000000000000000000000000000000000000000c0c0c0",
        "lastblockhash": "0xa00ca493cb6fef8e7cd1e15155b958e3e038c8cdb6535680b256486c13d3f647",
        "network": "Cancun",
        "pre": {
            "0x000000000000000000000000000000000000000b": {
                "nonce": "0x01",
                "balance": "0x00",
                "code": "0x",
                "storage": {}
            },
            "0x0000000000000000000000000000000000000100": {
                "nonce": "0x00",
                "balance": "0x010000000000",
                "code": "0x366000600037602060003660006000600b611068f16000556000516001553d6002553d600060003e600051600355",
                "storage": {}
            },
            "0xa94f5374fce5edbc8e2a8697c15331677e6ebf0b": {
                "nonce": "0x00",
                "balance": "0x010000000000",
                "code": "0x",
                "storage": {}
            }
        },
        "postState": {
            "0x000000000000000000000000000000000000000b": {
                "nonce": "0x01",
                "balance": "0x00",
                "code": "0x",
                "storage": {
                    "0xffff": "0xffffffffffffffff",
                    "0x027fff": "0xffffffffffffffff"
                }
            },
            "0x0000000000000000000000000000000000000100": {
                "nonce": "0x00",
                "balance": "0x010000000000",
                "code": "0x366000600037602060003660006000600b611068f16000556000516001553d6002553d600060003e600051600355",
                "storage": {
                    "0x00": "0x01",
                    "0x01": "0xffffffffffffffff",
                    "0x02": "0x20",
                    "0x03": "0xffffffffffffffff"
                }
            },
            "0xa94f5374fce5edbc8e2a8697c15331677e6ebf0b": {
                "nonce": "0x01",
                "balance": "0xfffff3d2c9",
                "code": "0x",
                "storage": {}
            }
        },
        "sealEngine": "NoProof"
    }
}