{
    "000-fork=Shanghai-gas_cost": {
        "_info": {
            "filling-transition-tool": "evm version 1.12.1-unstable-cf01e7db-20230808",
            "reference-spec": "https://github.com/ethereum/EIPs/blob/master/EIPS/eip-3855.md",
            "reference-spec-version": "42034250ae8dd4b21fdc6795773893c6f1e74d3a"
        },
        "blocks": [
            {
                "rlp": "0xf90284f9021ba071304a7bcdfae8cde85f5c3c28331f136e10eeac5d6fb1d4beef48542eb5ec1ba01dcc4de8dec75d7aab85b567b6ccd41ad312451b948a7413f0a142fd40d49347942adc25665018aa1fe0e6bc666dac8fc2697ff9baa05f6089f3ff222dd6a7a718b8dca5e4861d71a4ea08f0d91f4ba70cfa887a78aaa02bad57b8521a8d2a492526aecdb0e1244a14e1bc52809a046ac46a863ed9e54da03f4e5c2ec5b2170b711d97ee755c160457bb58d8daa338e835ec02ae6860bbabb9010000000000000000000000000000000000000000000000000000000000000000000000000000000000000000000000000000000000000000000000000000000000000000000000000000000000000000000000000000000000000000000000000000000000000000000000000000000000000000000000000000000000000000000000000000000000000000000000000000000000000000000000000000000000000000000000000000000000000000000000000000000000000000000000000000000000000000000000000000000000000000000000000000000000000000000000000000000000000000000000000000000000000000000000000000000000800188016345785d8a000082a8798203e800a0000000000000000000000000000000000000000000000000000000000000000088000000000000000007a056e81f171bcc55a6ff8345e692c0f86e5b48e01b996cadc001622fb5e363b421f862f860800a830186a0940000000000000000000000000000000000000100808025a086ddb9352affa90c20d71652b049404d8abcc6575e8e4a2c0bb9aa73fad9001ca01bb0d685e5589862ae3d2b083be59c4f754c326800dbc82712e9f81eebf2f61dc0c0",
                "blockHeader": {
                    "parentHash": "0x71304a7bcdfae8cde85f5c3c28331f136e10eeac5d6fb1d4beef48542eb5ec1b",
                    "uncleHash": "0x1dcc4de8dec75d7aab85b567b6ccd41ad312451b948a7413f0a142fd40d49347",
                    "coinbase": "0x2adc25665018aa1fe0e6bc666dac8fc2697ff9ba",
                    "stateRoot": "0x5f6089f3ff222dd6a7a718b8dca5e4861d71a4ea08f0d91f4ba70cfa887a78aa",
                    "transactionsTrie": "0x2bad57b8521a8d2a492526aecdb0e1244a14e1bc52809a046ac46a863ed9e54d",
                    "receiptTrie": "0x3f4e5c2ec5b2170b711d97ee755c160457bb58d8daa338e835ec02ae6860bbab",
                    "bloom": "0x00000000000000000000000000000000000000000000000000000000000000000000000000000000000000000000000000000000000000000000000000000000000000000000000000000000000000000000000000000000000000000000000000000000000000000000000000000000000000000000000000000000000000000000000000000000000000000000000000000000000000000000000000000000000000000000000000000000000000000000000000000000000000000000000000000000000000000000000000000000000000000000000000000000000000000000000000000000000000000000000000000000000000000000000000000000",
                    "difficulty": "0x00",
                    "number": "0x01",
                    "gasLimit": "0x016345785d8a0000",
                    "gasUsed": "0xa879",
                    "timestamp": "0x03e8",
                    "extraData": "0x00",
                    "mixHash": "0x0000000000000000000000000000000000000000000000000000000000000000",
                    "nonce": "0x0000000000000000",
                    "baseFeePerGas": "0x07",
                    "withdrawalsRoot": "0x56e81f171bcc55a6ff8345e692c0f86e5b48e01b996cadc001622fb5e363b421",
                    "hash": "0x805655a82d33ff8d930378e9e0bb1e0c090043973ad52d0e56fb44b22eb8095c"
                },
                "engineNewPayload": {
                    "executionPayload": {
                        "parentHash": "0x71304a7bcdfae8cde85f5c3c28331f136e10eeac5d6fb1d4beef48542eb5ec1b",
                        "feeRecipient": "0x2adc25665018aa1fe0e6bc666dac8fc2697ff9ba",
                        "stateRoot": "0x5f6089f3ff222dd6a7a718b8dca5e4861d71a4ea08f0d91f4ba70cfa887a78aa",
                        "receiptsRoot": "0x3f4e5c2ec5b2170b711d97ee755c160457bb58d8daa338e835ec02ae6860bbab",
                        "logsBloom": "0x00000000000000000000000000000000000000000000000000000000000000000000000000000000000000000000000000000000000000000000000000000000000000000000000000000000000000000000000000000000000000000000000000000000000000000000000000000000000000000000000000000000000000000000000000000000000000000000000000000000000000000000000000000000000000000000000000000000000000000000000000000000000000000000000000000000000000000000000000000000000000000000000000000000000000000000000000000000000000000000000000000000000000000000000000000000",
                        "blockNumber": "0x1",
                        "gasLimit": "0x16345785d8a0000",
                        "gasUsed": "0xa879",
                        "timestamp": "0x3e8",
                        "extraData": "0x00",
                        "prevRandao": "0x0000000000000000000000000000000000000000000000000000000000000000",
                        "baseFeePerGas": "0x7",
                        "blockHash": "0x805655a82d33ff8d930378e9e0bb1e0c090043973ad52d0e56fb44b22eb8095c",
                        "transactions": [
                            "0xf860800a830186a0940000000000000000000000000000000000000100808025a086ddb9352affa90c20d71652b049404d8abcc6575e8e4a2c0bb9aa73fad9001ca01bb0d685e5589862ae3d2b083be59c4f754c326800dbc82712e9f81eebf2f61d"
                        ],
                        "withdrawals": []
                    },
                    "version": "2"
                },
                "transactions": [
                    {
                        "type": "0x00",
                        "chainId": "0x01",
                        "nonce": "0x00",
                        "gasPrice": "0x0a",
                        "gasLimit": "0x0186a0",
                        "to": "0x0000000000000000000000000000000000000100",
                        "value": "0x00",
                        "data": "0x",
                        "v": "0x25",
                        "r": "0x86ddb9352affa90c20d71652b049404d8abcc6575e8e4a2c0bb9aa73fad9001c",
                        "s": "0x1bb0d685e5589862ae3d2b083be59c4f754c326800dbc82712e9f81eebf2f61d",
                        "sender": "0xa94f5374fce5edbc8e2a8697c15331677e6ebf0b"
                    }
                ],
                "uncleHeaders": [],
                "withdrawals": []
            }
        ],
        "genesisBlockHeader": {
            "parentHash": "0x0000000000000000000000000000000000000000000000000000000000000000",
            "uncleHash": "0x1dcc4de8dec75d7aab85b567b6ccd41ad312451b948a7413f0a142fd40d49347",
            "coinbase": "0x0000000000000000000000000000000000000000",
            "stateRoot": "0x8cf5d343ac678c956e3074093c63936671c5ac9dcf3f2563ff3df92767b218b5",
            "transactionsTrie": "0x56e81f171bcc55a6ff8345e692c0f86e5b48e01b996cadc001622fb5e363b421",
            "receiptTrie": "0x56e81f171bcc55a6ff8345e692c0f86e5b48e01b996cadc001622fb5e363b421",
            "bloom": "0x00000000000000000000000000000000000000000000000000000000000000000000000000000000000000000000000000000000000000000000000000000000000000000000000000000000000000000000000000000000000000000000000000000000000000000000000000000000000000000000000000000000000000000000000000000000000000000000000000000000000000000000000000000000000000000000000000000000000000000000000000000000000000000000000000000000000000000000000000000000000000000000000000000000000000000000000000000000000000000000000000000000000000000000000000000000",
            "difficulty": "0x00",
            "number": "0x00",
            "gasLimit": "0x016345785d8a0000",
            "gasUsed": "0x00",
            "timestamp": "0x00",
            "extraData": "0x00",
            "mixHash": "0x0000000000000000000000000000000000000000000000000000000000000000",
            "nonce": "0x0000000000000000",
            "baseFeePerGas": "0x07",
            "withdrawalsRoot": "0x56e81f171bcc55a6ff8345e692c0f86e5b48e01b996cadc001622fb5e363b421",
            "hash": "0x71304a7bcdfae8cde85f5c3c28331f136e10eeac5d6fb1d4beef48542eb5ec1b"
        },
        "genesisRLP": "0xf9021df90217a00000000000000000000000000000000000000000000000000000000000000000a01dcc4de8dec75d7aab85b567b6ccd41ad312451b948a7413f0a142fd40d49347940000000000000000000000000000000000000000a08cf5d343ac678c956e3074093c63936671c5ac9dcf3f2563ff3df92767b218b5a056e81f171bcc55a6ff8345e692c0f86e5b48e01b996cadc001622fb5e363b421a056e81f171bcc55a6ff8345e692c0f86e5b48e01b996cadc001622fb5e363b421b9010000000000000000000000000000000000000000000000000000000000000000000000000000000000000000000000000000000000000000000000000000000000000000000000000000000000000000000000000000000000000000000000000000000000000000000000000000000000000000000000000000000000000000000000000000000000000000000000000000000000000000000000000000000000000000000000000000000000000000000000000000000000000000000000000000000000000000000000000000000000000000000000000000000000000000000000000000000000000000000000000000000000000000000000000000000000808088016345785d8a0000808000a0000000000000000000000000000000000000000000000000000000000000000088000000000000000007a056e81f171bcc55a6ff8345e692c0f86e5b48e01b996cadc001622fb5e363b421c0c0c0",
        "lastblockhash": "0x805655a82d33ff8d930378e9e0bb1e0c090043973ad52d0e56fb44b22eb8095c",
        "network": "Shanghai",
        "pre": {
            "0x0000000000000000000000000000000000000100": {
                "nonce": "0x00",
                "balance": "0x00",
                "code": "0x5a5f5a905090036002900360005500",
                "storage": {}
            },
            "0xa94f5374fce5edbc8e2a8697c15331677e6ebf0b": {
                "nonce": "0x00",
                "balance": "0x3635c9adc5dea00000",
                "code": "0x",
                "storage": {}
            }
        },
        "postState": {
            "0x0000000000000000000000000000000000000100": {
                "nonce": "0x00",
                "balance": "0x00",
                "code": "0x5a5f5a905090036002900360005500",
                "storage": {
                    "0x00": "0x02"
                }
            },
            "0x2adc25665018aa1fe0e6bc666dac8fc2697ff9ba": {
                "nonce": "0x00",
                "balance": "0x01f96b",
                "code": "0x",
                "storage": {}
            },
            "0xa94f5374fce5edbc8e2a8697c15331677e6ebf0b": {
                "nonce": "0x01",
                "balance": "0x3635c9adc5de996b46",
                "code": "0x",
                "storage": {}
            }
        },
        "sealEngine": "NoProof"
    },
    "001-fork=Cancun-gas_cost": {
        "_info": {
            "filling-transition-tool": "evm version 1.12.1-unstable-cf01e7db-20230808",
            "reference-spec": "https://github.com/ethereum/EIPs/blob/master/EIPS/eip-3855.md",
            "reference-spec-version": "42034250ae8dd4b21fdc6795773893c6f1e74d3a"
        },
        "blocks": [
            {
                "rlp": "0xf902a7f9023ea0b54166aea6e4c07fb4940b9d2c9063885b5c87818f4a1172995be812c5ea2912a01dcc4de8dec75d7aab85b567b6ccd41ad312451b948a7413f0a142fd40d49347942adc25665018aa1fe0e6bc666dac8fc2697ff9baa08c3522b74a642fe7df44c33c5aaeb83c26a0fe86a8ffca72dd46786845316f57a02bad57b8521a8d2a492526aecdb0e1244a14e1bc52809a046ac46a863ed9e54da03f4e5c2ec5b2170b711d97ee755c160457bb58d8daa338e835ec02ae6860bbabb9010000000000000000000000000000000000000000000000000000000000000000000000000000000000000000000000000000000000000000000000000000000000000000000000000000000000000000000000000000000000000000000000000000000000000000000000000000000000000000000000000000000000000000000000000000000000000000000000000000000000000000000000000000000000000000000000000000000000000000000000000000000000000000000000000000000000000000000000000000000000000000000000000000000000000000000000000000000000000000000000000000000000000000000000000000000000800188016345785d8a000082a8798203e800a0000000000000000000000000000000000000000000000000000000000000000088000000000000000007a056e81f171bcc55a6ff8345e692c0f86e5b48e01b996cadc001622fb5e363b4218080a00000000000000000000000000000000000000000000000000000000000000000f862f860800a830186a0940000000000000000000000000000000000000100808025a086ddb9352affa90c20d71652b049404d8abcc6575e8e4a2c0bb9aa73fad9001ca01bb0d685e5589862ae3d2b083be59c4f754c326800dbc82712e9f81eebf2f61dc0c0",
                "blockHeader": {
                    "parentHash": "0xb54166aea6e4c07fb4940b9d2c9063885b5c87818f4a1172995be812c5ea2912",
                    "uncleHash": "0x1dcc4de8dec75d7aab85b567b6ccd41ad312451b948a7413f0a142fd40d49347",
                    "coinbase": "0x2adc25665018aa1fe0e6bc666dac8fc2697ff9ba",
                    "stateRoot": "0x8c3522b74a642fe7df44c33c5aaeb83c26a0fe86a8ffca72dd46786845316f57",
                    "transactionsTrie": "0x2bad57b8521a8d2a492526aecdb0e1244a14e1bc52809a046ac46a863ed9e54d",
                    "receiptTrie": "0x3f4e5c2ec5b2170b711d97ee755c160457bb58d8daa338e835ec02ae6860bbab",
                    "bloom": "0x00000000000000000000000000000000000000000000000000000000000000000000000000000000000000000000000000000000000000000000000000000000000000000000000000000000000000000000000000000000000000000000000000000000000000000000000000000000000000000000000000000000000000000000000000000000000000000000000000000000000000000000000000000000000000000000000000000000000000000000000000000000000000000000000000000000000000000000000000000000000000000000000000000000000000000000000000000000000000000000000000000000000000000000000000000000",
                    "difficulty": "0x00",
                    "number": "0x01",
                    "gasLimit": "0x016345785d8a0000",
                    "gasUsed": "0xa879",
                    "timestamp": "0x03e8",
                    "extraData": "0x00",
                    "mixHash": "0x0000000000000000000000000000000000000000000000000000000000000000",
                    "nonce": "0x0000000000000000",
                    "baseFeePerGas": "0x07",
                    "withdrawalsRoot": "0x56e81f171bcc55a6ff8345e692c0f86e5b48e01b996cadc001622fb5e363b421",
                    "blobGasUsed": "0x00",
                    "excessBlobGas": "0x00",
                    "parentBeaconBlockRoot": "0x0000000000000000000000000000000000000000000000000000000000000000",
                    "hash": "0x5f70de3d78d1af1a833dfd03126fc8291dba94f5f74ea5ae157cd647d0458033"
                },
                "engineNewPayload": {
                    "executionPayload": {
                        "parentHash": "0xb54166aea6e4c07fb4940b9d2c9063885b5c87818f4a1172995be812c5ea2912",
                        "feeRecipient": "0x2adc25665018aa1fe0e6bc666dac8fc2697ff9ba",
                        "stateRoot": "0x8c3522b74a642fe7df44c33c5aaeb83c26a0fe86a8ffca72dd46786845316f57",
                        "receiptsRoot": "0x3f4e5c2ec5b2170b711d97ee755c160457bb58d8daa338e835ec02ae6860bbab",
                        "logsBloom": "0x00000000000000000000000000000000000000000000000000000000000000000000000000000000000000000000000000000000000000000000000000000000000000000000000000000000000000000000000000000000000000000000000000000000000000000000000000000000000000000000000000000000000000000000000000000000000000000000000000000000000000000000000000000000000000000000000000000000000000000000000000000000000000000000000000000000000000000000000000000000000000000000000000000000000000000000000000000000000000000000000000000000000000000000000000000000",
                        "blockNumber": "0x1",
                        "gasLimit": "0x16345785d8a0000",
                        "gasUsed": "0xa879",
                        "timestamp": "0x3e8",
                        "extraData": "0x00",
                        "prevRandao": "0x0000000000000000000000000000000000000000000000000000000000000000",
                        "baseFeePerGas": "0x7",
                        "blobGasUsed": "0x0",
                        "excessBlobGas": "0x0",
                        "blockHash": "0x5f70de3d78d1af1a833dfd03126fc8291dba94f5f74ea5ae157cd647d0458033",
                        "transactions": [
                            "0xf860800a830186a0940000000000000000000000000000000000000100808025a086ddb9352affa90c20d71652b049404d8abcc6575e8e4a2c0bb9aa73fad9001ca01bb0d685e5589862ae3d2b083be59c4f754c326800dbc82712e9f81eebf2f61d"
                        ],
                        "withdrawals": []
                    },
                    "expectedBlobVersionedHashes": [],
                    "version": "3",
                    "parentBeaconBlockRoot": "0x0000000000000000000000000000000000000000000000000000000000000000"
                },
                "transactions": [
                    {
                        "type": "0x00",
                        "chainId": "0x01",
                        "nonce": "0x00",
                        "gasPrice": "0x0a",
                        "gasLimit": "0x0186a0",
                        "to": "0x0000000000000000000000000000000000000100",
                        "value": "0x00",
                        "data": "0x",
                        "v": "0x25",
                        "r": "0x86ddb9352affa90c20d71652b049404d8abcc6575e8e4a2c0bb9aa73fad9001c",
                        "s": "0x1bb0d685e5589862ae3d2b083be59c4f754c326800dbc82712e9f81eebf2f61d",
                        "sender": "0xa94f5374fce5edbc8e2a8697c15331677e6ebf0b"
                    }
                ],
                "uncleHeaders": [],
                "withdrawals": []
            }
        ],
        "genesisBlockHeader": {
            "parentHash": "0x0000000000000000000000000000000000000000000000000000000000000000",
            "uncleHash": "0x1dcc4de8dec75d7aab85b567b6ccd41ad312451b948a7413f0a142fd40d49347",
            "coinbase": "0x0000000000000000000000000000000000000000",
            "stateRoot": "0x229cf636ff98f71bba9c19cc3b4e48b8780d4c0d0b8a39921dcd348cd56fb884",
            "transactionsTrie": "0x56e81f171bcc55a6ff8345e692c0f86e5b48e01b996cadc001622fb5e363b421",
            "receiptTrie": "0x56e81f171bcc55a6ff8345e692c0f86e5b48e01b996cadc001622fb5e363b421",
            "bloom": "0x00000000000000000000000000000000000000000000000000000000000000000000000000000000000000000000000000000000000000000000000000000000000000000000000000000000000000000000000000000000000000000000000000000000000000000000000000000000000000000000000000000000000000000000000000000000000000000000000000000000000000000000000000000000000000000000000000000000000000000000000000000000000000000000000000000000000000000000000000000000000000000000000000000000000000000000000000000000000000000000000000000000000000000000000000000000",
            "difficulty": "0x00",
            "number": "0x00",
            "gasLimit": "0x016345785d8a0000",
            "gasUsed": "0x00",
            "timestamp": "0x00",
            "extraData": "0x00",
            "mixHash": "0x0000000000000000000000000000000000000000000000000000000000000000",
            "nonce": "0x0000000000000000",
            "baseFeePerGas": "0x07",
            "withdrawalsRoot": "0x56e81f171bcc55a6ff8345e692c0f86e5b48e01b996cadc001622fb5e363b421",
            "blobGasUsed": "0x00",
            "excessBlobGas": "0x00",
            "parentBeaconBlockRoot": "0x0000000000000000000000000000000000000000000000000000000000000000",
            "hash": "0xb54166aea6e4c07fb4940b9d2c9063885b5c87818f4a1172995be812c5ea2912"
        },
        "genesisRLP": "0xf90240f9023aa00000000000000000000000000000000000000000000000000000000000000000a01dcc4de8dec75d7aab85b567b6ccd41ad312451b948a7413f0a142fd40d49347940000000000000000000000000000000000000000a0229cf636ff98f71bba9c19cc3b4e48b8780d4c0d0b8a39921dcd348cd56fb884a056e81f171bcc55a6ff8345e692c0f86e5b48e01b996cadc001622fb5e363b421a056e81f171bcc55a6ff8345e692c0f86e5b48e01b996cadc001622fb5e363b421b9010000000000000000000000000000000000000000000000000000000000000000000000000000000000000000000000000000000000000000000000000000000000000000000000000000000000000000000000000000000000000000000000000000000000000000000000000000000000000000000000000000000000000000000000000000000000000000000000000000000000000000000000000000000000000000000000000000000000000000000000000000000000000000000000000000000000000000000000000000000000000000000000000000000000000000000000000000000000000000000000000000000000000000000000000000000000808088016345785d8a0000808000a0000000000000000000000000000000000000000000000000000000000000000088000000000000000007a056e81f171bcc55a6ff8345e692c0f86e5b48e01b996cadc001622fb5e363b4218080a00000000000000000000000000000000000000000000000000000000000000000c0c0c0",
        "lastblockhash": "0x5f70de3d78d1af1a833dfd03126fc8291dba94f5f74ea5ae157cd647d0458033",
        "network": "Cancun",
        "pre": {
            "0x000000000000000000000000000000000000000b": {
                "nonce": "0x01",
                "balance": "0x00",
                "code": "0x3373fffffffffffffffffffffffffffffffffffffffe14604457602036146024575f5ffd5b620180005f350680545f35146037575f5ffd5b6201800001545f5260205ff35b42620180004206555f3562018000420662018000015500",
                "storage": {}
            },
            "0x0000000000000000000000000000000000000100": {
                "nonce": "0x00",
                "balance": "0x00",
                "code": "0x5a5f5a905090036002900360005500",
                "storage": {}
            },
            "0xa94f5374fce5edbc8e2a8697c15331677e6ebf0b": {
                "nonce": "0x00",
                "balance": "0x3635c9adc5dea00000",
                "code": "0x",
                "storage": {}
            }
        },
        "postState": {
            "0x000000000000000000000000000000000000000b": {
                "nonce": "0x01",
                "balance": "0x00",
                "code": "0x3373fffffffffffffffffffffffffffffffffffffffe14604457602036146024575f5ffd5b620180005f350680545f35146037575f5ffd5b6201800001545f5260205ff35b42620180004206555f3562018000420662018000015500",
                "storage": {
                    "0x03e8": "0x03e8"
                }
            },
            "0x0000000000000000000000000000000000000100": {
                "nonce": "0x00",
                "balance": "0x00",
                "code": "0x5a5f5a905090036002900360005500",
                "storage": {
                    "0x00": "0x02"
                }
            },
            "0x2adc25665018aa1fe0e6bc666dac8fc2697ff9ba": {
                "nonce": "0x00",
                "balance": "0x01f96b",
                "code": "0x",
                "storage": {}
            },
            "0xa94f5374fce5edbc8e2a8697c15331677e6ebf0b": {
                "nonce": "0x01",
                "balance": "0x3635c9adc5de996b46",
                "code": "0x",
                "storage": {}
            }
        },
        "sealEngine": "NoProof"
    }
}