{
    "000-fork=Shanghai-before_jumpdest": {
        "_info": {
            "filling-transition-tool": "evm version 1.13.5-unstable-4d161dee-20231019",
            "reference-spec": "https://github.com/ethereum/EIPs/blob/master/EIPS/eip-3855.md",
            "reference-spec-version": "42034250ae8dd4b21fdc6795773893c6f1e74d3a"
        },
        "network": "Shanghai",
        "genesisRLP": "0xf9021df90217a00000000000000000000000000000000000000000000000000000000000000000a01dcc4de8dec75d7aab85b567b6ccd41ad312451b948a7413f0a142fd40d49347940000000000000000000000000000000000000000a00e28b1ef791ea4bfe49e46c5bc84a23cbe85f5cc2a6f8083f7e0d1672a90529aa056e81f171bcc55a6ff8345e692c0f86e5b48e01b996cadc001622fb5e363b421a056e81f171bcc55a6ff8345e692c0f86e5b48e01b996cadc001622fb5e363b421b9010000000000000000000000000000000000000000000000000000000000000000000000000000000000000000000000000000000000000000000000000000000000000000000000000000000000000000000000000000000000000000000000000000000000000000000000000000000000000000000000000000000000000000000000000000000000000000000000000000000000000000000000000000000000000000000000000000000000000000000000000000000000000000000000000000000000000000000000000000000000000000000000000000000000000000000000000000000000000000000000000000000000000000000000000000000000808088016345785d8a0000808000a0000000000000000000000000000000000000000000000000000000000000000088000000000000000007a056e81f171bcc55a6ff8345e692c0f86e5b48e01b996cadc001622fb5e363b421c0c0c0",
        "genesisBlockHeader": {
            "parentHash": "0x0000000000000000000000000000000000000000000000000000000000000000",
            "uncleHash": "0x1dcc4de8dec75d7aab85b567b6ccd41ad312451b948a7413f0a142fd40d49347",
            "coinbase": "0x0000000000000000000000000000000000000000",
            "stateRoot": "0x0e28b1ef791ea4bfe49e46c5bc84a23cbe85f5cc2a6f8083f7e0d1672a90529a",
            "transactionsTrie": "0x56e81f171bcc55a6ff8345e692c0f86e5b48e01b996cadc001622fb5e363b421",
            "receiptTrie": "0x56e81f171bcc55a6ff8345e692c0f86e5b48e01b996cadc001622fb5e363b421",
            "bloom": "0x00000000000000000000000000000000000000000000000000000000000000000000000000000000000000000000000000000000000000000000000000000000000000000000000000000000000000000000000000000000000000000000000000000000000000000000000000000000000000000000000000000000000000000000000000000000000000000000000000000000000000000000000000000000000000000000000000000000000000000000000000000000000000000000000000000000000000000000000000000000000000000000000000000000000000000000000000000000000000000000000000000000000000000000000000000000",
            "difficulty": "0x00",
            "number": "0x00",
            "gasLimit": "0x016345785d8a0000",
            "gasUsed": "0x00",
            "timestamp": "0x00",
            "extraData": "0x00",
            "mixHash": "0x0000000000000000000000000000000000000000000000000000000000000000",
            "nonce": "0x0000000000000000",
            "baseFeePerGas": "0x07",
            "withdrawalsRoot": "0x56e81f171bcc55a6ff8345e692c0f86e5b48e01b996cadc001622fb5e363b421",
            "hash": "0x9f68813153f3c544b145ffc595e3fd8377a464bdefc0471f2243fe9252db370d"
        },
        "blocks": [
            {
                "rlp": "0xf90284f9021ba09f68813153f3c544b145ffc595e3fd8377a464bdefc0471f2243fe9252db370da01dcc4de8dec75d7aab85b567b6ccd41ad312451b948a7413f0a142fd40d49347942adc25665018aa1fe0e6bc666dac8fc2697ff9baa0fcacf76745989c8b7694f2cc65bf222c5fb52febf47b3920f4091bbc5a630d99a02bad57b8521a8d2a492526aecdb0e1244a14e1bc52809a046ac46a863ed9e54da06a230419329d8a279aa3b6bca1805730e04de6d9728a3903937f74e2f67d6914b9010000000000000000000000000000000000000000000000000000000000000000000000000000000000000000000000000000000000000000000000000000000000000000000000000000000000000000000000000000000000000000000000000000000000000000000000000000000000000000000000000000000000000000000000000000000000000000000000000000000000000000000000000000000000000000000000000000000000000000000000000000000000000000000000000000000000000000000000000000000000000000000000000000000000000000000000000000000000000000000000000000000000000000000000000000000000800188016345785d8a000082a86d8203e800a0000000000000000000000000000000000000000000000000000000000000000088000000000000000007a056e81f171bcc55a6ff8345e692c0f86e5b48e01b996cadc001622fb5e363b421f862f860800a830186a0940000000000000000000000000000000000000100808025a086ddb9352affa90c20d71652b049404d8abcc6575e8e4a2c0bb9aa73fad9001ca01bb0d685e5589862ae3d2b083be59c4f754c326800dbc82712e9f81eebf2f61dc0c0",
                "blockHeader": {
                    "parentHash": "0x9f68813153f3c544b145ffc595e3fd8377a464bdefc0471f2243fe9252db370d",
                    "uncleHash": "0x1dcc4de8dec75d7aab85b567b6ccd41ad312451b948a7413f0a142fd40d49347",
                    "coinbase": "0x2adc25665018aa1fe0e6bc666dac8fc2697ff9ba",
                    "stateRoot": "0xfcacf76745989c8b7694f2cc65bf222c5fb52febf47b3920f4091bbc5a630d99",
                    "transactionsTrie": "0x2bad57b8521a8d2a492526aecdb0e1244a14e1bc52809a046ac46a863ed9e54d",
                    "receiptTrie": "0x6a230419329d8a279aa3b6bca1805730e04de6d9728a3903937f74e2f67d6914",
                    "bloom": "0x00000000000000000000000000000000000000000000000000000000000000000000000000000000000000000000000000000000000000000000000000000000000000000000000000000000000000000000000000000000000000000000000000000000000000000000000000000000000000000000000000000000000000000000000000000000000000000000000000000000000000000000000000000000000000000000000000000000000000000000000000000000000000000000000000000000000000000000000000000000000000000000000000000000000000000000000000000000000000000000000000000000000000000000000000000000",
                    "difficulty": "0x00",
                    "number": "0x01",
                    "gasLimit": "0x016345785d8a0000",
                    "gasUsed": "0xa86d",
                    "timestamp": "0x03e8",
                    "extraData": "0x00",
                    "mixHash": "0x0000000000000000000000000000000000000000000000000000000000000000",
                    "nonce": "0x0000000000000000",
                    "baseFeePerGas": "0x07",
                    "withdrawalsRoot": "0x56e81f171bcc55a6ff8345e692c0f86e5b48e01b996cadc001622fb5e363b421",
                    "hash": "0x4d57a21502bf8a6502f859edb177adda7f256e0186f1cbf4b60d93fadeef1f64"
                },
                "transactions": [
                    {
                        "type": "0x00",
                        "chainId": "0x01",
                        "nonce": "0x00",
                        "gasPrice": "0x0a",
                        "gasLimit": "0x0186a0",
                        "to": "0x0000000000000000000000000000000000000100",
                        "value": "0x00",
                        "data": "0x",
                        "v": "0x25",
                        "r": "0x86ddb9352affa90c20d71652b049404d8abcc6575e8e4a2c0bb9aa73fad9001c",
                        "s": "0x1bb0d685e5589862ae3d2b083be59c4f754c326800dbc82712e9f81eebf2f61d",
                        "sender": "0xa94f5374fce5edbc8e2a8697c15331677e6ebf0b"
                    }
                ],
                "uncleHeaders": [],
                "withdrawals": []
            }
        ],
        "lastblockhash": "0x4d57a21502bf8a6502f859edb177adda7f256e0186f1cbf4b60d93fadeef1f64",
        "pre": {
            "0x0000000000000000000000000000000000000100": {
                "nonce": "0x00",
                "balance": "0x00",
                "code": "0x6004565f5b60015f5500",
                "storage": {}
            },
            "0xa94f5374fce5edbc8e2a8697c15331677e6ebf0b": {
                "nonce": "0x00",
                "balance": "0x3635c9adc5dea00000",
                "code": "0x",
                "storage": {}
            }
        },
        "postState": {
            "0x0000000000000000000000000000000000000100": {
                "nonce": "0x00",
                "balance": "0x00",
                "code": "0x6004565f5b60015f5500",
                "storage": {
                    "0x00": "0x01"
                }
            },
            "0x2adc25665018aa1fe0e6bc666dac8fc2697ff9ba": {
                "nonce": "0x00",
                "balance": "0x01f947",
                "code": "0x",
                "storage": {}
            },
            "0xa94f5374fce5edbc8e2a8697c15331677e6ebf0b": {
                "nonce": "0x01",
                "balance": "0x3635c9adc5de996bbe",
                "code": "0x",
                "storage": {}
            }
        },
        "sealEngine": "NoProof"
    },
    "001-fork=Cancun-before_jumpdest": {
        "_info": {
            "filling-transition-tool": "evm version 1.13.5-unstable-4d161dee-20231019",
            "reference-spec": "https://github.com/ethereum/EIPs/blob/master/EIPS/eip-3855.md",
            "reference-spec-version": "42034250ae8dd4b21fdc6795773893c6f1e74d3a"
        },
        "network": "Cancun",
        "genesisRLP": "0xf90240f9023aa00000000000000000000000000000000000000000000000000000000000000000a01dcc4de8dec75d7aab85b567b6ccd41ad312451b948a7413f0a142fd40d49347940000000000000000000000000000000000000000a034add0edd79821075d9bf24903c9e2ec1789df881fc3ba342231f03f2886ef75a056e81f171bcc55a6ff8345e692c0f86e5b48e01b996cadc001622fb5e363b421a056e81f171bcc55a6ff8345e692c0f86e5b48e01b996cadc001622fb5e363b421b9010000000000000000000000000000000000000000000000000000000000000000000000000000000000000000000000000000000000000000000000000000000000000000000000000000000000000000000000000000000000000000000000000000000000000000000000000000000000000000000000000000000000000000000000000000000000000000000000000000000000000000000000000000000000000000000000000000000000000000000000000000000000000000000000000000000000000000000000000000000000000000000000000000000000000000000000000000000000000000000000000000000000000000000000000000000000808088016345785d8a0000808000a0000000000000000000000000000000000000000000000000000000000000000088000000000000000007a056e81f171bcc55a6ff8345e692c0f86e5b48e01b996cadc001622fb5e363b4218080a00000000000000000000000000000000000000000000000000000000000000000c0c0c0",
        "genesisBlockHeader": {
            "parentHash": "0x0000000000000000000000000000000000000000000000000000000000000000",
            "uncleHash": "0x1dcc4de8dec75d7aab85b567b6ccd41ad312451b948a7413f0a142fd40d49347",
            "coinbase": "0x0000000000000000000000000000000000000000",
            "stateRoot": "0x34add0edd79821075d9bf24903c9e2ec1789df881fc3ba342231f03f2886ef75",
            "transactionsTrie": "0x56e81f171bcc55a6ff8345e692c0f86e5b48e01b996cadc001622fb5e363b421",
            "receiptTrie": "0x56e81f171bcc55a6ff8345e692c0f86e5b48e01b996cadc001622fb5e363b421",
            "bloom": "0x00000000000000000000000000000000000000000000000000000000000000000000000000000000000000000000000000000000000000000000000000000000000000000000000000000000000000000000000000000000000000000000000000000000000000000000000000000000000000000000000000000000000000000000000000000000000000000000000000000000000000000000000000000000000000000000000000000000000000000000000000000000000000000000000000000000000000000000000000000000000000000000000000000000000000000000000000000000000000000000000000000000000000000000000000000000",
            "difficulty": "0x00",
            "number": "0x00",
            "gasLimit": "0x016345785d8a0000",
            "gasUsed": "0x00",
            "timestamp": "0x00",
            "extraData": "0x00",
            "mixHash": "0x0000000000000000000000000000000000000000000000000000000000000000",
            "nonce": "0x0000000000000000",
            "baseFeePerGas": "0x07",
            "withdrawalsRoot": "0x56e81f171bcc55a6ff8345e692c0f86e5b48e01b996cadc001622fb5e363b421",
            "blobGasUsed": "0x00",
            "excessBlobGas": "0x00",
            "parentBeaconBlockRoot": "0x0000000000000000000000000000000000000000000000000000000000000000",
            "hash": "0x9f76fd0d4877d86b8dd0f78d2b0c5bbd8f37e6978d6e79bb235e3538d71eb226"
        },
        "blocks": [
            {
                "rlp": "0xf902a7f9023ea09f76fd0d4877d86b8dd0f78d2b0c5bbd8f37e6978d6e79bb235e3538d71eb226a01dcc4de8dec75d7aab85b567b6ccd41ad312451b948a7413f0a142fd40d49347942adc25665018aa1fe0e6bc666dac8fc2697ff9baa006b00a842912338ea2bdccd3a68153ab0fdd7c719cda3f84ff848673d8df17b1a02bad57b8521a8d2a492526aecdb0e1244a14e1bc52809a046ac46a863ed9e54da06a230419329d8a279aa3b6bca1805730e04de6d9728a3903937f74e2f67d6914b9010000000000000000000000000000000000000000000000000000000000000000000000000000000000000000000000000000000000000000000000000000000000000000000000000000000000000000000000000000000000000000000000000000000000000000000000000000000000000000000000000000000000000000000000000000000000000000000000000000000000000000000000000000000000000000000000000000000000000000000000000000000000000000000000000000000000000000000000000000000000000000000000000000000000000000000000000000000000000000000000000000000000000000000000000000000000800188016345785d8a000082a86d8203e800a0000000000000000000000000000000000000000000000000000000000000000088000000000000000007a056e81f171bcc55a6ff8345e692c0f86e5b48e01b996cadc001622fb5e363b4218080a00000000000000000000000000000000000000000000000000000000000000000f862f860800a830186a0940000000000000000000000000000000000000100808025a086ddb9352affa90c20d71652b049404d8abcc6575e8e4a2c0bb9aa73fad9001ca01bb0d685e5589862ae3d2b083be59c4f754c326800dbc82712e9f81eebf2f61dc0c0",
                "blockHeader": {
                    "parentHash": "0x9f76fd0d4877d86b8dd0f78d2b0c5bbd8f37e6978d6e79bb235e3538d71eb226",
                    "uncleHash": "0x1dcc4de8dec75d7aab85b567b6ccd41ad312451b948a7413f0a142fd40d49347",
                    "coinbase": "0x2adc25665018aa1fe0e6bc666dac8fc2697ff9ba",
                    "stateRoot": "0x06b00a842912338ea2bdccd3a68153ab0fdd7c719cda3f84ff848673d8df17b1",
                    "transactionsTrie": "0x2bad57b8521a8d2a492526aecdb0e1244a14e1bc52809a046ac46a863ed9e54d",
                    "receiptTrie": "0x6a230419329d8a279aa3b6bca1805730e04de6d9728a3903937f74e2f67d6914",
                    "bloom": "0x00000000000000000000000000000000000000000000000000000000000000000000000000000000000000000000000000000000000000000000000000000000000000000000000000000000000000000000000000000000000000000000000000000000000000000000000000000000000000000000000000000000000000000000000000000000000000000000000000000000000000000000000000000000000000000000000000000000000000000000000000000000000000000000000000000000000000000000000000000000000000000000000000000000000000000000000000000000000000000000000000000000000000000000000000000000",
                    "difficulty": "0x00",
                    "number": "0x01",
                    "gasLimit": "0x016345785d8a0000",
                    "gasUsed": "0xa86d",
                    "timestamp": "0x03e8",
                    "extraData": "0x00",
                    "mixHash": "0x0000000000000000000000000000000000000000000000000000000000000000",
                    "nonce": "0x0000000000000000",
                    "baseFeePerGas": "0x07",
                    "withdrawalsRoot": "0x56e81f171bcc55a6ff8345e692c0f86e5b48e01b996cadc001622fb5e363b421",
                    "blobGasUsed": "0x00",
                    "excessBlobGas": "0x00",
                    "parentBeaconBlockRoot": "0x0000000000000000000000000000000000000000000000000000000000000000",
                    "hash": "0x3c39345647256e72e58f32e5742ee3869e9f104db17cdc2b5169b828fd7bfac5"
                },
                "transactions": [
                    {
                        "type": "0x00",
                        "chainId": "0x01",
                        "nonce": "0x00",
                        "gasPrice": "0x0a",
                        "gasLimit": "0x0186a0",
                        "to": "0x0000000000000000000000000000000000000100",
                        "value": "0x00",
                        "data": "0x",
                        "v": "0x25",
                        "r": "0x86ddb9352affa90c20d71652b049404d8abcc6575e8e4a2c0bb9aa73fad9001c",
                        "s": "0x1bb0d685e5589862ae3d2b083be59c4f754c326800dbc82712e9f81eebf2f61d",
                        "sender": "0xa94f5374fce5edbc8e2a8697c15331677e6ebf0b"
                    }
                ],
                "uncleHeaders": [],
                "withdrawals": []
            }
        ],
        "lastblockhash": "0x3c39345647256e72e58f32e5742ee3869e9f104db17cdc2b5169b828fd7bfac5",
        "pre": {
            "0x0000000000000000000000000000000000000100": {
                "nonce": "0x00",
                "balance": "0x00",
                "code": "0x6004565f5b60015f5500",
                "storage": {}
            },
            "0x000f3df6d732807ef1319fb7b8bb8522d0beac02": {
                "nonce": "0x01",
                "balance": "0x00",
                "code": "0x3373fffffffffffffffffffffffffffffffffffffffe14604d57602036146024575f5ffd5b5f35801560495762001fff810690815414603c575f5ffd5b62001fff01545f5260205ff35b5f5ffd5b62001fff42064281555f359062001fff015500",
                "storage": {}
            },
            "0xa94f5374fce5edbc8e2a8697c15331677e6ebf0b": {
                "nonce": "0x00",
                "balance": "0x3635c9adc5dea00000",
                "code": "0x",
                "storage": {}
            }
        },
        "postState": {
            "0x0000000000000000000000000000000000000100": {
                "nonce": "0x00",
                "balance": "0x00",
                "code": "0x6004565f5b60015f5500",
                "storage": {
                    "0x00": "0x01"
                }
            },
            "0x000f3df6d732807ef1319fb7b8bb8522d0beac02": {
                "nonce": "0x01",
                "balance": "0x00",
                "code": "0x3373fffffffffffffffffffffffffffffffffffffffe14604d57602036146024575f5ffd5b5f35801560495762001fff810690815414603c575f5ffd5b62001fff01545f5260205ff35b5f5ffd5b62001fff42064281555f359062001fff015500",
                "storage": {
                    "0x03e8": "0x03e8"
                }
            },
            "0x2adc25665018aa1fe0e6bc666dac8fc2697ff9ba": {
                "nonce": "0x00",
                "balance": "0x01f947",
                "code": "0x",
                "storage": {}
            },
            "0xa94f5374fce5edbc8e2a8697c15331677e6ebf0b": {
                "nonce": "0x01",
                "balance": "0x3635c9adc5de996bbe",
                "code": "0x",
                "storage": {}
            }
        },
        "sealEngine": "NoProof"
    }
}