{
    "000-fork=Cancun-tx_gas=500000-opcode=ORIGIN": {
        "_info": {
            "filling-transition-tool": "evm version 1.13.0-unstable-b1a1675c-20230912",
            "reference-spec": "https://github.com/ethereum/EIPs/blob/master/EIPS/eip-4844.md",
            "reference-spec-version": "f0eb6a364aaf5ccb43516fa2c269a54fb881ecfd"
        },
        "blocks": [
            {
                "rlp": "0xf902d4f90242a074e98fc707cae08f298ed44ea38ee419de74a41c0ce1c6755b2fb460abf2cc61a01dcc4de8dec75d7aab85b567b6ccd41ad312451b948a7413f0a142fd40d49347942adc25665018aa1fe0e6bc666dac8fc2697ff9baa0e43489788ff11a9da43853925c7480da123e7c590d43d0f52a5471e09ca46031a01f3581f26a0e6593c47b5d11210be45819176d1d04794911c1715d4840ab4875a0c117ad0158b04d4277c8a0d1b440360bf3f011ad7caccf8740df472c96e8f5ccb9010000000000000000000000000000000000000000000000000000000000000000000000000000000000000000000000000000000000000000000000000000000000000000000000000000000000000000000000000000000000000000000000000000000000000000000000000000000000000000000000000000000000000000000000000000000000000000000000000000000000000000000000000000000000000000000000000000000000000000000000000000000000000000000000000000000000000000000000000000000000000000000000000000000000000000000000000000000000000000000000000000000000000000000000000000000000800188016345785d8a000082a8610c80a0000000000000000000000000000000000000000000000000000000000000000088000000000000000007a056e81f171bcc55a6ff8345e692c0f86e5b48e01b996cadc001622fb5e363b42183020000830e0000a00000000000000000000000000000000000000000000000000000000000000000f88bb88903f886018080078307a1209400000000000000000000000000000000000001000180c001e1a0010000000000000000000000000000000000000000000000000000000000000001a08633745d9ccae895b1cd9b35473bf2c2f19230b32ebecf93fcf6e98e08868a7fa02df5e81e127ad763e99e70e134ea214d74d47e80787950b1959551c7b61f68eac0c0",
                "blockHeader": {
                    "parentHash": "0x74e98fc707cae08f298ed44ea38ee419de74a41c0ce1c6755b2fb460abf2cc61",
                    "uncleHash": "0x1dcc4de8dec75d7aab85b567b6ccd41ad312451b948a7413f0a142fd40d49347",
                    "coinbase": "0x2adc25665018aa1fe0e6bc666dac8fc2697ff9ba",
                    "stateRoot": "0xe43489788ff11a9da43853925c7480da123e7c590d43d0f52a5471e09ca46031",
                    "transactionsTrie": "0x1f3581f26a0e6593c47b5d11210be45819176d1d04794911c1715d4840ab4875",
                    "receiptTrie": "0xc117ad0158b04d4277c8a0d1b440360bf3f011ad7caccf8740df472c96e8f5cc",
                    "bloom": "0x00000000000000000000000000000000000000000000000000000000000000000000000000000000000000000000000000000000000000000000000000000000000000000000000000000000000000000000000000000000000000000000000000000000000000000000000000000000000000000000000000000000000000000000000000000000000000000000000000000000000000000000000000000000000000000000000000000000000000000000000000000000000000000000000000000000000000000000000000000000000000000000000000000000000000000000000000000000000000000000000000000000000000000000000000000000",
                    "difficulty": "0x00",
                    "number": "0x01",
                    "gasLimit": "0x016345785d8a0000",
                    "gasUsed": "0xa861",
                    "timestamp": "0x0c",
                    "extraData": "0x",
                    "mixHash": "0x0000000000000000000000000000000000000000000000000000000000000000",
                    "nonce": "0x0000000000000000",
                    "baseFeePerGas": "0x07",
                    "withdrawalsRoot": "0x56e81f171bcc55a6ff8345e692c0f86e5b48e01b996cadc001622fb5e363b421",
                    "blobGasUsed": "0x020000",
                    "excessBlobGas": "0x0e0000",
                    "parentBeaconBlockRoot": "0x0000000000000000000000000000000000000000000000000000000000000000",
                    "hash": "0xdc16476e51b3f28934f0a74694061fd7d3f1edb840ff686223a91810e37f85be"
                },
                "engineNewPayload": {
                    "executionPayload": {
                        "parentHash": "0x74e98fc707cae08f298ed44ea38ee419de74a41c0ce1c6755b2fb460abf2cc61",
                        "feeRecipient": "0x2adc25665018aa1fe0e6bc666dac8fc2697ff9ba",
                        "stateRoot": "0xe43489788ff11a9da43853925c7480da123e7c590d43d0f52a5471e09ca46031",
                        "receiptsRoot": "0xc117ad0158b04d4277c8a0d1b440360bf3f011ad7caccf8740df472c96e8f5cc",
                        "logsBloom": "0x00000000000000000000000000000000000000000000000000000000000000000000000000000000000000000000000000000000000000000000000000000000000000000000000000000000000000000000000000000000000000000000000000000000000000000000000000000000000000000000000000000000000000000000000000000000000000000000000000000000000000000000000000000000000000000000000000000000000000000000000000000000000000000000000000000000000000000000000000000000000000000000000000000000000000000000000000000000000000000000000000000000000000000000000000000000",
                        "blockNumber": "0x1",
                        "gasLimit": "0x16345785d8a0000",
                        "gasUsed": "0xa861",
                        "timestamp": "0xc",
                        "extraData": "0x",
                        "prevRandao": "0x0000000000000000000000000000000000000000000000000000000000000000",
                        "baseFeePerGas": "0x7",
                        "blobGasUsed": "0x20000",
                        "excessBlobGas": "0xe0000",
                        "blockHash": "0xdc16476e51b3f28934f0a74694061fd7d3f1edb840ff686223a91810e37f85be",
                        "transactions": [
                            "0x03f886018080078307a1209400000000000000000000000000000000000001000180c001e1a0010000000000000000000000000000000000000000000000000000000000000001a08633745d9ccae895b1cd9b35473bf2c2f19230b32ebecf93fcf6e98e08868a7fa02df5e81e127ad763e99e70e134ea214d74d47e80787950b1959551c7b61f68ea"
                        ],
                        "withdrawals": []
                    },
                    "expectedBlobVersionedHashes": [
                        "0x0100000000000000000000000000000000000000000000000000000000000000"
                    ],
                    "version": "3",
                    "parentBeaconBlockRoot": "0x0000000000000000000000000000000000000000000000000000000000000000"
                },
                "blocknumber": "1",
                "transactions": [
                    {
                        "type": "0x03",
                        "chainId": "0x01",
                        "nonce": "0x00",
                        "maxPriorityFeePerGas": "0x00",
                        "maxFeePerGas": "0x07",
                        "gasLimit": "0x07a120",
                        "to": "0x0000000000000000000000000000000000000100",
                        "value": "0x01",
                        "data": "0x",
                        "accessList": [],
                        "maxFeePerBlobGas": "0x01",
                        "blobVersionedHashes": [
                            "0x0100000000000000000000000000000000000000000000000000000000000000"
                        ],
                        "v": "0x01",
                        "r": "0x8633745d9ccae895b1cd9b35473bf2c2f19230b32ebecf93fcf6e98e08868a7f",
                        "s": "0x2df5e81e127ad763e99e70e134ea214d74d47e80787950b1959551c7b61f68ea",
                        "sender": "0xa94f5374fce5edbc8e2a8697c15331677e6ebf0b"
                    }
                ],
                "uncleHeaders": [],
                "withdrawals": []
            }
        ],
        "genesisBlockHeader": {
            "parentHash": "0x0000000000000000000000000000000000000000000000000000000000000000",
            "uncleHash": "0x1dcc4de8dec75d7aab85b567b6ccd41ad312451b948a7413f0a142fd40d49347",
            "coinbase": "0x0000000000000000000000000000000000000000",
            "stateRoot": "0xa7a2c93e618dc2895a50dadc8b59401f362734dad913bafbe770abbaa3fef004",
            "transactionsTrie": "0x56e81f171bcc55a6ff8345e692c0f86e5b48e01b996cadc001622fb5e363b421",
            "receiptTrie": "0x56e81f171bcc55a6ff8345e692c0f86e5b48e01b996cadc001622fb5e363b421",
            "bloom": "0x00000000000000000000000000000000000000000000000000000000000000000000000000000000000000000000000000000000000000000000000000000000000000000000000000000000000000000000000000000000000000000000000000000000000000000000000000000000000000000000000000000000000000000000000000000000000000000000000000000000000000000000000000000000000000000000000000000000000000000000000000000000000000000000000000000000000000000000000000000000000000000000000000000000000000000000000000000000000000000000000000000000000000000000000000000000",
            "difficulty": "0x00",
            "number": "0x00",
            "gasLimit": "0x016345785d8a0000",
            "gasUsed": "0x00",
            "timestamp": "0x00",
            "extraData": "0x00",
            "mixHash": "0x0000000000000000000000000000000000000000000000000000000000000000",
            "nonce": "0x0000000000000000",
            "baseFeePerGas": "0x07",
            "withdrawalsRoot": "0x56e81f171bcc55a6ff8345e692c0f86e5b48e01b996cadc001622fb5e363b421",
            "blobGasUsed": "0x00",
            "excessBlobGas": "0x140000",
            "parentBeaconBlockRoot": "0x0000000000000000000000000000000000000000000000000000000000000000",
            "hash": "0x74e98fc707cae08f298ed44ea38ee419de74a41c0ce1c6755b2fb460abf2cc61"
        },
        "genesisRLP": "0xf90243f9023da00000000000000000000000000000000000000000000000000000000000000000a01dcc4de8dec75d7aab85b567b6ccd41ad312451b948a7413f0a142fd40d49347940000000000000000000000000000000000000000a0a7a2c93e618dc2895a50dadc8b59401f362734dad913bafbe770abbaa3fef004a056e81f171bcc55a6ff8345e692c0f86e5b48e01b996cadc001622fb5e363b421a056e81f171bcc55a6ff8345e692c0f86e5b48e01b996cadc001622fb5e363b421b9010000000000000000000000000000000000000000000000000000000000000000000000000000000000000000000000000000000000000000000000000000000000000000000000000000000000000000000000000000000000000000000000000000000000000000000000000000000000000000000000000000000000000000000000000000000000000000000000000000000000000000000000000000000000000000000000000000000000000000000000000000000000000000000000000000000000000000000000000000000000000000000000000000000000000000000000000000000000000000000000000000000000000000000000000000000000808088016345785d8a0000808000a0000000000000000000000000000000000000000000000000000000000000000088000000000000000007a056e81f171bcc55a6ff8345e692c0f86e5b48e01b996cadc001622fb5e363b4218083140000a00000000000000000000000000000000000000000000000000000000000000000c0c0c0",
        "lastblockhash": "0xdc16476e51b3f28934f0a74694061fd7d3f1edb840ff686223a91810e37f85be",
        "network": "Cancun",
        "pre": {
            "0x0000000000000000000000000000000000000100": {
                "nonce": "0x00",
                "balance": "0x00",
                "code": "0x32600055",
                "storage": {}
            },
            "0xa94f5374fce5edbc8e2a8697c15331677e6ebf0b": {
                "nonce": "0x00",
                "balance": "0x3767e1",
                "code": "0x",
                "storage": {}
            },
            "0xbeac00ddb15f3b6d645c48263dc93862413a222d": {
                "nonce": "0x01",
                "balance": "0x00",
                "code": "0x3373fffffffffffffffffffffffffffffffffffffffe14604457602036146024575f5ffd5b620180005f350680545f35146037575f5ffd5b6201800001545f5260205ff35b6201800042064281555f359062018000015500",
                "storage": {}
            }
        },
        "postState": {
            "0x0000000000000000000000000000000000000100": {
                "nonce": "0x00",
                "balance": "0x01",
                "code": "0x32600055",
                "storage": {
                    "0x00": "0xa94f5374fce5edbc8e2a8697c15331677e6ebf0b"
                }
            },
            "0xa94f5374fce5edbc8e2a8697c15331677e6ebf0b": {
                "nonce": "0x01",
                "balance": "0x30cd39",
                "code": "0x",
                "storage": {}
            },
            "0xbeac00ddb15f3b6d645c48263dc93862413a222d": {
                "nonce": "0x01",
                "balance": "0x00",
                "code": "0x3373fffffffffffffffffffffffffffffffffffffffe14604457602036146024575f5ffd5b620180005f350680545f35146037575f5ffd5b6201800001545f5260205ff35b6201800042064281555f359062018000015500",
                "storage": {
                    "0x0c": "0x0c"
                }
            }
        },
        "sealEngine": "NoProof"
    },
    "001-fork=Cancun-tx_gas=500000-opcode=CALLER": {
        "_info": {
            "filling-transition-tool": "evm version 1.13.0-unstable-b1a1675c-20230912",
            "reference-spec": "https://github.com/ethereum/EIPs/blob/master/EIPS/eip-4844.md",
            "reference-spec-version": "f0eb6a364aaf5ccb43516fa2c269a54fb881ecfd"
        },
        "blocks": [
            {
                "rlp": "0xf902d4f90242a0664c1a24de2af6c33b22bdcc6672d6fff552ab294b79c98a17e0cd20ceea9b9ca01dcc4de8dec75d7aab85b567b6ccd41ad312451b948a7413f0a142fd40d49347942adc25665018aa1fe0e6bc666dac8fc2697ff9baa069bb658a5cf0fd0f657f2adf6a8131d8147d49aa7842a799d92e437031284743a01f3581f26a0e6593c47b5d11210be45819176d1d04794911c1715d4840ab4875a0c117ad0158b04d4277c8a0d1b440360bf3f011ad7caccf8740df472c96e8f5ccb9010000000000000000000000000000000000000000000000000000000000000000000000000000000000000000000000000000000000000000000000000000000000000000000000000000000000000000000000000000000000000000000000000000000000000000000000000000000000000000000000000000000000000000000000000000000000000000000000000000000000000000000000000000000000000000000000000000000000000000000000000000000000000000000000000000000000000000000000000000000000000000000000000000000000000000000000000000000000000000000000000000000000000000000000000000000000800188016345785d8a000082a8610c80a0000000000000000000000000000000000000000000000000000000000000000088000000000000000007a056e81f171bcc55a6ff8345e692c0f86e5b48e01b996cadc001622fb5e363b42183020000830e0000a00000000000000000000000000000000000000000000000000000000000000000f88bb88903f886018080078307a1209400000000000000000000000000000000000001000180c001e1a0010000000000000000000000000000000000000000000000000000000000000001a08633745d9ccae895b1cd9b35473bf2c2f19230b32ebecf93fcf6e98e08868a7fa02df5e81e127ad763e99e70e134ea214d74d47e80787950b1959551c7b61f68eac0c0",
                "blockHeader": {
                    "parentHash": "0x664c1a24de2af6c33b22bdcc6672d6fff552ab294b79c98a17e0cd20ceea9b9c",
                    "uncleHash": "0x1dcc4de8dec75d7aab85b567b6ccd41ad312451b948a7413f0a142fd40d49347",
                    "coinbase": "0x2adc25665018aa1fe0e6bc666dac8fc2697ff9ba",
                    "stateRoot": "0x69bb658a5cf0fd0f657f2adf6a8131d8147d49aa7842a799d92e437031284743",
                    "transactionsTrie": "0x1f3581f26a0e6593c47b5d11210be45819176d1d04794911c1715d4840ab4875",
                    "receiptTrie": "0xc117ad0158b04d4277c8a0d1b440360bf3f011ad7caccf8740df472c96e8f5cc",
                    "bloom": "0x00000000000000000000000000000000000000000000000000000000000000000000000000000000000000000000000000000000000000000000000000000000000000000000000000000000000000000000000000000000000000000000000000000000000000000000000000000000000000000000000000000000000000000000000000000000000000000000000000000000000000000000000000000000000000000000000000000000000000000000000000000000000000000000000000000000000000000000000000000000000000000000000000000000000000000000000000000000000000000000000000000000000000000000000000000000",
                    "difficulty": "0x00",
                    "number": "0x01",
                    "gasLimit": "0x016345785d8a0000",
                    "gasUsed": "0xa861",
                    "timestamp": "0x0c",
                    "extraData": "0x",
                    "mixHash": "0x0000000000000000000000000000000000000000000000000000000000000000",
                    "nonce": "0x0000000000000000",
                    "baseFeePerGas": "0x07",
                    "withdrawalsRoot": "0x56e81f171bcc55a6ff8345e692c0f86e5b48e01b996cadc001622fb5e363b421",
                    "blobGasUsed": "0x020000",
                    "excessBlobGas": "0x0e0000",
                    "parentBeaconBlockRoot": "0x0000000000000000000000000000000000000000000000000000000000000000",
                    "hash": "0x14919ba24f53e1aa63afc2702bdc3795b9c95015a7fd37abeb7031c74c2732b0"
                },
                "engineNewPayload": {
                    "executionPayload": {
                        "parentHash": "0x664c1a24de2af6c33b22bdcc6672d6fff552ab294b79c98a17e0cd20ceea9b9c",
                        "feeRecipient": "0x2adc25665018aa1fe0e6bc666dac8fc2697ff9ba",
                        "stateRoot": "0x69bb658a5cf0fd0f657f2adf6a8131d8147d49aa7842a799d92e437031284743",
                        "receiptsRoot": "0xc117ad0158b04d4277c8a0d1b440360bf3f011ad7caccf8740df472c96e8f5cc",
                        "logsBloom": "0x00000000000000000000000000000000000000000000000000000000000000000000000000000000000000000000000000000000000000000000000000000000000000000000000000000000000000000000000000000000000000000000000000000000000000000000000000000000000000000000000000000000000000000000000000000000000000000000000000000000000000000000000000000000000000000000000000000000000000000000000000000000000000000000000000000000000000000000000000000000000000000000000000000000000000000000000000000000000000000000000000000000000000000000000000000000",
                        "blockNumber": "0x1",
                        "gasLimit": "0x16345785d8a0000",
                        "gasUsed": "0xa861",
                        "timestamp": "0xc",
                        "extraData": "0x",
                        "prevRandao": "0x0000000000000000000000000000000000000000000000000000000000000000",
                        "baseFeePerGas": "0x7",
                        "blobGasUsed": "0x20000",
                        "excessBlobGas": "0xe0000",
                        "blockHash": "0x14919ba24f53e1aa63afc2702bdc3795b9c95015a7fd37abeb7031c74c2732b0",
                        "transactions": [
                            "0x03f886018080078307a1209400000000000000000000000000000000000001000180c001e1a0010000000000000000000000000000000000000000000000000000000000000001a08633745d9ccae895b1cd9b35473bf2c2f19230b32ebecf93fcf6e98e08868a7fa02df5e81e127ad763e99e70e134ea214d74d47e80787950b1959551c7b61f68ea"
                        ],
                        "withdrawals": []
                    },
                    "expectedBlobVersionedHashes": [
                        "0x0100000000000000000000000000000000000000000000000000000000000000"
                    ],
                    "version": "3",
                    "parentBeaconBlockRoot": "0x0000000000000000000000000000000000000000000000000000000000000000"
                },
                "blocknumber": "1",
                "transactions": [
                    {
                        "type": "0x03",
                        "chainId": "0x01",
                        "nonce": "0x00",
                        "maxPriorityFeePerGas": "0x00",
                        "maxFeePerGas": "0x07",
                        "gasLimit": "0x07a120",
                        "to": "0x0000000000000000000000000000000000000100",
                        "value": "0x01",
                        "data": "0x",
                        "accessList": [],
                        "maxFeePerBlobGas": "0x01",
                        "blobVersionedHashes": [
                            "0x0100000000000000000000000000000000000000000000000000000000000000"
                        ],
                        "v": "0x01",
                        "r": "0x8633745d9ccae895b1cd9b35473bf2c2f19230b32ebecf93fcf6e98e08868a7f",
                        "s": "0x2df5e81e127ad763e99e70e134ea214d74d47e80787950b1959551c7b61f68ea",
                        "sender": "0xa94f5374fce5edbc8e2a8697c15331677e6ebf0b"
                    }
                ],
                "uncleHeaders": [],
                "withdrawals": []
            }
        ],
        "genesisBlockHeader": {
            "parentHash": "0x0000000000000000000000000000000000000000000000000000000000000000",
            "uncleHash": "0x1dcc4de8dec75d7aab85b567b6ccd41ad312451b948a7413f0a142fd40d49347",
            "coinbase": "0x0000000000000000000000000000000000000000",
            "stateRoot": "0x531c3ef3d6a844fb91817381b5bc09b23423018c465b000c2c0b62ef3c26d41a",
            "transactionsTrie": "0x56e81f171bcc55a6ff8345e692c0f86e5b48e01b996cadc001622fb5e363b421",
            "receiptTrie": "0x56e81f171bcc55a6ff8345e692c0f86e5b48e01b996cadc001622fb5e363b421",
            "bloom": "0x00000000000000000000000000000000000000000000000000000000000000000000000000000000000000000000000000000000000000000000000000000000000000000000000000000000000000000000000000000000000000000000000000000000000000000000000000000000000000000000000000000000000000000000000000000000000000000000000000000000000000000000000000000000000000000000000000000000000000000000000000000000000000000000000000000000000000000000000000000000000000000000000000000000000000000000000000000000000000000000000000000000000000000000000000000000",
            "difficulty": "0x00",
            "number": "0x00",
            "gasLimit": "0x016345785d8a0000",
            "gasUsed": "0x00",
            "timestamp": "0x00",
            "extraData": "0x00",
            "mixHash": "0x0000000000000000000000000000000000000000000000000000000000000000",
            "nonce": "0x0000000000000000",
            "baseFeePerGas": "0x07",
            "withdrawalsRoot": "0x56e81f171bcc55a6ff8345e692c0f86e5b48e01b996cadc001622fb5e363b421",
            "blobGasUsed": "0x00",
            "excessBlobGas": "0x140000",
            "parentBeaconBlockRoot": "0x0000000000000000000000000000000000000000000000000000000000000000",
            "hash": "0x664c1a24de2af6c33b22bdcc6672d6fff552ab294b79c98a17e0cd20ceea9b9c"
        },
        "genesisRLP": "0xf90243f9023da00000000000000000000000000000000000000000000000000000000000000000a01dcc4de8dec75d7aab85b567b6ccd41ad312451b948a7413f0a142fd40d49347940000000000000000000000000000000000000000a0531c3ef3d6a844fb91817381b5bc09b23423018c465b000c2c0b62ef3c26d41aa056e81f171bcc55a6ff8345e692c0f86e5b48e01b996cadc001622fb5e363b421a056e81f171bcc55a6ff8345e692c0f86e5b48e01b996cadc001622fb5e363b421b9010000000000000000000000000000000000000000000000000000000000000000000000000000000000000000000000000000000000000000000000000000000000000000000000000000000000000000000000000000000000000000000000000000000000000000000000000000000000000000000000000000000000000000000000000000000000000000000000000000000000000000000000000000000000000000000000000000000000000000000000000000000000000000000000000000000000000000000000000000000000000000000000000000000000000000000000000000000000000000000000000000000000000000000000000000000000808088016345785d8a0000808000a0000000000000000000000000000000000000000000000000000000000000000088000000000000000007a056e81f171bcc55a6ff8345e692c0f86e5b48e01b996cadc001622fb5e363b4218083140000a00000000000000000000000000000000000000000000000000000000000000000c0c0c0",
        "lastblockhash": "0x14919ba24f53e1aa63afc2702bdc3795b9c95015a7fd37abeb7031c74c2732b0",
        "network": "Cancun",
        "pre": {
            "0x0000000000000000000000000000000000000100": {
                "nonce": "0x00",
                "balance": "0x00",
                "code": "0x33600055",
                "storage": {}
            },
            "0xa94f5374fce5edbc8e2a8697c15331677e6ebf0b": {
                "nonce": "0x00",
                "balance": "0x3767e1",
                "code": "0x",
                "storage": {}
            },
            "0xbeac00ddb15f3b6d645c48263dc93862413a222d": {
                "nonce": "0x01",
                "balance": "0x00",
                "code": "0x3373fffffffffffffffffffffffffffffffffffffffe14604457602036146024575f5ffd5b620180005f350680545f35146037575f5ffd5b6201800001545f5260205ff35b6201800042064281555f359062018000015500",
                "storage": {}
            }
        },
        "postState": {
            "0x0000000000000000000000000000000000000100": {
                "nonce": "0x00",
                "balance": "0x01",
                "code": "0x33600055",
                "storage": {
                    "0x00": "0xa94f5374fce5edbc8e2a8697c15331677e6ebf0b"
                }
            },
            "0xa94f5374fce5edbc8e2a8697c15331677e6ebf0b": {
                "nonce": "0x01",
                "balance": "0x30cd39",
                "code": "0x",
                "storage": {}
            },
            "0xbeac00ddb15f3b6d645c48263dc93862413a222d": {
                "nonce": "0x01",
                "balance": "0x00",
                "code": "0x3373fffffffffffffffffffffffffffffffffffffffe14604457602036146024575f5ffd5b620180005f350680545f35146037575f5ffd5b6201800001545f5260205ff35b6201800042064281555f359062018000015500",
                "storage": {
                    "0x0c": "0x0c"
                }
            }
        },
        "sealEngine": "NoProof"
    }
}