{
    "tests/cancun/eip4844_blobs/test_blob_txs.py::test_blob_type_tx_pre_fork[fork_ShanghaiToCancunAtTime15k-blockchain_test-no_blob_tx]": {
        "network": "ShanghaiToCancunAtTime15k",
        "genesisBlockHeader": {
            "parentHash": "0x0000000000000000000000000000000000000000000000000000000000000000",
            "uncleHash": "0x1dcc4de8dec75d7aab85b567b6ccd41ad312451b948a7413f0a142fd40d49347",
            "coinbase": "0x0000000000000000000000000000000000000000",
            "stateRoot": "0x0b9d1a267a43c569ccd0ff306f8e9056d6c75389839d4402bb616de8d0af901e",
            "transactionsTrie": "0x56e81f171bcc55a6ff8345e692c0f86e5b48e01b996cadc001622fb5e363b421",
            "receiptTrie": "0x56e81f171bcc55a6ff8345e692c0f86e5b48e01b996cadc001622fb5e363b421",
            "bloom": "0x00000000000000000000000000000000000000000000000000000000000000000000000000000000000000000000000000000000000000000000000000000000000000000000000000000000000000000000000000000000000000000000000000000000000000000000000000000000000000000000000000000000000000000000000000000000000000000000000000000000000000000000000000000000000000000000000000000000000000000000000000000000000000000000000000000000000000000000000000000000000000000000000000000000000000000000000000000000000000000000000000000000000000000000000000000000",
            "difficulty": "0x00",
            "number": "0x00",
            "gasLimit": "0x016345785d8a0000",
            "gasUsed": "0x00",
            "timestamp": "0x00",
            "extraData": "0x00",
            "mixHash": "0x0000000000000000000000000000000000000000000000000000000000000000",
            "nonce": "0x0000000000000000",
            "baseFeePerGas": "0x07",
            "withdrawalsRoot": "0x56e81f171bcc55a6ff8345e692c0f86e5b48e01b996cadc001622fb5e363b421",
            "hash": "0xe65f8efd00744af00dd2592d0550541cd1e883694df663eead84f129ff2138df"
        },
        "pre": {
            "0x000f3df6d732807ef1319fb7b8bb8522d0beac02": {
                "nonce": "0x01",
                "balance": "0x00",
                "code": "0x3373fffffffffffffffffffffffffffffffffffffffe14604d57602036146024575f5ffd5b5f35801560495762001fff810690815414603c575f5ffd5b62001fff01545f5260205ff35b5f5ffd5b62001fff42064281555f359062001fff015500",
                "storage": {}
            },
            "0xa94f5374fce5edbc8e2a8697c15331677e6ebf0b": {
                "nonce": "0x00",
                "balance": "0x023e39",
                "code": "0x",
                "storage": {}
            }
        },
        "postState": {
            "0x000f3df6d732807ef1319fb7b8bb8522d0beac02": {
                "nonce": "0x01",
                "balance": "0x00",
                "code": "0x3373fffffffffffffffffffffffffffffffffffffffe14604d57602036146024575f5ffd5b5f35801560495762001fff810690815414603c575f5ffd5b62001fff01545f5260205ff35b5f5ffd5b62001fff42064281555f359062001fff015500",
                "storage": {}
            },
            "0xa94f5374fce5edbc8e2a8697c15331677e6ebf0b": {
                "nonce": "0x00",
                "balance": "0x023e39",
                "code": "0x",
                "storage": {}
            }
        },
        "lastblockhash": "0xe65f8efd00744af00dd2592d0550541cd1e883694df663eead84f129ff2138df",
        "genesisRLP": "0xf9021df90217a00000000000000000000000000000000000000000000000000000000000000000a01dcc4de8dec75d7aab85b567b6ccd41ad312451b948a7413f0a142fd40d49347940000000000000000000000000000000000000000a00b9d1a267a43c569ccd0ff306f8e9056d6c75389839d4402bb616de8d0af901ea056e81f171bcc55a6ff8345e692c0f86e5b48e01b996cadc001622fb5e363b421a056e81f171bcc55a6ff8345e692c0f86e5b48e01b996cadc001622fb5e363b421b9010000000000000000000000000000000000000000000000000000000000000000000000000000000000000000000000000000000000000000000000000000000000000000000000000000000000000000000000000000000000000000000000000000000000000000000000000000000000000000000000000000000000000000000000000000000000000000000000000000000000000000000000000000000000000000000000000000000000000000000000000000000000000000000000000000000000000000000000000000000000000000000000000000000000000000000000000000000000000000000000000000000000000000000000000000000000808088016345785d8a0000808000a0000000000000000000000000000000000000000000000000000000000000000088000000000000000007a056e81f171bcc55a6ff8345e692c0f86e5b48e01b996cadc001622fb5e363b421c0c0c0",
        "blocks": [
            {
                "rlp": "0xf90289f90219a0e65f8efd00744af00dd2592d0550541cd1e883694df663eead84f129ff2138dfa01dcc4de8dec75d7aab85b567b6ccd41ad312451b948a7413f0a142fd40d49347942adc25665018aa1fe0e6bc666dac8fc2697ff9baa00b9d1a267a43c569ccd0ff306f8e9056d6c75389839d4402bb616de8d0af901ea0785d245d32bca72a6d02902c870b1756622e2f62b47116b452f8bd25212d7b54a056e81f171bcc55a6ff8345e692c0f86e5b48e01b996cadc001622fb5e363b421b9010000000000000000000000000000000000000000000000000000000000000000000000000000000000000000000000000000000000000000000000000000000000000000000000000000000000000000000000000000000000000000000000000000000000000000000000000000000000000000000000000000000000000000000000000000000000000000000000000000000000000000000000000000000000000000000000000000000000000000000000000000000000000000000000000000000000000000000000000000000000000000000000000000000000000000000000000000000000000000000000000000000000000000000000000000000000800188016345785d8a0000808203e800a0000000000000000000000000000000000000000000000000000000000000000088000000000000000007a056e81f171bcc55a6ff8345e692c0f86e5b48e01b996cadc001622fb5e363b421f869b86703f86401808007825208948a0a19589531694250d570040a0c4b74576919b80180c001c001a07426ee04aab33fa24c2ec46acf22077f6dd214d9736ad9d656d5d02a2314cfc0a0598722a584a72b13506b83a79eaa5c8020f52cc9563489c204a2d79d5b8ff25fc0c0",
                "expectException": "TransactionException.TYPE_3_TX_PRE_FORK|TransactionException.TYPE_3_TX_ZERO_BLOBS",
                "rlp_decoded": {
                    "blockHeader": {
                        "parentHash": "0xe65f8efd00744af00dd2592d0550541cd1e883694df663eead84f129ff2138df",
                        "uncleHash": "0x1dcc4de8dec75d7aab85b567b6ccd41ad312451b948a7413f0a142fd40d49347",
                        "coinbase": "0x2adc25665018aa1fe0e6bc666dac8fc2697ff9ba",
                        "stateRoot": "0x0b9d1a267a43c569ccd0ff306f8e9056d6c75389839d4402bb616de8d0af901e",
                        "transactionsTrie": "0x785d245d32bca72a6d02902c870b1756622e2f62b47116b452f8bd25212d7b54",
                        "receiptTrie": "0x56e81f171bcc55a6ff8345e692c0f86e5b48e01b996cadc001622fb5e363b421",
                        "bloom": "0x00000000000000000000000000000000000000000000000000000000000000000000000000000000000000000000000000000000000000000000000000000000000000000000000000000000000000000000000000000000000000000000000000000000000000000000000000000000000000000000000000000000000000000000000000000000000000000000000000000000000000000000000000000000000000000000000000000000000000000000000000000000000000000000000000000000000000000000000000000000000000000000000000000000000000000000000000000000000000000000000000000000000000000000000000000000",
                        "difficulty": "0x00",
                        "number": "0x01",
                        "gasLimit": "0x016345785d8a0000",
                        "gasUsed": "0x00",
                        "timestamp": "0x03e8",
                        "extraData": "0x00",
                        "mixHash": "0x0000000000000000000000000000000000000000000000000000000000000000",
                        "nonce": "0x0000000000000000",
                        "baseFeePerGas": "0x07",
                        "withdrawalsRoot": "0x56e81f171bcc55a6ff8345e692c0f86e5b48e01b996cadc001622fb5e363b421",
                        "hash": "0xd30cfdc8243d23b5b419887b821f002daf0fdcb728e116e131978c97323459e8"
                    },
                    "transactions": [
                        {
                            "type": "0x03",
                            "chainId": "0x01",
                            "nonce": "0x00",
                            "maxPriorityFeePerGas": "0x00",
                            "maxFeePerGas": "0x07",
                            "gasLimit": "0x5208",
                            "to": "0x8a0a19589531694250d570040a0c4b74576919b8",
                            "value": "0x01",
                            "data": "0x",
                            "accessList": [],
                            "maxFeePerBlobGas": "0x01",
                            "blobVersionedHashes": [],
                            "v": "0x01",
                            "r": "0x7426ee04aab33fa24c2ec46acf22077f6dd214d9736ad9d656d5d02a2314cfc0",
                            "s": "0x598722a584a72b13506b83a79eaa5c8020f52cc9563489c204a2d79d5b8ff25f",
                            "sender": "0xa94f5374fce5edbc8e2a8697c15331677e6ebf0b"
                        }
                    ],
                    "uncleHeaders": [],
                    "withdrawals": [],
                    "blocknumber": "1"
                }
            }
        ],
        "sealEngine": "NoProof",
        "_info": {
            "hash": "0x8adca9d31facb163d964f78a99504db48b1fba39d56c0c195e2991317239758d",
            "comment": "`execution-spec-tests` generated test",
            "filling-transition-tool": "evm version 1.14.12-unstable-e100dcf1-20241017",
            "description": "Test function documentation:\n\n    Reject blocks with blob type transactions before Cancun fork.\n\n    Blocks sent by NewPayloadV2 (Shanghai) that contain blob type transactions, furthermore blobs\n    field within NewPayloadV2 method must be computed as INVALID, due to an invalid block hash.",
            "url": "https://github.com/ethereum/execution-spec-tests/blob/pectra-devnet-4@v1.0.1/tests/cancun/eip4844_blobs/test_blob_txs.py#L1474",
            "reference-spec": "https://github.com/ethereum/EIPs/blob/master/EIPS/eip-4844.md",
            "reference-spec-version": "f0eb6a364aaf5ccb43516fa2c269a54fb881ecfd"
        }
    },
    "tests/cancun/eip4844_blobs/test_blob_txs.py::test_blob_type_tx_pre_fork[fork_ShanghaiToCancunAtTime15k-blockchain_test-one_blob_tx]": {
        "network": "ShanghaiToCancunAtTime15k",
        "genesisBlockHeader": {
            "parentHash": "0x0000000000000000000000000000000000000000000000000000000000000000",
            "uncleHash": "0x1dcc4de8dec75d7aab85b567b6ccd41ad312451b948a7413f0a142fd40d49347",
            "coinbase": "0x0000000000000000000000000000000000000000",
            "stateRoot": "0x7fab0d9bb5daf1b7c053b0c3b218fedef9522118a58e8f067965f20c9626f139",
            "transactionsTrie": "0x56e81f171bcc55a6ff8345e692c0f86e5b48e01b996cadc001622fb5e363b421",
            "receiptTrie": "0x56e81f171bcc55a6ff8345e692c0f86e5b48e01b996cadc001622fb5e363b421",
            "bloom": "0x00000000000000000000000000000000000000000000000000000000000000000000000000000000000000000000000000000000000000000000000000000000000000000000000000000000000000000000000000000000000000000000000000000000000000000000000000000000000000000000000000000000000000000000000000000000000000000000000000000000000000000000000000000000000000000000000000000000000000000000000000000000000000000000000000000000000000000000000000000000000000000000000000000000000000000000000000000000000000000000000000000000000000000000000000000000",
            "difficulty": "0x00",
            "number": "0x00",
            "gasLimit": "0x016345785d8a0000",
            "gasUsed": "0x00",
            "timestamp": "0x00",
            "extraData": "0x00",
            "mixHash": "0x0000000000000000000000000000000000000000000000000000000000000000",
            "nonce": "0x0000000000000000",
            "baseFeePerGas": "0x07",
            "withdrawalsRoot": "0x56e81f171bcc55a6ff8345e692c0f86e5b48e01b996cadc001622fb5e363b421",
            "hash": "0x93ba1d150a1d1016c13e30e068f95a491288910b7688ac42aa2805f4fac05f20"
        },
        "pre": {
            "0x000f3df6d732807ef1319fb7b8bb8522d0beac02": {
                "nonce": "0x01",
                "balance": "0x00",
                "code": "0x3373fffffffffffffffffffffffffffffffffffffffe14604d57602036146024575f5ffd5b5f35801560495762001fff810690815414603c575f5ffd5b62001fff01545f5260205ff35b5f5ffd5b62001fff42064281555f359062001fff015500",
                "storage": {}
            },
            "0xa94f5374fce5edbc8e2a8697c15331677e6ebf0b": {
                "nonce": "0x00",
                "balance": "0x043e39",
                "code": "0x",
                "storage": {}
            }
        },
        "postState": {
            "0x000f3df6d732807ef1319fb7b8bb8522d0beac02": {
                "nonce": "0x01",
                "balance": "0x00",
                "code": "0x3373fffffffffffffffffffffffffffffffffffffffe14604d57602036146024575f5ffd5b5f35801560495762001fff810690815414603c575f5ffd5b62001fff01545f5260205ff35b5f5ffd5b62001fff42064281555f359062001fff015500",
                "storage": {}
            },
            "0xa94f5374fce5edbc8e2a8697c15331677e6ebf0b": {
                "nonce": "0x00",
                "balance": "0x043e39",
                "code": "0x",
                "storage": {}
            }
        },
        "lastblockhash": "0x93ba1d150a1d1016c13e30e068f95a491288910b7688ac42aa2805f4fac05f20",
        "genesisRLP": "0xf9021df90217a00000000000000000000000000000000000000000000000000000000000000000a01dcc4de8dec75d7aab85b567b6ccd41ad312451b948a7413f0a142fd40d49347940000000000000000000000000000000000000000a07fab0d9bb5daf1b7c053b0c3b218fedef9522118a58e8f067965f20c9626f139a056e81f171bcc55a6ff8345e692c0f86e5b48e01b996cadc001622fb5e363b421a056e81f171bcc55a6ff8345e692c0f86e5b48e01b996cadc001622fb5e363b421b9010000000000000000000000000000000000000000000000000000000000000000000000000000000000000000000000000000000000000000000000000000000000000000000000000000000000000000000000000000000000000000000000000000000000000000000000000000000000000000000000000000000000000000000000000000000000000000000000000000000000000000000000000000000000000000000000000000000000000000000000000000000000000000000000000000000000000000000000000000000000000000000000000000000000000000000000000000000000000000000000000000000000000000000000000000000000808088016345785d8a0000808000a0000000000000000000000000000000000000000000000000000000000000000088000000000000000007a056e81f171bcc55a6ff8345e692c0f86e5b48e01b996cadc001622fb5e363b421c0c0c0",
        "blocks": [
            {
                "rlp": "0xf902aaf90219a093ba1d150a1d1016c13e30e068f95a491288910b7688ac42aa2805f4fac05f20a01dcc4de8dec75d7aab85b567b6ccd41ad312451b948a7413f0a142fd40d49347942adc25665018aa1fe0e6bc666dac8fc2697ff9baa07fab0d9bb5daf1b7c053b0c3b218fedef9522118a58e8f067965f20c9626f139a02a76afdfa881146278980398e5126b0ad060e0d83c40a6bd598ea8ac1ac7c6f4a056e81f171bcc55a6ff8345e692c0f86e5b48e01b996cadc001622fb5e363b421b9010000000000000000000000000000000000000000000000000000000000000000000000000000000000000000000000000000000000000000000000000000000000000000000000000000000000000000000000000000000000000000000000000000000000000000000000000000000000000000000000000000000000000000000000000000000000000000000000000000000000000000000000000000000000000000000000000000000000000000000000000000000000000000000000000000000000000000000000000000000000000000000000000000000000000000000000000000000000000000000000000000000000000000000000000000000000800188016345785d8a0000808203e800a0000000000000000000000000000000000000000000000000000000000000000088000000000000000007a056e81f171bcc55a6ff8345e692c0f86e5b48e01b996cadc001622fb5e363b421f88ab88803f88501808007825208948a0a19589531694250d570040a0c4b74576919b80180c001e1a0010000000000000000000000000000000000000000000000000000000000000001a06c120e55aeb31122c5caad29e69d28ec90abb71e089e0cdf4aebbf51bbc46a89a067983552dabf029ffb7ac58209a620d4a98eeeaf3df55bc9eb8e7684051ac70ac0c0",
                "expectException": "TransactionException.TYPE_3_TX_PRE_FORK",
                "rlp_decoded": {
                    "blockHeader": {
                        "parentHash": "0x93ba1d150a1d1016c13e30e068f95a491288910b7688ac42aa2805f4fac05f20",
                        "uncleHash": "0x1dcc4de8dec75d7aab85b567b6ccd41ad312451b948a7413f0a142fd40d49347",
                        "coinbase": "0x2adc25665018aa1fe0e6bc666dac8fc2697ff9ba",
                        "stateRoot": "0x7fab0d9bb5daf1b7c053b0c3b218fedef9522118a58e8f067965f20c9626f139",
                        "transactionsTrie": "0x2a76afdfa881146278980398e5126b0ad060e0d83c40a6bd598ea8ac1ac7c6f4",
                        "receiptTrie": "0x56e81f171bcc55a6ff8345e692c0f86e5b48e01b996cadc001622fb5e363b421",
                        "bloom": "0x00000000000000000000000000000000000000000000000000000000000000000000000000000000000000000000000000000000000000000000000000000000000000000000000000000000000000000000000000000000000000000000000000000000000000000000000000000000000000000000000000000000000000000000000000000000000000000000000000000000000000000000000000000000000000000000000000000000000000000000000000000000000000000000000000000000000000000000000000000000000000000000000000000000000000000000000000000000000000000000000000000000000000000000000000000000",
                        "difficulty": "0x00",
                        "number": "0x01",
                        "gasLimit": "0x016345785d8a0000",
                        "gasUsed": "0x00",
                        "timestamp": "0x03e8",
                        "extraData": "0x00",
                        "mixHash": "0x0000000000000000000000000000000000000000000000000000000000000000",
                        "nonce": "0x0000000000000000",
                        "baseFeePerGas": "0x07",
                        "withdrawalsRoot": "0x56e81f171bcc55a6ff8345e692c0f86e5b48e01b996cadc001622fb5e363b421",
                        "hash": "0x0b45e7712a369086e567609071f19866cba8d29b49b4b2a476311986530788d4"
                    },
                    "transactions": [
                        {
                            "type": "0x03",
                            "chainId": "0x01",
                            "nonce": "0x00",
                            "maxPriorityFeePerGas": "0x00",
                            "maxFeePerGas": "0x07",
                            "gasLimit": "0x5208",
                            "to": "0x8a0a19589531694250d570040a0c4b74576919b8",
                            "value": "0x01",
                            "data": "0x",
                            "accessList": [],
                            "maxFeePerBlobGas": "0x01",
                            "blobVersionedHashes": [
                                "0x0100000000000000000000000000000000000000000000000000000000000000"
                            ],
                            "v": "0x01",
                            "r": "0x6c120e55aeb31122c5caad29e69d28ec90abb71e089e0cdf4aebbf51bbc46a89",
                            "s": "0x67983552dabf029ffb7ac58209a620d4a98eeeaf3df55bc9eb8e7684051ac70a",
                            "sender": "0xa94f5374fce5edbc8e2a8697c15331677e6ebf0b"
                        }
                    ],
                    "uncleHeaders": [],
                    "withdrawals": [],
                    "blocknumber": "1"
                }
            }
        ],
        "sealEngine": "NoProof",
        "_info": {
            "hash": "0xc68d4593ff829a7d259fb7eeb130dbbb1de7b8616fbc39b80071b8dde6eaef54",
            "comment": "`execution-spec-tests` generated test",
            "filling-transition-tool": "evm version 1.14.12-unstable-e100dcf1-20241017",
            "description": "Test function documentation:\n\n    Reject blocks with blob type transactions before Cancun fork.\n\n    Blocks sent by NewPayloadV2 (Shanghai) that contain blob type transactions, furthermore blobs\n    field within NewPayloadV2 method must be computed as INVALID, due to an invalid block hash.",
            "url": "https://github.com/ethereum/execution-spec-tests/blob/pectra-devnet-4@v1.0.1/tests/cancun/eip4844_blobs/test_blob_txs.py#L1474",
            "reference-spec": "https://github.com/ethereum/EIPs/blob/master/EIPS/eip-4844.md",
            "reference-spec-version": "f0eb6a364aaf5ccb43516fa2c269a54fb881ecfd"
        }
    }
}