{
    "000-fork=Cancun-tx_gas=500000-tx_value=0-opcode=CALLVALUE": {
        "_info": {
            "filling-transition-tool": "evm version 1.13.0-unstable-b1a1675c-20230912",
            "reference-spec": "https://github.com/ethereum/EIPs/blob/master/EIPS/eip-4844.md",
            "reference-spec-version": "f0eb6a364aaf5ccb43516fa2c269a54fb881ecfd"
        },
        "blocks": [
            {
                "rlp": "0xf902d4f90242a0a231fc0068c525f2a8eeaac7143481e62ad48107d0a4179e6967e9b730ff6f5aa01dcc4de8dec75d7aab85b567b6ccd41ad312451b948a7413f0a142fd40d49347942adc25665018aa1fe0e6bc666dac8fc2697ff9baa06d4876b45026ac30f7d7dd0fd0ae6902ac4c420fc0103d35eed371debf7eb7e0a0bb2cffa38bfd056adba0d57c51ebb4209b72466b420bcda2f37a3c64af416f00a0177fa2fb1e9167ed2b44e478ba54b39da40523cc985950390a475b658986a486b9010000000000000000000000000000000000000000000000000000000000000000000000000000000000000000000000000000000000000000000000000000000000000000000000000000000000000000000000000000000000000000000000000000000000000000000000000000000000000000000000000000000000000000000000000000000000000000000000000000000000000000000000000000000000000000000000000000000000000000000000000000000000000000000000000000000000000000000000000000000000000000000000000000000000000000000000000000000000000000000000000000000000000000000000000000000000800188016345785d8a0000825aa50c80a0000000000000000000000000000000000000000000000000000000000000000088000000000000000007a056e81f171bcc55a6ff8345e692c0f86e5b48e01b996cadc001622fb5e363b42183020000830e0000a00000000000000000000000000000000000000000000000000000000000000000f88bb88903f886018080078307a1209400000000000000000000000000000000000001008080c001e1a0010000000000000000000000000000000000000000000000000000000000000080a0c9ecbba09318c0290d46d52dffbd618575b9c58874834002db289b12eb0d813ba035bbbf21d42d4c26df8415201526a3852d5c08bf6268f008d1cb09353bb0a231c0c0",
                "blockHeader": {
                    "parentHash": "0xa231fc0068c525f2a8eeaac7143481e62ad48107d0a4179e6967e9b730ff6f5a",
                    "uncleHash": "0x1dcc4de8dec75d7aab85b567b6ccd41ad312451b948a7413f0a142fd40d49347",
                    "coinbase": "0x2adc25665018aa1fe0e6bc666dac8fc2697ff9ba",
                    "stateRoot": "0x6d4876b45026ac30f7d7dd0fd0ae6902ac4c420fc0103d35eed371debf7eb7e0",
                    "transactionsTrie": "0xbb2cffa38bfd056adba0d57c51ebb4209b72466b420bcda2f37a3c64af416f00",
                    "receiptTrie": "0x177fa2fb1e9167ed2b44e478ba54b39da40523cc985950390a475b658986a486",
                    "bloom": "0x00000000000000000000000000000000000000000000000000000000000000000000000000000000000000000000000000000000000000000000000000000000000000000000000000000000000000000000000000000000000000000000000000000000000000000000000000000000000000000000000000000000000000000000000000000000000000000000000000000000000000000000000000000000000000000000000000000000000000000000000000000000000000000000000000000000000000000000000000000000000000000000000000000000000000000000000000000000000000000000000000000000000000000000000000000000",
                    "difficulty": "0x00",
                    "number": "0x01",
                    "gasLimit": "0x016345785d8a0000",
                    "gasUsed": "0x5aa5",
                    "timestamp": "0x0c",
                    "extraData": "0x",
                    "mixHash": "0x0000000000000000000000000000000000000000000000000000000000000000",
                    "nonce": "0x0000000000000000",
                    "baseFeePerGas": "0x07",
                    "withdrawalsRoot": "0x56e81f171bcc55a6ff8345e692c0f86e5b48e01b996cadc001622fb5e363b421",
                    "blobGasUsed": "0x020000",
                    "excessBlobGas": "0x0e0000",
                    "parentBeaconBlockRoot": "0x0000000000000000000000000000000000000000000000000000000000000000",
                    "hash": "0x9392a01873957a5f4100aabab23e57468279a390b19d6fe0eb8083da618fcba4"
                },
                "engineNewPayload": {
                    "executionPayload": {
                        "parentHash": "0xa231fc0068c525f2a8eeaac7143481e62ad48107d0a4179e6967e9b730ff6f5a",
                        "feeRecipient": "0x2adc25665018aa1fe0e6bc666dac8fc2697ff9ba",
                        "stateRoot": "0x6d4876b45026ac30f7d7dd0fd0ae6902ac4c420fc0103d35eed371debf7eb7e0",
                        "receiptsRoot": "0x177fa2fb1e9167ed2b44e478ba54b39da40523cc985950390a475b658986a486",
                        "logsBloom": "0x00000000000000000000000000000000000000000000000000000000000000000000000000000000000000000000000000000000000000000000000000000000000000000000000000000000000000000000000000000000000000000000000000000000000000000000000000000000000000000000000000000000000000000000000000000000000000000000000000000000000000000000000000000000000000000000000000000000000000000000000000000000000000000000000000000000000000000000000000000000000000000000000000000000000000000000000000000000000000000000000000000000000000000000000000000000",
                        "blockNumber": "0x1",
                        "gasLimit": "0x16345785d8a0000",
                        "gasUsed": "0x5aa5",
                        "timestamp": "0xc",
                        "extraData": "0x",
                        "prevRandao": "0x0000000000000000000000000000000000000000000000000000000000000000",
                        "baseFeePerGas": "0x7",
                        "blobGasUsed": "0x20000",
                        "excessBlobGas": "0xe0000",
                        "blockHash": "0x9392a01873957a5f4100aabab23e57468279a390b19d6fe0eb8083da618fcba4",
                        "transactions": [
                            "0x03f886018080078307a1209400000000000000000000000000000000000001008080c001e1a0010000000000000000000000000000000000000000000000000000000000000080a0c9ecbba09318c0290d46d52dffbd618575b9c58874834002db289b12eb0d813ba035bbbf21d42d4c26df8415201526a3852d5c08bf6268f008d1cb09353bb0a231"
                        ],
                        "withdrawals": []
                    },
                    "expectedBlobVersionedHashes": [
                        "0x0100000000000000000000000000000000000000000000000000000000000000"
                    ],
                    "version": "3",
                    "parentBeaconBlockRoot": "0x0000000000000000000000000000000000000000000000000000000000000000"
                },
                "blocknumber": "1",
                "transactions": [
                    {
                        "type": "0x03",
                        "chainId": "0x01",
                        "nonce": "0x00",
                        "maxPriorityFeePerGas": "0x00",
                        "maxFeePerGas": "0x07",
                        "gasLimit": "0x07a120",
                        "to": "0x0000000000000000000000000000000000000100",
                        "value": "0x00",
                        "data": "0x",
                        "accessList": [],
                        "maxFeePerBlobGas": "0x01",
                        "blobVersionedHashes": [
                            "0x0100000000000000000000000000000000000000000000000000000000000000"
                        ],
                        "v": "0x00",
                        "r": "0xc9ecbba09318c0290d46d52dffbd618575b9c58874834002db289b12eb0d813b",
                        "s": "0x35bbbf21d42d4c26df8415201526a3852d5c08bf6268f008d1cb09353bb0a231",
                        "sender": "0xa94f5374fce5edbc8e2a8697c15331677e6ebf0b"
                    }
                ],
                "uncleHeaders": [],
                "withdrawals": []
            }
        ],
        "genesisBlockHeader": {
            "parentHash": "0x0000000000000000000000000000000000000000000000000000000000000000",
            "uncleHash": "0x1dcc4de8dec75d7aab85b567b6ccd41ad312451b948a7413f0a142fd40d49347",
            "coinbase": "0x0000000000000000000000000000000000000000",
            "stateRoot": "0x38221345bc2e3aea0c6bdca3991a15bb4c7f340f8d9bac39c12c649b0e863052",
            "transactionsTrie": "0x56e81f171bcc55a6ff8345e692c0f86e5b48e01b996cadc001622fb5e363b421",
            "receiptTrie": "0x56e81f171bcc55a6ff8345e692c0f86e5b48e01b996cadc001622fb5e363b421",
            "bloom": "0x00000000000000000000000000000000000000000000000000000000000000000000000000000000000000000000000000000000000000000000000000000000000000000000000000000000000000000000000000000000000000000000000000000000000000000000000000000000000000000000000000000000000000000000000000000000000000000000000000000000000000000000000000000000000000000000000000000000000000000000000000000000000000000000000000000000000000000000000000000000000000000000000000000000000000000000000000000000000000000000000000000000000000000000000000000000",
            "difficulty": "0x00",
            "number": "0x00",
            "gasLimit": "0x016345785d8a0000",
            "gasUsed": "0x00",
            "timestamp": "0x00",
            "extraData": "0x00",
            "mixHash": "0x0000000000000000000000000000000000000000000000000000000000000000",
            "nonce": "0x0000000000000000",
            "baseFeePerGas": "0x07",
            "withdrawalsRoot": "0x56e81f171bcc55a6ff8345e692c0f86e5b48e01b996cadc001622fb5e363b421",
            "blobGasUsed": "0x00",
            "excessBlobGas": "0x140000",
            "parentBeaconBlockRoot": "0x0000000000000000000000000000000000000000000000000000000000000000",
            "hash": "0xa231fc0068c525f2a8eeaac7143481e62ad48107d0a4179e6967e9b730ff6f5a"
        },
        "genesisRLP": "0xf90243f9023da00000000000000000000000000000000000000000000000000000000000000000a01dcc4de8dec75d7aab85b567b6ccd41ad312451b948a7413f0a142fd40d49347940000000000000000000000000000000000000000a038221345bc2e3aea0c6bdca3991a15bb4c7f340f8d9bac39c12c649b0e863052a056e81f171bcc55a6ff8345e692c0f86e5b48e01b996cadc001622fb5e363b421a056e81f171bcc55a6ff8345e692c0f86e5b48e01b996cadc001622fb5e363b421b9010000000000000000000000000000000000000000000000000000000000000000000000000000000000000000000000000000000000000000000000000000000000000000000000000000000000000000000000000000000000000000000000000000000000000000000000000000000000000000000000000000000000000000000000000000000000000000000000000000000000000000000000000000000000000000000000000000000000000000000000000000000000000000000000000000000000000000000000000000000000000000000000000000000000000000000000000000000000000000000000000000000000000000000000000000000000808088016345785d8a0000808000a0000000000000000000000000000000000000000000000000000000000000000088000000000000000007a056e81f171bcc55a6ff8345e692c0f86e5b48e01b996cadc001622fb5e363b4218083140000a00000000000000000000000000000000000000000000000000000000000000000c0c0c0",
        "lastblockhash": "0x9392a01873957a5f4100aabab23e57468279a390b19d6fe0eb8083da618fcba4",
        "network": "Cancun",
        "pre": {
            "0x0000000000000000000000000000000000000100": {
                "nonce": "0x00",
                "balance": "0x00",
                "code": "0x34600055",
                "storage": {}
            },
            "0xa94f5374fce5edbc8e2a8697c15331677e6ebf0b": {
                "nonce": "0x00",
                "balance": "0x3767e0",
                "code": "0x",
                "storage": {}
            },
            "0xbeac00ddb15f3b6d645c48263dc93862413a222d": {
                "nonce": "0x01",
                "balance": "0x00",
                "code": "0x3373fffffffffffffffffffffffffffffffffffffffe14604457602036146024575f5ffd5b620180005f350680545f35146037575f5ffd5b6201800001545f5260205ff35b6201800042064281555f359062018000015500",
                "storage": {}
            }
        },
        "postState": {
            "0x0000000000000000000000000000000000000100": {
                "nonce": "0x00",
                "balance": "0x00",
                "code": "0x34600055",
                "storage": {}
            },
            "0xa94f5374fce5edbc8e2a8697c15331677e6ebf0b": {
                "nonce": "0x01",
                "balance": "0x32ed5d",
                "code": "0x",
                "storage": {}
            },
            "0xbeac00ddb15f3b6d645c48263dc93862413a222d": {
                "nonce": "0x01",
                "balance": "0x00",
                "code": "0x3373fffffffffffffffffffffffffffffffffffffffe14604457602036146024575f5ffd5b620180005f350680545f35146037575f5ffd5b6201800001545f5260205ff35b6201800042064281555f359062018000015500",
                "storage": {
                    "0x0c": "0x0c"
                }
            }
        },
        "sealEngine": "NoProof"
    },
    "001-fork=Cancun-tx_gas=500000-tx_value=1-opcode=CALLVALUE": {
        "_info": {
            "filling-transition-tool": "evm version 1.13.0-unstable-b1a1675c-20230912",
            "reference-spec": "https://github.com/ethereum/EIPs/blob/master/EIPS/eip-4844.md",
            "reference-spec-version": "f0eb6a364aaf5ccb43516fa2c269a54fb881ecfd"
        },
        "blocks": [
            {
                "rlp": "0xf902d4f90242a04dd2c1701116d87bdfc321829411d33cd3cc4db57952ff8079790ca2fe23927ea01dcc4de8dec75d7aab85b567b6ccd41ad312451b948a7413f0a142fd40d49347942adc25665018aa1fe0e6bc666dac8fc2697ff9baa06ff48f9cde4f92561dcda14cdd2357d79d25f99aa5f1d385ecf88ad9b508939ba01f3581f26a0e6593c47b5d11210be45819176d1d04794911c1715d4840ab4875a0c117ad0158b04d4277c8a0d1b440360bf3f011ad7caccf8740df472c96e8f5ccb9010000000000000000000000000000000000000000000000000000000000000000000000000000000000000000000000000000000000000000000000000000000000000000000000000000000000000000000000000000000000000000000000000000000000000000000000000000000000000000000000000000000000000000000000000000000000000000000000000000000000000000000000000000000000000000000000000000000000000000000000000000000000000000000000000000000000000000000000000000000000000000000000000000000000000000000000000000000000000000000000000000000000000000000000000000000000800188016345785d8a000082a8610c80a0000000000000000000000000000000000000000000000000000000000000000088000000000000000007a056e81f171bcc55a6ff8345e692c0f86e5b48e01b996cadc001622fb5e363b42183020000830e0000a00000000000000000000000000000000000000000000000000000000000000000f88bb88903f886018080078307a1209400000000000000000000000000000000000001000180c001e1a0010000000000000000000000000000000000000000000000000000000000000001a08633745d9ccae895b1cd9b35473bf2c2f19230b32ebecf93fcf6e98e08868a7fa02df5e81e127ad763e99e70e134ea214d74d47e80787950b1959551c7b61f68eac0c0",
                "blockHeader": {
                    "parentHash": "0x4dd2c1701116d87bdfc321829411d33cd3cc4db57952ff8079790ca2fe23927e",
                    "uncleHash": "0x1dcc4de8dec75d7aab85b567b6ccd41ad312451b948a7413f0a142fd40d49347",
                    "coinbase": "0x2adc25665018aa1fe0e6bc666dac8fc2697ff9ba",
                    "stateRoot": "0x6ff48f9cde4f92561dcda14cdd2357d79d25f99aa5f1d385ecf88ad9b508939b",
                    "transactionsTrie": "0x1f3581f26a0e6593c47b5d11210be45819176d1d04794911c1715d4840ab4875",
                    "receiptTrie": "0xc117ad0158b04d4277c8a0d1b440360bf3f011ad7caccf8740df472c96e8f5cc",
                    "bloom": "0x00000000000000000000000000000000000000000000000000000000000000000000000000000000000000000000000000000000000000000000000000000000000000000000000000000000000000000000000000000000000000000000000000000000000000000000000000000000000000000000000000000000000000000000000000000000000000000000000000000000000000000000000000000000000000000000000000000000000000000000000000000000000000000000000000000000000000000000000000000000000000000000000000000000000000000000000000000000000000000000000000000000000000000000000000000000",
                    "difficulty": "0x00",
                    "number": "0x01",
                    "gasLimit": "0x016345785d8a0000",
                    "gasUsed": "0xa861",
                    "timestamp": "0x0c",
                    "extraData": "0x",
                    "mixHash": "0x0000000000000000000000000000000000000000000000000000000000000000",
                    "nonce": "0x0000000000000000",
                    "baseFeePerGas": "0x07",
                    "withdrawalsRoot": "0x56e81f171bcc55a6ff8345e692c0f86e5b48e01b996cadc001622fb5e363b421",
                    "blobGasUsed": "0x020000",
                    "excessBlobGas": "0x0e0000",
                    "parentBeaconBlockRoot": "0x0000000000000000000000000000000000000000000000000000000000000000",
                    "hash": "0xabf3c12e814f6b92d855a51d47aa7aee0e9672e8677343e8863dce1e0c64a0aa"
                },
                "engineNewPayload": {
                    "executionPayload": {
                        "parentHash": "0x4dd2c1701116d87bdfc321829411d33cd3cc4db57952ff8079790ca2fe23927e",
                        "feeRecipient": "0x2adc25665018aa1fe0e6bc666dac8fc2697ff9ba",
                        "stateRoot": "0x6ff48f9cde4f92561dcda14cdd2357d79d25f99aa5f1d385ecf88ad9b508939b",
                        "receiptsRoot": "0xc117ad0158b04d4277c8a0d1b440360bf3f011ad7caccf8740df472c96e8f5cc",
                        "logsBloom": "0x00000000000000000000000000000000000000000000000000000000000000000000000000000000000000000000000000000000000000000000000000000000000000000000000000000000000000000000000000000000000000000000000000000000000000000000000000000000000000000000000000000000000000000000000000000000000000000000000000000000000000000000000000000000000000000000000000000000000000000000000000000000000000000000000000000000000000000000000000000000000000000000000000000000000000000000000000000000000000000000000000000000000000000000000000000000",
                        "blockNumber": "0x1",
                        "gasLimit": "0x16345785d8a0000",
                        "gasUsed": "0xa861",
                        "timestamp": "0xc",
                        "extraData": "0x",
                        "prevRandao": "0x0000000000000000000000000000000000000000000000000000000000000000",
                        "baseFeePerGas": "0x7",
                        "blobGasUsed": "0x20000",
                        "excessBlobGas": "0xe0000",
                        "blockHash": "0xabf3c12e814f6b92d855a51d47aa7aee0e9672e8677343e8863dce1e0c64a0aa",
                        "transactions": [
                            "0x03f886018080078307a1209400000000000000000000000000000000000001000180c001e1a0010000000000000000000000000000000000000000000000000000000000000001a08633745d9ccae895b1cd9b35473bf2c2f19230b32ebecf93fcf6e98e08868a7fa02df5e81e127ad763e99e70e134ea214d74d47e80787950b1959551c7b61f68ea"
                        ],
                        "withdrawals": []
                    },
                    "expectedBlobVersionedHashes": [
                        "0x0100000000000000000000000000000000000000000000000000000000000000"
                    ],
                    "version": "3",
                    "parentBeaconBlockRoot": "0x0000000000000000000000000000000000000000000000000000000000000000"
                },
                "blocknumber": "1",
                "transactions": [
                    {
                        "type": "0x03",
                        "chainId": "0x01",
                        "nonce": "0x00",
                        "maxPriorityFeePerGas": "0x00",
                        "maxFeePerGas": "0x07",
                        "gasLimit": "0x07a120",
                        "to": "0x0000000000000000000000000000000000000100",
                        "value": "0x01",
                        "data": "0x",
                        "accessList": [],
                        "maxFeePerBlobGas": "0x01",
                        "blobVersionedHashes": [
                            "0x0100000000000000000000000000000000000000000000000000000000000000"
                        ],
                        "v": "0x01",
                        "r": "0x8633745d9ccae895b1cd9b35473bf2c2f19230b32ebecf93fcf6e98e08868a7f",
                        "s": "0x2df5e81e127ad763e99e70e134ea214d74d47e80787950b1959551c7b61f68ea",
                        "sender": "0xa94f5374fce5edbc8e2a8697c15331677e6ebf0b"
                    }
                ],
                "uncleHeaders": [],
                "withdrawals": []
            }
        ],
        "genesisBlockHeader": {
            "parentHash": "0x0000000000000000000000000000000000000000000000000000000000000000",
            "uncleHash": "0x1dcc4de8dec75d7aab85b567b6ccd41ad312451b948a7413f0a142fd40d49347",
            "coinbase": "0x0000000000000000000000000000000000000000",
            "stateRoot": "0x33f910cd1f75352395a4b072fa4d35fe019a404fe2e088ce9cac8a3903eb36d1",
            "transactionsTrie": "0x56e81f171bcc55a6ff8345e692c0f86e5b48e01b996cadc001622fb5e363b421",
            "receiptTrie": "0x56e81f171bcc55a6ff8345e692c0f86e5b48e01b996cadc001622fb5e363b421",
            "bloom": "0x00000000000000000000000000000000000000000000000000000000000000000000000000000000000000000000000000000000000000000000000000000000000000000000000000000000000000000000000000000000000000000000000000000000000000000000000000000000000000000000000000000000000000000000000000000000000000000000000000000000000000000000000000000000000000000000000000000000000000000000000000000000000000000000000000000000000000000000000000000000000000000000000000000000000000000000000000000000000000000000000000000000000000000000000000000000",
            "difficulty": "0x00",
            "number": "0x00",
            "gasLimit": "0x016345785d8a0000",
            "gasUsed": "0x00",
            "timestamp": "0x00",
            "extraData": "0x00",
            "mixHash": "0x0000000000000000000000000000000000000000000000000000000000000000",
            "nonce": "0x0000000000000000",
            "baseFeePerGas": "0x07",
            "withdrawalsRoot": "0x56e81f171bcc55a6ff8345e692c0f86e5b48e01b996cadc001622fb5e363b421",
            "blobGasUsed": "0x00",
            "excessBlobGas": "0x140000",
            "parentBeaconBlockRoot": "0x0000000000000000000000000000000000000000000000000000000000000000",
            "hash": "0x4dd2c1701116d87bdfc321829411d33cd3cc4db57952ff8079790ca2fe23927e"
        },
        "genesisRLP": "0xf90243f9023da00000000000000000000000000000000000000000000000000000000000000000a01dcc4de8dec75d7aab85b567b6ccd41ad312451b948a7413f0a142fd40d49347940000000000000000000000000000000000000000a033f910cd1f75352395a4b072fa4d35fe019a404fe2e088ce9cac8a3903eb36d1a056e81f171bcc55a6ff8345e692c0f86e5b48e01b996cadc001622fb5e363b421a056e81f171bcc55a6ff8345e692c0f86e5b48e01b996cadc001622fb5e363b421b9010000000000000000000000000000000000000000000000000000000000000000000000000000000000000000000000000000000000000000000000000000000000000000000000000000000000000000000000000000000000000000000000000000000000000000000000000000000000000000000000000000000000000000000000000000000000000000000000000000000000000000000000000000000000000000000000000000000000000000000000000000000000000000000000000000000000000000000000000000000000000000000000000000000000000000000000000000000000000000000000000000000000000000000000000000000000808088016345785d8a0000808000a0000000000000000000000000000000000000000000000000000000000000000088000000000000000007a056e81f171bcc55a6ff8345e692c0f86e5b48e01b996cadc001622fb5e363b4218083140000a00000000000000000000000000000000000000000000000000000000000000000c0c0c0",
        "lastblockhash": "0xabf3c12e814f6b92d855a51d47aa7aee0e9672e8677343e8863dce1e0c64a0aa",
        "network": "Cancun",
        "pre": {
            "0x0000000000000000000000000000000000000100": {
                "nonce": "0x00",
                "balance": "0x00",
                "code": "0x34600055",
                "storage": {}
            },
            "0xa94f5374fce5edbc8e2a8697c15331677e6ebf0b": {
                "nonce": "0x00",
                "balance": "0x3767e1",
                "code": "0x",
                "storage": {}
            },
            "0xbeac00ddb15f3b6d645c48263dc93862413a222d": {
                "nonce": "0x01",
                "balance": "0x00",
                "code": "0x3373fffffffffffffffffffffffffffffffffffffffe14604457602036146024575f5ffd5b620180005f350680545f35146037575f5ffd5b6201800001545f5260205ff35b6201800042064281555f359062018000015500",
                "storage": {}
            }
        },
        "postState": {
            "0x0000000000000000000000000000000000000100": {
                "nonce": "0x00",
                "balance": "0x01",
                "code": "0x34600055",
                "storage": {
                    "0x00": "0x01"
                }
            },
            "0xa94f5374fce5edbc8e2a8697c15331677e6ebf0b": {
                "nonce": "0x01",
                "balance": "0x30cd39",
                "code": "0x",
                "storage": {}
            },
            "0xbeac00ddb15f3b6d645c48263dc93862413a222d": {
                "nonce": "0x01",
                "balance": "0x00",
                "code": "0x3373fffffffffffffffffffffffffffffffffffffffe14604457602036146024575f5ffd5b620180005f350680545f35146037575f5ffd5b6201800001545f5260205ff35b6201800042064281555f359062018000015500",
                "storage": {
                    "0x0c": "0x0c"
                }
            }
        },
        "sealEngine": "NoProof"
    },
    "002-fork=Cancun-tx_gas=500000-tx_value=1000000000000000000-opcode=CALLVALUE": {
        "_info": {
            "filling-transition-tool": "evm version 1.13.0-unstable-b1a1675c-20230912",
            "reference-spec": "https://github.com/ethereum/EIPs/blob/master/EIPS/eip-4844.md",
            "reference-spec-version": "f0eb6a364aaf5ccb43516fa2c269a54fb881ecfd"
        },
        "blocks": [
            {
                "rlp": "0xf902dcf90242a036733439ffed3302cf3db6aa973a11ed51f354996b2370efcdff3ae2a10c0cf2a01dcc4de8dec75d7aab85b567b6ccd41ad312451b948a7413f0a142fd40d49347942adc25665018aa1fe0e6bc666dac8fc2697ff9baa0a464d1afc946e6a062161d7a64c9a406f6c3b45bbc0e89951eaeb60900b911a2a069c34c1377adba6f98b7fc8cbf72dda21743d5c9fab277dda1653cb8184c1e58a0c117ad0158b04d4277c8a0d1b440360bf3f011ad7caccf8740df472c96e8f5ccb9010000000000000000000000000000000000000000000000000000000000000000000000000000000000000000000000000000000000000000000000000000000000000000000000000000000000000000000000000000000000000000000000000000000000000000000000000000000000000000000000000000000000000000000000000000000000000000000000000000000000000000000000000000000000000000000000000000000000000000000000000000000000000000000000000000000000000000000000000000000000000000000000000000000000000000000000000000000000000000000000000000000000000000000000000000000000800188016345785d8a000082a8610c80a0000000000000000000000000000000000000000000000000000000000000000088000000000000000007a056e81f171bcc55a6ff8345e692c0f86e5b48e01b996cadc001622fb5e363b42183020000830e0000a00000000000000000000000000000000000000000000000000000000000000000f893b89103f88e018080078307a120940000000000000000000000000000000000000100880de0b6b3a764000080c001e1a0010000000000000000000000000000000000000000000000000000000000000001a0b3258fd7db8f86bbbfb10baf3505e59c9405e3ad40cef18d5dadc24fdb187947a019be44612fe655f84c941e74e9efdd769ce03bb648fd92ecf2b5167a7a4b10dac0c0",
                "blockHeader": {
                    "parentHash": "0x36733439ffed3302cf3db6aa973a11ed51f354996b2370efcdff3ae2a10c0cf2",
                    "uncleHash": "0x1dcc4de8dec75d7aab85b567b6ccd41ad312451b948a7413f0a142fd40d49347",
                    "coinbase": "0x2adc25665018aa1fe0e6bc666dac8fc2697ff9ba",
                    "stateRoot": "0xa464d1afc946e6a062161d7a64c9a406f6c3b45bbc0e89951eaeb60900b911a2",
                    "transactionsTrie": "0x69c34c1377adba6f98b7fc8cbf72dda21743d5c9fab277dda1653cb8184c1e58",
                    "receiptTrie": "0xc117ad0158b04d4277c8a0d1b440360bf3f011ad7caccf8740df472c96e8f5cc",
                    "bloom": "0x00000000000000000000000000000000000000000000000000000000000000000000000000000000000000000000000000000000000000000000000000000000000000000000000000000000000000000000000000000000000000000000000000000000000000000000000000000000000000000000000000000000000000000000000000000000000000000000000000000000000000000000000000000000000000000000000000000000000000000000000000000000000000000000000000000000000000000000000000000000000000000000000000000000000000000000000000000000000000000000000000000000000000000000000000000000",
                    "difficulty": "0x00",
                    "number": "0x01",
                    "gasLimit": "0x016345785d8a0000",
                    "gasUsed": "0xa861",
                    "timestamp": "0x0c",
                    "extraData": "0x",
                    "mixHash": "0x0000000000000000000000000000000000000000000000000000000000000000",
                    "nonce": "0x0000000000000000",
                    "baseFeePerGas": "0x07",
                    "withdrawalsRoot": "0x56e81f171bcc55a6ff8345e692c0f86e5b48e01b996cadc001622fb5e363b421",
                    "blobGasUsed": "0x020000",
                    "excessBlobGas": "0x0e0000",
                    "parentBeaconBlockRoot": "0x0000000000000000000000000000000000000000000000000000000000000000",
                    "hash": "0x10fd56fd4d4467fba183509bef9991392e54046d1c3d21c8aa8bcd343de5ead3"
                },
                "engineNewPayload": {
                    "executionPayload": {
                        "parentHash": "0x36733439ffed3302cf3db6aa973a11ed51f354996b2370efcdff3ae2a10c0cf2",
                        "feeRecipient": "0x2adc25665018aa1fe0e6bc666dac8fc2697ff9ba",
                        "stateRoot": "0xa464d1afc946e6a062161d7a64c9a406f6c3b45bbc0e89951eaeb60900b911a2",
                        "receiptsRoot": "0xc117ad0158b04d4277c8a0d1b440360bf3f011ad7caccf8740df472c96e8f5cc",
                        "logsBloom": "0x00000000000000000000000000000000000000000000000000000000000000000000000000000000000000000000000000000000000000000000000000000000000000000000000000000000000000000000000000000000000000000000000000000000000000000000000000000000000000000000000000000000000000000000000000000000000000000000000000000000000000000000000000000000000000000000000000000000000000000000000000000000000000000000000000000000000000000000000000000000000000000000000000000000000000000000000000000000000000000000000000000000000000000000000000000000",
                        "blockNumber": "0x1",
                        "gasLimit": "0x16345785d8a0000",
                        "gasUsed": "0xa861",
                        "timestamp": "0xc",
                        "extraData": "0x",
                        "prevRandao": "0x0000000000000000000000000000000000000000000000000000000000000000",
                        "baseFeePerGas": "0x7",
                        "blobGasUsed": "0x20000",
                        "excessBlobGas": "0xe0000",
                        "blockHash": "0x10fd56fd4d4467fba183509bef9991392e54046d1c3d21c8aa8bcd343de5ead3",
                        "transactions": [
                            "0x03f88e018080078307a120940000000000000000000000000000000000000100880de0b6b3a764000080c001e1a0010000000000000000000000000000000000000000000000000000000000000001a0b3258fd7db8f86bbbfb10baf3505e59c9405e3ad40cef18d5dadc24fdb187947a019be44612fe655f84c941e74e9efdd769ce03bb648fd92ecf2b5167a7a4b10da"
                        ],
                        "withdrawals": []
                    },
                    "expectedBlobVersionedHashes": [
                        "0x0100000000000000000000000000000000000000000000000000000000000000"
                    ],
                    "version": "3",
                    "parentBeaconBlockRoot": "0x0000000000000000000000000000000000000000000000000000000000000000"
                },
                "blocknumber": "1",
                "transactions": [
                    {
                        "type": "0x03",
                        "chainId": "0x01",
                        "nonce": "0x00",
                        "maxPriorityFeePerGas": "0x00",
                        "maxFeePerGas": "0x07",
                        "gasLimit": "0x07a120",
                        "to": "0x0000000000000000000000000000000000000100",
                        "value": "0x0de0b6b3a7640000",
                        "data": "0x",
                        "accessList": [],
                        "maxFeePerBlobGas": "0x01",
                        "blobVersionedHashes": [
                            "0x0100000000000000000000000000000000000000000000000000000000000000"
                        ],
                        "v": "0x01",
                        "r": "0xb3258fd7db8f86bbbfb10baf3505e59c9405e3ad40cef18d5dadc24fdb187947",
                        "s": "0x19be44612fe655f84c941e74e9efdd769ce03bb648fd92ecf2b5167a7a4b10da",
                        "sender": "0xa94f5374fce5edbc8e2a8697c15331677e6ebf0b"
                    }
                ],
                "uncleHeaders": [],
                "withdrawals": []
            }
        ],
        "genesisBlockHeader": {
            "parentHash": "0x0000000000000000000000000000000000000000000000000000000000000000",
            "uncleHash": "0x1dcc4de8dec75d7aab85b567b6ccd41ad312451b948a7413f0a142fd40d49347",
            "coinbase": "0x0000000000000000000000000000000000000000",
            "stateRoot": "0xf41a42dd7ce554cde7dec325495b2f31c58969b40f5ddc3309b715e5a2d15a3a",
            "transactionsTrie": "0x56e81f171bcc55a6ff8345e692c0f86e5b48e01b996cadc001622fb5e363b421",
            "receiptTrie": "0x56e81f171bcc55a6ff8345e692c0f86e5b48e01b996cadc001622fb5e363b421",
            "bloom": "0x00000000000000000000000000000000000000000000000000000000000000000000000000000000000000000000000000000000000000000000000000000000000000000000000000000000000000000000000000000000000000000000000000000000000000000000000000000000000000000000000000000000000000000000000000000000000000000000000000000000000000000000000000000000000000000000000000000000000000000000000000000000000000000000000000000000000000000000000000000000000000000000000000000000000000000000000000000000000000000000000000000000000000000000000000000000",
            "difficulty": "0x00",
            "number": "0x00",
            "gasLimit": "0x016345785d8a0000",
            "gasUsed": "0x00",
            "timestamp": "0x00",
            "extraData": "0x00",
            "mixHash": "0x0000000000000000000000000000000000000000000000000000000000000000",
            "nonce": "0x0000000000000000",
            "baseFeePerGas": "0x07",
            "withdrawalsRoot": "0x56e81f171bcc55a6ff8345e692c0f86e5b48e01b996cadc001622fb5e363b421",
            "blobGasUsed": "0x00",
            "excessBlobGas": "0x140000",
            "parentBeaconBlockRoot": "0x0000000000000000000000000000000000000000000000000000000000000000",
            "hash": "0x36733439ffed3302cf3db6aa973a11ed51f354996b2370efcdff3ae2a10c0cf2"
        },
        "genesisRLP": "0xf90243f9023da00000000000000000000000000000000000000000000000000000000000000000a01dcc4de8dec75d7aab85b567b6ccd41ad312451b948a7413f0a142fd40d49347940000000000000000000000000000000000000000a0f41a42dd7ce554cde7dec325495b2f31c58969b40f5ddc3309b715e5a2d15a3aa056e81f171bcc55a6ff8345e692c0f86e5b48e01b996cadc001622fb5e363b421a056e81f171bcc55a6ff8345e692c0f86e5b48e01b996cadc001622fb5e363b421b9010000000000000000000000000000000000000000000000000000000000000000000000000000000000000000000000000000000000000000000000000000000000000000000000000000000000000000000000000000000000000000000000000000000000000000000000000000000000000000000000000000000000000000000000000000000000000000000000000000000000000000000000000000000000000000000000000000000000000000000000000000000000000000000000000000000000000000000000000000000000000000000000000000000000000000000000000000000000000000000000000000000000000000000000000000000000808088016345785d8a0000808000a0000000000000000000000000000000000000000000000000000000000000000088000000000000000007a056e81f171bcc55a6ff8345e692c0f86e5b48e01b996cadc001622fb5e363b4218083140000a00000000000000000000000000000000000000000000000000000000000000000c0c0c0",
        "lastblockhash": "0x10fd56fd4d4467fba183509bef9991392e54046d1c3d21c8aa8bcd343de5ead3",
        "network": "Cancun",
        "pre": {
            "0x0000000000000000000000000000000000000100": {
                "nonce": "0x00",
                "balance": "0x00",
                "code": "0x34600055",
                "storage": {}
            },
            "0xa94f5374fce5edbc8e2a8697c15331677e6ebf0b": {
                "nonce": "0x00",
                "balance": "0x0de0b6b3a79b67e0",
                "code": "0x",
                "storage": {}
            },
            "0xbeac00ddb15f3b6d645c48263dc93862413a222d": {
                "nonce": "0x01",
                "balance": "0x00",
                "code": "0x3373fffffffffffffffffffffffffffffffffffffffe14604457602036146024575f5ffd5b620180005f350680545f35146037575f5ffd5b6201800001545f5260205ff35b6201800042064281555f359062018000015500",
                "storage": {}
            }
        },
        "postState": {
            "0x0000000000000000000000000000000000000100": {
                "nonce": "0x00",
                "balance": "0x0de0b6b3a7640000",
                "code": "0x34600055",
                "storage": {
                    "0x00": "0x0de0b6b3a7640000"
                }
            },
            "0xa94f5374fce5edbc8e2a8697c15331677e6ebf0b": {
                "nonce": "0x01",
                "balance": "0x30cd39",
                "code": "0x",
                "storage": {}
            },
            "0xbeac00ddb15f3b6d645c48263dc93862413a222d": {
                "nonce": "0x01",
                "balance": "0x00",
                "code": "0x3373fffffffffffffffffffffffffffffffffffffffe14604457602036146024575f5ffd5b620180005f350680545f35146037575f5ffd5b6201800001545f5260205ff35b6201800042064281555f359062018000015500",
                "storage": {
                    "0x0c": "0x0c"
                }
            }
        },
        "sealEngine": "NoProof"
    }
}