{
    "tests/prague/eip7692_eof_v1/eip3540_eof_v1/test_execution_function.py::test_eof_functions_contract_call_within_deep_nested[fork_PragueEIP7692-state_test]": {
        "env": {
            "currentCoinbase": "0x2adc25665018aa1fe0e6bc666dac8fc2697ff9ba",
            "currentGasLimit": "0x016345785d8a0000",
            "currentNumber": "0x01",
            "currentTimestamp": "0x03e8",
            "currentRandom": "0x0000000000000000000000000000000000000000000000000000000000000000",
            "currentDifficulty": "0x00",
            "currentBaseFee": "0x07",
            "currentExcessBlobGas": "0x00"
        },
        "pre": {
            "0x0000000000000000000000000000000000001000": {
                "nonce": "0x01",
                "balance": "0x00",
                "code": "0x600160005500",
                "storage": {}
            },
            "0x0000000000000000000000000000000000001100": {
                "nonce": "0x01",
                "balance": "0x00",
                "code": "0xef00010110000204000009000900090009000900090009000900090009000900090009000900090009000900090009000900090009000900090009000900090009000900090009000900090009000900090009000900090009000900090009000900090009000900090009000900090009000900090009000900090009000900090009000900090009000900090009000900090009000900090009000900090009000900090009000900090009000900090009000900090009000900090009000900090009000900090009000900090009000900090009000900090009000900090009000900090009000900090009000900090009000900090009000900090009000900090009000900090009000900090009000900090009000900090009000900090009000900090009000900090009000900090009000900090009000900090009000900090009000900090009000900090009000900090009000900090009000900090009000900090009000900090009000900090009000900090009000900090009000900090009000900090009000900090009000900090009000900090009000900090009000900090009000900090009000900090009000900090009000900090009000900090009000900090009000900090009000900090009000900090009000900090009000900090009000900090009000900090009000900090009000900090009000a000a000a000a000a000a000a000a000a000a000a000a000a000a000a000a000a000a000a000a000a000a000a000a000a000a000a000a000a000a000a000a000a000a000a000a000a000a000a000a000a000a000a000a000a000a000a000a000a000a000a000a000a000a000a000a000a000a000a000a000a000a000a000a000a000a000a000a000a000a000a000a000a000a000a000a000a000a000a000a000a000a000a000a000a000a000a000a000a000a000a000a000a000a000a000a000a000a000a000a000a000a000a000a000a000a000a000a000a000a000a000a000a000a000a000a000a000a000a000a000a000a000a000a000a000a000a000a000a000a000a000a000a000a000a000a000a000a000a000a000a000a000a000a000a000a000a000a000a000a000a000a000a000a000a000a000a000a000a000a000a000a000a000a000a000a000a000a000a000a000a000a000a000a000a000a000a000a000a000a000a000a000a000a000a000a000a000a000a000a000a000a000a000a000a000a000a000a000a000a000a000a000a000a000a000a000a000a000a000a000a000a000a000a000a000a000a000a000a000a000a000a000a000a000a000a000a000a000a000a000a000a000a000a000a000a000a000a000a000a000a000a000a000a000a000a000a000a000a000a000a000a000a000a000a000a000a000a000a000a000a000a000a000a000a000a000a000a000a000a000a000a000a000a000a000a000a000a000a000a000a000a000a000a000a000a000a000a000a000a000a000a000a000a000a000a000a000a000a000a000a000a000a000a000a000a000a000a000a000a000a000a000a000a000a000a000a000a000a000a000a000a000a000a000a000a000a000a000a000a000a000a000a000a000a000a000a000a000a000a000a000a000a000a000a000a000a000a000a000a000a000a000a000a000a000a000a000a000a000a000a000a000a000a000a000a000a000a000a000a000a000a000a000a000a000a000a000a000a000a000a000a000a000a000a000a000a000a000a000a000a000a000a000a000a000a000a000a000a000a000a000a000a000a000a000a000a000a000a000a000a000a000a000a000a000a000a000a000a000a000a000a000a000a000a000a000a000a000a000a000a000a000a000a000a000a000a000a000a000a000a000a000a000a000a000a000a000a000a000a000a000a000a000a000a000a000a000a000a000a000a000a000a000a000a000a000a000a000a000a000a000a000a000a000a000a000a000a000a000a000a000a000a000a000a000a000a000a000a000a000a000a000a000a000a000a000a000a000a000a000a000a000a000a000a000a000a000a000a000a000a000a000a000a000a000a000a000a000a000a000a000a000a000a000a000a000a000a000a000a000a000a000a000a000a000a000a000a000a000a000a000a000a000a000a000a000a000a000a000a000a000a000a000a000a000a000a000a000a000a000a000a000a000a000a000a000a000a000a000a000a000a000a000a000a000a000a000a000a000a000a000a000a000a000a000a000a000a000a000a000a000a000a000a000a000a000a000a000a000a000a000a000a000a000a000a000a000a000a000a000a000a000a000a000a000a000a000a000a000a000a000a000a000a000a000a000a000a000a000a000a000a000a000a000a000a000a000a000a000a000a000a000a000a000a000a000a000a000a000a000a000a000a000a000a000a000a000a000a000a000a000a000a000a000a000a000a000a000a000a000a000a000a000a000a000a000a000a000a000a000a000a000a000a000a000a000a000a000a000a000a000a000a000a000a000a000a000a000a000a000a000a000a000a000a000a000a000a000a000a000a000a000a000a000a000a000a000a000a000a000a000a000a000a000a000a000a000a000a000a000a000a000a000a000a000a000a000a000a000a000a000a000a000a000a000a000a000a000a000a000a000a000a000a000a000a000a000a000a000a000a000a000a000a000a000a000a00100400000000800002000000020000000200000002000000020000000200000002000000020000000200000002000000020000000200000002000000020000000200000002000000020000000200000002000000020000000200000002000000020000000200000002000000020000000200000002000000020000000200000002000000020000000200000002000000020000000200000002000000020000000200000002000000020000000200000002000000020000000200000002000000020000000200000002000000020000000200000002000000020000000200000002000000020000000200000002000000020000000200000002000000020000000200000002000000020000000200000002000000020000000200000002000000020000000200000002000000020000000200000002000000020000000200000002000000020000000200000002000000020000000200000002000000020000000200000002000000020000000200000002000000020000000200000002000000020000000200000002000000020000000200000002000000020000000200000002000000020000000200000002000000020000000200000002000000020000000200000002000000020000000200000002000000020000000200000002000000020000000200000002000000020000000200000002000000020000000200000002000000020000000200000002000000020000000200000002000000020000000200000002000000020000000200000002000000020000000200000002000000020000000200000002000000020000000200000002000000020000000200000002000000020000000200000002000000020000000200000002000000020000000200000002000000020000000200000002000000020000000200000002000000020000000200000002000000020000000200000002000000020000000200000002000000020000000200000002000000020000000200000002000000020000000200000002000000020000000200000002000000020000000200000002000000020000000200000002000000020000000200000002000000020000000200000002000000020000000200000002000000020000000200000002000000020000000200000002000000020000000200000002000000020000000200000002000000020000000200000002000000020000000200000002000000020000000200000002000000020000000200000002000000020000000200000002000000020000000200000002000000020000000200000002000000020000000200000002000000020000000200000002000000020000000200000002000000020000000200000002000000020000000200000002000000020000000200000002000000020000000200000002000000020000000200000002000000020000000200000002000000020000000200000002000000020000000200000002000000020000000200000002000000020000000200000002000000020000000200000002000000020000000200000002000000020000000200000002000000020000000200000002000000020000000200000002000000020000000200000002000000020000000200000002000000020000000200000002000000020000000200000002000000020000000200000002000000020000000200000002000000020000000200000002000000020000000200000002000000020000000200000002000000020000000200000002000000020000000200000002000000020000000200000002000000020000000200000002000000020000000200000002000000020000000200000002000000020000000200000002000000020000000200000002000000020000000200000002000000020000000200000002000000020000000200000002000000020000000200000002000000020000000200000002000000020000000200000002000000020000000200000002000000020000000200000002000000020000000200000002000000020000000200000002000000020000000200000002000000020000000200000002000000020000000200000002000000020000000200000002000000020000000200000002000000020000000200000002000000020000000200000002000000020000000200000002000000020000000200000002000000020000000200000002000000020000000200000002000000020000000200000002000000020000000200000002000000020000000200000002000000020000000200000002000000020000000200000002000000020000000200000002000000020000000200000002000000020000000200000002000000020000000200000002000000020000000200000002000000020000000200000002000000020000000200000002000000020000000200000002000000020000000200000002000000020000000200000002000000020000000200000002000000020000000200000002000000020000000200000002000000020000000200000002000000020000000200000002000000020000000200000002000000020000000200000002000000020000000200000002000000020000000200000002000000020000000200000002000000020000000200000002000000020000000200000002000000020000000200000002000000020000000200000002000000020000000200000002000000020000000200000002000000020000000200000002000000020000000200000002000000020000000200000002000000020000000200000002000000020000000200000002000000020000000200000002000000020000000200000002000000020000000200000002000000020000000200000002000000020000000200000002000000020000000200000002000000020000000200000002000000020000000200000002000000020000000200000002000000020000000200000002000000020000000200000002000000020000000200000002000000020000000200000002000000020000000200000002000000020000000200000002000000020000000200000002000000020000000200000002000000020000000200000002000000020000000200000002000000020000000200000002000000020000000200000002000000020000000200000002000000020000000200000002000000020000000200000002000000020000000200000002000000020000000200000002000000020000000200000002000000020000000200000002000000020000000200000002000000020000000200000002000000020000000200000002000000020000000200000002000000020000000200000002000000020000000200000002000000020000000200000002000000020000000200000002000000020000000200000002000000020000000200000002000000020000000200000002000000020000000200000002000000020000000200000002000000020000000200000002000000020000000200000002000000020000000200000002000000020000000200000002000000020000000200000002000000020000000200000002000000020000000200000002000000020000000200000002000000020000000200000002000000020000000200000002000000020000000200000002000000020000000200000002000000020000000200000002000000020000000200000002000000020000000200000002000000020000000200000002000000020000000200000002000000020000000200000002000000020000000200000002000000020000000200000002000000020000000200000002000000020000000200000002000000020000000200000002000000020000000200000002000000020000000200000002000000020000000200000002000000020000000200000002000000020000000200000002000000020000000200000002000000020000000200000002000000020000000200000002000000020000000200000002000000020000000200000002000000020000000200000002000000020000000200000002000000020000000200000002000000020000000200000002000000020000000200000002000000020000000200000002000000020000000200000002000000020000000200000002000000020000000200000002000000020000000200000002000000020000000200000002000000020000000200000002000000020000000200000002000000020000000200000002000000020000000200000002000000020000000200000002000000020000000200000002000000020000000200000002000000020000000200000002000000020000000200000002000000020000000200000002000000020000000200000002000000020000000200000002000000020000000200000002000000020000000200000002000000020000000200000002000000020000000200000002000000020000000200000002000000020000000200000002000000020000000200000002000000020000000200000002000000020000000200000002000000020000000200000002000000020000000200000002000000020000000200000002000000020000000200000002000000020000000200000002000000020000000200000002000000020000000200000002000000020000000200000002000000020000000200000002000000020000000200000002000000020000000200000002000000020000000200000002000000020000000200000002000000020000000200000002000000020000000200000002000000020000000200000002000000020000000200000002000000020000000200000002000000020000000200000002000000020000000200000002000000020000000200000002000000020000000200000002000000020000000200000002000000020000000200000002000000020000000200000002000000020000000200000002000000020000000200000002000000020000000200000002000000020000000200000002000000020000000200000002000000020000000200000002000000020000000200000002000000020000000200000002000000020000000200000002000000020000000200000002000000020000000200000002000000020000000200000002000000020000000200000002000000020000000200000002000000020000000200000002000000020000000200000002000000020000000200000002000000020000000200000002000000020000000200000002000000020000000200000002000000020000000200000002000000020000000200000002000000020000000200000002000000020000000200000002000000020000000200000002000000020000000200000002000000020000000200000002000000020000000200000002000000020000000200000002000000020000000200000002000000020000000200000002000000020000000200000002000000020000000200000002000000020000000200000002000000020000000200000002000000020000000200000002000000020000000200000002000000020000000200000002000000020000000200000002000000020000000200000004e30001600160005500e300026001600155e4e300036001600255e4e300046001600355e4e300056001600455e4e300066001600555e4e300076001600655e4e300086001600755e4e300096001600855e4e3000a6001600955e4e3000b6001600a55e4e3000c6001600b55e4e3000d6001600c55e4e3000e6001600d55e4e3000f6001600e55e4e300106001600f55e4e300116001601055e4e300126001601155e4e300136001601255e4e300146001601355e4e300156001601455e4e300166001601555e4e300176001601655e4e300186001601755e4e300196001601855e4e3001a6001601955e4e3001b6001601a55e4e3001c6001601b55e4e3001d6001601c55e4e3001e6001601d55e4e3001f6001601e55e4e300206001601f55e4e300216001602055e4e300226001602155e4e300236001602255e4e300246001602355e4e300256001602455e4e300266001602555e4e300276001602655e4e300286001602755e4e300296001602855e4e3002a6001602955e4e3002b6001602a55e4e3002c6001602b55e4e3002d6001602c55e4e3002e6001602d55e4e3002f6001602e55e4e300306001602f55e4e300316001603055e4e300326001603155e4e300336001603255e4e300346001603355e4e300356001603455e4e300366001603555e4e300376001603655e4e300386001603755e4e300396001603855e4e3003a6001603955e4e3003b6001603a55e4e3003c6001603b55e4e3003d6001603c55e4e3003e6001603d55e4e3003f6001603e55e4e300406001603f55e4e300416001604055e4e300426001604155e4e300436001604255e4e300446001604355e4e300456001604455e4e300466001604555e4e300476001604655e4e300486001604755e4e300496001604855e4e3004a6001604955e4e3004b6001604a55e4e3004c6001604b55e4e3004d6001604c55e4e3004e6001604d55e4e3004f6001604e55e4e300506001604f55e4e300516001605055e4e300526001605155e4e300536001605255e4e300546001605355e4e300556001605455e4e300566001605555e4e300576001605655e4e300586001605755e4e300596001605855e4e3005a6001605955e4e3005b6001605a55e4e3005c6001605b55e4e3005d6001605c55e4e3005e6001605d55e4e3005f6001605e55e4e300606001605f55e4e300616001606055e4e300626001606155e4e300636001606255e4e300646001606355e4e300656001606455e4e300666001606555e4e300676001606655e4e300686001606755e4e300696001606855e4e3006a6001606955e4e3006b6001606a55e4e3006c6001606b55e4e3006d6001606c55e4e3006e6001606d55e4e3006f6001606e55e4e300706001606f55e4e300716001607055e4e300726001607155e4e300736001607255e4e300746001607355e4e300756001607455e4e300766001607555e4e300776001607655e4e300786001607755e4e300796001607855e4e3007a6001607955e4e3007b6001607a55e4e3007c6001607b55e4e3007d6001607c55e4e3007e6001607d55e4e3007f6001607e55e4e300806001607f55e4e300816001608055e4e300826001608155e4e300836001608255e4e300846001608355e4e300856001608455e4e300866001608555e4e300876001608655e4e300886001608755e4e300896001608855e4e3008a6001608955e4e3008b6001608a55e4e3008c6001608b55e4e3008d6001608c55e4e3008e6001608d55e4e3008f6001608e55e4e300906001608f55e4e300916001609055e4e300926001609155e4e300936001609255e4e300946001609355e4e300956001609455e4e300966001609555e4e300976001609655e4e300986001609755e4e300996001609855e4e3009a6001609955e4e3009b6001609a55e4e3009c6001609b55e4e3009d6001609c55e4e3009e6001609d55e4e3009f6001609e55e4e300a06001609f55e4e300a1600160a055e4e300a2600160a155e4e300a3600160a255e4e300a4600160a355e4e300a5600160a455e4e300a6600160a555e4e300a7600160a655e4e300a8600160a755e4e300a9600160a855e4e300aa600160a955e4e300ab600160aa55e4e300ac600160ab55e4e300ad600160ac55e4e300ae600160ad55e4e300af600160ae55e4e300b0600160af55e4e300b1600160b055e4e300b2600160b155e4e300b3600160b255e4e300b4600160b355e4e300b5600160b455e4e300b6600160b555e4e300b7600160b655e4e300b8600160b755e4e300b9600160b855e4e300ba600160b955e4e300bb600160ba55e4e300bc600160bb55e4e300bd600160bc55e4e300be600160bd55e4e300bf600160be55e4e300c0600160bf55e4e300c1600160c055e4e300c2600160c155e4e300c3600160c255e4e300c4600160c355e4e300c5600160c455e4e300c6600160c555e4e300c7600160c655e4e300c8600160c755e4e300c9600160c855e4e300ca600160c955e4e300cb600160ca55e4e300cc600160cb55e4e300cd600160cc55e4e300ce600160cd55e4e300cf600160ce55e4e300d0600160cf55e4e300d1600160d055e4e300d2600160d155e4e300d3600160d255e4e300d4600160d355e4e300d5600160d455e4e300d6600160d555e4e300d7600160d655e4e300d8600160d755e4e300d9600160d855e4e300da600160d955e4e300db600160da55e4e300dc600160db55e4e300dd600160dc55e4e300de600160dd55e4e300df600160de55e4e300e0600160df55e4e300e1600160e055e4e300e2600160e155e4e300e3600160e255e4e300e4600160e355e4e300e5600160e455e4e300e6600160e555e4e300e7600160e655e4e300e8600160e755e4e300e9600160e855e4e300ea600160e955e4e300eb600160ea55e4e300ec600160eb55e4e300ed600160ec55e4e300ee600160ed55e4e300ef600160ee55e4e300f0600160ef55e4e300f1600160f055e4e300f2600160f155e4e300f3600160f255e4e300f4600160f355e4e300f5600160f455e4e300f6600160f555e4e300f7600160f655e4e300f8600160f755e4e300f9600160f855e4e300fa600160f955e4e300fb600160fa55e4e300fc600160fb55e4e300fd600160fc55e4e300fe600160fd55e4e300ff600160fe55e4e30100600160ff55e4e30101600161010055e4e30102600161010155e4e30103600161010255e4e30104600161010355e4e30105600161010455e4e30106600161010555e4e30107600161010655e4e30108600161010755e4e30109600161010855e4e3010a600161010955e4e3010b600161010a55e4e3010c600161010b55e4e3010d600161010c55e4e3010e600161010d55e4e3010f600161010e55e4e30110600161010f55e4e30111600161011055e4e30112600161011155e4e30113600161011255e4e30114600161011355e4e30115600161011455e4e30116600161011555e4e30117600161011655e4e30118600161011755e4e30119600161011855e4e3011a600161011955e4e3011b600161011a55e4e3011c600161011b55e4e3011d600161011c55e4e3011e600161011d55e4e3011f600161011e55e4e30120600161011f55e4e30121600161012055e4e30122600161012155e4e30123600161012255e4e30124600161012355e4e30125600161012455e4e30126600161012555e4e30127600161012655e4e30128600161012755e4e30129600161012855e4e3012a600161012955e4e3012b600161012a55e4e3012c600161012b55e4e3012d600161012c55e4e3012e600161012d55e4e3012f600161012e55e4e30130600161012f55e4e30131600161013055e4e30132600161013155e4e30133600161013255e4e30134600161013355e4e30135600161013455e4e30136600161013555e4e30137600161013655e4e30138600161013755e4e30139600161013855e4e3013a600161013955e4e3013b600161013a55e4e3013c600161013b55e4e3013d600161013c55e4e3013e600161013d55e4e3013f600161013e55e4e30140600161013f55e4e30141600161014055e4e30142600161014155e4e30143600161014255e4e30144600161014355e4e30145600161014455e4e30146600161014555e4e30147600161014655e4e30148600161014755e4e30149600161014855e4e3014a600161014955e4e3014b600161014a55e4e3014c600161014b55e4e3014d600161014c55e4e3014e600161014d55e4e3014f600161014e55e4e30150600161014f55e4e30151600161015055e4e30152600161015155e4e30153600161015255e4e30154600161015355e4e30155600161015455e4e30156600161015555e4e30157600161015655e4e30158600161015755e4e30159600161015855e4e3015a600161015955e4e3015b600161015a55e4e3015c600161015b55e4e3015d600161015c55e4e3015e600161015d55e4e3015f600161015e55e4e30160600161015f55e4e30161600161016055e4e30162600161016155e4e30163600161016255e4e30164600161016355e4e30165600161016455e4e30166600161016555e4e30167600161016655e4e30168600161016755e4e30169600161016855e4e3016a600161016955e4e3016b600161016a55e4e3016c600161016b55e4e3016d600161016c55e4e3016e600161016d55e4e3016f600161016e55e4e30170600161016f55e4e30171600161017055e4e30172600161017155e4e30173600161017255e4e30174600161017355e4e30175600161017455e4e30176600161017555e4e30177600161017655e4e30178600161017755e4e30179600161017855e4e3017a600161017955e4e3017b600161017a55e4e3017c600161017b55e4e3017d600161017c55e4e3017e600161017d55e4e3017f600161017e55e4e30180600161017f55e4e30181600161018055e4e30182600161018155e4e30183600161018255e4e30184600161018355e4e30185600161018455e4e30186600161018555e4e30187600161018655e4e30188600161018755e4e30189600161018855e4e3018a600161018955e4e3018b600161018a55e4e3018c600161018b55e4e3018d600161018c55e4e3018e600161018d55e4e3018f600161018e55e4e30190600161018f55e4e30191600161019055e4e30192600161019155e4e30193600161019255e4e30194600161019355e4e30195600161019455e4e30196600161019555e4e30197600161019655e4e30198600161019755e4e30199600161019855e4e3019a600161019955e4e3019b600161019a55e4e3019c600161019b55e4e3019d600161019c55e4e3019e600161019d55e4e3019f600161019e55e4e301a0600161019f55e4e301a160016101a055e4e301a260016101a155e4e301a360016101a255e4e301a460016101a355e4e301a560016101a455e4e301a660016101a555e4e301a760016101a655e4e301a860016101a755e4e301a960016101a855e4e301aa60016101a955e4e301ab60016101aa55e4e301ac60016101ab55e4e301ad60016101ac55e4e301ae60016101ad55e4e301af60016101ae55e4e301b060016101af55e4e301b160016101b055e4e301b260016101b155e4e301b360016101b255e4e301b460016101b355e4e301b560016101b455e4e301b660016101b555e4e301b760016101b655e4e301b860016101b755e4e301b960016101b855e4e301ba60016101b955e4e301bb60016101ba55e4e301bc60016101bb55e4e301bd60016101bc55e4e301be60016101bd55e4e301bf60016101be55e4e301c060016101bf55e4e301c160016101c055e4e301c260016101c155e4e301c360016101c255e4e301c460016101c355e4e301c560016101c455e4e301c660016101c555e4e301c760016101c655e4e301c860016101c755e4e301c960016101c855e4e301ca60016101c955e4e301cb60016101ca55e4e301cc60016101cb55e4e301cd60016101cc55e4e301ce60016101cd55e4e301cf60016101ce55e4e301d060016101cf55e4e301d160016101d055e4e301d260016101d155e4e301d360016101d255e4e301d460016101d355e4e301d560016101d455e4e301d660016101d555e4e301d760016101d655e4e301d860016101d755e4e301d960016101d855e4e301da60016101d955e4e301db60016101da55e4e301dc60016101db55e4e301dd60016101dc55e4e301de60016101dd55e4e301df60016101de55e4e301e060016101df55e4e301e160016101e055e4e301e260016101e155e4e301e360016101e255e4e301e460016101e355e4e301e560016101e455e4e301e660016101e555e4e301e760016101e655e4e301e860016101e755e4e301e960016101e855e4e301ea60016101e955e4e301eb60016101ea55e4e301ec60016101eb55e4e301ed60016101ec55e4e301ee60016101ed55e4e301ef60016101ee55e4e301f060016101ef55e4e301f160016101f055e4e301f260016101f155e4e301f360016101f255e4e301f460016101f355e4e301f560016101f455e4e301f660016101f555e4e301f760016101f655e4e301f860016101f755e4e301f960016101f855e4e301fa60016101f955e4e301fb60016101fa55e4e301fc60016101fb55e4e301fd60016101fc55e4e301fe60016101fd55e4e301ff60016101fe55e4e3020060016101ff55e4e30201600161020055e4e30202600161020155e4e30203600161020255e4e30204600161020355e4e30205600161020455e4e30206600161020555e4e30207600161020655e4e30208600161020755e4e30209600161020855e4e3020a600161020955e4e3020b600161020a55e4e3020c600161020b55e4e3020d600161020c55e4e3020e600161020d55e4e3020f600161020e55e4e30210600161020f55e4e30211600161021055e4e30212600161021155e4e30213600161021255e4e30214600161021355e4e30215600161021455e4e30216600161021555e4e30217600161021655e4e30218600161021755e4e30219600161021855e4e3021a600161021955e4e3021b600161021a55e4e3021c600161021b55e4e3021d600161021c55e4e3021e600161021d55e4e3021f600161021e55e4e30220600161021f55e4e30221600161022055e4e30222600161022155e4e30223600161022255e4e30224600161022355e4e30225600161022455e4e30226600161022555e4e30227600161022655e4e30228600161022755e4e30229600161022855e4e3022a600161022955e4e3022b600161022a55e4e3022c600161022b55e4e3022d600161022c55e4e3022e600161022d55e4e3022f600161022e55e4e30230600161022f55e4e30231600161023055e4e30232600161023155e4e30233600161023255e4e30234600161023355e4e30235600161023455e4e30236600161023555e4e30237600161023655e4e30238600161023755e4e30239600161023855e4e3023a600161023955e4e3023b600161023a55e4e3023c600161023b55e4e3023d600161023c55e4e3023e600161023d55e4e3023f600161023e55e4e30240600161023f55e4e30241600161024055e4e30242600161024155e4e30243600161024255e4e30244600161024355e4e30245600161024455e4e30246600161024555e4e30247600161024655e4e30248600161024755e4e30249600161024855e4e3024a600161024955e4e3024b600161024a55e4e3024c600161024b55e4e3024d600161024c55e4e3024e600161024d55e4e3024f600161024e55e4e30250600161024f55e4e30251600161025055e4e30252600161025155e4e30253600161025255e4e30254600161025355e4e30255600161025455e4e30256600161025555e4e30257600161025655e4e30258600161025755e4e30259600161025855e4e3025a600161025955e4e3025b600161025a55e4e3025c600161025b55e4e3025d600161025c55e4e3025e600161025d55e4e3025f600161025e55e4e30260600161025f55e4e30261600161026055e4e30262600161026155e4e30263600161026255e4e30264600161026355e4e30265600161026455e4e30266600161026555e4e30267600161026655e4e30268600161026755e4e30269600161026855e4e3026a600161026955e4e3026b600161026a55e4e3026c600161026b55e4e3026d600161026c55e4e3026e600161026d55e4e3026f600161026e55e4e30270600161026f55e4e30271600161027055e4e30272600161027155e4e30273600161027255e4e30274600161027355e4e30275600161027455e4e30276600161027555e4e30277600161027655e4e30278600161027755e4e30279600161027855e4e3027a600161027955e4e3027b600161027a55e4e3027c600161027b55e4e3027d600161027c55e4e3027e600161027d55e4e3027f600161027e55e4e30280600161027f55e4e30281600161028055e4e30282600161028155e4e30283600161028255e4e30284600161028355e4e30285600161028455e4e30286600161028555e4e30287600161028655e4e30288600161028755e4e30289600161028855e4e3028a600161028955e4e3028b600161028a55e4e3028c600161028b55e4e3028d600161028c55e4e3028e600161028d55e4e3028f600161028e55e4e30290600161028f55e4e30291600161029055e4e30292600161029155e4e30293600161029255e4e30294600161029355e4e30295600161029455e4e30296600161029555e4e30297600161029655e4e30298600161029755e4e30299600161029855e4e3029a600161029955e4e3029b600161029a55e4e3029c600161029b55e4e3029d600161029c55e4e3029e600161029d55e4e3029f600161029e55e4e302a0600161029f55e4e302a160016102a055e4e302a260016102a155e4e302a360016102a255e4e302a460016102a355e4e302a560016102a455e4e302a660016102a555e4e302a760016102a655e4e302a860016102a755e4e302a960016102a855e4e302aa60016102a955e4e302ab60016102aa55e4e302ac60016102ab55e4e302ad60016102ac55e4e302ae60016102ad55e4e302af60016102ae55e4e302b060016102af55e4e302b160016102b055e4e302b260016102b155e4e302b360016102b255e4e302b460016102b355e4e302b560016102b455e4e302b660016102b555e4e302b760016102b655e4e302b860016102b755e4e302b960016102b855e4e302ba60016102b955e4e302bb60016102ba55e4e302bc60016102bb55e4e302bd60016102bc55e4e302be60016102bd55e4e302bf60016102be55e4e302c060016102bf55e4e302c160016102c055e4e302c260016102c155e4e302c360016102c255e4e302c460016102c355e4e302c560016102c455e4e302c660016102c555e4e302c760016102c655e4e302c860016102c755e4e302c960016102c855e4e302ca60016102c955e4e302cb60016102ca55e4e302cc60016102cb55e4e302cd60016102cc55e4e302ce60016102cd55e4e302cf60016102ce55e4e302d060016102cf55e4e302d160016102d055e4e302d260016102d155e4e302d360016102d255e4e302d460016102d355e4e302d560016102d455e4e302d660016102d555e4e302d760016102d655e4e302d860016102d755e4e302d960016102d855e4e302da60016102d955e4e302db60016102da55e4e302dc60016102db55e4e302dd60016102dc55e4e302de60016102dd55e4e302df60016102de55e4e302e060016102df55e4e302e160016102e055e4e302e260016102e155e4e302e360016102e255e4e302e460016102e355e4e302e560016102e455e4e302e660016102e555e4e302e760016102e655e4e302e860016102e755e4e302e960016102e855e4e302ea60016102e955e4e302eb60016102ea55e4e302ec60016102eb55e4e302ed60016102ec55e4e302ee60016102ed55e4e302ef60016102ee55e4e302f060016102ef55e4e302f160016102f055e4e302f260016102f155e4e302f360016102f255e4e302f460016102f355e4e302f560016102f455e4e302f660016102f555e4e302f760016102f655e4e302f860016102f755e4e302f960016102f855e4e302fa60016102f955e4e302fb60016102fa55e4e302fc60016102fb55e4e302fd60016102fc55e4e302fe60016102fd55e4e302ff60016102fe55e4e3030060016102ff55e4e30301600161030055e4e30302600161030155e4e30303600161030255e4e30304600161030355e4e30305600161030455e4e30306600161030555e4e30307600161030655e4e30308600161030755e4e30309600161030855e4e3030a600161030955e4e3030b600161030a55e4e3030c600161030b55e4e3030d600161030c55e4e3030e600161030d55e4e3030f600161030e55e4e30310600161030f55e4e30311600161031055e4e30312600161031155e4e30313600161031255e4e30314600161031355e4e30315600161031455e4e30316600161031555e4e30317600161031655e4e30318600161031755e4e30319600161031855e4e3031a600161031955e4e3031b600161031a55e4e3031c600161031b55e4e3031d600161031c55e4e3031e600161031d55e4e3031f600161031e55e4e30320600161031f55e4e30321600161032055e4e30322600161032155e4e30323600161032255e4e30324600161032355e4e30325600161032455e4e30326600161032555e4e30327600161032655e4e30328600161032755e4e30329600161032855e4e3032a600161032955e4e3032b600161032a55e4e3032c600161032b55e4e3032d600161032c55e4e3032e600161032d55e4e3032f600161032e55e4e30330600161032f55e4e30331600161033055e4e30332600161033155e4e30333600161033255e4e30334600161033355e4e30335600161033455e4e30336600161033555e4e30337600161033655e4e30338600161033755e4e30339600161033855e4e3033a600161033955e4e3033b600161033a55e4e3033c600161033b55e4e3033d600161033c55e4e3033e600161033d55e4e3033f600161033e55e4e30340600161033f55e4e30341600161034055e4e30342600161034155e4e30343600161034255e4e30344600161034355e4e30345600161034455e4e30346600161034555e4e30347600161034655e4e30348600161034755e4e30349600161034855e4e3034a600161034955e4e3034b600161034a55e4e3034c600161034b55e4e3034d600161034c55e4e3034e600161034d55e4e3034f600161034e55e4e30350600161034f55e4e30351600161035055e4e30352600161035155e4e30353600161035255e4e30354600161035355e4e30355600161035455e4e30356600161035555e4e30357600161035655e4e30358600161035755e4e30359600161035855e4e3035a600161035955e4e3035b600161035a55e4e3035c600161035b55e4e3035d600161035c55e4e3035e600161035d55e4e3035f600161035e55e4e30360600161035f55e4e30361600161036055e4e30362600161036155e4e30363600161036255e4e30364600161036355e4e30365600161036455e4e30366600161036555e4e30367600161036655e4e30368600161036755e4e30369600161036855e4e3036a600161036955e4e3036b600161036a55e4e3036c600161036b55e4e3036d600161036c55e4e3036e600161036d55e4e3036f600161036e55e4e30370600161036f55e4e30371600161037055e4e30372600161037155e4e30373600161037255e4e30374600161037355e4e30375600161037455e4e30376600161037555e4e30377600161037655e4e30378600161037755e4e30379600161037855e4e3037a600161037955e4e3037b600161037a55e4e3037c600161037b55e4e3037d600161037c55e4e3037e600161037d55e4e3037f600161037e55e4e30380600161037f55e4e30381600161038055e4e30382600161038155e4e30383600161038255e4e30384600161038355e4e30385600161038455e4e30386600161038555e4e30387600161038655e4e30388600161038755e4e30389600161038855e4e3038a600161038955e4e3038b600161038a55e4e3038c600161038b55e4e3038d600161038c55e4e3038e600161038d55e4e3038f600161038e55e4e30390600161038f55e4e30391600161039055e4e30392600161039155e4e30393600161039255e4e30394600161039355e4e30395600161039455e4e30396600161039555e4e30397600161039655e4e30398600161039755e4e30399600161039855e4e3039a600161039955e4e3039b600161039a55e4e3039c600161039b55e4e3039d600161039c55e4e3039e600161039d55e4e3039f600161039e55e4e303a0600161039f55e4e303a160016103a055e4e303a260016103a155e4e303a360016103a255e4e303a460016103a355e4e303a560016103a455e4e303a660016103a555e4e303a760016103a655e4e303a860016103a755e4e303a960016103a855e4e303aa60016103a955e4e303ab60016103aa55e4e303ac60016103ab55e4e303ad60016103ac55e4e303ae60016103ad55e4e303af60016103ae55e4e303b060016103af55e4e303b160016103b055e4e303b260016103b155e4e303b360016103b255e4e303b460016103b355e4e303b560016103b455e4e303b660016103b555e4e303b760016103b655e4e303b860016103b755e4e303b960016103b855e4e303ba60016103b955e4e303bb60016103ba55e4e303bc60016103bb55e4e303bd60016103bc55e4e303be60016103bd55e4e303bf60016103be55e4e303c060016103bf55e4e303c160016103c055e4e303c260016103c155e4e303c360016103c255e4e303c460016103c355e4e303c560016103c455e4e303c660016103c555e4e303c760016103c655e4e303c860016103c755e4e303c960016103c855e4e303ca60016103c955e4e303cb60016103ca55e4e303cc60016103cb55e4e303cd60016103cc55e4e303ce60016103cd55e4e303cf60016103ce55e4e303d060016103cf55e4e303d160016103d055e4e303d260016103d155e4e303d360016103d255e4e303d460016103d355e4e303d560016103d455e4e303d660016103d555e4e303d760016103d655e4e303d860016103d755e4e303d960016103d855e4e303da60016103d955e4e303db60016103da55e4e303dc60016103db55e4e303dd60016103dc55e4e303de60016103dd55e4e303df60016103de55e4e303e060016103df55e4e303e160016103e055e4e303e260016103e155e4e303e360016103e255e4e303e460016103e355e4e303e560016103e455e4e303e660016103e555e4e303e760016103e655e4e303e860016103e755e4e303e960016103e855e4e303ea60016103e955e4e303eb60016103ea55e4e303ec60016103eb55e4e303ed60016103ec55e4e303ee60016103ed55e4e303ef60016103ee55e4e303f060016103ef55e4e303f160016103f055e4e303f260016103f155e4e303f360016103f255e4e303f460016103f355e4e303f560016103f455e4e303f660016103f555e4e303f760016103f655e4e303f860016103f755e4e303f960016103f855e4e303fa60016103f955e4e303fb60016103fa55e4e303fc60016103fb55e4e303fd60016103fc55e4e303fe60016103fd55e4e303ff60016103fe55e4600060006000611000f8156103ff55e4",
                "storage": {}
            },
            "0xa94f5374fce5edbc8e2a8697c15331677e6ebf0b": {
                "nonce": "0x00",
                "balance": "0x3635c9adc5dea00000",
                "code": "0x",
                "storage": {}
            }
        },
        "transaction": {
            "nonce": "0x00",
            "gasPrice": "0x0a",
            "gasLimit": [
                "0x02faf080"
            ],
            "to": "0x0000000000000000000000000000000000001100",
            "value": [
                "0x00"
            ],
            "data": [
                "0x"
            ],
            "sender": "0xa94f5374fce5edbc8e2a8697c15331677e6ebf0b",
            "secretKey": "0x45a915e4d060149eb4365960e6a7a45f334393093061116b197e3240065ff2d8"
        },
        "post": {
            "Prague": [
                {
                    "hash": "0x5e94cf42a27c0de450748e81c64b93b1a232be840d5b5fcc7dbe54943f0667c2",
                    "logs": "0x1dcc4de8dec75d7aab85b567b6ccd41ad312451b948a7413f0a142fd40d49347",
                    "txbytes": "0xf861800a8402faf08094000000000000000000000000000000000000110080801ca056c88a6605edb3f99e9e7cc00f610552b178d48d42c0b35ad6fac734c0494f0ca03eeaa85d4f62077ba1752742940c70b52ca3c6cd939d7eaaa4157c45362365be",
                    "indexes": {
                        "data": 0,
                        "gas": 0,
                        "value": 0
                    }
                }
            ]
        },
        "_info": {
            "hash": "0xaaf194367e6cb0acfddc98d527b7aa973a500b4878c0b0970030b9cace43f4b7",
            "comment": "`execution-spec-tests` generated test",
            "filling-transition-tool": "Hyperledger Besu evm 24.9-develop-0d63955",
            "description": "Test function documentation:\n\n    Test performing a call within a nested callf and verify correct behavior of\n    return stack in calling contract.\n\n    TODO: This test belongs in EIP-7069 test folder, not code validation.",
            "url": "https://github.com/ethereum/execution-spec-tests/blob/eip7692@v1.1.1/tests/prague/eip7692_eof_v1/eip3540_eof_v1/test_execution_function.py#L373",
            "reference-spec": "https://github.com/ethereum/EIPs/blob/master/EIPS/eip-4750.md",
            "reference-spec-version": "90f716078d0b08ce508a1e57803f885cc2f2e15e"
        }
    }
}