{
    "000-fork=Cancun-new_blobs=1-parent_excess_blobs=0-parent_blobs=4-header_excess_blob_gas=0-correct:0x20000-header:0x0": {
        "_info": {
            "filling-transition-tool": "evm version 1.13.5-unstable-4d161dee-20231019",
            "reference-spec": "https://github.com/ethereum/EIPs/blob/master/EIPS/eip-4844.md",
            "reference-spec-version": "f0eb6a364aaf5ccb43516fa2c269a54fb881ecfd"
        },
        "network": "Cancun",
        "genesisRLP": "0xf90243f9023da00000000000000000000000000000000000000000000000000000000000000000a01dcc4de8dec75d7aab85b567b6ccd41ad312451b948a7413f0a142fd40d49347940000000000000000000000000000000000000000a0006c7e5144fc8cd13e5316aafabaecb815a400428e03de78d93d03fb797e5078a056e81f171bcc55a6ff8345e692c0f86e5b48e01b996cadc001622fb5e363b421a056e81f171bcc55a6ff8345e692c0f86e5b48e01b996cadc001622fb5e363b421b9010000000000000000000000000000000000000000000000000000000000000000000000000000000000000000000000000000000000000000000000000000000000000000000000000000000000000000000000000000000000000000000000000000000000000000000000000000000000000000000000000000000000000000000000000000000000000000000000000000000000000000000000000000000000000000000000000000000000000000000000000000000000000000000000000000000000000000000000000000000000000000000000000000000000000000000000000000000000000000000000000000000000000000000000000000000000808088016345785d8a0000808000a0000000000000000000000000000000000000000000000000000000000000000088000000000000000007a056e81f171bcc55a6ff8345e692c0f86e5b48e01b996cadc001622fb5e363b4218083060000a00000000000000000000000000000000000000000000000000000000000000000c0c0c0",
        "genesisBlockHeader": {
            "parentHash": "0x0000000000000000000000000000000000000000000000000000000000000000",
            "uncleHash": "0x1dcc4de8dec75d7aab85b567b6ccd41ad312451b948a7413f0a142fd40d49347",
            "coinbase": "0x0000000000000000000000000000000000000000",
            "stateRoot": "0x006c7e5144fc8cd13e5316aafabaecb815a400428e03de78d93d03fb797e5078",
            "transactionsTrie": "0x56e81f171bcc55a6ff8345e692c0f86e5b48e01b996cadc001622fb5e363b421",
            "receiptTrie": "0x56e81f171bcc55a6ff8345e692c0f86e5b48e01b996cadc001622fb5e363b421",
            "bloom": "0x00000000000000000000000000000000000000000000000000000000000000000000000000000000000000000000000000000000000000000000000000000000000000000000000000000000000000000000000000000000000000000000000000000000000000000000000000000000000000000000000000000000000000000000000000000000000000000000000000000000000000000000000000000000000000000000000000000000000000000000000000000000000000000000000000000000000000000000000000000000000000000000000000000000000000000000000000000000000000000000000000000000000000000000000000000000",
            "difficulty": "0x00",
            "number": "0x00",
            "gasLimit": "0x016345785d8a0000",
            "gasUsed": "0x00",
            "timestamp": "0x00",
            "extraData": "0x00",
            "mixHash": "0x0000000000000000000000000000000000000000000000000000000000000000",
            "nonce": "0x0000000000000000",
            "baseFeePerGas": "0x07",
            "withdrawalsRoot": "0x56e81f171bcc55a6ff8345e692c0f86e5b48e01b996cadc001622fb5e363b421",
            "blobGasUsed": "0x00",
            "excessBlobGas": "0x060000",
            "parentBeaconBlockRoot": "0x0000000000000000000000000000000000000000000000000000000000000000",
            "hash": "0x510f1c46aa45b5f4941c2b9038fc55a7d9df6eb18429c5da2b7fe949c959e66a"
        },
        "blocks": [
            {
                "rlp": "0xf90334f9023fa0510f1c46aa45b5f4941c2b9038fc55a7d9df6eb18429c5da2b7fe949c959e66aa01dcc4de8dec75d7aab85b567b6ccd41ad312451b948a7413f0a142fd40d49347942adc25665018aa1fe0e6bc666dac8fc2697ff9baa036d00eb989ec6d69cbe69dfc10b9468c76f07356b81870e9359255911ea14d08a0dc387fc6ef9e3eb53baa85df89a1f9b91a4a9ab472ee7e928b4b7fdc06dfa5d1a0eaa8c40899a61ae59615cf9985f5e2194f8fd2b57d273be63bde6733e89b12abb9010000000000000000000000000000000000000000000000000000000000000000000000000000000000000000000000000000000000000000000000000000000000000000000000000000000000000000000000000000000000000000000000000000000000000000000000000000000000000000000000000000000000000000000000000000000000000000000000000000000000000000000000000000000000000000000000000000000000000000000000000000000000000000000000000000000000000000000000000000000000000000000000000000000000000000000000000000000000000000000000000000000000000000000000000000000000800188016345785d8a00008252080c80a0000000000000000000000000000000000000000000000000000000000000000088000000000000000007a056e81f171bcc55a6ff8345e692c0f86e5b48e01b996cadc001622fb5e363b4218308000080a00000000000000000000000000000000000000000000000000000000000000000f8eeb8ec03f8e9018080078252089400000000000000000000000000000000000002000180c001f884a00100000000000000000000000000000000000000000000000000000000000000a00100000000000000000000000000000000000000000000000000000000000001a00100000000000000000000000000000000000000000000000000000000000002a0010000000000000000000000000000000000000000000000000000000000000301a09d3b9819ff46b57cd1b81d723626c8c7ef3ca97f4d2f964f57fc8516123ad7d7a026e752e7b657042b3ba543dc8a515772819deed8e646634f3625191b51ef448cc0c0",
                "blockHeader": {
                    "parentHash": "0x510f1c46aa45b5f4941c2b9038fc55a7d9df6eb18429c5da2b7fe949c959e66a",
                    "uncleHash": "0x1dcc4de8dec75d7aab85b567b6ccd41ad312451b948a7413f0a142fd40d49347",
                    "coinbase": "0x2adc25665018aa1fe0e6bc666dac8fc2697ff9ba",
                    "stateRoot": "0x36d00eb989ec6d69cbe69dfc10b9468c76f07356b81870e9359255911ea14d08",
                    "transactionsTrie": "0xdc387fc6ef9e3eb53baa85df89a1f9b91a4a9ab472ee7e928b4b7fdc06dfa5d1",
                    "receiptTrie": "0xeaa8c40899a61ae59615cf9985f5e2194f8fd2b57d273be63bde6733e89b12ab",
                    "bloom": "0x00000000000000000000000000000000000000000000000000000000000000000000000000000000000000000000000000000000000000000000000000000000000000000000000000000000000000000000000000000000000000000000000000000000000000000000000000000000000000000000000000000000000000000000000000000000000000000000000000000000000000000000000000000000000000000000000000000000000000000000000000000000000000000000000000000000000000000000000000000000000000000000000000000000000000000000000000000000000000000000000000000000000000000000000000000000",
                    "difficulty": "0x00",
                    "number": "0x01",
                    "gasLimit": "0x016345785d8a0000",
                    "gasUsed": "0x5208",
                    "timestamp": "0x0c",
                    "extraData": "0x",
                    "mixHash": "0x0000000000000000000000000000000000000000000000000000000000000000",
                    "nonce": "0x0000000000000000",
                    "baseFeePerGas": "0x07",
                    "withdrawalsRoot": "0x56e81f171bcc55a6ff8345e692c0f86e5b48e01b996cadc001622fb5e363b421",
                    "blobGasUsed": "0x080000",
                    "excessBlobGas": "0x00",
                    "parentBeaconBlockRoot": "0x0000000000000000000000000000000000000000000000000000000000000000",
                    "hash": "0x105d6a86b391b112ba985b0d66b13af26782284626c970c27e5218229e17dc95"
                },
                "blocknumber": "1",
                "transactions": [
                    {
                        "type": "0x03",
                        "chainId": "0x01",
                        "nonce": "0x00",
                        "maxPriorityFeePerGas": "0x00",
                        "maxFeePerGas": "0x07",
                        "gasLimit": "0x5208",
                        "to": "0x0000000000000000000000000000000000000200",
                        "value": "0x01",
                        "data": "0x",
                        "accessList": [],
                        "maxFeePerBlobGas": "0x01",
                        "blobVersionedHashes": [
                            "0x0100000000000000000000000000000000000000000000000000000000000000",
                            "0x0100000000000000000000000000000000000000000000000000000000000001",
                            "0x0100000000000000000000000000000000000000000000000000000000000002",
                            "0x0100000000000000000000000000000000000000000000000000000000000003"
                        ],
                        "v": "0x01",
                        "r": "0x9d3b9819ff46b57cd1b81d723626c8c7ef3ca97f4d2f964f57fc8516123ad7d7",
                        "s": "0x26e752e7b657042b3ba543dc8a515772819deed8e646634f3625191b51ef448c",
                        "sender": "0x8a0a19589531694250d570040a0c4b74576919b8"
                    }
                ],
                "uncleHeaders": [],
                "withdrawals": []
            },
            {
                "rlp": "0xf902d0f9023fa0105d6a86b391b112ba985b0d66b13af26782284626c970c27e5218229e17dc95a01dcc4de8dec75d7aab85b567b6ccd41ad312451b948a7413f0a142fd40d49347942adc25665018aa1fe0e6bc666dac8fc2697ff9baa0f523a2745cbc153c456247563e070df970d2aa90787765b055dcf5e2b6f83a92a03d0735f4f8cd85f7384e82229ad10f2b7a96e77e52a6f73f19acc673e28074c7a0c117ad0158b04d4277c8a0d1b440360bf3f011ad7caccf8740df472c96e8f5ccb9010000000000000000000000000000000000000000000000000000000000000000000000000000000000000000000000000000000000000000000000000000000000000000000000000000000000000000000000000000000000000000000000000000000000000000000000000000000000000000000000000000000000000000000000000000000000000000000000000000000000000000000000000000000000000000000000000000000000000000000000000000000000000000000000000000000000000000000000000000000000000000000000000000000000000000000000000000000000000000000000000000000000000000000000000000000000800288016345785d8a000082a8611880a0000000000000000000000000000000000000000000000000000000000000000088000000000000000007a056e81f171bcc55a6ff8345e692c0f86e5b48e01b996cadc001622fb5e363b4218302000080a00000000000000000000000000000000000000000000000000000000000000000f88ab88803f8850180800782afc89400000000000000000000000000000000000001000180c001e1a0010000000000000000000000000000000000000000000000000000000000000080a0c75337f6b99a6063d93e16883ac5ca36e2d4c1502e4b56805777ad74aafaa626a07b32c2a3852284ead12962b64a0453d036d36516b5f062162f4710aef0dd731bc0c0",
                "expectException": "invalid excess blob gas",
                "rlp_decoded": {
                    "blockHeader": {
                        "parentHash": "0x105d6a86b391b112ba985b0d66b13af26782284626c970c27e5218229e17dc95",
                        "uncleHash": "0x1dcc4de8dec75d7aab85b567b6ccd41ad312451b948a7413f0a142fd40d49347",
                        "coinbase": "0x2adc25665018aa1fe0e6bc666dac8fc2697ff9ba",
                        "stateRoot": "0xf523a2745cbc153c456247563e070df970d2aa90787765b055dcf5e2b6f83a92",
                        "transactionsTrie": "0x3d0735f4f8cd85f7384e82229ad10f2b7a96e77e52a6f73f19acc673e28074c7",
                        "receiptTrie": "0xc117ad0158b04d4277c8a0d1b440360bf3f011ad7caccf8740df472c96e8f5cc",
                        "bloom": "0x00000000000000000000000000000000000000000000000000000000000000000000000000000000000000000000000000000000000000000000000000000000000000000000000000000000000000000000000000000000000000000000000000000000000000000000000000000000000000000000000000000000000000000000000000000000000000000000000000000000000000000000000000000000000000000000000000000000000000000000000000000000000000000000000000000000000000000000000000000000000000000000000000000000000000000000000000000000000000000000000000000000000000000000000000000000",
                        "difficulty": "0x00",
                        "number": "0x02",
                        "gasLimit": "0x016345785d8a0000",
                        "gasUsed": "0xa861",
                        "timestamp": "0x18",
                        "extraData": "0x",
                        "mixHash": "0x0000000000000000000000000000000000000000000000000000000000000000",
                        "nonce": "0x0000000000000000",
                        "baseFeePerGas": "0x07",
                        "withdrawalsRoot": "0x56e81f171bcc55a6ff8345e692c0f86e5b48e01b996cadc001622fb5e363b421",
                        "blobGasUsed": "0x020000",
                        "excessBlobGas": "0x00",
                        "parentBeaconBlockRoot": "0x0000000000000000000000000000000000000000000000000000000000000000",
                        "hash": "0xff5bb957ccb75a6ed36fc826460614bc26f45f1289a363686a07cb311a441ed1"
                    },
                    "transactions": [
                        {
                            "type": "0x03",
                            "chainId": "0x01",
                            "nonce": "0x00",
                            "maxPriorityFeePerGas": "0x00",
                            "maxFeePerGas": "0x07",
                            "gasLimit": "0xafc8",
                            "to": "0x0000000000000000000000000000000000000100",
                            "value": "0x01",
                            "data": "0x",
                            "accessList": [],
                            "maxFeePerBlobGas": "0x01",
                            "blobVersionedHashes": [
                                "0x0100000000000000000000000000000000000000000000000000000000000000"
                            ],
                            "v": "0x00",
                            "r": "0xc75337f6b99a6063d93e16883ac5ca36e2d4c1502e4b56805777ad74aafaa626",
                            "s": "0x7b32c2a3852284ead12962b64a0453d036d36516b5f062162f4710aef0dd731b",
                            "sender": "0xa94f5374fce5edbc8e2a8697c15331677e6ebf0b"
                        }
                    ],
                    "uncleHeaders": [],
                    "withdrawals": []
                }
            }
        ],
        "lastblockhash": "0x105d6a86b391b112ba985b0d66b13af26782284626c970c27e5218229e17dc95",
        "pre": {
            "0x0000000000000000000000000000000000000100": {
                "nonce": "0x00",
                "balance": "0x00",
                "code": "0x4a600055",
                "storage": {}
            },
            "0x000f3df6d732807ef1319fb7b8bb8522d0beac02": {
                "nonce": "0x01",
                "balance": "0x00",
                "code": "0x3373fffffffffffffffffffffffffffffffffffffffe14604d57602036146024575f5ffd5b5f35801560495762001fff810690815414603c575f5ffd5b62001fff01545f5260205ff35b5f5ffd5b62001fff42064281555f359062001fff015500",
                "storage": {}
            },
            "0x8a0a19589531694250d570040a0c4b74576919b8": {
                "nonce": "0x00",
                "balance": "0x1d6329f1c35ca4bfabb9f5610000000000",
                "code": "0x",
                "storage": {}
            },
            "0xa94f5374fce5edbc8e2a8697c15331677e6ebf0b": {
                "nonce": "0x00",
                "balance": "0x06ce79",
                "code": "0x",
                "storage": {}
            }
        },
        "postState": {
            "0x0000000000000000000000000000000000000100": {
                "nonce": "0x00",
                "balance": "0x00",
                "code": "0x4a600055",
                "storage": {}
            },
            "0x0000000000000000000000000000000000000200": {
                "nonce": "0x00",
                "balance": "0x01",
                "code": "0x",
                "storage": {}
            },
            "0x000f3df6d732807ef1319fb7b8bb8522d0beac02": {
                "nonce": "0x01",
                "balance": "0x00",
                "code": "0x3373fffffffffffffffffffffffffffffffffffffffe14604d57602036146024575f5ffd5b5f35801560495762001fff810690815414603c575f5ffd5b62001fff01545f5260205ff35b5f5ffd5b62001fff42064281555f359062001fff015500",
                "storage": {
                    "0x0c": "0x0c"
                }
            },
            "0x8a0a19589531694250d570040a0c4b74576919b8": {
                "nonce": "0x01",
                "balance": "0x1d6329f1c35ca4bfabb9f560fffff5c1c7",
                "code": "0x",
                "storage": {}
            },
            "0xa94f5374fce5edbc8e2a8697c15331677e6ebf0b": {
                "nonce": "0x00",
                "balance": "0x06ce79",
                "code": "0x",
                "storage": {}
            }
        },
        "sealEngine": "NoProof"
    },
    "001-fork=Cancun-new_blobs=1-parent_excess_blobs=0-parent_blobs=5-header_excess_blob_gas=0-correct:0x40000-header:0x0": {
        "_info": {
            "filling-transition-tool": "evm version 1.13.5-unstable-4d161dee-20231019",
            "reference-spec": "https://github.com/ethereum/EIPs/blob/master/EIPS/eip-4844.md",
            "reference-spec-version": "f0eb6a364aaf5ccb43516fa2c269a54fb881ecfd"
        },
        "network": "Cancun",
        "genesisRLP": "0xf90243f9023da00000000000000000000000000000000000000000000000000000000000000000a01dcc4de8dec75d7aab85b567b6ccd41ad312451b948a7413f0a142fd40d49347940000000000000000000000000000000000000000a0006c7e5144fc8cd13e5316aafabaecb815a400428e03de78d93d03fb797e5078a056e81f171bcc55a6ff8345e692c0f86e5b48e01b996cadc001622fb5e363b421a056e81f171bcc55a6ff8345e692c0f86e5b48e01b996cadc001622fb5e363b421b9010000000000000000000000000000000000000000000000000000000000000000000000000000000000000000000000000000000000000000000000000000000000000000000000000000000000000000000000000000000000000000000000000000000000000000000000000000000000000000000000000000000000000000000000000000000000000000000000000000000000000000000000000000000000000000000000000000000000000000000000000000000000000000000000000000000000000000000000000000000000000000000000000000000000000000000000000000000000000000000000000000000000000000000000000000000000808088016345785d8a0000808000a0000000000000000000000000000000000000000000000000000000000000000088000000000000000007a056e81f171bcc55a6ff8345e692c0f86e5b48e01b996cadc001622fb5e363b4218083060000a00000000000000000000000000000000000000000000000000000000000000000c0c0c0",
        "genesisBlockHeader": {
            "parentHash": "0x0000000000000000000000000000000000000000000000000000000000000000",
            "uncleHash": "0x1dcc4de8dec75d7aab85b567b6ccd41ad312451b948a7413f0a142fd40d49347",
            "coinbase": "0x0000000000000000000000000000000000000000",
            "stateRoot": "0x006c7e5144fc8cd13e5316aafabaecb815a400428e03de78d93d03fb797e5078",
            "transactionsTrie": "0x56e81f171bcc55a6ff8345e692c0f86e5b48e01b996cadc001622fb5e363b421",
            "receiptTrie": "0x56e81f171bcc55a6ff8345e692c0f86e5b48e01b996cadc001622fb5e363b421",
            "bloom": "0x00000000000000000000000000000000000000000000000000000000000000000000000000000000000000000000000000000000000000000000000000000000000000000000000000000000000000000000000000000000000000000000000000000000000000000000000000000000000000000000000000000000000000000000000000000000000000000000000000000000000000000000000000000000000000000000000000000000000000000000000000000000000000000000000000000000000000000000000000000000000000000000000000000000000000000000000000000000000000000000000000000000000000000000000000000000",
            "difficulty": "0x00",
            "number": "0x00",
            "gasLimit": "0x016345785d8a0000",
            "gasUsed": "0x00",
            "timestamp": "0x00",
            "extraData": "0x00",
            "mixHash": "0x0000000000000000000000000000000000000000000000000000000000000000",
            "nonce": "0x0000000000000000",
            "baseFeePerGas": "0x07",
            "withdrawalsRoot": "0x56e81f171bcc55a6ff8345e692c0f86e5b48e01b996cadc001622fb5e363b421",
            "blobGasUsed": "0x00",
            "excessBlobGas": "0x060000",
            "parentBeaconBlockRoot": "0x0000000000000000000000000000000000000000000000000000000000000000",
            "hash": "0x510f1c46aa45b5f4941c2b9038fc55a7d9df6eb18429c5da2b7fe949c959e66a"
        },
        "blocks": [
            {
                "rlp": "0xf90358f9023fa0510f1c46aa45b5f4941c2b9038fc55a7d9df6eb18429c5da2b7fe949c959e66aa01dcc4de8dec75d7aab85b567b6ccd41ad312451b948a7413f0a142fd40d49347942adc25665018aa1fe0e6bc666dac8fc2697ff9baa0d44da1d868ffb4d7ed1d68425969a51622851c75e33ce18598d75df8a5e19fbba0a277f00f202908b89d77a1b675545b95c323ecf347c4fb0f32288a5a592954b1a0eaa8c40899a61ae59615cf9985f5e2194f8fd2b57d273be63bde6733e89b12abb9010000000000000000000000000000000000000000000000000000000000000000000000000000000000000000000000000000000000000000000000000000000000000000000000000000000000000000000000000000000000000000000000000000000000000000000000000000000000000000000000000000000000000000000000000000000000000000000000000000000000000000000000000000000000000000000000000000000000000000000000000000000000000000000000000000000000000000000000000000000000000000000000000000000000000000000000000000000000000000000000000000000000000000000000000000000000800188016345785d8a00008252080c80a0000000000000000000000000000000000000000000000000000000000000000088000000000000000007a056e81f171bcc55a6ff8345e692c0f86e5b48e01b996cadc001622fb5e363b421830a000080a00000000000000000000000000000000000000000000000000000000000000000f90111b9010e03f9010a018080078252089400000000000000000000000000000000000002000180c001f8a5a00100000000000000000000000000000000000000000000000000000000000000a00100000000000000000000000000000000000000000000000000000000000001a00100000000000000000000000000000000000000000000000000000000000002a00100000000000000000000000000000000000000000000000000000000000003a0010000000000000000000000000000000000000000000000000000000000000401a053543ed04d2ab4c5accf113297b9a3a9d1a6af99ea8521874e0e08183af0e936a0754ffbdac9c7d06c5312318d560986cb29a81d435337c1e97b7e39bc8496ece8c0c0",
                "blockHeader": {
                    "parentHash": "0x510f1c46aa45b5f4941c2b9038fc55a7d9df6eb18429c5da2b7fe949c959e66a",
                    "uncleHash": "0x1dcc4de8dec75d7aab85b567b6ccd41ad312451b948a7413f0a142fd40d49347",
                    "coinbase": "0x2adc25665018aa1fe0e6bc666dac8fc2697ff9ba",
                    "stateRoot": "0xd44da1d868ffb4d7ed1d68425969a51622851c75e33ce18598d75df8a5e19fbb",
                    "transactionsTrie": "0xa277f00f202908b89d77a1b675545b95c323ecf347c4fb0f32288a5a592954b1",
                    "receiptTrie": "0xeaa8c40899a61ae59615cf9985f5e2194f8fd2b57d273be63bde6733e89b12ab",
                    "bloom": "0x00000000000000000000000000000000000000000000000000000000000000000000000000000000000000000000000000000000000000000000000000000000000000000000000000000000000000000000000000000000000000000000000000000000000000000000000000000000000000000000000000000000000000000000000000000000000000000000000000000000000000000000000000000000000000000000000000000000000000000000000000000000000000000000000000000000000000000000000000000000000000000000000000000000000000000000000000000000000000000000000000000000000000000000000000000000",
                    "difficulty": "0x00",
                    "number": "0x01",
                    "gasLimit": "0x016345785d8a0000",
                    "gasUsed": "0x5208",
                    "timestamp": "0x0c",
                    "extraData": "0x",
                    "mixHash": "0x0000000000000000000000000000000000000000000000000000000000000000",
                    "nonce": "0x0000000000000000",
                    "baseFeePerGas": "0x07",
                    "withdrawalsRoot": "0x56e81f171bcc55a6ff8345e692c0f86e5b48e01b996cadc001622fb5e363b421",
                    "blobGasUsed": "0x0a0000",
                    "excessBlobGas": "0x00",
                    "parentBeaconBlockRoot": "0x0000000000000000000000000000000000000000000000000000000000000000",
                    "hash": "0x1311c331d797c47d6e328fe612ed2290bd5fb28c62b870690c56d30085bb393d"
                },
                "blocknumber": "1",
                "transactions": [
                    {
                        "type": "0x03",
                        "chainId": "0x01",
                        "nonce": "0x00",
                        "maxPriorityFeePerGas": "0x00",
                        "maxFeePerGas": "0x07",
                        "gasLimit": "0x5208",
                        "to": "0x0000000000000000000000000000000000000200",
                        "value": "0x01",
                        "data": "0x",
                        "accessList": [],
                        "maxFeePerBlobGas": "0x01",
                        "blobVersionedHashes": [
                            "0x0100000000000000000000000000000000000000000000000000000000000000",
                            "0x0100000000000000000000000000000000000000000000000000000000000001",
                            "0x0100000000000000000000000000000000000000000000000000000000000002",
                            "0x0100000000000000000000000000000000000000000000000000000000000003",
                            "0x0100000000000000000000000000000000000000000000000000000000000004"
                        ],
                        "v": "0x01",
                        "r": "0x53543ed04d2ab4c5accf113297b9a3a9d1a6af99ea8521874e0e08183af0e936",
                        "s": "0x754ffbdac9c7d06c5312318d560986cb29a81d435337c1e97b7e39bc8496ece8",
                        "sender": "0x8a0a19589531694250d570040a0c4b74576919b8"
                    }
                ],
                "uncleHeaders": [],
                "withdrawals": []
            },
            {
                "rlp": "0xf902d0f9023fa01311c331d797c47d6e328fe612ed2290bd5fb28c62b870690c56d30085bb393da01dcc4de8dec75d7aab85b567b6ccd41ad312451b948a7413f0a142fd40d49347942adc25665018aa1fe0e6bc666dac8fc2697ff9baa0bdeb9fe50269ba7400a2fc8c3b417a17362777a28fb560ba885503c0288bc1d0a03d0735f4f8cd85f7384e82229ad10f2b7a96e77e52a6f73f19acc673e28074c7a0c117ad0158b04d4277c8a0d1b440360bf3f011ad7caccf8740df472c96e8f5ccb9010000000000000000000000000000000000000000000000000000000000000000000000000000000000000000000000000000000000000000000000000000000000000000000000000000000000000000000000000000000000000000000000000000000000000000000000000000000000000000000000000000000000000000000000000000000000000000000000000000000000000000000000000000000000000000000000000000000000000000000000000000000000000000000000000000000000000000000000000000000000000000000000000000000000000000000000000000000000000000000000000000000000000000000000000000000000800288016345785d8a000082a8611880a0000000000000000000000000000000000000000000000000000000000000000088000000000000000007a056e81f171bcc55a6ff8345e692c0f86e5b48e01b996cadc001622fb5e363b4218302000080a00000000000000000000000000000000000000000000000000000000000000000f88ab88803f8850180800782afc89400000000000000000000000000000000000001000180c001e1a0010000000000000000000000000000000000000000000000000000000000000080a0c75337f6b99a6063d93e16883ac5ca36e2d4c1502e4b56805777ad74aafaa626a07b32c2a3852284ead12962b64a0453d036d36516b5f062162f4710aef0dd731bc0c0",
                "expectException": "invalid excess blob gas",
                "rlp_decoded": {
                    "blockHeader": {
                        "parentHash": "0x1311c331d797c47d6e328fe612ed2290bd5fb28c62b870690c56d30085bb393d",
                        "uncleHash": "0x1dcc4de8dec75d7aab85b567b6ccd41ad312451b948a7413f0a142fd40d49347",
                        "coinbase": "0x2adc25665018aa1fe0e6bc666dac8fc2697ff9ba",
                        "stateRoot": "0xbdeb9fe50269ba7400a2fc8c3b417a17362777a28fb560ba885503c0288bc1d0",
                        "transactionsTrie": "0x3d0735f4f8cd85f7384e82229ad10f2b7a96e77e52a6f73f19acc673e28074c7",
                        "receiptTrie": "0xc117ad0158b04d4277c8a0d1b440360bf3f011ad7caccf8740df472c96e8f5cc",
                        "bloom": "0x00000000000000000000000000000000000000000000000000000000000000000000000000000000000000000000000000000000000000000000000000000000000000000000000000000000000000000000000000000000000000000000000000000000000000000000000000000000000000000000000000000000000000000000000000000000000000000000000000000000000000000000000000000000000000000000000000000000000000000000000000000000000000000000000000000000000000000000000000000000000000000000000000000000000000000000000000000000000000000000000000000000000000000000000000000000",
                        "difficulty": "0x00",
                        "number": "0x02",
                        "gasLimit": "0x016345785d8a0000",
                        "gasUsed": "0xa861",
                        "timestamp": "0x18",
                        "extraData": "0x",
                        "mixHash": "0x0000000000000000000000000000000000000000000000000000000000000000",
                        "nonce": "0x0000000000000000",
                        "baseFeePerGas": "0x07",
                        "withdrawalsRoot": "0x56e81f171bcc55a6ff8345e692c0f86e5b48e01b996cadc001622fb5e363b421",
                        "blobGasUsed": "0x020000",
                        "excessBlobGas": "0x00",
                        "parentBeaconBlockRoot": "0x0000000000000000000000000000000000000000000000000000000000000000",
                        "hash": "0xb5b598f5a6c74524df90cbd5ce87506302e3d24e7edb2f11b6889164894169fb"
                    },
                    "transactions": [
                        {
                            "type": "0x03",
                            "chainId": "0x01",
                            "nonce": "0x00",
                            "maxPriorityFeePerGas": "0x00",
                            "maxFeePerGas": "0x07",
                            "gasLimit": "0xafc8",
                            "to": "0x0000000000000000000000000000000000000100",
                            "value": "0x01",
                            "data": "0x",
                            "accessList": [],
                            "maxFeePerBlobGas": "0x01",
                            "blobVersionedHashes": [
                                "0x0100000000000000000000000000000000000000000000000000000000000000"
                            ],
                            "v": "0x00",
                            "r": "0xc75337f6b99a6063d93e16883ac5ca36e2d4c1502e4b56805777ad74aafaa626",
                            "s": "0x7b32c2a3852284ead12962b64a0453d036d36516b5f062162f4710aef0dd731b",
                            "sender": "0xa94f5374fce5edbc8e2a8697c15331677e6ebf0b"
                        }
                    ],
                    "uncleHeaders": [],
                    "withdrawals": []
                }
            }
        ],
        "lastblockhash": "0x1311c331d797c47d6e328fe612ed2290bd5fb28c62b870690c56d30085bb393d",
        "pre": {
            "0x0000000000000000000000000000000000000100": {
                "nonce": "0x00",
                "balance": "0x00",
                "code": "0x4a600055",
                "storage": {}
            },
            "0x000f3df6d732807ef1319fb7b8bb8522d0beac02": {
                "nonce": "0x01",
                "balance": "0x00",
                "code": "0x3373fffffffffffffffffffffffffffffffffffffffe14604d57602036146024575f5ffd5b5f35801560495762001fff810690815414603c575f5ffd5b62001fff01545f5260205ff35b5f5ffd5b62001fff42064281555f359062001fff015500",
                "storage": {}
            },
            "0x8a0a19589531694250d570040a0c4b74576919b8": {
                "nonce": "0x00",
                "balance": "0x1d6329f1c35ca4bfabb9f5610000000000",
                "code": "0x",
                "storage": {}
            },
            "0xa94f5374fce5edbc8e2a8697c15331677e6ebf0b": {
                "nonce": "0x00",
                "balance": "0x06ce79",
                "code": "0x",
                "storage": {}
            }
        },
        "postState": {
            "0x0000000000000000000000000000000000000100": {
                "nonce": "0x00",
                "balance": "0x00",
                "code": "0x4a600055",
                "storage": {}
            },
            "0x0000000000000000000000000000000000000200": {
                "nonce": "0x00",
                "balance": "0x01",
                "code": "0x",
                "storage": {}
            },
            "0x000f3df6d732807ef1319fb7b8bb8522d0beac02": {
                "nonce": "0x01",
                "balance": "0x00",
                "code": "0x3373fffffffffffffffffffffffffffffffffffffffe14604d57602036146024575f5ffd5b5f35801560495762001fff810690815414603c575f5ffd5b62001fff01545f5260205ff35b5f5ffd5b62001fff42064281555f359062001fff015500",
                "storage": {
                    "0x0c": "0x0c"
                }
            },
            "0x8a0a19589531694250d570040a0c4b74576919b8": {
                "nonce": "0x01",
                "balance": "0x1d6329f1c35ca4bfabb9f560fffff3c1c7",
                "code": "0x",
                "storage": {}
            },
            "0xa94f5374fce5edbc8e2a8697c15331677e6ebf0b": {
                "nonce": "0x00",
                "balance": "0x06ce79",
                "code": "0x",
                "storage": {}
            }
        },
        "sealEngine": "NoProof"
    },
    "002-fork=Cancun-new_blobs=1-parent_excess_blobs=0-parent_blobs=6-header_excess_blob_gas=0-correct:0x60000-header:0x0": {
        "_info": {
            "filling-transition-tool": "evm version 1.13.5-unstable-4d161dee-20231019",
            "reference-spec": "https://github.com/ethereum/EIPs/blob/master/EIPS/eip-4844.md",
            "reference-spec-version": "f0eb6a364aaf5ccb43516fa2c269a54fb881ecfd"
        },
        "network": "Cancun",
        "genesisRLP": "0xf90243f9023da00000000000000000000000000000000000000000000000000000000000000000a01dcc4de8dec75d7aab85b567b6ccd41ad312451b948a7413f0a142fd40d49347940000000000000000000000000000000000000000a0006c7e5144fc8cd13e5316aafabaecb815a400428e03de78d93d03fb797e5078a056e81f171bcc55a6ff8345e692c0f86e5b48e01b996cadc001622fb5e363b421a056e81f171bcc55a6ff8345e692c0f86e5b48e01b996cadc001622fb5e363b421b9010000000000000000000000000000000000000000000000000000000000000000000000000000000000000000000000000000000000000000000000000000000000000000000000000000000000000000000000000000000000000000000000000000000000000000000000000000000000000000000000000000000000000000000000000000000000000000000000000000000000000000000000000000000000000000000000000000000000000000000000000000000000000000000000000000000000000000000000000000000000000000000000000000000000000000000000000000000000000000000000000000000000000000000000000000000000808088016345785d8a0000808000a0000000000000000000000000000000000000000000000000000000000000000088000000000000000007a056e81f171bcc55a6ff8345e692c0f86e5b48e01b996cadc001622fb5e363b4218083060000a00000000000000000000000000000000000000000000000000000000000000000c0c0c0",
        "genesisBlockHeader": {
            "parentHash": "0x0000000000000000000000000000000000000000000000000000000000000000",
            "uncleHash": "0x1dcc4de8dec75d7aab85b567b6ccd41ad312451b948a7413f0a142fd40d49347",
            "coinbase": "0x0000000000000000000000000000000000000000",
            "stateRoot": "0x006c7e5144fc8cd13e5316aafabaecb815a400428e03de78d93d03fb797e5078",
            "transactionsTrie": "0x56e81f171bcc55a6ff8345e692c0f86e5b48e01b996cadc001622fb5e363b421",
            "receiptTrie": "0x56e81f171bcc55a6ff8345e692c0f86e5b48e01b996cadc001622fb5e363b421",
            "bloom": "0x00000000000000000000000000000000000000000000000000000000000000000000000000000000000000000000000000000000000000000000000000000000000000000000000000000000000000000000000000000000000000000000000000000000000000000000000000000000000000000000000000000000000000000000000000000000000000000000000000000000000000000000000000000000000000000000000000000000000000000000000000000000000000000000000000000000000000000000000000000000000000000000000000000000000000000000000000000000000000000000000000000000000000000000000000000000",
            "difficulty": "0x00",
            "number": "0x00",
            "gasLimit": "0x016345785d8a0000",
            "gasUsed": "0x00",
            "timestamp": "0x00",
            "extraData": "0x00",
            "mixHash": "0x0000000000000000000000000000000000000000000000000000000000000000",
            "nonce": "0x0000000000000000",
            "baseFeePerGas": "0x07",
            "withdrawalsRoot": "0x56e81f171bcc55a6ff8345e692c0f86e5b48e01b996cadc001622fb5e363b421",
            "blobGasUsed": "0x00",
            "excessBlobGas": "0x060000",
            "parentBeaconBlockRoot": "0x0000000000000000000000000000000000000000000000000000000000000000",
            "hash": "0x510f1c46aa45b5f4941c2b9038fc55a7d9df6eb18429c5da2b7fe949c959e66a"
        },
        "blocks": [
            {
                "rlp": "0xf90379f9023fa0510f1c46aa45b5f4941c2b9038fc55a7d9df6eb18429c5da2b7fe949c959e66aa01dcc4de8dec75d7aab85b567b6ccd41ad312451b948a7413f0a142fd40d49347942adc25665018aa1fe0e6bc666dac8fc2697ff9baa0de9b9cd80d7720583f74115aaa38ebcb66ccccb791452ecb2c265a7acd0fbae5a0373d7b01af589d52e2f048397a9c9cab50f15f4a4448fd9bb93c01567dd73de9a0eaa8c40899a61ae59615cf9985f5e2194f8fd2b57d273be63bde6733e89b12abb9010000000000000000000000000000000000000000000000000000000000000000000000000000000000000000000000000000000000000000000000000000000000000000000000000000000000000000000000000000000000000000000000000000000000000000000000000000000000000000000000000000000000000000000000000000000000000000000000000000000000000000000000000000000000000000000000000000000000000000000000000000000000000000000000000000000000000000000000000000000000000000000000000000000000000000000000000000000000000000000000000000000000000000000000000000000000800188016345785d8a00008252080c80a0000000000000000000000000000000000000000000000000000000000000000088000000000000000007a056e81f171bcc55a6ff8345e692c0f86e5b48e01b996cadc001622fb5e363b421830c000080a00000000000000000000000000000000000000000000000000000000000000000f90132b9012f03f9012b018080078252089400000000000000000000000000000000000002000180c001f8c6a00100000000000000000000000000000000000000000000000000000000000000a00100000000000000000000000000000000000000000000000000000000000001a00100000000000000000000000000000000000000000000000000000000000002a00100000000000000000000000000000000000000000000000000000000000003a00100000000000000000000000000000000000000000000000000000000000004a0010000000000000000000000000000000000000000000000000000000000000501a07de2acc384244ae903c1a2821287cd72f11a1728b928913e7aea64f590d03873a055bbcad901588ceb485098d31e30650ce15d22bfdfd3725e4ce953576182d7d3c0c0",
                "blockHeader": {
                    "parentHash": "0x510f1c46aa45b5f4941c2b9038fc55a7d9df6eb18429c5da2b7fe949c959e66a",
                    "uncleHash": "0x1dcc4de8dec75d7aab85b567b6ccd41ad312451b948a7413f0a142fd40d49347",
                    "coinbase": "0x2adc25665018aa1fe0e6bc666dac8fc2697ff9ba",
                    "stateRoot": "0xde9b9cd80d7720583f74115aaa38ebcb66ccccb791452ecb2c265a7acd0fbae5",
                    "transactionsTrie": "0x373d7b01af589d52e2f048397a9c9cab50f15f4a4448fd9bb93c01567dd73de9",
                    "receiptTrie": "0xeaa8c40899a61ae59615cf9985f5e2194f8fd2b57d273be63bde6733e89b12ab",
                    "bloom": "0x00000000000000000000000000000000000000000000000000000000000000000000000000000000000000000000000000000000000000000000000000000000000000000000000000000000000000000000000000000000000000000000000000000000000000000000000000000000000000000000000000000000000000000000000000000000000000000000000000000000000000000000000000000000000000000000000000000000000000000000000000000000000000000000000000000000000000000000000000000000000000000000000000000000000000000000000000000000000000000000000000000000000000000000000000000000",
                    "difficulty": "0x00",
                    "number": "0x01",
                    "gasLimit": "0x016345785d8a0000",
                    "gasUsed": "0x5208",
                    "timestamp": "0x0c",
                    "extraData": "0x",
                    "mixHash": "0x0000000000000000000000000000000000000000000000000000000000000000",
                    "nonce": "0x0000000000000000",
                    "baseFeePerGas": "0x07",
                    "withdrawalsRoot": "0x56e81f171bcc55a6ff8345e692c0f86e5b48e01b996cadc001622fb5e363b421",
                    "blobGasUsed": "0x0c0000",
                    "excessBlobGas": "0x00",
                    "parentBeaconBlockRoot": "0x0000000000000000000000000000000000000000000000000000000000000000",
                    "hash": "0xec936ff6f19523f22bf047d24e0b35a61b5ad3351ad4262a180615f4902ece71"
                },
                "blocknumber": "1",
                "transactions": [
                    {
                        "type": "0x03",
                        "chainId": "0x01",
                        "nonce": "0x00",
                        "maxPriorityFeePerGas": "0x00",
                        "maxFeePerGas": "0x07",
                        "gasLimit": "0x5208",
                        "to": "0x0000000000000000000000000000000000000200",
                        "value": "0x01",
                        "data": "0x",
                        "accessList": [],
                        "maxFeePerBlobGas": "0x01",
                        "blobVersionedHashes": [
                            "0x0100000000000000000000000000000000000000000000000000000000000000",
                            "0x0100000000000000000000000000000000000000000000000000000000000001",
                            "0x0100000000000000000000000000000000000000000000000000000000000002",
                            "0x0100000000000000000000000000000000000000000000000000000000000003",
                            "0x0100000000000000000000000000000000000000000000000000000000000004",
                            "0x0100000000000000000000000000000000000000000000000000000000000005"
                        ],
                        "v": "0x01",
                        "r": "0x7de2acc384244ae903c1a2821287cd72f11a1728b928913e7aea64f590d03873",
                        "s": "0x55bbcad901588ceb485098d31e30650ce15d22bfdfd3725e4ce953576182d7d3",
                        "sender": "0x8a0a19589531694250d570040a0c4b74576919b8"
                    }
                ],
                "uncleHeaders": [],
                "withdrawals": []
            },
            {
                "rlp": "0xf902d0f9023fa0ec936ff6f19523f22bf047d24e0b35a61b5ad3351ad4262a180615f4902ece71a01dcc4de8dec75d7aab85b567b6ccd41ad312451b948a7413f0a142fd40d49347942adc25665018aa1fe0e6bc666dac8fc2697ff9baa0ecae18667c100224cf1aa9dd9d91b582341da9f0df6e4401a76754c678350290a03d0735f4f8cd85f7384e82229ad10f2b7a96e77e52a6f73f19acc673e28074c7a0c117ad0158b04d4277c8a0d1b440360bf3f011ad7caccf8740df472c96e8f5ccb9010000000000000000000000000000000000000000000000000000000000000000000000000000000000000000000000000000000000000000000000000000000000000000000000000000000000000000000000000000000000000000000000000000000000000000000000000000000000000000000000000000000000000000000000000000000000000000000000000000000000000000000000000000000000000000000000000000000000000000000000000000000000000000000000000000000000000000000000000000000000000000000000000000000000000000000000000000000000000000000000000000000000000000000000000000000000800288016345785d8a000082a8611880a0000000000000000000000000000000000000000000000000000000000000000088000000000000000007a056e81f171bcc55a6ff8345e692c0f86e5b48e01b996cadc001622fb5e363b4218302000080a00000000000000000000000000000000000000000000000000000000000000000f88ab88803f8850180800782afc89400000000000000000000000000000000000001000180c001e1a0010000000000000000000000000000000000000000000000000000000000000080a0c75337f6b99a6063d93e16883ac5ca36e2d4c1502e4b56805777ad74aafaa626a07b32c2a3852284ead12962b64a0453d036d36516b5f062162f4710aef0dd731bc0c0",
                "expectException": "invalid excess blob gas",
                "rlp_decoded": {
                    "blockHeader": {
                        "parentHash": "0xec936ff6f19523f22bf047d24e0b35a61b5ad3351ad4262a180615f4902ece71",
                        "uncleHash": "0x1dcc4de8dec75d7aab85b567b6ccd41ad312451b948a7413f0a142fd40d49347",
                        "coinbase": "0x2adc25665018aa1fe0e6bc666dac8fc2697ff9ba",
                        "stateRoot": "0xecae18667c100224cf1aa9dd9d91b582341da9f0df6e4401a76754c678350290",
                        "transactionsTrie": "0x3d0735f4f8cd85f7384e82229ad10f2b7a96e77e52a6f73f19acc673e28074c7",
                        "receiptTrie": "0xc117ad0158b04d4277c8a0d1b440360bf3f011ad7caccf8740df472c96e8f5cc",
                        "bloom": "0x00000000000000000000000000000000000000000000000000000000000000000000000000000000000000000000000000000000000000000000000000000000000000000000000000000000000000000000000000000000000000000000000000000000000000000000000000000000000000000000000000000000000000000000000000000000000000000000000000000000000000000000000000000000000000000000000000000000000000000000000000000000000000000000000000000000000000000000000000000000000000000000000000000000000000000000000000000000000000000000000000000000000000000000000000000000",
                        "difficulty": "0x00",
                        "number": "0x02",
                        "gasLimit": "0x016345785d8a0000",
                        "gasUsed": "0xa861",
                        "timestamp": "0x18",
                        "extraData": "0x",
                        "mixHash": "0x0000000000000000000000000000000000000000000000000000000000000000",
                        "nonce": "0x0000000000000000",
                        "baseFeePerGas": "0x07",
                        "withdrawalsRoot": "0x56e81f171bcc55a6ff8345e692c0f86e5b48e01b996cadc001622fb5e363b421",
                        "blobGasUsed": "0x020000",
                        "excessBlobGas": "0x00",
                        "parentBeaconBlockRoot": "0x0000000000000000000000000000000000000000000000000000000000000000",
                        "hash": "0x3f827eebbf7952580e8a0bc8027a70f2b4d36e85fce68cec81a038db51082e27"
                    },
                    "transactions": [
                        {
                            "type": "0x03",
                            "chainId": "0x01",
                            "nonce": "0x00",
                            "maxPriorityFeePerGas": "0x00",
                            "maxFeePerGas": "0x07",
                            "gasLimit": "0xafc8",
                            "to": "0x0000000000000000000000000000000000000100",
                            "value": "0x01",
                            "data": "0x",
                            "accessList": [],
                            "maxFeePerBlobGas": "0x01",
                            "blobVersionedHashes": [
                                "0x0100000000000000000000000000000000000000000000000000000000000000"
                            ],
                            "v": "0x00",
                            "r": "0xc75337f6b99a6063d93e16883ac5ca36e2d4c1502e4b56805777ad74aafaa626",
                            "s": "0x7b32c2a3852284ead12962b64a0453d036d36516b5f062162f4710aef0dd731b",
                            "sender": "0xa94f5374fce5edbc8e2a8697c15331677e6ebf0b"
                        }
                    ],
                    "uncleHeaders": [],
                    "withdrawals": []
                }
            }
        ],
        "lastblockhash": "0xec936ff6f19523f22bf047d24e0b35a61b5ad3351ad4262a180615f4902ece71",
        "pre": {
            "0x0000000000000000000000000000000000000100": {
                "nonce": "0x00",
                "balance": "0x00",
                "code": "0x4a600055",
                "storage": {}
            },
            "0x000f3df6d732807ef1319fb7b8bb8522d0beac02": {
                "nonce": "0x01",
                "balance": "0x00",
                "code": "0x3373fffffffffffffffffffffffffffffffffffffffe14604d57602036146024575f5ffd5b5f35801560495762001fff810690815414603c575f5ffd5b62001fff01545f5260205ff35b5f5ffd5b62001fff42064281555f359062001fff015500",
                "storage": {}
            },
            "0x8a0a19589531694250d570040a0c4b74576919b8": {
                "nonce": "0x00",
                "balance": "0x1d6329f1c35ca4bfabb9f5610000000000",
                "code": "0x",
                "storage": {}
            },
            "0xa94f5374fce5edbc8e2a8697c15331677e6ebf0b": {
                "nonce": "0x00",
                "balance": "0x06ce79",
                "code": "0x",
                "storage": {}
            }
        },
        "postState": {
            "0x0000000000000000000000000000000000000100": {
                "nonce": "0x00",
                "balance": "0x00",
                "code": "0x4a600055",
                "storage": {}
            },
            "0x0000000000000000000000000000000000000200": {
                "nonce": "0x00",
                "balance": "0x01",
                "code": "0x",
                "storage": {}
            },
            "0x000f3df6d732807ef1319fb7b8bb8522d0beac02": {
                "nonce": "0x01",
                "balance": "0x00",
                "code": "0x3373fffffffffffffffffffffffffffffffffffffffe14604d57602036146024575f5ffd5b5f35801560495762001fff810690815414603c575f5ffd5b62001fff01545f5260205ff35b5f5ffd5b62001fff42064281555f359062001fff015500",
                "storage": {
                    "0x0c": "0x0c"
                }
            },
            "0x8a0a19589531694250d570040a0c4b74576919b8": {
                "nonce": "0x01",
                "balance": "0x1d6329f1c35ca4bfabb9f560fffff1c1c7",
                "code": "0x",
                "storage": {}
            },
            "0xa94f5374fce5edbc8e2a8697c15331677e6ebf0b": {
                "nonce": "0x00",
                "balance": "0x06ce79",
                "code": "0x",
                "storage": {}
            }
        },
        "sealEngine": "NoProof"
    }
}