{
    "tests/prague/eip7692_eof_v1/eip7620_eof_create/test_eofcreate.py::test_auxdata_variations[fork_CancunEIP7692-blockchain_test_engine-zero]": {
        "network": "Prague",
        "genesisBlockHeader": {
            "parentHash": "0x0000000000000000000000000000000000000000000000000000000000000000",
            "uncleHash": "0x1dcc4de8dec75d7aab85b567b6ccd41ad312451b948a7413f0a142fd40d49347",
            "coinbase": "0x0000000000000000000000000000000000000000",
            "stateRoot": "0x9dae41fc031d62c586f7801830d832b3c32650178e117c98b2887e9cd972d2d2",
            "transactionsTrie": "0x56e81f171bcc55a6ff8345e692c0f86e5b48e01b996cadc001622fb5e363b421",
            "receiptTrie": "0x56e81f171bcc55a6ff8345e692c0f86e5b48e01b996cadc001622fb5e363b421",
            "bloom": "0x00000000000000000000000000000000000000000000000000000000000000000000000000000000000000000000000000000000000000000000000000000000000000000000000000000000000000000000000000000000000000000000000000000000000000000000000000000000000000000000000000000000000000000000000000000000000000000000000000000000000000000000000000000000000000000000000000000000000000000000000000000000000000000000000000000000000000000000000000000000000000000000000000000000000000000000000000000000000000000000000000000000000000000000000000000000",
            "difficulty": "0x00",
            "number": "0x00",
            "gasLimit": "0x016345785d8a0000",
            "gasUsed": "0x00",
            "timestamp": "0x00",
            "extraData": "0x00",
            "mixHash": "0x0000000000000000000000000000000000000000000000000000000000000000",
            "nonce": "0x0000000000000000",
            "baseFeePerGas": "0x07",
            "withdrawalsRoot": "0x56e81f171bcc55a6ff8345e692c0f86e5b48e01b996cadc001622fb5e363b421",
            "blobGasUsed": "0x00",
            "excessBlobGas": "0x00",
            "parentBeaconBlockRoot": "0x0000000000000000000000000000000000000000000000000000000000000000",
            "hash": "0x569341ae8bbe9b2ca9dc76ad0fe7d56c1a81212f380aa06096fa9e60d69c79c3"
        },
        "pre": {
            "0x000f3df6d732807ef1319fb7b8bb8522d0beac02": {
                "nonce": "0x01",
                "balance": "0x00",
                "code": "0x3373fffffffffffffffffffffffffffffffffffffffe14604d57602036146024575f5ffd5b5f35801560495762001fff810690815414603c575f5ffd5b62001fff01545f5260205ff35b5f5ffd5b62001fff42064281555f359062001fff015500",
                "storage": {}
            },
            "0xa94f5374fce5edbc8e2a8697c15331677e6ebf0b": {
                "nonce": "0x00",
                "balance": "0x3635c9adc5dea00000",
                "code": "0x",
                "storage": {}
            },
            "0x0000000000000000000000000000000000001000": {
                "nonce": "0x01",
                "balance": "0x00",
                "code": "0xef0001010004020001000e030001005c04000000008000046000600060006000ec0060035500ef0001010004020001002a030001001a04000000008000027f000000000000000000000000000000000000000000000000000000000000000060005260006000ee00ef00010100040200010001040012000080000000414142424343",
                "storage": {
                    "0x03": "0x2009"
                }
            }
        },
        "postState": {
            "0x0000000000000000000000000000000000001000": {
                "nonce": "0x02",
                "balance": "0x00",
                "code": "0xef0001010004020001000e030001005c04000000008000046000600060006000ec0060035500ef0001010004020001002a030001001a04000000008000027f000000000000000000000000000000000000000000000000000000000000000060005260006000ee00ef00010100040200010001040012000080000000414142424343",
                "storage": {}
            },
            "0x000f3df6d732807ef1319fb7b8bb8522d0beac02": {
                "nonce": "0x01",
                "balance": "0x00",
                "code": "0x3373fffffffffffffffffffffffffffffffffffffffe14604d57602036146024575f5ffd5b5f35801560495762001fff810690815414603c575f5ffd5b62001fff01545f5260205ff35b5f5ffd5b62001fff42064281555f359062001fff015500",
                "storage": {
                    "0x03e8": "0x03e8"
                }
            },
            "0x2adc25665018aa1fe0e6bc666dac8fc2697ff9ba": {
                "nonce": "0x00",
                "balance": "0x01c2a88a",
                "code": "0x",
                "storage": {}
            },
            "0xa94f5374fce5edbc8e2a8697c15331677e6ebf0b": {
                "nonce": "0x01",
                "balance": "0x3635c9adc5d8c1ce34",
                "code": "0x",
                "storage": {}
            }
        },
        "lastblockhash": "0x11bc343b53d709c5add9900e57cbd55b1b0c51815bed25eafa44d189a6934338",
        "engineNewPayloads": [
            {
                "params": [
                    {
                        "parentHash": "0x569341ae8bbe9b2ca9dc76ad0fe7d56c1a81212f380aa06096fa9e60d69c79c3",
                        "feeRecipient": "0x2adc25665018aa1fe0e6bc666dac8fc2697ff9ba",
                        "stateRoot": "0x7c4ec1f659555c68aaf294de1143890c1fa604b7725a89538cfe5b44e6245fae",
                        "receiptsRoot": "0xff381d2c0b9b0d7dd4519923f88eeb969282d00fc45820c64661edb5b051ccf4",
                        "logsBloom": "0x00000000000000000000000000000000000000000000000000000000000000000000000000000000000000000000000000000000000000000000000000000000000000000000000000000000000000000000000000000000000000000000000000000000000000000000000000000000000000000000000000000000000000000000000000000000000000000000000000000000000000000000000000000000000000000000000000000000000000000000000000000000000000000000000000000000000000000000000000000000000000000000000000000000000000000000000000000000000000000000000000000000000000000000000000000000",
                        "blockNumber": "0x1",
                        "gasLimit": "0x16345785d8a0000",
                        "gasUsed": "0x96382e",
                        "timestamp": "0x3e8",
                        "extraData": "0x00",
                        "prevRandao": "0x0000000000000000000000000000000000000000000000000000000000000000",
                        "baseFeePerGas": "0x7",
                        "blobGasUsed": "0x0",
                        "excessBlobGas": "0x0",
                        "blockHash": "0x11bc343b53d709c5add9900e57cbd55b1b0c51815bed25eafa44d189a6934338",
                        "transactions": [
                            "0xf860800a8398968094000000000000000000000000000000000000100080801ba00a827f57dab1e27137696202f240cb95cfc25acf2f077f6b32a7ca3ac039baf0a055fdd3269172368d880a16fa4192049edd5211d8cbb1d5222a0a77b11174d574"
                        ],
                        "withdrawals": []
                    },
                    [],
                    "0x0000000000000000000000000000000000000000000000000000000000000000"
                ],
                "newPayloadVersion": "3",
                "forkchoiceUpdatedVersion": "3"
            }
        ],
        "_info": {
            "hash": "0xbc6892254a632d08a15d3d1698ed34d3badaac86fcbace406c0b3524c8ea670a",
            "comment": "`execution-spec-tests` generated test",
            "filling-transition-tool": "evmone-t8n 0.12.0-dev+commit.26d56091",
            "description": "Test function documentation:\n\n    Verifies that auxdata bytes are correctly handled in RETURNCONTRACT",
            "url": "https://github.com/ethereum/execution-spec-tests/tree/v3.0.0/tests/prague/eip7692_eof_v1/eip7620_eof_create/test_eofcreate.py#L139",
            "reference-spec": "https://github.com/ethereum/EIPs/blob/master/EIPS/eip-7620.md",
            "reference-spec-version": "52ddbcdddcf72dd72427c319f2beddeb468e1737"
        }
    },
    "tests/prague/eip7692_eof_v1/eip7620_eof_create/test_eofcreate.py::test_auxdata_variations[fork_CancunEIP7692-blockchain_test_engine-short]": {
        "network": "Prague",
        "genesisBlockHeader": {
            "parentHash": "0x0000000000000000000000000000000000000000000000000000000000000000",
            "uncleHash": "0x1dcc4de8dec75d7aab85b567b6ccd41ad312451b948a7413f0a142fd40d49347",
            "coinbase": "0x0000000000000000000000000000000000000000",
            "stateRoot": "0x9b450b3ca9fdde659f3c3d47611064468c4bbeed170c020dc3c11900e4f040a8",
            "transactionsTrie": "0x56e81f171bcc55a6ff8345e692c0f86e5b48e01b996cadc001622fb5e363b421",
            "receiptTrie": "0x56e81f171bcc55a6ff8345e692c0f86e5b48e01b996cadc001622fb5e363b421",
            "bloom": "0x00000000000000000000000000000000000000000000000000000000000000000000000000000000000000000000000000000000000000000000000000000000000000000000000000000000000000000000000000000000000000000000000000000000000000000000000000000000000000000000000000000000000000000000000000000000000000000000000000000000000000000000000000000000000000000000000000000000000000000000000000000000000000000000000000000000000000000000000000000000000000000000000000000000000000000000000000000000000000000000000000000000000000000000000000000000",
            "difficulty": "0x00",
            "number": "0x00",
            "gasLimit": "0x016345785d8a0000",
            "gasUsed": "0x00",
            "timestamp": "0x00",
            "extraData": "0x00",
            "mixHash": "0x0000000000000000000000000000000000000000000000000000000000000000",
            "nonce": "0x0000000000000000",
            "baseFeePerGas": "0x07",
            "withdrawalsRoot": "0x56e81f171bcc55a6ff8345e692c0f86e5b48e01b996cadc001622fb5e363b421",
            "blobGasUsed": "0x00",
            "excessBlobGas": "0x00",
            "parentBeaconBlockRoot": "0x0000000000000000000000000000000000000000000000000000000000000000",
            "hash": "0xb6ea242f5efd2c044942175639fb51e527f123ebc45e90b9dfd53ec98f760d87"
        },
        "pre": {
            "0x000f3df6d732807ef1319fb7b8bb8522d0beac02": {
                "nonce": "0x01",
                "balance": "0x00",
                "code": "0x3373fffffffffffffffffffffffffffffffffffffffe14604d57602036146024575f5ffd5b5f35801560495762001fff810690815414603c575f5ffd5b62001fff01545f5260205ff35b5f5ffd5b62001fff42064281555f359062001fff015500",
                "storage": {}
            },
            "0xa94f5374fce5edbc8e2a8697c15331677e6ebf0b": {
                "nonce": "0x00",
                "balance": "0x3635c9adc5dea00000",
                "code": "0x",
                "storage": {}
            },
            "0x0000000000000000000000000000000000001000": {
                "nonce": "0x01",
                "balance": "0x00",
                "code": "0xef0001010004020001000e030001005c04000000008000046000600060006000ec0060035500ef0001010004020001002a030001001a04000000008000027f616162626363000000000000000000000000000000000000000000000000000060005260066000ee00ef00010100040200010001040012000080000000414142424343",
                "storage": {
                    "0x03": "0x2009"
                }
            }
        },
        "postState": {
            "0x0000000000000000000000000000000000001000": {
                "nonce": "0x02",
                "balance": "0x00",
                "code": "0xef0001010004020001000e030001005c04000000008000046000600060006000ec0060035500ef0001010004020001002a030001001a04000000008000027f616162626363000000000000000000000000000000000000000000000000000060005260066000ee00ef00010100040200010001040012000080000000414142424343",
                "storage": {}
            },
            "0x000f3df6d732807ef1319fb7b8bb8522d0beac02": {
                "nonce": "0x01",
                "balance": "0x00",
                "code": "0x3373fffffffffffffffffffffffffffffffffffffffe14604d57602036146024575f5ffd5b5f35801560495762001fff810690815414603c575f5ffd5b62001fff01545f5260205ff35b5f5ffd5b62001fff42064281555f359062001fff015500",
                "storage": {
                    "0x03e8": "0x03e8"
                }
            },
            "0x2adc25665018aa1fe0e6bc666dac8fc2697ff9ba": {
                "nonce": "0x00",
                "balance": "0x01c2a88a",
                "code": "0x",
                "storage": {}
            },
            "0xa94f5374fce5edbc8e2a8697c15331677e6ebf0b": {
                "nonce": "0x01",
                "balance": "0x3635c9adc5d8c1ce34",
                "code": "0x",
                "storage": {}
            }
        },
        "lastblockhash": "0xf79bde03c3c6dc9336b0ef338fd17337f33bd33a9ff78d7d9296ed5b5bba361f",
        "engineNewPayloads": [
            {
                "params": [
                    {
                        "parentHash": "0xb6ea242f5efd2c044942175639fb51e527f123ebc45e90b9dfd53ec98f760d87",
                        "feeRecipient": "0x2adc25665018aa1fe0e6bc666dac8fc2697ff9ba",
                        "stateRoot": "0x02a5852984d8da5453a9f0d73a904a83245cd447b2c5fbe1a0d1d739732d41c5",
                        "receiptsRoot": "0xff381d2c0b9b0d7dd4519923f88eeb969282d00fc45820c64661edb5b051ccf4",
                        "logsBloom": "0x00000000000000000000000000000000000000000000000000000000000000000000000000000000000000000000000000000000000000000000000000000000000000000000000000000000000000000000000000000000000000000000000000000000000000000000000000000000000000000000000000000000000000000000000000000000000000000000000000000000000000000000000000000000000000000000000000000000000000000000000000000000000000000000000000000000000000000000000000000000000000000000000000000000000000000000000000000000000000000000000000000000000000000000000000000000",
                        "blockNumber": "0x1",
                        "gasLimit": "0x16345785d8a0000",
                        "gasUsed": "0x96382e",
                        "timestamp": "0x3e8",
                        "extraData": "0x00",
                        "prevRandao": "0x0000000000000000000000000000000000000000000000000000000000000000",
                        "baseFeePerGas": "0x7",
                        "blobGasUsed": "0x0",
                        "excessBlobGas": "0x0",
                        "blockHash": "0xf79bde03c3c6dc9336b0ef338fd17337f33bd33a9ff78d7d9296ed5b5bba361f",
                        "transactions": [
                            "0xf860800a8398968094000000000000000000000000000000000000100080801ba00a827f57dab1e27137696202f240cb95cfc25acf2f077f6b32a7ca3ac039baf0a055fdd3269172368d880a16fa4192049edd5211d8cbb1d5222a0a77b11174d574"
                        ],
                        "withdrawals": []
                    },
                    [],
                    "0x0000000000000000000000000000000000000000000000000000000000000000"
                ],
                "newPayloadVersion": "3",
                "forkchoiceUpdatedVersion": "3"
            }
        ],
        "_info": {
            "hash": "0xfbec263eaab191dc129e83b204d541d185e47ecd28f91d2ce67e7569798a2e2a",
            "comment": "`execution-spec-tests` generated test",
            "filling-transition-tool": "evmone-t8n 0.12.0-dev+commit.26d56091",
            "description": "Test function documentation:\n\n    Verifies that auxdata bytes are correctly handled in RETURNCONTRACT",
            "url": "https://github.com/ethereum/execution-spec-tests/tree/v3.0.0/tests/prague/eip7692_eof_v1/eip7620_eof_create/test_eofcreate.py#L139",
            "reference-spec": "https://github.com/ethereum/EIPs/blob/master/EIPS/eip-7620.md",
            "reference-spec-version": "52ddbcdddcf72dd72427c319f2beddeb468e1737"
        }
    },
    "tests/prague/eip7692_eof_v1/eip7620_eof_create/test_eofcreate.py::test_auxdata_variations[fork_CancunEIP7692-blockchain_test_engine-one_byte_short]": {
        "network": "Prague",
        "genesisBlockHeader": {
            "parentHash": "0x0000000000000000000000000000000000000000000000000000000000000000",
            "uncleHash": "0x1dcc4de8dec75d7aab85b567b6ccd41ad312451b948a7413f0a142fd40d49347",
            "coinbase": "0x0000000000000000000000000000000000000000",
            "stateRoot": "0xcae51e10595590106a2040c6c2a1f3d3aa9c69ecb6c36759542ae39bd06d1b68",
            "transactionsTrie": "0x56e81f171bcc55a6ff8345e692c0f86e5b48e01b996cadc001622fb5e363b421",
            "receiptTrie": "0x56e81f171bcc55a6ff8345e692c0f86e5b48e01b996cadc001622fb5e363b421",
            "bloom": "0x00000000000000000000000000000000000000000000000000000000000000000000000000000000000000000000000000000000000000000000000000000000000000000000000000000000000000000000000000000000000000000000000000000000000000000000000000000000000000000000000000000000000000000000000000000000000000000000000000000000000000000000000000000000000000000000000000000000000000000000000000000000000000000000000000000000000000000000000000000000000000000000000000000000000000000000000000000000000000000000000000000000000000000000000000000000",
            "difficulty": "0x00",
            "number": "0x00",
            "gasLimit": "0x016345785d8a0000",
            "gasUsed": "0x00",
            "timestamp": "0x00",
            "extraData": "0x00",
            "mixHash": "0x0000000000000000000000000000000000000000000000000000000000000000",
            "nonce": "0x0000000000000000",
            "baseFeePerGas": "0x07",
            "withdrawalsRoot": "0x56e81f171bcc55a6ff8345e692c0f86e5b48e01b996cadc001622fb5e363b421",
            "blobGasUsed": "0x00",
            "excessBlobGas": "0x00",
            "parentBeaconBlockRoot": "0x0000000000000000000000000000000000000000000000000000000000000000",
            "hash": "0x50e59c80c101c86758ab51d9fe489aa3b1eb764c91431c587efc5bf4ceff9707"
        },
        "pre": {
            "0x000f3df6d732807ef1319fb7b8bb8522d0beac02": {
                "nonce": "0x01",
                "balance": "0x00",
                "code": "0x3373fffffffffffffffffffffffffffffffffffffffe14604d57602036146024575f5ffd5b5f35801560495762001fff810690815414603c575f5ffd5b62001fff01545f5260205ff35b5f5ffd5b62001fff42064281555f359062001fff015500",
                "storage": {}
            },
            "0xa94f5374fce5edbc8e2a8697c15331677e6ebf0b": {
                "nonce": "0x00",
                "balance": "0x3635c9adc5dea00000",
                "code": "0x",
                "storage": {}
            },
            "0x0000000000000000000000000000000000001000": {
                "nonce": "0x01",
                "balance": "0x00",
                "code": "0xef0001010004020001000e030001005c04000000008000046000600060006000ec0060035500ef0001010004020001002a030001001a04000000008000027f6161626263636464656566000000000000000000000000000000000000000000600052600b6000ee00ef00010100040200010001040012000080000000414142424343",
                "storage": {
                    "0x03": "0x2009"
                }
            }
        },
        "postState": {
            "0x0000000000000000000000000000000000001000": {
                "nonce": "0x02",
                "balance": "0x00",
                "code": "0xef0001010004020001000e030001005c04000000008000046000600060006000ec0060035500ef0001010004020001002a030001001a04000000008000027f6161626263636464656566000000000000000000000000000000000000000000600052600b6000ee00ef00010100040200010001040012000080000000414142424343",
                "storage": {}
            },
            "0x000f3df6d732807ef1319fb7b8bb8522d0beac02": {
                "nonce": "0x01",
                "balance": "0x00",
                "code": "0x3373fffffffffffffffffffffffffffffffffffffffe14604d57602036146024575f5ffd5b5f35801560495762001fff810690815414603c575f5ffd5b62001fff01545f5260205ff35b5f5ffd5b62001fff42064281555f359062001fff015500",
                "storage": {
                    "0x03e8": "0x03e8"
                }
            },
            "0x2adc25665018aa1fe0e6bc666dac8fc2697ff9ba": {
                "nonce": "0x00",
                "balance": "0x01c2a88a",
                "code": "0x",
                "storage": {}
            },
            "0xa94f5374fce5edbc8e2a8697c15331677e6ebf0b": {
                "nonce": "0x01",
                "balance": "0x3635c9adc5d8c1ce34",
                "code": "0x",
                "storage": {}
            }
        },
        "lastblockhash": "0x33a456d134497c7bef94d6105d84cebefc80407a719f26af5f8c079369084358",
        "engineNewPayloads": [
            {
                "params": [
                    {
                        "parentHash": "0x50e59c80c101c86758ab51d9fe489aa3b1eb764c91431c587efc5bf4ceff9707",
                        "feeRecipient": "0x2adc25665018aa1fe0e6bc666dac8fc2697ff9ba",
                        "stateRoot": "0x4139d06f995c8c7edf7fac734d993b6895229f28371ad81027afe44629750e58",
                        "receiptsRoot": "0xff381d2c0b9b0d7dd4519923f88eeb969282d00fc45820c64661edb5b051ccf4",
                        "logsBloom": "0x00000000000000000000000000000000000000000000000000000000000000000000000000000000000000000000000000000000000000000000000000000000000000000000000000000000000000000000000000000000000000000000000000000000000000000000000000000000000000000000000000000000000000000000000000000000000000000000000000000000000000000000000000000000000000000000000000000000000000000000000000000000000000000000000000000000000000000000000000000000000000000000000000000000000000000000000000000000000000000000000000000000000000000000000000000000",
                        "blockNumber": "0x1",
                        "gasLimit": "0x16345785d8a0000",
                        "gasUsed": "0x96382e",
                        "timestamp": "0x3e8",
                        "extraData": "0x00",
                        "prevRandao": "0x0000000000000000000000000000000000000000000000000000000000000000",
                        "baseFeePerGas": "0x7",
                        "blobGasUsed": "0x0",
                        "excessBlobGas": "0x0",
                        "blockHash": "0x33a456d134497c7bef94d6105d84cebefc80407a719f26af5f8c079369084358",
                        "transactions": [
                            "0xf860800a8398968094000000000000000000000000000000000000100080801ba00a827f57dab1e27137696202f240cb95cfc25acf2f077f6b32a7ca3ac039baf0a055fdd3269172368d880a16fa4192049edd5211d8cbb1d5222a0a77b11174d574"
                        ],
                        "withdrawals": []
                    },
                    [],
                    "0x0000000000000000000000000000000000000000000000000000000000000000"
                ],
                "newPayloadVersion": "3",
                "forkchoiceUpdatedVersion": "3"
            }
        ],
        "_info": {
            "hash": "0xef798426735f62ad8e3e9749c40241ad131617dae1330372f28e95ed18bd72b0",
            "comment": "`execution-spec-tests` generated test",
            "filling-transition-tool": "evmone-t8n 0.12.0-dev+commit.26d56091",
            "description": "Test function documentation:\n\n    Verifies that auxdata bytes are correctly handled in RETURNCONTRACT",
            "url": "https://github.com/ethereum/execution-spec-tests/tree/v3.0.0/tests/prague/eip7692_eof_v1/eip7620_eof_create/test_eofcreate.py#L139",
            "reference-spec": "https://github.com/ethereum/EIPs/blob/master/EIPS/eip-7620.md",
            "reference-spec-version": "52ddbcdddcf72dd72427c319f2beddeb468e1737"
        }
    },
    "tests/prague/eip7692_eof_v1/eip7620_eof_create/test_eofcreate.py::test_auxdata_variations[fork_CancunEIP7692-blockchain_test_engine-exact]": {
        "network": "Prague",
        "genesisBlockHeader": {
            "parentHash": "0x0000000000000000000000000000000000000000000000000000000000000000",
            "uncleHash": "0x1dcc4de8dec75d7aab85b567b6ccd41ad312451b948a7413f0a142fd40d49347",
            "coinbase": "0x0000000000000000000000000000000000000000",
            "stateRoot": "0xb824971527d3382bc7164752862d3e8dd6a5692709756e38aad8d6a92dd30298",
            "transactionsTrie": "0x56e81f171bcc55a6ff8345e692c0f86e5b48e01b996cadc001622fb5e363b421",
            "receiptTrie": "0x56e81f171bcc55a6ff8345e692c0f86e5b48e01b996cadc001622fb5e363b421",
            "bloom": "0x00000000000000000000000000000000000000000000000000000000000000000000000000000000000000000000000000000000000000000000000000000000000000000000000000000000000000000000000000000000000000000000000000000000000000000000000000000000000000000000000000000000000000000000000000000000000000000000000000000000000000000000000000000000000000000000000000000000000000000000000000000000000000000000000000000000000000000000000000000000000000000000000000000000000000000000000000000000000000000000000000000000000000000000000000000000",
            "difficulty": "0x00",
            "number": "0x00",
            "gasLimit": "0x016345785d8a0000",
            "gasUsed": "0x00",
            "timestamp": "0x00",
            "extraData": "0x00",
            "mixHash": "0x0000000000000000000000000000000000000000000000000000000000000000",
            "nonce": "0x0000000000000000",
            "baseFeePerGas": "0x07",
            "withdrawalsRoot": "0x56e81f171bcc55a6ff8345e692c0f86e5b48e01b996cadc001622fb5e363b421",
            "blobGasUsed": "0x00",
            "excessBlobGas": "0x00",
            "parentBeaconBlockRoot": "0x0000000000000000000000000000000000000000000000000000000000000000",
            "hash": "0x422ea0a236c3f64bee300b29038130eb1136aa34d70f8043c881a44c4ab68d19"
        },
        "pre": {
            "0x000f3df6d732807ef1319fb7b8bb8522d0beac02": {
                "nonce": "0x01",
                "balance": "0x00",
                "code": "0x3373fffffffffffffffffffffffffffffffffffffffe14604d57602036146024575f5ffd5b5f35801560495762001fff810690815414603c575f5ffd5b62001fff01545f5260205ff35b5f5ffd5b62001fff42064281555f359062001fff015500",
                "storage": {}
            },
            "0xa94f5374fce5edbc8e2a8697c15331677e6ebf0b": {
                "nonce": "0x00",
                "balance": "0x3635c9adc5dea00000",
                "code": "0x",
                "storage": {}
            },
            "0x0000000000000000000000000000000000001000": {
                "nonce": "0x01",
                "balance": "0x00",
                "code": "0xef0001010004020001000e030001005c04000000008000046000600060006000ec0060035500ef0001010004020001002a030001001a04000000008000027f6161626263636464656566660000000000000000000000000000000000000000600052600c6000ee00ef00010100040200010001040012000080000000414142424343",
                "storage": {
                    "0x03": "0x2009"
                }
            }
        },
        "postState": {
            "0x0000000000000000000000000000000000001000": {
                "nonce": "0x02",
                "balance": "0x00",
                "code": "0xef0001010004020001000e030001005c04000000008000046000600060006000ec0060035500ef0001010004020001002a030001001a04000000008000027f6161626263636464656566660000000000000000000000000000000000000000600052600c6000ee00ef00010100040200010001040012000080000000414142424343",
                "storage": {
                    "0x03": "0x791cdab73a163d85fb9d6cf20e279f8449c8ed18"
                }
            },
            "0x000f3df6d732807ef1319fb7b8bb8522d0beac02": {
                "nonce": "0x01",
                "balance": "0x00",
                "code": "0x3373fffffffffffffffffffffffffffffffffffffffe14604d57602036146024575f5ffd5b5f35801560495762001fff810690815414603c575f5ffd5b62001fff01545f5260205ff35b5f5ffd5b62001fff42064281555f359062001fff015500",
                "storage": {
                    "0x03e8": "0x03e8"
                }
            },
            "0x2adc25665018aa1fe0e6bc666dac8fc2697ff9ba": {
                "nonce": "0x00",
                "balance": "0x030159",
                "code": "0x",
                "storage": {}
            },
            "0x791cdab73a163d85fb9d6cf20e279f8449c8ed18": {
                "nonce": "0x01",
                "balance": "0x00",
                "code": "0xef00010100040200010001040012000080000000414142424343616162626363646465656666",
                "storage": {}
            },
            "0xa94f5374fce5edbc8e2a8697c15331677e6ebf0b": {
                "nonce": "0x01",
                "balance": "0x3635c9adc5de95fb82",
                "code": "0x",
                "storage": {}
            }
        },
        "lastblockhash": "0x3dbfd7e222f2b51d7d278e1933c6917333254fad18b3c9164b3a13142403e750",
        "engineNewPayloads": [
            {
                "params": [
                    {
                        "parentHash": "0x422ea0a236c3f64bee300b29038130eb1136aa34d70f8043c881a44c4ab68d19",
                        "feeRecipient": "0x2adc25665018aa1fe0e6bc666dac8fc2697ff9ba",
                        "stateRoot": "0x9f8901799b9d83eab02ec92b4c13d9a44e881b583568fe91fcd52a5fb770f8d6",
                        "receiptsRoot": "0xcb03171ae2911dc51196f849cc6d86956e40a981579ed2f82b3fa6ef255432a8",
                        "logsBloom": "0x00000000000000000000000000000000000000000000000000000000000000000000000000000000000000000000000000000000000000000000000000000000000000000000000000000000000000000000000000000000000000000000000000000000000000000000000000000000000000000000000000000000000000000000000000000000000000000000000000000000000000000000000000000000000000000000000000000000000000000000000000000000000000000000000000000000000000000000000000000000000000000000000000000000000000000000000000000000000000000000000000000000000000000000000000000000",
                        "blockNumber": "0x1",
                        "gasLimit": "0x16345785d8a0000",
                        "gasUsed": "0x10073",
                        "timestamp": "0x3e8",
                        "extraData": "0x00",
                        "prevRandao": "0x0000000000000000000000000000000000000000000000000000000000000000",
                        "baseFeePerGas": "0x7",
                        "blobGasUsed": "0x0",
                        "excessBlobGas": "0x0",
                        "blockHash": "0x3dbfd7e222f2b51d7d278e1933c6917333254fad18b3c9164b3a13142403e750",
                        "transactions": [
                            "0xf860800a8398968094000000000000000000000000000000000000100080801ba00a827f57dab1e27137696202f240cb95cfc25acf2f077f6b32a7ca3ac039baf0a055fdd3269172368d880a16fa4192049edd5211d8cbb1d5222a0a77b11174d574"
                        ],
                        "withdrawals": []
                    },
                    [],
                    "0x0000000000000000000000000000000000000000000000000000000000000000"
                ],
                "newPayloadVersion": "3",
                "forkchoiceUpdatedVersion": "3"
            }
        ],
        "_info": {
            "hash": "0xd0a912bc50c55dd432576d7c5d61e17429f7cb132ee15c0f82406c36ea6719db",
            "comment": "`execution-spec-tests` generated test",
            "filling-transition-tool": "evmone-t8n 0.12.0-dev+commit.26d56091",
            "description": "Test function documentation:\n\n    Verifies that auxdata bytes are correctly handled in RETURNCONTRACT",
            "url": "https://github.com/ethereum/execution-spec-tests/tree/v3.0.0/tests/prague/eip7692_eof_v1/eip7620_eof_create/test_eofcreate.py#L139",
            "reference-spec": "https://github.com/ethereum/EIPs/blob/master/EIPS/eip-7620.md",
            "reference-spec-version": "52ddbcdddcf72dd72427c319f2beddeb468e1737"
        }
    },
    "tests/prague/eip7692_eof_v1/eip7620_eof_create/test_eofcreate.py::test_auxdata_variations[fork_CancunEIP7692-blockchain_test_engine-one_byte_long]": {
        "network": "Prague",
        "genesisBlockHeader": {
            "parentHash": "0x0000000000000000000000000000000000000000000000000000000000000000",
            "uncleHash": "0x1dcc4de8dec75d7aab85b567b6ccd41ad312451b948a7413f0a142fd40d49347",
            "coinbase": "0x0000000000000000000000000000000000000000",
            "stateRoot": "0xded8bb06064e2ba5c34e501055151b094ab6c2ff5d648d400da623a1f69bf855",
            "transactionsTrie": "0x56e81f171bcc55a6ff8345e692c0f86e5b48e01b996cadc001622fb5e363b421",
            "receiptTrie": "0x56e81f171bcc55a6ff8345e692c0f86e5b48e01b996cadc001622fb5e363b421",
            "bloom": "0x00000000000000000000000000000000000000000000000000000000000000000000000000000000000000000000000000000000000000000000000000000000000000000000000000000000000000000000000000000000000000000000000000000000000000000000000000000000000000000000000000000000000000000000000000000000000000000000000000000000000000000000000000000000000000000000000000000000000000000000000000000000000000000000000000000000000000000000000000000000000000000000000000000000000000000000000000000000000000000000000000000000000000000000000000000000",
            "difficulty": "0x00",
            "number": "0x00",
            "gasLimit": "0x016345785d8a0000",
            "gasUsed": "0x00",
            "timestamp": "0x00",
            "extraData": "0x00",
            "mixHash": "0x0000000000000000000000000000000000000000000000000000000000000000",
            "nonce": "0x0000000000000000",
            "baseFeePerGas": "0x07",
            "withdrawalsRoot": "0x56e81f171bcc55a6ff8345e692c0f86e5b48e01b996cadc001622fb5e363b421",
            "blobGasUsed": "0x00",
            "excessBlobGas": "0x00",
            "parentBeaconBlockRoot": "0x0000000000000000000000000000000000000000000000000000000000000000",
            "hash": "0x96f447df138a0b615d8d427484c204a4c7b74460b7676a2f05f2ae41490e14bc"
        },
        "pre": {
            "0x000f3df6d732807ef1319fb7b8bb8522d0beac02": {
                "nonce": "0x01",
                "balance": "0x00",
                "code": "0x3373fffffffffffffffffffffffffffffffffffffffe14604d57602036146024575f5ffd5b5f35801560495762001fff810690815414603c575f5ffd5b62001fff01545f5260205ff35b5f5ffd5b62001fff42064281555f359062001fff015500",
                "storage": {}
            },
            "0xa94f5374fce5edbc8e2a8697c15331677e6ebf0b": {
                "nonce": "0x00",
                "balance": "0x3635c9adc5dea00000",
                "code": "0x",
                "storage": {}
            },
            "0x0000000000000000000000000000000000001000": {
                "nonce": "0x01",
                "balance": "0x00",
                "code": "0xef0001010004020001000e030001005c04000000008000046000600060006000ec0060035500ef0001010004020001002a030001001a04000000008000027f6161626263636464656566666700000000000000000000000000000000000000600052600d6000ee00ef00010100040200010001040012000080000000414142424343",
                "storage": {
                    "0x03": "0x2009"
                }
            }
        },
        "postState": {
            "0x0000000000000000000000000000000000001000": {
                "nonce": "0x02",
                "balance": "0x00",
                "code": "0xef0001010004020001000e030001005c04000000008000046000600060006000ec0060035500ef0001010004020001002a030001001a04000000008000027f6161626263636464656566666700000000000000000000000000000000000000600052600d6000ee00ef00010100040200010001040012000080000000414142424343",
                "storage": {
                    "0x03": "0x722d456bf2d01dd31c3b1981343a3e6322ec04b2"
                }
            },
            "0x000f3df6d732807ef1319fb7b8bb8522d0beac02": {
                "nonce": "0x01",
                "balance": "0x00",
                "code": "0x3373fffffffffffffffffffffffffffffffffffffffe14604d57602036146024575f5ffd5b5f35801560495762001fff810690815414603c575f5ffd5b62001fff01545f5260205ff35b5f5ffd5b62001fff42064281555f359062001fff015500",
                "storage": {
                    "0x03e8": "0x03e8"
                }
            },
            "0x2adc25665018aa1fe0e6bc666dac8fc2697ff9ba": {
                "nonce": "0x00",
                "balance": "0x0303b1",
                "code": "0x",
                "storage": {}
            },
            "0x722d456bf2d01dd31c3b1981343a3e6322ec04b2": {
                "nonce": "0x01",
                "balance": "0x00",
                "code": "0xef0001010004020001000104001300008000000041414242434361616262636364646565666667",
                "storage": {}
            },
            "0xa94f5374fce5edbc8e2a8697c15331677e6ebf0b": {
                "nonce": "0x01",
                "balance": "0x3635c9adc5de95f3b2",
                "code": "0x",
                "storage": {}
            }
        },
        "lastblockhash": "0xd1995a807a5614ad37c89146d506f17d552eed650559ae42be77440e34e8ec15",
        "engineNewPayloads": [
            {
                "params": [
                    {
                        "parentHash": "0x96f447df138a0b615d8d427484c204a4c7b74460b7676a2f05f2ae41490e14bc",
                        "feeRecipient": "0x2adc25665018aa1fe0e6bc666dac8fc2697ff9ba",
                        "stateRoot": "0xb2d89032bf05b9cc21d66c1687f65805dc8c3ed6f45b227a05c977e6beff14c3",
                        "receiptsRoot": "0x8ffbe7db519d1715ce5cdde45fafa463e2a4697eb00975cb9f675adc5a519d6d",
                        "logsBloom": "0x00000000000000000000000000000000000000000000000000000000000000000000000000000000000000000000000000000000000000000000000000000000000000000000000000000000000000000000000000000000000000000000000000000000000000000000000000000000000000000000000000000000000000000000000000000000000000000000000000000000000000000000000000000000000000000000000000000000000000000000000000000000000000000000000000000000000000000000000000000000000000000000000000000000000000000000000000000000000000000000000000000000000000000000000000000000",
                        "blockNumber": "0x1",
                        "gasLimit": "0x16345785d8a0000",
                        "gasUsed": "0x1013b",
                        "timestamp": "0x3e8",
                        "extraData": "0x00",
                        "prevRandao": "0x0000000000000000000000000000000000000000000000000000000000000000",
                        "baseFeePerGas": "0x7",
                        "blobGasUsed": "0x0",
                        "excessBlobGas": "0x0",
                        "blockHash": "0xd1995a807a5614ad37c89146d506f17d552eed650559ae42be77440e34e8ec15",
                        "transactions": [
                            "0xf860800a8398968094000000000000000000000000000000000000100080801ba00a827f57dab1e27137696202f240cb95cfc25acf2f077f6b32a7ca3ac039baf0a055fdd3269172368d880a16fa4192049edd5211d8cbb1d5222a0a77b11174d574"
                        ],
                        "withdrawals": []
                    },
                    [],
                    "0x0000000000000000000000000000000000000000000000000000000000000000"
                ],
                "newPayloadVersion": "3",
                "forkchoiceUpdatedVersion": "3"
            }
        ],
        "_info": {
            "hash": "0xf3fa70113eb742c538c615f76d4fdf8d0592fca9db4fdb69f7bbad8247616c2f",
            "comment": "`execution-spec-tests` generated test",
            "filling-transition-tool": "evmone-t8n 0.12.0-dev+commit.26d56091",
            "description": "Test function documentation:\n\n    Verifies that auxdata bytes are correctly handled in RETURNCONTRACT",
            "url": "https://github.com/ethereum/execution-spec-tests/tree/v3.0.0/tests/prague/eip7692_eof_v1/eip7620_eof_create/test_eofcreate.py#L139",
            "reference-spec": "https://github.com/ethereum/EIPs/blob/master/EIPS/eip-7620.md",
            "reference-spec-version": "52ddbcdddcf72dd72427c319f2beddeb468e1737"
        }
    },
    "tests/prague/eip7692_eof_v1/eip7620_eof_create/test_eofcreate.py::test_auxdata_variations[fork_CancunEIP7692-blockchain_test_engine-extra]": {
        "network": "Prague",
        "genesisBlockHeader": {
            "parentHash": "0x0000000000000000000000000000000000000000000000000000000000000000",
            "uncleHash": "0x1dcc4de8dec75d7aab85b567b6ccd41ad312451b948a7413f0a142fd40d49347",
            "coinbase": "0x0000000000000000000000000000000000000000",
            "stateRoot": "0xd424e8a16b1e3fdf3e6c83be95f6bd19d9ebaa127a4613f5aabb050a366ed0ef",
            "transactionsTrie": "0x56e81f171bcc55a6ff8345e692c0f86e5b48e01b996cadc001622fb5e363b421",
            "receiptTrie": "0x56e81f171bcc55a6ff8345e692c0f86e5b48e01b996cadc001622fb5e363b421",
            "bloom": "0x00000000000000000000000000000000000000000000000000000000000000000000000000000000000000000000000000000000000000000000000000000000000000000000000000000000000000000000000000000000000000000000000000000000000000000000000000000000000000000000000000000000000000000000000000000000000000000000000000000000000000000000000000000000000000000000000000000000000000000000000000000000000000000000000000000000000000000000000000000000000000000000000000000000000000000000000000000000000000000000000000000000000000000000000000000000",
            "difficulty": "0x00",
            "number": "0x00",
            "gasLimit": "0x016345785d8a0000",
            "gasUsed": "0x00",
            "timestamp": "0x00",
            "extraData": "0x00",
            "mixHash": "0x0000000000000000000000000000000000000000000000000000000000000000",
            "nonce": "0x0000000000000000",
            "baseFeePerGas": "0x07",
            "withdrawalsRoot": "0x56e81f171bcc55a6ff8345e692c0f86e5b48e01b996cadc001622fb5e363b421",
            "blobGasUsed": "0x00",
            "excessBlobGas": "0x00",
            "parentBeaconBlockRoot": "0x0000000000000000000000000000000000000000000000000000000000000000",
            "hash": "0xf9d8f5c767c613e4fc4dc5891c7685b7d8cdf18325dd573e2e34f144806630c9"
        },
        "pre": {
            "0x000f3df6d732807ef1319fb7b8bb8522d0beac02": {
                "nonce": "0x01",
                "balance": "0x00",
                "code": "0x3373fffffffffffffffffffffffffffffffffffffffe14604d57602036146024575f5ffd5b5f35801560495762001fff810690815414603c575f5ffd5b62001fff01545f5260205ff35b5f5ffd5b62001fff42064281555f359062001fff015500",
                "storage": {}
            },
            "0xa94f5374fce5edbc8e2a8697c15331677e6ebf0b": {
                "nonce": "0x00",
                "balance": "0x3635c9adc5dea00000",
                "code": "0x",
                "storage": {}
            },
            "0x0000000000000000000000000000000000001000": {
                "nonce": "0x01",
                "balance": "0x00",
                "code": "0xef0001010004020001000e030001005c04000000008000046000600060006000ec0060035500ef0001010004020001002a030001001a04000000008000027f616162626363646465656666676768686969000000000000000000000000000060005260126000ee00ef00010100040200010001040012000080000000414142424343",
                "storage": {
                    "0x03": "0x2009"
                }
            }
        },
        "postState": {
            "0x0000000000000000000000000000000000001000": {
                "nonce": "0x02",
                "balance": "0x00",
                "code": "0xef0001010004020001000e030001005c04000000008000046000600060006000ec0060035500ef0001010004020001002a030001001a04000000008000027f616162626363646465656666676768686969000000000000000000000000000060005260126000ee00ef00010100040200010001040012000080000000414142424343",
                "storage": {
                    "0x03": "0x6f89054535cc1907cb33184367f6b168c94a5b90"
                }
            },
            "0x000f3df6d732807ef1319fb7b8bb8522d0beac02": {
                "nonce": "0x01",
                "balance": "0x00",
                "code": "0x3373fffffffffffffffffffffffffffffffffffffffe14604d57602036146024575f5ffd5b5f35801560495762001fff810690815414603c575f5ffd5b62001fff01545f5260205ff35b5f5ffd5b62001fff42064281555f359062001fff015500",
                "storage": {
                    "0x03e8": "0x03e8"
                }
            },
            "0x2adc25665018aa1fe0e6bc666dac8fc2697ff9ba": {
                "nonce": "0x00",
                "balance": "0x030f69",
                "code": "0x",
                "storage": {}
            },
            "0x6f89054535cc1907cb33184367f6b168c94a5b90": {
                "nonce": "0x01",
                "balance": "0x00",
                "code": "0xef00010100040200010001040018000080000000414142424343616162626363646465656666676768686969",
                "storage": {}
            },
            "0xa94f5374fce5edbc8e2a8697c15331677e6ebf0b": {
                "nonce": "0x01",
                "balance": "0x3635c9adc5de95cca2",
                "code": "0x",
                "storage": {}
            }
        },
        "lastblockhash": "0xf7ce0ac536de17e14fc432824b23cba51980991f80a7dd07d2501b27e0c03949",
        "engineNewPayloads": [
            {
                "params": [
                    {
                        "parentHash": "0xf9d8f5c767c613e4fc4dc5891c7685b7d8cdf18325dd573e2e34f144806630c9",
                        "feeRecipient": "0x2adc25665018aa1fe0e6bc666dac8fc2697ff9ba",
                        "stateRoot": "0x109f432d4998643a1511ec23f063197c27361a454450d7520a06df1ba47f5656",
                        "receiptsRoot": "0x30dfbf3a10bb8d086f768f86bb46184d7b1f1a864f1d5174e51eb495ad62895c",
                        "logsBloom": "0x00000000000000000000000000000000000000000000000000000000000000000000000000000000000000000000000000000000000000000000000000000000000000000000000000000000000000000000000000000000000000000000000000000000000000000000000000000000000000000000000000000000000000000000000000000000000000000000000000000000000000000000000000000000000000000000000000000000000000000000000000000000000000000000000000000000000000000000000000000000000000000000000000000000000000000000000000000000000000000000000000000000000000000000000000000000",
                        "blockNumber": "0x1",
                        "gasLimit": "0x16345785d8a0000",
                        "gasUsed": "0x10523",
                        "timestamp": "0x3e8",
                        "extraData": "0x00",
                        "prevRandao": "0x0000000000000000000000000000000000000000000000000000000000000000",
                        "baseFeePerGas": "0x7",
                        "blobGasUsed": "0x0",
                        "excessBlobGas": "0x0",
                        "blockHash": "0xf7ce0ac536de17e14fc432824b23cba51980991f80a7dd07d2501b27e0c03949",
                        "transactions": [
                            "0xf860800a8398968094000000000000000000000000000000000000100080801ba00a827f57dab1e27137696202f240cb95cfc25acf2f077f6b32a7ca3ac039baf0a055fdd3269172368d880a16fa4192049edd5211d8cbb1d5222a0a77b11174d574"
                        ],
                        "withdrawals": []
                    },
                    [],
                    "0x0000000000000000000000000000000000000000000000000000000000000000"
                ],
                "newPayloadVersion": "3",
                "forkchoiceUpdatedVersion": "3"
            }
        ],
        "_info": {
            "hash": "0x349fb27c5f38010d889eb97e1c9e6ef76a71cadc67556bfcb8b953f5b038c103",
            "comment": "`execution-spec-tests` generated test",
            "filling-transition-tool": "evmone-t8n 0.12.0-dev+commit.26d56091",
            "description": "Test function documentation:\n\n    Verifies that auxdata bytes are correctly handled in RETURNCONTRACT",
            "url": "https://github.com/ethereum/execution-spec-tests/tree/v3.0.0/tests/prague/eip7692_eof_v1/eip7620_eof_create/test_eofcreate.py#L139",
            "reference-spec": "https://github.com/ethereum/EIPs/blob/master/EIPS/eip-7620.md",
            "reference-spec-version": "52ddbcdddcf72dd72427c319f2beddeb468e1737"
        }
    }
}