{
    "tests/prague/eip7692_eof_v1/eip7620_eof_create/test_eofcreate.py::test_calldata[fork_PragueEIP7692-blockchain_test_engine]": {
        "network": "Prague",
        "genesisBlockHeader": {
            "parentHash": "0x0000000000000000000000000000000000000000000000000000000000000000",
            "uncleHash": "0x1dcc4de8dec75d7aab85b567b6ccd41ad312451b948a7413f0a142fd40d49347",
            "coinbase": "0x0000000000000000000000000000000000000000",
            "stateRoot": "0x3f30b2b4c43f7852fb877e4432c4c0cce2889b7f854d469e41b42afe7e32aae0",
            "transactionsTrie": "0x56e81f171bcc55a6ff8345e692c0f86e5b48e01b996cadc001622fb5e363b421",
            "receiptTrie": "0x56e81f171bcc55a6ff8345e692c0f86e5b48e01b996cadc001622fb5e363b421",
            "bloom": "0x00000000000000000000000000000000000000000000000000000000000000000000000000000000000000000000000000000000000000000000000000000000000000000000000000000000000000000000000000000000000000000000000000000000000000000000000000000000000000000000000000000000000000000000000000000000000000000000000000000000000000000000000000000000000000000000000000000000000000000000000000000000000000000000000000000000000000000000000000000000000000000000000000000000000000000000000000000000000000000000000000000000000000000000000000000000",
            "difficulty": "0x00",
            "number": "0x00",
            "gasLimit": "0x016345785d8a0000",
            "gasUsed": "0x00",
            "timestamp": "0x00",
            "extraData": "0x00",
            "mixHash": "0x0000000000000000000000000000000000000000000000000000000000000000",
            "nonce": "0x0000000000000000",
            "baseFeePerGas": "0x07",
            "withdrawalsRoot": "0x56e81f171bcc55a6ff8345e692c0f86e5b48e01b996cadc001622fb5e363b421",
            "blobGasUsed": "0x00",
            "excessBlobGas": "0x00",
            "parentBeaconBlockRoot": "0x0000000000000000000000000000000000000000000000000000000000000000",
            "requestsRoot": "0x56e81f171bcc55a6ff8345e692c0f86e5b48e01b996cadc001622fb5e363b421",
            "hash": "0x5c560fa9f6e65ff72ce84c645a783420cf1a67ea2d0d181ab809b96e8b472794"
        },
        "pre": {
            "0x00000000219ab540356cbb839cbe05303d7705fa": {
                "nonce": "0x01",
                "balance": "0x00",
                "code": "0x60806040526004361061003f5760003560e01c806301ffc9a71461004457806322895118146100a4578063621fd130146101ba578063c5f2892f14610244575b600080fd5b34801561005057600080fd5b506100906004803603602081101561006757600080fd5b50357fffffffff000000000000000000000000000000000000000000000000000000001661026b565b604080519115158252519081900360200190f35b6101b8600480360360808110156100ba57600080fd5b8101906020810181356401000000008111156100d557600080fd5b8201836020820111156100e757600080fd5b8035906020019184600183028401116401000000008311171561010957600080fd5b91939092909160208101903564010000000081111561012757600080fd5b82018360208201111561013957600080fd5b8035906020019184600183028401116401000000008311171561015b57600080fd5b91939092909160208101903564010000000081111561017957600080fd5b82018360208201111561018b57600080fd5b803590602001918460018302840111640100000000831117156101ad57600080fd5b919350915035610304565b005b3480156101c657600080fd5b506101cf6110b5565b6040805160208082528351818301528351919283929083019185019080838360005b838110156102095781810151838201526020016101f1565b50505050905090810190601f1680156102365780820380516001836020036101000a031916815260200191505b509250505060405180910390f35b34801561025057600080fd5b506102596110c7565b60408051918252519081900360200190f35b60007fffffffff0000000000000000000000000000000000000000000000000000000082167f01ffc9a70000000000000000000000000000000000000000000000000000000014806102fe57507fffffffff0000000000000000000000000000000000000000000000000000000082167f8564090700000000000000000000000000000000000000000000000000000000145b92915050565b6030861461035d576040517f08c379a00000000000000000000000000000000000000000000000000000000081526004018080602001828103825260268152602001806118056026913960400191505060405180910390fd5b602084146103b6576040517f08c379a000000000000000000000000000000000000000000000000000000000815260040180806020018281038252603681526020018061179c6036913960400191505060405180910390fd5b6060821461040f576040517f08c379a00000000000000000000000000000000000000000000000000000000081526004018080602001828103825260298152602001806118786029913960400191505060405180910390fd5b670de0b6b3a7640000341015610470576040517f08c379a00000000000000000000000000000000000000000000000000000000081526004018080602001828103825260268152602001806118526026913960400191505060405180910390fd5b633b9aca003406156104cd576040517f08c379a00000000000000000000000000000000000000000000000000000000081526004018080602001828103825260338152602001806117d26033913960400191505060405180910390fd5b633b9aca00340467ffffffffffffffff811115610535576040517f08c379a000000000000000000000000000000000000000000000000000000000815260040180806020018281038252602781526020018061182b6027913960400191505060405180910390fd5b6060610540826114ba565b90507f649bbc62d0e31342afea4e5cd82d4049e7e1ee912fc0889aa790803be39038c589898989858a8a6105756020546114ba565b6040805160a0808252810189905290819060208201908201606083016080840160c085018e8e80828437600083820152601f017fffffffffffffffffffffffffffffffffffffffffffffffffffffffffffffffe01690910187810386528c815260200190508c8c808284376000838201819052601f9091017fffffffffffffffffffffffffffffffffffffffffffffffffffffffffffffffe01690920188810386528c5181528c51602091820193918e019250908190849084905b83811015610648578181015183820152602001610630565b50505050905090810190601f1680156106755780820380516001836020036101000a031916815260200191505b5086810383528881526020018989808284376000838201819052601f9091017fffffffffffffffffffffffffffffffffffffffffffffffffffffffffffffffe0169092018881038452895181528951602091820193918b019250908190849084905b838110156106ef5781810151838201526020016106d7565b50505050905090810190601f16801561071c5780820380516001836020036101000a031916815260200191505b509d505050505050505050505050505060405180910390a1600060028a8a600060801b604051602001808484808284377fffffffffffffffffffffffffffffffff0000000000000000000000000000000090941691909301908152604080517ffffffffffffffffffffffffffffffffffffffffffffffffffffffffffffffff0818403018152601090920190819052815191955093508392506020850191508083835b602083106107fc57805182527fffffffffffffffffffffffffffffffffffffffffffffffffffffffffffffffe090920191602091820191016107bf565b51815160209384036101000a7fffffffffffffffffffffffffffffffffffffffffffffffffffffffffffffffff01801990921691161790526040519190930194509192505080830381855afa158015610859573d6000803e3d6000fd5b5050506040513d602081101561086e57600080fd5b5051905060006002806108846040848a8c6116fe565b6040516020018083838082843780830192505050925050506040516020818303038152906040526040518082805190602001908083835b602083106108f857805182527fffffffffffffffffffffffffffffffffffffffffffffffffffffffffffffffe090920191602091820191016108bb565b51815160209384036101000a7fffffffffffffffffffffffffffffffffffffffffffffffffffffffffffffffff01801990921691161790526040519190930194509192505080830381855afa158015610955573d6000803e3d6000fd5b5050506040513d602081101561096a57600080fd5b5051600261097b896040818d6116fe565b60405160009060200180848480828437919091019283525050604080518083038152602092830191829052805190945090925082918401908083835b602083106109f457805182527fffffffffffffffffffffffffffffffffffffffffffffffffffffffffffffffe090920191602091820191016109b7565b51815160209384036101000a7fffffffffffffffffffffffffffffffffffffffffffffffffffffffffffffffff01801990921691161790526040519190930194509192505080830381855afa158015610a51573d6000803e3d6000fd5b5050506040513d6020811015610a6657600080fd5b5051604080516020818101949094528082019290925280518083038201815260609092019081905281519192909182918401908083835b60208310610ada57805182527fffffffffffffffffffffffffffffffffffffffffffffffffffffffffffffffe09092019160209182019101610a9d565b51815160209384036101000a7fffffffffffffffffffffffffffffffffffffffffffffffffffffffffffffffff01801990921691161790526040519190930194509192505080830381855afa158015610b37573d6000803e3d6000fd5b5050506040513d6020811015610b4c57600080fd5b50516040805160208101858152929350600092600292839287928f928f92018383808284378083019250505093505050506040516020818303038152906040526040518082805190602001908083835b60208310610bd957805182527fffffffffffffffffffffffffffffffffffffffffffffffffffffffffffffffe09092019160209182019101610b9c565b51815160209384036101000a7fffffffffffffffffffffffffffffffffffffffffffffffffffffffffffffffff01801990921691161790526040519190930194509192505080830381855afa158015610c36573d6000803e3d6000fd5b5050506040513d6020811015610c4b57600080fd5b50516040518651600291889160009188916020918201918291908601908083835b60208310610ca957805182527fffffffffffffffffffffffffffffffffffffffffffffffffffffffffffffffe09092019160209182019101610c6c565b6001836020036101000a0380198251168184511680821785525050505050509050018367ffffffffffffffff191667ffffffffffffffff1916815260180182815260200193505050506040516020818303038152906040526040518082805190602001908083835b60208310610d4e57805182527fffffffffffffffffffffffffffffffffffffffffffffffffffffffffffffffe09092019160209182019101610d11565b51815160209384036101000a7fffffffffffffffffffffffffffffffffffffffffffffffffffffffffffffffff01801990921691161790526040519190930194509192505080830381855afa158015610dab573d6000803e3d6000fd5b5050506040513d6020811015610dc057600080fd5b5051604080516020818101949094528082019290925280518083038201815260609092019081905281519192909182918401908083835b60208310610e3457805182527fffffffffffffffffffffffffffffffffffffffffffffffffffffffffffffffe09092019160209182019101610df7565b51815160209384036101000a7fffffffffffffffffffffffffffffffffffffffffffffffffffffffffffffffff01801990921691161790526040519190930194509192505080830381855afa158015610e91573d6000803e3d6000fd5b5050506040513d6020811015610ea657600080fd5b50519050858114610f02576040517f08c379a00000000000000000000000000000000000000000000000000000000081526004018080602001828103825260548152602001806117486054913960600191505060405180910390fd5b60205463ffffffff11610f60576040517f08c379a00000000000000000000000000000000000000000000000000000000081526004018080602001828103825260218152602001806117276021913960400191505060405180910390fd5b602080546001019081905560005b60208110156110a9578160011660011415610fa0578260008260208110610f9157fe5b0155506110ac95505050505050565b600260008260208110610faf57fe5b01548460405160200180838152602001828152602001925050506040516020818303038152906040526040518082805190602001908083835b6020831061102557805182527fffffffffffffffffffffffffffffffffffffffffffffffffffffffffffffffe09092019160209182019101610fe8565b51815160209384036101000a7fffffffffffffffffffffffffffffffffffffffffffffffffffffffffffffffff01801990921691161790526040519190930194509192505080830381855afa158015611082573d6000803e3d6000fd5b5050506040513d602081101561109757600080fd5b50519250600282049150600101610f6e565b50fe5b50505050505050565b60606110c26020546114ba565b905090565b6020546000908190815b60208110156112f05781600116600114156111e6576002600082602081106110f557fe5b01548460405160200180838152602001828152602001925050506040516020818303038152906040526040518082805190602001908083835b6020831061116b57805182527fffffffffffffffffffffffffffffffffffffffffffffffffffffffffffffffe0909201916020918201910161112e565b51815160209384036101000a7fffffffffffffffffffffffffffffffffffffffffffffffffffffffffffffffff01801990921691161790526040519190930194509192505080830381855afa1580156111c8573d6000803e3d6000fd5b5050506040513d60208110156111dd57600080fd5b505192506112e2565b600283602183602081106111f657fe5b015460405160200180838152602001828152602001925050506040516020818303038152906040526040518082805190602001908083835b6020831061126b57805182527fffffffffffffffffffffffffffffffffffffffffffffffffffffffffffffffe0909201916020918201910161122e565b51815160209384036101000a7fffffffffffffffffffffffffffffffffffffffffffffffffffffffffffffffff01801990921691161790526040519190930194509192505080830381855afa1580156112c8573d6000803e3d6000fd5b5050506040513d60208110156112dd57600080fd5b505192505b6002820491506001016110d1565b506002826112ff6020546114ba565b600060401b6040516020018084815260200183805190602001908083835b6020831061135a57805182527fffffffffffffffffffffffffffffffffffffffffffffffffffffffffffffffe0909201916020918201910161131d565b51815160209384036101000a7fffffffffffffffffffffffffffffffffffffffffffffffffffffffffffffffff01801990921691161790527fffffffffffffffffffffffffffffffffffffffffffffffff000000000000000095909516920191825250604080518083037ffffffffffffffffffffffffffffffffffffffffffffffffffffffffffffffff8018152601890920190819052815191955093508392850191508083835b6020831061143f57805182527fffffffffffffffffffffffffffffffffffffffffffffffffffffffffffffffe09092019160209182019101611402565b51815160209384036101000a7fffffffffffffffffffffffffffffffffffffffffffffffffffffffffffffffff01801990921691161790526040519190930194509192505080830381855afa15801561149c573d6000803e3d6000fd5b5050506040513d60208110156114b157600080fd5b50519250505090565b60408051600880825281830190925260609160208201818036833701905050905060c082901b8060071a60f81b826000815181106114f457fe5b60200101907effffffffffffffffffffffffffffffffffffffffffffffffffffffffffffff1916908160001a9053508060061a60f81b8260018151811061153757fe5b60200101907effffffffffffffffffffffffffffffffffffffffffffffffffffffffffffff1916908160001a9053508060051a60f81b8260028151811061157a57fe5b60200101907effffffffffffffffffffffffffffffffffffffffffffffffffffffffffffff1916908160001a9053508060041a60f81b826003815181106115bd57fe5b60200101907effffffffffffffffffffffffffffffffffffffffffffffffffffffffffffff1916908160001a9053508060031a60f81b8260048151811061160057fe5b60200101907effffffffffffffffffffffffffffffffffffffffffffffffffffffffffffff1916908160001a9053508060021a60f81b8260058151811061164357fe5b60200101907effffffffffffffffffffffffffffffffffffffffffffffffffffffffffffff1916908160001a9053508060011a60f81b8260068151811061168657fe5b60200101907effffffffffffffffffffffffffffffffffffffffffffffffffffffffffffff1916908160001a9053508060001a60f81b826007815181106116c957fe5b60200101907effffffffffffffffffffffffffffffffffffffffffffffffffffffffffffff1916908160001a90535050919050565b6000808585111561170d578182fd5b83861115611719578182fd5b505082019391909203915056fe4465706f736974436f6e74726163743a206d65726b6c6520747265652066756c6c4465706f736974436f6e74726163743a207265636f6e7374727563746564204465706f7369744461746120646f6573206e6f74206d6174636820737570706c696564206465706f7369745f646174615f726f6f744465706f736974436f6e74726163743a20696e76616c6964207769746864726177616c5f63726564656e7469616c73206c656e6774684465706f736974436f6e74726163743a206465706f7369742076616c7565206e6f74206d756c7469706c65206f6620677765694465706f736974436f6e74726163743a20696e76616c6964207075626b6579206c656e6774684465706f736974436f6e74726163743a206465706f7369742076616c756520746f6f20686967684465706f736974436f6e74726163743a206465706f7369742076616c756520746f6f206c6f774465706f736974436f6e74726163743a20696e76616c6964207369676e6174757265206c656e677468a2646970667358221220dceca8706b29e917dacf25fceef95acac8d90d765ac926663ce4096195952b6164736f6c634300060b0033",
                "storage": {
                    "0x22": "0xf5a5fd42d16a20302798ef6ed309979b43003d2320d9f0e8ea9831a92759fb4b",
                    "0x23": "0xdb56114e00fdd4c1f85c892bf35ac9a89289aaecb1ebd0a96cde606a748b5d71",
                    "0x24": "0xc78009fdf07fc56a11f122370658a353aaa542ed63e44c4bc15ff4cd105ab33c",
                    "0x25": "0x536d98837f2dd165a55d5eeae91485954472d56f246df256bf3cae19352a123c",
                    "0x26": "0x9efde052aa15429fae05bad4d0b1d7c64da64d03d7a1854a588c2cb8430c0d30",
                    "0x27": "0xd88ddfeed400a8755596b21942c1497e114c302e6118290f91e6772976041fa1",
                    "0x28": "0x87eb0ddba57e35f6d286673802a4af5975e22506c7cf4c64bb6be5ee11527f2c",
                    "0x29": "0x26846476fd5fc54a5d43385167c95144f2643f533cc85bb9d16b782f8d7db193",
                    "0x2a": "0x506d86582d252405b840018792cad2bf1259f1ef5aa5f887e13cb2f0094f51e1",
                    "0x2b": "0xffff0ad7e659772f9534c195c815efc4014ef1e1daed4404c06385d11192e92b",
                    "0x2c": "0x6cf04127db05441cd833107a52be852868890e4317e6a02ab47683aa75964220",
                    "0x2d": "0xb7d05f875f140027ef5118a2247bbb84ce8f2f0f1123623085daf7960c329f5f",
                    "0x2e": "0xdf6af5f5bbdb6be9ef8aa618e4bf8073960867171e29676f8b284dea6a08a85e",
                    "0x2f": "0xb58d900f5e182e3c50ef74969ea16c7726c549757cc23523c369587da7293784",
                    "0x30": "0xd49a7502ffcfb0340b1d7885688500ca308161a7f96b62df9d083b71fcc8f2bb",
                    "0x31": "0x8fe6b1689256c0d385f42f5bbe2027a22c1996e110ba97c171d3e5948de92beb",
                    "0x32": "0x8d0d63c39ebade8509e0ae3c9c3876fb5fa112be18f905ecacfecb92057603ab",
                    "0x33": "0x95eec8b2e541cad4e91de38385f2e046619f54496c2382cb6cacd5b98c26f5a4",
                    "0x34": "0xf893e908917775b62bff23294dbbe3a1cd8e6cc1c35b4801887b646a6f81f17f",
                    "0x35": "0xcddba7b592e3133393c16194fac7431abf2f5485ed711db282183c819e08ebaa",
                    "0x36": "0x8a8d7fe3af8caa085a7639a832001457dfb9128a8061142ad0335629ff23ff9c",
                    "0x37": "0xfeb3c337d7a51a6fbf00b9e34c52e1c9195c969bd4e7a0bfd51d5c5bed9c1167",
                    "0x38": "0xe71f0aa83cc32edfbefa9f4d3e0174ca85182eec9f3a09f6a6c0df6377a510d7",
                    "0x39": "0x31206fa80a50bb6abe29085058f16212212a60eec8f049fecb92d8c8e0a84bc0",
                    "0x3a": "0x21352bfecbeddde993839f614c3dac0a3ee37543f9b412b16199dc158e23b544",
                    "0x3b": "0x619e312724bb6d7c3153ed9de791d764a366b389af13c58bf8a8d90481a46765",
                    "0x3c": "0x7cdd2986268250628d0c10e385c58c6191e6fbe05191bcc04f133f2cea72c1c4",
                    "0x3d": "0x848930bd7ba8cac54661072113fb278869e07bb8587f91392933374d017bcbe1",
                    "0x3e": "0x8869ff2c22b28cc10510d9853292803328be4fb0e80495e8bb8d271f5b889636",
                    "0x3f": "0xb5fe28e79f1b850f8658246ce9b6a1e7b49fc06db7143e8fe0b4f2b0c5523a5c",
                    "0x40": "0x985e929f70af28d0bdd1a90a808f977f597c7c778c489e98d3bd8910d31ac0f7"
                }
            },
            "0x00a3ca265ebcb825b45f985a16cefb49958ce017": {
                "nonce": "0x01",
                "balance": "0x00",
                "code": "0x3373fffffffffffffffffffffffffffffffffffffffe146090573615156028575f545f5260205ff35b366038141561012e5760115f54600182026001905f5b5f82111560595781019083028483029004916001019190603e565b90939004341061012e57600154600101600155600354806003026004013381556001015f3581556001016020359055600101600355005b6003546002548082038060101160a4575060105b5f5b81811460dd5780604c02838201600302600401805490600101805490600101549160601b83528260140152906034015260010160a6565b910180921460ed579060025560f8565b90505f6002555f6003555b5f548061049d141561010757505f5b60015460028282011161011c5750505f610122565b01600290035b5f555f600155604c025ff35b5f5ffd",
                "storage": {}
            },
            "0x00b42dbf2194e931e80326d950320f7d9dbeac02": {
                "nonce": "0x01",
                "balance": "0x00",
                "code": "0x3373fffffffffffffffffffffffffffffffffffffffe146098573615156028575f545f5260205ff35b36606014156101445760115f54600182026001905f5b5f82111560595781019083028483029004916001019190603e565b90939004341061014457600154600101600155600354806004026004013381556001015f35815560010160203581556001016040359055600101600355005b6003546002548082038060011160ac575060015b5f5b81811460f15780607402838201600402600401805490600101805490600101805490600101549260601b84529083601401528260340152906054015260010160ae565b9101809214610103579060025561010e565b90505f6002555f6003555b5f548061049d141561011d57505f5b6001546001828201116101325750505f610138565b01600190035b5f555f6001556074025ff35b5f5ffd",
                "storage": {}
            },
            "0x0aae40965e6800cd9b1f4b05ff21581047e3f91e": {
                "nonce": "0x01",
                "balance": "0x00",
                "code": "0x3373fffffffffffffffffffffffffffffffffffffffe1460575767ffffffffffffffff5f3511605357600143035f3511604b575f35612000014311604b57611fff5f3516545f5260205ff35b5f5f5260205ff35b5f5ffd5b5f35611fff60014303165500",
                "storage": {}
            },
            "0x000f3df6d732807ef1319fb7b8bb8522d0beac02": {
                "nonce": "0x01",
                "balance": "0x00",
                "code": "0x3373fffffffffffffffffffffffffffffffffffffffe14604d57602036146024575f5ffd5b5f35801560495762001fff810690815414603c575f5ffd5b62001fff01545f5260205ff35b5f5ffd5b62001fff42064281555f359062001fff015500",
                "storage": {}
            },
            "0xa94f5374fce5edbc8e2a8697c15331677e6ebf0b": {
                "nonce": "0x00",
                "balance": "0x3635c9adc5dea00000",
                "code": "0x",
                "storage": {}
            },
            "0x0000000000000000000000000000000000001000": {
                "nonce": "0x01",
                "balance": "0x00",
                "code": "0xef00010100040200010032030001003d04000000008000047f45454545454545454545454545454545454545454545454545454545454545456000526020600060006000ec0060035500ef0001010004020001001103000100140400000000800003366000600037600051600455366000ee00ef00010100040200010001040000000080000000",
                "storage": {}
            }
        },
        "postState": {
            "0x0000000000000000000000000000000000001000": {
                "nonce": "0x02",
                "balance": "0x00",
                "code": "0xef00010100040200010032030001003d04000000008000047f45454545454545454545454545454545454545454545454545454545454545456000526020600060006000ec0060035500ef0001010004020001001103000100140400000000800003366000600037600051600455366000ee00ef00010100040200010001040000000080000000",
                "storage": {
                    "0x03": "0x4512e61602d49aba37cfec55b732decf79ca7393"
                }
            },
            "0x00000000219ab540356cbb839cbe05303d7705fa": {
                "nonce": "0x01",
                "balance": "0x00",
                "code": "0x60806040526004361061003f5760003560e01c806301ffc9a71461004457806322895118146100a4578063621fd130146101ba578063c5f2892f14610244575b600080fd5b34801561005057600080fd5b506100906004803603602081101561006757600080fd5b50357fffffffff000000000000000000000000000000000000000000000000000000001661026b565b604080519115158252519081900360200190f35b6101b8600480360360808110156100ba57600080fd5b8101906020810181356401000000008111156100d557600080fd5b8201836020820111156100e757600080fd5b8035906020019184600183028401116401000000008311171561010957600080fd5b91939092909160208101903564010000000081111561012757600080fd5b82018360208201111561013957600080fd5b8035906020019184600183028401116401000000008311171561015b57600080fd5b91939092909160208101903564010000000081111561017957600080fd5b82018360208201111561018b57600080fd5b803590602001918460018302840111640100000000831117156101ad57600080fd5b919350915035610304565b005b3480156101c657600080fd5b506101cf6110b5565b6040805160208082528351818301528351919283929083019185019080838360005b838110156102095781810151838201526020016101f1565b50505050905090810190601f1680156102365780820380516001836020036101000a031916815260200191505b509250505060405180910390f35b34801561025057600080fd5b506102596110c7565b60408051918252519081900360200190f35b60007fffffffff0000000000000000000000000000000000000000000000000000000082167f01ffc9a70000000000000000000000000000000000000000000000000000000014806102fe57507fffffffff0000000000000000000000000000000000000000000000000000000082167f8564090700000000000000000000000000000000000000000000000000000000145b92915050565b6030861461035d576040517f08c379a00000000000000000000000000000000000000000000000000000000081526004018080602001828103825260268152602001806118056026913960400191505060405180910390fd5b602084146103b6576040517f08c379a000000000000000000000000000000000000000000000000000000000815260040180806020018281038252603681526020018061179c6036913960400191505060405180910390fd5b6060821461040f576040517f08c379a00000000000000000000000000000000000000000000000000000000081526004018080602001828103825260298152602001806118786029913960400191505060405180910390fd5b670de0b6b3a7640000341015610470576040517f08c379a00000000000000000000000000000000000000000000000000000000081526004018080602001828103825260268152602001806118526026913960400191505060405180910390fd5b633b9aca003406156104cd576040517f08c379a00000000000000000000000000000000000000000000000000000000081526004018080602001828103825260338152602001806117d26033913960400191505060405180910390fd5b633b9aca00340467ffffffffffffffff811115610535576040517f08c379a000000000000000000000000000000000000000000000000000000000815260040180806020018281038252602781526020018061182b6027913960400191505060405180910390fd5b6060610540826114ba565b90507f649bbc62d0e31342afea4e5cd82d4049e7e1ee912fc0889aa790803be39038c589898989858a8a6105756020546114ba565b6040805160a0808252810189905290819060208201908201606083016080840160c085018e8e80828437600083820152601f017fffffffffffffffffffffffffffffffffffffffffffffffffffffffffffffffe01690910187810386528c815260200190508c8c808284376000838201819052601f9091017fffffffffffffffffffffffffffffffffffffffffffffffffffffffffffffffe01690920188810386528c5181528c51602091820193918e019250908190849084905b83811015610648578181015183820152602001610630565b50505050905090810190601f1680156106755780820380516001836020036101000a031916815260200191505b5086810383528881526020018989808284376000838201819052601f9091017fffffffffffffffffffffffffffffffffffffffffffffffffffffffffffffffe0169092018881038452895181528951602091820193918b019250908190849084905b838110156106ef5781810151838201526020016106d7565b50505050905090810190601f16801561071c5780820380516001836020036101000a031916815260200191505b509d505050505050505050505050505060405180910390a1600060028a8a600060801b604051602001808484808284377fffffffffffffffffffffffffffffffff0000000000000000000000000000000090941691909301908152604080517ffffffffffffffffffffffffffffffffffffffffffffffffffffffffffffffff0818403018152601090920190819052815191955093508392506020850191508083835b602083106107fc57805182527fffffffffffffffffffffffffffffffffffffffffffffffffffffffffffffffe090920191602091820191016107bf565b51815160209384036101000a7fffffffffffffffffffffffffffffffffffffffffffffffffffffffffffffffff01801990921691161790526040519190930194509192505080830381855afa158015610859573d6000803e3d6000fd5b5050506040513d602081101561086e57600080fd5b5051905060006002806108846040848a8c6116fe565b6040516020018083838082843780830192505050925050506040516020818303038152906040526040518082805190602001908083835b602083106108f857805182527fffffffffffffffffffffffffffffffffffffffffffffffffffffffffffffffe090920191602091820191016108bb565b51815160209384036101000a7fffffffffffffffffffffffffffffffffffffffffffffffffffffffffffffffff01801990921691161790526040519190930194509192505080830381855afa158015610955573d6000803e3d6000fd5b5050506040513d602081101561096a57600080fd5b5051600261097b896040818d6116fe565b60405160009060200180848480828437919091019283525050604080518083038152602092830191829052805190945090925082918401908083835b602083106109f457805182527fffffffffffffffffffffffffffffffffffffffffffffffffffffffffffffffe090920191602091820191016109b7565b51815160209384036101000a7fffffffffffffffffffffffffffffffffffffffffffffffffffffffffffffffff01801990921691161790526040519190930194509192505080830381855afa158015610a51573d6000803e3d6000fd5b5050506040513d6020811015610a6657600080fd5b5051604080516020818101949094528082019290925280518083038201815260609092019081905281519192909182918401908083835b60208310610ada57805182527fffffffffffffffffffffffffffffffffffffffffffffffffffffffffffffffe09092019160209182019101610a9d565b51815160209384036101000a7fffffffffffffffffffffffffffffffffffffffffffffffffffffffffffffffff01801990921691161790526040519190930194509192505080830381855afa158015610b37573d6000803e3d6000fd5b5050506040513d6020811015610b4c57600080fd5b50516040805160208101858152929350600092600292839287928f928f92018383808284378083019250505093505050506040516020818303038152906040526040518082805190602001908083835b60208310610bd957805182527fffffffffffffffffffffffffffffffffffffffffffffffffffffffffffffffe09092019160209182019101610b9c565b51815160209384036101000a7fffffffffffffffffffffffffffffffffffffffffffffffffffffffffffffffff01801990921691161790526040519190930194509192505080830381855afa158015610c36573d6000803e3d6000fd5b5050506040513d6020811015610c4b57600080fd5b50516040518651600291889160009188916020918201918291908601908083835b60208310610ca957805182527fffffffffffffffffffffffffffffffffffffffffffffffffffffffffffffffe09092019160209182019101610c6c565b6001836020036101000a0380198251168184511680821785525050505050509050018367ffffffffffffffff191667ffffffffffffffff1916815260180182815260200193505050506040516020818303038152906040526040518082805190602001908083835b60208310610d4e57805182527fffffffffffffffffffffffffffffffffffffffffffffffffffffffffffffffe09092019160209182019101610d11565b51815160209384036101000a7fffffffffffffffffffffffffffffffffffffffffffffffffffffffffffffffff01801990921691161790526040519190930194509192505080830381855afa158015610dab573d6000803e3d6000fd5b5050506040513d6020811015610dc057600080fd5b5051604080516020818101949094528082019290925280518083038201815260609092019081905281519192909182918401908083835b60208310610e3457805182527fffffffffffffffffffffffffffffffffffffffffffffffffffffffffffffffe09092019160209182019101610df7565b51815160209384036101000a7fffffffffffffffffffffffffffffffffffffffffffffffffffffffffffffffff01801990921691161790526040519190930194509192505080830381855afa158015610e91573d6000803e3d6000fd5b5050506040513d6020811015610ea657600080fd5b50519050858114610f02576040517f08c379a00000000000000000000000000000000000000000000000000000000081526004018080602001828103825260548152602001806117486054913960600191505060405180910390fd5b60205463ffffffff11610f60576040517f08c379a00000000000000000000000000000000000000000000000000000000081526004018080602001828103825260218152602001806117276021913960400191505060405180910390fd5b602080546001019081905560005b60208110156110a9578160011660011415610fa0578260008260208110610f9157fe5b0155506110ac95505050505050565b600260008260208110610faf57fe5b01548460405160200180838152602001828152602001925050506040516020818303038152906040526040518082805190602001908083835b6020831061102557805182527fffffffffffffffffffffffffffffffffffffffffffffffffffffffffffffffe09092019160209182019101610fe8565b51815160209384036101000a7fffffffffffffffffffffffffffffffffffffffffffffffffffffffffffffffff01801990921691161790526040519190930194509192505080830381855afa158015611082573d6000803e3d6000fd5b5050506040513d602081101561109757600080fd5b50519250600282049150600101610f6e565b50fe5b50505050505050565b60606110c26020546114ba565b905090565b6020546000908190815b60208110156112f05781600116600114156111e6576002600082602081106110f557fe5b01548460405160200180838152602001828152602001925050506040516020818303038152906040526040518082805190602001908083835b6020831061116b57805182527fffffffffffffffffffffffffffffffffffffffffffffffffffffffffffffffe0909201916020918201910161112e565b51815160209384036101000a7fffffffffffffffffffffffffffffffffffffffffffffffffffffffffffffffff01801990921691161790526040519190930194509192505080830381855afa1580156111c8573d6000803e3d6000fd5b5050506040513d60208110156111dd57600080fd5b505192506112e2565b600283602183602081106111f657fe5b015460405160200180838152602001828152602001925050506040516020818303038152906040526040518082805190602001908083835b6020831061126b57805182527fffffffffffffffffffffffffffffffffffffffffffffffffffffffffffffffe0909201916020918201910161122e565b51815160209384036101000a7fffffffffffffffffffffffffffffffffffffffffffffffffffffffffffffffff01801990921691161790526040519190930194509192505080830381855afa1580156112c8573d6000803e3d6000fd5b5050506040513d60208110156112dd57600080fd5b505192505b6002820491506001016110d1565b506002826112ff6020546114ba565b600060401b6040516020018084815260200183805190602001908083835b6020831061135a57805182527fffffffffffffffffffffffffffffffffffffffffffffffffffffffffffffffe0909201916020918201910161131d565b51815160209384036101000a7fffffffffffffffffffffffffffffffffffffffffffffffffffffffffffffffff01801990921691161790527fffffffffffffffffffffffffffffffffffffffffffffffff000000000000000095909516920191825250604080518083037ffffffffffffffffffffffffffffffffffffffffffffffffffffffffffffffff8018152601890920190819052815191955093508392850191508083835b6020831061143f57805182527fffffffffffffffffffffffffffffffffffffffffffffffffffffffffffffffe09092019160209182019101611402565b51815160209384036101000a7fffffffffffffffffffffffffffffffffffffffffffffffffffffffffffffffff01801990921691161790526040519190930194509192505080830381855afa15801561149c573d6000803e3d6000fd5b5050506040513d60208110156114b157600080fd5b50519250505090565b60408051600880825281830190925260609160208201818036833701905050905060c082901b8060071a60f81b826000815181106114f457fe5b60200101907effffffffffffffffffffffffffffffffffffffffffffffffffffffffffffff1916908160001a9053508060061a60f81b8260018151811061153757fe5b60200101907effffffffffffffffffffffffffffffffffffffffffffffffffffffffffffff1916908160001a9053508060051a60f81b8260028151811061157a57fe5b60200101907effffffffffffffffffffffffffffffffffffffffffffffffffffffffffffff1916908160001a9053508060041a60f81b826003815181106115bd57fe5b60200101907effffffffffffffffffffffffffffffffffffffffffffffffffffffffffffff1916908160001a9053508060031a60f81b8260048151811061160057fe5b60200101907effffffffffffffffffffffffffffffffffffffffffffffffffffffffffffff1916908160001a9053508060021a60f81b8260058151811061164357fe5b60200101907effffffffffffffffffffffffffffffffffffffffffffffffffffffffffffff1916908160001a9053508060011a60f81b8260068151811061168657fe5b60200101907effffffffffffffffffffffffffffffffffffffffffffffffffffffffffffff1916908160001a9053508060001a60f81b826007815181106116c957fe5b60200101907effffffffffffffffffffffffffffffffffffffffffffffffffffffffffffff1916908160001a90535050919050565b6000808585111561170d578182fd5b83861115611719578182fd5b505082019391909203915056fe4465706f736974436f6e74726163743a206d65726b6c6520747265652066756c6c4465706f736974436f6e74726163743a207265636f6e7374727563746564204465706f7369744461746120646f6573206e6f74206d6174636820737570706c696564206465706f7369745f646174615f726f6f744465706f736974436f6e74726163743a20696e76616c6964207769746864726177616c5f63726564656e7469616c73206c656e6774684465706f736974436f6e74726163743a206465706f7369742076616c7565206e6f74206d756c7469706c65206f6620677765694465706f736974436f6e74726163743a20696e76616c6964207075626b6579206c656e6774684465706f736974436f6e74726163743a206465706f7369742076616c756520746f6f20686967684465706f736974436f6e74726163743a206465706f7369742076616c756520746f6f206c6f774465706f736974436f6e74726163743a20696e76616c6964207369676e6174757265206c656e677468a2646970667358221220dceca8706b29e917dacf25fceef95acac8d90d765ac926663ce4096195952b6164736f6c634300060b0033",
                "storage": {
                    "0x22": "0xf5a5fd42d16a20302798ef6ed309979b43003d2320d9f0e8ea9831a92759fb4b",
                    "0x23": "0xdb56114e00fdd4c1f85c892bf35ac9a89289aaecb1ebd0a96cde606a748b5d71",
                    "0x24": "0xc78009fdf07fc56a11f122370658a353aaa542ed63e44c4bc15ff4cd105ab33c",
                    "0x25": "0x536d98837f2dd165a55d5eeae91485954472d56f246df256bf3cae19352a123c",
                    "0x26": "0x9efde052aa15429fae05bad4d0b1d7c64da64d03d7a1854a588c2cb8430c0d30",
                    "0x27": "0xd88ddfeed400a8755596b21942c1497e114c302e6118290f91e6772976041fa1",
                    "0x28": "0x87eb0ddba57e35f6d286673802a4af5975e22506c7cf4c64bb6be5ee11527f2c",
                    "0x29": "0x26846476fd5fc54a5d43385167c95144f2643f533cc85bb9d16b782f8d7db193",
                    "0x2a": "0x506d86582d252405b840018792cad2bf1259f1ef5aa5f887e13cb2f0094f51e1",
                    "0x2b": "0xffff0ad7e659772f9534c195c815efc4014ef1e1daed4404c06385d11192e92b",
                    "0x2c": "0x6cf04127db05441cd833107a52be852868890e4317e6a02ab47683aa75964220",
                    "0x2d": "0xb7d05f875f140027ef5118a2247bbb84ce8f2f0f1123623085daf7960c329f5f",
                    "0x2e": "0xdf6af5f5bbdb6be9ef8aa618e4bf8073960867171e29676f8b284dea6a08a85e",
                    "0x2f": "0xb58d900f5e182e3c50ef74969ea16c7726c549757cc23523c369587da7293784",
                    "0x30": "0xd49a7502ffcfb0340b1d7885688500ca308161a7f96b62df9d083b71fcc8f2bb",
                    "0x31": "0x8fe6b1689256c0d385f42f5bbe2027a22c1996e110ba97c171d3e5948de92beb",
                    "0x32": "0x8d0d63c39ebade8509e0ae3c9c3876fb5fa112be18f905ecacfecb92057603ab",
                    "0x33": "0x95eec8b2e541cad4e91de38385f2e046619f54496c2382cb6cacd5b98c26f5a4",
                    "0x34": "0xf893e908917775b62bff23294dbbe3a1cd8e6cc1c35b4801887b646a6f81f17f",
                    "0x35": "0xcddba7b592e3133393c16194fac7431abf2f5485ed711db282183c819e08ebaa",
                    "0x36": "0x8a8d7fe3af8caa085a7639a832001457dfb9128a8061142ad0335629ff23ff9c",
                    "0x37": "0xfeb3c337d7a51a6fbf00b9e34c52e1c9195c969bd4e7a0bfd51d5c5bed9c1167",
                    "0x38": "0xe71f0aa83cc32edfbefa9f4d3e0174ca85182eec9f3a09f6a6c0df6377a510d7",
                    "0x39": "0x31206fa80a50bb6abe29085058f16212212a60eec8f049fecb92d8c8e0a84bc0",
                    "0x3a": "0x21352bfecbeddde993839f614c3dac0a3ee37543f9b412b16199dc158e23b544",
                    "0x3b": "0x619e312724bb6d7c3153ed9de791d764a366b389af13c58bf8a8d90481a46765",
                    "0x3c": "0x7cdd2986268250628d0c10e385c58c6191e6fbe05191bcc04f133f2cea72c1c4",
                    "0x3d": "0x848930bd7ba8cac54661072113fb278869e07bb8587f91392933374d017bcbe1",
                    "0x3e": "0x8869ff2c22b28cc10510d9853292803328be4fb0e80495e8bb8d271f5b889636",
                    "0x3f": "0xb5fe28e79f1b850f8658246ce9b6a1e7b49fc06db7143e8fe0b4f2b0c5523a5c",
                    "0x40": "0x985e929f70af28d0bdd1a90a808f977f597c7c778c489e98d3bd8910d31ac0f7"
                }
            },
            "0x000f3df6d732807ef1319fb7b8bb8522d0beac02": {
                "nonce": "0x01",
                "balance": "0x00",
                "code": "0x3373fffffffffffffffffffffffffffffffffffffffe14604d57602036146024575f5ffd5b5f35801560495762001fff810690815414603c575f5ffd5b62001fff01545f5260205ff35b5f5ffd5b62001fff42064281555f359062001fff015500",
                "storage": {
                    "0x03e8": "0x03e8"
                }
            },
            "0x00a3ca265ebcb825b45f985a16cefb49958ce017": {
                "nonce": "0x01",
                "balance": "0x00",
                "code": "0x3373fffffffffffffffffffffffffffffffffffffffe146090573615156028575f545f5260205ff35b366038141561012e5760115f54600182026001905f5b5f82111560595781019083028483029004916001019190603e565b90939004341061012e57600154600101600155600354806003026004013381556001015f3581556001016020359055600101600355005b6003546002548082038060101160a4575060105b5f5b81811460dd5780604c02838201600302600401805490600101805490600101549160601b83528260140152906034015260010160a6565b910180921460ed579060025560f8565b90505f6002555f6003555b5f548061049d141561010757505f5b60015460028282011161011c5750505f610122565b01600290035b5f555f600155604c025ff35b5f5ffd",
                "storage": {}
            },
            "0x00b42dbf2194e931e80326d950320f7d9dbeac02": {
                "nonce": "0x01",
                "balance": "0x00",
                "code": "0x3373fffffffffffffffffffffffffffffffffffffffe146098573615156028575f545f5260205ff35b36606014156101445760115f54600182026001905f5b5f82111560595781019083028483029004916001019190603e565b90939004341061014457600154600101600155600354806004026004013381556001015f35815560010160203581556001016040359055600101600355005b6003546002548082038060011160ac575060015b5f5b81811460f15780607402838201600402600401805490600101805490600101805490600101549260601b84529083601401528260340152906054015260010160ae565b9101809214610103579060025561010e565b90505f6002555f6003555b5f548061049d141561011d57505f5b6001546001828201116101325750505f610138565b01600190035b5f555f6001556074025ff35b5f5ffd",
                "storage": {}
            },
            "0x0aae40965e6800cd9b1f4b05ff21581047e3f91e": {
                "nonce": "0x01",
                "balance": "0x00",
                "code": "0x3373fffffffffffffffffffffffffffffffffffffffe1460575767ffffffffffffffff5f3511605357600143035f3511604b575f35612000014311604b57611fff5f3516545f5260205ff35b5f5f5260205ff35b5f5ffd5b5f35611fff60014303165500",
                "storage": {
                    "0x00": "0x5c560fa9f6e65ff72ce84c645a783420cf1a67ea2d0d181ab809b96e8b472794"
                }
            },
            "0x2adc25665018aa1fe0e6bc666dac8fc2697ff9ba": {
                "nonce": "0x00",
                "balance": "0x04edc2",
                "code": "0x",
                "storage": {}
            },
            "0x4512e61602d49aba37cfec55b732decf79ca7393": {
                "nonce": "0x01",
                "balance": "0x00",
                "code": "0xef000101000402000100010400200000800000004545454545454545454545454545454545454545454545454545454545454545",
                "storage": {
                    "0x04": "0x4545454545454545454545454545454545454545454545454545454545454545"
                }
            },
            "0xa94f5374fce5edbc8e2a8697c15331677e6ebf0b": {
                "nonce": "0x01",
                "balance": "0x3635c9adc5de8f9224",
                "code": "0x",
                "storage": {}
            }
        },
        "lastblockhash": "0xccf1ad96b3fc376251590b018f9aba3768b85aef80181dd4a62d8b2e167d9428",
        "engineNewPayloads": [
            {
                "params": [
                    {
                        "parentHash": "0x5c560fa9f6e65ff72ce84c645a783420cf1a67ea2d0d181ab809b96e8b472794",
                        "feeRecipient": "0x2adc25665018aa1fe0e6bc666dac8fc2697ff9ba",
                        "stateRoot": "0x7c84ee6879b05f2b7e8dbf2fe97cb18750744ac49ceb2200fd551f26b967e865",
                        "receiptsRoot": "0x475473ba9680fabc20e7bc8f286f6cc843377783c895563e3a70d2188f62923d",
                        "logsBloom": "0x00000000000000000000000000000000000000000000000000000000000000000000000000000000000000000000000000000000000000000000000000000000000000000000000000000000000000000000000000000000000000000000000000000000000000000000000000000000000000000000000000000000000000000000000000000000000000000000000000000000000000000000000000000000000000000000000000000000000000000000000000000000000000000000000000000000000000000000000000000000000000000000000000000000000000000000000000000000000000000000000000000000000000000000000000000000",
                        "blockNumber": "0x1",
                        "gasLimit": "0x16345785d8a0000",
                        "gasUsed": "0x1a496",
                        "timestamp": "0x3e8",
                        "extraData": "0x00",
                        "prevRandao": "0x0000000000000000000000000000000000000000000000000000000000000000",
                        "baseFeePerGas": "0x7",
                        "blobGasUsed": "0x0",
                        "excessBlobGas": "0x0",
                        "blockHash": "0xccf1ad96b3fc376251590b018f9aba3768b85aef80181dd4a62d8b2e167d9428",
                        "transactions": [
                            "0xf860800a8398968094000000000000000000000000000000000000100080801ba00a827f57dab1e27137696202f240cb95cfc25acf2f077f6b32a7ca3ac039baf0a055fdd3269172368d880a16fa4192049edd5211d8cbb1d5222a0a77b11174d574"
                        ],
                        "withdrawals": [],
                        "depositRequests": [],
                        "withdrawalRequests": [],
                        "consolidationRequests": []
                    },
                    [],
                    "0x0000000000000000000000000000000000000000000000000000000000000000"
                ],
                "newPayloadVersion": "4",
                "forkchoiceUpdatedVersion": "3"
            }
        ],
        "_info": {
            "hash": "0x279e5156b66ee9382fff08fd0ffcb4f9625ca32d4e3cd50c1b04a949b8f29a73",
            "comment": "`execution-spec-tests` generated test",
            "filling-transition-tool": "Hyperledger Besu evm 24.9-develop-0d63955",
            "description": "Test function documentation:\n\n    Verifies CALLDATA passing through EOFCREATE",
            "url": "https://github.com/ethereum/execution-spec-tests/blob/eip7692@v1.1.1/tests/prague/eip7692_eof_v1/eip7620_eof_create/test_eofcreate.py#L218",
            "reference-spec": "https://github.com/ethereum/EIPs/blob/master/EIPS/eip-7620.md",
            "reference-spec-version": "52ddbcdddcf72dd72427c319f2beddeb468e1737"
        }
    }
}