{
    "tests/prague/eip7692_eof_v1/eip663_dupn_swapn_exchange/test_dupn.py::test_dupn_all_valid_immediates[fork_CancunEIP7692-blockchain_test]": {
        "network": "Prague",
        "genesisBlockHeader": {
            "parentHash": "0x0000000000000000000000000000000000000000000000000000000000000000",
            "uncleHash": "0x1dcc4de8dec75d7aab85b567b6ccd41ad312451b948a7413f0a142fd40d49347",
            "coinbase": "0x0000000000000000000000000000000000000000",
            "stateRoot": "0xc6a3ee6fab31dd9642d7d22819e78bfa86527fb93c6a9e7b6ec3767a9ffe7838",
            "transactionsTrie": "0x56e81f171bcc55a6ff8345e692c0f86e5b48e01b996cadc001622fb5e363b421",
            "receiptTrie": "0x56e81f171bcc55a6ff8345e692c0f86e5b48e01b996cadc001622fb5e363b421",
            "bloom": "0x00000000000000000000000000000000000000000000000000000000000000000000000000000000000000000000000000000000000000000000000000000000000000000000000000000000000000000000000000000000000000000000000000000000000000000000000000000000000000000000000000000000000000000000000000000000000000000000000000000000000000000000000000000000000000000000000000000000000000000000000000000000000000000000000000000000000000000000000000000000000000000000000000000000000000000000000000000000000000000000000000000000000000000000000000000000",
            "difficulty": "0x00",
            "number": "0x00",
            "gasLimit": "0x016345785d8a0000",
            "gasUsed": "0x00",
            "timestamp": "0x00",
            "extraData": "0x00",
            "mixHash": "0x0000000000000000000000000000000000000000000000000000000000000000",
            "nonce": "0x0000000000000000",
            "baseFeePerGas": "0x07",
            "withdrawalsRoot": "0x56e81f171bcc55a6ff8345e692c0f86e5b48e01b996cadc001622fb5e363b421",
            "blobGasUsed": "0x00",
            "excessBlobGas": "0x00",
            "parentBeaconBlockRoot": "0x0000000000000000000000000000000000000000000000000000000000000000",
            "hash": "0x42e54409330e5e98ac27c2fed6671442b4ea57010406c2ecc19f2c42ecadf105"
        },
        "pre": {
            "0x000f3df6d732807ef1319fb7b8bb8522d0beac02": {
                "nonce": "0x01",
                "balance": "0x00",
                "code": "0x3373fffffffffffffffffffffffffffffffffffffffe14604d57602036146024575f5ffd5b5f35801560495762001fff810690815414603c575f5ffd5b62001fff01545f5260205ff35b5f5ffd5b62001fff42064281555f359062001fff015500",
                "storage": {}
            },
            "0xa94f5374fce5edbc8e2a8697c15331677e6ebf0b": {
                "nonce": "0x00",
                "balance": "0x3b9aca00",
                "code": "0x",
                "storage": {}
            },
            "0x0000000000000000000000000000000000001000": {
                "nonce": "0x01",
                "balance": "0x00",
                "code": "0xef000101000402000108010400000000800102610d00610d01610d02610d03610d04610d05610d06610d07610d08610d09610d0a610d0b610d0c610d0d610d0e610d0f610d10610d11610d12610d13610d14610d15610d16610d17610d18610d19610d1a610d1b610d1c610d1d610d1e610d1f610d20610d21610d22610d23610d24610d25610d26610d27610d28610d29610d2a610d2b610d2c610d2d610d2e610d2f610d30610d31610d32610d33610d34610d35610d36610d37610d38610d39610d3a610d3b610d3c610d3d610d3e610d3f610d40610d41610d42610d43610d44610d45610d46610d47610d48610d49610d4a610d4b610d4c610d4d610d4e610d4f610d50610d51610d52610d53610d54610d55610d56610d57610d58610d59610d5a610d5b610d5c610d5d610d5e610d5f610d60610d61610d62610d63610d64610d65610d66610d67610d68610d69610d6a610d6b610d6c610d6d610d6e610d6f610d70610d71610d72610d73610d74610d75610d76610d77610d78610d79610d7a610d7b610d7c610d7d610d7e610d7f610d80610d81610d82610d83610d84610d85610d86610d87610d88610d89610d8a610d8b610d8c610d8d610d8e610d8f610d90610d91610d92610d93610d94610d95610d96610d97610d98610d99610d9a610d9b610d9c610d9d610d9e610d9f610da0610da1610da2610da3610da4610da5610da6610da7610da8610da9610daa610dab610dac610dad610dae610daf610db0610db1610db2610db3610db4610db5610db6610db7610db8610db9610dba610dbb610dbc610dbd610dbe610dbf610dc0610dc1610dc2610dc3610dc4610dc5610dc6610dc7610dc8610dc9610dca610dcb610dcc610dcd610dce610dcf610dd0610dd1610dd2610dd3610dd4610dd5610dd6610dd7610dd8610dd9610dda610ddb610ddc610ddd610dde610ddf610de0610de1610de2610de3610de4610de5610de6610de7610de8610de9610dea610deb610dec610ded610dee610def610df0610df1610df2610df3610df4610df5610df6610df7610df8610df9610dfa610dfb610dfc610dfd610dfe610dffe600600055e601600155e602600255e603600355e604600455e605600555e606600655e607600755e608600855e609600955e60a600a55e60b600b55e60c600c55e60d600d55e60e600e55e60f600f55e610601055e611601155e612601255e613601355e614601455e615601555e616601655e617601755e618601855e619601955e61a601a55e61b601b55e61c601c55e61d601d55e61e601e55e61f601f55e620602055e621602155e622602255e623602355e624602455e625602555e626602655e627602755e628602855e629602955e62a602a55e62b602b55e62c602c55e62d602d55e62e602e55e62f602f55e630603055e631603155e632603255e633603355e634603455e635603555e636603655e637603755e638603855e639603955e63a603a55e63b603b55e63c603c55e63d603d55e63e603e55e63f603f55e640604055e641604155e642604255e643604355e644604455e645604555e646604655e647604755e648604855e649604955e64a604a55e64b604b55e64c604c55e64d604d55e64e604e55e64f604f55e650605055e651605155e652605255e653605355e654605455e655605555e656605655e657605755e658605855e659605955e65a605a55e65b605b55e65c605c55e65d605d55e65e605e55e65f605f55e660606055e661606155e662606255e663606355e664606455e665606555e666606655e667606755e668606855e669606955e66a606a55e66b606b55e66c606c55e66d606d55e66e606e55e66f606f55e670607055e671607155e672607255e673607355e674607455e675607555e676607655e677607755e678607855e679607955e67a607a55e67b607b55e67c607c55e67d607d55e67e607e55e67f607f55e680608055e681608155e682608255e683608355e684608455e685608555e686608655e687608755e688608855e689608955e68a608a55e68b608b55e68c608c55e68d608d55e68e608e55e68f608f55e690609055e691609155e692609255e693609355e694609455e695609555e696609655e697609755e698609855e699609955e69a609a55e69b609b55e69c609c55e69d609d55e69e609e55e69f609f55e6a060a055e6a160a155e6a260a255e6a360a355e6a460a455e6a560a555e6a660a655e6a760a755e6a860a855e6a960a955e6aa60aa55e6ab60ab55e6ac60ac55e6ad60ad55e6ae60ae55e6af60af55e6b060b055e6b160b155e6b260b255e6b360b355e6b460b455e6b560b555e6b660b655e6b760b755e6b860b855e6b960b955e6ba60ba55e6bb60bb55e6bc60bc55e6bd60bd55e6be60be55e6bf60bf55e6c060c055e6c160c155e6c260c255e6c360c355e6c460c455e6c560c555e6c660c655e6c760c755e6c860c855e6c960c955e6ca60ca55e6cb60cb55e6cc60cc55e6cd60cd55e6ce60ce55e6cf60cf55e6d060d055e6d160d155e6d260d255e6d360d355e6d460d455e6d560d555e6d660d655e6d760d755e6d860d855e6d960d955e6da60da55e6db60db55e6dc60dc55e6dd60dd55e6de60de55e6df60df55e6e060e055e6e160e155e6e260e255e6e360e355e6e460e455e6e560e555e6e660e655e6e760e755e6e860e855e6e960e955e6ea60ea55e6eb60eb55e6ec60ec55e6ed60ed55e6ee60ee55e6ef60ef55e6f060f055e6f160f155e6f260f255e6f360f355e6f460f455e6f560f555e6f660f655e6f760f755e6f860f855e6f960f955e6fa60fa55e6fb60fb55e6fc60fc55e6fd60fd55e6fe60fe55e6ff60ff5500",
                "storage": {}
            }
        },
        "postState": {
            "0x0000000000000000000000000000000000001000": {
                "nonce": "0x01",
                "balance": "0x00",
                "code": "0xef000101000402000108010400000000800102610d00610d01610d02610d03610d04610d05610d06610d07610d08610d09610d0a610d0b610d0c610d0d610d0e610d0f610d10610d11610d12610d13610d14610d15610d16610d17610d18610d19610d1a610d1b610d1c610d1d610d1e610d1f610d20610d21610d22610d23610d24610d25610d26610d27610d28610d29610d2a610d2b610d2c610d2d610d2e610d2f610d30610d31610d32610d33610d34610d35610d36610d37610d38610d39610d3a610d3b610d3c610d3d610d3e610d3f610d40610d41610d42610d43610d44610d45610d46610d47610d48610d49610d4a610d4b610d4c610d4d610d4e610d4f610d50610d51610d52610d53610d54610d55610d56610d57610d58610d59610d5a610d5b610d5c610d5d610d5e610d5f610d60610d61610d62610d63610d64610d65610d66610d67610d68610d69610d6a610d6b610d6c610d6d610d6e610d6f610d70610d71610d72610d73610d74610d75610d76610d77610d78610d79610d7a610d7b610d7c610d7d610d7e610d7f610d80610d81610d82610d83610d84610d85610d86610d87610d88610d89610d8a610d8b610d8c610d8d610d8e610d8f610d90610d91610d92610d93610d94610d95610d96610d97610d98610d99610d9a610d9b610d9c610d9d610d9e610d9f610da0610da1610da2610da3610da4610da5610da6610da7610da8610da9610daa610dab610dac610dad610dae610daf610db0610db1610db2610db3610db4610db5610db6610db7610db8610db9610dba610dbb610dbc610dbd610dbe610dbf610dc0610dc1610dc2610dc3610dc4610dc5610dc6610dc7610dc8610dc9610dca610dcb610dcc610dcd610dce610dcf610dd0610dd1610dd2610dd3610dd4610dd5610dd6610dd7610dd8610dd9610dda610ddb610ddc610ddd610dde610ddf610de0610de1610de2610de3610de4610de5610de6610de7610de8610de9610dea610deb610dec610ded610dee610def610df0610df1610df2610df3610df4610df5610df6610df7610df8610df9610dfa610dfb610dfc610dfd610dfe610dffe600600055e601600155e602600255e603600355e604600455e605600555e606600655e607600755e608600855e609600955e60a600a55e60b600b55e60c600c55e60d600d55e60e600e55e60f600f55e610601055e611601155e612601255e613601355e614601455e615601555e616601655e617601755e618601855e619601955e61a601a55e61b601b55e61c601c55e61d601d55e61e601e55e61f601f55e620602055e621602155e622602255e623602355e624602455e625602555e626602655e627602755e628602855e629602955e62a602a55e62b602b55e62c602c55e62d602d55e62e602e55e62f602f55e630603055e631603155e632603255e633603355e634603455e635603555e636603655e637603755e638603855e639603955e63a603a55e63b603b55e63c603c55e63d603d55e63e603e55e63f603f55e640604055e641604155e642604255e643604355e644604455e645604555e646604655e647604755e648604855e649604955e64a604a55e64b604b55e64c604c55e64d604d55e64e604e55e64f604f55e650605055e651605155e652605255e653605355e654605455e655605555e656605655e657605755e658605855e659605955e65a605a55e65b605b55e65c605c55e65d605d55e65e605e55e65f605f55e660606055e661606155e662606255e663606355e664606455e665606555e666606655e667606755e668606855e669606955e66a606a55e66b606b55e66c606c55e66d606d55e66e606e55e66f606f55e670607055e671607155e672607255e673607355e674607455e675607555e676607655e677607755e678607855e679607955e67a607a55e67b607b55e67c607c55e67d607d55e67e607e55e67f607f55e680608055e681608155e682608255e683608355e684608455e685608555e686608655e687608755e688608855e689608955e68a608a55e68b608b55e68c608c55e68d608d55e68e608e55e68f608f55e690609055e691609155e692609255e693609355e694609455e695609555e696609655e697609755e698609855e699609955e69a609a55e69b609b55e69c609c55e69d609d55e69e609e55e69f609f55e6a060a055e6a160a155e6a260a255e6a360a355e6a460a455e6a560a555e6a660a655e6a760a755e6a860a855e6a960a955e6aa60aa55e6ab60ab55e6ac60ac55e6ad60ad55e6ae60ae55e6af60af55e6b060b055e6b160b155e6b260b255e6b360b355e6b460b455e6b560b555e6b660b655e6b760b755e6b860b855e6b960b955e6ba60ba55e6bb60bb55e6bc60bc55e6bd60bd55e6be60be55e6bf60bf55e6c060c055e6c160c155e6c260c255e6c360c355e6c460c455e6c560c555e6c660c655e6c760c755e6c860c855e6c960c955e6ca60ca55e6cb60cb55e6cc60cc55e6cd60cd55e6ce60ce55e6cf60cf55e6d060d055e6d160d155e6d260d255e6d360d355e6d460d455e6d560d555e6d660d655e6d760d755e6d860d855e6d960d955e6da60da55e6db60db55e6dc60dc55e6dd60dd55e6de60de55e6df60df55e6e060e055e6e160e155e6e260e255e6e360e355e6e460e455e6e560e555e6e660e655e6e760e755e6e860e855e6e960e955e6ea60ea55e6eb60eb55e6ec60ec55e6ed60ed55e6ee60ee55e6ef60ef55e6f060f055e6f160f155e6f260f255e6f360f355e6f460f455e6f560f555e6f660f655e6f760f755e6f860f855e6f960f955e6fa60fa55e6fb60fb55e6fc60fc55e6fd60fd55e6fe60fe55e6ff60ff5500",
                "storage": {
                    "0x00": "0x0dff",
                    "0x01": "0x0dfe",
                    "0x02": "0x0dfd",
                    "0x03": "0x0dfc",
                    "0x04": "0x0dfb",
                    "0x05": "0x0dfa",
                    "0x06": "0x0df9",
                    "0x07": "0x0df8",
                    "0x08": "0x0df7",
                    "0x09": "0x0df6",
                    "0x0a": "0x0df5",
                    "0x0b": "0x0df4",
                    "0x0c": "0x0df3",
                    "0x0d": "0x0df2",
                    "0x0e": "0x0df1",
                    "0x0f": "0x0df0",
                    "0x10": "0x0def",
                    "0x11": "0x0dee",
                    "0x12": "0x0ded",
                    "0x13": "0x0dec",
                    "0x14": "0x0deb",
                    "0x15": "0x0dea",
                    "0x16": "0x0de9",
                    "0x17": "0x0de8",
                    "0x18": "0x0de7",
                    "0x19": "0x0de6",
                    "0x1a": "0x0de5",
                    "0x1b": "0x0de4",
                    "0x1c": "0x0de3",
                    "0x1d": "0x0de2",
                    "0x1e": "0x0de1",
                    "0x1f": "0x0de0",
                    "0x20": "0x0ddf",
                    "0x21": "0x0dde",
                    "0x22": "0x0ddd",
                    "0x23": "0x0ddc",
                    "0x24": "0x0ddb",
                    "0x25": "0x0dda",
                    "0x26": "0x0dd9",
                    "0x27": "0x0dd8",
                    "0x28": "0x0dd7",
                    "0x29": "0x0dd6",
                    "0x2a": "0x0dd5",
                    "0x2b": "0x0dd4",
                    "0x2c": "0x0dd3",
                    "0x2d": "0x0dd2",
                    "0x2e": "0x0dd1",
                    "0x2f": "0x0dd0",
                    "0x30": "0x0dcf",
                    "0x31": "0x0dce",
                    "0x32": "0x0dcd",
                    "0x33": "0x0dcc",
                    "0x34": "0x0dcb",
                    "0x35": "0x0dca",
                    "0x36": "0x0dc9",
                    "0x37": "0x0dc8",
                    "0x38": "0x0dc7",
                    "0x39": "0x0dc6",
                    "0x3a": "0x0dc5",
                    "0x3b": "0x0dc4",
                    "0x3c": "0x0dc3",
                    "0x3d": "0x0dc2",
                    "0x3e": "0x0dc1",
                    "0x3f": "0x0dc0",
                    "0x40": "0x0dbf",
                    "0x41": "0x0dbe",
                    "0x42": "0x0dbd",
                    "0x43": "0x0dbc",
                    "0x44": "0x0dbb",
                    "0x45": "0x0dba",
                    "0x46": "0x0db9",
                    "0x47": "0x0db8",
                    "0x48": "0x0db7",
                    "0x49": "0x0db6",
                    "0x4a": "0x0db5",
                    "0x4b": "0x0db4",
                    "0x4c": "0x0db3",
                    "0x4d": "0x0db2",
                    "0x4e": "0x0db1",
                    "0x4f": "0x0db0",
                    "0x50": "0x0daf",
                    "0x51": "0x0dae",
                    "0x52": "0x0dad",
                    "0x53": "0x0dac",
                    "0x54": "0x0dab",
                    "0x55": "0x0daa",
                    "0x56": "0x0da9",
                    "0x57": "0x0da8",
                    "0x58": "0x0da7",
                    "0x59": "0x0da6",
                    "0x5a": "0x0da5",
                    "0x5b": "0x0da4",
                    "0x5c": "0x0da3",
                    "0x5d": "0x0da2",
                    "0x5e": "0x0da1",
                    "0x5f": "0x0da0",
                    "0x60": "0x0d9f",
                    "0x61": "0x0d9e",
                    "0x62": "0x0d9d",
                    "0x63": "0x0d9c",
                    "0x64": "0x0d9b",
                    "0x65": "0x0d9a",
                    "0x66": "0x0d99",
                    "0x67": "0x0d98",
                    "0x68": "0x0d97",
                    "0x69": "0x0d96",
                    "0x6a": "0x0d95",
                    "0x6b": "0x0d94",
                    "0x6c": "0x0d93",
                    "0x6d": "0x0d92",
                    "0x6e": "0x0d91",
                    "0x6f": "0x0d90",
                    "0x70": "0x0d8f",
                    "0x71": "0x0d8e",
                    "0x72": "0x0d8d",
                    "0x73": "0x0d8c",
                    "0x74": "0x0d8b",
                    "0x75": "0x0d8a",
                    "0x76": "0x0d89",
                    "0x77": "0x0d88",
                    "0x78": "0x0d87",
                    "0x79": "0x0d86",
                    "0x7a": "0x0d85",
                    "0x7b": "0x0d84",
                    "0x7c": "0x0d83",
                    "0x7d": "0x0d82",
                    "0x7e": "0x0d81",
                    "0x7f": "0x0d80",
                    "0x80": "0x0d7f",
                    "0x81": "0x0d7e",
                    "0x82": "0x0d7d",
                    "0x83": "0x0d7c",
                    "0x84": "0x0d7b",
                    "0x85": "0x0d7a",
                    "0x86": "0x0d79",
                    "0x87": "0x0d78",
                    "0x88": "0x0d77",
                    "0x89": "0x0d76",
                    "0x8a": "0x0d75",
                    "0x8b": "0x0d74",
                    "0x8c": "0x0d73",
                    "0x8d": "0x0d72",
                    "0x8e": "0x0d71",
                    "0x8f": "0x0d70",
                    "0x90": "0x0d6f",
                    "0x91": "0x0d6e",
                    "0x92": "0x0d6d",
                    "0x93": "0x0d6c",
                    "0x94": "0x0d6b",
                    "0x95": "0x0d6a",
                    "0x96": "0x0d69",
                    "0x97": "0x0d68",
                    "0x98": "0x0d67",
                    "0x99": "0x0d66",
                    "0x9a": "0x0d65",
                    "0x9b": "0x0d64",
                    "0x9c": "0x0d63",
                    "0x9d": "0x0d62",
                    "0x9e": "0x0d61",
                    "0x9f": "0x0d60",
                    "0xa0": "0x0d5f",
                    "0xa1": "0x0d5e",
                    "0xa2": "0x0d5d",
                    "0xa3": "0x0d5c",
                    "0xa4": "0x0d5b",
                    "0xa5": "0x0d5a",
                    "0xa6": "0x0d59",
                    "0xa7": "0x0d58",
                    "0xa8": "0x0d57",
                    "0xa9": "0x0d56",
                    "0xaa": "0x0d55",
                    "0xab": "0x0d54",
                    "0xac": "0x0d53",
                    "0xad": "0x0d52",
                    "0xae": "0x0d51",
                    "0xaf": "0x0d50",
                    "0xb0": "0x0d4f",
                    "0xb1": "0x0d4e",
                    "0xb2": "0x0d4d",
                    "0xb3": "0x0d4c",
                    "0xb4": "0x0d4b",
                    "0xb5": "0x0d4a",
                    "0xb6": "0x0d49",
                    "0xb7": "0x0d48",
                    "0xb8": "0x0d47",
                    "0xb9": "0x0d46",
                    "0xba": "0x0d45",
                    "0xbb": "0x0d44",
                    "0xbc": "0x0d43",
                    "0xbd": "0x0d42",
                    "0xbe": "0x0d41",
                    "0xbf": "0x0d40",
                    "0xc0": "0x0d3f",
                    "0xc1": "0x0d3e",
                    "0xc2": "0x0d3d",
                    "0xc3": "0x0d3c",
                    "0xc4": "0x0d3b",
                    "0xc5": "0x0d3a",
                    "0xc6": "0x0d39",
                    "0xc7": "0x0d38",
                    "0xc8": "0x0d37",
                    "0xc9": "0x0d36",
                    "0xca": "0x0d35",
                    "0xcb": "0x0d34",
                    "0xcc": "0x0d33",
                    "0xcd": "0x0d32",
                    "0xce": "0x0d31",
                    "0xcf": "0x0d30",
                    "0xd0": "0x0d2f",
                    "0xd1": "0x0d2e",
                    "0xd2": "0x0d2d",
                    "0xd3": "0x0d2c",
                    "0xd4": "0x0d2b",
                    "0xd5": "0x0d2a",
                    "0xd6": "0x0d29",
                    "0xd7": "0x0d28",
                    "0xd8": "0x0d27",
                    "0xd9": "0x0d26",
                    "0xda": "0x0d25",
                    "0xdb": "0x0d24",
                    "0xdc": "0x0d23",
                    "0xdd": "0x0d22",
                    "0xde": "0x0d21",
                    "0xdf": "0x0d20",
                    "0xe0": "0x0d1f",
                    "0xe1": "0x0d1e",
                    "0xe2": "0x0d1d",
                    "0xe3": "0x0d1c",
                    "0xe4": "0x0d1b",
                    "0xe5": "0x0d1a",
                    "0xe6": "0x0d19",
                    "0xe7": "0x0d18",
                    "0xe8": "0x0d17",
                    "0xe9": "0x0d16",
                    "0xea": "0x0d15",
                    "0xeb": "0x0d14",
                    "0xec": "0x0d13",
                    "0xed": "0x0d12",
                    "0xee": "0x0d11",
                    "0xef": "0x0d10",
                    "0xf0": "0x0d0f",
                    "0xf1": "0x0d0e",
                    "0xf2": "0x0d0d",
                    "0xf3": "0x0d0c",
                    "0xf4": "0x0d0b",
                    "0xf5": "0x0d0a",
                    "0xf6": "0x0d09",
                    "0xf7": "0x0d08",
                    "0xf8": "0x0d07",
                    "0xf9": "0x0d06",
                    "0xfa": "0x0d05",
                    "0xfb": "0x0d04",
                    "0xfc": "0x0d03",
                    "0xfd": "0x0d02",
                    "0xfe": "0x0d01",
                    "0xff": "0x0d00"
                }
            },
            "0x000f3df6d732807ef1319fb7b8bb8522d0beac02": {
                "nonce": "0x01",
                "balance": "0x00",
                "code": "0x3373fffffffffffffffffffffffffffffffffffffffe14604d57602036146024575f5ffd5b5f35801560495762001fff810690815414603c575f5ffd5b62001fff01545f5260205ff35b5f5ffd5b62001fff42064281555f359062001fff015500",
                "storage": {
                    "0x03e8": "0x03e8"
                }
            },
            "0x2adc25665018aa1fe0e6bc666dac8fc2697ff9ba": {
                "nonce": "0x00",
                "balance": "0x01040d18",
                "code": "0x",
                "storage": {}
            },
            "0xa94f5374fce5edbc8e2a8697c15331677e6ebf0b": {
                "nonce": "0x01",
                "balance": "0x3837f3b0",
                "code": "0x",
                "storage": {}
            }
        },
        "lastblockhash": "0x7dbf3653c0874cece2845c21739ccbd0a83d6dc3f6ba93a305308c15af5f3563",
        "genesisRLP": "0xf90240f9023aa00000000000000000000000000000000000000000000000000000000000000000a01dcc4de8dec75d7aab85b567b6ccd41ad312451b948a7413f0a142fd40d49347940000000000000000000000000000000000000000a0c6a3ee6fab31dd9642d7d22819e78bfa86527fb93c6a9e7b6ec3767a9ffe7838a056e81f171bcc55a6ff8345e692c0f86e5b48e01b996cadc001622fb5e363b421a056e81f171bcc55a6ff8345e692c0f86e5b48e01b996cadc001622fb5e363b421b9010000000000000000000000000000000000000000000000000000000000000000000000000000000000000000000000000000000000000000000000000000000000000000000000000000000000000000000000000000000000000000000000000000000000000000000000000000000000000000000000000000000000000000000000000000000000000000000000000000000000000000000000000000000000000000000000000000000000000000000000000000000000000000000000000000000000000000000000000000000000000000000000000000000000000000000000000000000000000000000000000000000000000000000000000000000000808088016345785d8a0000808000a0000000000000000000000000000000000000000000000000000000000000000088000000000000000007a056e81f171bcc55a6ff8345e692c0f86e5b48e01b996cadc001622fb5e363b4218080a00000000000000000000000000000000000000000000000000000000000000000c0c0c0",
        "blocks": [
            {
                "blockHeader": {
                    "parentHash": "0x42e54409330e5e98ac27c2fed6671442b4ea57010406c2ecc19f2c42ecadf105",
                    "uncleHash": "0x1dcc4de8dec75d7aab85b567b6ccd41ad312451b948a7413f0a142fd40d49347",
                    "coinbase": "0x2adc25665018aa1fe0e6bc666dac8fc2697ff9ba",
                    "stateRoot": "0x72e23e37213d95c55539079664c4a8f76875debb3f1c6fe52370a3af2fbd231f",
                    "transactionsTrie": "0xec9d10cff79619f2df45db8c66526ef3fbd32d283fdd2dcc9b55c0efe643d8c3",
                    "receiptTrie": "0x5fdc6990c3cd14ea7403b3ca5dfb0f3b3378bac7e941d3f818948f53e2dc37ad",
                    "bloom": "0x00000000000000000000000000000000000000000000000000000000000000000000000000000000000000000000000000000000000000000000000000000000000000000000000000000000000000000000000000000000000000000000000000000000000000000000000000000000000000000000000000000000000000000000000000000000000000000000000000000000000000000000000000000000000000000000000000000000000000000000000000000000000000000000000000000000000000000000000000000000000000000000000000000000000000000000000000000000000000000000000000000000000000000000000000000000",
                    "difficulty": "0x00",
                    "number": "0x01",
                    "gasLimit": "0x016345785d8a0000",
                    "gasUsed": "0x56af08",
                    "timestamp": "0x03e8",
                    "extraData": "0x00",
                    "mixHash": "0x0000000000000000000000000000000000000000000000000000000000000000",
                    "nonce": "0x0000000000000000",
                    "baseFeePerGas": "0x07",
                    "withdrawalsRoot": "0x56e81f171bcc55a6ff8345e692c0f86e5b48e01b996cadc001622fb5e363b421",
                    "blobGasUsed": "0x00",
                    "excessBlobGas": "0x00",
                    "parentBeaconBlockRoot": "0x0000000000000000000000000000000000000000000000000000000000000000",
                    "hash": "0x7dbf3653c0874cece2845c21739ccbd0a83d6dc3f6ba93a305308c15af5f3563"
                },
                "transactions": [
                    {
                        "type": "0x00",
                        "chainId": "0x01",
                        "nonce": "0x00",
                        "gasPrice": "0x0a",
                        "gasLimit": "0x989680",
                        "to": "0x0000000000000000000000000000000000001000",
                        "value": "0x00",
                        "data": "0x",
                        "v": "0x26",
                        "r": "0xe5d462429669f661291a8dc4c49a092cfd4922b6f3f31c9189a2f4adf5ecd730",
                        "s": "0x01494afaf472fbb80bcb107ffeb918a2b9115f454027840615d6d20d63c69ac0",
                        "sender": "0xa94f5374fce5edbc8e2a8697c15331677e6ebf0b"
                    }
                ],
                "uncleHeaders": [],
                "withdrawals": [],
                "rlp": "0xf902a8f9023fa042e54409330e5e98ac27c2fed6671442b4ea57010406c2ecc19f2c42ecadf105a01dcc4de8dec75d7aab85b567b6ccd41ad312451b948a7413f0a142fd40d49347942adc25665018aa1fe0e6bc666dac8fc2697ff9baa072e23e37213d95c55539079664c4a8f76875debb3f1c6fe52370a3af2fbd231fa0ec9d10cff79619f2df45db8c66526ef3fbd32d283fdd2dcc9b55c0efe643d8c3a05fdc6990c3cd14ea7403b3ca5dfb0f3b3378bac7e941d3f818948f53e2dc37adb9010000000000000000000000000000000000000000000000000000000000000000000000000000000000000000000000000000000000000000000000000000000000000000000000000000000000000000000000000000000000000000000000000000000000000000000000000000000000000000000000000000000000000000000000000000000000000000000000000000000000000000000000000000000000000000000000000000000000000000000000000000000000000000000000000000000000000000000000000000000000000000000000000000000000000000000000000000000000000000000000000000000000000000000000000000000000800188016345785d8a00008356af088203e800a0000000000000000000000000000000000000000000000000000000000000000088000000000000000007a056e81f171bcc55a6ff8345e692c0f86e5b48e01b996cadc001622fb5e363b4218080a00000000000000000000000000000000000000000000000000000000000000000f862f860800a83989680940000000000000000000000000000000000001000808026a0e5d462429669f661291a8dc4c49a092cfd4922b6f3f31c9189a2f4adf5ecd730a001494afaf472fbb80bcb107ffeb918a2b9115f454027840615d6d20d63c69ac0c0c0",
                "blocknumber": "1"
            }
        ],
        "sealEngine": "NoProof",
        "_info": {
            "hash": "0x58df9cee52f7894b5709d638babc98f992b76765c59cbd2c550e84ad4496e6a9",
            "comment": "`execution-spec-tests` generated test",
            "filling-transition-tool": "evmone-t8n 0.12.0-dev+commit.26d56091",
            "description": "Test function documentation:\n\n    Test case for all valid DUPN immediates.",
            "url": "https://github.com/ethereum/execution-spec-tests/tree/v3.0.0/tests/prague/eip7692_eof_v1/eip663_dupn_swapn_exchange/test_dupn.py#L20",
            "reference-spec": "https://github.com/ethereum/EIPs/blob/master/EIPS/eip-663.md",
            "reference-spec-version": "b658bb87fe039d29e9475d5cfaebca9b92e0fca2"
        }
    }
}