{
    "tests/prague/eip7692_eof_v1/eip4200_relative_jumps/test_rjump.py::test_rjump_positive_negative[fork_CancunEIP7692-blockchain_test_engine]": {
        "network": "Prague",
        "genesisBlockHeader": {
            "parentHash": "0x0000000000000000000000000000000000000000000000000000000000000000",
            "uncleHash": "0x1dcc4de8dec75d7aab85b567b6ccd41ad312451b948a7413f0a142fd40d49347",
            "coinbase": "0x0000000000000000000000000000000000000000",
            "stateRoot": "0x4fbc60907ef97e1986270c147fbf722b16cf8fc193a4d5d3dd4d1becf6d17641",
            "transactionsTrie": "0x56e81f171bcc55a6ff8345e692c0f86e5b48e01b996cadc001622fb5e363b421",
            "receiptTrie": "0x56e81f171bcc55a6ff8345e692c0f86e5b48e01b996cadc001622fb5e363b421",
            "bloom": "0x00000000000000000000000000000000000000000000000000000000000000000000000000000000000000000000000000000000000000000000000000000000000000000000000000000000000000000000000000000000000000000000000000000000000000000000000000000000000000000000000000000000000000000000000000000000000000000000000000000000000000000000000000000000000000000000000000000000000000000000000000000000000000000000000000000000000000000000000000000000000000000000000000000000000000000000000000000000000000000000000000000000000000000000000000000000",
            "difficulty": "0x00",
            "number": "0x00",
            "gasLimit": "0x016345785d8a0000",
            "gasUsed": "0x00",
            "timestamp": "0x00",
            "extraData": "0x00",
            "mixHash": "0x0000000000000000000000000000000000000000000000000000000000000000",
            "nonce": "0x0000000000000000",
            "baseFeePerGas": "0x07",
            "withdrawalsRoot": "0x56e81f171bcc55a6ff8345e692c0f86e5b48e01b996cadc001622fb5e363b421",
            "blobGasUsed": "0x00",
            "excessBlobGas": "0x00",
            "parentBeaconBlockRoot": "0x0000000000000000000000000000000000000000000000000000000000000000",
            "hash": "0x54e7c53b8d168ca5c547c8ee6bf4ff14154fe4eaf0340337bcbbf4514a1dd81f"
        },
        "pre": {
            "0x000f3df6d732807ef1319fb7b8bb8522d0beac02": {
                "nonce": "0x01",
                "balance": "0x00",
                "code": "0x3373fffffffffffffffffffffffffffffffffffffffe14604d57602036146024575f5ffd5b5f35801560495762001fff810690815414603c575f5ffd5b62001fff01545f5260205ff35b5f5ffd5b62001fff42064281555f359062001fff015500",
                "storage": {}
            },
            "0xa94f5374fce5edbc8e2a8697c15331677e6ebf0b": {
                "nonce": "0x00",
                "balance": "0x3635c9adc5dea00000",
                "code": "0x",
                "storage": {}
            },
            "0x0000000000000000000000000000000000001000": {
                "nonce": "0x01",
                "balance": "0x00",
                "code": "0xef0001010004020001001104000000008000025fe10003e0000761201560015500e0fff6",
                "storage": {}
            }
        },
        "postState": {
            "0x0000000000000000000000000000000000001000": {
                "nonce": "0x01",
                "balance": "0x00",
                "code": "0xef0001010004020001001104000000008000025fe10003e0000761201560015500e0fff6",
                "storage": {
                    "0x01": "0x2015"
                }
            },
            "0x000f3df6d732807ef1319fb7b8bb8522d0beac02": {
                "nonce": "0x01",
                "balance": "0x00",
                "code": "0x3373fffffffffffffffffffffffffffffffffffffffe14604d57602036146024575f5ffd5b5f35801560495762001fff810690815414603c575f5ffd5b62001fff01545f5260205ff35b5f5ffd5b62001fff42064281555f359062001fff015500",
                "storage": {
                    "0x03e8": "0x03e8"
                }
            },
            "0x2adc25665018aa1fe0e6bc666dac8fc2697ff9ba": {
                "nonce": "0x00",
                "balance": "0x01f944",
                "code": "0x",
                "storage": {}
            },
            "0xa94f5374fce5edbc8e2a8697c15331677e6ebf0b": {
                "nonce": "0x01",
                "balance": "0x3635c9adc5de996bc8",
                "code": "0x",
                "storage": {}
            }
        },
        "lastblockhash": "0xe02dc6016a7a506748a199528eb5e90f09b34dcee182a0e9254c4e12414094e7",
        "engineNewPayloads": [
            {
                "params": [
                    {
                        "parentHash": "0x54e7c53b8d168ca5c547c8ee6bf4ff14154fe4eaf0340337bcbbf4514a1dd81f",
                        "feeRecipient": "0x2adc25665018aa1fe0e6bc666dac8fc2697ff9ba",
                        "stateRoot": "0x3beeb62a930b84660ed50800d6fbeeaee218de5f1c5c4baa4cdd5c528659d20a",
                        "receiptsRoot": "0xdf371bf50ed99563b1c0caacfcaa808d9e6240e99e8f1b6dac6e3f2fb1018abc",
                        "logsBloom": "0x00000000000000000000000000000000000000000000000000000000000000000000000000000000000000000000000000000000000000000000000000000000000000000000000000000000000000000000000000000000000000000000000000000000000000000000000000000000000000000000000000000000000000000000000000000000000000000000000000000000000000000000000000000000000000000000000000000000000000000000000000000000000000000000000000000000000000000000000000000000000000000000000000000000000000000000000000000000000000000000000000000000000000000000000000000000",
                        "blockNumber": "0x1",
                        "gasLimit": "0x16345785d8a0000",
                        "gasUsed": "0xa86c",
                        "timestamp": "0x3e8",
                        "extraData": "0x00",
                        "prevRandao": "0x0000000000000000000000000000000000000000000000000000000000000000",
                        "baseFeePerGas": "0x7",
                        "blobGasUsed": "0x0",
                        "excessBlobGas": "0x0",
                        "blockHash": "0xe02dc6016a7a506748a199528eb5e90f09b34dcee182a0e9254c4e12414094e7",
                        "transactions": [
                            "0xf860800a83989680940000000000000000000000000000000000001000808026a0e5d462429669f661291a8dc4c49a092cfd4922b6f3f31c9189a2f4adf5ecd730a001494afaf472fbb80bcb107ffeb918a2b9115f454027840615d6d20d63c69ac0"
                        ],
                        "withdrawals": []
                    },
                    [],
                    "0x0000000000000000000000000000000000000000000000000000000000000000"
                ],
                "newPayloadVersion": "3",
                "forkchoiceUpdatedVersion": "3"
            }
        ],
        "_info": {
            "hash": "0xc24978151267e531e466fdfde453a45a7a127d31af7f2450eefa82cc76da40ed",
            "comment": "`execution-spec-tests` generated test",
            "filling-transition-tool": "evmone-t8n 0.12.0-dev+commit.26d56091",
            "description": "Test function documentation:\nEOF1V4200_0001 (Valid) EOF code containing RJUMP (Positive, Negative)",
            "url": "https://github.com/ethereum/execution-spec-tests/tree/v3.0.0/tests/prague/eip7692_eof_v1/eip4200_relative_jumps/test_rjump.py#L23",
            "reference-spec": "https://github.com/ethereum/EIPs/blob/master/EIPS/eip-4200.md",
            "reference-spec-version": "17d4a8d12d2b5e0f2985c866376c16c8c6df7cba"
        }
    }
}