{
    "tests/prague/eip7692_eof_v1/eip4200_relative_jumps/test_rjumpv.py::test_rjumpv_size_3[fork_CancunEIP7692-state_test]": {
        "env": {
            "currentCoinbase": "0x2adc25665018aa1fe0e6bc666dac8fc2697ff9ba",
            "currentGasLimit": "0x016345785d8a0000",
            "currentNumber": "0x01",
            "currentTimestamp": "0x03e8",
            "currentRandom": "0x0000000000000000000000000000000000000000000000000000000000000000",
            "currentDifficulty": "0x00",
            "currentBaseFee": "0x07",
            "currentExcessBlobGas": "0x00"
        },
        "pre": {
            "0x0000000000000000000000000000000000001000": {
                "nonce": "0x01",
                "balance": "0x00",
                "code": "0xef0001010004020001001404000000008000026000e20200030000fff65b5b0061201560015500",
                "storage": {}
            },
            "0xa94f5374fce5edbc8e2a8697c15331677e6ebf0b": {
                "nonce": "0x00",
                "balance": "0x3635c9adc5dea00000",
                "code": "0x",
                "storage": {}
            }
        },
        "transaction": {
            "nonce": "0x00",
            "gasPrice": "0x0a",
            "gasLimit": [
                "0x989680"
            ],
            "to": "0x0000000000000000000000000000000000001000",
            "value": [
                "0x00"
            ],
            "data": [
                "0x"
            ],
            "sender": "0xa94f5374fce5edbc8e2a8697c15331677e6ebf0b",
            "secretKey": "0x45a915e4d060149eb4365960e6a7a45f334393093061116b197e3240065ff2d8"
        },
        "post": {
            "Prague": [
                {
                    "hash": "0xf12fbb2f27386e042a4b0be9fa7a2b3e783b88fc6f8acd5fc99d8c8938d192e6",
                    "logs": "0x1dcc4de8dec75d7aab85b567b6ccd41ad312451b948a7413f0a142fd40d49347",
                    "txbytes": "0xf860800a8398968094000000000000000000000000000000000000100080801ba00a827f57dab1e27137696202f240cb95cfc25acf2f077f6b32a7ca3ac039baf0a055fdd3269172368d880a16fa4192049edd5211d8cbb1d5222a0a77b11174d574",
                    "indexes": {
                        "data": 0,
                        "gas": 0,
                        "value": 0
                    }
                }
            ]
        },
        "_info": {
            "hash": "0x7b83ead1cfca929b03e79b2edad4d9c8fed88874527139592cc65e88bbd29143",
            "comment": "`execution-spec-tests` generated test",
            "filling-transition-tool": "evmone-t8n 0.12.0-dev+commit.85a89e56",
            "description": "Test function documentation:\nEOF1V4200_0011 (Valid) EOF with RJUMPV table size 3",
            "url": "https://github.com/ethereum/execution-spec-tests/blob/eip7692@v1.0.4/tests/prague/eip7692_eof_v1/eip4200_relative_jumps/test_rjumpv.py#L142",
            "reference-spec": "https://github.com/ethereum/EIPs/blob/master/EIPS/eip-4200.md",
            "reference-spec-version": "17d4a8d12d2b5e0f2985c866376c16c8c6df7cba"
        }
    }
}