{
    "tests/verkle/eip4762_verkle_gas_witness/test_extcodesize.py::test_extcodesize_insufficient_gas[fork_Verkle-blockchain_test-gas_23302-enough_gas_basicdata_False]": {
        "network": "Verkle",
        "genesisBlockHeader": {
            "parentHash": "0x0000000000000000000000000000000000000000000000000000000000000000",
            "uncleHash": "0x1dcc4de8dec75d7aab85b567b6ccd41ad312451b948a7413f0a142fd40d49347",
            "coinbase": "0x0000000000000000000000000000000000000000",
            "stateRoot": "0x5a97c923c7d7c92c0fd6e77423314f976de306ce10fbbfa8c7e5fc34c9b87867",
            "transactionsTrie": "0x56e81f171bcc55a6ff8345e692c0f86e5b48e01b996cadc001622fb5e363b421",
            "receiptTrie": "0x56e81f171bcc55a6ff8345e692c0f86e5b48e01b996cadc001622fb5e363b421",
            "bloom": "0x00000000000000000000000000000000000000000000000000000000000000000000000000000000000000000000000000000000000000000000000000000000000000000000000000000000000000000000000000000000000000000000000000000000000000000000000000000000000000000000000000000000000000000000000000000000000000000000000000000000000000000000000000000000000000000000000000000000000000000000000000000000000000000000000000000000000000000000000000000000000000000000000000000000000000000000000000000000000000000000000000000000000000000000000000000000",
            "difficulty": "0x00",
            "number": "0x00",
            "gasLimit": "0x02540be400",
            "gasUsed": "0x00",
            "timestamp": "0x00",
            "extraData": "0x00",
            "mixHash": "0x0000000000000000000000000000000000000000000000000000000000000000",
            "nonce": "0x0000000000000000",
            "baseFeePerGas": "0x07",
            "withdrawalsRoot": "0x56e81f171bcc55a6ff8345e692c0f86e5b48e01b996cadc001622fb5e363b421",
            "hash": "0x2fe9d86ae2957b994da33afc60dabb74f8bcc8538fac72bd23f01e7f5623a936"
        },
        "pre": {
            "0xfffffffffffffffffffffffffffffffffffffffe": {
                "nonce": "0x01",
                "balance": "0x00",
                "code": "0x60203611603157600143035f35116029575f356120000143116029576120005f3506545f5260205ff35b5f5f5260205ff35b5f5ffd00",
                "storage": {}
            },
            "0xa94f5374fce5edbc8e2a8697c15331677e6ebf0b": {
                "nonce": "0x00",
                "balance": "0x3635c9adc5dea00000",
                "code": "0x",
                "storage": {}
            },
            "0xffff19589531694250d570040a0c4b74576919b8": {
                "nonce": "0x00",
                "balance": "0x00",
                "code": "0x738a0a19589531694250d570040a0c4b74576919b83b5f55",
                "storage": {}
            },
            "0x8a0a19589531694250d570040a0c4b74576919b8": {
                "nonce": "0x00",
                "balance": "0x00",
                "code": "0x5f5f5f5f5f5f5f5f5f5f",
                "storage": {}
            }
        },
        "lastblockhash": "0x8eaa4456a6ad918bd718a71e8ee09cff29b1ba9e34cf5e5a9ead5b49e78eecf0",
        "genesisRLP": "0xf9021af90214a00000000000000000000000000000000000000000000000000000000000000000a01dcc4de8dec75d7aab85b567b6ccd41ad312451b948a7413f0a142fd40d49347940000000000000000000000000000000000000000a05a97c923c7d7c92c0fd6e77423314f976de306ce10fbbfa8c7e5fc34c9b87867a056e81f171bcc55a6ff8345e692c0f86e5b48e01b996cadc001622fb5e363b421a056e81f171bcc55a6ff8345e692c0f86e5b48e01b996cadc001622fb5e363b421b901000000000000000000000000000000000000000000000000000000000000000000000000000000000000000000000000000000000000000000000000000000000000000000000000000000000000000000000000000000000000000000000000000000000000000000000000000000000000000000000000000000000000000000000000000000000000000000000000000000000000000000000000000000000000000000000000000000000000000000000000000000000000000000000000000000000000000000000000000000000000000000000000000000000000000000000000000000000000000000000000000000000000000000000000000000000080808502540be400808000a0000000000000000000000000000000000000000000000000000000000000000088000000000000000007a056e81f171bcc55a6ff8345e692c0f86e5b48e01b996cadc001622fb5e363b421c0c0c0",
        "blocks": [
            {
                "blockHeader": {
                    "parentHash": "0x2fe9d86ae2957b994da33afc60dabb74f8bcc8538fac72bd23f01e7f5623a936",
                    "uncleHash": "0x1dcc4de8dec75d7aab85b567b6ccd41ad312451b948a7413f0a142fd40d49347",
                    "coinbase": "0x2adc25665018aa1fe0e6bc666dac8fc2697ff9ba",
                    "stateRoot": "0x091fe0ea81c57eaf0ceb3ac86d69cd01a2ae9659cb925cbd768cd6711ae2008f",
                    "transactionsTrie": "0xdb29df401ab119b246be58b9477d7f34117d947b4289eb9a396f4ca73d93b332",
                    "receiptTrie": "0x2680bde2e49f43aae59902005accc2972fa08f9aa6b05b488cac73b1d3a17c1b",
                    "bloom": "0x00000000000000000000000000000000000000000000000000000000000000000000000000000000000000000000000000000000000000000000000000000000000000000000000000000000000000000000000000000000000000000000000000000000000000000000000000000000000000000000000000000000000000000000000000000000000000000000000000000000000000000000000000000000000000000000000000000000000000000000000000000000000000000000000000000000000000000000000000000000000000000000000000000000000000000000000000000000000000000000000000000000000000000000000000000000",
                    "difficulty": "0x00",
                    "number": "0x01",
                    "gasLimit": "0x02540be400",
                    "gasUsed": "0x5b06",
                    "timestamp": "0x0c",
                    "extraData": "0x",
                    "mixHash": "0x0000000000000000000000000000000000000000000000000000000000000000",
                    "nonce": "0x0000000000000000",
                    "baseFeePerGas": "0x07",
                    "withdrawalsRoot": "0x56e81f171bcc55a6ff8345e692c0f86e5b48e01b996cadc001622fb5e363b421",
                    "hash": "0x8eaa4456a6ad918bd718a71e8ee09cff29b1ba9e34cf5e5a9ead5b49e78eecf0"
                },
                "transactions": [
                    {
                        "type": "0x00",
                        "chainId": "0x01",
                        "nonce": "0x00",
                        "gasPrice": "0x0a",
                        "gasLimit": "0x5b06",
                        "to": "0xffff19589531694250d570040a0c4b74576919b8",
                        "value": "0x00",
                        "data": "0x",
                        "v": "0x25",
                        "r": "0xb2e28ec9cb4033a623b7d90c477d0c0c35bcd50d33d2a9c74ac5258990c874db",
                        "s": "0x254a1939ea6e0288fb387edfe882faa09832430bda0e838acb3b288803093e64",
                        "sender": "0xa94f5374fce5edbc8e2a8697c15331677e6ebf0b"
                    }
                ],
                "uncleHeaders": [],
                "withdrawals": [],
                "witness": {
                    "stateDiff": [
                        {
                            "stem": "0x0365b079a274a1808d56484ce5bd97914629907d75767f51439102e22cd50d",
                            "suffixDiffs": [
                                {
                                    "suffix": 0,
                                    "currentValue": "0x00000000000000000000000000000000000000000000003635c9adc5dea00000",
                                    "newValue": "0x00000000000000000000000000000001000000000000003635c9adc5de9c71c4"
                                },
                                {
                                    "suffix": 1,
                                    "currentValue": "0xc5d2460186f7233c927e7db2dcc703c0e500b653ca82273b7bfad8045d85a470",
                                    "newValue": null
                                }
                            ]
                        },
                        {
                            "stem": "0x5b5fdfedd6a0e932da408ac7d772a36513d1eee9b9926e52620c43a433aad7",
                            "suffixDiffs": [
                                {
                                    "suffix": 64,
                                    "newValue": "0x2fe9d86ae2957b994da33afc60dabb74f8bcc8538fac72bd23f01e7f5623a936",
                                    "currentValue": null
                                }
                            ]
                        },
                        {
                            "stem": "0x914ec5f0e0c27fe094862fbd89a6abe684939af6940434d8bf218cedb2d624",
                            "suffixDiffs": [
                                {
                                    "suffix": 0,
                                    "newValue": "0x0000000000000000000000000000000000000000000000000000000000011112",
                                    "currentValue": null
                                },
                                {
                                    "suffix": 1,
                                    "newValue": "0xc5d2460186f7233c927e7db2dcc703c0e500b653ca82273b7bfad8045d85a470",
                                    "currentValue": null
                                }
                            ]
                        },
                        {
                            "stem": "0xcda59c1cb6d3c96e78a098f641aabe9dfd45093c1ad2784c289731403d99ec",
                            "suffixDiffs": [
                                {
                                    "suffix": 0,
                                    "currentValue": "0x0000000000000018000000000000000000000000000000000000000000000000",
                                    "newValue": null
                                },
                                {
                                    "suffix": 1,
                                    "currentValue": "0x2c19998e7a5772167b92af1b6b9ee0d35bc6f0e175db63253c20ff5fddd4fccd",
                                    "newValue": null
                                },
                                {
                                    "suffix": 128,
                                    "currentValue": "0x00738a0a19589531694250d570040a0c4b74576919b83b5f5500000000000000",
                                    "newValue": null
                                }
                            ]
                        }
                    ],
                    "verkleProof": {
                        "otherStems": [],
                        "depthExtensionPresent": "0xa0a080a",
                        "commitmentsByPath": [
                            "0x360bcc4c15a10f6f058d1d07e13e9a271da3da0cd69026d5a9ab25e1c0a5d697",
                            "0x324e7b7405bbfae46866bad5c94ac2983093b86f85035fe5984ec40a1b5e5ce3",
                            "0x61506c1cc4f27c9231a546a4b0d249d5f3ba4ba9e63c5ebb84087665eb396e95",
                            "0x4909fc1889e10819cda41706a26373145c4e4575d68b96569af12db69040b6e1",
                            "0x3174877502102497aa4c10bd87eac90827091d98e57ba0b1c1b70e9716adcd7c",
                            "0x343160e8f37e820cad621d429ad3353288310310f9cabdc66e8925f119aafdac",
                            "0x45b847b63c99653a358241516e300256fd30fc4acb8fd669e7e77c5d7d0dd5f0"
                        ],
                        "d": "0x26156247c41077f1bbf75316367415f856fb5ea2036564a071ab2c5b0128a3cb",
                        "ipaProof": {
                            "cl": [
                                "0x43a41f2a585b71c5391ec484eadc89910fe781277def7b38f71ce33d383421e4",
                                "0x36800d7eb0986a6621f83bc8b4c1d5f8a27a07aad9f78e2f6ffc7876604cdc79",
                                "0x54c5344d3dfc64a1fc1754970003707172ff3f474a1c638e9ed37eaee02e9ca6",
                                "0x5ac70aac88cf94be08aa9d05592f94f454cf06fa783996fdb69158a75788802c",
                                "0x344a133a9766208efb364979513ac632137af934ac6982faaf37fad15511c5f1",
                                "0x53848f091d3a8bc718308ffc6ce541d40d4c87ce83a55df013620ee63cd9638b",
                                "0x2e061f8c97f39fd3cfbf60d667d596a60fbc1de100518320e8f3773cdd0636ee",
                                "0x67287619fd80c1eecb15167b22b971a179612b678752de855c46595c7d4dd387"
                            ],
                            "cr": [
                                "0x4a64b5861ffda101e05ee51e0182436f603032c92949b5f9ef4b527b9fa3bbd5",
                                "0x31fa3aa777b5f691cfca60f7cdfcb7413cacdaad07303d7f8966c014e530795b",
                                "0x1d9d8ed5b32fe636ceb8a8a6d44bdb2b30d55dd93bd0803ffaa28de96efcd5c0",
                                "0x1743be07be600ff8a1e5ea091e406962b08112fd4760e6bf2b375201840d02f4",
                                "0x456d4b8fb368749a2c9dd03090a4aed31edbc2b6080aa2c7ebc3e368dd738f41",
                                "0x2f2d4d4d426a18400f9e4ab6e0a51b48cf5d9b2a78e6e1da8d02c359fed699b7",
                                "0x66f8ff5b61963b787cfc43aafac7afcda2964e5e38abc70815425acc8505bda6",
                                "0x07a6f7489d729df0b59993759a5044d19df169d597d7e6562d26dc5ab6096a0e"
                            ],
                            "finalEvaluation": "0x077e01707484d17381af8e1327bce686e3f5bad7b7b5fe5bd751d6d2c674aa9b"
                        }
                    }
                },
                "rlp": "0xf9027ef90216a02fe9d86ae2957b994da33afc60dabb74f8bcc8538fac72bd23f01e7f5623a936a01dcc4de8dec75d7aab85b567b6ccd41ad312451b948a7413f0a142fd40d49347942adc25665018aa1fe0e6bc666dac8fc2697ff9baa0091fe0ea81c57eaf0ceb3ac86d69cd01a2ae9659cb925cbd768cd6711ae2008fa0db29df401ab119b246be58b9477d7f34117d947b4289eb9a396f4ca73d93b332a02680bde2e49f43aae59902005accc2972fa08f9aa6b05b488cac73b1d3a17c1bb901000000000000000000000000000000000000000000000000000000000000000000000000000000000000000000000000000000000000000000000000000000000000000000000000000000000000000000000000000000000000000000000000000000000000000000000000000000000000000000000000000000000000000000000000000000000000000000000000000000000000000000000000000000000000000000000000000000000000000000000000000000000000000000000000000000000000000000000000000000000000000000000000000000000000000000000000000000000000000000000000000000000000000000000000000000000080018502540be400825b060c80a0000000000000000000000000000000000000000000000000000000000000000088000000000000000007a056e81f171bcc55a6ff8345e692c0f86e5b48e01b996cadc001622fb5e363b421f861f85f800a825b0694ffff19589531694250d570040a0c4b74576919b8808025a0b2e28ec9cb4033a623b7d90c477d0c0c35bcd50d33d2a9c74ac5258990c874dba0254a1939ea6e0288fb387edfe882faa09832430bda0e838acb3b288803093e64c0c0",
                "blocknumber": "1"
            }
        ],
        "sealEngine": "NoProof",
        "_info": {
            "hash": "0xa029b55d815325dc548314018b366d6ac3a315ecae9616e6578f6cb14cb0b72e",
            "comment": "`execution-spec-tests` generated test",
            "filling-transition-tool": "evm version 1.12.1-unstable-c329550a-20241022",
            "description": "Test function documentation:\n\n    Test EXTCODESIZE with insufficient gas for witness.",
            "url": "https://github.com/ethereum/execution-spec-tests/blob/verkle@v0.0.6/tests/verkle/eip4762_verkle_gas_witness/test_extcodesize.py#L64",
            "reference-spec": "https://github.com/ethereum/EIPs/blob/master/EIPS/eip-4762.md",
            "reference-spec-version": "2f8299df31bb8173618901a03a8366a3183479b0"
        }
    },
    "tests/verkle/eip4762_verkle_gas_witness/test_extcodesize.py::test_extcodesize_insufficient_gas[fork_Verkle-blockchain_test-gas_23303-enough_gas_basicdata_True]": {
        "network": "Verkle",
        "genesisBlockHeader": {
            "parentHash": "0x0000000000000000000000000000000000000000000000000000000000000000",
            "uncleHash": "0x1dcc4de8dec75d7aab85b567b6ccd41ad312451b948a7413f0a142fd40d49347",
            "coinbase": "0x0000000000000000000000000000000000000000",
            "stateRoot": "0x5a97c923c7d7c92c0fd6e77423314f976de306ce10fbbfa8c7e5fc34c9b87867",
            "transactionsTrie": "0x56e81f171bcc55a6ff8345e692c0f86e5b48e01b996cadc001622fb5e363b421",
            "receiptTrie": "0x56e81f171bcc55a6ff8345e692c0f86e5b48e01b996cadc001622fb5e363b421",
            "bloom": "0x00000000000000000000000000000000000000000000000000000000000000000000000000000000000000000000000000000000000000000000000000000000000000000000000000000000000000000000000000000000000000000000000000000000000000000000000000000000000000000000000000000000000000000000000000000000000000000000000000000000000000000000000000000000000000000000000000000000000000000000000000000000000000000000000000000000000000000000000000000000000000000000000000000000000000000000000000000000000000000000000000000000000000000000000000000000",
            "difficulty": "0x00",
            "number": "0x00",
            "gasLimit": "0x02540be400",
            "gasUsed": "0x00",
            "timestamp": "0x00",
            "extraData": "0x00",
            "mixHash": "0x0000000000000000000000000000000000000000000000000000000000000000",
            "nonce": "0x0000000000000000",
            "baseFeePerGas": "0x07",
            "withdrawalsRoot": "0x56e81f171bcc55a6ff8345e692c0f86e5b48e01b996cadc001622fb5e363b421",
            "hash": "0x2fe9d86ae2957b994da33afc60dabb74f8bcc8538fac72bd23f01e7f5623a936"
        },
        "pre": {
            "0xfffffffffffffffffffffffffffffffffffffffe": {
                "nonce": "0x01",
                "balance": "0x00",
                "code": "0x60203611603157600143035f35116029575f356120000143116029576120005f3506545f5260205ff35b5f5f5260205ff35b5f5ffd00",
                "storage": {}
            },
            "0xa94f5374fce5edbc8e2a8697c15331677e6ebf0b": {
                "nonce": "0x00",
                "balance": "0x3635c9adc5dea00000",
                "code": "0x",
                "storage": {}
            },
            "0xffff19589531694250d570040a0c4b74576919b8": {
                "nonce": "0x00",
                "balance": "0x00",
                "code": "0x738a0a19589531694250d570040a0c4b74576919b83b5f55",
                "storage": {}
            },
            "0x8a0a19589531694250d570040a0c4b74576919b8": {
                "nonce": "0x00",
                "balance": "0x00",
                "code": "0x5f5f5f5f5f5f5f5f5f5f",
                "storage": {}
            }
        },
        "lastblockhash": "0x93b65ac8d619fbc3061a5ca7948f28cbd4dd4f0646a1e1cdae70761e5ac78c9d",
        "genesisRLP": "0xf9021af90214a00000000000000000000000000000000000000000000000000000000000000000a01dcc4de8dec75d7aab85b567b6ccd41ad312451b948a7413f0a142fd40d49347940000000000000000000000000000000000000000a05a97c923c7d7c92c0fd6e77423314f976de306ce10fbbfa8c7e5fc34c9b87867a056e81f171bcc55a6ff8345e692c0f86e5b48e01b996cadc001622fb5e363b421a056e81f171bcc55a6ff8345e692c0f86e5b48e01b996cadc001622fb5e363b421b901000000000000000000000000000000000000000000000000000000000000000000000000000000000000000000000000000000000000000000000000000000000000000000000000000000000000000000000000000000000000000000000000000000000000000000000000000000000000000000000000000000000000000000000000000000000000000000000000000000000000000000000000000000000000000000000000000000000000000000000000000000000000000000000000000000000000000000000000000000000000000000000000000000000000000000000000000000000000000000000000000000000000000000000000000000000080808502540be400808000a0000000000000000000000000000000000000000000000000000000000000000088000000000000000007a056e81f171bcc55a6ff8345e692c0f86e5b48e01b996cadc001622fb5e363b421c0c0c0",
        "blocks": [
            {
                "blockHeader": {
                    "parentHash": "0x2fe9d86ae2957b994da33afc60dabb74f8bcc8538fac72bd23f01e7f5623a936",
                    "uncleHash": "0x1dcc4de8dec75d7aab85b567b6ccd41ad312451b948a7413f0a142fd40d49347",
                    "coinbase": "0x2adc25665018aa1fe0e6bc666dac8fc2697ff9ba",
                    "stateRoot": "0x4caed881fa16d3b0a52c3e7f38669f15ee429e7db3e5b6735f788f111ecef929",
                    "transactionsTrie": "0xe51600a06531ce3bec05665af27ba63a59ba98e9c67ff707038e9930b286f61c",
                    "receiptTrie": "0xb20911f0d671b3ffe9234f4f70d4735184877a04f0f0f6b8ad85fb5660e6bc8d",
                    "bloom": "0x00000000000000000000000000000000000000000000000000000000000000000000000000000000000000000000000000000000000000000000000000000000000000000000000000000000000000000000000000000000000000000000000000000000000000000000000000000000000000000000000000000000000000000000000000000000000000000000000000000000000000000000000000000000000000000000000000000000000000000000000000000000000000000000000000000000000000000000000000000000000000000000000000000000000000000000000000000000000000000000000000000000000000000000000000000000",
                    "difficulty": "0x00",
                    "number": "0x01",
                    "gasLimit": "0x02540be400",
                    "gasUsed": "0x5b07",
                    "timestamp": "0x0c",
                    "extraData": "0x",
                    "mixHash": "0x0000000000000000000000000000000000000000000000000000000000000000",
                    "nonce": "0x0000000000000000",
                    "baseFeePerGas": "0x07",
                    "withdrawalsRoot": "0x56e81f171bcc55a6ff8345e692c0f86e5b48e01b996cadc001622fb5e363b421",
                    "hash": "0x93b65ac8d619fbc3061a5ca7948f28cbd4dd4f0646a1e1cdae70761e5ac78c9d"
                },
                "transactions": [
                    {
                        "type": "0x00",
                        "chainId": "0x01",
                        "nonce": "0x00",
                        "gasPrice": "0x0a",
                        "gasLimit": "0x5b07",
                        "to": "0xffff19589531694250d570040a0c4b74576919b8",
                        "value": "0x00",
                        "data": "0x",
                        "v": "0x25",
                        "r": "0x9b1f048bc686a336115f8d7b114795fda569225420381ebcf73abc196bc73ba0",
                        "s": "0x367f5165342c344bf146c2b93a370cf3b891306f6106cec2ccfc24f7a3d61951",
                        "sender": "0xa94f5374fce5edbc8e2a8697c15331677e6ebf0b"
                    }
                ],
                "uncleHeaders": [],
                "withdrawals": [],
                "witness": {
                    "stateDiff": [
                        {
                            "stem": "0x0365b079a274a1808d56484ce5bd97914629907d75767f51439102e22cd50d",
                            "suffixDiffs": [
                                {
                                    "suffix": 0,
                                    "currentValue": "0x00000000000000000000000000000000000000000000003635c9adc5dea00000",
                                    "newValue": "0x00000000000000000000000000000001000000000000003635c9adc5de9c71ba"
                                },
                                {
                                    "suffix": 1,
                                    "currentValue": "0xc5d2460186f7233c927e7db2dcc703c0e500b653ca82273b7bfad8045d85a470",
                                    "newValue": null
                                }
                            ]
                        },
                        {
                            "stem": "0x5b5fdfedd6a0e932da408ac7d772a36513d1eee9b9926e52620c43a433aad7",
                            "suffixDiffs": [
                                {
                                    "suffix": 64,
                                    "newValue": "0x2fe9d86ae2957b994da33afc60dabb74f8bcc8538fac72bd23f01e7f5623a936",
                                    "currentValue": null
                                }
                            ]
                        },
                        {
                            "stem": "0x914ec5f0e0c27fe094862fbd89a6abe684939af6940434d8bf218cedb2d624",
                            "suffixDiffs": [
                                {
                                    "suffix": 0,
                                    "newValue": "0x0000000000000000000000000000000000000000000000000000000000011115",
                                    "currentValue": null
                                },
                                {
                                    "suffix": 1,
                                    "newValue": "0xc5d2460186f7233c927e7db2dcc703c0e500b653ca82273b7bfad8045d85a470",
                                    "currentValue": null
                                }
                            ]
                        },
                        {
                            "stem": "0xcda59c1cb6d3c96e78a098f641aabe9dfd45093c1ad2784c289731403d99ec",
                            "suffixDiffs": [
                                {
                                    "suffix": 0,
                                    "currentValue": "0x0000000000000018000000000000000000000000000000000000000000000000",
                                    "newValue": null
                                },
                                {
                                    "suffix": 1,
                                    "currentValue": "0x2c19998e7a5772167b92af1b6b9ee0d35bc6f0e175db63253c20ff5fddd4fccd",
                                    "newValue": null
                                },
                                {
                                    "suffix": 128,
                                    "currentValue": "0x00738a0a19589531694250d570040a0c4b74576919b83b5f5500000000000000",
                                    "newValue": null
                                }
                            ]
                        },
                        {
                            "stem": "0xecb505156708480caf702cd85124f67f3ed78ae4bc890a6dcb62574ba9a90c",
                            "suffixDiffs": [
                                {
                                    "suffix": 0,
                                    "currentValue": "0x000000000000000a000000000000000000000000000000000000000000000000",
                                    "newValue": null
                                }
                            ]
                        }
                    ],
                    "verkleProof": {
                        "otherStems": [],
                        "depthExtensionPresent": "0xa0a080a0a",
                        "commitmentsByPath": [
                            "0x360bcc4c15a10f6f058d1d07e13e9a271da3da0cd69026d5a9ab25e1c0a5d697",
                            "0x324e7b7405bbfae46866bad5c94ac2983093b86f85035fe5984ec40a1b5e5ce3",
                            "0x61506c1cc4f27c9231a546a4b0d249d5f3ba4ba9e63c5ebb84087665eb396e95",
                            "0x4909fc1889e10819cda41706a26373145c4e4575d68b96569af12db69040b6e1",
                            "0x3174877502102497aa4c10bd87eac90827091d98e57ba0b1c1b70e9716adcd7c",
                            "0x343160e8f37e820cad621d429ad3353288310310f9cabdc66e8925f119aafdac",
                            "0x45b847b63c99653a358241516e300256fd30fc4acb8fd669e7e77c5d7d0dd5f0",
                            "0x485b6be363da9fbe0f50900cdf07c22fc3d1f4c805be4f951dcb4a23d6c01b9f",
                            "0x092f586d6085d304141ba19d5b62e59be89b0987999d442d7801e59091b6a0d5"
                        ],
                        "d": "0x013eadde7b0bb8fffacf1d0eeb92a5d6b70b1f9a3d7ee118121ac48852420599",
                        "ipaProof": {
                            "cl": [
                                "0x4a260d42f5fef1e52c882a99a3bca1ccf8c579a477eccf689efc5d7b3453e17b",
                                "0x3ca8d712f1f09787cbf65abd6fa428a74c362c2b42f94f417c08956995c9960b",
                                "0x5378c713c361b0bcfa88d3f3898751ac82d8c8bedccd81c93075de2bff64c738",
                                "0x599a6c2ace72727d768aa9dd49c648ee00d8301ea37b752d81fbae4f1f265dd5",
                                "0x29dc842bd35e2b315f80413bc1b8eb8b1d6a93bf42b95c8ce429a788df04ec70",
                                "0x4e2312e9730218c40675849054a53b3c142d9b7c5229d2b74130dd0e59cb07c8",
                                "0x4b6d2b364176aa091d3d0d963bfeb91a275572ee40441fbda524fd126305f7f8",
                                "0x33b679ae4427e97275b6fc3bec7bb34b662aec73016727d36ac3da218430761f"
                            ],
                            "cr": [
                                "0x0bd87d44ef746cc3c6a1a33e78770a7bacafebd467f518f2aa74453081c9b3a2",
                                "0x2c0f788fa79cbda35311d2c4144d2df3bbd9f420aa714c7c109663e8635fa9e2",
                                "0x1c71905704e87a41c0f57e2a2e3e90ed2d5c3094ca457e67fe9b747bdebec25e",
                                "0x08266bd59ed44405d8bb93b932032bfb714d23650639125af47264a67196e99e",
                                "0x56479a1ffe2a8d927569802b2f55ee9e2b2ca96968c4c445edfba8ed7303ad1d",
                                "0x544ce3b5ed0ae00a66a6a180266ec259e498dc706e03fedd683bde486845e492",
                                "0x5dcea7d0be3549914928a4ee784ef0d75cafaf0f9da3f451a4bd616bc7d5ab86",
                                "0x1726186b63de9ff5784681178393dba950dc3f91787f7dde9cc53782b3066308"
                            ],
                            "finalEvaluation": "0x1bc7da8c12e29402917cd50c29a677cb7461fad9606afb3fb5f3390db67682b0"
                        }
                    }
                },
                "rlp": "0xf9027ef90216a02fe9d86ae2957b994da33afc60dabb74f8bcc8538fac72bd23f01e7f5623a936a01dcc4de8dec75d7aab85b567b6ccd41ad312451b948a7413f0a142fd40d49347942adc25665018aa1fe0e6bc666dac8fc2697ff9baa04caed881fa16d3b0a52c3e7f38669f15ee429e7db3e5b6735f788f111ecef929a0e51600a06531ce3bec05665af27ba63a59ba98e9c67ff707038e9930b286f61ca0b20911f0d671b3ffe9234f4f70d4735184877a04f0f0f6b8ad85fb5660e6bc8db901000000000000000000000000000000000000000000000000000000000000000000000000000000000000000000000000000000000000000000000000000000000000000000000000000000000000000000000000000000000000000000000000000000000000000000000000000000000000000000000000000000000000000000000000000000000000000000000000000000000000000000000000000000000000000000000000000000000000000000000000000000000000000000000000000000000000000000000000000000000000000000000000000000000000000000000000000000000000000000000000000000000000000000000000000000000080018502540be400825b070c80a0000000000000000000000000000000000000000000000000000000000000000088000000000000000007a056e81f171bcc55a6ff8345e692c0f86e5b48e01b996cadc001622fb5e363b421f861f85f800a825b0794ffff19589531694250d570040a0c4b74576919b8808025a09b1f048bc686a336115f8d7b114795fda569225420381ebcf73abc196bc73ba0a0367f5165342c344bf146c2b93a370cf3b891306f6106cec2ccfc24f7a3d61951c0c0",
                "blocknumber": "1"
            }
        ],
        "sealEngine": "NoProof",
        "_info": {
            "hash": "0xdb0489f63fe1589b858a403b286580d681e5d4f48a268b7698bb9be546435a63",
            "comment": "`execution-spec-tests` generated test",
            "filling-transition-tool": "evm version 1.12.1-unstable-c329550a-20241022",
            "description": "Test function documentation:\n\n    Test EXTCODESIZE with insufficient gas for witness.",
            "url": "https://github.com/ethereum/execution-spec-tests/blob/verkle@v0.0.6/tests/verkle/eip4762_verkle_gas_witness/test_extcodesize.py#L64",
            "reference-spec": "https://github.com/ethereum/EIPs/blob/master/EIPS/eip-4762.md",
            "reference-spec-version": "2f8299df31bb8173618901a03a8366a3183479b0"
        }
    }
}