{
    "tests/verkle/eip4762_verkle_gas_witness/test_extcodesize.py::test_extcodesize_warm[fork_Verkle-blockchain_test]": {
        "network": "Verkle",
        "genesisBlockHeader": {
            "parentHash": "0x0000000000000000000000000000000000000000000000000000000000000000",
            "uncleHash": "0x1dcc4de8dec75d7aab85b567b6ccd41ad312451b948a7413f0a142fd40d49347",
            "coinbase": "0x0000000000000000000000000000000000000000",
            "stateRoot": "0x724a6b342ed5ac925cd707bfaf7f57eed4f54a5ff9bdba58d5355bc58362691e",
            "transactionsTrie": "0x56e81f171bcc55a6ff8345e692c0f86e5b48e01b996cadc001622fb5e363b421",
            "receiptTrie": "0x56e81f171bcc55a6ff8345e692c0f86e5b48e01b996cadc001622fb5e363b421",
            "bloom": "0x00000000000000000000000000000000000000000000000000000000000000000000000000000000000000000000000000000000000000000000000000000000000000000000000000000000000000000000000000000000000000000000000000000000000000000000000000000000000000000000000000000000000000000000000000000000000000000000000000000000000000000000000000000000000000000000000000000000000000000000000000000000000000000000000000000000000000000000000000000000000000000000000000000000000000000000000000000000000000000000000000000000000000000000000000000000",
            "difficulty": "0x00",
            "number": "0x00",
            "gasLimit": "0x02540be400",
            "gasUsed": "0x00",
            "timestamp": "0x00",
            "extraData": "0x00",
            "mixHash": "0x0000000000000000000000000000000000000000000000000000000000000000",
            "nonce": "0x0000000000000000",
            "baseFeePerGas": "0x07",
            "withdrawalsRoot": "0x56e81f171bcc55a6ff8345e692c0f86e5b48e01b996cadc001622fb5e363b421",
            "hash": "0x2b4e1e1cfc44658b2856bc809de6d96ac0340b992d5b6b75edad85db29efbc07"
        },
        "pre": {
            "0xfffffffffffffffffffffffffffffffffffffffe": {
                "nonce": "0x01",
                "balance": "0x00",
                "code": "0x60203611603157600143035f35116029575f356120000143116029576120005f3506545f5260205ff35b5f5f5260205ff35b5f5ffd00",
                "storage": {}
            },
            "0xa94f5374fce5edbc8e2a8697c15331677e6ebf0b": {
                "nonce": "0x00",
                "balance": "0x3635c9adc5dea00000",
                "code": "0x",
                "storage": {}
            },
            "0xffff19589531694250d570040a0c4b74576919b8": {
                "nonce": "0x00",
                "balance": "0x00",
                "code": "0x738a0a19589531694250d570040a0c4b74576919b83b738a0a19589531694250d570040a0c4b74576919b83b5f55",
                "storage": {}
            },
            "0x8a0a19589531694250d570040a0c4b74576919b8": {
                "nonce": "0x00",
                "balance": "0x00",
                "code": "0x6002600101600260010160026001016002600101600260010160026001016002600101600260010160026001016002600101",
                "storage": {}
            }
        },
        "lastblockhash": "0x18d6b1854fb95eb82e139712a12bfb0b2945ee3b1547d672d10122f94e423ad0",
        "genesisRLP": "0xf9021af90214a00000000000000000000000000000000000000000000000000000000000000000a01dcc4de8dec75d7aab85b567b6ccd41ad312451b948a7413f0a142fd40d49347940000000000000000000000000000000000000000a0724a6b342ed5ac925cd707bfaf7f57eed4f54a5ff9bdba58d5355bc58362691ea056e81f171bcc55a6ff8345e692c0f86e5b48e01b996cadc001622fb5e363b421a056e81f171bcc55a6ff8345e692c0f86e5b48e01b996cadc001622fb5e363b421b901000000000000000000000000000000000000000000000000000000000000000000000000000000000000000000000000000000000000000000000000000000000000000000000000000000000000000000000000000000000000000000000000000000000000000000000000000000000000000000000000000000000000000000000000000000000000000000000000000000000000000000000000000000000000000000000000000000000000000000000000000000000000000000000000000000000000000000000000000000000000000000000000000000000000000000000000000000000000000000000000000000000000000000000000000000000080808502540be400808000a0000000000000000000000000000000000000000000000000000000000000000088000000000000000007a056e81f171bcc55a6ff8345e692c0f86e5b48e01b996cadc001622fb5e363b421c0c0c0",
        "blocks": [
            {
                "blockHeader": {
                    "parentHash": "0x2b4e1e1cfc44658b2856bc809de6d96ac0340b992d5b6b75edad85db29efbc07",
                    "uncleHash": "0x1dcc4de8dec75d7aab85b567b6ccd41ad312451b948a7413f0a142fd40d49347",
                    "coinbase": "0x2adc25665018aa1fe0e6bc666dac8fc2697ff9ba",
                    "stateRoot": "0x22ae5380c95f1161f07f4d3680e0686f74aec2afd019f9195d9c1c97123cfd2d",
                    "transactionsTrie": "0x7f6f89afb38582844453f0154c4cc1edce3e85b65115ee10db535a9ad6b5e219",
                    "receiptTrie": "0xd6936e27d4dfb5a8246189dfaea4daaf851caab7a0d6df7355e072664bdae78a",
                    "bloom": "0x00000000000000000000000000000000000000000000000000000000000000000000000000000000000000000000000000000000000000000000000000000000000000000000000000000000000000000000000000000000000000000000000000000000000000000000000000000000000000000000000000000000000000000000000000000000000000000000000000000000000000000000000000000000000000000000000000000000000000000000000000000000000000000000000000000000000000000000000000000000000000000000000000000000000000000000000000000000000000000000000000000000000000000000000000000000",
                    "difficulty": "0x00",
                    "number": "0x01",
                    "gasLimit": "0x02540be400",
                    "gasUsed": "0x6aac",
                    "timestamp": "0x0c",
                    "extraData": "0x",
                    "mixHash": "0x0000000000000000000000000000000000000000000000000000000000000000",
                    "nonce": "0x0000000000000000",
                    "baseFeePerGas": "0x07",
                    "withdrawalsRoot": "0x56e81f171bcc55a6ff8345e692c0f86e5b48e01b996cadc001622fb5e363b421",
                    "hash": "0x18d6b1854fb95eb82e139712a12bfb0b2945ee3b1547d672d10122f94e423ad0"
                },
                "transactions": [
                    {
                        "type": "0x00",
                        "chainId": "0x01",
                        "nonce": "0x00",
                        "gasPrice": "0x0a",
                        "gasLimit": "0x0f4240",
                        "to": "0xffff19589531694250d570040a0c4b74576919b8",
                        "value": "0x00",
                        "data": "0x",
                        "v": "0x25",
                        "r": "0x049512578efbcada8950584d745a698be404a676810a2294cde69febe7386400",
                        "s": "0x7c78cf78458cae320b4b0a1634abaa7da51ba80e4c509b7985b2deb3dc6196e9",
                        "sender": "0xa94f5374fce5edbc8e2a8697c15331677e6ebf0b"
                    }
                ],
                "uncleHeaders": [],
                "withdrawals": [],
                "witness": {
                    "stateDiff": [
                        {
                            "stem": "0x0365b079a274a1808d56484ce5bd97914629907d75767f51439102e22cd50d",
                            "suffixDiffs": [
                                {
                                    "suffix": 0,
                                    "currentValue": "0x00000000000000000000000000000000000000000000003635c9adc5dea00000",
                                    "newValue": "0x00000000000000000000000000000001000000000000003635c9adc5de9bd548"
                                },
                                {
                                    "suffix": 1,
                                    "currentValue": "0xc5d2460186f7233c927e7db2dcc703c0e500b653ca82273b7bfad8045d85a470",
                                    "newValue": null
                                }
                            ]
                        },
                        {
                            "stem": "0x5b5fdfedd6a0e932da408ac7d772a36513d1eee9b9926e52620c43a433aad7",
                            "suffixDiffs": [
                                {
                                    "suffix": 64,
                                    "newValue": "0x2b4e1e1cfc44658b2856bc809de6d96ac0340b992d5b6b75edad85db29efbc07",
                                    "currentValue": null
                                }
                            ]
                        },
                        {
                            "stem": "0x914ec5f0e0c27fe094862fbd89a6abe684939af6940434d8bf218cedb2d624",
                            "suffixDiffs": [
                                {
                                    "suffix": 0,
                                    "newValue": "0x0000000000000000000000000000000000000000000000000000000000014004",
                                    "currentValue": null
                                },
                                {
                                    "suffix": 1,
                                    "newValue": "0xc5d2460186f7233c927e7db2dcc703c0e500b653ca82273b7bfad8045d85a470",
                                    "currentValue": null
                                }
                            ]
                        },
                        {
                            "stem": "0xcda59c1cb6d3c96e78a098f641aabe9dfd45093c1ad2784c289731403d99ec",
                            "suffixDiffs": [
                                {
                                    "suffix": 0,
                                    "currentValue": "0x000000000000002e000000000000000000000000000000000000000000000000",
                                    "newValue": null
                                },
                                {
                                    "suffix": 1,
                                    "currentValue": "0xe52fd1ff6ad17cf95b9feeff34296448f9131cd0d4b81c774f1f5a1ec9ceb717",
                                    "newValue": null
                                },
                                {
                                    "suffix": 64,
                                    "newValue": "0x0000000000000000000000000000000000000000000000000000000000000032",
                                    "currentValue": null
                                },
                                {
                                    "suffix": 128,
                                    "currentValue": "0x00738a0a19589531694250d570040a0c4b74576919b83b738a0a195895316942",
                                    "newValue": null
                                },
                                {
                                    "suffix": 129,
                                    "currentValue": "0x0c50d570040a0c4b74576919b83b5f5500000000000000000000000000000000",
                                    "newValue": null
                                }
                            ]
                        },
                        {
                            "stem": "0xecb505156708480caf702cd85124f67f3ed78ae4bc890a6dcb62574ba9a90c",
                            "suffixDiffs": [
                                {
                                    "suffix": 0,
                                    "currentValue": "0x0000000000000032000000000000000000000000000000000000000000000000",
                                    "newValue": null
                                }
                            ]
                        }
                    ],
                    "verkleProof": {
                        "otherStems": [],
                        "depthExtensionPresent": "0xa0a080a0a",
                        "commitmentsByPath": [
                            "0x360bcc4c15a10f6f058d1d07e13e9a271da3da0cd69026d5a9ab25e1c0a5d697",
                            "0x324e7b7405bbfae46866bad5c94ac2983093b86f85035fe5984ec40a1b5e5ce3",
                            "0x61506c1cc4f27c9231a546a4b0d249d5f3ba4ba9e63c5ebb84087665eb396e95",
                            "0x4909fc1889e10819cda41706a26373145c4e4575d68b96569af12db69040b6e1",
                            "0x30b8c073d43cad03e2be5b40659e6a79e42e3cfeb4412d86b1db586fc90fa473",
                            "0x174cec7a5fa559c0568cfad77993fbd301428f40ac61f2113a5ada54bf0c881c",
                            "0x1c270a6eaf943ee234d09fe5820ddc85f5747e3738f9662fff858ce99fe44dd1",
                            "0x31bc1b70574a819da13f8b6e0e6504402c1266da6214cb81fa2d78c15d267be2",
                            "0x6a55f96f6c179c9f8b512b709d22c24b3ef2664ecc5a28742c05f4773d2d167b"
                        ],
                        "d": "0x661132f4da4525cb0c866e8698ab664c43ec3736a113c9ec1ded69b7841ab111",
                        "ipaProof": {
                            "cl": [
                                "0x6b9321ae2f23e262d2bd776831dbce6bc31d3b4acbfae7c50966ecae43bfeb5a",
                                "0x0fabb4f73930ffa2fa509ff80ced1fd1018defde25b55389dc379d52fd303663",
                                "0x0705572c5aefab71203602f404a885a16e2af1f42f37fc51ff6401229d082054",
                                "0x0ae0d1061dc1a2908761ef00732fdf39ba79e7986d26e0c9e9d7d24ab8f4281d",
                                "0x66be9de13ac9a8a05117270bf45aca50e50087bd7e5f8c31d060c0665a21fbce",
                                "0x61d6c0d6d11c6e52e224c3c68578152cff5cb0ba8295a03f0bf47cf19b29fc06",
                                "0x01866b09ee411008ba8d59c665c0c70af1ae000855895d4243e7829a23af19e6",
                                "0x5df9418847ea6478aaaa8d1bcfa03f8ed9bb8f78519a6ef5c526811c6b1f641f"
                            ],
                            "cr": [
                                "0x0112701603ad1e52f8d79655163be8cb4eef7a8571f479ef0fff34e57261ccd5",
                                "0x5c024a62687fb9e380008661706f7618661809978a18759e7a4562fc45f02591",
                                "0x0a008a57014d346cae062c3ef287c340bb2e0ebcca64afb7352dc6e6ed275927",
                                "0x55546f9a0ec0c425fb672800dac84b96cd1e672ff5e1c194be33a587f1c9cf01",
                                "0x6b00f711bd60c1de5ad6b0a388fadeee253aa8d0b4577165e0afc23b6e42049d",
                                "0x0b224432b19f9594fe5cccc4b45ce65d8be8f58ecc832393772d95b492561a3a",
                                "0x4102d2cc16386a2475fc8d7b8f69904ed194841566444cda9c1162cc8d951c95",
                                "0x08ad9130573532d73419b18b7ea6f124bbb1005a2eff5cb5fcb20680f5a4dd1b"
                            ],
                            "finalEvaluation": "0x06bec3a08271692b0ef0e14011bf59fdc92780a3dd390d44b9f969425ed5052a"
                        }
                    }
                },
                "rlp": "0xf9027ff90216a02b4e1e1cfc44658b2856bc809de6d96ac0340b992d5b6b75edad85db29efbc07a01dcc4de8dec75d7aab85b567b6ccd41ad312451b948a7413f0a142fd40d49347942adc25665018aa1fe0e6bc666dac8fc2697ff9baa022ae5380c95f1161f07f4d3680e0686f74aec2afd019f9195d9c1c97123cfd2da07f6f89afb38582844453f0154c4cc1edce3e85b65115ee10db535a9ad6b5e219a0d6936e27d4dfb5a8246189dfaea4daaf851caab7a0d6df7355e072664bdae78ab901000000000000000000000000000000000000000000000000000000000000000000000000000000000000000000000000000000000000000000000000000000000000000000000000000000000000000000000000000000000000000000000000000000000000000000000000000000000000000000000000000000000000000000000000000000000000000000000000000000000000000000000000000000000000000000000000000000000000000000000000000000000000000000000000000000000000000000000000000000000000000000000000000000000000000000000000000000000000000000000000000000000000000000000000000000000080018502540be400826aac0c80a0000000000000000000000000000000000000000000000000000000000000000088000000000000000007a056e81f171bcc55a6ff8345e692c0f86e5b48e01b996cadc001622fb5e363b421f862f860800a830f424094ffff19589531694250d570040a0c4b74576919b8808025a0049512578efbcada8950584d745a698be404a676810a2294cde69febe7386400a07c78cf78458cae320b4b0a1634abaa7da51ba80e4c509b7985b2deb3dc6196e9c0c0",
                "blocknumber": "1"
            }
        ],
        "sealEngine": "NoProof",
        "_info": {
            "hash": "0x55bc9faf9e8d7e6722c0febb65a3426ff091a8c881a1dfce124fcb152ae77769",
            "comment": "`execution-spec-tests` generated test",
            "filling-transition-tool": "evm version 1.12.1-unstable-c329550a-20241022",
            "description": "Test function documentation:\n\n    Test EXTCODESIZE with WARM cost.",
            "url": "https://github.com/ethereum/execution-spec-tests/blob/verkle@v0.0.6/tests/verkle/eip4762_verkle_gas_witness/test_extcodesize.py#L94",
            "reference-spec": "https://github.com/ethereum/EIPs/blob/master/EIPS/eip-4762.md",
            "reference-spec-version": "2f8299df31bb8173618901a03a8366a3183479b0"
        }
    }
}