{
    "tests/cancun/eip4844_blobs/test_point_evaluation_precompile.py::test_point_evaluation_precompile_before_fork[fork_ShanghaiToCancunAtTime15k-blockchain_test-correct_proof]": {
        "network": "ShanghaiToCancunAtTime15k",
        "genesisBlockHeader": {
            "parentHash": "0x0000000000000000000000000000000000000000000000000000000000000000",
            "uncleHash": "0x1dcc4de8dec75d7aab85b567b6ccd41ad312451b948a7413f0a142fd40d49347",
            "coinbase": "0x0000000000000000000000000000000000000000",
            "stateRoot": "0x1837a6b16203f5d15c216ed0c68bc86de74c008f6e90a72663173845b4a5da6e",
            "transactionsTrie": "0x56e81f171bcc55a6ff8345e692c0f86e5b48e01b996cadc001622fb5e363b421",
            "receiptTrie": "0x56e81f171bcc55a6ff8345e692c0f86e5b48e01b996cadc001622fb5e363b421",
            "bloom": "0x00000000000000000000000000000000000000000000000000000000000000000000000000000000000000000000000000000000000000000000000000000000000000000000000000000000000000000000000000000000000000000000000000000000000000000000000000000000000000000000000000000000000000000000000000000000000000000000000000000000000000000000000000000000000000000000000000000000000000000000000000000000000000000000000000000000000000000000000000000000000000000000000000000000000000000000000000000000000000000000000000000000000000000000000000000000",
            "difficulty": "0x00",
            "number": "0x00",
            "gasLimit": "0x016345785d8a0000",
            "gasUsed": "0x00",
            "timestamp": "0x00",
            "extraData": "0x00",
            "mixHash": "0x0000000000000000000000000000000000000000000000000000000000000000",
            "nonce": "0x0000000000000000",
            "baseFeePerGas": "0x07",
            "withdrawalsRoot": "0x56e81f171bcc55a6ff8345e692c0f86e5b48e01b996cadc001622fb5e363b421",
            "hash": "0x4882bdfcbf75f9375f28ad612b37b3a7db5af5dd4021bc282c43b13fbb82724c"
        },
        "pre": {
            "0x000f3df6d732807ef1319fb7b8bb8522d0beac02": {
                "nonce": "0x01",
                "balance": "0x00",
                "code": "0x3373fffffffffffffffffffffffffffffffffffffffe14604d57602036146024575f5ffd5b5f35801560495762001fff810690815414603c575f5ffd5b62001fff01545f5260205ff35b5f5ffd5b62001fff42064281555f359062001fff015500",
                "storage": {}
            },
            "0xa94f5374fce5edbc8e2a8697c15331677e6ebf0b": {
                "nonce": "0x00",
                "balance": "0x01000000000000000000",
                "code": "0x",
                "storage": {}
            },
            "0x0000000000000000000000000000000000000100": {
                "nonce": "0x00",
                "balance": "0x01000000000000000000",
                "code": "0x60006000600060006001600a5af14355",
                "storage": {}
            }
        },
        "postState": {
            "0x000000000000000000000000000000000000000a": {
                "nonce": "0x00",
                "balance": "0x01",
                "code": "0x",
                "storage": {}
            },
            "0x0000000000000000000000000000000000000100": {
                "nonce": "0x00",
                "balance": "0xffffffffffffffffff",
                "code": "0x60006000600060006001600a5af14355",
                "storage": {
                    "0x01": "0x01"
                }
            },
            "0x000f3df6d732807ef1319fb7b8bb8522d0beac02": {
                "nonce": "0x01",
                "balance": "0x00",
                "code": "0x3373fffffffffffffffffffffffffffffffffffffffe14604d57602036146024575f5ffd5b5f35801560495762001fff810690815414603c575f5ffd5b62001fff01545f5260205ff35b5f5ffd5b62001fff42064281555f359062001fff015500",
                "storage": {}
            },
            "0xa94f5374fce5edbc8e2a8697c15331677e6ebf0b": {
                "nonce": "0x01",
                "balance": "0xfffffffffffff790aa",
                "code": "0x",
                "storage": {}
            }
        },
        "genesisRLP": "0xf9021df90217a00000000000000000000000000000000000000000000000000000000000000000a01dcc4de8dec75d7aab85b567b6ccd41ad312451b948a7413f0a142fd40d49347940000000000000000000000000000000000000000a01837a6b16203f5d15c216ed0c68bc86de74c008f6e90a72663173845b4a5da6ea056e81f171bcc55a6ff8345e692c0f86e5b48e01b996cadc001622fb5e363b421a056e81f171bcc55a6ff8345e692c0f86e5b48e01b996cadc001622fb5e363b421b9010000000000000000000000000000000000000000000000000000000000000000000000000000000000000000000000000000000000000000000000000000000000000000000000000000000000000000000000000000000000000000000000000000000000000000000000000000000000000000000000000000000000000000000000000000000000000000000000000000000000000000000000000000000000000000000000000000000000000000000000000000000000000000000000000000000000000000000000000000000000000000000000000000000000000000000000000000000000000000000000000000000000000000000000000000000000808088016345785d8a0000808000a0000000000000000000000000000000000000000000000000000000000000000088000000000000000007a056e81f171bcc55a6ff8345e692c0f86e5b48e01b996cadc001622fb5e363b421c0c0c0",
        "blocks": [
            {
                "blockHeader": {
                    "parentHash": "0x4882bdfcbf75f9375f28ad612b37b3a7db5af5dd4021bc282c43b13fbb82724c",
                    "uncleHash": "0x1dcc4de8dec75d7aab85b567b6ccd41ad312451b948a7413f0a142fd40d49347",
                    "coinbase": "0x2adc25665018aa1fe0e6bc666dac8fc2697ff9ba",
                    "stateRoot": "0xd481fd3da9b1b53fc81962a288bc733e758f2aa6d978193af039b52f24e48f06",
                    "transactionsTrie": "0xdb6243ba190d98fc32ffe9a229951a0fe2aea68c54140ddca27ac55330172ada",
                    "receiptTrie": "0x7c53f1e5660a78e8903fa3b72eef59be0af3f82a34437b7578b44130829a8558",
                    "bloom": "0x00000000000000000000000000000000000000000000000000000000000000000000000000000000000000000000000000000000000000000000000000000000000000000000000000000000000000000000000000000000000000000000000000000000000000000000000000000000000000000000000000000000000000000000000000000000000000000000000000000000000000000000000000000000000000000000000000000000000000000000000000000000000000000000000000000000000000000000000000000000000000000000000000000000000000000000000000000000000000000000000000000000000000000000000000000000",
                    "difficulty": "0x00",
                    "number": "0x01",
                    "gasLimit": "0x016345785d8a0000",
                    "gasUsed": "0x01347a",
                    "timestamp": "0x1d4c",
                    "extraData": "0x00",
                    "mixHash": "0x0000000000000000000000000000000000000000000000000000000000000000",
                    "nonce": "0x0000000000000000",
                    "baseFeePerGas": "0x07",
                    "withdrawalsRoot": "0x56e81f171bcc55a6ff8345e692c0f86e5b48e01b996cadc001622fb5e363b421",
                    "hash": "0x1f2828c11953348ce1faf6994ddaf761ed694e645032230c0069f28979aee0d5"
                },
                "transactions": [
                    {
                        "type": "0x02",
                        "chainId": "0x01",
                        "nonce": "0x00",
                        "maxPriorityFeePerGas": "0x00",
                        "maxFeePerGas": "0x07",
                        "gasLimit": "0x0f4240",
                        "to": "0x0000000000000000000000000000000000000100",
                        "value": "0x00",
                        "data": "0x010657f37554c781402a22917dee2f75def7ab966d7b770905398eba3c444014623ce31cf9759a5c8daf3a357992f9f3dd7f9339d8998bc8e68373e54f00b75e0000000000000000000000000000000000000000000000000000000000000000c00000000000000000000000000000000000000000000000000000000000000000000000000000000000000000000000c00000000000000000000000000000000000000000000000000000000000000000000000000000000000000000000000",
                        "accessList": [],
                        "v": "0x00",
                        "r": "0x8d077aadf82e765319b8d2b96c508b41843c34cbb3b571712f46149c339362e1",
                        "s": "0x4d25bce6b340faf6fe4e55cc935c0374f33faa248a998ca9e9d0aa607ca0fcaa",
                        "sender": "0xa94f5374fce5edbc8e2a8697c15331677e6ebf0b"
                    }
                ],
                "uncleHeaders": [],
                "withdrawals": [],
                "rlp": "0xf9034ff9021ca04882bdfcbf75f9375f28ad612b37b3a7db5af5dd4021bc282c43b13fbb82724ca01dcc4de8dec75d7aab85b567b6ccd41ad312451b948a7413f0a142fd40d49347942adc25665018aa1fe0e6bc666dac8fc2697ff9baa0d481fd3da9b1b53fc81962a288bc733e758f2aa6d978193af039b52f24e48f06a0db6243ba190d98fc32ffe9a229951a0fe2aea68c54140ddca27ac55330172adaa07c53f1e5660a78e8903fa3b72eef59be0af3f82a34437b7578b44130829a8558b9010000000000000000000000000000000000000000000000000000000000000000000000000000000000000000000000000000000000000000000000000000000000000000000000000000000000000000000000000000000000000000000000000000000000000000000000000000000000000000000000000000000000000000000000000000000000000000000000000000000000000000000000000000000000000000000000000000000000000000000000000000000000000000000000000000000000000000000000000000000000000000000000000000000000000000000000000000000000000000000000000000000000000000000000000000000000800188016345785d8a00008301347a821d4c00a0000000000000000000000000000000000000000000000000000000000000000088000000000000000007a056e81f171bcc55a6ff8345e692c0f86e5b48e01b996cadc001622fb5e363b421f9012bb9012802f9012401808007830f424094000000000000000000000000000000000000010080b8c0010657f37554c781402a22917dee2f75def7ab966d7b770905398eba3c444014623ce31cf9759a5c8daf3a357992f9f3dd7f9339d8998bc8e68373e54f00b75e0000000000000000000000000000000000000000000000000000000000000000c00000000000000000000000000000000000000000000000000000000000000000000000000000000000000000000000c00000000000000000000000000000000000000000000000000000000000000000000000000000000000000000000000c080a08d077aadf82e765319b8d2b96c508b41843c34cbb3b571712f46149c339362e1a04d25bce6b340faf6fe4e55cc935c0374f33faa248a998ca9e9d0aa607ca0fcaac0c0",
                "blocknumber": "1"
            }
        ],
        "lastblockhash": "0x1f2828c11953348ce1faf6994ddaf761ed694e645032230c0069f28979aee0d5",
        "sealEngine": "NoProof",
        "_info": {
            "hash": "0x67835518374b1e932b9b13f21d4aaffdf5798dc7ad814ba4833115bba23cb316",
            "comment": "`execution-spec-tests` generated test",
            "filling-transition-tool": "evm version 1.14.6-unstable-7e5dd44a-20240705",
            "description": "Test function documentation:\n\n    Test calling the Point Evaluation Precompile before the appropriate fork.",
            "url": "https://github.com/ethereum/execution-spec-tests/blob/devnet-1@v1.3.0/tests/cancun/eip4844_blobs/test_point_evaluation_precompile.py#L566",
            "reference-spec": "https://github.com/ethereum/EIPs/blob/master/EIPS/eip-4844.md",
            "reference-spec-version": "f0eb6a364aaf5ccb43516fa2c269a54fb881ecfd"
        }
    }
}