{
    "tests/cancun/eip4844_blobs/test_point_evaluation_precompile.py::test_precompile_before_fork[fork_ShanghaiToCancunAtTime15k-blockchain_test----correct_proof]": {
        "network": "ShanghaiToCancunAtTime15k",
        "genesisBlockHeader": {
            "parentHash": "0x0000000000000000000000000000000000000000000000000000000000000000",
            "uncleHash": "0x1dcc4de8dec75d7aab85b567b6ccd41ad312451b948a7413f0a142fd40d49347",
            "coinbase": "0x0000000000000000000000000000000000000000",
            "stateRoot": "0xf9a551e9bc5f5f56fb5dbfeb058a30474791cb9f36b186628e7184c5758c1bcc",
            "transactionsTrie": "0x56e81f171bcc55a6ff8345e692c0f86e5b48e01b996cadc001622fb5e363b421",
            "receiptTrie": "0x56e81f171bcc55a6ff8345e692c0f86e5b48e01b996cadc001622fb5e363b421",
            "bloom": "0x00000000000000000000000000000000000000000000000000000000000000000000000000000000000000000000000000000000000000000000000000000000000000000000000000000000000000000000000000000000000000000000000000000000000000000000000000000000000000000000000000000000000000000000000000000000000000000000000000000000000000000000000000000000000000000000000000000000000000000000000000000000000000000000000000000000000000000000000000000000000000000000000000000000000000000000000000000000000000000000000000000000000000000000000000000000",
            "difficulty": "0x00",
            "number": "0x00",
            "gasLimit": "0x016345785d8a0000",
            "gasUsed": "0x00",
            "timestamp": "0x00",
            "extraData": "0x00",
            "mixHash": "0x0000000000000000000000000000000000000000000000000000000000000000",
            "nonce": "0x0000000000000000",
            "baseFeePerGas": "0x07",
            "withdrawalsRoot": "0x56e81f171bcc55a6ff8345e692c0f86e5b48e01b996cadc001622fb5e363b421",
            "hash": "0x8b4ad3e45f29f431e135d0354ed97389302eca6c24633c3e38fb6b1cc0c34525"
        },
        "pre": {
            "0x000f3df6d732807ef1319fb7b8bb8522d0beac02": {
                "nonce": "0x01",
                "balance": "0x00",
                "code": "0x3373fffffffffffffffffffffffffffffffffffffffe14604d57602036146024575f5ffd5b5f35801560495762001fff810690815414603c575f5ffd5b62001fff01545f5260205ff35b5f5ffd5b62001fff42064281555f359062001fff015500",
                "storage": {}
            },
            "0x0000000000000000000000000000000000001000": {
                "nonce": "0x01",
                "balance": "0x01",
                "code": "0x366000600037600060003660006001600a5af14355",
                "storage": {}
            },
            "0xa94f5374fce5edbc8e2a8697c15331677e6ebf0b": {
                "nonce": "0x00",
                "balance": "0x3635c9adc5dea00000",
                "code": "0x",
                "storage": {}
            }
        },
        "postState": {
            "0x000000000000000000000000000000000000000a": {
                "nonce": "0x00",
                "balance": "0x01",
                "code": "0x",
                "storage": {}
            },
            "0x0000000000000000000000000000000000001000": {
                "nonce": "0x01",
                "balance": "0x00",
                "code": "0x366000600037600060003660006001600a5af14355",
                "storage": {
                    "0x01": "0x01"
                }
            },
            "0x000f3df6d732807ef1319fb7b8bb8522d0beac02": {
                "nonce": "0x01",
                "balance": "0x00",
                "code": "0x3373fffffffffffffffffffffffffffffffffffffffe14604d57602036146024575f5ffd5b5f35801560495762001fff810690815414603c575f5ffd5b62001fff01545f5260205ff35b5f5ffd5b62001fff42064281555f359062001fff015500",
                "storage": {}
            },
            "0x2adc25665018aa1fe0e6bc666dac8fc2697ff9ba": {
                "nonce": "0x00",
                "balance": "0x039df8",
                "code": "0x",
                "storage": {}
            },
            "0xa94f5374fce5edbc8e2a8697c15331677e6ebf0b": {
                "nonce": "0x01",
                "balance": "0x3635c9adc5de93f170",
                "code": "0x",
                "storage": {}
            }
        },
        "lastblockhash": "0xb630c92d7c399750610cae650d532920b943c53e20761a25ec2431ecc9357ae7",
        "genesisRLP": "0xf9021df90217a00000000000000000000000000000000000000000000000000000000000000000a01dcc4de8dec75d7aab85b567b6ccd41ad312451b948a7413f0a142fd40d49347940000000000000000000000000000000000000000a0f9a551e9bc5f5f56fb5dbfeb058a30474791cb9f36b186628e7184c5758c1bcca056e81f171bcc55a6ff8345e692c0f86e5b48e01b996cadc001622fb5e363b421a056e81f171bcc55a6ff8345e692c0f86e5b48e01b996cadc001622fb5e363b421b9010000000000000000000000000000000000000000000000000000000000000000000000000000000000000000000000000000000000000000000000000000000000000000000000000000000000000000000000000000000000000000000000000000000000000000000000000000000000000000000000000000000000000000000000000000000000000000000000000000000000000000000000000000000000000000000000000000000000000000000000000000000000000000000000000000000000000000000000000000000000000000000000000000000000000000000000000000000000000000000000000000000000000000000000000000000000808088016345785d8a0000808000a0000000000000000000000000000000000000000000000000000000000000000088000000000000000007a056e81f171bcc55a6ff8345e692c0f86e5b48e01b996cadc001622fb5e363b421c0c0c0",
        "blocks": [
            {
                "blockHeader": {
                    "parentHash": "0x8b4ad3e45f29f431e135d0354ed97389302eca6c24633c3e38fb6b1cc0c34525",
                    "uncleHash": "0x1dcc4de8dec75d7aab85b567b6ccd41ad312451b948a7413f0a142fd40d49347",
                    "coinbase": "0x2adc25665018aa1fe0e6bc666dac8fc2697ff9ba",
                    "stateRoot": "0xc17f5cdd4eb3dc32d939d2f69d8e98830e1ef410706c2f63960d46f93f0cbc84",
                    "transactionsTrie": "0xc8f5c4f85347e6f1de7b1ae0f5f81c90eb675b1109da812b553afb1a2a69fb43",
                    "receiptTrie": "0x293d302ee07a15a99db519e4aa6614a95f099c0ea9ee82d87809600cff941027",
                    "bloom": "0x00000000000000000000000000000000000000000000000000000000000000000000000000000000000000000000000000000000000000000000000000000000000000000000000000000000000000000000000000000000000000000000000000000000000000000000000000000000000000000000000000000000000000000000000000000000000000000000000000000000000000000000000000000000000000000000000000000000000000000000000000000000000000000000000000000000000000000000000000000000000000000000000000000000000000000000000000000000000000000000000000000000000000000000000000000000",
                    "difficulty": "0x00",
                    "number": "0x01",
                    "gasLimit": "0x016345785d8a0000",
                    "gasUsed": "0x0134a8",
                    "timestamp": "0x1d4c",
                    "extraData": "0x00",
                    "mixHash": "0x0000000000000000000000000000000000000000000000000000000000000000",
                    "nonce": "0x0000000000000000",
                    "baseFeePerGas": "0x07",
                    "withdrawalsRoot": "0x56e81f171bcc55a6ff8345e692c0f86e5b48e01b996cadc001622fb5e363b421",
                    "hash": "0xb630c92d7c399750610cae650d532920b943c53e20761a25ec2431ecc9357ae7"
                },
                "transactions": [
                    {
                        "type": "0x00",
                        "chainId": "0x01",
                        "nonce": "0x00",
                        "gasPrice": "0x0a",
                        "gasLimit": "0x4c4b40",
                        "to": "0x0000000000000000000000000000000000001000",
                        "value": "0x00",
                        "data": "0x010657f37554c781402a22917dee2f75def7ab966d7b770905398eba3c444014623ce31cf9759a5c8daf3a357992f9f3dd7f9339d8998bc8e68373e54f00b75e0000000000000000000000000000000000000000000000000000000000000000c00000000000000000000000000000000000000000000000000000000000000000000000000000000000000000000000c00000000000000000000000000000000000000000000000000000000000000000000000000000000000000000000000",
                        "v": "0x25",
                        "r": "0x614ac66bd3ffb6b6aeca9e6309c4dfc6a776e88ffece9bfd68381015049b87f3",
                        "s": "0x4da4c1f25e65364cd2a64d0105128a34e2e73dcc6c37706da0eebf41f4328d44",
                        "sender": "0xa94f5374fce5edbc8e2a8697c15331677e6ebf0b"
                    }
                ],
                "uncleHeaders": [],
                "withdrawals": [],
                "rlp": "0xf90348f9021ca08b4ad3e45f29f431e135d0354ed97389302eca6c24633c3e38fb6b1cc0c34525a01dcc4de8dec75d7aab85b567b6ccd41ad312451b948a7413f0a142fd40d49347942adc25665018aa1fe0e6bc666dac8fc2697ff9baa0c17f5cdd4eb3dc32d939d2f69d8e98830e1ef410706c2f63960d46f93f0cbc84a0c8f5c4f85347e6f1de7b1ae0f5f81c90eb675b1109da812b553afb1a2a69fb43a0293d302ee07a15a99db519e4aa6614a95f099c0ea9ee82d87809600cff941027b9010000000000000000000000000000000000000000000000000000000000000000000000000000000000000000000000000000000000000000000000000000000000000000000000000000000000000000000000000000000000000000000000000000000000000000000000000000000000000000000000000000000000000000000000000000000000000000000000000000000000000000000000000000000000000000000000000000000000000000000000000000000000000000000000000000000000000000000000000000000000000000000000000000000000000000000000000000000000000000000000000000000000000000000000000000000000800188016345785d8a0000830134a8821d4c00a0000000000000000000000000000000000000000000000000000000000000000088000000000000000007a056e81f171bcc55a6ff8345e692c0f86e5b48e01b996cadc001622fb5e363b421f90124f90121800a834c4b4094000000000000000000000000000000000000100080b8c0010657f37554c781402a22917dee2f75def7ab966d7b770905398eba3c444014623ce31cf9759a5c8daf3a357992f9f3dd7f9339d8998bc8e68373e54f00b75e0000000000000000000000000000000000000000000000000000000000000000c00000000000000000000000000000000000000000000000000000000000000000000000000000000000000000000000c0000000000000000000000000000000000000000000000000000000000000000000000000000000000000000000000025a0614ac66bd3ffb6b6aeca9e6309c4dfc6a776e88ffece9bfd68381015049b87f3a04da4c1f25e65364cd2a64d0105128a34e2e73dcc6c37706da0eebf41f4328d44c0c0",
                "blocknumber": "1"
            }
        ],
        "sealEngine": "NoProof",
        "_info": {
            "hash": "0xa2e5534f3d2f4c44167354bf0ea103f7962a285b13699490fb0b2e53214fc727",
            "comment": "`execution-spec-tests` generated test",
            "filling-transition-tool": "evm version 1.14.12-unstable-e100dcf1-20241017",
            "description": "Test function documentation:\n\n    Test calling the Point Evaluation Precompile before the appropriate fork.",
            "url": "https://github.com/ethereum/execution-spec-tests/blob/pectra-devnet-4@v1.0.1/tests/cancun/eip4844_blobs/test_point_evaluation_precompile.py#L598",
            "reference-spec": "https://github.com/ethereum/EIPs/blob/master/EIPS/eip-4844.md",
            "reference-spec-version": "f0eb6a364aaf5ccb43516fa2c269a54fb881ecfd"
        }
    }
}