{
    "tests/prague/eip7692_eof_v1/eip7069_extcall/test_returndataload.py::test_returndatacopy_oob[fork_CancunEIP7692-blockchain_test_hive-CallerIsLegacy]": {
        "network": "Prague",
        "genesisBlockHeader": {
            "parentHash": "0x0000000000000000000000000000000000000000000000000000000000000000",
            "uncleHash": "0x1dcc4de8dec75d7aab85b567b6ccd41ad312451b948a7413f0a142fd40d49347",
            "coinbase": "0x0000000000000000000000000000000000000000",
            "stateRoot": "0x0e1d2904ec73da675385cdd3e61f6485c063a8f293e1eb68bb202a81e68eaa0b",
            "transactionsTrie": "0x56e81f171bcc55a6ff8345e692c0f86e5b48e01b996cadc001622fb5e363b421",
            "receiptTrie": "0x56e81f171bcc55a6ff8345e692c0f86e5b48e01b996cadc001622fb5e363b421",
            "bloom": "0x00000000000000000000000000000000000000000000000000000000000000000000000000000000000000000000000000000000000000000000000000000000000000000000000000000000000000000000000000000000000000000000000000000000000000000000000000000000000000000000000000000000000000000000000000000000000000000000000000000000000000000000000000000000000000000000000000000000000000000000000000000000000000000000000000000000000000000000000000000000000000000000000000000000000000000000000000000000000000000000000000000000000000000000000000000000",
            "difficulty": "0x00",
            "number": "0x00",
            "gasLimit": "0x016345785d8a0000",
            "gasUsed": "0x00",
            "timestamp": "0x00",
            "extraData": "0x00",
            "mixHash": "0x0000000000000000000000000000000000000000000000000000000000000000",
            "nonce": "0x0000000000000000",
            "baseFeePerGas": "0x07",
            "withdrawalsRoot": "0x56e81f171bcc55a6ff8345e692c0f86e5b48e01b996cadc001622fb5e363b421",
            "blobGasUsed": "0x00",
            "excessBlobGas": "0x00",
            "parentBeaconBlockRoot": "0x0000000000000000000000000000000000000000000000000000000000000000",
            "hash": "0xa2e90904fffe831ab757247295893cf05b1b1587494c11cf700da84094306ffb"
        },
        "pre": {
            "0x000f3df6d732807ef1319fb7b8bb8522d0beac02": {
                "nonce": "0x01",
                "balance": "0x00",
                "code": "0x3373fffffffffffffffffffffffffffffffffffffffe14604d57602036146024575f5ffd5b5f35801560495762001fff810690815414603c575f5ffd5b62001fff01545f5260205ff35b5f5ffd5b62001fff42064281555f359062001fff015500",
                "storage": {}
            },
            "0xa94f5374fce5edbc8e2a8697c15331677e6ebf0b": {
                "nonce": "0x00",
                "balance": "0x0de0b6b3a7640000",
                "code": "0x",
                "storage": {}
            },
            "0x0000000000000000000000000000000000001000": {
                "nonce": "0x01",
                "balance": "0x00",
                "code": "0xef0001010004020001000c04000000008000036001600060003e60016000f3",
                "storage": {}
            },
            "0x0000000000000000000000000000000000001100": {
                "nonce": "0x01",
                "balance": "0x00",
                "code": "0x6001600060003e60016000f3",
                "storage": {}
            },
            "0x0000000000000000000000000000000000001200": {
                "nonce": "0x01",
                "balance": "0x00",
                "code": "0x600060006000600060007300000000000000000000000000000000000010006207a120f16002553d6005556001600060003e600051600455600060006000600060007300000000000000000000000000000000000011006207a120f16003553d60065500",
                "storage": {
                    "0x02": "0x1984",
                    "0x04": "0x1984",
                    "0x05": "0x1984",
                    "0x03": "0x1984",
                    "0x06": "0x1984"
                }
            }
        },
        "postState": {
            "0x0000000000000000000000000000000000001000": {
                "nonce": "0x01",
                "balance": "0x00",
                "code": "0xef0001010004020001000c04000000008000036001600060003e60016000f3",
                "storage": {}
            },
            "0x0000000000000000000000000000000000001100": {
                "nonce": "0x01",
                "balance": "0x00",
                "code": "0x6001600060003e60016000f3",
                "storage": {}
            },
            "0x0000000000000000000000000000000000001200": {
                "nonce": "0x01",
                "balance": "0x00",
                "code": "0x600060006000600060007300000000000000000000000000000000000010006207a120f16002553d6005556001600060003e600051600455600060006000600060007300000000000000000000000000000000000011006207a120f16003553d60065500",
                "storage": {
                    "0x02": "0x01",
                    "0x05": "0x01"
                }
            },
            "0x000f3df6d732807ef1319fb7b8bb8522d0beac02": {
                "nonce": "0x01",
                "balance": "0x00",
                "code": "0x3373fffffffffffffffffffffffffffffffffffffffe14604d57602036146024575f5ffd5b5f35801560495762001fff810690815414603c575f5ffd5b62001fff01545f5260205ff35b5f5ffd5b62001fff42064281555f359062001fff015500",
                "storage": {
                    "0x03e8": "0x03e8"
                }
            },
            "0x2adc25665018aa1fe0e6bc666dac8fc2697ff9ba": {
                "nonce": "0x00",
                "balance": "0x1893e7",
                "code": "0x",
                "storage": {}
            },
            "0xa94f5374fce5edbc8e2a8697c15331677e6ebf0b": {
                "nonce": "0x01",
                "balance": "0x0de0b6b3a71212fe",
                "code": "0x",
                "storage": {}
            }
        },
        "engineNewPayloads": [
            {
                "executionPayload": {
                    "parentHash": "0xa2e90904fffe831ab757247295893cf05b1b1587494c11cf700da84094306ffb",
                    "feeRecipient": "0x2adc25665018aa1fe0e6bc666dac8fc2697ff9ba",
                    "stateRoot": "0xfa779b324dababd54f393fa9a52d0008c8f0a19cc0b1f72bf87a089f44066521",
                    "receiptsRoot": "0x3d088343092f308e8684efb82cf9dd47fedf8928b87f1863b78810537e1e6051",
                    "logsBloom": "0x00000000000000000000000000000000000000000000000000000000000000000000000000000000000000000000000000000000000000000000000000000000000000000000000000000000000000000000000000000000000000000000000000000000000000000000000000000000000000000000000000000000000000000000000000000000000000000000000000000000000000000000000000000000000000000000000000000000000000000000000000000000000000000000000000000000000000000000000000000000000000000000000000000000000000000000000000000000000000000000000000000000000000000000000000000000",
                    "blockNumber": "0x1",
                    "gasLimit": "0x16345785d8a0000",
                    "gasUsed": "0x8314d",
                    "timestamp": "0x3e8",
                    "extraData": "0x00",
                    "prevRandao": "0x0000000000000000000000000000000000000000000000000000000000000000",
                    "baseFeePerGas": "0x7",
                    "blobGasUsed": "0x0",
                    "excessBlobGas": "0x0",
                    "blockHash": "0x4c38111e4a4757cad7fd1a488284dea3743928917d8ecd9b8126848b3b663b7c",
                    "transactions": [
                        "0xf860800a831e8480940000000000000000000000000000000000001200808025a0579270f05e0fb88612d80ef3697e95436cfc7138ed2dff05f1ef8ef23d63697ba012375b06fa1aab67d5d80cb235011a8899a981bef190290b2cdbff5b50d52f34"
                    ],
                    "withdrawals": []
                },
                "version": "3",
                "expectedBlobVersionedHashes": [],
                "parentBeaconBlockRoot": "0x0000000000000000000000000000000000000000000000000000000000000000"
            }
        ],
        "engineFcuVersion": "3",
        "_info": {
            "hash": "0x8ddf66dc1b6629c7a575a545c0de34934a80d00211962161599bcaffde97f400",
            "comment": "`execution-spec-tests` generated test",
            "filling-transition-tool": "evmone-t8n 0.12.0-dev+commit.85a89e56",
            "description": "Test function documentation:\n\n    Extends the RETURNDATACOPY test for correct out-of-bounds behavior, by checking if the\n    caller frame's context being EOF or legacy doesn't impact the execution logic of the\n    RETURNDATACOPY instance under test.",
            "url": "https://github.com/ethereum/execution-spec-tests/blob/eip7692@v1.0.4/tests/prague/eip7692_eof_v1/eip7069_extcall/test_returndataload.py#L278",
            "reference-spec": "https://github.com/ethereum/EIPs/blob/master/EIPS/eip-7069.md",
            "reference-spec-version": "1795943aeacc86131d5ab6bb3d65824b3b1d4cad"
        }
    },
    "tests/prague/eip7692_eof_v1/eip7069_extcall/test_returndataload.py::test_returndatacopy_oob[fork_CancunEIP7692-blockchain_test_hive-CallerIsEOF]": {
        "network": "Prague",
        "genesisBlockHeader": {
            "parentHash": "0x0000000000000000000000000000000000000000000000000000000000000000",
            "uncleHash": "0x1dcc4de8dec75d7aab85b567b6ccd41ad312451b948a7413f0a142fd40d49347",
            "coinbase": "0x0000000000000000000000000000000000000000",
            "stateRoot": "0x083aa2e35879c0620dbade7c5125f20220b75ced35ed4ac89c1da4ba2587eb5d",
            "transactionsTrie": "0x56e81f171bcc55a6ff8345e692c0f86e5b48e01b996cadc001622fb5e363b421",
            "receiptTrie": "0x56e81f171bcc55a6ff8345e692c0f86e5b48e01b996cadc001622fb5e363b421",
            "bloom": "0x00000000000000000000000000000000000000000000000000000000000000000000000000000000000000000000000000000000000000000000000000000000000000000000000000000000000000000000000000000000000000000000000000000000000000000000000000000000000000000000000000000000000000000000000000000000000000000000000000000000000000000000000000000000000000000000000000000000000000000000000000000000000000000000000000000000000000000000000000000000000000000000000000000000000000000000000000000000000000000000000000000000000000000000000000000000",
            "difficulty": "0x00",
            "number": "0x00",
            "gasLimit": "0x016345785d8a0000",
            "gasUsed": "0x00",
            "timestamp": "0x00",
            "extraData": "0x00",
            "mixHash": "0x0000000000000000000000000000000000000000000000000000000000000000",
            "nonce": "0x0000000000000000",
            "baseFeePerGas": "0x07",
            "withdrawalsRoot": "0x56e81f171bcc55a6ff8345e692c0f86e5b48e01b996cadc001622fb5e363b421",
            "blobGasUsed": "0x00",
            "excessBlobGas": "0x00",
            "parentBeaconBlockRoot": "0x0000000000000000000000000000000000000000000000000000000000000000",
            "hash": "0x350fdfbab76d86e303ffba65030d644d155c498051d6cfa48f1fd61b4363bb05"
        },
        "pre": {
            "0x000f3df6d732807ef1319fb7b8bb8522d0beac02": {
                "nonce": "0x01",
                "balance": "0x00",
                "code": "0x3373fffffffffffffffffffffffffffffffffffffffe14604d57602036146024575f5ffd5b5f35801560495762001fff810690815414603c575f5ffd5b62001fff01545f5260205ff35b5f5ffd5b62001fff42064281555f359062001fff015500",
                "storage": {}
            },
            "0xa94f5374fce5edbc8e2a8697c15331677e6ebf0b": {
                "nonce": "0x00",
                "balance": "0x0de0b6b3a7640000",
                "code": "0x",
                "storage": {}
            },
            "0x0000000000000000000000000000000000001000": {
                "nonce": "0x01",
                "balance": "0x00",
                "code": "0xef0001010004020001000c04000000008000036001600060003e60016000f3",
                "storage": {}
            },
            "0x0000000000000000000000000000000000001100": {
                "nonce": "0x01",
                "balance": "0x00",
                "code": "0x6001600060003e60016000f3",
                "storage": {}
            },
            "0x0000000000000000000000000000000000001200": {
                "nonce": "0x01",
                "balance": "0x00",
                "code": "0xef000101000402000100540400000000800004600060006000730000000000000000000000000000000000001000f86002553d6005556001600060003e600051600455600060006000730000000000000000000000000000000000001100f86003553d60065500",
                "storage": {}
            }
        },
        "postState": {
            "0x0000000000000000000000000000000000001000": {
                "nonce": "0x01",
                "balance": "0x00",
                "code": "0xef0001010004020001000c04000000008000036001600060003e60016000f3",
                "storage": {}
            },
            "0x0000000000000000000000000000000000001100": {
                "nonce": "0x01",
                "balance": "0x00",
                "code": "0x6001600060003e60016000f3",
                "storage": {}
            },
            "0x0000000000000000000000000000000000001200": {
                "nonce": "0x01",
                "balance": "0x00",
                "code": "0xef000101000402000100540400000000800004600060006000730000000000000000000000000000000000001000f86002553d6005556001600060003e600051600455600060006000730000000000000000000000000000000000001100f86003553d60065500",
                "storage": {
                    "0x03": "0x02",
                    "0x05": "0x01"
                }
            },
            "0x000f3df6d732807ef1319fb7b8bb8522d0beac02": {
                "nonce": "0x01",
                "balance": "0x00",
                "code": "0x3373fffffffffffffffffffffffffffffffffffffffe14604d57602036146024575f5ffd5b5f35801560495762001fff810690815414603c575f5ffd5b62001fff01545f5260205ff35b5f5ffd5b62001fff42064281555f359062001fff015500",
                "storage": {
                    "0x03e8": "0x03e8"
                }
            },
            "0x2adc25665018aa1fe0e6bc666dac8fc2697ff9ba": {
                "nonce": "0x00",
                "balance": "0x5b45d1",
                "code": "0x",
                "storage": {}
            },
            "0xa94f5374fce5edbc8e2a8697c15331677e6ebf0b": {
                "nonce": "0x01",
                "balance": "0x0de0b6b3a633c1f2",
                "code": "0x",
                "storage": {}
            }
        },
        "engineNewPayloads": [
            {
                "executionPayload": {
                    "parentHash": "0x350fdfbab76d86e303ffba65030d644d155c498051d6cfa48f1fd61b4363bb05",
                    "feeRecipient": "0x2adc25665018aa1fe0e6bc666dac8fc2697ff9ba",
                    "stateRoot": "0xb0ca61e6d8bd62d7e6e10c85c78cfb114f84379b18206e0f56e91754253be0ff",
                    "receiptsRoot": "0x3f03c07af774ba74de0652f9284ca1b08cf8e138656bdb8ce9cb4e25aabb356d",
                    "logsBloom": "0x00000000000000000000000000000000000000000000000000000000000000000000000000000000000000000000000000000000000000000000000000000000000000000000000000000000000000000000000000000000000000000000000000000000000000000000000000000000000000000000000000000000000000000000000000000000000000000000000000000000000000000000000000000000000000000000000000000000000000000000000000000000000000000000000000000000000000000000000000000000000000000000000000000000000000000000000000000000000000000000000000000000000000000000000000000000",
                    "blockNumber": "0x1",
                    "gasLimit": "0x16345785d8a0000",
                    "gasUsed": "0x1e6c9b",
                    "timestamp": "0x3e8",
                    "extraData": "0x00",
                    "prevRandao": "0x0000000000000000000000000000000000000000000000000000000000000000",
                    "baseFeePerGas": "0x7",
                    "blobGasUsed": "0x0",
                    "excessBlobGas": "0x0",
                    "blockHash": "0x7ab1683cc6bb22fe20302071a4343dbd77433be2e8f376d13210a5f08a5c16cb",
                    "transactions": [
                        "0xf860800a831e8480940000000000000000000000000000000000001200808025a0579270f05e0fb88612d80ef3697e95436cfc7138ed2dff05f1ef8ef23d63697ba012375b06fa1aab67d5d80cb235011a8899a981bef190290b2cdbff5b50d52f34"
                    ],
                    "withdrawals": []
                },
                "version": "3",
                "expectedBlobVersionedHashes": [],
                "parentBeaconBlockRoot": "0x0000000000000000000000000000000000000000000000000000000000000000"
            }
        ],
        "engineFcuVersion": "3",
        "_info": {
            "hash": "0x61b19fb7ce04643004dacb9bb475c6236f69fd98c21dac38f7f3921606cdd293",
            "comment": "`execution-spec-tests` generated test",
            "filling-transition-tool": "evmone-t8n 0.12.0-dev+commit.85a89e56",
            "description": "Test function documentation:\n\n    Extends the RETURNDATACOPY test for correct out-of-bounds behavior, by checking if the\n    caller frame's context being EOF or legacy doesn't impact the execution logic of the\n    RETURNDATACOPY instance under test.",
            "url": "https://github.com/ethereum/execution-spec-tests/blob/eip7692@v1.0.4/tests/prague/eip7692_eof_v1/eip7069_extcall/test_returndataload.py#L278",
            "reference-spec": "https://github.com/ethereum/EIPs/blob/master/EIPS/eip-7069.md",
            "reference-spec-version": "1795943aeacc86131d5ab6bb3d65824b3b1d4cad"
        }
    }
}