{
    "tests/prague/eip2537_bls_12_381_precompiles/test_bls12_g1msm.py::test_call_types[fork_PragueEIP7692-state_test-inf_times_zero-call_opcode_STATICCALL-]": {
        "env": {
            "currentCoinbase": "0x2adc25665018aa1fe0e6bc666dac8fc2697ff9ba",
            "currentGasLimit": "0x016345785d8a0000",
            "currentNumber": "0x01",
            "currentTimestamp": "0x03e8",
            "currentRandom": "0x0000000000000000000000000000000000000000000000000000000000000000",
            "currentDifficulty": "0x00",
            "currentBaseFee": "0x07",
            "currentExcessBlobGas": "0x00"
        },
        "pre": {
            "0x0000000000000000000000000000000000001000": {
                "nonce": "0x01",
                "balance": "0x00",
                "code": "0x36600060003760006000366000600d613840fa6000553d6001553d600060003e3d600020600255",
                "storage": {}
            },
            "0xa94f5374fce5edbc8e2a8697c15331677e6ebf0b": {
                "nonce": "0x00",
                "balance": "0x038d7ea4c68000",
                "code": "0x",
                "storage": {}
            }
        },
        "transaction": {
            "nonce": "0x00",
            "gasPrice": "0x0a",
            "gasLimit": [
                "0x98cec0"
            ],
            "to": "0x0000000000000000000000000000000000001000",
            "value": [
                "0x00"
            ],
            "data": [
                "0x00000000000000000000000000000000000000000000000000000000000000000000000000000000000000000000000000000000000000000000000000000000000000000000000000000000000000000000000000000000000000000000000000000000000000000000000000000000000000000000000000000000000000000000000000000000000000000000000000000000000000000000000000000000"
            ],
            "sender": "0xa94f5374fce5edbc8e2a8697c15331677e6ebf0b",
            "secretKey": "0x45a915e4d060149eb4365960e6a7a45f334393093061116b197e3240065ff2d8"
        },
        "post": {
            "Prague": [
                {
                    "hash": "0xadfdb8030a196af4099a927ca31b7e5a2f2a28f5aa30109c4f404e928af808d2",
                    "logs": "0x1dcc4de8dec75d7aab85b567b6ccd41ad312451b948a7413f0a142fd40d49347",
                    "txbytes": "0xf90101800a8398cec094000000000000000000000000000000000000100080b8a00000000000000000000000000000000000000000000000000000000000000000000000000000000000000000000000000000000000000000000000000000000000000000000000000000000000000000000000000000000000000000000000000000000000000000000000000000000000000000000000000000000000000000000000000000000000000000000000000000000000000000000000000000000026a076c01b8359ef9363da56571dcd2d7dfcb57205815c041156e701bff088f969e0a05bd40d2bf5338684c202a3c07ce49ee43e66a097bc22c73d8dc6c98ec2ac04a5",
                    "indexes": {
                        "data": 0,
                        "gas": 0,
                        "value": 0
                    }
                }
            ]
        },
        "_info": {
            "hash": "0xa22d92fa2cdfb3ea7a80b40768998603d85862e220ba0be44691b7a88da42542",
            "comment": "`execution-spec-tests` generated test",
            "filling-transition-tool": "Hyperledger Besu evm 24.9-develop-beaee59",
            "description": "Test function documentation:\n\n    Test the BLS12_G1MSM precompile using different call types.",
            "url": "https://github.com/ethereum/execution-spec-tests/blob/eip7692@v1.1.0/tests/prague/eip2537_bls_12_381_precompiles/test_bls12_g1msm.py#L121",
            "reference-spec": "https://github.com/ethereum/EIPs/blob/master/EIPS/eip-2537.md",
            "reference-spec-version": "cd0f016ad0c4c68b8b1f5c502ef61ab9353b6e5e"
        }
    },
    "tests/prague/eip2537_bls_12_381_precompiles/test_bls12_g1msm.py::test_call_types[fork_PragueEIP7692-state_test-inf_times_zero-call_opcode_DELEGATECALL-]": {
        "env": {
            "currentCoinbase": "0x2adc25665018aa1fe0e6bc666dac8fc2697ff9ba",
            "currentGasLimit": "0x016345785d8a0000",
            "currentNumber": "0x01",
            "currentTimestamp": "0x03e8",
            "currentRandom": "0x0000000000000000000000000000000000000000000000000000000000000000",
            "currentDifficulty": "0x00",
            "currentBaseFee": "0x07",
            "currentExcessBlobGas": "0x00"
        },
        "pre": {
            "0x0000000000000000000000000000000000001000": {
                "nonce": "0x01",
                "balance": "0x00",
                "code": "0x36600060003760006000366000600d613840f46000553d6001553d600060003e3d600020600255",
                "storage": {}
            },
            "0xa94f5374fce5edbc8e2a8697c15331677e6ebf0b": {
                "nonce": "0x00",
                "balance": "0x038d7ea4c68000",
                "code": "0x",
                "storage": {}
            }
        },
        "transaction": {
            "nonce": "0x00",
            "gasPrice": "0x0a",
            "gasLimit": [
                "0x98cec0"
            ],
            "to": "0x0000000000000000000000000000000000001000",
            "value": [
                "0x00"
            ],
            "data": [
                "0x00000000000000000000000000000000000000000000000000000000000000000000000000000000000000000000000000000000000000000000000000000000000000000000000000000000000000000000000000000000000000000000000000000000000000000000000000000000000000000000000000000000000000000000000000000000000000000000000000000000000000000000000000000000"
            ],
            "sender": "0xa94f5374fce5edbc8e2a8697c15331677e6ebf0b",
            "secretKey": "0x45a915e4d060149eb4365960e6a7a45f334393093061116b197e3240065ff2d8"
        },
        "post": {
            "Prague": [
                {
                    "hash": "0x6f77c3beea65d7d2826c95f2b179482ba57d6b7c69d44784c97d7837c221ac80",
                    "logs": "0x1dcc4de8dec75d7aab85b567b6ccd41ad312451b948a7413f0a142fd40d49347",
                    "txbytes": "0xf90101800a8398cec094000000000000000000000000000000000000100080b8a00000000000000000000000000000000000000000000000000000000000000000000000000000000000000000000000000000000000000000000000000000000000000000000000000000000000000000000000000000000000000000000000000000000000000000000000000000000000000000000000000000000000000000000000000000000000000000000000000000000000000000000000000000000026a076c01b8359ef9363da56571dcd2d7dfcb57205815c041156e701bff088f969e0a05bd40d2bf5338684c202a3c07ce49ee43e66a097bc22c73d8dc6c98ec2ac04a5",
                    "indexes": {
                        "data": 0,
                        "gas": 0,
                        "value": 0
                    }
                }
            ]
        },
        "_info": {
            "hash": "0x112d6a74136a3e57cbb4f8563032fa861ca1adc226e301deee464b980addf3b6",
            "comment": "`execution-spec-tests` generated test",
            "filling-transition-tool": "Hyperledger Besu evm 24.9-develop-beaee59",
            "description": "Test function documentation:\n\n    Test the BLS12_G1MSM precompile using different call types.",
            "url": "https://github.com/ethereum/execution-spec-tests/blob/eip7692@v1.1.0/tests/prague/eip2537_bls_12_381_precompiles/test_bls12_g1msm.py#L121",
            "reference-spec": "https://github.com/ethereum/EIPs/blob/master/EIPS/eip-2537.md",
            "reference-spec-version": "cd0f016ad0c4c68b8b1f5c502ef61ab9353b6e5e"
        }
    },
    "tests/prague/eip2537_bls_12_381_precompiles/test_bls12_g1msm.py::test_call_types[fork_PragueEIP7692-state_test-inf_times_zero-call_opcode_CALLCODE-]": {
        "env": {
            "currentCoinbase": "0x2adc25665018aa1fe0e6bc666dac8fc2697ff9ba",
            "currentGasLimit": "0x016345785d8a0000",
            "currentNumber": "0x01",
            "currentTimestamp": "0x03e8",
            "currentRandom": "0x0000000000000000000000000000000000000000000000000000000000000000",
            "currentDifficulty": "0x00",
            "currentBaseFee": "0x07",
            "currentExcessBlobGas": "0x00"
        },
        "pre": {
            "0x0000000000000000000000000000000000001000": {
                "nonce": "0x01",
                "balance": "0x00",
                "code": "0x366000600037600060003660006000600d613840f26000553d6001553d600060003e3d600020600255",
                "storage": {}
            },
            "0xa94f5374fce5edbc8e2a8697c15331677e6ebf0b": {
                "nonce": "0x00",
                "balance": "0x038d7ea4c68000",
                "code": "0x",
                "storage": {}
            }
        },
        "transaction": {
            "nonce": "0x00",
            "gasPrice": "0x0a",
            "gasLimit": [
                "0x98cec0"
            ],
            "to": "0x0000000000000000000000000000000000001000",
            "value": [
                "0x00"
            ],
            "data": [
                "0x00000000000000000000000000000000000000000000000000000000000000000000000000000000000000000000000000000000000000000000000000000000000000000000000000000000000000000000000000000000000000000000000000000000000000000000000000000000000000000000000000000000000000000000000000000000000000000000000000000000000000000000000000000000"
            ],
            "sender": "0xa94f5374fce5edbc8e2a8697c15331677e6ebf0b",
            "secretKey": "0x45a915e4d060149eb4365960e6a7a45f334393093061116b197e3240065ff2d8"
        },
        "post": {
            "Prague": [
                {
                    "hash": "0xa88476fc6e67ada7dc0b36b9593edf812afe6ac9cc8d7f73dc84914726788f01",
                    "logs": "0x1dcc4de8dec75d7aab85b567b6ccd41ad312451b948a7413f0a142fd40d49347",
                    "txbytes": "0xf90101800a8398cec094000000000000000000000000000000000000100080b8a00000000000000000000000000000000000000000000000000000000000000000000000000000000000000000000000000000000000000000000000000000000000000000000000000000000000000000000000000000000000000000000000000000000000000000000000000000000000000000000000000000000000000000000000000000000000000000000000000000000000000000000000000000000026a076c01b8359ef9363da56571dcd2d7dfcb57205815c041156e701bff088f969e0a05bd40d2bf5338684c202a3c07ce49ee43e66a097bc22c73d8dc6c98ec2ac04a5",
                    "indexes": {
                        "data": 0,
                        "gas": 0,
                        "value": 0
                    }
                }
            ]
        },
        "_info": {
            "hash": "0x2dd931fccecf30336c6ab4c885fe001c81c0b5d023d4ce82af6e4cb220dac0f3",
            "comment": "`execution-spec-tests` generated test",
            "filling-transition-tool": "Hyperledger Besu evm 24.9-develop-beaee59",
            "description": "Test function documentation:\n\n    Test the BLS12_G1MSM precompile using different call types.",
            "url": "https://github.com/ethereum/execution-spec-tests/blob/eip7692@v1.1.0/tests/prague/eip2537_bls_12_381_precompiles/test_bls12_g1msm.py#L121",
            "reference-spec": "https://github.com/ethereum/EIPs/blob/master/EIPS/eip-2537.md",
            "reference-spec-version": "cd0f016ad0c4c68b8b1f5c502ef61ab9353b6e5e"
        }
    }
}