{
    "000_shanghai": {
        "_info": {
            "filling-transition-tool": "evm version 1.11.0-unstable-55f41d19-20230126",
            "filling-block-build-tool": "evm version 1.11.0-unstable-55f41d19-20230126"
        },
        "blocks": [
            {
                "rlp": "0xf902a2f90218a0020d527ce165438b5d76a6abfaa71edc5b4a248afe6450f8e1f4defa14aaa0a8a01dcc4de8dec75d7aab85b567b6ccd41ad312451b948a7413f0a142fd40d49347942adc25665018aa1fe0e6bc666dac8fc2697ff9baa03f74a4b1bb69bd8a745c5b62575d147c589736acee90254172881b6c62333d38a049a2d809098c6edfd1d4e5234f558250e7cf55d522dac1b269b22d1f55a7e93aa0bc6ba05130ac3238fe34c923b90d798a66ebc0384834f1fb1ad6ef9eea57dfa8b901000000000000000000000000000000000000000000000000000000000000000000000000000000000000000000000000000000000000000000000000000000000000000000000000000000000000000000000000000000000000000000000000000000000000000000000000000000000000000000000000000000000000000000000000000000000000000000000000000000000000000000000000000000000000000000000000000000000000000000000000000000000000000000000000000000000000000000000000000000000000000000000000000000000000000000000000000000000000000000000000000000000000000000000000000000000080018502540be40082b3ea8203e800a0000000000000000000000000000000000000000000000000000000000000000088000000000000000007a056e81f171bcc55a6ff8345e692c0f86e5b48e01b996cadc001622fb5e363b421f883f881800a8405f5e10094cccccccccccccccccccccccccccccccccccccccc80a000000000000000000000000000000000000000000000000000000000000001001ca02542fd0b42e03e7c1aaf58dbf8e449c1b6eaa76b817762125463eca5f77a1a55a042d7f786848e28be6104990029d92ac66074609c361e54f63b82af72ecb155fec0c0",
                "blockHeader": {
                    "parentHash": "0x020d527ce165438b5d76a6abfaa71edc5b4a248afe6450f8e1f4defa14aaa0a8",
                    "uncleHash": "0x1dcc4de8dec75d7aab85b567b6ccd41ad312451b948a7413f0a142fd40d49347",
                    "coinbase": "0x2adc25665018aa1fe0e6bc666dac8fc2697ff9ba",
                    "stateRoot": "0x3f74a4b1bb69bd8a745c5b62575d147c589736acee90254172881b6c62333d38",
                    "transactionsTrie": "0x49a2d809098c6edfd1d4e5234f558250e7cf55d522dac1b269b22d1f55a7e93a",
                    "receiptTrie": "0xbc6ba05130ac3238fe34c923b90d798a66ebc0384834f1fb1ad6ef9eea57dfa8",
                    "bloom": "0x00000000000000000000000000000000000000000000000000000000000000000000000000000000000000000000000000000000000000000000000000000000000000000000000000000000000000000000000000000000000000000000000000000000000000000000000000000000000000000000000000000000000000000000000000000000000000000000000000000000000000000000000000000000000000000000000000000000000000000000000000000000000000000000000000000000000000000000000000000000000000000000000000000000000000000000000000000000000000000000000000000000000000000000000000000000",
                    "difficulty": "0x0",
                    "number": "0x1",
                    "gasLimit": "0x2540be400",
                    "gasUsed": "0xb3ea",
                    "timestamp": "0x3e8",
                    "extraData": "0x00",
                    "mixHash": "0x0000000000000000000000000000000000000000000000000000000000000000",
                    "nonce": "0x0000000000000000",
                    "baseFeePerGas": "0x7",
                    "hash": "0x8185e531589dfbb655ff38ad4cd20d3faeb80482001d44fef451cc0cc32b0a25",
                    "withdrawalsRoot": "0x56e81f171bcc55a6ff8345e692c0f86e5b48e01b996cadc001622fb5e363b421"
                }
            }
        ],
        "genesisBlockHeader": {
            "parentHash": "0x0000000000000000000000000000000000000000000000000000000000000000",
            "uncleHash": "0x1dcc4de8dec75d7aab85b567b6ccd41ad312451b948a7413f0a142fd40d49347",
            "coinbase": "0x0000000000000000000000000000000000000000",
            "stateRoot": "0xb41d6a9784c2a7000e7eed979c48c032fba6c6a8d0199f6a04dc32ac0c367424",
            "transactionsTrie": "0x56e81f171bcc55a6ff8345e692c0f86e5b48e01b996cadc001622fb5e363b421",
            "receiptTrie": "0x56e81f171bcc55a6ff8345e692c0f86e5b48e01b996cadc001622fb5e363b421",
            "bloom": "0x00000000000000000000000000000000000000000000000000000000000000000000000000000000000000000000000000000000000000000000000000000000000000000000000000000000000000000000000000000000000000000000000000000000000000000000000000000000000000000000000000000000000000000000000000000000000000000000000000000000000000000000000000000000000000000000000000000000000000000000000000000000000000000000000000000000000000000000000000000000000000000000000000000000000000000000000000000000000000000000000000000000000000000000000000000000",
            "difficulty": "0x0",
            "number": "0x0",
            "gasLimit": "0x2540be400",
            "gasUsed": "0x12a05f200",
            "timestamp": "0x0",
            "extraData": "0x00",
            "mixHash": "0x0000000000000000000000000000000000000000000000000000000000000000",
            "nonce": "0x0000000000000000",
            "baseFeePerGas": "0x7",
            "hash": "0x020d527ce165438b5d76a6abfaa71edc5b4a248afe6450f8e1f4defa14aaa0a8",
            "withdrawalsRoot": "0x56e81f171bcc55a6ff8345e692c0f86e5b48e01b996cadc001622fb5e363b421"
        },
        "genesisRLP": "0xf9021ef90219a00000000000000000000000000000000000000000000000000000000000000000a01dcc4de8dec75d7aab85b567b6ccd41ad312451b948a7413f0a142fd40d49347940000000000000000000000000000000000000000a0b41d6a9784c2a7000e7eed979c48c032fba6c6a8d0199f6a04dc32ac0c367424a056e81f171bcc55a6ff8345e692c0f86e5b48e01b996cadc001622fb5e363b421a056e81f171bcc55a6ff8345e692c0f86e5b48e01b996cadc001622fb5e363b421b901000000000000000000000000000000000000000000000000000000000000000000000000000000000000000000000000000000000000000000000000000000000000000000000000000000000000000000000000000000000000000000000000000000000000000000000000000000000000000000000000000000000000000000000000000000000000000000000000000000000000000000000000000000000000000000000000000000000000000000000000000000000000000000000000000000000000000000000000000000000000000000000000000000000000000000000000000000000000000000000000000000000000000000000000000000000080808502540be40085012a05f2008000a0000000000000000000000000000000000000000000000000000000000000000088000000000000000007a056e81f171bcc55a6ff8345e692c0f86e5b48e01b996cadc001622fb5e363b421c0c0",
        "lastblockhash": "0x8185e531589dfbb655ff38ad4cd20d3faeb80482001d44fef451cc0cc32b0a25",
        "network": "Shanghai",
        "pre": {
            "0xa94f5374fce5edbc8e2a8697c15331677e6ebf0b": {
                "nonce": "0x0",
                "balance": "0x3635c9adc5dea00000",
                "code": "0x",
                "storage": {}
            },
            "0xcccccccccccccccccccccccccccccccccccccccc": {
                "nonce": "0x0",
                "balance": "0x0",
                "code": "0x600035606481610100811460295761020081146033576103008114603d576104008114604757604e565b601b82019150604e565b601b82019150604e565b601882019150604e565b6018820191505b5060008060008060008686f16000555050",
                "storage": {}
            },
            "0x0000000000000000000000000000000000000100": {
                "nonce": "0x0",
                "balance": "0x0",
                "code": "0x416000806000806000856000f15050",
                "storage": {}
            },
            "0x0000000000000000000000000000000000000200": {
                "nonce": "0x0",
                "balance": "0x0",
                "code": "0x416000806000806000856000f25050",
                "storage": {}
            },
            "0x0000000000000000000000000000000000000300": {
                "nonce": "0x0",
                "balance": "0x0",
                "code": "0x41600080600080846000f45050",
                "storage": {}
            },
            "0x0000000000000000000000000000000000000400": {
                "nonce": "0x0",
                "balance": "0x0",
                "code": "0x41600080600080846000fa5050",
                "storage": {}
            }
        },
        "postState": {
            "0x0000000000000000000000000000000000000100": {
                "code": "0x416000806000806000856000f15050",
                "balance": "0x0"
            },
            "0x0000000000000000000000000000000000000200": {
                "code": "0x416000806000806000856000f25050",
                "balance": "0x0"
            },
            "0x0000000000000000000000000000000000000300": {
                "code": "0x41600080600080846000f45050",
                "balance": "0x0"
            },
            "0x0000000000000000000000000000000000000400": {
                "code": "0x41600080600080846000fa5050",
                "balance": "0x0"
            },
            "0x2adc25665018aa1fe0e6bc666dac8fc2697ff9ba": {
                "balance": "0x21bbe"
            },
            "0xa94f5374fce5edbc8e2a8697c15331677e6ebf0b": {
                "balance": "0x3635c9adc5de98f8dc",
                "nonce": "0x1"
            },
            "0xcccccccccccccccccccccccccccccccccccccccc": {
                "code": "0x600035606481610100811460295761020081146033576103008114603d576104008114604757604e565b601b82019150604e565b601b82019150604e565b601882019150604e565b6018820191505b5060008060008060008686f16000555050",
                "storage": {
                    "0x0000000000000000000000000000000000000000000000000000000000000000": "0x0000000000000000000000000000000000000000000000000000000000000001"
                },
                "balance": "0x0"
            }
        },
        "sealEngine": "NoProof"
    },
    "001_shanghai": {
        "_info": {
            "filling-transition-tool": "evm version 1.11.0-unstable-55f41d19-20230126",
            "filling-block-build-tool": "evm version 1.11.0-unstable-55f41d19-20230126"
        },
        "blocks": [
            {
                "rlp": "0xf902a2f90218a0020d527ce165438b5d76a6abfaa71edc5b4a248afe6450f8e1f4defa14aaa0a8a01dcc4de8dec75d7aab85b567b6ccd41ad312451b948a7413f0a142fd40d49347942adc25665018aa1fe0e6bc666dac8fc2697ff9baa0ea20b63bffcc93cb7bd3a68b448835adf60ed0fba9a6872f9a185daa08e706b0a0a04c4fb18b817746b218fd3aef97faff24851dd21668e8bd10120468046c9786a0f1206def9eb9b679af5914ed6e70660d622257375c4c830477343bca019b6b60b901000000000000000000000000000000000000000000000000000000000000000000000000000000000000000000000000000000000000000000000000000000000000000000000000000000000000000000000000000000000000000000000000000000000000000000000000000000000000000000000000000000000000000000000000000000000000000000000000000000000000000000000000000000000000000000000000000000000000000000000000000000000000000000000000000000000000000000000000000000000000000000000000000000000000000000000000000000000000000000000000000000000000000000000000000000000080018502540be40082b4008203e800a0000000000000000000000000000000000000000000000000000000000000000088000000000000000007a056e81f171bcc55a6ff8345e692c0f86e5b48e01b996cadc001622fb5e363b421f883f881800a8405f5e10094cccccccccccccccccccccccccccccccccccccccc80a000000000000000000000000000000000000000000000000000000000000002001ca0f7fe19667546003f274c417bb6256010670affbb899cac46d2f38ef77e3bf348a05d2269168d67f8b563abf6007bfe93461ab68023791ff39348eba35075217601c0c0",
                "blockHeader": {
                    "parentHash": "0x020d527ce165438b5d76a6abfaa71edc5b4a248afe6450f8e1f4defa14aaa0a8",
                    "uncleHash": "0x1dcc4de8dec75d7aab85b567b6ccd41ad312451b948a7413f0a142fd40d49347",
                    "coinbase": "0x2adc25665018aa1fe0e6bc666dac8fc2697ff9ba",
                    "stateRoot": "0xea20b63bffcc93cb7bd3a68b448835adf60ed0fba9a6872f9a185daa08e706b0",
                    "transactionsTrie": "0xa04c4fb18b817746b218fd3aef97faff24851dd21668e8bd10120468046c9786",
                    "receiptTrie": "0xf1206def9eb9b679af5914ed6e70660d622257375c4c830477343bca019b6b60",
                    "bloom": "0x00000000000000000000000000000000000000000000000000000000000000000000000000000000000000000000000000000000000000000000000000000000000000000000000000000000000000000000000000000000000000000000000000000000000000000000000000000000000000000000000000000000000000000000000000000000000000000000000000000000000000000000000000000000000000000000000000000000000000000000000000000000000000000000000000000000000000000000000000000000000000000000000000000000000000000000000000000000000000000000000000000000000000000000000000000000",
                    "difficulty": "0x0",
                    "number": "0x1",
                    "gasLimit": "0x2540be400",
                    "gasUsed": "0xb400",
                    "timestamp": "0x3e8",
                    "extraData": "0x00",
                    "mixHash": "0x0000000000000000000000000000000000000000000000000000000000000000",
                    "nonce": "0x0000000000000000",
                    "baseFeePerGas": "0x7",
                    "hash": "0x5ed6cffde8470d664672f76ace014710a655a05c77bb38316d516885fdb87124",
                    "withdrawalsRoot": "0x56e81f171bcc55a6ff8345e692c0f86e5b48e01b996cadc001622fb5e363b421"
                }
            }
        ],
        "genesisBlockHeader": {
            "parentHash": "0x0000000000000000000000000000000000000000000000000000000000000000",
            "uncleHash": "0x1dcc4de8dec75d7aab85b567b6ccd41ad312451b948a7413f0a142fd40d49347",
            "coinbase": "0x0000000000000000000000000000000000000000",
            "stateRoot": "0xb41d6a9784c2a7000e7eed979c48c032fba6c6a8d0199f6a04dc32ac0c367424",
            "transactionsTrie": "0x56e81f171bcc55a6ff8345e692c0f86e5b48e01b996cadc001622fb5e363b421",
            "receiptTrie": "0x56e81f171bcc55a6ff8345e692c0f86e5b48e01b996cadc001622fb5e363b421",
            "bloom": "0x00000000000000000000000000000000000000000000000000000000000000000000000000000000000000000000000000000000000000000000000000000000000000000000000000000000000000000000000000000000000000000000000000000000000000000000000000000000000000000000000000000000000000000000000000000000000000000000000000000000000000000000000000000000000000000000000000000000000000000000000000000000000000000000000000000000000000000000000000000000000000000000000000000000000000000000000000000000000000000000000000000000000000000000000000000000",
            "difficulty": "0x0",
            "number": "0x0",
            "gasLimit": "0x2540be400",
            "gasUsed": "0x12a05f200",
            "timestamp": "0x0",
            "extraData": "0x00",
            "mixHash": "0x0000000000000000000000000000000000000000000000000000000000000000",
            "nonce": "0x0000000000000000",
            "baseFeePerGas": "0x7",
            "hash": "0x020d527ce165438b5d76a6abfaa71edc5b4a248afe6450f8e1f4defa14aaa0a8",
            "withdrawalsRoot": "0x56e81f171bcc55a6ff8345e692c0f86e5b48e01b996cadc001622fb5e363b421"
        },
        "genesisRLP": "0xf9021ef90219a00000000000000000000000000000000000000000000000000000000000000000a01dcc4de8dec75d7aab85b567b6ccd41ad312451b948a7413f0a142fd40d49347940000000000000000000000000000000000000000a0b41d6a9784c2a7000e7eed979c48c032fba6c6a8d0199f6a04dc32ac0c367424a056e81f171bcc55a6ff8345e692c0f86e5b48e01b996cadc001622fb5e363b421a056e81f171bcc55a6ff8345e692c0f86e5b48e01b996cadc001622fb5e363b421b901000000000000000000000000000000000000000000000000000000000000000000000000000000000000000000000000000000000000000000000000000000000000000000000000000000000000000000000000000000000000000000000000000000000000000000000000000000000000000000000000000000000000000000000000000000000000000000000000000000000000000000000000000000000000000000000000000000000000000000000000000000000000000000000000000000000000000000000000000000000000000000000000000000000000000000000000000000000000000000000000000000000000000000000000000000000080808502540be40085012a05f2008000a0000000000000000000000000000000000000000000000000000000000000000088000000000000000007a056e81f171bcc55a6ff8345e692c0f86e5b48e01b996cadc001622fb5e363b421c0c0",
        "lastblockhash": "0x5ed6cffde8470d664672f76ace014710a655a05c77bb38316d516885fdb87124",
        "network": "Shanghai",
        "pre": {
            "0xa94f5374fce5edbc8e2a8697c15331677e6ebf0b": {
                "nonce": "0x0",
                "balance": "0x3635c9adc5dea00000",
                "code": "0x",
                "storage": {}
            },
            "0xcccccccccccccccccccccccccccccccccccccccc": {
                "nonce": "0x0",
                "balance": "0x0",
                "code": "0x600035606481610100811460295761020081146033576103008114603d576104008114604757604e565b601b82019150604e565b601b82019150604e565b601882019150604e565b6018820191505b5060008060008060008686f16000555050",
                "storage": {}
            },
            "0x0000000000000000000000000000000000000100": {
                "nonce": "0x0",
                "balance": "0x0",
                "code": "0x416000806000806000856000f15050",
                "storage": {}
            },
            "0x0000000000000000000000000000000000000200": {
                "nonce": "0x0",
                "balance": "0x0",
                "code": "0x416000806000806000856000f25050",
                "storage": {}
            },
            "0x0000000000000000000000000000000000000300": {
                "nonce": "0x0",
                "balance": "0x0",
                "code": "0x41600080600080846000f45050",
                "storage": {}
            },
            "0x0000000000000000000000000000000000000400": {
                "nonce": "0x0",
                "balance": "0x0",
                "code": "0x41600080600080846000fa5050",
                "storage": {}
            }
        },
        "postState": {
            "0x0000000000000000000000000000000000000100": {
                "code": "0x416000806000806000856000f15050",
                "balance": "0x0"
            },
            "0x0000000000000000000000000000000000000200": {
                "code": "0x416000806000806000856000f25050",
                "balance": "0x0"
            },
            "0x0000000000000000000000000000000000000300": {
                "code": "0x41600080600080846000f45050",
                "balance": "0x0"
            },
            "0x0000000000000000000000000000000000000400": {
                "code": "0x41600080600080846000fa5050",
                "balance": "0x0"
            },
            "0x2adc25665018aa1fe0e6bc666dac8fc2697ff9ba": {
                "balance": "0x21c00"
            },
            "0xa94f5374fce5edbc8e2a8697c15331677e6ebf0b": {
                "balance": "0x3635c9adc5de98f800",
                "nonce": "0x1"
            },
            "0xcccccccccccccccccccccccccccccccccccccccc": {
                "code": "0x600035606481610100811460295761020081146033576103008114603d576104008114604757604e565b601b82019150604e565b601b82019150604e565b601882019150604e565b6018820191505b5060008060008060008686f16000555050",
                "storage": {
                    "0x0000000000000000000000000000000000000000000000000000000000000000": "0x0000000000000000000000000000000000000000000000000000000000000001"
                },
                "balance": "0x0"
            }
        },
        "sealEngine": "NoProof"
    },
    "002_shanghai": {
        "_info": {
            "filling-transition-tool": "evm version 1.11.0-unstable-55f41d19-20230126",
            "filling-block-build-tool": "evm version 1.11.0-unstable-55f41d19-20230126"
        },
        "blocks": [
            {
                "rlp": "0xf902a2f90218a0020d527ce165438b5d76a6abfaa71edc5b4a248afe6450f8e1f4defa14aaa0a8a01dcc4de8dec75d7aab85b567b6ccd41ad312451b948a7413f0a142fd40d49347942adc25665018aa1fe0e6bc666dac8fc2697ff9baa03ca518ee5f7fb8489d5f693c488890404bd4f304c7c787614e4fbb91085dafb6a06683d6e6467858dae59a1ed0f7c30ff1706dfc6307498201b23cd6ecf61ea377a06a82cd652fe3fa5a57a65cf1b6679302d76e46a7a0021319c904abc67493e0f9b901000000000000000000000000000000000000000000000000000000000000000000000000000000000000000000000000000000000000000000000000000000000000000000000000000000000000000000000000000000000000000000000000000000000000000000000000000000000000000000000000000000000000000000000000000000000000000000000000000000000000000000000000000000000000000000000000000000000000000000000000000000000000000000000000000000000000000000000000000000000000000000000000000000000000000000000000000000000000000000000000000000000000000000000000000000000080018502540be40082b4138203e800a0000000000000000000000000000000000000000000000000000000000000000088000000000000000007a056e81f171bcc55a6ff8345e692c0f86e5b48e01b996cadc001622fb5e363b421f883f881800a8405f5e10094cccccccccccccccccccccccccccccccccccccccc80a000000000000000000000000000000000000000000000000000000000000003001ba054c8a71977bb89973605e511e1f24949536c1725c1df644282ff2417ecdda792a024b660c62262c328cfe85a26ffb458d081aeace697bd836ab695bf9041981864c0c0",
                "blockHeader": {
                    "parentHash": "0x020d527ce165438b5d76a6abfaa71edc5b4a248afe6450f8e1f4defa14aaa0a8",
                    "uncleHash": "0x1dcc4de8dec75d7aab85b567b6ccd41ad312451b948a7413f0a142fd40d49347",
                    "coinbase": "0x2adc25665018aa1fe0e6bc666dac8fc2697ff9ba",
                    "stateRoot": "0x3ca518ee5f7fb8489d5f693c488890404bd4f304c7c787614e4fbb91085dafb6",
                    "transactionsTrie": "0x6683d6e6467858dae59a1ed0f7c30ff1706dfc6307498201b23cd6ecf61ea377",
                    "receiptTrie": "0x6a82cd652fe3fa5a57a65cf1b6679302d76e46a7a0021319c904abc67493e0f9",
                    "bloom": "0x00000000000000000000000000000000000000000000000000000000000000000000000000000000000000000000000000000000000000000000000000000000000000000000000000000000000000000000000000000000000000000000000000000000000000000000000000000000000000000000000000000000000000000000000000000000000000000000000000000000000000000000000000000000000000000000000000000000000000000000000000000000000000000000000000000000000000000000000000000000000000000000000000000000000000000000000000000000000000000000000000000000000000000000000000000000",
                    "difficulty": "0x0",
                    "number": "0x1",
                    "gasLimit": "0x2540be400",
                    "gasUsed": "0xb413",
                    "timestamp": "0x3e8",
                    "extraData": "0x00",
                    "mixHash": "0x0000000000000000000000000000000000000000000000000000000000000000",
                    "nonce": "0x0000000000000000",
                    "baseFeePerGas": "0x7",
                    "hash": "0xaadf326c61cd6f3a9c50550c3233e5e5e3c6118f249ff7c0bbb709894d97739d",
                    "withdrawalsRoot": "0x56e81f171bcc55a6ff8345e692c0f86e5b48e01b996cadc001622fb5e363b421"
                }
            }
        ],
        "genesisBlockHeader": {
            "parentHash": "0x0000000000000000000000000000000000000000000000000000000000000000",
            "uncleHash": "0x1dcc4de8dec75d7aab85b567b6ccd41ad312451b948a7413f0a142fd40d49347",
            "coinbase": "0x0000000000000000000000000000000000000000",
            "stateRoot": "0xb41d6a9784c2a7000e7eed979c48c032fba6c6a8d0199f6a04dc32ac0c367424",
            "transactionsTrie": "0x56e81f171bcc55a6ff8345e692c0f86e5b48e01b996cadc001622fb5e363b421",
            "receiptTrie": "0x56e81f171bcc55a6ff8345e692c0f86e5b48e01b996cadc001622fb5e363b421",
            "bloom": "0x00000000000000000000000000000000000000000000000000000000000000000000000000000000000000000000000000000000000000000000000000000000000000000000000000000000000000000000000000000000000000000000000000000000000000000000000000000000000000000000000000000000000000000000000000000000000000000000000000000000000000000000000000000000000000000000000000000000000000000000000000000000000000000000000000000000000000000000000000000000000000000000000000000000000000000000000000000000000000000000000000000000000000000000000000000000",
            "difficulty": "0x0",
            "number": "0x0",
            "gasLimit": "0x2540be400",
            "gasUsed": "0x12a05f200",
            "timestamp": "0x0",
            "extraData": "0x00",
            "mixHash": "0x0000000000000000000000000000000000000000000000000000000000000000",
            "nonce": "0x0000000000000000",
            "baseFeePerGas": "0x7",
            "hash": "0x020d527ce165438b5d76a6abfaa71edc5b4a248afe6450f8e1f4defa14aaa0a8",
            "withdrawalsRoot": "0x56e81f171bcc55a6ff8345e692c0f86e5b48e01b996cadc001622fb5e363b421"
        },
        "genesisRLP": "0xf9021ef90219a00000000000000000000000000000000000000000000000000000000000000000a01dcc4de8dec75d7aab85b567b6ccd41ad312451b948a7413f0a142fd40d49347940000000000000000000000000000000000000000a0b41d6a9784c2a7000e7eed979c48c032fba6c6a8d0199f6a04dc32ac0c367424a056e81f171bcc55a6ff8345e692c0f86e5b48e01b996cadc001622fb5e363b421a056e81f171bcc55a6ff8345e692c0f86e5b48e01b996cadc001622fb5e363b421b901000000000000000000000000000000000000000000000000000000000000000000000000000000000000000000000000000000000000000000000000000000000000000000000000000000000000000000000000000000000000000000000000000000000000000000000000000000000000000000000000000000000000000000000000000000000000000000000000000000000000000000000000000000000000000000000000000000000000000000000000000000000000000000000000000000000000000000000000000000000000000000000000000000000000000000000000000000000000000000000000000000000000000000000000000000000080808502540be40085012a05f2008000a0000000000000000000000000000000000000000000000000000000000000000088000000000000000007a056e81f171bcc55a6ff8345e692c0f86e5b48e01b996cadc001622fb5e363b421c0c0",
        "lastblockhash": "0xaadf326c61cd6f3a9c50550c3233e5e5e3c6118f249ff7c0bbb709894d97739d",
        "network": "Shanghai",
        "pre": {
            "0xa94f5374fce5edbc8e2a8697c15331677e6ebf0b": {
                "nonce": "0x0",
                "balance": "0x3635c9adc5dea00000",
                "code": "0x",
                "storage": {}
            },
            "0xcccccccccccccccccccccccccccccccccccccccc": {
                "nonce": "0x0",
                "balance": "0x0",
                "code": "0x600035606481610100811460295761020081146033576103008114603d576104008114604757604e565b601b82019150604e565b601b82019150604e565b601882019150604e565b6018820191505b5060008060008060008686f16000555050",
                "storage": {}
            },
            "0x0000000000000000000000000000000000000100": {
                "nonce": "0x0",
                "balance": "0x0",
                "code": "0x416000806000806000856000f15050",
                "storage": {}
            },
            "0x0000000000000000000000000000000000000200": {
                "nonce": "0x0",
                "balance": "0x0",
                "code": "0x416000806000806000856000f25050",
                "storage": {}
            },
            "0x0000000000000000000000000000000000000300": {
                "nonce": "0x0",
                "balance": "0x0",
                "code": "0x41600080600080846000f45050",
                "storage": {}
            },
            "0x0000000000000000000000000000000000000400": {
                "nonce": "0x0",
                "balance": "0x0",
                "code": "0x41600080600080846000fa5050",
                "storage": {}
            }
        },
        "postState": {
            "0x0000000000000000000000000000000000000100": {
                "code": "0x416000806000806000856000f15050",
                "balance": "0x0"
            },
            "0x0000000000000000000000000000000000000200": {
                "code": "0x416000806000806000856000f25050",
                "balance": "0x0"
            },
            "0x0000000000000000000000000000000000000300": {
                "code": "0x41600080600080846000f45050",
                "balance": "0x0"
            },
            "0x0000000000000000000000000000000000000400": {
                "code": "0x41600080600080846000fa5050",
                "balance": "0x0"
            },
            "0x2adc25665018aa1fe0e6bc666dac8fc2697ff9ba": {
                "balance": "0x21c39"
            },
            "0xa94f5374fce5edbc8e2a8697c15331677e6ebf0b": {
                "balance": "0x3635c9adc5de98f742",
                "nonce": "0x1"
            },
            "0xcccccccccccccccccccccccccccccccccccccccc": {
                "code": "0x600035606481610100811460295761020081146033576103008114603d576104008114604757604e565b601b82019150604e565b601b82019150604e565b601882019150604e565b6018820191505b5060008060008060008686f16000555050",
                "storage": {
                    "0x0000000000000000000000000000000000000000000000000000000000000000": "0x0000000000000000000000000000000000000000000000000000000000000001"
                },
                "balance": "0x0"
            }
        },
        "sealEngine": "NoProof"
    },
    "003_shanghai": {
        "_info": {
            "filling-transition-tool": "evm version 1.11.0-unstable-55f41d19-20230126",
            "filling-block-build-tool": "evm version 1.11.0-unstable-55f41d19-20230126"
        },
        "blocks": [
            {
                "rlp": "0xf902a2f90218a0020d527ce165438b5d76a6abfaa71edc5b4a248afe6450f8e1f4defa14aaa0a8a01dcc4de8dec75d7aab85b567b6ccd41ad312451b948a7413f0a142fd40d49347942adc25665018aa1fe0e6bc666dac8fc2697ff9baa07ce8e696e75775846ed8ad29339186d0626c92f4a0b77136c6a1a4011e12f650a0436f047b32af7f77a89946bda4d7773abb4bb35a8a6cc100bad6ad19aaa31ba9a0b18a535a5d7feda9b7d5b416d7258771df863715cc74486e77ecf7db0f2db0aab901000000000000000000000000000000000000000000000000000000000000000000000000000000000000000000000000000000000000000000000000000000000000000000000000000000000000000000000000000000000000000000000000000000000000000000000000000000000000000000000000000000000000000000000000000000000000000000000000000000000000000000000000000000000000000000000000000000000000000000000000000000000000000000000000000000000000000000000000000000000000000000000000000000000000000000000000000000000000000000000000000000000000000000000000000000000080018502540be40082b41e8203e800a0000000000000000000000000000000000000000000000000000000000000000088000000000000000007a056e81f171bcc55a6ff8345e692c0f86e5b48e01b996cadc001622fb5e363b421f883f881800a8405f5e10094cccccccccccccccccccccccccccccccccccccccc80a000000000000000000000000000000000000000000000000000000000000004001ca0f3623bc605601b2bbd9c7a60c813130283b05719613ea64263b22388bd092e2aa0616c8ee9d86f07728d408f2b2f2890336ca4cf8cc4ac6ba16618626064d3355fc0c0",
                "blockHeader": {
                    "parentHash": "0x020d527ce165438b5d76a6abfaa71edc5b4a248afe6450f8e1f4defa14aaa0a8",
                    "uncleHash": "0x1dcc4de8dec75d7aab85b567b6ccd41ad312451b948a7413f0a142fd40d49347",
                    "coinbase": "0x2adc25665018aa1fe0e6bc666dac8fc2697ff9ba",
                    "stateRoot": "0x7ce8e696e75775846ed8ad29339186d0626c92f4a0b77136c6a1a4011e12f650",
                    "transactionsTrie": "0x436f047b32af7f77a89946bda4d7773abb4bb35a8a6cc100bad6ad19aaa31ba9",
                    "receiptTrie": "0xb18a535a5d7feda9b7d5b416d7258771df863715cc74486e77ecf7db0f2db0aa",
                    "bloom": "0x00000000000000000000000000000000000000000000000000000000000000000000000000000000000000000000000000000000000000000000000000000000000000000000000000000000000000000000000000000000000000000000000000000000000000000000000000000000000000000000000000000000000000000000000000000000000000000000000000000000000000000000000000000000000000000000000000000000000000000000000000000000000000000000000000000000000000000000000000000000000000000000000000000000000000000000000000000000000000000000000000000000000000000000000000000000",
                    "difficulty": "0x0",
                    "number": "0x1",
                    "gasLimit": "0x2540be400",
                    "gasUsed": "0xb41e",
                    "timestamp": "0x3e8",
                    "extraData": "0x00",
                    "mixHash": "0x0000000000000000000000000000000000000000000000000000000000000000",
                    "nonce": "0x0000000000000000",
                    "baseFeePerGas": "0x7",
                    "hash": "0xeb1e008995989dda39d1506727e789ddff5b48149b463a174105d00a063f1c3f",
                    "withdrawalsRoot": "0x56e81f171bcc55a6ff8345e692c0f86e5b48e01b996cadc001622fb5e363b421"
                }
            }
        ],
        "genesisBlockHeader": {
            "parentHash": "0x0000000000000000000000000000000000000000000000000000000000000000",
            "uncleHash": "0x1dcc4de8dec75d7aab85b567b6ccd41ad312451b948a7413f0a142fd40d49347",
            "coinbase": "0x0000000000000000000000000000000000000000",
            "stateRoot": "0xb41d6a9784c2a7000e7eed979c48c032fba6c6a8d0199f6a04dc32ac0c367424",
            "transactionsTrie": "0x56e81f171bcc55a6ff8345e692c0f86e5b48e01b996cadc001622fb5e363b421",
            "receiptTrie": "0x56e81f171bcc55a6ff8345e692c0f86e5b48e01b996cadc001622fb5e363b421",
            "bloom": "0x00000000000000000000000000000000000000000000000000000000000000000000000000000000000000000000000000000000000000000000000000000000000000000000000000000000000000000000000000000000000000000000000000000000000000000000000000000000000000000000000000000000000000000000000000000000000000000000000000000000000000000000000000000000000000000000000000000000000000000000000000000000000000000000000000000000000000000000000000000000000000000000000000000000000000000000000000000000000000000000000000000000000000000000000000000000",
            "difficulty": "0x0",
            "number": "0x0",
            "gasLimit": "0x2540be400",
            "gasUsed": "0x12a05f200",
            "timestamp": "0x0",
            "extraData": "0x00",
            "mixHash": "0x0000000000000000000000000000000000000000000000000000000000000000",
            "nonce": "0x0000000000000000",
            "baseFeePerGas": "0x7",
            "hash": "0x020d527ce165438b5d76a6abfaa71edc5b4a248afe6450f8e1f4defa14aaa0a8",
            "withdrawalsRoot": "0x56e81f171bcc55a6ff8345e692c0f86e5b48e01b996cadc001622fb5e363b421"
        },
        "genesisRLP": "0xf9021ef90219a00000000000000000000000000000000000000000000000000000000000000000a01dcc4de8dec75d7aab85b567b6ccd41ad312451b948a7413f0a142fd40d49347940000000000000000000000000000000000000000a0b41d6a9784c2a7000e7eed979c48c032fba6c6a8d0199f6a04dc32ac0c367424a056e81f171bcc55a6ff8345e692c0f86e5b48e01b996cadc001622fb5e363b421a056e81f171bcc55a6ff8345e692c0f86e5b48e01b996cadc001622fb5e363b421b901000000000000000000000000000000000000000000000000000000000000000000000000000000000000000000000000000000000000000000000000000000000000000000000000000000000000000000000000000000000000000000000000000000000000000000000000000000000000000000000000000000000000000000000000000000000000000000000000000000000000000000000000000000000000000000000000000000000000000000000000000000000000000000000000000000000000000000000000000000000000000000000000000000000000000000000000000000000000000000000000000000000000000000000000000000000080808502540be40085012a05f2008000a0000000000000000000000000000000000000000000000000000000000000000088000000000000000007a056e81f171bcc55a6ff8345e692c0f86e5b48e01b996cadc001622fb5e363b421c0c0",
        "lastblockhash": "0xeb1e008995989dda39d1506727e789ddff5b48149b463a174105d00a063f1c3f",
        "network": "Shanghai",
        "pre": {
            "0xa94f5374fce5edbc8e2a8697c15331677e6ebf0b": {
                "nonce": "0x0",
                "balance": "0x3635c9adc5dea00000",
                "code": "0x",
                "storage": {}
            },
            "0xcccccccccccccccccccccccccccccccccccccccc": {
                "nonce": "0x0",
                "balance": "0x0",
                "code": "0x600035606481610100811460295761020081146033576103008114603d576104008114604757604e565b601b82019150604e565b601b82019150604e565b601882019150604e565b6018820191505b5060008060008060008686f16000555050",
                "storage": {}
            },
            "0x0000000000000000000000000000000000000100": {
                "nonce": "0x0",
                "balance": "0x0",
                "code": "0x416000806000806000856000f15050",
                "storage": {}
            },
            "0x0000000000000000000000000000000000000200": {
                "nonce": "0x0",
                "balance": "0x0",
                "code": "0x416000806000806000856000f25050",
                "storage": {}
            },
            "0x0000000000000000000000000000000000000300": {
                "nonce": "0x0",
                "balance": "0x0",
                "code": "0x41600080600080846000f45050",
                "storage": {}
            },
            "0x0000000000000000000000000000000000000400": {
                "nonce": "0x0",
                "balance": "0x0",
                "code": "0x41600080600080846000fa5050",
                "storage": {}
            }
        },
        "postState": {
            "0x0000000000000000000000000000000000000100": {
                "code": "0x416000806000806000856000f15050",
                "balance": "0x0"
            },
            "0x0000000000000000000000000000000000000200": {
                "code": "0x416000806000806000856000f25050",
                "balance": "0x0"
            },
            "0x0000000000000000000000000000000000000300": {
                "code": "0x41600080600080846000f45050",
                "balance": "0x0"
            },
            "0x0000000000000000000000000000000000000400": {
                "code": "0x41600080600080846000fa5050",
                "balance": "0x0"
            },
            "0x2adc25665018aa1fe0e6bc666dac8fc2697ff9ba": {
                "balance": "0x21c5a"
            },
            "0xa94f5374fce5edbc8e2a8697c15331677e6ebf0b": {
                "balance": "0x3635c9adc5de98f6d4",
                "nonce": "0x1"
            },
            "0xcccccccccccccccccccccccccccccccccccccccc": {
                "code": "0x600035606481610100811460295761020081146033576103008114603d576104008114604757604e565b601b82019150604e565b601b82019150604e565b601882019150604e565b6018820191505b5060008060008060008686f16000555050",
                "storage": {
                    "0x0000000000000000000000000000000000000000000000000000000000000000": "0x0000000000000000000000000000000000000000000000000000000000000001"
                },
                "balance": "0x0"
            }
        },
        "sealEngine": "NoProof"
    }
}