{
    "tests/osaka/eip7692_eof_v1/eip663_dupn_swapn_exchange/test_dupn.py::test_dupn_all_valid_immediates[fork_Osaka-state_test]": {
        "env": {
            "currentCoinbase": "0x2adc25665018aa1fe0e6bc666dac8fc2697ff9ba",
            "currentGasLimit": "0x016345785d8a0000",
            "currentNumber": "0x01",
            "currentTimestamp": "0x03e8",
            "currentRandom": "0x0000000000000000000000000000000000000000000000000000000000000000",
            "currentDifficulty": "0x00",
            "currentBaseFee": "0x07",
            "currentExcessBlobGas": "0x00"
        },
        "pre": {
            "0xa94f5374fce5edbc8e2a8697c15331677e6ebf0b": {
                "nonce": "0x00",
                "balance": "0x3b9aca00",
                "code": "0x",
                "storage": {}
            },
            "0x0000000000000000000000000000000000001000": {
                "nonce": "0x01",
                "balance": "0x00",
                "code": "0xef000101000402000108010400000000800102610d00610d01610d02610d03610d04610d05610d06610d07610d08610d09610d0a610d0b610d0c610d0d610d0e610d0f610d10610d11610d12610d13610d14610d15610d16610d17610d18610d19610d1a610d1b610d1c610d1d610d1e610d1f610d20610d21610d22610d23610d24610d25610d26610d27610d28610d29610d2a610d2b610d2c610d2d610d2e610d2f610d30610d31610d32610d33610d34610d35610d36610d37610d38610d39610d3a610d3b610d3c610d3d610d3e610d3f610d40610d41610d42610d43610d44610d45610d46610d47610d48610d49610d4a610d4b610d4c610d4d610d4e610d4f610d50610d51610d52610d53610d54610d55610d56610d57610d58610d59610d5a610d5b610d5c610d5d610d5e610d5f610d60610d61610d62610d63610d64610d65610d66610d67610d68610d69610d6a610d6b610d6c610d6d610d6e610d6f610d70610d71610d72610d73610d74610d75610d76610d77610d78610d79610d7a610d7b610d7c610d7d610d7e610d7f610d80610d81610d82610d83610d84610d85610d86610d87610d88610d89610d8a610d8b610d8c610d8d610d8e610d8f610d90610d91610d92610d93610d94610d95610d96610d97610d98610d99610d9a610d9b610d9c610d9d610d9e610d9f610da0610da1610da2610da3610da4610da5610da6610da7610da8610da9610daa610dab610dac610dad610dae610daf610db0610db1610db2610db3610db4610db5610db6610db7610db8610db9610dba610dbb610dbc610dbd610dbe610dbf610dc0610dc1610dc2610dc3610dc4610dc5610dc6610dc7610dc8610dc9610dca610dcb610dcc610dcd610dce610dcf610dd0610dd1610dd2610dd3610dd4610dd5610dd6610dd7610dd8610dd9610dda610ddb610ddc610ddd610dde610ddf610de0610de1610de2610de3610de4610de5610de6610de7610de8610de9610dea610deb610dec610ded610dee610def610df0610df1610df2610df3610df4610df5610df6610df7610df8610df9610dfa610dfb610dfc610dfd610dfe610dffe600600055e601600155e602600255e603600355e604600455e605600555e606600655e607600755e608600855e609600955e60a600a55e60b600b55e60c600c55e60d600d55e60e600e55e60f600f55e610601055e611601155e612601255e613601355e614601455e615601555e616601655e617601755e618601855e619601955e61a601a55e61b601b55e61c601c55e61d601d55e61e601e55e61f601f55e620602055e621602155e622602255e623602355e624602455e625602555e626602655e627602755e628602855e629602955e62a602a55e62b602b55e62c602c55e62d602d55e62e602e55e62f602f55e630603055e631603155e632603255e633603355e634603455e635603555e636603655e637603755e638603855e639603955e63a603a55e63b603b55e63c603c55e63d603d55e63e603e55e63f603f55e640604055e641604155e642604255e643604355e644604455e645604555e646604655e647604755e648604855e649604955e64a604a55e64b604b55e64c604c55e64d604d55e64e604e55e64f604f55e650605055e651605155e652605255e653605355e654605455e655605555e656605655e657605755e658605855e659605955e65a605a55e65b605b55e65c605c55e65d605d55e65e605e55e65f605f55e660606055e661606155e662606255e663606355e664606455e665606555e666606655e667606755e668606855e669606955e66a606a55e66b606b55e66c606c55e66d606d55e66e606e55e66f606f55e670607055e671607155e672607255e673607355e674607455e675607555e676607655e677607755e678607855e679607955e67a607a55e67b607b55e67c607c55e67d607d55e67e607e55e67f607f55e680608055e681608155e682608255e683608355e684608455e685608555e686608655e687608755e688608855e689608955e68a608a55e68b608b55e68c608c55e68d608d55e68e608e55e68f608f55e690609055e691609155e692609255e693609355e694609455e695609555e696609655e697609755e698609855e699609955e69a609a55e69b609b55e69c609c55e69d609d55e69e609e55e69f609f55e6a060a055e6a160a155e6a260a255e6a360a355e6a460a455e6a560a555e6a660a655e6a760a755e6a860a855e6a960a955e6aa60aa55e6ab60ab55e6ac60ac55e6ad60ad55e6ae60ae55e6af60af55e6b060b055e6b160b155e6b260b255e6b360b355e6b460b455e6b560b555e6b660b655e6b760b755e6b860b855e6b960b955e6ba60ba55e6bb60bb55e6bc60bc55e6bd60bd55e6be60be55e6bf60bf55e6c060c055e6c160c155e6c260c255e6c360c355e6c460c455e6c560c555e6c660c655e6c760c755e6c860c855e6c960c955e6ca60ca55e6cb60cb55e6cc60cc55e6cd60cd55e6ce60ce55e6cf60cf55e6d060d055e6d160d155e6d260d255e6d360d355e6d460d455e6d560d555e6d660d655e6d760d755e6d860d855e6d960d955e6da60da55e6db60db55e6dc60dc55e6dd60dd55e6de60de55e6df60df55e6e060e055e6e160e155e6e260e255e6e360e355e6e460e455e6e560e555e6e660e655e6e760e755e6e860e855e6e960e955e6ea60ea55e6eb60eb55e6ec60ec55e6ed60ed55e6ee60ee55e6ef60ef55e6f060f055e6f160f155e6f260f255e6f360f355e6f460f455e6f560f555e6f660f655e6f760f755e6f860f855e6f960f955e6fa60fa55e6fb60fb55e6fc60fc55e6fd60fd55e6fe60fe55e6ff60ff5500",
                "storage": {}
            }
        },
        "transaction": {
            "nonce": "0x00",
            "gasPrice": "0x0a",
            "gasLimit": [
                "0x989680"
            ],
            "to": "0x0000000000000000000000000000000000001000",
            "value": [
                "0x00"
            ],
            "data": [
                "0x"
            ],
            "sender": "0xa94f5374fce5edbc8e2a8697c15331677e6ebf0b",
            "secretKey": "0x45a915e4d060149eb4365960e6a7a45f334393093061116b197e3240065ff2d8"
        },
        "post": {
            "Osaka": [
                {
                    "hash": "0x180ca7c8d4e718c444f909d1813d24b6a23f8e40cfa2bda0f1ee7719737caa75",
                    "logs": "0x1dcc4de8dec75d7aab85b567b6ccd41ad312451b948a7413f0a142fd40d49347",
                    "txbytes": "0xf860800a83989680940000000000000000000000000000000000001000808026a0e5d462429669f661291a8dc4c49a092cfd4922b6f3f31c9189a2f4adf5ecd730a001494afaf472fbb80bcb107ffeb918a2b9115f454027840615d6d20d63c69ac0",
                    "indexes": {
                        "data": 0,
                        "gas": 0,
                        "value": 0
                    }
                }
            ]
        },
        "_info": {
            "hash": "0xbb1e7dec9ab0d3cd6a3b8baa6d1cc29867bf61c3eb80c0a8472666ed84251c08",
            "comment": "`execution-spec-tests` generated test",
            "filling-transition-tool": "Hyperledger Besu evm 24.10-develop-e720d8f",
            "description": "Test function documentation:\n\n    Test case for all valid DUPN immediates.",
            "url": "https://github.com/ethereum/execution-spec-tests/blob/eip7692@v2.0.0/tests/osaka/eip7692_eof_v1/eip663_dupn_swapn_exchange/test_dupn.py#L20",
            "reference-spec": "https://github.com/ethereum/EIPs/blob/master/EIPS/eip-663.md",
            "reference-spec-version": "b658bb87fe039d29e9475d5cfaebca9b92e0fca2"
        }
    }
}