{
    "000-fork=Shanghai": {
        "_info": {
            "filling-transition-tool": "evm version 1.13.5-unstable-4d161dee-20231019",
            "reference-spec": "https://github.com/ethereum/EIPs/blob/master/EIPS/eip-4895.md",
            "reference-spec-version": "81af3b60b632bc9c03513d1d137f25410e3f4d34"
        },
        "network": "Shanghai",
        "genesisRLP": "0xf9021df90217a00000000000000000000000000000000000000000000000000000000000000000a01dcc4de8dec75d7aab85b567b6ccd41ad312451b948a7413f0a142fd40d49347940000000000000000000000000000000000000000a0a2befa3ffa17624ad1357e9a330ea090692dbbeb653e9198c83f8459f0537bafa056e81f171bcc55a6ff8345e692c0f86e5b48e01b996cadc001622fb5e363b421a056e81f171bcc55a6ff8345e692c0f86e5b48e01b996cadc001622fb5e363b421b9010000000000000000000000000000000000000000000000000000000000000000000000000000000000000000000000000000000000000000000000000000000000000000000000000000000000000000000000000000000000000000000000000000000000000000000000000000000000000000000000000000000000000000000000000000000000000000000000000000000000000000000000000000000000000000000000000000000000000000000000000000000000000000000000000000000000000000000000000000000000000000000000000000000000000000000000000000000000000000000000000000000000000000000000000000000000808088016345785d8a0000808000a0000000000000000000000000000000000000000000000000000000000000000088000000000000000007a056e81f171bcc55a6ff8345e692c0f86e5b48e01b996cadc001622fb5e363b421c0c0c0",
        "genesisBlockHeader": {
            "parentHash": "0x0000000000000000000000000000000000000000000000000000000000000000",
            "uncleHash": "0x1dcc4de8dec75d7aab85b567b6ccd41ad312451b948a7413f0a142fd40d49347",
            "coinbase": "0x0000000000000000000000000000000000000000",
            "stateRoot": "0xa2befa3ffa17624ad1357e9a330ea090692dbbeb653e9198c83f8459f0537baf",
            "transactionsTrie": "0x56e81f171bcc55a6ff8345e692c0f86e5b48e01b996cadc001622fb5e363b421",
            "receiptTrie": "0x56e81f171bcc55a6ff8345e692c0f86e5b48e01b996cadc001622fb5e363b421",
            "bloom": "0x00000000000000000000000000000000000000000000000000000000000000000000000000000000000000000000000000000000000000000000000000000000000000000000000000000000000000000000000000000000000000000000000000000000000000000000000000000000000000000000000000000000000000000000000000000000000000000000000000000000000000000000000000000000000000000000000000000000000000000000000000000000000000000000000000000000000000000000000000000000000000000000000000000000000000000000000000000000000000000000000000000000000000000000000000000000",
            "difficulty": "0x00",
            "number": "0x00",
            "gasLimit": "0x016345785d8a0000",
            "gasUsed": "0x00",
            "timestamp": "0x00",
            "extraData": "0x00",
            "mixHash": "0x0000000000000000000000000000000000000000000000000000000000000000",
            "nonce": "0x0000000000000000",
            "baseFeePerGas": "0x07",
            "withdrawalsRoot": "0x56e81f171bcc55a6ff8345e692c0f86e5b48e01b996cadc001622fb5e363b421",
            "hash": "0x68a3f767244628baeeda886cd1063c19ff3bd85f00a82c5b2c5969113d99f172"
        },
        "blocks": [
            {
                "rlp": "0xf902bbf90219a068a3f767244628baeeda886cd1063c19ff3bd85f00a82c5b2c5969113d99f172a01dcc4de8dec75d7aab85b567b6ccd41ad312451b948a7413f0a142fd40d49347942adc25665018aa1fe0e6bc666dac8fc2697ff9baa05db83b2f18ae3f7d7588b6f91c8da2986d8ceff3ba8895001db58e26611b9788a0c571cf73fd8fef916df38a63823699e208de1b224e5bdaed87a4c73f72a07f7ca0073d14bc6015a5a6d55707b94062609b98ccdd5a29733dbf2c9204ab9c65a9e5b9010000000000000000000000000000000000000000000000000000000000000000000000000000000000000000000000000000000000000000000000000000000000000000000000000000000000000000000000000000000000000000000000000000000000000000000000000000000000000000000000000000000000000000000000000000000000000000000000000000000000000000000000000000000000000000000000000000000000000000000000000000000000000000000000000000000000000000000000000000000000000000000000000000000000000000000000000000000000000000000000000000000000000000000000000000000000800188016345785d8a000082b3180c80a0000000000000000000000000000000000000000000000000000000000000000088000000000000000007a07988f56854c1381cb48871662f4ebd920da34bbfc368432cb046d8dde5787853f882f880800a830186a094000000000000000000000000000000000000010080a0000000000000000000000000000000000000000000000000000000000000020026a0fd75940662272e5daac655a822b10f101866916a2975c3821111ad4ab481d48ba067a11d0fcd31933ad4b62b4d6fd4f1540f93406d501e41b82ff59223303f60c5c0d9d8808094000000000000000000000000000000000000020001",
                "blockHeader": {
                    "parentHash": "0x68a3f767244628baeeda886cd1063c19ff3bd85f00a82c5b2c5969113d99f172",
                    "uncleHash": "0x1dcc4de8dec75d7aab85b567b6ccd41ad312451b948a7413f0a142fd40d49347",
                    "coinbase": "0x2adc25665018aa1fe0e6bc666dac8fc2697ff9ba",
                    "stateRoot": "0x5db83b2f18ae3f7d7588b6f91c8da2986d8ceff3ba8895001db58e26611b9788",
                    "transactionsTrie": "0xc571cf73fd8fef916df38a63823699e208de1b224e5bdaed87a4c73f72a07f7c",
                    "receiptTrie": "0x073d14bc6015a5a6d55707b94062609b98ccdd5a29733dbf2c9204ab9c65a9e5",
                    "bloom": "0x00000000000000000000000000000000000000000000000000000000000000000000000000000000000000000000000000000000000000000000000000000000000000000000000000000000000000000000000000000000000000000000000000000000000000000000000000000000000000000000000000000000000000000000000000000000000000000000000000000000000000000000000000000000000000000000000000000000000000000000000000000000000000000000000000000000000000000000000000000000000000000000000000000000000000000000000000000000000000000000000000000000000000000000000000000000",
                    "difficulty": "0x00",
                    "number": "0x01",
                    "gasLimit": "0x016345785d8a0000",
                    "gasUsed": "0xb318",
                    "timestamp": "0x0c",
                    "extraData": "0x",
                    "mixHash": "0x0000000000000000000000000000000000000000000000000000000000000000",
                    "nonce": "0x0000000000000000",
                    "baseFeePerGas": "0x07",
                    "withdrawalsRoot": "0x7988f56854c1381cb48871662f4ebd920da34bbfc368432cb046d8dde5787853",
                    "hash": "0x9463c58d3f36ea0fece27836c93d8c247c1e1828b35b2692cf0385e78bdf77a4"
                },
                "blocknumber": "1",
                "transactions": [
                    {
                        "type": "0x00",
                        "chainId": "0x01",
                        "nonce": "0x00",
                        "gasPrice": "0x0a",
                        "gasLimit": "0x0186a0",
                        "to": "0x0000000000000000000000000000000000000100",
                        "value": "0x00",
                        "data": "0x0000000000000000000000000000000000000000000000000000000000000200",
                        "v": "0x26",
                        "r": "0xfd75940662272e5daac655a822b10f101866916a2975c3821111ad4ab481d48b",
                        "s": "0x67a11d0fcd31933ad4b62b4d6fd4f1540f93406d501e41b82ff59223303f60c5",
                        "sender": "0xa94f5374fce5edbc8e2a8697c15331677e6ebf0b"
                    }
                ],
                "uncleHeaders": [],
                "withdrawals": [
                    {
                        "index": "0x00",
                        "validatorIndex": "0x00",
                        "address": "0x0000000000000000000000000000000000000200",
                        "amount": "0x01"
                    }
                ]
            },
            {
                "rlp": "0xf902a2f90219a09463c58d3f36ea0fece27836c93d8c247c1e1828b35b2692cf0385e78bdf77a4a01dcc4de8dec75d7aab85b567b6ccd41ad312451b948a7413f0a142fd40d49347942adc25665018aa1fe0e6bc666dac8fc2697ff9baa03d64db5bc0cd76d112f90b063f64f612eda495bf0f3faf397ba10903558bf75ca03d3f126d33e4ec0f095adb98fa15709862adc5e24edd8cb674fb0fb9a93112faa0073d14bc6015a5a6d55707b94062609b98ccdd5a29733dbf2c9204ab9c65a9e5b9010000000000000000000000000000000000000000000000000000000000000000000000000000000000000000000000000000000000000000000000000000000000000000000000000000000000000000000000000000000000000000000000000000000000000000000000000000000000000000000000000000000000000000000000000000000000000000000000000000000000000000000000000000000000000000000000000000000000000000000000000000000000000000000000000000000000000000000000000000000000000000000000000000000000000000000000000000000000000000000000000000000000000000000000000000000000800288016345785d8a000082b3181880a0000000000000000000000000000000000000000000000000000000000000000088000000000000000007a056e81f171bcc55a6ff8345e692c0f86e5b48e01b996cadc001622fb5e363b421f882f880010a830186a094000000000000000000000000000000000000010080a0000000000000000000000000000000000000000000000000000000000000020026a09476722b3ad7ab1bdd721e4e0d5c3e059998bf9fae07fb48fd5c7612ca69a97aa018f0bc934e5fb2b21602c25a63391cc23069ecbe7af2c1c2cfe4bef02d719f6cc0c0",
                "blockHeader": {
                    "parentHash": "0x9463c58d3f36ea0fece27836c93d8c247c1e1828b35b2692cf0385e78bdf77a4",
                    "uncleHash": "0x1dcc4de8dec75d7aab85b567b6ccd41ad312451b948a7413f0a142fd40d49347",
                    "coinbase": "0x2adc25665018aa1fe0e6bc666dac8fc2697ff9ba",
                    "stateRoot": "0x3d64db5bc0cd76d112f90b063f64f612eda495bf0f3faf397ba10903558bf75c",
                    "transactionsTrie": "0x3d3f126d33e4ec0f095adb98fa15709862adc5e24edd8cb674fb0fb9a93112fa",
                    "receiptTrie": "0x073d14bc6015a5a6d55707b94062609b98ccdd5a29733dbf2c9204ab9c65a9e5",
                    "bloom": "0x00000000000000000000000000000000000000000000000000000000000000000000000000000000000000000000000000000000000000000000000000000000000000000000000000000000000000000000000000000000000000000000000000000000000000000000000000000000000000000000000000000000000000000000000000000000000000000000000000000000000000000000000000000000000000000000000000000000000000000000000000000000000000000000000000000000000000000000000000000000000000000000000000000000000000000000000000000000000000000000000000000000000000000000000000000000",
                    "difficulty": "0x00",
                    "number": "0x02",
                    "gasLimit": "0x016345785d8a0000",
                    "gasUsed": "0xb318",
                    "timestamp": "0x18",
                    "extraData": "0x",
                    "mixHash": "0x0000000000000000000000000000000000000000000000000000000000000000",
                    "nonce": "0x0000000000000000",
                    "baseFeePerGas": "0x07",
                    "withdrawalsRoot": "0x56e81f171bcc55a6ff8345e692c0f86e5b48e01b996cadc001622fb5e363b421",
                    "hash": "0x21f506439b56b52efd32981a5955005403c2d49c40feacfbd913b0f6ac1cc016"
                },
                "blocknumber": "2",
                "transactions": [
                    {
                        "type": "0x00",
                        "chainId": "0x01",
                        "nonce": "0x01",
                        "gasPrice": "0x0a",
                        "gasLimit": "0x0186a0",
                        "to": "0x0000000000000000000000000000000000000100",
                        "value": "0x00",
                        "data": "0x0000000000000000000000000000000000000000000000000000000000000200",
                        "v": "0x26",
                        "r": "0x9476722b3ad7ab1bdd721e4e0d5c3e059998bf9fae07fb48fd5c7612ca69a97a",
                        "s": "0x18f0bc934e5fb2b21602c25a63391cc23069ecbe7af2c1c2cfe4bef02d719f6c",
                        "sender": "0xa94f5374fce5edbc8e2a8697c15331677e6ebf0b"
                    }
                ],
                "uncleHeaders": [],
                "withdrawals": []
            }
        ],
        "lastblockhash": "0x21f506439b56b52efd32981a5955005403c2d49c40feacfbd913b0f6ac1cc016",
        "pre": {
            "0x0000000000000000000000000000000000000100": {
                "nonce": "0x00",
                "balance": "0x00",
                "code": "0x600035314355",
                "storage": {}
            },
            "0x0000000000000000000000000000000000000200": {
                "nonce": "0x00",
                "balance": "0x3b9aca00",
                "code": "0x",
                "storage": {}
            },
            "0xa94f5374fce5edbc8e2a8697c15331677e6ebf0b": {
                "nonce": "0x00",
                "balance": "0x3635c9adc5dea00000",
                "code": "0x",
                "storage": {}
            }
        },
        "postState": {
            "0x0000000000000000000000000000000000000100": {
                "nonce": "0x00",
                "balance": "0x00",
                "code": "0x600035314355",
                "storage": {
                    "0x01": "0x3b9aca00",
                    "0x02": "0x77359400"
                }
            },
            "0x0000000000000000000000000000000000000200": {
                "nonce": "0x00",
                "balance": "0x77359400",
                "code": "0x",
                "storage": {}
            },
            "0x2adc25665018aa1fe0e6bc666dac8fc2697ff9ba": {
                "nonce": "0x00",
                "balance": "0x043290",
                "code": "0x",
                "storage": {}
            },
            "0xa94f5374fce5edbc8e2a8697c15331677e6ebf0b": {
                "nonce": "0x02",
                "balance": "0x3635c9adc5de920220",
                "code": "0x",
                "storage": {}
            }
        },
        "sealEngine": "NoProof"
    },
    "001-fork=Cancun": {
        "_info": {
            "filling-transition-tool": "evm version 1.13.5-unstable-4d161dee-20231019",
            "reference-spec": "https://github.com/ethereum/EIPs/blob/master/EIPS/eip-4895.md",
            "reference-spec-version": "81af3b60b632bc9c03513d1d137f25410e3f4d34"
        },
        "network": "Cancun",
        "genesisRLP": "0xf90240f9023aa00000000000000000000000000000000000000000000000000000000000000000a01dcc4de8dec75d7aab85b567b6ccd41ad312451b948a7413f0a142fd40d49347940000000000000000000000000000000000000000a04f63479811837e9477810a8adc6108509b16cd390ba871290e3ab70ca0cc1b14a056e81f171bcc55a6ff8345e692c0f86e5b48e01b996cadc001622fb5e363b421a056e81f171bcc55a6ff8345e692c0f86e5b48e01b996cadc001622fb5e363b421b9010000000000000000000000000000000000000000000000000000000000000000000000000000000000000000000000000000000000000000000000000000000000000000000000000000000000000000000000000000000000000000000000000000000000000000000000000000000000000000000000000000000000000000000000000000000000000000000000000000000000000000000000000000000000000000000000000000000000000000000000000000000000000000000000000000000000000000000000000000000000000000000000000000000000000000000000000000000000000000000000000000000000000000000000000000000000808088016345785d8a0000808000a0000000000000000000000000000000000000000000000000000000000000000088000000000000000007a056e81f171bcc55a6ff8345e692c0f86e5b48e01b996cadc001622fb5e363b4218080a00000000000000000000000000000000000000000000000000000000000000000c0c0c0",
        "genesisBlockHeader": {
            "parentHash": "0x0000000000000000000000000000000000000000000000000000000000000000",
            "uncleHash": "0x1dcc4de8dec75d7aab85b567b6ccd41ad312451b948a7413f0a142fd40d49347",
            "coinbase": "0x0000000000000000000000000000000000000000",
            "stateRoot": "0x4f63479811837e9477810a8adc6108509b16cd390ba871290e3ab70ca0cc1b14",
            "transactionsTrie": "0x56e81f171bcc55a6ff8345e692c0f86e5b48e01b996cadc001622fb5e363b421",
            "receiptTrie": "0x56e81f171bcc55a6ff8345e692c0f86e5b48e01b996cadc001622fb5e363b421",
            "bloom": "0x00000000000000000000000000000000000000000000000000000000000000000000000000000000000000000000000000000000000000000000000000000000000000000000000000000000000000000000000000000000000000000000000000000000000000000000000000000000000000000000000000000000000000000000000000000000000000000000000000000000000000000000000000000000000000000000000000000000000000000000000000000000000000000000000000000000000000000000000000000000000000000000000000000000000000000000000000000000000000000000000000000000000000000000000000000000",
            "difficulty": "0x00",
            "number": "0x00",
            "gasLimit": "0x016345785d8a0000",
            "gasUsed": "0x00",
            "timestamp": "0x00",
            "extraData": "0x00",
            "mixHash": "0x0000000000000000000000000000000000000000000000000000000000000000",
            "nonce": "0x0000000000000000",
            "baseFeePerGas": "0x07",
            "withdrawalsRoot": "0x56e81f171bcc55a6ff8345e692c0f86e5b48e01b996cadc001622fb5e363b421",
            "blobGasUsed": "0x00",
            "excessBlobGas": "0x00",
            "parentBeaconBlockRoot": "0x0000000000000000000000000000000000000000000000000000000000000000",
            "hash": "0xd903d8d086ade3a67ab6f827f292db6782bb9d6234edae4260fb71aac16b491d"
        },
        "blocks": [
            {
                "rlp": "0xf902def9023ca0d903d8d086ade3a67ab6f827f292db6782bb9d6234edae4260fb71aac16b491da01dcc4de8dec75d7aab85b567b6ccd41ad312451b948a7413f0a142fd40d49347942adc25665018aa1fe0e6bc666dac8fc2697ff9baa04d320b869491ea90a43dd7f0a36ab3f1ab77f62caaf7625e9554206c116c64c1a0c571cf73fd8fef916df38a63823699e208de1b224e5bdaed87a4c73f72a07f7ca0073d14bc6015a5a6d55707b94062609b98ccdd5a29733dbf2c9204ab9c65a9e5b9010000000000000000000000000000000000000000000000000000000000000000000000000000000000000000000000000000000000000000000000000000000000000000000000000000000000000000000000000000000000000000000000000000000000000000000000000000000000000000000000000000000000000000000000000000000000000000000000000000000000000000000000000000000000000000000000000000000000000000000000000000000000000000000000000000000000000000000000000000000000000000000000000000000000000000000000000000000000000000000000000000000000000000000000000000000000800188016345785d8a000082b3180c80a0000000000000000000000000000000000000000000000000000000000000000088000000000000000007a07988f56854c1381cb48871662f4ebd920da34bbfc368432cb046d8dde57878538080a00000000000000000000000000000000000000000000000000000000000000000f882f880800a830186a094000000000000000000000000000000000000010080a0000000000000000000000000000000000000000000000000000000000000020026a0fd75940662272e5daac655a822b10f101866916a2975c3821111ad4ab481d48ba067a11d0fcd31933ad4b62b4d6fd4f1540f93406d501e41b82ff59223303f60c5c0d9d8808094000000000000000000000000000000000000020001",
                "blockHeader": {
                    "parentHash": "0xd903d8d086ade3a67ab6f827f292db6782bb9d6234edae4260fb71aac16b491d",
                    "uncleHash": "0x1dcc4de8dec75d7aab85b567b6ccd41ad312451b948a7413f0a142fd40d49347",
                    "coinbase": "0x2adc25665018aa1fe0e6bc666dac8fc2697ff9ba",
                    "stateRoot": "0x4d320b869491ea90a43dd7f0a36ab3f1ab77f62caaf7625e9554206c116c64c1",
                    "transactionsTrie": "0xc571cf73fd8fef916df38a63823699e208de1b224e5bdaed87a4c73f72a07f7c",
                    "receiptTrie": "0x073d14bc6015a5a6d55707b94062609b98ccdd5a29733dbf2c9204ab9c65a9e5",
                    "bloom": "0x00000000000000000000000000000000000000000000000000000000000000000000000000000000000000000000000000000000000000000000000000000000000000000000000000000000000000000000000000000000000000000000000000000000000000000000000000000000000000000000000000000000000000000000000000000000000000000000000000000000000000000000000000000000000000000000000000000000000000000000000000000000000000000000000000000000000000000000000000000000000000000000000000000000000000000000000000000000000000000000000000000000000000000000000000000000",
                    "difficulty": "0x00",
                    "number": "0x01",
                    "gasLimit": "0x016345785d8a0000",
                    "gasUsed": "0xb318",
                    "timestamp": "0x0c",
                    "extraData": "0x",
                    "mixHash": "0x0000000000000000000000000000000000000000000000000000000000000000",
                    "nonce": "0x0000000000000000",
                    "baseFeePerGas": "0x07",
                    "withdrawalsRoot": "0x7988f56854c1381cb48871662f4ebd920da34bbfc368432cb046d8dde5787853",
                    "blobGasUsed": "0x00",
                    "excessBlobGas": "0x00",
                    "parentBeaconBlockRoot": "0x0000000000000000000000000000000000000000000000000000000000000000",
                    "hash": "0xb0883a4a13e2450c8a862bb879f993c35727c4b5b6ce849cafbe695fa6afb28f"
                },
                "blocknumber": "1",
                "transactions": [
                    {
                        "type": "0x00",
                        "chainId": "0x01",
                        "nonce": "0x00",
                        "gasPrice": "0x0a",
                        "gasLimit": "0x0186a0",
                        "to": "0x0000000000000000000000000000000000000100",
                        "value": "0x00",
                        "data": "0x0000000000000000000000000000000000000000000000000000000000000200",
                        "v": "0x26",
                        "r": "0xfd75940662272e5daac655a822b10f101866916a2975c3821111ad4ab481d48b",
                        "s": "0x67a11d0fcd31933ad4b62b4d6fd4f1540f93406d501e41b82ff59223303f60c5",
                        "sender": "0xa94f5374fce5edbc8e2a8697c15331677e6ebf0b"
                    }
                ],
                "uncleHeaders": [],
                "withdrawals": [
                    {
                        "index": "0x00",
                        "validatorIndex": "0x00",
                        "address": "0x0000000000000000000000000000000000000200",
                        "amount": "0x01"
                    }
                ]
            },
            {
                "rlp": "0xf902c5f9023ca0b0883a4a13e2450c8a862bb879f993c35727c4b5b6ce849cafbe695fa6afb28fa01dcc4de8dec75d7aab85b567b6ccd41ad312451b948a7413f0a142fd40d49347942adc25665018aa1fe0e6bc666dac8fc2697ff9baa0453432a2afd9b231d2bc74f2eb54438eecccb6c1c29871c33241ec3e47d964faa03d3f126d33e4ec0f095adb98fa15709862adc5e24edd8cb674fb0fb9a93112faa0073d14bc6015a5a6d55707b94062609b98ccdd5a29733dbf2c9204ab9c65a9e5b9010000000000000000000000000000000000000000000000000000000000000000000000000000000000000000000000000000000000000000000000000000000000000000000000000000000000000000000000000000000000000000000000000000000000000000000000000000000000000000000000000000000000000000000000000000000000000000000000000000000000000000000000000000000000000000000000000000000000000000000000000000000000000000000000000000000000000000000000000000000000000000000000000000000000000000000000000000000000000000000000000000000000000000000000000000000000800288016345785d8a000082b3181880a0000000000000000000000000000000000000000000000000000000000000000088000000000000000007a056e81f171bcc55a6ff8345e692c0f86e5b48e01b996cadc001622fb5e363b4218080a00000000000000000000000000000000000000000000000000000000000000000f882f880010a830186a094000000000000000000000000000000000000010080a0000000000000000000000000000000000000000000000000000000000000020026a09476722b3ad7ab1bdd721e4e0d5c3e059998bf9fae07fb48fd5c7612ca69a97aa018f0bc934e5fb2b21602c25a63391cc23069ecbe7af2c1c2cfe4bef02d719f6cc0c0",
                "blockHeader": {
                    "parentHash": "0xb0883a4a13e2450c8a862bb879f993c35727c4b5b6ce849cafbe695fa6afb28f",
                    "uncleHash": "0x1dcc4de8dec75d7aab85b567b6ccd41ad312451b948a7413f0a142fd40d49347",
                    "coinbase": "0x2adc25665018aa1fe0e6bc666dac8fc2697ff9ba",
                    "stateRoot": "0x453432a2afd9b231d2bc74f2eb54438eecccb6c1c29871c33241ec3e47d964fa",
                    "transactionsTrie": "0x3d3f126d33e4ec0f095adb98fa15709862adc5e24edd8cb674fb0fb9a93112fa",
                    "receiptTrie": "0x073d14bc6015a5a6d55707b94062609b98ccdd5a29733dbf2c9204ab9c65a9e5",
                    "bloom": "0x00000000000000000000000000000000000000000000000000000000000000000000000000000000000000000000000000000000000000000000000000000000000000000000000000000000000000000000000000000000000000000000000000000000000000000000000000000000000000000000000000000000000000000000000000000000000000000000000000000000000000000000000000000000000000000000000000000000000000000000000000000000000000000000000000000000000000000000000000000000000000000000000000000000000000000000000000000000000000000000000000000000000000000000000000000000",
                    "difficulty": "0x00",
                    "number": "0x02",
                    "gasLimit": "0x016345785d8a0000",
                    "gasUsed": "0xb318",
                    "timestamp": "0x18",
                    "extraData": "0x",
                    "mixHash": "0x0000000000000000000000000000000000000000000000000000000000000000",
                    "nonce": "0x0000000000000000",
                    "baseFeePerGas": "0x07",
                    "withdrawalsRoot": "0x56e81f171bcc55a6ff8345e692c0f86e5b48e01b996cadc001622fb5e363b421",
                    "blobGasUsed": "0x00",
                    "excessBlobGas": "0x00",
                    "parentBeaconBlockRoot": "0x0000000000000000000000000000000000000000000000000000000000000000",
                    "hash": "0x596d46ebd946680bb13e1821939843c8b452f0d8247e38ec2b440cdde7f699af"
                },
                "blocknumber": "2",
                "transactions": [
                    {
                        "type": "0x00",
                        "chainId": "0x01",
                        "nonce": "0x01",
                        "gasPrice": "0x0a",
                        "gasLimit": "0x0186a0",
                        "to": "0x0000000000000000000000000000000000000100",
                        "value": "0x00",
                        "data": "0x0000000000000000000000000000000000000000000000000000000000000200",
                        "v": "0x26",
                        "r": "0x9476722b3ad7ab1bdd721e4e0d5c3e059998bf9fae07fb48fd5c7612ca69a97a",
                        "s": "0x18f0bc934e5fb2b21602c25a63391cc23069ecbe7af2c1c2cfe4bef02d719f6c",
                        "sender": "0xa94f5374fce5edbc8e2a8697c15331677e6ebf0b"
                    }
                ],
                "uncleHeaders": [],
                "withdrawals": []
            }
        ],
        "lastblockhash": "0x596d46ebd946680bb13e1821939843c8b452f0d8247e38ec2b440cdde7f699af",
        "pre": {
            "0x0000000000000000000000000000000000000100": {
                "nonce": "0x00",
                "balance": "0x00",
                "code": "0x600035314355",
                "storage": {}
            },
            "0x0000000000000000000000000000000000000200": {
                "nonce": "0x00",
                "balance": "0x3b9aca00",
                "code": "0x",
                "storage": {}
            },
            "0x000f3df6d732807ef1319fb7b8bb8522d0beac02": {
                "nonce": "0x01",
                "balance": "0x00",
                "code": "0x3373fffffffffffffffffffffffffffffffffffffffe14604d57602036146024575f5ffd5b5f35801560495762001fff810690815414603c575f5ffd5b62001fff01545f5260205ff35b5f5ffd5b62001fff42064281555f359062001fff015500",
                "storage": {}
            },
            "0xa94f5374fce5edbc8e2a8697c15331677e6ebf0b": {
                "nonce": "0x00",
                "balance": "0x3635c9adc5dea00000",
                "code": "0x",
                "storage": {}
            }
        },
        "postState": {
            "0x0000000000000000000000000000000000000100": {
                "nonce": "0x00",
                "balance": "0x00",
                "code": "0x600035314355",
                "storage": {
                    "0x01": "0x3b9aca00",
                    "0x02": "0x77359400"
                }
            },
            "0x0000000000000000000000000000000000000200": {
                "nonce": "0x00",
                "balance": "0x77359400",
                "code": "0x",
                "storage": {}
            },
            "0x000f3df6d732807ef1319fb7b8bb8522d0beac02": {
                "nonce": "0x01",
                "balance": "0x00",
                "code": "0x3373fffffffffffffffffffffffffffffffffffffffe14604d57602036146024575f5ffd5b5f35801560495762001fff810690815414603c575f5ffd5b62001fff01545f5260205ff35b5f5ffd5b62001fff42064281555f359062001fff015500",
                "storage": {
                    "0x0c": "0x0c",
                    "0x18": "0x18"
                }
            },
            "0x2adc25665018aa1fe0e6bc666dac8fc2697ff9ba": {
                "nonce": "0x00",
                "balance": "0x043290",
                "code": "0x",
                "storage": {}
            },
            "0xa94f5374fce5edbc8e2a8697c15331677e6ebf0b": {
                "nonce": "0x02",
                "balance": "0x3635c9adc5de920220",
                "code": "0x",
                "storage": {}
            }
        },
        "sealEngine": "NoProof"
    }
}