{
    "000-fork=Shanghai": {
        "_info": {
            "filling-transition-tool": "evm version 1.12.1-unstable-cf01e7db-20230808",
            "reference-spec": "https://github.com/ethereum/EIPs/blob/master/EIPS/eip-4895.md",
            "reference-spec-version": "81af3b60b632bc9c03513d1d137f25410e3f4d34"
        },
        "blocks": [
            {
                "rlp": "0xf902c0f90217a0ea2d7e0192d890c222f0302d972a02db0bf0c6d08257d73aa1210d08d24f30c3a01dcc4de8dec75d7aab85b567b6ccd41ad312451b948a7413f0a142fd40d49347942adc25665018aa1fe0e6bc666dac8fc2697ff9baa0203add13519a4aab21576195965596a01da7b53fcef65e2d51b139edf9ee511ca056e81f171bcc55a6ff8345e692c0f86e5b48e01b996cadc001622fb5e363b421a056e81f171bcc55a6ff8345e692c0f86e5b48e01b996cadc001622fb5e363b421b9010000000000000000000000000000000000000000000000000000000000000000000000000000000000000000000000000000000000000000000000000000000000000000000000000000000000000000000000000000000000000000000000000000000000000000000000000000000000000000000000000000000000000000000000000000000000000000000000000000000000000000000000000000000000000000000000000000000000000000000000000000000000000000000000000000000000000000000000000000000000000000000000000000000000000000000000000000000000000000000000000000000000000000000000000000000000800188016345785d8a0000800c80a0000000000000000000000000000000000000000000000000000000000000000088000000000000000007a0f33e3423abc4fbbb3001461b8b36054a7a5450f47e473ad316179b2d66e6f24ac0c0f8a2dd8080940000000000000000000000000000000000000100850800000000e0010194000000000000000000000000000000000000020088ffffffffffffffffe00202940000000000000000000000000000000000000300888000000000000001e00303940000000000000000000000000000000000000400888000000000000000e00404940000000000000000000000000000000000000500887fffffffffffffff",
                "blockHeader": {
                    "parentHash": "0xea2d7e0192d890c222f0302d972a02db0bf0c6d08257d73aa1210d08d24f30c3",
                    "uncleHash": "0x1dcc4de8dec75d7aab85b567b6ccd41ad312451b948a7413f0a142fd40d49347",
                    "coinbase": "0x2adc25665018aa1fe0e6bc666dac8fc2697ff9ba",
                    "stateRoot": "0x203add13519a4aab21576195965596a01da7b53fcef65e2d51b139edf9ee511c",
                    "transactionsTrie": "0x56e81f171bcc55a6ff8345e692c0f86e5b48e01b996cadc001622fb5e363b421",
                    "receiptTrie": "0x56e81f171bcc55a6ff8345e692c0f86e5b48e01b996cadc001622fb5e363b421",
                    "bloom": "0x00000000000000000000000000000000000000000000000000000000000000000000000000000000000000000000000000000000000000000000000000000000000000000000000000000000000000000000000000000000000000000000000000000000000000000000000000000000000000000000000000000000000000000000000000000000000000000000000000000000000000000000000000000000000000000000000000000000000000000000000000000000000000000000000000000000000000000000000000000000000000000000000000000000000000000000000000000000000000000000000000000000000000000000000000000000",
                    "difficulty": "0x00",
                    "number": "0x01",
                    "gasLimit": "0x016345785d8a0000",
                    "gasUsed": "0x00",
                    "timestamp": "0x0c",
                    "extraData": "0x",
                    "mixHash": "0x0000000000000000000000000000000000000000000000000000000000000000",
                    "nonce": "0x0000000000000000",
                    "baseFeePerGas": "0x07",
                    "withdrawalsRoot": "0xf33e3423abc4fbbb3001461b8b36054a7a5450f47e473ad316179b2d66e6f24a",
                    "hash": "0x4caab814a98f342d09ceae68e55e68df892a7127aeea4ff2615224f3eed6db0e"
                },
                "engineNewPayload": {
                    "executionPayload": {
                        "parentHash": "0xea2d7e0192d890c222f0302d972a02db0bf0c6d08257d73aa1210d08d24f30c3",
                        "feeRecipient": "0x2adc25665018aa1fe0e6bc666dac8fc2697ff9ba",
                        "stateRoot": "0x203add13519a4aab21576195965596a01da7b53fcef65e2d51b139edf9ee511c",
                        "receiptsRoot": "0x56e81f171bcc55a6ff8345e692c0f86e5b48e01b996cadc001622fb5e363b421",
                        "logsBloom": "0x00000000000000000000000000000000000000000000000000000000000000000000000000000000000000000000000000000000000000000000000000000000000000000000000000000000000000000000000000000000000000000000000000000000000000000000000000000000000000000000000000000000000000000000000000000000000000000000000000000000000000000000000000000000000000000000000000000000000000000000000000000000000000000000000000000000000000000000000000000000000000000000000000000000000000000000000000000000000000000000000000000000000000000000000000000000",
                        "blockNumber": "0x1",
                        "gasLimit": "0x16345785d8a0000",
                        "gasUsed": "0x0",
                        "timestamp": "0xc",
                        "extraData": "0x",
                        "prevRandao": "0x0000000000000000000000000000000000000000000000000000000000000000",
                        "baseFeePerGas": "0x7",
                        "blockHash": "0x4caab814a98f342d09ceae68e55e68df892a7127aeea4ff2615224f3eed6db0e",
                        "transactions": [],
                        "withdrawals": [
                            {
                                "index": "0x0",
                                "validatorIndex": "0x0",
                                "address": "0x0000000000000000000000000000000000000100",
                                "amount": "0x800000000"
                            },
                            {
                                "index": "0x1",
                                "validatorIndex": "0x1",
                                "address": "0x0000000000000000000000000000000000000200",
                                "amount": "0xffffffffffffffff"
                            },
                            {
                                "index": "0x2",
                                "validatorIndex": "0x2",
                                "address": "0x0000000000000000000000000000000000000300",
                                "amount": "0x8000000000000001"
                            },
                            {
                                "index": "0x3",
                                "validatorIndex": "0x3",
                                "address": "0x0000000000000000000000000000000000000400",
                                "amount": "0x8000000000000000"
                            },
                            {
                                "index": "0x4",
                                "validatorIndex": "0x4",
                                "address": "0x0000000000000000000000000000000000000500",
                                "amount": "0x7fffffffffffffff"
                            }
                        ]
                    },
                    "version": "2"
                },
                "blocknumber": "1",
                "transactions": [],
                "uncleHeaders": [],
                "withdrawals": [
                    {
                        "index": "0x00",
                        "validatorIndex": "0x00",
                        "address": "0x0000000000000000000000000000000000000100",
                        "amount": "0x0800000000"
                    },
                    {
                        "index": "0x01",
                        "validatorIndex": "0x01",
                        "address": "0x0000000000000000000000000000000000000200",
                        "amount": "0xffffffffffffffff"
                    },
                    {
                        "index": "0x02",
                        "validatorIndex": "0x02",
                        "address": "0x0000000000000000000000000000000000000300",
                        "amount": "0x8000000000000001"
                    },
                    {
                        "index": "0x03",
                        "validatorIndex": "0x03",
                        "address": "0x0000000000000000000000000000000000000400",
                        "amount": "0x8000000000000000"
                    },
                    {
                        "index": "0x04",
                        "validatorIndex": "0x04",
                        "address": "0x0000000000000000000000000000000000000500",
                        "amount": "0x7fffffffffffffff"
                    }
                ]
            }
        ],
        "genesisBlockHeader": {
            "parentHash": "0x0000000000000000000000000000000000000000000000000000000000000000",
            "uncleHash": "0x1dcc4de8dec75d7aab85b567b6ccd41ad312451b948a7413f0a142fd40d49347",
            "coinbase": "0x0000000000000000000000000000000000000000",
            "stateRoot": "0x70c42824108fafccadbfce71e6e22660c4fad89be18be324cd15ef351969a8c8",
            "transactionsTrie": "0x56e81f171bcc55a6ff8345e692c0f86e5b48e01b996cadc001622fb5e363b421",
            "receiptTrie": "0x56e81f171bcc55a6ff8345e692c0f86e5b48e01b996cadc001622fb5e363b421",
            "bloom": "0x00000000000000000000000000000000000000000000000000000000000000000000000000000000000000000000000000000000000000000000000000000000000000000000000000000000000000000000000000000000000000000000000000000000000000000000000000000000000000000000000000000000000000000000000000000000000000000000000000000000000000000000000000000000000000000000000000000000000000000000000000000000000000000000000000000000000000000000000000000000000000000000000000000000000000000000000000000000000000000000000000000000000000000000000000000000",
            "difficulty": "0x00",
            "number": "0x00",
            "gasLimit": "0x016345785d8a0000",
            "gasUsed": "0x00",
            "timestamp": "0x00",
            "extraData": "0x00",
            "mixHash": "0x0000000000000000000000000000000000000000000000000000000000000000",
            "nonce": "0x0000000000000000",
            "baseFeePerGas": "0x07",
            "withdrawalsRoot": "0x56e81f171bcc55a6ff8345e692c0f86e5b48e01b996cadc001622fb5e363b421",
            "hash": "0xea2d7e0192d890c222f0302d972a02db0bf0c6d08257d73aa1210d08d24f30c3"
        },
        "genesisRLP": "0xf9021df90217a00000000000000000000000000000000000000000000000000000000000000000a01dcc4de8dec75d7aab85b567b6ccd41ad312451b948a7413f0a142fd40d49347940000000000000000000000000000000000000000a070c42824108fafccadbfce71e6e22660c4fad89be18be324cd15ef351969a8c8a056e81f171bcc55a6ff8345e692c0f86e5b48e01b996cadc001622fb5e363b421a056e81f171bcc55a6ff8345e692c0f86e5b48e01b996cadc001622fb5e363b421b9010000000000000000000000000000000000000000000000000000000000000000000000000000000000000000000000000000000000000000000000000000000000000000000000000000000000000000000000000000000000000000000000000000000000000000000000000000000000000000000000000000000000000000000000000000000000000000000000000000000000000000000000000000000000000000000000000000000000000000000000000000000000000000000000000000000000000000000000000000000000000000000000000000000000000000000000000000000000000000000000000000000000000000000000000000000000808088016345785d8a0000808000a0000000000000000000000000000000000000000000000000000000000000000088000000000000000007a056e81f171bcc55a6ff8345e692c0f86e5b48e01b996cadc001622fb5e363b421c0c0c0",
        "lastblockhash": "0x4caab814a98f342d09ceae68e55e68df892a7127aeea4ff2615224f3eed6db0e",
        "network": "Shanghai",
        "pre": {
            "0xa94f5374fce5edbc8e2a8697c15331677e6ebf0b": {
                "nonce": "0x00",
                "balance": "0x3635c9adc5dea00000",
                "code": "0x",
                "storage": {}
            }
        },
        "postState": {
            "0x0000000000000000000000000000000000000100": {
                "nonce": "0x00",
                "balance": "0x01dcd6500000000000",
                "code": "0x",
                "storage": {}
            },
            "0x0000000000000000000000000000000000000200": {
                "nonce": "0x00",
                "balance": "0x3b9ac9ffffffffffc4653600",
                "code": "0x",
                "storage": {}
            },
            "0x0000000000000000000000000000000000000300": {
                "nonce": "0x00",
                "balance": "0x1dcd6500000000003b9aca00",
                "code": "0x",
                "storage": {}
            },
            "0x0000000000000000000000000000000000000400": {
                "nonce": "0x00",
                "balance": "0x1dcd65000000000000000000",
                "code": "0x",
                "storage": {}
            },
            "0x0000000000000000000000000000000000000500": {
                "nonce": "0x00",
                "balance": "0x1dcd64ffffffffffc4653600",
                "code": "0x",
                "storage": {}
            },
            "0xa94f5374fce5edbc8e2a8697c15331677e6ebf0b": {
                "nonce": "0x00",
                "balance": "0x3635c9adc5dea00000",
                "code": "0x",
                "storage": {}
            }
        },
        "sealEngine": "NoProof"
    },
    "001-fork=Cancun": {
        "_info": {
            "filling-transition-tool": "evm version 1.12.1-unstable-cf01e7db-20230808",
            "reference-spec": "https://github.com/ethereum/EIPs/blob/master/EIPS/eip-4895.md",
            "reference-spec-version": "81af3b60b632bc9c03513d1d137f25410e3f4d34"
        },
        "blocks": [
            {
                "rlp": "0xf902e3f9023aa0f47af8b11624df5bb452858351b80116d19af761e00ac133cfe4ba7bb88aadeba01dcc4de8dec75d7aab85b567b6ccd41ad312451b948a7413f0a142fd40d49347942adc25665018aa1fe0e6bc666dac8fc2697ff9baa0a05f5818a16cc7f09d8efeab565b4da0ad70e4808988663185190e689e18804ca056e81f171bcc55a6ff8345e692c0f86e5b48e01b996cadc001622fb5e363b421a056e81f171bcc55a6ff8345e692c0f86e5b48e01b996cadc001622fb5e363b421b9010000000000000000000000000000000000000000000000000000000000000000000000000000000000000000000000000000000000000000000000000000000000000000000000000000000000000000000000000000000000000000000000000000000000000000000000000000000000000000000000000000000000000000000000000000000000000000000000000000000000000000000000000000000000000000000000000000000000000000000000000000000000000000000000000000000000000000000000000000000000000000000000000000000000000000000000000000000000000000000000000000000000000000000000000000000000800188016345785d8a0000800c80a0000000000000000000000000000000000000000000000000000000000000000088000000000000000007a0f33e3423abc4fbbb3001461b8b36054a7a5450f47e473ad316179b2d66e6f24a8080a00000000000000000000000000000000000000000000000000000000000000000c0c0f8a2dd8080940000000000000000000000000000000000000100850800000000e0010194000000000000000000000000000000000000020088ffffffffffffffffe00202940000000000000000000000000000000000000300888000000000000001e00303940000000000000000000000000000000000000400888000000000000000e00404940000000000000000000000000000000000000500887fffffffffffffff",
                "blockHeader": {
                    "parentHash": "0xf47af8b11624df5bb452858351b80116d19af761e00ac133cfe4ba7bb88aadeb",
                    "uncleHash": "0x1dcc4de8dec75d7aab85b567b6ccd41ad312451b948a7413f0a142fd40d49347",
                    "coinbase": "0x2adc25665018aa1fe0e6bc666dac8fc2697ff9ba",
                    "stateRoot": "0xa05f5818a16cc7f09d8efeab565b4da0ad70e4808988663185190e689e18804c",
                    "transactionsTrie": "0x56e81f171bcc55a6ff8345e692c0f86e5b48e01b996cadc001622fb5e363b421",
                    "receiptTrie": "0x56e81f171bcc55a6ff8345e692c0f86e5b48e01b996cadc001622fb5e363b421",
                    "bloom": "0x00000000000000000000000000000000000000000000000000000000000000000000000000000000000000000000000000000000000000000000000000000000000000000000000000000000000000000000000000000000000000000000000000000000000000000000000000000000000000000000000000000000000000000000000000000000000000000000000000000000000000000000000000000000000000000000000000000000000000000000000000000000000000000000000000000000000000000000000000000000000000000000000000000000000000000000000000000000000000000000000000000000000000000000000000000000",
                    "difficulty": "0x00",
                    "number": "0x01",
                    "gasLimit": "0x016345785d8a0000",
                    "gasUsed": "0x00",
                    "timestamp": "0x0c",
                    "extraData": "0x",
                    "mixHash": "0x0000000000000000000000000000000000000000000000000000000000000000",
                    "nonce": "0x0000000000000000",
                    "baseFeePerGas": "0x07",
                    "withdrawalsRoot": "0xf33e3423abc4fbbb3001461b8b36054a7a5450f47e473ad316179b2d66e6f24a",
                    "blobGasUsed": "0x00",
                    "excessBlobGas": "0x00",
                    "parentBeaconBlockRoot": "0x0000000000000000000000000000000000000000000000000000000000000000",
                    "hash": "0x4632296c6d6e974516dbc30e8c83d0093d3594928a2bf4fd78e7491b623094e0"
                },
                "engineNewPayload": {
                    "executionPayload": {
                        "parentHash": "0xf47af8b11624df5bb452858351b80116d19af761e00ac133cfe4ba7bb88aadeb",
                        "feeRecipient": "0x2adc25665018aa1fe0e6bc666dac8fc2697ff9ba",
                        "stateRoot": "0xa05f5818a16cc7f09d8efeab565b4da0ad70e4808988663185190e689e18804c",
                        "receiptsRoot": "0x56e81f171bcc55a6ff8345e692c0f86e5b48e01b996cadc001622fb5e363b421",
                        "logsBloom": "0x00000000000000000000000000000000000000000000000000000000000000000000000000000000000000000000000000000000000000000000000000000000000000000000000000000000000000000000000000000000000000000000000000000000000000000000000000000000000000000000000000000000000000000000000000000000000000000000000000000000000000000000000000000000000000000000000000000000000000000000000000000000000000000000000000000000000000000000000000000000000000000000000000000000000000000000000000000000000000000000000000000000000000000000000000000000",
                        "blockNumber": "0x1",
                        "gasLimit": "0x16345785d8a0000",
                        "gasUsed": "0x0",
                        "timestamp": "0xc",
                        "extraData": "0x",
                        "prevRandao": "0x0000000000000000000000000000000000000000000000000000000000000000",
                        "baseFeePerGas": "0x7",
                        "blobGasUsed": "0x0",
                        "excessBlobGas": "0x0",
                        "blockHash": "0x4632296c6d6e974516dbc30e8c83d0093d3594928a2bf4fd78e7491b623094e0",
                        "transactions": [],
                        "withdrawals": [
                            {
                                "index": "0x0",
                                "validatorIndex": "0x0",
                                "address": "0x0000000000000000000000000000000000000100",
                                "amount": "0x800000000"
                            },
                            {
                                "index": "0x1",
                                "validatorIndex": "0x1",
                                "address": "0x0000000000000000000000000000000000000200",
                                "amount": "0xffffffffffffffff"
                            },
                            {
                                "index": "0x2",
                                "validatorIndex": "0x2",
                                "address": "0x0000000000000000000000000000000000000300",
                                "amount": "0x8000000000000001"
                            },
                            {
                                "index": "0x3",
                                "validatorIndex": "0x3",
                                "address": "0x0000000000000000000000000000000000000400",
                                "amount": "0x8000000000000000"
                            },
                            {
                                "index": "0x4",
                                "validatorIndex": "0x4",
                                "address": "0x0000000000000000000000000000000000000500",
                                "amount": "0x7fffffffffffffff"
                            }
                        ]
                    },
                    "expectedBlobVersionedHashes": [],
                    "version": "3",
                    "parentBeaconBlockRoot": "0x0000000000000000000000000000000000000000000000000000000000000000"
                },
                "blocknumber": "1",
                "transactions": [],
                "uncleHeaders": [],
                "withdrawals": [
                    {
                        "index": "0x00",
                        "validatorIndex": "0x00",
                        "address": "0x0000000000000000000000000000000000000100",
                        "amount": "0x0800000000"
                    },
                    {
                        "index": "0x01",
                        "validatorIndex": "0x01",
                        "address": "0x0000000000000000000000000000000000000200",
                        "amount": "0xffffffffffffffff"
                    },
                    {
                        "index": "0x02",
                        "validatorIndex": "0x02",
                        "address": "0x0000000000000000000000000000000000000300",
                        "amount": "0x8000000000000001"
                    },
                    {
                        "index": "0x03",
                        "validatorIndex": "0x03",
                        "address": "0x0000000000000000000000000000000000000400",
                        "amount": "0x8000000000000000"
                    },
                    {
                        "index": "0x04",
                        "validatorIndex": "0x04",
                        "address": "0x0000000000000000000000000000000000000500",
                        "amount": "0x7fffffffffffffff"
                    }
                ]
            }
        ],
        "genesisBlockHeader": {
            "parentHash": "0x0000000000000000000000000000000000000000000000000000000000000000",
            "uncleHash": "0x1dcc4de8dec75d7aab85b567b6ccd41ad312451b948a7413f0a142fd40d49347",
            "coinbase": "0x0000000000000000000000000000000000000000",
            "stateRoot": "0x36c74e65de21810414059f68c4b1ec3174578042b0a724df047e6c7a76f0814c",
            "transactionsTrie": "0x56e81f171bcc55a6ff8345e692c0f86e5b48e01b996cadc001622fb5e363b421",
            "receiptTrie": "0x56e81f171bcc55a6ff8345e692c0f86e5b48e01b996cadc001622fb5e363b421",
            "bloom": "0x00000000000000000000000000000000000000000000000000000000000000000000000000000000000000000000000000000000000000000000000000000000000000000000000000000000000000000000000000000000000000000000000000000000000000000000000000000000000000000000000000000000000000000000000000000000000000000000000000000000000000000000000000000000000000000000000000000000000000000000000000000000000000000000000000000000000000000000000000000000000000000000000000000000000000000000000000000000000000000000000000000000000000000000000000000000",
            "difficulty": "0x00",
            "number": "0x00",
            "gasLimit": "0x016345785d8a0000",
            "gasUsed": "0x00",
            "timestamp": "0x00",
            "extraData": "0x00",
            "mixHash": "0x0000000000000000000000000000000000000000000000000000000000000000",
            "nonce": "0x0000000000000000",
            "baseFeePerGas": "0x07",
            "withdrawalsRoot": "0x56e81f171bcc55a6ff8345e692c0f86e5b48e01b996cadc001622fb5e363b421",
            "blobGasUsed": "0x00",
            "excessBlobGas": "0x00",
            "parentBeaconBlockRoot": "0x0000000000000000000000000000000000000000000000000000000000000000",
            "hash": "0xf47af8b11624df5bb452858351b80116d19af761e00ac133cfe4ba7bb88aadeb"
        },
        "genesisRLP": "0xf90240f9023aa00000000000000000000000000000000000000000000000000000000000000000a01dcc4de8dec75d7aab85b567b6ccd41ad312451b948a7413f0a142fd40d49347940000000000000000000000000000000000000000a036c74e65de21810414059f68c4b1ec3174578042b0a724df047e6c7a76f0814ca056e81f171bcc55a6ff8345e692c0f86e5b48e01b996cadc001622fb5e363b421a056e81f171bcc55a6ff8345e692c0f86e5b48e01b996cadc001622fb5e363b421b9010000000000000000000000000000000000000000000000000000000000000000000000000000000000000000000000000000000000000000000000000000000000000000000000000000000000000000000000000000000000000000000000000000000000000000000000000000000000000000000000000000000000000000000000000000000000000000000000000000000000000000000000000000000000000000000000000000000000000000000000000000000000000000000000000000000000000000000000000000000000000000000000000000000000000000000000000000000000000000000000000000000000000000000000000000000000808088016345785d8a0000808000a0000000000000000000000000000000000000000000000000000000000000000088000000000000000007a056e81f171bcc55a6ff8345e692c0f86e5b48e01b996cadc001622fb5e363b4218080a00000000000000000000000000000000000000000000000000000000000000000c0c0c0",
        "lastblockhash": "0x4632296c6d6e974516dbc30e8c83d0093d3594928a2bf4fd78e7491b623094e0",
        "network": "Cancun",
        "pre": {
            "0x000000000000000000000000000000000000000b": {
                "nonce": "0x01",
                "balance": "0x00",
                "code": "0x3373fffffffffffffffffffffffffffffffffffffffe14604457602036146024575f5ffd5b620180005f350680545f35146037575f5ffd5b6201800001545f5260205ff35b42620180004206555f3562018000420662018000015500",
                "storage": {}
            },
            "0xa94f5374fce5edbc8e2a8697c15331677e6ebf0b": {
                "nonce": "0x00",
                "balance": "0x3635c9adc5dea00000",
                "code": "0x",
                "storage": {}
            }
        },
        "postState": {
            "0x000000000000000000000000000000000000000b": {
                "nonce": "0x01",
                "balance": "0x00",
                "code": "0x3373fffffffffffffffffffffffffffffffffffffffe14604457602036146024575f5ffd5b620180005f350680545f35146037575f5ffd5b6201800001545f5260205ff35b42620180004206555f3562018000420662018000015500",
                "storage": {
                    "0x0c": "0x0c"
                }
            },
            "0x0000000000000000000000000000000000000100": {
                "nonce": "0x00",
                "balance": "0x01dcd6500000000000",
                "code": "0x",
                "storage": {}
            },
            "0x0000000000000000000000000000000000000200": {
                "nonce": "0x00",
                "balance": "0x3b9ac9ffffffffffc4653600",
                "code": "0x",
                "storage": {}
            },
            "0x0000000000000000000000000000000000000300": {
                "nonce": "0x00",
                "balance": "0x1dcd6500000000003b9aca00",
                "code": "0x",
                "storage": {}
            },
            "0x0000000000000000000000000000000000000400": {
                "nonce": "0x00",
                "balance": "0x1dcd65000000000000000000",
                "code": "0x",
                "storage": {}
            },
            "0x0000000000000000000000000000000000000500": {
                "nonce": "0x00",
                "balance": "0x1dcd64ffffffffffc4653600",
                "code": "0x",
                "storage": {}
            },
            "0xa94f5374fce5edbc8e2a8697c15331677e6ebf0b": {
                "nonce": "0x00",
                "balance": "0x3635c9adc5dea00000",
                "code": "0x",
                "storage": {}
            }
        },
        "sealEngine": "NoProof"
    }
}