{
    "000-fork=Shanghai-without_tx_value-fork=Shanghai": {
        "_info": {
            "filling-transition-tool": "evm version 1.12.1-unstable-c7b099b2",
            "filling-block-build-tool": "evm version 1.12.1-unstable-c7b099b2",
            "reference-spec": "https://github.com/ethereum/EIPs/blob/master/EIPS/eip-4895.md",
            "reference-spec-version": "81af3b60b632bc9c03513d1d137f25410e3f4d34"
        },
        "blocks": [
            {
                "rlp": "0xf9028bf90219a0ea2d7e0192d890c222f0302d972a02db0bf0c6d08257d73aa1210d08d24f30c3a01dcc4de8dec75d7aab85b567b6ccd41ad312451b948a7413f0a142fd40d49347942adc25665018aa1fe0e6bc666dac8fc2697ff9baa0c6cf22164712d551b010fc0517382ac6c207383b12fa9eadc88e2ceb24a93708a0281aace64456a0a888d431f32d4369a11575745acc16ea14469008bc2095f00ca0c0d135e565c8018d14e5a2084f6c89c90cf71c74b1932a9ad22ce70197a25587b9010000000000000000000000000000000000000000000000000000000000000000000000000000000000000000000000000000000000000000000000000000000000000000000000000000000000000000000000000000000000000000000000000000000000000000000000000000000000000000000000000000000000000000000000000000000000000000000000000000000000000000000000000000000000000000000000000000000000000000000000000000000000000000000000000000000000000000000000000000000000000000000000000000000000000000000000000000000000000000000000000000000000000000000000000000000000800188016345785d8a000082d01a0c80a0000000000000000000000000000000000000000000000000000000000000000088000000000000000007a082cc6fbe74c41496b382fcdf25216c5af7bdbb5a3929e8f2e61bd6445ab66436f852f850800a830f424080808460015ff325a0adca6192690ec2e38c08c576ff1756f39f1b7e9884787eb74a63f28f13b85afda06c54a91d5b0df86d7d47ca90ce1ab92b76d5975946c22e1711122d2109b70a47c0d9d88080946295ee1b4f6dd65047762f924ecd367c17eabf8f01",
                "blockHeader": {
                    "parentHash": "0xea2d7e0192d890c222f0302d972a02db0bf0c6d08257d73aa1210d08d24f30c3",
                    "uncleHash": "0x1dcc4de8dec75d7aab85b567b6ccd41ad312451b948a7413f0a142fd40d49347",
                    "coinbase": "0x2adc25665018aa1fe0e6bc666dac8fc2697ff9ba",
                    "stateRoot": "0xc6cf22164712d551b010fc0517382ac6c207383b12fa9eadc88e2ceb24a93708",
                    "transactionsTrie": "0x281aace64456a0a888d431f32d4369a11575745acc16ea14469008bc2095f00c",
                    "receiptTrie": "0xc0d135e565c8018d14e5a2084f6c89c90cf71c74b1932a9ad22ce70197a25587",
                    "bloom": "0x00000000000000000000000000000000000000000000000000000000000000000000000000000000000000000000000000000000000000000000000000000000000000000000000000000000000000000000000000000000000000000000000000000000000000000000000000000000000000000000000000000000000000000000000000000000000000000000000000000000000000000000000000000000000000000000000000000000000000000000000000000000000000000000000000000000000000000000000000000000000000000000000000000000000000000000000000000000000000000000000000000000000000000000000000000000",
                    "difficulty": "0x00",
                    "number": "0x01",
                    "gasLimit": "0x016345785d8a0000",
                    "gasUsed": "0xd01a",
                    "timestamp": "0x0c",
                    "extraData": "0x",
                    "mixHash": "0x0000000000000000000000000000000000000000000000000000000000000000",
                    "nonce": "0x0000000000000000",
                    "baseFeePerGas": "0x07",
                    "hash": "0xee2a6d06ae31c4551c7ad326ee1edb59d75f11f3f3554c1f99d7b2dc8da51acb",
                    "withdrawalsRoot": "0x82cc6fbe74c41496b382fcdf25216c5af7bdbb5a3929e8f2e61bd6445ab66436"
                },
                "blocknumber": "1",
                "transactions": [
                    {
                        "type": "0x00",
                        "chainId": "0x01",
                        "nonce": "0x00",
                        "gasPrice": "0x0a",
                        "value": "0x00",
                        "protected": true,
                        "secretKey": "0x45a915e4d060149eb4365960e6a7a45f334393093061116b197e3240065ff2d8",
                        "data": "0x60015ff3",
                        "gasLimit": "0x0f4240",
                        "to": ""
                    }
                ],
                "uncleHeaders": [],
                "withdrawals": [
                    {
                        "index": "0x00",
                        "validatorIndex": "0x00",
                        "address": "0x6295ee1b4f6dd65047762f924ecd367c17eabf8f",
                        "amount": "0x01"
                    }
                ]
            }
        ],
        "genesisBlockHeader": {
            "parentHash": "0x0000000000000000000000000000000000000000000000000000000000000000",
            "uncleHash": "0x1dcc4de8dec75d7aab85b567b6ccd41ad312451b948a7413f0a142fd40d49347",
            "coinbase": "0x0000000000000000000000000000000000000000",
            "stateRoot": "0x70c42824108fafccadbfce71e6e22660c4fad89be18be324cd15ef351969a8c8",
            "transactionsTrie": "0x56e81f171bcc55a6ff8345e692c0f86e5b48e01b996cadc001622fb5e363b421",
            "receiptTrie": "0x56e81f171bcc55a6ff8345e692c0f86e5b48e01b996cadc001622fb5e363b421",
            "bloom": "0x00000000000000000000000000000000000000000000000000000000000000000000000000000000000000000000000000000000000000000000000000000000000000000000000000000000000000000000000000000000000000000000000000000000000000000000000000000000000000000000000000000000000000000000000000000000000000000000000000000000000000000000000000000000000000000000000000000000000000000000000000000000000000000000000000000000000000000000000000000000000000000000000000000000000000000000000000000000000000000000000000000000000000000000000000000000",
            "difficulty": "0x00",
            "number": "0x00",
            "gasLimit": "0x016345785d8a0000",
            "gasUsed": "0x00",
            "timestamp": "0x00",
            "extraData": "0x00",
            "mixHash": "0x0000000000000000000000000000000000000000000000000000000000000000",
            "nonce": "0x0000000000000000",
            "baseFeePerGas": "0x07",
            "hash": "0xea2d7e0192d890c222f0302d972a02db0bf0c6d08257d73aa1210d08d24f30c3",
            "withdrawalsRoot": "0x56e81f171bcc55a6ff8345e692c0f86e5b48e01b996cadc001622fb5e363b421"
        },
        "genesisRLP": "0xf9021df90217a00000000000000000000000000000000000000000000000000000000000000000a01dcc4de8dec75d7aab85b567b6ccd41ad312451b948a7413f0a142fd40d49347940000000000000000000000000000000000000000a070c42824108fafccadbfce71e6e22660c4fad89be18be324cd15ef351969a8c8a056e81f171bcc55a6ff8345e692c0f86e5b48e01b996cadc001622fb5e363b421a056e81f171bcc55a6ff8345e692c0f86e5b48e01b996cadc001622fb5e363b421b9010000000000000000000000000000000000000000000000000000000000000000000000000000000000000000000000000000000000000000000000000000000000000000000000000000000000000000000000000000000000000000000000000000000000000000000000000000000000000000000000000000000000000000000000000000000000000000000000000000000000000000000000000000000000000000000000000000000000000000000000000000000000000000000000000000000000000000000000000000000000000000000000000000000000000000000000000000000000000000000000000000000000000000000000000000000000808088016345785d8a0000808000a0000000000000000000000000000000000000000000000000000000000000000088000000000000000007a056e81f171bcc55a6ff8345e692c0f86e5b48e01b996cadc001622fb5e363b421c0c0c0",
        "lastblockhash": "0xee2a6d06ae31c4551c7ad326ee1edb59d75f11f3f3554c1f99d7b2dc8da51acb",
        "network": "Shanghai",
        "pre": {
            "0xa94f5374fce5edbc8e2a8697c15331677e6ebf0b": {
                "nonce": "0x00",
                "balance": "0x3635c9adc5dea00000",
                "code": "0x",
                "storage": {}
            }
        },
        "postState": {
            "0x2adc25665018aa1fe0e6bc666dac8fc2697ff9ba": {
                "nonce": "0x00",
                "balance": "0x02704e",
                "code": "0x",
                "storage": {}
            },
            "0x6295ee1b4f6dd65047762f924ecd367c17eabf8f": {
                "nonce": "0x01",
                "balance": "0x3b9aca00",
                "code": "0x00",
                "storage": {}
            },
            "0xa94f5374fce5edbc8e2a8697c15331677e6ebf0b": {
                "nonce": "0x01",
                "balance": "0x3635c9adc5de97defc",
                "code": "0x",
                "storage": {}
            }
        },
        "sealEngine": "NoProof"
    },
    "001-fork=Shanghai-with_tx_value-fork=Shanghai": {
        "_info": {
            "filling-transition-tool": "evm version 1.12.1-unstable-c7b099b2",
            "filling-block-build-tool": "evm version 1.12.1-unstable-c7b099b2",
            "reference-spec": "https://github.com/ethereum/EIPs/blob/master/EIPS/eip-4895.md",
            "reference-spec-version": "81af3b60b632bc9c03513d1d137f25410e3f4d34"
        },
        "blocks": [
            {
                "rlp": "0xf9028ff90219a0ea2d7e0192d890c222f0302d972a02db0bf0c6d08257d73aa1210d08d24f30c3a01dcc4de8dec75d7aab85b567b6ccd41ad312451b948a7413f0a142fd40d49347942adc25665018aa1fe0e6bc666dac8fc2697ff9baa03a282507666774135e65fcbdfbfbc2500e6ff4772d77a4ecc1f4396d29a23154a005f4b92d8e1685b8f2b46b13e87dce66fc2e17de7984f1c9e33cc961de20604ca0c0d135e565c8018d14e5a2084f6c89c90cf71c74b1932a9ad22ce70197a25587b9010000000000000000000000000000000000000000000000000000000000000000000000000000000000000000000000000000000000000000000000000000000000000000000000000000000000000000000000000000000000000000000000000000000000000000000000000000000000000000000000000000000000000000000000000000000000000000000000000000000000000000000000000000000000000000000000000000000000000000000000000000000000000000000000000000000000000000000000000000000000000000000000000000000000000000000000000000000000000000000000000000000000000000000000000000000000800188016345785d8a000082d01a0c80a0000000000000000000000000000000000000000000000000000000000000000088000000000000000007a082cc6fbe74c41496b382fcdf25216c5af7bdbb5a3929e8f2e61bd6445ab66436f856f854800a830f424080843b9aca008460015ff325a0d9494f23e74564d5a3ff541fe91327d3685613013993893bb1f3a6487207f441a02e48d64a25e31e44485f2389ea41eaeff89456f19822a753478ed36bc3aa2cc6c0d9d88080946295ee1b4f6dd65047762f924ecd367c17eabf8f01",
                "blockHeader": {
                    "parentHash": "0xea2d7e0192d890c222f0302d972a02db0bf0c6d08257d73aa1210d08d24f30c3",
                    "uncleHash": "0x1dcc4de8dec75d7aab85b567b6ccd41ad312451b948a7413f0a142fd40d49347",
                    "coinbase": "0x2adc25665018aa1fe0e6bc666dac8fc2697ff9ba",
                    "stateRoot": "0x3a282507666774135e65fcbdfbfbc2500e6ff4772d77a4ecc1f4396d29a23154",
                    "transactionsTrie": "0x05f4b92d8e1685b8f2b46b13e87dce66fc2e17de7984f1c9e33cc961de20604c",
                    "receiptTrie": "0xc0d135e565c8018d14e5a2084f6c89c90cf71c74b1932a9ad22ce70197a25587",
                    "bloom": "0x00000000000000000000000000000000000000000000000000000000000000000000000000000000000000000000000000000000000000000000000000000000000000000000000000000000000000000000000000000000000000000000000000000000000000000000000000000000000000000000000000000000000000000000000000000000000000000000000000000000000000000000000000000000000000000000000000000000000000000000000000000000000000000000000000000000000000000000000000000000000000000000000000000000000000000000000000000000000000000000000000000000000000000000000000000000",
                    "difficulty": "0x00",
                    "number": "0x01",
                    "gasLimit": "0x016345785d8a0000",
                    "gasUsed": "0xd01a",
                    "timestamp": "0x0c",
                    "extraData": "0x",
                    "mixHash": "0x0000000000000000000000000000000000000000000000000000000000000000",
                    "nonce": "0x0000000000000000",
                    "baseFeePerGas": "0x07",
                    "hash": "0xcc7436d6c68b512dfb923f37044b4496b62f0c71abc83dbde4af6ecabc0a1b31",
                    "withdrawalsRoot": "0x82cc6fbe74c41496b382fcdf25216c5af7bdbb5a3929e8f2e61bd6445ab66436"
                },
                "blocknumber": "1",
                "transactions": [
                    {
                        "type": "0x00",
                        "chainId": "0x01",
                        "nonce": "0x00",
                        "gasPrice": "0x0a",
                        "value": "0x3b9aca00",
                        "protected": true,
                        "secretKey": "0x45a915e4d060149eb4365960e6a7a45f334393093061116b197e3240065ff2d8",
                        "data": "0x60015ff3",
                        "gasLimit": "0x0f4240",
                        "to": ""
                    }
                ],
                "uncleHeaders": [],
                "withdrawals": [
                    {
                        "index": "0x00",
                        "validatorIndex": "0x00",
                        "address": "0x6295ee1b4f6dd65047762f924ecd367c17eabf8f",
                        "amount": "0x01"
                    }
                ]
            }
        ],
        "genesisBlockHeader": {
            "parentHash": "0x0000000000000000000000000000000000000000000000000000000000000000",
            "uncleHash": "0x1dcc4de8dec75d7aab85b567b6ccd41ad312451b948a7413f0a142fd40d49347",
            "coinbase": "0x0000000000000000000000000000000000000000",
            "stateRoot": "0x70c42824108fafccadbfce71e6e22660c4fad89be18be324cd15ef351969a8c8",
            "transactionsTrie": "0x56e81f171bcc55a6ff8345e692c0f86e5b48e01b996cadc001622fb5e363b421",
            "receiptTrie": "0x56e81f171bcc55a6ff8345e692c0f86e5b48e01b996cadc001622fb5e363b421",
            "bloom": "0x00000000000000000000000000000000000000000000000000000000000000000000000000000000000000000000000000000000000000000000000000000000000000000000000000000000000000000000000000000000000000000000000000000000000000000000000000000000000000000000000000000000000000000000000000000000000000000000000000000000000000000000000000000000000000000000000000000000000000000000000000000000000000000000000000000000000000000000000000000000000000000000000000000000000000000000000000000000000000000000000000000000000000000000000000000000",
            "difficulty": "0x00",
            "number": "0x00",
            "gasLimit": "0x016345785d8a0000",
            "gasUsed": "0x00",
            "timestamp": "0x00",
            "extraData": "0x00",
            "mixHash": "0x0000000000000000000000000000000000000000000000000000000000000000",
            "nonce": "0x0000000000000000",
            "baseFeePerGas": "0x07",
            "hash": "0xea2d7e0192d890c222f0302d972a02db0bf0c6d08257d73aa1210d08d24f30c3",
            "withdrawalsRoot": "0x56e81f171bcc55a6ff8345e692c0f86e5b48e01b996cadc001622fb5e363b421"
        },
        "genesisRLP": "0xf9021df90217a00000000000000000000000000000000000000000000000000000000000000000a01dcc4de8dec75d7aab85b567b6ccd41ad312451b948a7413f0a142fd40d49347940000000000000000000000000000000000000000a070c42824108fafccadbfce71e6e22660c4fad89be18be324cd15ef351969a8c8a056e81f171bcc55a6ff8345e692c0f86e5b48e01b996cadc001622fb5e363b421a056e81f171bcc55a6ff8345e692c0f86e5b48e01b996cadc001622fb5e363b421b9010000000000000000000000000000000000000000000000000000000000000000000000000000000000000000000000000000000000000000000000000000000000000000000000000000000000000000000000000000000000000000000000000000000000000000000000000000000000000000000000000000000000000000000000000000000000000000000000000000000000000000000000000000000000000000000000000000000000000000000000000000000000000000000000000000000000000000000000000000000000000000000000000000000000000000000000000000000000000000000000000000000000000000000000000000000000808088016345785d8a0000808000a0000000000000000000000000000000000000000000000000000000000000000088000000000000000007a056e81f171bcc55a6ff8345e692c0f86e5b48e01b996cadc001622fb5e363b421c0c0c0",
        "lastblockhash": "0xcc7436d6c68b512dfb923f37044b4496b62f0c71abc83dbde4af6ecabc0a1b31",
        "network": "Shanghai",
        "pre": {
            "0xa94f5374fce5edbc8e2a8697c15331677e6ebf0b": {
                "nonce": "0x00",
                "balance": "0x3635c9adc5dea00000",
                "code": "0x",
                "storage": {}
            }
        },
        "postState": {
            "0x2adc25665018aa1fe0e6bc666dac8fc2697ff9ba": {
                "nonce": "0x00",
                "balance": "0x02704e",
                "code": "0x",
                "storage": {}
            },
            "0x6295ee1b4f6dd65047762f924ecd367c17eabf8f": {
                "nonce": "0x01",
                "balance": "0x77359400",
                "code": "0x00",
                "storage": {}
            },
            "0xa94f5374fce5edbc8e2a8697c15331677e6ebf0b": {
                "nonce": "0x01",
                "balance": "0x3635c9adc5a2fd14fc",
                "code": "0x",
                "storage": {}
            }
        },
        "sealEngine": "NoProof"
    }
}