{
    "000-fork=Shanghai": {
        "_info": {
            "filling-transition-tool": "evm version 1.13.0-unstable-b1a1675c-20230912",
            "reference-spec": "https://github.com/ethereum/EIPs/blob/master/EIPS/eip-4895.md",
            "reference-spec-version": "81af3b60b632bc9c03513d1d137f25410e3f4d34"
        },
        "blocks": [
            {
                "rlp": "0xf90317f9021aa04325120a871d0d874b4eb9d2ac515761d9ca6b433abae65429d649c6002aee4fa01dcc4de8dec75d7aab85b567b6ccd41ad312451b948a7413f0a142fd40d49347942adc25665018aa1fe0e6bc666dac8fc2697ff9baa0fe3e13e82effefff727e3fdc39f7cbdfbab72dc17b5c031f5c50ffee3ea42a88a07442c7b0537a6eb4fa1e716f9c27f93f709029580114c5f988db69c86016c2e5a0565dbae32920fdc51f307a7eae972eed4f68bf2fa895f24169f0623ef1b6d66cb9010000000000000000000000000000000000000000000000000000000000000000000000000000000000000000000000000000000000000000000000000000000000000000000000000000000000000000000000000000000000000000000000000000000000000000000000000000000000000000000000000000000000000000000000000000000000000000000000000000000000000000000000000000000000000000000000000000000000000000000000000000000000000000000000000000000000000000000000000000000000000000000000000000000000000000000000000000000000000000000000000000000000000000000000000000000000800188016345785d8a0000830150c20c80a0000000000000000000000000000000000000000000000000000000000000000088000000000000000007a0d4bee8dce3f637a8a068e6bee128b52b8cd732a285fef0dd9d02aa50a0cc78c8f8c4f860800a830186a0940000000000000000000000000000000000000300808026a0cbc098d492e6b1fcbdb61a993b5d9af820db066388b4c9f4707ee32addafd50da020f90b5fa35d575f8aa71504c7e2ee523e0d3c4fb86dd2886b2d46e8a33c4aa0f860010a830186a0940000000000000000000000000000000000000400808026a0e180dee1ed22645d45aad4334e91619bbd8d8b5b2c8e1366e0d8b8980059a797a0170f6aca5a65ec2028af11d1c1852e02541aef3df745f52c8f368f1aec4accf5c0f2d8808094000000000000000000000000000000000000010001d8010194000000000000000000000000000000000000020001",
                "blockHeader": {
                    "parentHash": "0x4325120a871d0d874b4eb9d2ac515761d9ca6b433abae65429d649c6002aee4f",
                    "uncleHash": "0x1dcc4de8dec75d7aab85b567b6ccd41ad312451b948a7413f0a142fd40d49347",
                    "coinbase": "0x2adc25665018aa1fe0e6bc666dac8fc2697ff9ba",
                    "stateRoot": "0xfe3e13e82effefff727e3fdc39f7cbdfbab72dc17b5c031f5c50ffee3ea42a88",
                    "transactionsTrie": "0x7442c7b0537a6eb4fa1e716f9c27f93f709029580114c5f988db69c86016c2e5",
                    "receiptTrie": "0x565dbae32920fdc51f307a7eae972eed4f68bf2fa895f24169f0623ef1b6d66c",
                    "bloom": "0x00000000000000000000000000000000000000000000000000000000000000000000000000000000000000000000000000000000000000000000000000000000000000000000000000000000000000000000000000000000000000000000000000000000000000000000000000000000000000000000000000000000000000000000000000000000000000000000000000000000000000000000000000000000000000000000000000000000000000000000000000000000000000000000000000000000000000000000000000000000000000000000000000000000000000000000000000000000000000000000000000000000000000000000000000000000",
                    "difficulty": "0x00",
                    "number": "0x01",
                    "gasLimit": "0x016345785d8a0000",
                    "gasUsed": "0x0150c2",
                    "timestamp": "0x0c",
                    "extraData": "0x",
                    "mixHash": "0x0000000000000000000000000000000000000000000000000000000000000000",
                    "nonce": "0x0000000000000000",
                    "baseFeePerGas": "0x07",
                    "withdrawalsRoot": "0xd4bee8dce3f637a8a068e6bee128b52b8cd732a285fef0dd9d02aa50a0cc78c8",
                    "hash": "0xfd985d4b1b6b470c4875b182b4dc895392f198a91ec86b3196c0b508e221c554"
                },
                "engineNewPayload": {
                    "executionPayload": {
                        "parentHash": "0x4325120a871d0d874b4eb9d2ac515761d9ca6b433abae65429d649c6002aee4f",
                        "feeRecipient": "0x2adc25665018aa1fe0e6bc666dac8fc2697ff9ba",
                        "stateRoot": "0xfe3e13e82effefff727e3fdc39f7cbdfbab72dc17b5c031f5c50ffee3ea42a88",
                        "receiptsRoot": "0x565dbae32920fdc51f307a7eae972eed4f68bf2fa895f24169f0623ef1b6d66c",
                        "logsBloom": "0x00000000000000000000000000000000000000000000000000000000000000000000000000000000000000000000000000000000000000000000000000000000000000000000000000000000000000000000000000000000000000000000000000000000000000000000000000000000000000000000000000000000000000000000000000000000000000000000000000000000000000000000000000000000000000000000000000000000000000000000000000000000000000000000000000000000000000000000000000000000000000000000000000000000000000000000000000000000000000000000000000000000000000000000000000000000",
                        "blockNumber": "0x1",
                        "gasLimit": "0x16345785d8a0000",
                        "gasUsed": "0x150c2",
                        "timestamp": "0xc",
                        "extraData": "0x",
                        "prevRandao": "0x0000000000000000000000000000000000000000000000000000000000000000",
                        "baseFeePerGas": "0x7",
                        "blockHash": "0xfd985d4b1b6b470c4875b182b4dc895392f198a91ec86b3196c0b508e221c554",
                        "transactions": [
                            "0xf860800a830186a0940000000000000000000000000000000000000300808026a0cbc098d492e6b1fcbdb61a993b5d9af820db066388b4c9f4707ee32addafd50da020f90b5fa35d575f8aa71504c7e2ee523e0d3c4fb86dd2886b2d46e8a33c4aa0",
                            "0xf860010a830186a0940000000000000000000000000000000000000400808026a0e180dee1ed22645d45aad4334e91619bbd8d8b5b2c8e1366e0d8b8980059a797a0170f6aca5a65ec2028af11d1c1852e02541aef3df745f52c8f368f1aec4accf5"
                        ],
                        "withdrawals": [
                            {
                                "index": "0x0",
                                "validatorIndex": "0x0",
                                "address": "0x0000000000000000000000000000000000000100",
                                "amount": "0x1"
                            },
                            {
                                "index": "0x1",
                                "validatorIndex": "0x1",
                                "address": "0x0000000000000000000000000000000000000200",
                                "amount": "0x1"
                            }
                        ]
                    },
                    "version": "2"
                },
                "blocknumber": "1",
                "transactions": [
                    {
                        "type": "0x00",
                        "chainId": "0x01",
                        "nonce": "0x00",
                        "gasPrice": "0x0a",
                        "gasLimit": "0x0186a0",
                        "to": "0x0000000000000000000000000000000000000300",
                        "value": "0x00",
                        "data": "0x",
                        "v": "0x26",
                        "r": "0xcbc098d492e6b1fcbdb61a993b5d9af820db066388b4c9f4707ee32addafd50d",
                        "s": "0x20f90b5fa35d575f8aa71504c7e2ee523e0d3c4fb86dd2886b2d46e8a33c4aa0",
                        "sender": "0xa94f5374fce5edbc8e2a8697c15331677e6ebf0b"
                    },
                    {
                        "type": "0x00",
                        "chainId": "0x01",
                        "nonce": "0x01",
                        "gasPrice": "0x0a",
                        "gasLimit": "0x0186a0",
                        "to": "0x0000000000000000000000000000000000000400",
                        "value": "0x00",
                        "data": "0x",
                        "v": "0x26",
                        "r": "0xe180dee1ed22645d45aad4334e91619bbd8d8b5b2c8e1366e0d8b8980059a797",
                        "s": "0x170f6aca5a65ec2028af11d1c1852e02541aef3df745f52c8f368f1aec4accf5",
                        "sender": "0xa94f5374fce5edbc8e2a8697c15331677e6ebf0b"
                    }
                ],
                "uncleHeaders": [],
                "withdrawals": [
                    {
                        "index": "0x00",
                        "validatorIndex": "0x00",
                        "address": "0x0000000000000000000000000000000000000100",
                        "amount": "0x01"
                    },
                    {
                        "index": "0x01",
                        "validatorIndex": "0x01",
                        "address": "0x0000000000000000000000000000000000000200",
                        "amount": "0x01"
                    }
                ]
            },
            {
                "rlp": "0xf90317f9021aa0fd985d4b1b6b470c4875b182b4dc895392f198a91ec86b3196c0b508e221c554a01dcc4de8dec75d7aab85b567b6ccd41ad312451b948a7413f0a142fd40d49347942adc25665018aa1fe0e6bc666dac8fc2697ff9baa07d82e351a71b6500cbde98517e800c78a7ade2bf9bf86ebeab2d9d6889310d0fa0e39a08eafac7cfd8be8770a185b7196712b0ea63416467649d8074425ba8f687a0565dbae32920fdc51f307a7eae972eed4f68bf2fa895f24169f0623ef1b6d66cb9010000000000000000000000000000000000000000000000000000000000000000000000000000000000000000000000000000000000000000000000000000000000000000000000000000000000000000000000000000000000000000000000000000000000000000000000000000000000000000000000000000000000000000000000000000000000000000000000000000000000000000000000000000000000000000000000000000000000000000000000000000000000000000000000000000000000000000000000000000000000000000000000000000000000000000000000000000000000000000000000000000000000000000000000000000000000800288016345785d8a0000830150c21880a0000000000000000000000000000000000000000000000000000000000000000088000000000000000007a0a0e8fe9392fbaa0bad384367057e838702f7483f2b1dbfb74ea7b1fe26b13641f8c4f860020a830186a0940000000000000000000000000000000000000100808025a07315b23576abb7d7563d3348f2723fdb1f053e4bafca1349f7a145ce0180db25a05b91320f746105d676a207b19dbfd64bc4cff4a371a457a49990a4a16ba2056ff860030a830186a0940000000000000000000000000000000000000200808025a0b7a095276292f47aca1357a17a42b1dd4b30cf20e964263458aa79dfa84f192ca06c15c90e8640016f0e3c769829f64eb9309dd1e96e3accad3c1a6008bb67e202c0f2d8808094000000000000000000000000000000000000030001d8010194000000000000000000000000000000000000040001",
                "blockHeader": {
                    "parentHash": "0xfd985d4b1b6b470c4875b182b4dc895392f198a91ec86b3196c0b508e221c554",
                    "uncleHash": "0x1dcc4de8dec75d7aab85b567b6ccd41ad312451b948a7413f0a142fd40d49347",
                    "coinbase": "0x2adc25665018aa1fe0e6bc666dac8fc2697ff9ba",
                    "stateRoot": "0x7d82e351a71b6500cbde98517e800c78a7ade2bf9bf86ebeab2d9d6889310d0f",
                    "transactionsTrie": "0xe39a08eafac7cfd8be8770a185b7196712b0ea63416467649d8074425ba8f687",
                    "receiptTrie": "0x565dbae32920fdc51f307a7eae972eed4f68bf2fa895f24169f0623ef1b6d66c",
                    "bloom": "0x00000000000000000000000000000000000000000000000000000000000000000000000000000000000000000000000000000000000000000000000000000000000000000000000000000000000000000000000000000000000000000000000000000000000000000000000000000000000000000000000000000000000000000000000000000000000000000000000000000000000000000000000000000000000000000000000000000000000000000000000000000000000000000000000000000000000000000000000000000000000000000000000000000000000000000000000000000000000000000000000000000000000000000000000000000000",
                    "difficulty": "0x00",
                    "number": "0x02",
                    "gasLimit": "0x016345785d8a0000",
                    "gasUsed": "0x0150c2",
                    "timestamp": "0x18",
                    "extraData": "0x",
                    "mixHash": "0x0000000000000000000000000000000000000000000000000000000000000000",
                    "nonce": "0x0000000000000000",
                    "baseFeePerGas": "0x07",
                    "withdrawalsRoot": "0xa0e8fe9392fbaa0bad384367057e838702f7483f2b1dbfb74ea7b1fe26b13641",
                    "hash": "0x5eab96388cf81d3448613440cb3cd72ba0041f93e4090f8780443739b3de08f1"
                },
                "engineNewPayload": {
                    "executionPayload": {
                        "parentHash": "0xfd985d4b1b6b470c4875b182b4dc895392f198a91ec86b3196c0b508e221c554",
                        "feeRecipient": "0x2adc25665018aa1fe0e6bc666dac8fc2697ff9ba",
                        "stateRoot": "0x7d82e351a71b6500cbde98517e800c78a7ade2bf9bf86ebeab2d9d6889310d0f",
                        "receiptsRoot": "0x565dbae32920fdc51f307a7eae972eed4f68bf2fa895f24169f0623ef1b6d66c",
                        "logsBloom": "0x00000000000000000000000000000000000000000000000000000000000000000000000000000000000000000000000000000000000000000000000000000000000000000000000000000000000000000000000000000000000000000000000000000000000000000000000000000000000000000000000000000000000000000000000000000000000000000000000000000000000000000000000000000000000000000000000000000000000000000000000000000000000000000000000000000000000000000000000000000000000000000000000000000000000000000000000000000000000000000000000000000000000000000000000000000000",
                        "blockNumber": "0x2",
                        "gasLimit": "0x16345785d8a0000",
                        "gasUsed": "0x150c2",
                        "timestamp": "0x18",
                        "extraData": "0x",
                        "prevRandao": "0x0000000000000000000000000000000000000000000000000000000000000000",
                        "baseFeePerGas": "0x7",
                        "blockHash": "0x5eab96388cf81d3448613440cb3cd72ba0041f93e4090f8780443739b3de08f1",
                        "transactions": [
                            "0xf860020a830186a0940000000000000000000000000000000000000100808025a07315b23576abb7d7563d3348f2723fdb1f053e4bafca1349f7a145ce0180db25a05b91320f746105d676a207b19dbfd64bc4cff4a371a457a49990a4a16ba2056f",
                            "0xf860030a830186a0940000000000000000000000000000000000000200808025a0b7a095276292f47aca1357a17a42b1dd4b30cf20e964263458aa79dfa84f192ca06c15c90e8640016f0e3c769829f64eb9309dd1e96e3accad3c1a6008bb67e202"
                        ],
                        "withdrawals": [
                            {
                                "index": "0x0",
                                "validatorIndex": "0x0",
                                "address": "0x0000000000000000000000000000000000000300",
                                "amount": "0x1"
                            },
                            {
                                "index": "0x1",
                                "validatorIndex": "0x1",
                                "address": "0x0000000000000000000000000000000000000400",
                                "amount": "0x1"
                            }
                        ]
                    },
                    "version": "2"
                },
                "blocknumber": "2",
                "transactions": [
                    {
                        "type": "0x00",
                        "chainId": "0x01",
                        "nonce": "0x02",
                        "gasPrice": "0x0a",
                        "gasLimit": "0x0186a0",
                        "to": "0x0000000000000000000000000000000000000100",
                        "value": "0x00",
                        "data": "0x",
                        "v": "0x25",
                        "r": "0x7315b23576abb7d7563d3348f2723fdb1f053e4bafca1349f7a145ce0180db25",
                        "s": "0x5b91320f746105d676a207b19dbfd64bc4cff4a371a457a49990a4a16ba2056f",
                        "sender": "0xa94f5374fce5edbc8e2a8697c15331677e6ebf0b"
                    },
                    {
                        "type": "0x00",
                        "chainId": "0x01",
                        "nonce": "0x03",
                        "gasPrice": "0x0a",
                        "gasLimit": "0x0186a0",
                        "to": "0x0000000000000000000000000000000000000200",
                        "value": "0x00",
                        "data": "0x",
                        "v": "0x25",
                        "r": "0xb7a095276292f47aca1357a17a42b1dd4b30cf20e964263458aa79dfa84f192c",
                        "s": "0x6c15c90e8640016f0e3c769829f64eb9309dd1e96e3accad3c1a6008bb67e202",
                        "sender": "0xa94f5374fce5edbc8e2a8697c15331677e6ebf0b"
                    }
                ],
                "uncleHeaders": [],
                "withdrawals": [
                    {
                        "index": "0x00",
                        "validatorIndex": "0x00",
                        "address": "0x0000000000000000000000000000000000000300",
                        "amount": "0x01"
                    },
                    {
                        "index": "0x01",
                        "validatorIndex": "0x01",
                        "address": "0x0000000000000000000000000000000000000400",
                        "amount": "0x01"
                    }
                ]
            }
        ],
        "genesisBlockHeader": {
            "parentHash": "0x0000000000000000000000000000000000000000000000000000000000000000",
            "uncleHash": "0x1dcc4de8dec75d7aab85b567b6ccd41ad312451b948a7413f0a142fd40d49347",
            "coinbase": "0x0000000000000000000000000000000000000000",
            "stateRoot": "0x3fc1efefb5bef89847fcc9120ce54578e0088cf53b4fddde8d7895e36167bbd5",
            "transactionsTrie": "0x56e81f171bcc55a6ff8345e692c0f86e5b48e01b996cadc001622fb5e363b421",
            "receiptTrie": "0x56e81f171bcc55a6ff8345e692c0f86e5b48e01b996cadc001622fb5e363b421",
            "bloom": "0x00000000000000000000000000000000000000000000000000000000000000000000000000000000000000000000000000000000000000000000000000000000000000000000000000000000000000000000000000000000000000000000000000000000000000000000000000000000000000000000000000000000000000000000000000000000000000000000000000000000000000000000000000000000000000000000000000000000000000000000000000000000000000000000000000000000000000000000000000000000000000000000000000000000000000000000000000000000000000000000000000000000000000000000000000000000",
            "difficulty": "0x00",
            "number": "0x00",
            "gasLimit": "0x016345785d8a0000",
            "gasUsed": "0x00",
            "timestamp": "0x00",
            "extraData": "0x00",
            "mixHash": "0x0000000000000000000000000000000000000000000000000000000000000000",
            "nonce": "0x0000000000000000",
            "baseFeePerGas": "0x07",
            "withdrawalsRoot": "0x56e81f171bcc55a6ff8345e692c0f86e5b48e01b996cadc001622fb5e363b421",
            "hash": "0x4325120a871d0d874b4eb9d2ac515761d9ca6b433abae65429d649c6002aee4f"
        },
        "genesisRLP": "0xf9021df90217a00000000000000000000000000000000000000000000000000000000000000000a01dcc4de8dec75d7aab85b567b6ccd41ad312451b948a7413f0a142fd40d49347940000000000000000000000000000000000000000a03fc1efefb5bef89847fcc9120ce54578e0088cf53b4fddde8d7895e36167bbd5a056e81f171bcc55a6ff8345e692c0f86e5b48e01b996cadc001622fb5e363b421a056e81f171bcc55a6ff8345e692c0f86e5b48e01b996cadc001622fb5e363b421b9010000000000000000000000000000000000000000000000000000000000000000000000000000000000000000000000000000000000000000000000000000000000000000000000000000000000000000000000000000000000000000000000000000000000000000000000000000000000000000000000000000000000000000000000000000000000000000000000000000000000000000000000000000000000000000000000000000000000000000000000000000000000000000000000000000000000000000000000000000000000000000000000000000000000000000000000000000000000000000000000000000000000000000000000000000000000808088016345785d8a0000808000a0000000000000000000000000000000000000000000000000000000000000000088000000000000000007a056e81f171bcc55a6ff8345e692c0f86e5b48e01b996cadc001622fb5e363b421c0c0c0",
        "lastblockhash": "0x5eab96388cf81d3448613440cb3cd72ba0041f93e4090f8780443739b3de08f1",
        "network": "Shanghai",
        "pre": {
            "0x0000000000000000000000000000000000000100": {
                "nonce": "0x00",
                "balance": "0x00",
                "code": "0x60014355",
                "storage": {}
            },
            "0x0000000000000000000000000000000000000200": {
                "nonce": "0x00",
                "balance": "0x00",
                "code": "0x60014355",
                "storage": {}
            },
            "0x0000000000000000000000000000000000000300": {
                "nonce": "0x00",
                "balance": "0x00",
                "code": "0x60014355",
                "storage": {}
            },
            "0x0000000000000000000000000000000000000400": {
                "nonce": "0x00",
                "balance": "0x00",
                "code": "0x60014355",
                "storage": {}
            },
            "0xa94f5374fce5edbc8e2a8697c15331677e6ebf0b": {
                "nonce": "0x00",
                "balance": "0x3635c9adc5dea00000",
                "code": "0x",
                "storage": {}
            }
        },
        "postState": {
            "0x0000000000000000000000000000000000000100": {
                "nonce": "0x00",
                "balance": "0x3b9aca00",
                "code": "0x60014355",
                "storage": {
                    "0x02": "0x01"
                }
            },
            "0x0000000000000000000000000000000000000200": {
                "nonce": "0x00",
                "balance": "0x3b9aca00",
                "code": "0x60014355",
                "storage": {
                    "0x02": "0x01"
                }
            },
            "0x0000000000000000000000000000000000000300": {
                "nonce": "0x00",
                "balance": "0x3b9aca00",
                "code": "0x60014355",
                "storage": {
                    "0x01": "0x01"
                }
            },
            "0x0000000000000000000000000000000000000400": {
                "nonce": "0x00",
                "balance": "0x3b9aca00",
                "code": "0x60014355",
                "storage": {
                    "0x01": "0x01"
                }
            },
            "0x2adc25665018aa1fe0e6bc666dac8fc2697ff9ba": {
                "nonce": "0x00",
                "balance": "0x07e48c",
                "code": "0x",
                "storage": {}
            },
            "0xa94f5374fce5edbc8e2a8697c15331677e6ebf0b": {
                "nonce": "0x04",
                "balance": "0x3635c9adc5de85b0d8",
                "code": "0x",
                "storage": {}
            }
        },
        "sealEngine": "NoProof"
    },
    "001-fork=Cancun": {
        "_info": {
            "filling-transition-tool": "evm version 1.13.0-unstable-b1a1675c-20230912",
            "reference-spec": "https://github.com/ethereum/EIPs/blob/master/EIPS/eip-4895.md",
            "reference-spec-version": "81af3b60b632bc9c03513d1d137f25410e3f4d34"
        },
        "blocks": [
            {
                "rlp": "0xf9033af9023da02e7e408d971fffd23cc7997256b93874791621be9022318c26852ef721e2ae0ea01dcc4de8dec75d7aab85b567b6ccd41ad312451b948a7413f0a142fd40d49347942adc25665018aa1fe0e6bc666dac8fc2697ff9baa016980cf7dc622e2659f44c12d5e6f6ce4872161a65d54b9186b53971aa7c2e11a07442c7b0537a6eb4fa1e716f9c27f93f709029580114c5f988db69c86016c2e5a0565dbae32920fdc51f307a7eae972eed4f68bf2fa895f24169f0623ef1b6d66cb9010000000000000000000000000000000000000000000000000000000000000000000000000000000000000000000000000000000000000000000000000000000000000000000000000000000000000000000000000000000000000000000000000000000000000000000000000000000000000000000000000000000000000000000000000000000000000000000000000000000000000000000000000000000000000000000000000000000000000000000000000000000000000000000000000000000000000000000000000000000000000000000000000000000000000000000000000000000000000000000000000000000000000000000000000000000000800188016345785d8a0000830150c20c80a0000000000000000000000000000000000000000000000000000000000000000088000000000000000007a0d4bee8dce3f637a8a068e6bee128b52b8cd732a285fef0dd9d02aa50a0cc78c88080a00000000000000000000000000000000000000000000000000000000000000000f8c4f860800a830186a0940000000000000000000000000000000000000300808026a0cbc098d492e6b1fcbdb61a993b5d9af820db066388b4c9f4707ee32addafd50da020f90b5fa35d575f8aa71504c7e2ee523e0d3c4fb86dd2886b2d46e8a33c4aa0f860010a830186a0940000000000000000000000000000000000000400808026a0e180dee1ed22645d45aad4334e91619bbd8d8b5b2c8e1366e0d8b8980059a797a0170f6aca5a65ec2028af11d1c1852e02541aef3df745f52c8f368f1aec4accf5c0f2d8808094000000000000000000000000000000000000010001d8010194000000000000000000000000000000000000020001",
                "blockHeader": {
                    "parentHash": "0x2e7e408d971fffd23cc7997256b93874791621be9022318c26852ef721e2ae0e",
                    "uncleHash": "0x1dcc4de8dec75d7aab85b567b6ccd41ad312451b948a7413f0a142fd40d49347",
                    "coinbase": "0x2adc25665018aa1fe0e6bc666dac8fc2697ff9ba",
                    "stateRoot": "0x16980cf7dc622e2659f44c12d5e6f6ce4872161a65d54b9186b53971aa7c2e11",
                    "transactionsTrie": "0x7442c7b0537a6eb4fa1e716f9c27f93f709029580114c5f988db69c86016c2e5",
                    "receiptTrie": "0x565dbae32920fdc51f307a7eae972eed4f68bf2fa895f24169f0623ef1b6d66c",
                    "bloom": "0x00000000000000000000000000000000000000000000000000000000000000000000000000000000000000000000000000000000000000000000000000000000000000000000000000000000000000000000000000000000000000000000000000000000000000000000000000000000000000000000000000000000000000000000000000000000000000000000000000000000000000000000000000000000000000000000000000000000000000000000000000000000000000000000000000000000000000000000000000000000000000000000000000000000000000000000000000000000000000000000000000000000000000000000000000000000",
                    "difficulty": "0x00",
                    "number": "0x01",
                    "gasLimit": "0x016345785d8a0000",
                    "gasUsed": "0x0150c2",
                    "timestamp": "0x0c",
                    "extraData": "0x",
                    "mixHash": "0x0000000000000000000000000000000000000000000000000000000000000000",
                    "nonce": "0x0000000000000000",
                    "baseFeePerGas": "0x07",
                    "withdrawalsRoot": "0xd4bee8dce3f637a8a068e6bee128b52b8cd732a285fef0dd9d02aa50a0cc78c8",
                    "blobGasUsed": "0x00",
                    "excessBlobGas": "0x00",
                    "parentBeaconBlockRoot": "0x0000000000000000000000000000000000000000000000000000000000000000",
                    "hash": "0xab277c82ac2fd08cc85f15934ba62832106480e4b573b22c9990caf6a3a8c7c0"
                },
                "engineNewPayload": {
                    "executionPayload": {
                        "parentHash": "0x2e7e408d971fffd23cc7997256b93874791621be9022318c26852ef721e2ae0e",
                        "feeRecipient": "0x2adc25665018aa1fe0e6bc666dac8fc2697ff9ba",
                        "stateRoot": "0x16980cf7dc622e2659f44c12d5e6f6ce4872161a65d54b9186b53971aa7c2e11",
                        "receiptsRoot": "0x565dbae32920fdc51f307a7eae972eed4f68bf2fa895f24169f0623ef1b6d66c",
                        "logsBloom": "0x00000000000000000000000000000000000000000000000000000000000000000000000000000000000000000000000000000000000000000000000000000000000000000000000000000000000000000000000000000000000000000000000000000000000000000000000000000000000000000000000000000000000000000000000000000000000000000000000000000000000000000000000000000000000000000000000000000000000000000000000000000000000000000000000000000000000000000000000000000000000000000000000000000000000000000000000000000000000000000000000000000000000000000000000000000000",
                        "blockNumber": "0x1",
                        "gasLimit": "0x16345785d8a0000",
                        "gasUsed": "0x150c2",
                        "timestamp": "0xc",
                        "extraData": "0x",
                        "prevRandao": "0x0000000000000000000000000000000000000000000000000000000000000000",
                        "baseFeePerGas": "0x7",
                        "blobGasUsed": "0x0",
                        "excessBlobGas": "0x0",
                        "blockHash": "0xab277c82ac2fd08cc85f15934ba62832106480e4b573b22c9990caf6a3a8c7c0",
                        "transactions": [
                            "0xf860800a830186a0940000000000000000000000000000000000000300808026a0cbc098d492e6b1fcbdb61a993b5d9af820db066388b4c9f4707ee32addafd50da020f90b5fa35d575f8aa71504c7e2ee523e0d3c4fb86dd2886b2d46e8a33c4aa0",
                            "0xf860010a830186a0940000000000000000000000000000000000000400808026a0e180dee1ed22645d45aad4334e91619bbd8d8b5b2c8e1366e0d8b8980059a797a0170f6aca5a65ec2028af11d1c1852e02541aef3df745f52c8f368f1aec4accf5"
                        ],
                        "withdrawals": [
                            {
                                "index": "0x0",
                                "validatorIndex": "0x0",
                                "address": "0x0000000000000000000000000000000000000100",
                                "amount": "0x1"
                            },
                            {
                                "index": "0x1",
                                "validatorIndex": "0x1",
                                "address": "0x0000000000000000000000000000000000000200",
                                "amount": "0x1"
                            }
                        ]
                    },
                    "expectedBlobVersionedHashes": [],
                    "version": "3",
                    "parentBeaconBlockRoot": "0x0000000000000000000000000000000000000000000000000000000000000000"
                },
                "blocknumber": "1",
                "transactions": [
                    {
                        "type": "0x00",
                        "chainId": "0x01",
                        "nonce": "0x00",
                        "gasPrice": "0x0a",
                        "gasLimit": "0x0186a0",
                        "to": "0x0000000000000000000000000000000000000300",
                        "value": "0x00",
                        "data": "0x",
                        "v": "0x26",
                        "r": "0xcbc098d492e6b1fcbdb61a993b5d9af820db066388b4c9f4707ee32addafd50d",
                        "s": "0x20f90b5fa35d575f8aa71504c7e2ee523e0d3c4fb86dd2886b2d46e8a33c4aa0",
                        "sender": "0xa94f5374fce5edbc8e2a8697c15331677e6ebf0b"
                    },
                    {
                        "type": "0x00",
                        "chainId": "0x01",
                        "nonce": "0x01",
                        "gasPrice": "0x0a",
                        "gasLimit": "0x0186a0",
                        "to": "0x0000000000000000000000000000000000000400",
                        "value": "0x00",
                        "data": "0x",
                        "v": "0x26",
                        "r": "0xe180dee1ed22645d45aad4334e91619bbd8d8b5b2c8e1366e0d8b8980059a797",
                        "s": "0x170f6aca5a65ec2028af11d1c1852e02541aef3df745f52c8f368f1aec4accf5",
                        "sender": "0xa94f5374fce5edbc8e2a8697c15331677e6ebf0b"
                    }
                ],
                "uncleHeaders": [],
                "withdrawals": [
                    {
                        "index": "0x00",
                        "validatorIndex": "0x00",
                        "address": "0x0000000000000000000000000000000000000100",
                        "amount": "0x01"
                    },
                    {
                        "index": "0x01",
                        "validatorIndex": "0x01",
                        "address": "0x0000000000000000000000000000000000000200",
                        "amount": "0x01"
                    }
                ]
            },
            {
                "rlp": "0xf9033af9023da0ab277c82ac2fd08cc85f15934ba62832106480e4b573b22c9990caf6a3a8c7c0a01dcc4de8dec75d7aab85b567b6ccd41ad312451b948a7413f0a142fd40d49347942adc25665018aa1fe0e6bc666dac8fc2697ff9baa041f06aecdb8876f22bf76095b59f29ef47843fce73fcfc5d26af3e8f6f39c4bba0e39a08eafac7cfd8be8770a185b7196712b0ea63416467649d8074425ba8f687a0565dbae32920fdc51f307a7eae972eed4f68bf2fa895f24169f0623ef1b6d66cb9010000000000000000000000000000000000000000000000000000000000000000000000000000000000000000000000000000000000000000000000000000000000000000000000000000000000000000000000000000000000000000000000000000000000000000000000000000000000000000000000000000000000000000000000000000000000000000000000000000000000000000000000000000000000000000000000000000000000000000000000000000000000000000000000000000000000000000000000000000000000000000000000000000000000000000000000000000000000000000000000000000000000000000000000000000000000800288016345785d8a0000830150c21880a0000000000000000000000000000000000000000000000000000000000000000088000000000000000007a0a0e8fe9392fbaa0bad384367057e838702f7483f2b1dbfb74ea7b1fe26b136418080a00000000000000000000000000000000000000000000000000000000000000000f8c4f860020a830186a0940000000000000000000000000000000000000100808025a07315b23576abb7d7563d3348f2723fdb1f053e4bafca1349f7a145ce0180db25a05b91320f746105d676a207b19dbfd64bc4cff4a371a457a49990a4a16ba2056ff860030a830186a0940000000000000000000000000000000000000200808025a0b7a095276292f47aca1357a17a42b1dd4b30cf20e964263458aa79dfa84f192ca06c15c90e8640016f0e3c769829f64eb9309dd1e96e3accad3c1a6008bb67e202c0f2d8808094000000000000000000000000000000000000030001d8010194000000000000000000000000000000000000040001",
                "blockHeader": {
                    "parentHash": "0xab277c82ac2fd08cc85f15934ba62832106480e4b573b22c9990caf6a3a8c7c0",
                    "uncleHash": "0x1dcc4de8dec75d7aab85b567b6ccd41ad312451b948a7413f0a142fd40d49347",
                    "coinbase": "0x2adc25665018aa1fe0e6bc666dac8fc2697ff9ba",
                    "stateRoot": "0x41f06aecdb8876f22bf76095b59f29ef47843fce73fcfc5d26af3e8f6f39c4bb",
                    "transactionsTrie": "0xe39a08eafac7cfd8be8770a185b7196712b0ea63416467649d8074425ba8f687",
                    "receiptTrie": "0x565dbae32920fdc51f307a7eae972eed4f68bf2fa895f24169f0623ef1b6d66c",
                    "bloom": "0x00000000000000000000000000000000000000000000000000000000000000000000000000000000000000000000000000000000000000000000000000000000000000000000000000000000000000000000000000000000000000000000000000000000000000000000000000000000000000000000000000000000000000000000000000000000000000000000000000000000000000000000000000000000000000000000000000000000000000000000000000000000000000000000000000000000000000000000000000000000000000000000000000000000000000000000000000000000000000000000000000000000000000000000000000000000",
                    "difficulty": "0x00",
                    "number": "0x02",
                    "gasLimit": "0x016345785d8a0000",
                    "gasUsed": "0x0150c2",
                    "timestamp": "0x18",
                    "extraData": "0x",
                    "mixHash": "0x0000000000000000000000000000000000000000000000000000000000000000",
                    "nonce": "0x0000000000000000",
                    "baseFeePerGas": "0x07",
                    "withdrawalsRoot": "0xa0e8fe9392fbaa0bad384367057e838702f7483f2b1dbfb74ea7b1fe26b13641",
                    "blobGasUsed": "0x00",
                    "excessBlobGas": "0x00",
                    "parentBeaconBlockRoot": "0x0000000000000000000000000000000000000000000000000000000000000000",
                    "hash": "0x01855f219a8b491db66d5d5fd3f6d6eec8dba64230c6b8be4ee1fa0094ad5bc9"
                },
                "engineNewPayload": {
                    "executionPayload": {
                        "parentHash": "0xab277c82ac2fd08cc85f15934ba62832106480e4b573b22c9990caf6a3a8c7c0",
                        "feeRecipient": "0x2adc25665018aa1fe0e6bc666dac8fc2697ff9ba",
                        "stateRoot": "0x41f06aecdb8876f22bf76095b59f29ef47843fce73fcfc5d26af3e8f6f39c4bb",
                        "receiptsRoot": "0x565dbae32920fdc51f307a7eae972eed4f68bf2fa895f24169f0623ef1b6d66c",
                        "logsBloom": "0x00000000000000000000000000000000000000000000000000000000000000000000000000000000000000000000000000000000000000000000000000000000000000000000000000000000000000000000000000000000000000000000000000000000000000000000000000000000000000000000000000000000000000000000000000000000000000000000000000000000000000000000000000000000000000000000000000000000000000000000000000000000000000000000000000000000000000000000000000000000000000000000000000000000000000000000000000000000000000000000000000000000000000000000000000000000",
                        "blockNumber": "0x2",
                        "gasLimit": "0x16345785d8a0000",
                        "gasUsed": "0x150c2",
                        "timestamp": "0x18",
                        "extraData": "0x",
                        "prevRandao": "0x0000000000000000000000000000000000000000000000000000000000000000",
                        "baseFeePerGas": "0x7",
                        "blobGasUsed": "0x0",
                        "excessBlobGas": "0x0",
                        "blockHash": "0x01855f219a8b491db66d5d5fd3f6d6eec8dba64230c6b8be4ee1fa0094ad5bc9",
                        "transactions": [
                            "0xf860020a830186a0940000000000000000000000000000000000000100808025a07315b23576abb7d7563d3348f2723fdb1f053e4bafca1349f7a145ce0180db25a05b91320f746105d676a207b19dbfd64bc4cff4a371a457a49990a4a16ba2056f",
                            "0xf860030a830186a0940000000000000000000000000000000000000200808025a0b7a095276292f47aca1357a17a42b1dd4b30cf20e964263458aa79dfa84f192ca06c15c90e8640016f0e3c769829f64eb9309dd1e96e3accad3c1a6008bb67e202"
                        ],
                        "withdrawals": [
                            {
                                "index": "0x0",
                                "validatorIndex": "0x0",
                                "address": "0x0000000000000000000000000000000000000300",
                                "amount": "0x1"
                            },
                            {
                                "index": "0x1",
                                "validatorIndex": "0x1",
                                "address": "0x0000000000000000000000000000000000000400",
                                "amount": "0x1"
                            }
                        ]
                    },
                    "expectedBlobVersionedHashes": [],
                    "version": "3",
                    "parentBeaconBlockRoot": "0x0000000000000000000000000000000000000000000000000000000000000000"
                },
                "blocknumber": "2",
                "transactions": [
                    {
                        "type": "0x00",
                        "chainId": "0x01",
                        "nonce": "0x02",
                        "gasPrice": "0x0a",
                        "gasLimit": "0x0186a0",
                        "to": "0x0000000000000000000000000000000000000100",
                        "value": "0x00",
                        "data": "0x",
                        "v": "0x25",
                        "r": "0x7315b23576abb7d7563d3348f2723fdb1f053e4bafca1349f7a145ce0180db25",
                        "s": "0x5b91320f746105d676a207b19dbfd64bc4cff4a371a457a49990a4a16ba2056f",
                        "sender": "0xa94f5374fce5edbc8e2a8697c15331677e6ebf0b"
                    },
                    {
                        "type": "0x00",
                        "chainId": "0x01",
                        "nonce": "0x03",
                        "gasPrice": "0x0a",
                        "gasLimit": "0x0186a0",
                        "to": "0x0000000000000000000000000000000000000200",
                        "value": "0x00",
                        "data": "0x",
                        "v": "0x25",
                        "r": "0xb7a095276292f47aca1357a17a42b1dd4b30cf20e964263458aa79dfa84f192c",
                        "s": "0x6c15c90e8640016f0e3c769829f64eb9309dd1e96e3accad3c1a6008bb67e202",
                        "sender": "0xa94f5374fce5edbc8e2a8697c15331677e6ebf0b"
                    }
                ],
                "uncleHeaders": [],
                "withdrawals": [
                    {
                        "index": "0x00",
                        "validatorIndex": "0x00",
                        "address": "0x0000000000000000000000000000000000000300",
                        "amount": "0x01"
                    },
                    {
                        "index": "0x01",
                        "validatorIndex": "0x01",
                        "address": "0x0000000000000000000000000000000000000400",
                        "amount": "0x01"
                    }
                ]
            }
        ],
        "genesisBlockHeader": {
            "parentHash": "0x0000000000000000000000000000000000000000000000000000000000000000",
            "uncleHash": "0x1dcc4de8dec75d7aab85b567b6ccd41ad312451b948a7413f0a142fd40d49347",
            "coinbase": "0x0000000000000000000000000000000000000000",
            "stateRoot": "0xfd900b535e12d29070a705a9aee440c0ce6aa2c20d17d52881c3d14b19932d14",
            "transactionsTrie": "0x56e81f171bcc55a6ff8345e692c0f86e5b48e01b996cadc001622fb5e363b421",
            "receiptTrie": "0x56e81f171bcc55a6ff8345e692c0f86e5b48e01b996cadc001622fb5e363b421",
            "bloom": "0x00000000000000000000000000000000000000000000000000000000000000000000000000000000000000000000000000000000000000000000000000000000000000000000000000000000000000000000000000000000000000000000000000000000000000000000000000000000000000000000000000000000000000000000000000000000000000000000000000000000000000000000000000000000000000000000000000000000000000000000000000000000000000000000000000000000000000000000000000000000000000000000000000000000000000000000000000000000000000000000000000000000000000000000000000000000",
            "difficulty": "0x00",
            "number": "0x00",
            "gasLimit": "0x016345785d8a0000",
            "gasUsed": "0x00",
            "timestamp": "0x00",
            "extraData": "0x00",
            "mixHash": "0x0000000000000000000000000000000000000000000000000000000000000000",
            "nonce": "0x0000000000000000",
            "baseFeePerGas": "0x07",
            "withdrawalsRoot": "0x56e81f171bcc55a6ff8345e692c0f86e5b48e01b996cadc001622fb5e363b421",
            "blobGasUsed": "0x00",
            "excessBlobGas": "0x00",
            "parentBeaconBlockRoot": "0x0000000000000000000000000000000000000000000000000000000000000000",
            "hash": "0x2e7e408d971fffd23cc7997256b93874791621be9022318c26852ef721e2ae0e"
        },
        "genesisRLP": "0xf90240f9023aa00000000000000000000000000000000000000000000000000000000000000000a01dcc4de8dec75d7aab85b567b6ccd41ad312451b948a7413f0a142fd40d49347940000000000000000000000000000000000000000a0fd900b535e12d29070a705a9aee440c0ce6aa2c20d17d52881c3d14b19932d14a056e81f171bcc55a6ff8345e692c0f86e5b48e01b996cadc001622fb5e363b421a056e81f171bcc55a6ff8345e692c0f86e5b48e01b996cadc001622fb5e363b421b9010000000000000000000000000000000000000000000000000000000000000000000000000000000000000000000000000000000000000000000000000000000000000000000000000000000000000000000000000000000000000000000000000000000000000000000000000000000000000000000000000000000000000000000000000000000000000000000000000000000000000000000000000000000000000000000000000000000000000000000000000000000000000000000000000000000000000000000000000000000000000000000000000000000000000000000000000000000000000000000000000000000000000000000000000000000000808088016345785d8a0000808000a0000000000000000000000000000000000000000000000000000000000000000088000000000000000007a056e81f171bcc55a6ff8345e692c0f86e5b48e01b996cadc001622fb5e363b4218080a00000000000000000000000000000000000000000000000000000000000000000c0c0c0",
        "lastblockhash": "0x01855f219a8b491db66d5d5fd3f6d6eec8dba64230c6b8be4ee1fa0094ad5bc9",
        "network": "Cancun",
        "pre": {
            "0x0000000000000000000000000000000000000100": {
                "nonce": "0x00",
                "balance": "0x00",
                "code": "0x60014355",
                "storage": {}
            },
            "0x0000000000000000000000000000000000000200": {
                "nonce": "0x00",
                "balance": "0x00",
                "code": "0x60014355",
                "storage": {}
            },
            "0x0000000000000000000000000000000000000300": {
                "nonce": "0x00",
                "balance": "0x00",
                "code": "0x60014355",
                "storage": {}
            },
            "0x0000000000000000000000000000000000000400": {
                "nonce": "0x00",
                "balance": "0x00",
                "code": "0x60014355",
                "storage": {}
            },
            "0xa94f5374fce5edbc8e2a8697c15331677e6ebf0b": {
                "nonce": "0x00",
                "balance": "0x3635c9adc5dea00000",
                "code": "0x",
                "storage": {}
            },
            "0xbeac00ddb15f3b6d645c48263dc93862413a222d": {
                "nonce": "0x01",
                "balance": "0x00",
                "code": "0x3373fffffffffffffffffffffffffffffffffffffffe14604457602036146024575f5ffd5b620180005f350680545f35146037575f5ffd5b6201800001545f5260205ff35b6201800042064281555f359062018000015500",
                "storage": {}
            }
        },
        "postState": {
            "0x0000000000000000000000000000000000000100": {
                "nonce": "0x00",
                "balance": "0x3b9aca00",
                "code": "0x60014355",
                "storage": {
                    "0x02": "0x01"
                }
            },
            "0x0000000000000000000000000000000000000200": {
                "nonce": "0x00",
                "balance": "0x3b9aca00",
                "code": "0x60014355",
                "storage": {
                    "0x02": "0x01"
                }
            },
            "0x0000000000000000000000000000000000000300": {
                "nonce": "0x00",
                "balance": "0x3b9aca00",
                "code": "0x60014355",
                "storage": {
                    "0x01": "0x01"
                }
            },
            "0x0000000000000000000000000000000000000400": {
                "nonce": "0x00",
                "balance": "0x3b9aca00",
                "code": "0x60014355",
                "storage": {
                    "0x01": "0x01"
                }
            },
            "0x2adc25665018aa1fe0e6bc666dac8fc2697ff9ba": {
                "nonce": "0x00",
                "balance": "0x07e48c",
                "code": "0x",
                "storage": {}
            },
            "0xa94f5374fce5edbc8e2a8697c15331677e6ebf0b": {
                "nonce": "0x04",
                "balance": "0x3635c9adc5de85b0d8",
                "code": "0x",
                "storage": {}
            },
            "0xbeac00ddb15f3b6d645c48263dc93862413a222d": {
                "nonce": "0x01",
                "balance": "0x00",
                "code": "0x3373fffffffffffffffffffffffffffffffffffffffe14604457602036146024575f5ffd5b620180005f350680545f35146037575f5ffd5b6201800001545f5260205ff35b6201800042064281555f359062018000015500",
                "storage": {
                    "0x0c": "0x0c",
                    "0x18": "0x18"
                }
            }
        },
        "sealEngine": "NoProof"
    }
}