{
    "000-fork=Shanghai": {
        "_info": {
            "filling-transition-tool": "evm version 1.12.1-unstable-c7b099b2",
            "filling-block-build-tool": "evm version 1.12.1-unstable-c7b099b2",
            "reference-spec": "https://github.com/ethereum/EIPs/blob/master/EIPS/eip-4895.md",
            "reference-spec-version": "81af3b60b632bc9c03513d1d137f25410e3f4d34"
        },
        "blocks": [
            {
                "rlp": "0xf902bbf90219a00414d55a2353bf48cf0039340c4485142eaa60342d0ad0838864d5fd5d4b553fa01dcc4de8dec75d7aab85b567b6ccd41ad312451b948a7413f0a142fd40d49347942adc25665018aa1fe0e6bc666dac8fc2697ff9baa0f94bac24c97a836fb6f718c3d89cbf9e3a368ebfcb6b0c3aa089ae2bc3ce5244a0c571cf73fd8fef916df38a63823699e208de1b224e5bdaed87a4c73f72a07f7ca01e473dbf65b283de77e81ec884f8e5165d49cf5a1e813008182216d3b85af85eb9010000000000000000000000000000000000000000000000000000000000000000000000000000000000000000000000000000000000000000000000000000000000000000000000000000000000000000000000000000000000000000000000000000000000000000000000000000000000000000000000000000000000000000000000000000000000000000000000000000000000000000000000000000000000000000000000000000000000000000000000000000000000000000000000000000000000000000000000000000000000000000000000000000000000000000000000000000000000000000000000000000000000000000000000000000000000800188016345785d8a000082d1f20c80a0000000000000000000000000000000000000000000000000000000000000000088000000000000000007a08dbfabd4e0dde509292d6d557e411dfda784f96132e5db82abfe4f33cd613bd5f882f880800a830186a094000000000000000000000000000000000000010080a0000000000000000000000000000000000000000000000000000000000000020026a0fd75940662272e5daac655a822b10f101866916a2975c3821111ad4ab481d48ba067a11d0fcd31933ad4b62b4d6fd4f1540f93406d501e41b82ff59223303f60c5c0d9d8808094000000000000000000000000000000000000010063",
                "blockHeader": {
                    "parentHash": "0x0414d55a2353bf48cf0039340c4485142eaa60342d0ad0838864d5fd5d4b553f",
                    "uncleHash": "0x1dcc4de8dec75d7aab85b567b6ccd41ad312451b948a7413f0a142fd40d49347",
                    "coinbase": "0x2adc25665018aa1fe0e6bc666dac8fc2697ff9ba",
                    "stateRoot": "0xf94bac24c97a836fb6f718c3d89cbf9e3a368ebfcb6b0c3aa089ae2bc3ce5244",
                    "transactionsTrie": "0xc571cf73fd8fef916df38a63823699e208de1b224e5bdaed87a4c73f72a07f7c",
                    "receiptTrie": "0x1e473dbf65b283de77e81ec884f8e5165d49cf5a1e813008182216d3b85af85e",
                    "bloom": "0x00000000000000000000000000000000000000000000000000000000000000000000000000000000000000000000000000000000000000000000000000000000000000000000000000000000000000000000000000000000000000000000000000000000000000000000000000000000000000000000000000000000000000000000000000000000000000000000000000000000000000000000000000000000000000000000000000000000000000000000000000000000000000000000000000000000000000000000000000000000000000000000000000000000000000000000000000000000000000000000000000000000000000000000000000000000",
                    "difficulty": "0x00",
                    "number": "0x01",
                    "gasLimit": "0x016345785d8a0000",
                    "gasUsed": "0xd1f2",
                    "timestamp": "0x0c",
                    "extraData": "0x",
                    "mixHash": "0x0000000000000000000000000000000000000000000000000000000000000000",
                    "nonce": "0x0000000000000000",
                    "baseFeePerGas": "0x07",
                    "hash": "0x63a79c09b6337eca6fcb621c6082be1820d89c843edd40133e5f29a35100bc73",
                    "withdrawalsRoot": "0x8dbfabd4e0dde509292d6d557e411dfda784f96132e5db82abfe4f33cd613bd5"
                },
                "blocknumber": "1",
                "transactions": [
                    {
                        "type": "0x00",
                        "chainId": "0x01",
                        "nonce": "0x00",
                        "gasPrice": "0x0a",
                        "value": "0x00",
                        "to": "0x0000000000000000000000000000000000000100",
                        "protected": true,
                        "secretKey": "0x45a915e4d060149eb4365960e6a7a45f334393093061116b197e3240065ff2d8",
                        "data": "0x0000000000000000000000000000000000000000000000000000000000000200",
                        "gasLimit": "0x0186a0"
                    }
                ],
                "uncleHeaders": [],
                "withdrawals": [
                    {
                        "index": "0x00",
                        "validatorIndex": "0x00",
                        "address": "0x0000000000000000000000000000000000000100",
                        "amount": "0x63"
                    }
                ]
            }
        ],
        "genesisBlockHeader": {
            "parentHash": "0x0000000000000000000000000000000000000000000000000000000000000000",
            "uncleHash": "0x1dcc4de8dec75d7aab85b567b6ccd41ad312451b948a7413f0a142fd40d49347",
            "coinbase": "0x0000000000000000000000000000000000000000",
            "stateRoot": "0x4b7b113f6da8494600f4dc7037892ad980b2e4bfd35e14a3f5e5db9b0fe7cc8b",
            "transactionsTrie": "0x56e81f171bcc55a6ff8345e692c0f86e5b48e01b996cadc001622fb5e363b421",
            "receiptTrie": "0x56e81f171bcc55a6ff8345e692c0f86e5b48e01b996cadc001622fb5e363b421",
            "bloom": "0x00000000000000000000000000000000000000000000000000000000000000000000000000000000000000000000000000000000000000000000000000000000000000000000000000000000000000000000000000000000000000000000000000000000000000000000000000000000000000000000000000000000000000000000000000000000000000000000000000000000000000000000000000000000000000000000000000000000000000000000000000000000000000000000000000000000000000000000000000000000000000000000000000000000000000000000000000000000000000000000000000000000000000000000000000000000",
            "difficulty": "0x00",
            "number": "0x00",
            "gasLimit": "0x016345785d8a0000",
            "gasUsed": "0x00",
            "timestamp": "0x00",
            "extraData": "0x00",
            "mixHash": "0x0000000000000000000000000000000000000000000000000000000000000000",
            "nonce": "0x0000000000000000",
            "baseFeePerGas": "0x07",
            "hash": "0x0414d55a2353bf48cf0039340c4485142eaa60342d0ad0838864d5fd5d4b553f",
            "withdrawalsRoot": "0x56e81f171bcc55a6ff8345e692c0f86e5b48e01b996cadc001622fb5e363b421"
        },
        "genesisRLP": "0xf9021df90217a00000000000000000000000000000000000000000000000000000000000000000a01dcc4de8dec75d7aab85b567b6ccd41ad312451b948a7413f0a142fd40d49347940000000000000000000000000000000000000000a04b7b113f6da8494600f4dc7037892ad980b2e4bfd35e14a3f5e5db9b0fe7cc8ba056e81f171bcc55a6ff8345e692c0f86e5b48e01b996cadc001622fb5e363b421a056e81f171bcc55a6ff8345e692c0f86e5b48e01b996cadc001622fb5e363b421b9010000000000000000000000000000000000000000000000000000000000000000000000000000000000000000000000000000000000000000000000000000000000000000000000000000000000000000000000000000000000000000000000000000000000000000000000000000000000000000000000000000000000000000000000000000000000000000000000000000000000000000000000000000000000000000000000000000000000000000000000000000000000000000000000000000000000000000000000000000000000000000000000000000000000000000000000000000000000000000000000000000000000000000000000000000000000808088016345785d8a0000808000a0000000000000000000000000000000000000000000000000000000000000000088000000000000000007a056e81f171bcc55a6ff8345e692c0f86e5b48e01b996cadc001622fb5e363b421c0c0c0",
        "lastblockhash": "0x63a79c09b6337eca6fcb621c6082be1820d89c843edd40133e5f29a35100bc73",
        "network": "Shanghai",
        "pre": {
            "0xa94f5374fce5edbc8e2a8697c15331677e6ebf0b": {
                "nonce": "0x00",
                "balance": "0x3635c9adc5dea00000",
                "code": "0x",
                "storage": {}
            },
            "0x0000000000000000000000000000000000000100": {
                "nonce": "0x00",
                "balance": "0x174876e800",
                "code": "0x600035ff",
                "storage": {}
            },
            "0x0000000000000000000000000000000000000200": {
                "nonce": "0x00",
                "balance": "0x00",
                "code": "0x",
                "storage": {}
            }
        },
        "postState": {
            "0x0000000000000000000000000000000000000100": {
                "nonce": "0x00",
                "balance": "0x170cdc1e00",
                "code": "0x",
                "storage": {}
            },
            "0x0000000000000000000000000000000000000200": {
                "nonce": "0x00",
                "balance": "0x174876e800",
                "code": "0x",
                "storage": {}
            },
            "0x2adc25665018aa1fe0e6bc666dac8fc2697ff9ba": {
                "nonce": "0x00",
                "balance": "0x0275d6",
                "code": "0x",
                "storage": {}
            },
            "0xa94f5374fce5edbc8e2a8697c15331677e6ebf0b": {
                "nonce": "0x01",
                "balance": "0x3635c9adc5de97cc8c",
                "code": "0x",
                "storage": {}
            }
        },
        "sealEngine": "NoProof"
    }
}