{
    "000-fork=Shanghai-tx_in_withdrawals_block": {
        "_info": {
            "filling-transition-tool": "evm version 1.12.1-unstable-c7b099b2",
            "filling-block-build-tool": "evm version 1.12.1-unstable-c7b099b2",
            "reference-spec": "https://github.com/ethereum/EIPs/blob/master/EIPS/eip-4895.md",
            "reference-spec-version": "81af3b60b632bc9c03513d1d137f25410e3f4d34"
        },
        "blocks": [
            {
                "rlp": "0xf9029ef90217a00781366ad612d7e84f69734884bc9efee3252bf3faec2c26101bc5b0cf6e5bc8a01dcc4de8dec75d7aab85b567b6ccd41ad312451b948a7413f0a142fd40d49347942adc25665018aa1fe0e6bc666dac8fc2697ff9baa07075d070d6ec70a91216fc2dba6ceae6b8d30815166f6b7b7249776767fb9855a056e81f171bcc55a6ff8345e692c0f86e5b48e01b996cadc001622fb5e363b421a056e81f171bcc55a6ff8345e692c0f86e5b48e01b996cadc001622fb5e363b421b9010000000000000000000000000000000000000000000000000000000000000000000000000000000000000000000000000000000000000000000000000000000000000000000000000000000000000000000000000000000000000000000000000000000000000000000000000000000000000000000000000000000000000000000000000000000000000000000000000000000000000000000000000000000000000000000000000000000000000000000000000000000000000000000000000000000000000000000000000000000000000000000000000000000000000000000000000000000000000000000000000000000000000000000000000000000000800188016345785d8a0000800c80a0000000000000000000000000000000000000000000000000000000000000000088000000000000000007a0a485a3bd07e29cb8234b5f093d5216eb8b965fb2693c66fea254f6cacef97a6ff865f86380843b9aca00825208940000000000000000000000000000000000000100808026a0e319535da2cae2d72ddb352054535d000c23acdc7cad9d828891253f3850d0d2a032fe4444149b609e2ffa621e23e179b12028309fdb8cb0a5c1bbc58135299af1c0dbda808094a94f5374fce5edbc8e2a8697c15331677e6ebf0b825209",
                "expectException": "Transaction without funds",
                "blocknumber": "1"
            }
        ],
        "genesisBlockHeader": {
            "parentHash": "0x0000000000000000000000000000000000000000000000000000000000000000",
            "uncleHash": "0x1dcc4de8dec75d7aab85b567b6ccd41ad312451b948a7413f0a142fd40d49347",
            "coinbase": "0x0000000000000000000000000000000000000000",
            "stateRoot": "0x25faa2f2d594cce79d11556ec20fffc29225b1bbdd6d632588c57de69eaad828",
            "transactionsTrie": "0x56e81f171bcc55a6ff8345e692c0f86e5b48e01b996cadc001622fb5e363b421",
            "receiptTrie": "0x56e81f171bcc55a6ff8345e692c0f86e5b48e01b996cadc001622fb5e363b421",
            "bloom": "0x00000000000000000000000000000000000000000000000000000000000000000000000000000000000000000000000000000000000000000000000000000000000000000000000000000000000000000000000000000000000000000000000000000000000000000000000000000000000000000000000000000000000000000000000000000000000000000000000000000000000000000000000000000000000000000000000000000000000000000000000000000000000000000000000000000000000000000000000000000000000000000000000000000000000000000000000000000000000000000000000000000000000000000000000000000000",
            "difficulty": "0x00",
            "number": "0x00",
            "gasLimit": "0x016345785d8a0000",
            "gasUsed": "0x00",
            "timestamp": "0x00",
            "extraData": "0x00",
            "mixHash": "0x0000000000000000000000000000000000000000000000000000000000000000",
            "nonce": "0x0000000000000000",
            "baseFeePerGas": "0x07",
            "hash": "0x0781366ad612d7e84f69734884bc9efee3252bf3faec2c26101bc5b0cf6e5bc8",
            "withdrawalsRoot": "0x56e81f171bcc55a6ff8345e692c0f86e5b48e01b996cadc001622fb5e363b421"
        },
        "genesisRLP": "0xf9021df90217a00000000000000000000000000000000000000000000000000000000000000000a01dcc4de8dec75d7aab85b567b6ccd41ad312451b948a7413f0a142fd40d49347940000000000000000000000000000000000000000a025faa2f2d594cce79d11556ec20fffc29225b1bbdd6d632588c57de69eaad828a056e81f171bcc55a6ff8345e692c0f86e5b48e01b996cadc001622fb5e363b421a056e81f171bcc55a6ff8345e692c0f86e5b48e01b996cadc001622fb5e363b421b9010000000000000000000000000000000000000000000000000000000000000000000000000000000000000000000000000000000000000000000000000000000000000000000000000000000000000000000000000000000000000000000000000000000000000000000000000000000000000000000000000000000000000000000000000000000000000000000000000000000000000000000000000000000000000000000000000000000000000000000000000000000000000000000000000000000000000000000000000000000000000000000000000000000000000000000000000000000000000000000000000000000000000000000000000000000000808088016345785d8a0000808000a0000000000000000000000000000000000000000000000000000000000000000088000000000000000007a056e81f171bcc55a6ff8345e692c0f86e5b48e01b996cadc001622fb5e363b421c0c0c0",
        "lastblockhash": "0x0781366ad612d7e84f69734884bc9efee3252bf3faec2c26101bc5b0cf6e5bc8",
        "network": "Shanghai",
        "pre": {
            "0xa94f5374fce5edbc8e2a8697c15331677e6ebf0b": {
                "nonce": "0x00",
                "balance": "0x00",
                "code": "0x",
                "storage": {}
            }
        },
        "postState": {
            "0xa94f5374fce5edbc8e2a8697c15331677e6ebf0b": {
                "nonce": "0x00",
                "balance": "0x00",
                "code": "0x",
                "storage": {}
            }
        },
        "sealEngine": "NoProof"
    },
    "001-fork=Shanghai-tx_after_withdrawals_block": {
        "_info": {
            "filling-transition-tool": "evm version 1.12.1-unstable-c7b099b2",
            "filling-block-build-tool": "evm version 1.12.1-unstable-c7b099b2",
            "reference-spec": "https://github.com/ethereum/EIPs/blob/master/EIPS/eip-4895.md",
            "reference-spec-version": "81af3b60b632bc9c03513d1d137f25410e3f4d34"
        },
        "blocks": [
            {
                "rlp": "0xf90238f90217a00781366ad612d7e84f69734884bc9efee3252bf3faec2c26101bc5b0cf6e5bc8a01dcc4de8dec75d7aab85b567b6ccd41ad312451b948a7413f0a142fd40d49347942adc25665018aa1fe0e6bc666dac8fc2697ff9baa07075d070d6ec70a91216fc2dba6ceae6b8d30815166f6b7b7249776767fb9855a056e81f171bcc55a6ff8345e692c0f86e5b48e01b996cadc001622fb5e363b421a056e81f171bcc55a6ff8345e692c0f86e5b48e01b996cadc001622fb5e363b421b9010000000000000000000000000000000000000000000000000000000000000000000000000000000000000000000000000000000000000000000000000000000000000000000000000000000000000000000000000000000000000000000000000000000000000000000000000000000000000000000000000000000000000000000000000000000000000000000000000000000000000000000000000000000000000000000000000000000000000000000000000000000000000000000000000000000000000000000000000000000000000000000000000000000000000000000000000000000000000000000000000000000000000000000000000000000000800188016345785d8a0000800c80a0000000000000000000000000000000000000000000000000000000000000000088000000000000000007a0a485a3bd07e29cb8234b5f093d5216eb8b965fb2693c66fea254f6cacef97a6fc0c0dbda808094a94f5374fce5edbc8e2a8697c15331677e6ebf0b825209",
                "blockHeader": {
                    "parentHash": "0x0781366ad612d7e84f69734884bc9efee3252bf3faec2c26101bc5b0cf6e5bc8",
                    "uncleHash": "0x1dcc4de8dec75d7aab85b567b6ccd41ad312451b948a7413f0a142fd40d49347",
                    "coinbase": "0x2adc25665018aa1fe0e6bc666dac8fc2697ff9ba",
                    "stateRoot": "0x7075d070d6ec70a91216fc2dba6ceae6b8d30815166f6b7b7249776767fb9855",
                    "transactionsTrie": "0x56e81f171bcc55a6ff8345e692c0f86e5b48e01b996cadc001622fb5e363b421",
                    "receiptTrie": "0x56e81f171bcc55a6ff8345e692c0f86e5b48e01b996cadc001622fb5e363b421",
                    "bloom": "0x00000000000000000000000000000000000000000000000000000000000000000000000000000000000000000000000000000000000000000000000000000000000000000000000000000000000000000000000000000000000000000000000000000000000000000000000000000000000000000000000000000000000000000000000000000000000000000000000000000000000000000000000000000000000000000000000000000000000000000000000000000000000000000000000000000000000000000000000000000000000000000000000000000000000000000000000000000000000000000000000000000000000000000000000000000000",
                    "difficulty": "0x00",
                    "number": "0x01",
                    "gasLimit": "0x016345785d8a0000",
                    "gasUsed": "0x00",
                    "timestamp": "0x0c",
                    "extraData": "0x",
                    "mixHash": "0x0000000000000000000000000000000000000000000000000000000000000000",
                    "nonce": "0x0000000000000000",
                    "baseFeePerGas": "0x07",
                    "hash": "0x5c7050390955379367ffb1fc687c03d65c256457c92c3048c3b3de943921937b",
                    "withdrawalsRoot": "0xa485a3bd07e29cb8234b5f093d5216eb8b965fb2693c66fea254f6cacef97a6f"
                },
                "blocknumber": "1",
                "transactions": [],
                "uncleHeaders": [],
                "withdrawals": [
                    {
                        "index": "0x00",
                        "validatorIndex": "0x00",
                        "address": "0xa94f5374fce5edbc8e2a8697c15331677e6ebf0b",
                        "amount": "0x5209"
                    }
                ]
            },
            {
                "rlp": "0xf90285f90219a05c7050390955379367ffb1fc687c03d65c256457c92c3048c3b3de943921937ba01dcc4de8dec75d7aab85b567b6ccd41ad312451b948a7413f0a142fd40d49347942adc25665018aa1fe0e6bc666dac8fc2697ff9baa0be252b80c472518724f7b2aa7d688891f9b258d8f43f12b01e1ef5e3cb76bce9a0b5ffe01eaa51ee8246b2108e049e6e11dc0a1d99b4cc52966791ef9c40b8b863a0056b23fbba480696b65fe5a59b8f2148a1299103c4f57df839233af2cf4ca2d2b9010000000000000000000000000000000000000000000000000000000000000000000000000000000000000000000000000000000000000000000000000000000000000000000000000000000000000000000000000000000000000000000000000000000000000000000000000000000000000000000000000000000000000000000000000000000000000000000000000000000000000000000000000000000000000000000000000000000000000000000000000000000000000000000000000000000000000000000000000000000000000000000000000000000000000000000000000000000000000000000000000000000000000000000000000000000000800288016345785d8a00008252081880a0000000000000000000000000000000000000000000000000000000000000000088000000000000000007a056e81f171bcc55a6ff8345e692c0f86e5b48e01b996cadc001622fb5e363b421f865f86380843b9aca00825208940000000000000000000000000000000000000100808026a0e319535da2cae2d72ddb352054535d000c23acdc7cad9d828891253f3850d0d2a032fe4444149b609e2ffa621e23e179b12028309fdb8cb0a5c1bbc58135299af1c0c0",
                "blockHeader": {
                    "parentHash": "0x5c7050390955379367ffb1fc687c03d65c256457c92c3048c3b3de943921937b",
                    "uncleHash": "0x1dcc4de8dec75d7aab85b567b6ccd41ad312451b948a7413f0a142fd40d49347",
                    "coinbase": "0x2adc25665018aa1fe0e6bc666dac8fc2697ff9ba",
                    "stateRoot": "0xbe252b80c472518724f7b2aa7d688891f9b258d8f43f12b01e1ef5e3cb76bce9",
                    "transactionsTrie": "0xb5ffe01eaa51ee8246b2108e049e6e11dc0a1d99b4cc52966791ef9c40b8b863",
                    "receiptTrie": "0x056b23fbba480696b65fe5a59b8f2148a1299103c4f57df839233af2cf4ca2d2",
                    "bloom": "0x00000000000000000000000000000000000000000000000000000000000000000000000000000000000000000000000000000000000000000000000000000000000000000000000000000000000000000000000000000000000000000000000000000000000000000000000000000000000000000000000000000000000000000000000000000000000000000000000000000000000000000000000000000000000000000000000000000000000000000000000000000000000000000000000000000000000000000000000000000000000000000000000000000000000000000000000000000000000000000000000000000000000000000000000000000000",
                    "difficulty": "0x00",
                    "number": "0x02",
                    "gasLimit": "0x016345785d8a0000",
                    "gasUsed": "0x5208",
                    "timestamp": "0x18",
                    "extraData": "0x",
                    "mixHash": "0x0000000000000000000000000000000000000000000000000000000000000000",
                    "nonce": "0x0000000000000000",
                    "baseFeePerGas": "0x07",
                    "hash": "0xc2b1ee318dfe7d5cd073e460f6475381d91cee26c73b468f4414a85aaff3f884",
                    "withdrawalsRoot": "0x56e81f171bcc55a6ff8345e692c0f86e5b48e01b996cadc001622fb5e363b421"
                },
                "blocknumber": "2",
                "transactions": [
                    {
                        "type": "0x00",
                        "chainId": "0x01",
                        "nonce": "0x00",
                        "gasPrice": "0x3b9aca00",
                        "value": "0x00",
                        "to": "0x0000000000000000000000000000000000000100",
                        "protected": true,
                        "secretKey": "0x45a915e4d060149eb4365960e6a7a45f334393093061116b197e3240065ff2d8",
                        "data": "0x",
                        "gasLimit": "0x5208"
                    }
                ],
                "uncleHeaders": [],
                "withdrawals": []
            }
        ],
        "genesisBlockHeader": {
            "parentHash": "0x0000000000000000000000000000000000000000000000000000000000000000",
            "uncleHash": "0x1dcc4de8dec75d7aab85b567b6ccd41ad312451b948a7413f0a142fd40d49347",
            "coinbase": "0x0000000000000000000000000000000000000000",
            "stateRoot": "0x25faa2f2d594cce79d11556ec20fffc29225b1bbdd6d632588c57de69eaad828",
            "transactionsTrie": "0x56e81f171bcc55a6ff8345e692c0f86e5b48e01b996cadc001622fb5e363b421",
            "receiptTrie": "0x56e81f171bcc55a6ff8345e692c0f86e5b48e01b996cadc001622fb5e363b421",
            "bloom": "0x00000000000000000000000000000000000000000000000000000000000000000000000000000000000000000000000000000000000000000000000000000000000000000000000000000000000000000000000000000000000000000000000000000000000000000000000000000000000000000000000000000000000000000000000000000000000000000000000000000000000000000000000000000000000000000000000000000000000000000000000000000000000000000000000000000000000000000000000000000000000000000000000000000000000000000000000000000000000000000000000000000000000000000000000000000000",
            "difficulty": "0x00",
            "number": "0x00",
            "gasLimit": "0x016345785d8a0000",
            "gasUsed": "0x00",
            "timestamp": "0x00",
            "extraData": "0x00",
            "mixHash": "0x0000000000000000000000000000000000000000000000000000000000000000",
            "nonce": "0x0000000000000000",
            "baseFeePerGas": "0x07",
            "hash": "0x0781366ad612d7e84f69734884bc9efee3252bf3faec2c26101bc5b0cf6e5bc8",
            "withdrawalsRoot": "0x56e81f171bcc55a6ff8345e692c0f86e5b48e01b996cadc001622fb5e363b421"
        },
        "genesisRLP": "0xf9021df90217a00000000000000000000000000000000000000000000000000000000000000000a01dcc4de8dec75d7aab85b567b6ccd41ad312451b948a7413f0a142fd40d49347940000000000000000000000000000000000000000a025faa2f2d594cce79d11556ec20fffc29225b1bbdd6d632588c57de69eaad828a056e81f171bcc55a6ff8345e692c0f86e5b48e01b996cadc001622fb5e363b421a056e81f171bcc55a6ff8345e692c0f86e5b48e01b996cadc001622fb5e363b421b9010000000000000000000000000000000000000000000000000000000000000000000000000000000000000000000000000000000000000000000000000000000000000000000000000000000000000000000000000000000000000000000000000000000000000000000000000000000000000000000000000000000000000000000000000000000000000000000000000000000000000000000000000000000000000000000000000000000000000000000000000000000000000000000000000000000000000000000000000000000000000000000000000000000000000000000000000000000000000000000000000000000000000000000000000000000000808088016345785d8a0000808000a0000000000000000000000000000000000000000000000000000000000000000088000000000000000007a056e81f171bcc55a6ff8345e692c0f86e5b48e01b996cadc001622fb5e363b421c0c0c0",
        "lastblockhash": "0xc2b1ee318dfe7d5cd073e460f6475381d91cee26c73b468f4414a85aaff3f884",
        "network": "Shanghai",
        "pre": {
            "0xa94f5374fce5edbc8e2a8697c15331677e6ebf0b": {
                "nonce": "0x00",
                "balance": "0x00",
                "code": "0x",
                "storage": {}
            }
        },
        "postState": {
            "0x2adc25665018aa1fe0e6bc666dac8fc2697ff9ba": {
                "nonce": "0x00",
                "balance": "0x1319718811c8",
                "code": "0x",
                "storage": {}
            },
            "0xa94f5374fce5edbc8e2a8697c15331677e6ebf0b": {
                "nonce": "0x01",
                "balance": "0x3b9aca00",
                "code": "0x",
                "storage": {}
            }
        },
        "sealEngine": "NoProof"
    }
}