{
        "tests/berlin/eip2930_access_list/test_tx_intrinsic_gas.py::test_tx_intrinsic_gas[fork_Paris-tx_type_2-blockchain_test_from_state_test-below_intrinsic_False-access_list_2_address_empty_keys-data_1_non_zero_byte]": {
        "network": "Paris",
        "genesisBlockHeader": {
            "parentHash": "0x0000000000000000000000000000000000000000000000000000000000000000",
            "uncleHash": "0x1dcc4de8dec75d7aab85b567b6ccd41ad312451b948a7413f0a142fd40d49347",
            "coinbase": "0x0000000000000000000000000000000000000000",
            "stateRoot": "0x67c5a00b9175b0dda033042faec59878ad1c3bdafc2371e7e87c5cd55e2cbd80",
            "transactionsTrie": "0x56e81f171bcc55a6ff8345e692c0f86e5b48e01b996cadc001622fb5e363b421",
            "receiptTrie": "0x56e81f171bcc55a6ff8345e692c0f86e5b48e01b996cadc001622fb5e363b421",
            "bloom": "0x00000000000000000000000000000000000000000000000000000000000000000000000000000000000000000000000000000000000000000000000000000000000000000000000000000000000000000000000000000000000000000000000000000000000000000000000000000000000000000000000000000000000000000000000000000000000000000000000000000000000000000000000000000000000000000000000000000000000000000000000000000000000000000000000000000000000000000000000000000000000000000000000000000000000000000000000000000000000000000000000000000000000000000000000000000000",
            "difficulty": "0x00",
            "number": "0x00",
            "gasLimit": "0x055d4a80",
            "gasUsed": "0x00",
            "timestamp": "0x00",
            "extraData": "0x00",
            "mixHash": "0x0000000000000000000000000000000000000000000000000000000000000000",
            "nonce": "0x0000000000000000",
            "baseFeePerGas": "0x07",
            "hash": "0xf2df167a6e574566ef13e2545eb2be5593208824e01449f71ec5120bf958de9d"
        },
        "pre": {
            "0x03ad78f3d4f2a13b2f91630a611799049ef819a1": {
                "nonce": "0x00",
                "balance": "0x3635c9adc5dea00000",
                "code": "0x",
                "storage": {}
            },
            "0x65e12864ab44e436ef786dc6e90a060d5c7b1212": {
                "nonce": "0x01",
                "balance": "0x00",
                "code": "0x6001600101600055",
                "storage": {}
            }
        },
        "postState": {
            "0x03ad78f3d4f2a13b2f91630a611799049ef819a1": {
                "nonce": "0x01",
                "balance": "0x3635c9adc5de9d3cc8",
                "code": "0x",
                "storage": {}
            },
            "0x65e12864ab44e436ef786dc6e90a060d5c7b1212": {
                "nonce": "0x01",
                "balance": "0x00",
                "code": "0x6001600101600055",
                "storage": {}
            }
        },
        "lastblockhash": "0x8baa208a7c7a4cec4b07eb890b3ec300c0f38f27b110ac2b29fbad4980246fe4",
        "config": {
            "network": "Paris",
            "chainid": "0x01"
        },
        "genesisRLP": "0xf901f7f901f2a00000000000000000000000000000000000000000000000000000000000000000a01dcc4de8dec75d7aab85b567b6ccd41ad312451b948a7413f0a142fd40d49347940000000000000000000000000000000000000000a067c5a00b9175b0dda033042faec59878ad1c3bdafc2371e7e87c5cd55e2cbd80a056e81f171bcc55a6ff8345e692c0f86e5b48e01b996cadc001622fb5e363b421a056e81f171bcc55a6ff8345e692c0f86e5b48e01b996cadc001622fb5e363b421b9010000000000000000000000000000000000000000000000000000000000000000000000000000000000000000000000000000000000000000000000000000000000000000000000000000000000000000000000000000000000000000000000000000000000000000000000000000000000000000000000000000000000000000000000000000000000000000000000000000000000000000000000000000000000000000000000000000000000000000000000000000000000000000000000000000000000000000000000000000000000000000000000000000000000000000000000000000000000000000000000000000000000000000000000000000000000808084055d4a80808000a0000000000000000000000000000000000000000000000000000000000000000088000000000000000007c0c0",
        "blocks": [
            {
                "blockHeader": {
                    "parentHash": "0xf2df167a6e574566ef13e2545eb2be5593208824e01449f71ec5120bf958de9d",
                    "uncleHash": "0x1dcc4de8dec75d7aab85b567b6ccd41ad312451b948a7413f0a142fd40d49347",
                    "coinbase": "0x2adc25665018aa1fe0e6bc666dac8fc2697ff9ba",
                    "stateRoot": "0x814a73caeaf4d94207dfe1f1e1c7ff1fb2db918d939255cfc3a113858e59d423",
                    "transactionsTrie": "0xd2c3e456cfa19aee8bba4e923630546278190ece278d61726e1da7be870f606f",
                    "receiptTrie": "0x40505d2c15a616bf31ebd7b4709aeded03a87b1e9d2f22a716831697b47dc37b",
                    "bloom": "0x00000000000000000000000000000000000000000000000000000000000000000000000000000000000000000000000000000000000000000000000000000000000000000000000000000000000000000000000000000000000000000000000000000000000000000000000000000000000000000000000000000000000000000000000000000000000000000000000000000000000000000000000000000000000000000000000000000000000000000000000000000000000000000000000000000000000000000000000000000000000000000000000000000000000000000000000000000000000000000000000000000000000000000000000000000000",
                    "difficulty": "0x00",
                    "number": "0x01",
                    "gasLimit": "0x055d4a80",
                    "gasUsed": "0x6508",
                    "timestamp": "0x03e8",
                    "extraData": "0x00",
                    "mixHash": "0x0000000000000000000000000000000000000000000000000000000000000000",
                    "nonce": "0x0000000000000000",
                    "baseFeePerGas": "0x07",
                    "hash": "0x8baa208a7c7a4cec4b07eb890b3ec300c0f38f27b110ac2b29fbad4980246fe4"
                },
                "transactions": [
                    {
                        "type": "0x02",
                        "chainId": "0x01",
                        "nonce": "0x00",
                        "maxPriorityFeePerGas": "0x00",
                        "maxFeePerGas": "0x07",
                        "gasLimit": "0x6508",
                        "to": "0x65e12864ab44e436ef786dc6e90a060d5c7b1212",
                        "value": "0x00",
                        "data": "0x30784646",
                        "accessList": [
                            {
                                "address": "0x0000000000000000000000000000000000000001",
                                "storageKeys": []
                            },
                            {
                                "address": "0x0000000000000000000000000000000000000002",
                                "storageKeys": []
                            }
                        ],
                        "v": "0x01",
                        "r": "0xf095f23e30f7eecc4f0a3e85fff4399d5688df1fe8dcf37ce89e96d33333d39c",
                        "s": "0x0cb277e6367901a2c56a0b638dd3ccf3821b97cea0e0b8f0c2276a7034fc4ab1",
                        "sender": "0x03ad78f3d4f2a13b2f91630a611799049ef819a1"
                    }
                ],
                "uncleHeaders": [],
                "rlp": "0xf90295f901f6a0f2df167a6e574566ef13e2545eb2be5593208824e01449f71ec5120bf958de9da01dcc4de8dec75d7aab85b567b6ccd41ad312451b948a7413f0a142fd40d49347942adc25665018aa1fe0e6bc666dac8fc2697ff9baa0814a73caeaf4d94207dfe1f1e1c7ff1fb2db918d939255cfc3a113858e59d422a0d2c3e456cfa19aee8bba4e923630546278190ece278d61726e1da7be870f606fa040505d2c15a616bf31ebd7b4709aeded03a87b1e9d2f22a716831697b47dc37bb9010000000000000000000000000000000000000000000000000000000000000000000000000000000000000000000000000000000000000000000000000000000000000000000000000000000000000000000000000000000000000000000000000000000000000000000000000000000000000000000000000000000000000000000000000000000000000000000000000000000000000000000000000000000000000000000000000000000000000000000000000000000000000000000000000000000000000000000000000000000000000000000000000000000000000000000000000000000000000000000000000000000000000000000000000000000000800184055d4a808265088203e800a0000000000000000000000000000000000000000000000000000000000000000088000000000000000007f899b89702f894018080078265089465e12864ab44e436ef786dc6e90a060d5c7b1212808430784646eed6940000000000000000000000000000000000000001c0d6940000000000000000000000000000000000000002c001a0f095f23e30f7eecc4f0a3e85fff4399d5688df1fe8dcf37ce89e96d33333d39ca00cb277e6367901a2c56a0b638dd3ccf3821b97cea0e0b8f0c2276a7034fc4ab1c0",
                "blocknumber": "1"
            }
        ],
        "sealEngine": "NoProof",
        "_info": {
            "hash": "0xe75e4692983b86de639343f6d190f4bafa9871debc0e6381f466d530e652af4b",
            "comment": "`execution-spec-tests` generated test",
            "filling-transition-tool": "ethereum-spec-evm-resolver 0.0.5",
            "description": "Transaction intrinsic gas calculation on EIP2930.",
            "url": "https://github.com/ethereum/execution-spec-tests/tree/v5.3.0/tests/berlin/eip2930_access_list/test_tx_intrinsic_gas.py#L131",
            "fixture-format": "blockchain_test",
            "reference-spec": "https://github.com/ethereum/EIPs/blob/master/EIPS/eip-2930.md",
            "reference-spec-version": "c9db53a936c5c9cbe2db32ba0d1b86c4c6e73534",
            "eels-resolution": {
                "git-url": "https://github.com/ethereum/execution-specs.git",
                "branch": "forks/bpos",
                "commit": "7aacb2c54111391af5e98c505d5010b5698a770f"
            }
        }
    }
}