{
    "tests/verkle/eip4762_verkle_gas_witness/test_creates.py::test_create_collision[fork_Verkle-blockchain_test-create_instruction_None]": {
        "network": "Verkle",
        "genesisBlockHeader": {
            "parentHash": "0x0000000000000000000000000000000000000000000000000000000000000000",
            "uncleHash": "0x1dcc4de8dec75d7aab85b567b6ccd41ad312451b948a7413f0a142fd40d49347",
            "coinbase": "0x0000000000000000000000000000000000000000",
            "stateRoot": "0x44777f5e70010bd3bd0bbe4cd8bf5484128f22ff69b2ae5924144001e9266f2c",
            "transactionsTrie": "0x56e81f171bcc55a6ff8345e692c0f86e5b48e01b996cadc001622fb5e363b421",
            "receiptTrie": "0x56e81f171bcc55a6ff8345e692c0f86e5b48e01b996cadc001622fb5e363b421",
            "bloom": "0x00000000000000000000000000000000000000000000000000000000000000000000000000000000000000000000000000000000000000000000000000000000000000000000000000000000000000000000000000000000000000000000000000000000000000000000000000000000000000000000000000000000000000000000000000000000000000000000000000000000000000000000000000000000000000000000000000000000000000000000000000000000000000000000000000000000000000000000000000000000000000000000000000000000000000000000000000000000000000000000000000000000000000000000000000000000",
            "difficulty": "0x00",
            "number": "0x00",
            "gasLimit": "0x02540be400",
            "gasUsed": "0x00",
            "timestamp": "0x00",
            "extraData": "0x00",
            "mixHash": "0x0000000000000000000000000000000000000000000000000000000000000000",
            "nonce": "0x0000000000000000",
            "baseFeePerGas": "0x07",
            "withdrawalsRoot": "0x56e81f171bcc55a6ff8345e692c0f86e5b48e01b996cadc001622fb5e363b421",
            "hash": "0x58be28f158ffd54792e4dbbf93e4db107a810ccf78548101af2eae7a5e60dcc4"
        },
        "pre": {
            "0xfffffffffffffffffffffffffffffffffffffffe": {
                "nonce": "0x01",
                "balance": "0x00",
                "code": "0x60203611603157600143035f35116029575f356120000143116029576120005f3506545f5260205ff35b5f5f5260205ff35b5f5ffd00",
                "storage": {}
            },
            "0xa94f5374fce5edbc8e2a8697c15331677e6ebf0b": {
                "nonce": "0x00",
                "balance": "0xe8d4a51000",
                "code": "0x",
                "storage": {}
            },
            "0x6295ee1b4f6dd65047762f924ecd367c17eabf8f": {
                "nonce": "0x01",
                "balance": "0x00",
                "code": "0x",
                "storage": {}
            }
        },
        "lastblockhash": "0xb82fe087a2b7bd38ac6b390b5cde10138090fad7751b35226baec4cacf302441",
        "genesisRLP": "0xf9021af90214a00000000000000000000000000000000000000000000000000000000000000000a01dcc4de8dec75d7aab85b567b6ccd41ad312451b948a7413f0a142fd40d49347940000000000000000000000000000000000000000a044777f5e70010bd3bd0bbe4cd8bf5484128f22ff69b2ae5924144001e9266f2ca056e81f171bcc55a6ff8345e692c0f86e5b48e01b996cadc001622fb5e363b421a056e81f171bcc55a6ff8345e692c0f86e5b48e01b996cadc001622fb5e363b421b901000000000000000000000000000000000000000000000000000000000000000000000000000000000000000000000000000000000000000000000000000000000000000000000000000000000000000000000000000000000000000000000000000000000000000000000000000000000000000000000000000000000000000000000000000000000000000000000000000000000000000000000000000000000000000000000000000000000000000000000000000000000000000000000000000000000000000000000000000000000000000000000000000000000000000000000000000000000000000000000000000000000000000000000000000000000080808502540be400808000a0000000000000000000000000000000000000000000000000000000000000000088000000000000000007a056e81f171bcc55a6ff8345e692c0f86e5b48e01b996cadc001622fb5e363b421c0c0c0",
        "blocks": [
            {
                "blockHeader": {
                    "parentHash": "0x58be28f158ffd54792e4dbbf93e4db107a810ccf78548101af2eae7a5e60dcc4",
                    "uncleHash": "0x1dcc4de8dec75d7aab85b567b6ccd41ad312451b948a7413f0a142fd40d49347",
                    "coinbase": "0x2adc25665018aa1fe0e6bc666dac8fc2697ff9ba",
                    "stateRoot": "0x6ef4bfd27db1a17e62cc7782bbdb5f8ff46d853d66077dc745618fd644f51c99",
                    "transactionsTrie": "0xd6c4a4c07826aa55dff7b72454aedf3f91315c6dfd91f3addf293a22e00b9a81",
                    "receiptTrie": "0xc1fb07205fcf3cc2479dd29b04ae10e10e4ec84981e813268a7130694163e0a6",
                    "bloom": "0x00000000000000000000000000000000000000000000000000000000000000000000000000000000000000000000000000000000000000000000000000000000000000000000000000000000000000000000000000000000000000000000000000000000000000000000000000000000000000000000000000000000000000000000000000000000000000000000000000000000000000000000000000000000000000000000000000000000000000000000000000000000000000000000000000000000000000000000000000000000000000000000000000000000000000000000000000000000000000000000000000000000000000000000000000000000",
                    "difficulty": "0x00",
                    "number": "0x01",
                    "gasLimit": "0x02540be400",
                    "gasUsed": "0x02540be400",
                    "timestamp": "0x0c",
                    "extraData": "0x",
                    "mixHash": "0x0000000000000000000000000000000000000000000000000000000000000000",
                    "nonce": "0x0000000000000000",
                    "baseFeePerGas": "0x07",
                    "withdrawalsRoot": "0x56e81f171bcc55a6ff8345e692c0f86e5b48e01b996cadc001622fb5e363b421",
                    "hash": "0xb82fe087a2b7bd38ac6b390b5cde10138090fad7751b35226baec4cacf302441"
                },
                "transactions": [
                    {
                        "type": "0x00",
                        "chainId": "0x01",
                        "nonce": "0x00",
                        "gasPrice": "0x0a",
                        "gasLimit": "0x02540be400",
                        "value": "0x00",
                        "data": "0x610087600081600b8239f35f5f5f5f5f5f5f5f5f5f5f5f5f5f5f5f5f5f5f5f5f5f5f5f5f5f5f5f5f5f5f5f5f5f5f5f5f5f5f5f5f5f5f5f5f5f5f5f5f5f5f5f5f5f5f5f5f5f5f5f5f5f5f5f5f5f5f5f5f5f5f5f5f5f5f5f5f5f5f5f5f5f5f5f5f5f5f5f5f5f5f5f5f5f5f5f5f5f5f5f5f5f5f5f5f5f5f5f5f5f5f5f5f5f5f5f5f5f5f5f5f5f5f5f5f5f5f5f5f5f5f5f5f5f5f",
                        "v": "0x26",
                        "r": "0x86ea6af69bbb4acffe9dcf61ba920793330eb6ecf23db5374969eb7c92c76b99",
                        "s": "0x207466609176f5797b649793deb71b78c97a89321ce55d3f0c48cab113364735",
                        "sender": "0xa94f5374fce5edbc8e2a8697c15331677e6ebf0b",
                        "to": ""
                    }
                ],
                "uncleHeaders": [],
                "withdrawals": [],
                "witness": {
                    "stateDiff": [
                        {
                            "stem": "0x0365b079a274a1808d56484ce5bd97914629907d75767f51439102e22cd50d",
                            "suffixDiffs": [
                                {
                                    "suffix": 0,
                                    "currentValue": "0x000000000000000000000000000000000000000000000000000000e8d4a51000",
                                    "newValue": "0x000000000000000000000000000000010000000000000000000000d18c2e2800"
                                },
                                {
                                    "suffix": 1,
                                    "currentValue": "0xc5d2460186f7233c927e7db2dcc703c0e500b653ca82273b7bfad8045d85a470",
                                    "newValue": null
                                }
                            ]
                        },
                        {
                            "stem": "0x54220718c98dc4a223340d3e8622858c51c7bff2a857f83b0160bfdd8d02f5",
                            "suffixDiffs": [
                                {
                                    "suffix": 0,
                                    "currentValue": "0x0000000000000000000000000000000100000000000000000000000000000000",
                                    "newValue": null
                                },
                                {
                                    "suffix": 1,
                                    "currentValue": "0xc5d2460186f7233c927e7db2dcc703c0e500b653ca82273b7bfad8045d85a470",
                                    "newValue": null
                                }
                            ]
                        },
                        {
                            "stem": "0x5b5fdfedd6a0e932da408ac7d772a36513d1eee9b9926e52620c43a433aad7",
                            "suffixDiffs": [
                                {
                                    "suffix": 64,
                                    "newValue": "0x58be28f158ffd54792e4dbbf93e4db107a810ccf78548101af2eae7a5e60dcc4",
                                    "currentValue": null
                                }
                            ]
                        },
                        {
                            "stem": "0x914ec5f0e0c27fe094862fbd89a6abe684939af6940434d8bf218cedb2d624",
                            "suffixDiffs": [
                                {
                                    "suffix": 0,
                                    "newValue": "0x00000000000000000000000000000000000000000000000000000006fc23ac00",
                                    "currentValue": null
                                },
                                {
                                    "suffix": 1,
                                    "newValue": "0xc5d2460186f7233c927e7db2dcc703c0e500b653ca82273b7bfad8045d85a470",
                                    "currentValue": null
                                }
                            ]
                        }
                    ],
                    "verkleProof": {
                        "otherStems": [],
                        "depthExtensionPresent": "0xa0a0a08",
                        "commitmentsByPath": [
                            "0x0cb1c44970eb6d96eb16674fd5cf84f2073d2f40eafd098ac2dd5826dfd71bd4",
                            "0x636a2a367a412bc3a2689c22777733db7c599a3f70b25e76dade1bd678cb0c70",
                            "0x51f160ac213ad498e0ab394e95c1879e4c0a850eb84502cfc5a0f401cae74cf9",
                            "0x3ce3c8da8959f4a640e1a120ef80d80d9c217cf61b9ce7456c832594c9338223",
                            "0x61506c1cc4f27c9231a546a4b0d249d5f3ba4ba9e63c5ebb84087665eb396e95",
                            "0x4909fc1889e10819cda41706a26373145c4e4575d68b96569af12db69040b6e1"
                        ],
                        "d": "0x1e0a09a9d341f4bb54be0b144d43ec8edd3779bb6802a93c80e68e6d8b053cc4",
                        "ipaProof": {
                            "cl": [
                                "0x4de4a73d5f5c36cb06cf2b9b6c27e3b82f8b32f67b0c3163ab3a0b485150ef3f",
                                "0x22e37aaca93b003a443be0983e8c913418ffb2979f579e55fbe430b9a9113809",
                                "0x059e67fad8536af7ac4268289a418539c1bc94d3bc32943c5b7618e2c753648d",
                                "0x03ca1d25285e7112a56e7c35a823f5aa68be1c57366a1da7bc72ba94baf83968",
                                "0x4611411fd294426c6342f033ec0fc2de5c90bd51804fecb8f1ca85f7b29a7d9a",
                                "0x661245f0c2b0649cbd44043e3aa56599ee3fcdb867ed6413229d6225437b99c5",
                                "0x39672e39d74f8a2decac08a62814728cd0093aa134fa829b17a0f960f544c1c1",
                                "0x4be3744519db0c43448b23ed615fce12a78b9665b3e9ea6a221c8900dfeb3bcc"
                            ],
                            "cr": [
                                "0x32cc0a3e778639c95c31801e575cf0a82eed73f0c57655d965d82fae3c285775",
                                "0x63cb8b240243964acc35762d4b99e0db9305522c37543f090cac76c146a33f61",
                                "0x6c72ace3b34d102e60e0ecbc0a523cf6daf1942e83d4610ea693782edbb2041a",
                                "0x55c97724a063e027d79884e8a335aad6ce6f85bc734432d8336e98e8cc086d00",
                                "0x3a92a246e38a20f1e53645adca63347c4ad6378f1d5fb067df883246ed49aa28",
                                "0x4eb7476104370878a2700d3d3746eb46f22fb33441009d44a192521a99b1718c",
                                "0x1779eaf79b7ae8fb78cdc6d006389bb20ef91527764be5f8d9a4181b185ce639",
                                "0x60f8617eb6a039e2f4ea8be1ac52fa707288acdc381308118d645642d21cb6a5"
                            ],
                            "finalEvaluation": "0x10b98a9c6643e2b4fc6c7fcaa867f1f240a5aafca8ceb74b17969b87476a2b7f"
                        }
                    }
                },
                "rlp": "0xf90303f90219a058be28f158ffd54792e4dbbf93e4db107a810ccf78548101af2eae7a5e60dcc4a01dcc4de8dec75d7aab85b567b6ccd41ad312451b948a7413f0a142fd40d49347942adc25665018aa1fe0e6bc666dac8fc2697ff9baa06ef4bfd27db1a17e62cc7782bbdb5f8ff46d853d66077dc745618fd644f51c99a0d6c4a4c07826aa55dff7b72454aedf3f91315c6dfd91f3addf293a22e00b9a81a0c1fb07205fcf3cc2479dd29b04ae10e10e4ec84981e813268a7130694163e0a6b901000000000000000000000000000000000000000000000000000000000000000000000000000000000000000000000000000000000000000000000000000000000000000000000000000000000000000000000000000000000000000000000000000000000000000000000000000000000000000000000000000000000000000000000000000000000000000000000000000000000000000000000000000000000000000000000000000000000000000000000000000000000000000000000000000000000000000000000000000000000000000000000000000000000000000000000000000000000000000000000000000000000000000000000000000000000080018502540be4008502540be4000c80a0000000000000000000000000000000000000000000000000000000000000000088000000000000000007a056e81f171bcc55a6ff8345e692c0f86e5b48e01b996cadc001622fb5e363b421f8e3f8e1800a8502540be4008080b892610087600081600b8239f35f5f5f5f5f5f5f5f5f5f5f5f5f5f5f5f5f5f5f5f5f5f5f5f5f5f5f5f5f5f5f5f5f5f5f5f5f5f5f5f5f5f5f5f5f5f5f5f5f5f5f5f5f5f5f5f5f5f5f5f5f5f5f5f5f5f5f5f5f5f5f5f5f5f5f5f5f5f5f5f5f5f5f5f5f5f5f5f5f5f5f5f5f5f5f5f5f5f5f5f5f5f5f5f5f5f5f5f5f5f5f5f5f5f5f5f5f5f5f5f5f5f5f5f5f5f5f5f5f5f5f5f5f5f5f26a086ea6af69bbb4acffe9dcf61ba920793330eb6ecf23db5374969eb7c92c76b99a0207466609176f5797b649793deb71b78c97a89321ce55d3f0c48cab113364735c0c0",
                "blocknumber": "1"
            }
        ],
        "sealEngine": "NoProof",
        "_info": {
            "hash": "0xed92396235ca2316a6f5830b3df69147b2d2c5a1625e1689472198fc1dc8892f",
            "comment": "`execution-spec-tests` generated test",
            "filling-transition-tool": "evm version 1.12.1-unstable-c329550a-20241022",
            "description": "Test function documentation:\n\n    Test tx contract creation and *CREATE with address collision.",
            "url": "https://github.com/ethereum/execution-spec-tests/blob/verkle@v0.0.6/tests/verkle/eip4762_verkle_gas_witness/test_creates.py#L202",
            "reference-spec": "https://github.com/ethereum/EIPs/blob/master/EIPS/eip-4762.md",
            "reference-spec-version": "2f8299df31bb8173618901a03a8366a3183479b0"
        }
    },
    "tests/verkle/eip4762_verkle_gas_witness/test_creates.py::test_create_collision[fork_Verkle-blockchain_test-create_instruction_CREATE]": {
        "network": "Verkle",
        "genesisBlockHeader": {
            "parentHash": "0x0000000000000000000000000000000000000000000000000000000000000000",
            "uncleHash": "0x1dcc4de8dec75d7aab85b567b6ccd41ad312451b948a7413f0a142fd40d49347",
            "coinbase": "0x0000000000000000000000000000000000000000",
            "stateRoot": "0x72658cd93be4971a0cf10fe3236659f71fea92f40bbc9cf9e49dbd2a9b029f06",
            "transactionsTrie": "0x56e81f171bcc55a6ff8345e692c0f86e5b48e01b996cadc001622fb5e363b421",
            "receiptTrie": "0x56e81f171bcc55a6ff8345e692c0f86e5b48e01b996cadc001622fb5e363b421",
            "bloom": "0x00000000000000000000000000000000000000000000000000000000000000000000000000000000000000000000000000000000000000000000000000000000000000000000000000000000000000000000000000000000000000000000000000000000000000000000000000000000000000000000000000000000000000000000000000000000000000000000000000000000000000000000000000000000000000000000000000000000000000000000000000000000000000000000000000000000000000000000000000000000000000000000000000000000000000000000000000000000000000000000000000000000000000000000000000000000",
            "difficulty": "0x00",
            "number": "0x00",
            "gasLimit": "0x02540be400",
            "gasUsed": "0x00",
            "timestamp": "0x00",
            "extraData": "0x00",
            "mixHash": "0x0000000000000000000000000000000000000000000000000000000000000000",
            "nonce": "0x0000000000000000",
            "baseFeePerGas": "0x07",
            "withdrawalsRoot": "0x56e81f171bcc55a6ff8345e692c0f86e5b48e01b996cadc001622fb5e363b421",
            "hash": "0xa34223c6e87f1f9ab9b56d5ac5e59f789c7164a1b4af14742cedcd348075f80d"
        },
        "pre": {
            "0xfffffffffffffffffffffffffffffffffffffffe": {
                "nonce": "0x01",
                "balance": "0x00",
                "code": "0x60203611603157600143035f35116029575f356120000143116029576120005f3506545f5260205ff35b5f5f5260205ff35b5f5ffd00",
                "storage": {}
            },
            "0xa94f5374fce5edbc8e2a8697c15331677e6ebf0b": {
                "nonce": "0x00",
                "balance": "0xe8d4a51000",
                "code": "0x",
                "storage": {}
            },
            "0x8a0a19589531694250d570040a0c4b74576919b8": {
                "nonce": "0x00",
                "balance": "0x00",
                "code": "0x60926000600037609260006000f0",
                "storage": {}
            },
            "0xa936eb7416f4c4981e7bb49b4c23498ff8103e0d": {
                "nonce": "0x01",
                "balance": "0x00",
                "code": "0x",
                "storage": {}
            }
        },
        "lastblockhash": "0xa95a776d5b7f8b3502931b7518e18dc16fa1930f192f703b952e88687da98c55",
        "genesisRLP": "0xf9021af90214a00000000000000000000000000000000000000000000000000000000000000000a01dcc4de8dec75d7aab85b567b6ccd41ad312451b948a7413f0a142fd40d49347940000000000000000000000000000000000000000a072658cd93be4971a0cf10fe3236659f71fea92f40bbc9cf9e49dbd2a9b029f06a056e81f171bcc55a6ff8345e692c0f86e5b48e01b996cadc001622fb5e363b421a056e81f171bcc55a6ff8345e692c0f86e5b48e01b996cadc001622fb5e363b421b901000000000000000000000000000000000000000000000000000000000000000000000000000000000000000000000000000000000000000000000000000000000000000000000000000000000000000000000000000000000000000000000000000000000000000000000000000000000000000000000000000000000000000000000000000000000000000000000000000000000000000000000000000000000000000000000000000000000000000000000000000000000000000000000000000000000000000000000000000000000000000000000000000000000000000000000000000000000000000000000000000000000000000000000000000000000080808502540be400808000a0000000000000000000000000000000000000000000000000000000000000000088000000000000000007a056e81f171bcc55a6ff8345e692c0f86e5b48e01b996cadc001622fb5e363b421c0c0c0",
        "blocks": [
            {
                "blockHeader": {
                    "parentHash": "0xa34223c6e87f1f9ab9b56d5ac5e59f789c7164a1b4af14742cedcd348075f80d",
                    "uncleHash": "0x1dcc4de8dec75d7aab85b567b6ccd41ad312451b948a7413f0a142fd40d49347",
                    "coinbase": "0x2adc25665018aa1fe0e6bc666dac8fc2697ff9ba",
                    "stateRoot": "0x1528213531d76a9524e02792eae1d42f030e8e7a222a581a5d699b9844eb1aa9",
                    "transactionsTrie": "0x233d554d35869db611d9ea55c55c62ced6241c113e9a1e014dfec850b044e371",
                    "receiptTrie": "0xa45685e2231418335d93193b214773bf2e96f40356ca4d15af0293b67aa9e393",
                    "bloom": "0x00000000000000000000000000000000000000000000000000000000000000000000000000000000000000000000000000000000000000000000000000000000000000000000000000000000000000000000000000000000000000000000000000000000000000000000000000000000000000000000000000000000000000000000000000000000000000000000000000000000000000000000000000000000000000000000000000000000000000000000000000000000000000000000000000000000000000000000000000000000000000000000000000000000000000000000000000000000000000000000000000000000000000000000000000000000",
                    "difficulty": "0x00",
                    "number": "0x01",
                    "gasLimit": "0x02540be400",
                    "gasUsed": "0x024abbb5f0",
                    "timestamp": "0x0c",
                    "extraData": "0x",
                    "mixHash": "0x0000000000000000000000000000000000000000000000000000000000000000",
                    "nonce": "0x0000000000000000",
                    "baseFeePerGas": "0x07",
                    "withdrawalsRoot": "0x56e81f171bcc55a6ff8345e692c0f86e5b48e01b996cadc001622fb5e363b421",
                    "hash": "0xa95a776d5b7f8b3502931b7518e18dc16fa1930f192f703b952e88687da98c55"
                },
                "transactions": [
                    {
                        "type": "0x00",
                        "chainId": "0x01",
                        "nonce": "0x00",
                        "gasPrice": "0x0a",
                        "gasLimit": "0x02540be400",
                        "to": "0x8a0a19589531694250d570040a0c4b74576919b8",
                        "value": "0x00",
                        "data": "0x610087600081600b8239f35f5f5f5f5f5f5f5f5f5f5f5f5f5f5f5f5f5f5f5f5f5f5f5f5f5f5f5f5f5f5f5f5f5f5f5f5f5f5f5f5f5f5f5f5f5f5f5f5f5f5f5f5f5f5f5f5f5f5f5f5f5f5f5f5f5f5f5f5f5f5f5f5f5f5f5f5f5f5f5f5f5f5f5f5f5f5f5f5f5f5f5f5f5f5f5f5f5f5f5f5f5f5f5f5f5f5f5f5f5f5f5f5f5f5f5f5f5f5f5f5f5f5f5f5f5f5f5f5f5f5f5f5f5f5f",
                        "v": "0x26",
                        "r": "0x5282be6c4a7aa0690da4eda0cd924fafe9a6c0407d5f549d449565a3b57bf9de",
                        "s": "0x214df40917283448202ef81e67a943bf7e0ab72e4059ba8a2e31eb6f41cd1beb",
                        "sender": "0xa94f5374fce5edbc8e2a8697c15331677e6ebf0b"
                    }
                ],
                "uncleHeaders": [],
                "withdrawals": [],
                "witness": {
                    "stateDiff": [
                        {
                            "stem": "0x0365b079a274a1808d56484ce5bd97914629907d75767f51439102e22cd50d",
                            "suffixDiffs": [
                                {
                                    "suffix": 0,
                                    "currentValue": "0x000000000000000000000000000000000000000000000000000000e8d4a51000",
                                    "newValue": "0x000000000000000000000000000000010000000000000000000000d1e94ff4a0"
                                },
                                {
                                    "suffix": 1,
                                    "currentValue": "0xc5d2460186f7233c927e7db2dcc703c0e500b653ca82273b7bfad8045d85a470",
                                    "newValue": null
                                }
                            ]
                        },
                        {
                            "stem": "0x5b5fdfedd6a0e932da408ac7d772a36513d1eee9b9926e52620c43a433aad7",
                            "suffixDiffs": [
                                {
                                    "suffix": 64,
                                    "newValue": "0xa34223c6e87f1f9ab9b56d5ac5e59f789c7164a1b4af14742cedcd348075f80d",
                                    "currentValue": null
                                }
                            ]
                        },
                        {
                            "stem": "0x914ec5f0e0c27fe094862fbd89a6abe684939af6940434d8bf218cedb2d624",
                            "suffixDiffs": [
                                {
                                    "suffix": 0,
                                    "newValue": "0x00000000000000000000000000000000000000000000000000000006e03321d0",
                                    "currentValue": null
                                },
                                {
                                    "suffix": 1,
                                    "newValue": "0xc5d2460186f7233c927e7db2dcc703c0e500b653ca82273b7bfad8045d85a470",
                                    "currentValue": null
                                }
                            ]
                        },
                        {
                            "stem": "0xa1aab0494ec37a6ac785d292328969623bb899b2d061d8ed7825714606d5f4",
                            "suffixDiffs": [
                                {
                                    "suffix": 0,
                                    "currentValue": "0x0000000000000000000000000000000100000000000000000000000000000000",
                                    "newValue": null
                                },
                                {
                                    "suffix": 1,
                                    "currentValue": "0xc5d2460186f7233c927e7db2dcc703c0e500b653ca82273b7bfad8045d85a470",
                                    "newValue": null
                                }
                            ]
                        },
                        {
                            "stem": "0xecb505156708480caf702cd85124f67f3ed78ae4bc890a6dcb62574ba9a90c",
                            "suffixDiffs": [
                                {
                                    "suffix": 0,
                                    "currentValue": "0x000000000000000e000000000000000000000000000000000000000000000000",
                                    "newValue": "0x000000000000000e000000000000000100000000000000000000000000000000"
                                },
                                {
                                    "suffix": 1,
                                    "currentValue": "0x6b9fb2e6a3cf8ec291eaa1586fece6238c1d02d7599a7569de3b91b6430f191a",
                                    "newValue": null
                                },
                                {
                                    "suffix": 128,
                                    "currentValue": "0x0060926000600037609260006000f00000000000000000000000000000000000",
                                    "newValue": null
                                }
                            ]
                        }
                    ],
                    "verkleProof": {
                        "otherStems": [],
                        "depthExtensionPresent": "0xa0a080a0a",
                        "commitmentsByPath": [
                            "0x0cb1c44970eb6d96eb16674fd5cf84f2073d2f40eafd098ac2dd5826dfd71bd4",
                            "0x636a2a367a412bc3a2689c22777733db7c599a3f70b25e76dade1bd678cb0c70",
                            "0x61506c1cc4f27c9231a546a4b0d249d5f3ba4ba9e63c5ebb84087665eb396e95",
                            "0x4909fc1889e10819cda41706a26373145c4e4575d68b96569af12db69040b6e1",
                            "0x594be0a1a75d48edf431677c70ad8a49e9c2b25265ff2dd159bfda3005dc2432",
                            "0x3ce3c8da8959f4a640e1a120ef80d80d9c217cf61b9ce7456c832594c9338223",
                            "0x6a02bc7c84a85b1d1881cbf5d262638d0382b7caf2c23366998fc00eca6c20ac",
                            "0x4d9e603790f8ca1a3a96ad5cb6af296921b343200dba880b5e257101dea84f69",
                            "0x041b520ce43352812a555d7ffbe277fe66aec7e8cafd94ba6d32a7fca355f093"
                        ],
                        "d": "0x3e21646cd73099a6fc539e34d48239d354f959499c733f4e0f411aeaf5278be0",
                        "ipaProof": {
                            "cl": [
                                "0x031bc5f39b740419f0b2aeb6c1477afc06d7476e5b56c4fd2ba786b72418efbc",
                                "0x13e60c32bd562bd5a90f0a89954931eab6483f92f88aac067c3eb2cf8dbbee83",
                                "0x00d44f8701c7f1c5ebe9d591cbab21532ca8d060ce3136251d418b47e245b874",
                                "0x3fd951928023de5b49751907ea7667382a65a04ab9c5cdb74417bcf61e9a0adc",
                                "0x40d899bc9c8b1867ba4f78358345576dac076d6fb6ba8ecac5630509d5bd4922",
                                "0x470036eca4bb713d8e5527dbb08a13627e11f381c4977c046970b3e975dc40d1",
                                "0x6e71861ccb369707a822c1565e6d3464edad9b107452bd2749e4e541a37fe52e",
                                "0x56a76907a24640c541029d025cae7339ba3e16e6d90dc3089dee628a0e4eed80"
                            ],
                            "cr": [
                                "0x20824b3a60789e222c8299c3fe40140b5404f813b66dc7b51b75d9de53c2f407",
                                "0x1d45523d76652675395d0e866c5dac5447574f454ec792d0faa038857e698092",
                                "0x5ad9e551422e12e3990161585c455d8ca1e015d4ecae889b7744d6c8f3401e0b",
                                "0x1943bb17a9a6ea0355092c982b2130442c68f546bb139ff6fc5275a3de702de8",
                                "0x335ebe7f676f97774e6efc38cf12ef8ec9cf45a0f8bd5f017c85e1fed16a8c6f",
                                "0x5fe18598f8089f54a37e468f8d695bc971da181f2f3a3aa1cb275a08262bc0c4",
                                "0x23674980194da2590f69572d013fc059a4726f5634f320d4e7305355655086c1",
                                "0x4023f207f393e0c143fc45e500e7cb92ce2f710d30146b36d885e4ae61930c67"
                            ],
                            "finalEvaluation": "0x05965b472aa82c26cfce0cd945787389d08cc3a3b393570d95f1f5978e8ef835"
                        }
                    }
                },
                "rlp": "0xf90317f90219a0a34223c6e87f1f9ab9b56d5ac5e59f789c7164a1b4af14742cedcd348075f80da01dcc4de8dec75d7aab85b567b6ccd41ad312451b948a7413f0a142fd40d49347942adc25665018aa1fe0e6bc666dac8fc2697ff9baa01528213531d76a9524e02792eae1d42f030e8e7a222a581a5d699b9844eb1aa9a0233d554d35869db611d9ea55c55c62ced6241c113e9a1e014dfec850b044e371a0a45685e2231418335d93193b214773bf2e96f40356ca4d15af0293b67aa9e393b901000000000000000000000000000000000000000000000000000000000000000000000000000000000000000000000000000000000000000000000000000000000000000000000000000000000000000000000000000000000000000000000000000000000000000000000000000000000000000000000000000000000000000000000000000000000000000000000000000000000000000000000000000000000000000000000000000000000000000000000000000000000000000000000000000000000000000000000000000000000000000000000000000000000000000000000000000000000000000000000000000000000000000000000000000000000080018502540be40085024abbb5f00c80a0000000000000000000000000000000000000000000000000000000000000000088000000000000000007a056e81f171bcc55a6ff8345e692c0f86e5b48e01b996cadc001622fb5e363b421f8f7f8f5800a8502540be400948a0a19589531694250d570040a0c4b74576919b880b892610087600081600b8239f35f5f5f5f5f5f5f5f5f5f5f5f5f5f5f5f5f5f5f5f5f5f5f5f5f5f5f5f5f5f5f5f5f5f5f5f5f5f5f5f5f5f5f5f5f5f5f5f5f5f5f5f5f5f5f5f5f5f5f5f5f5f5f5f5f5f5f5f5f5f5f5f5f5f5f5f5f5f5f5f5f5f5f5f5f5f5f5f5f5f5f5f5f5f5f5f5f5f5f5f5f5f5f5f5f5f5f5f5f5f5f5f5f5f5f5f5f5f5f5f5f5f5f5f5f5f5f5f5f5f5f5f5f5f5f26a05282be6c4a7aa0690da4eda0cd924fafe9a6c0407d5f549d449565a3b57bf9dea0214df40917283448202ef81e67a943bf7e0ab72e4059ba8a2e31eb6f41cd1bebc0c0",
                "blocknumber": "1"
            }
        ],
        "sealEngine": "NoProof",
        "_info": {
            "hash": "0xeb3d2b126018e9f79b69c5e878b5dd7a92ee33f5a295008bb468baa9d5876176",
            "comment": "`execution-spec-tests` generated test",
            "filling-transition-tool": "evm version 1.12.1-unstable-c329550a-20241022",
            "description": "Test function documentation:\n\n    Test tx contract creation and *CREATE with address collision.",
            "url": "https://github.com/ethereum/execution-spec-tests/blob/verkle@v0.0.6/tests/verkle/eip4762_verkle_gas_witness/test_creates.py#L202",
            "reference-spec": "https://github.com/ethereum/EIPs/blob/master/EIPS/eip-4762.md",
            "reference-spec-version": "2f8299df31bb8173618901a03a8366a3183479b0"
        }
    },
    "tests/verkle/eip4762_verkle_gas_witness/test_creates.py::test_create_collision[fork_Verkle-blockchain_test-create_instruction_CREATE2]": {
        "network": "Verkle",
        "genesisBlockHeader": {
            "parentHash": "0x0000000000000000000000000000000000000000000000000000000000000000",
            "uncleHash": "0x1dcc4de8dec75d7aab85b567b6ccd41ad312451b948a7413f0a142fd40d49347",
            "coinbase": "0x0000000000000000000000000000000000000000",
            "stateRoot": "0x3a0b711c89aa17637120feaee971715661cbaadd3ac0ca09c35036a7c418dffc",
            "transactionsTrie": "0x56e81f171bcc55a6ff8345e692c0f86e5b48e01b996cadc001622fb5e363b421",
            "receiptTrie": "0x56e81f171bcc55a6ff8345e692c0f86e5b48e01b996cadc001622fb5e363b421",
            "bloom": "0x00000000000000000000000000000000000000000000000000000000000000000000000000000000000000000000000000000000000000000000000000000000000000000000000000000000000000000000000000000000000000000000000000000000000000000000000000000000000000000000000000000000000000000000000000000000000000000000000000000000000000000000000000000000000000000000000000000000000000000000000000000000000000000000000000000000000000000000000000000000000000000000000000000000000000000000000000000000000000000000000000000000000000000000000000000000",
            "difficulty": "0x00",
            "number": "0x00",
            "gasLimit": "0x02540be400",
            "gasUsed": "0x00",
            "timestamp": "0x00",
            "extraData": "0x00",
            "mixHash": "0x0000000000000000000000000000000000000000000000000000000000000000",
            "nonce": "0x0000000000000000",
            "baseFeePerGas": "0x07",
            "withdrawalsRoot": "0x56e81f171bcc55a6ff8345e692c0f86e5b48e01b996cadc001622fb5e363b421",
            "hash": "0x365ba1723c591419b6c5f527c35cde3345bed24d9150d6e1a285d27516f7554a"
        },
        "pre": {
            "0xfffffffffffffffffffffffffffffffffffffffe": {
                "nonce": "0x01",
                "balance": "0x00",
                "code": "0x60203611603157600143035f35116029575f356120000143116029576120005f3506545f5260205ff35b5f5f5260205ff35b5f5ffd00",
                "storage": {}
            },
            "0xa94f5374fce5edbc8e2a8697c15331677e6ebf0b": {
                "nonce": "0x00",
                "balance": "0xe8d4a51000",
                "code": "0x",
                "storage": {}
            },
            "0x8a0a19589531694250d570040a0c4b74576919b8": {
                "nonce": "0x00",
                "balance": "0x00",
                "code": "0x6092600060003763deadbeef609260006000f5",
                "storage": {}
            },
            "0x6bae31a0769b990593506f65138ef31be78a7eb1": {
                "nonce": "0x01",
                "balance": "0x00",
                "code": "0x",
                "storage": {}
            }
        },
        "lastblockhash": "0x119f2e2d94ed36989c88916ce674fb5680622a8f33c2c568735a908af6fb4778",
        "genesisRLP": "0xf9021af90214a00000000000000000000000000000000000000000000000000000000000000000a01dcc4de8dec75d7aab85b567b6ccd41ad312451b948a7413f0a142fd40d49347940000000000000000000000000000000000000000a03a0b711c89aa17637120feaee971715661cbaadd3ac0ca09c35036a7c418dffca056e81f171bcc55a6ff8345e692c0f86e5b48e01b996cadc001622fb5e363b421a056e81f171bcc55a6ff8345e692c0f86e5b48e01b996cadc001622fb5e363b421b901000000000000000000000000000000000000000000000000000000000000000000000000000000000000000000000000000000000000000000000000000000000000000000000000000000000000000000000000000000000000000000000000000000000000000000000000000000000000000000000000000000000000000000000000000000000000000000000000000000000000000000000000000000000000000000000000000000000000000000000000000000000000000000000000000000000000000000000000000000000000000000000000000000000000000000000000000000000000000000000000000000000000000000000000000000000080808502540be400808000a0000000000000000000000000000000000000000000000000000000000000000088000000000000000007a056e81f171bcc55a6ff8345e692c0f86e5b48e01b996cadc001622fb5e363b421c0c0c0",
        "blocks": [
            {
                "blockHeader": {
                    "parentHash": "0x365ba1723c591419b6c5f527c35cde3345bed24d9150d6e1a285d27516f7554a",
                    "uncleHash": "0x1dcc4de8dec75d7aab85b567b6ccd41ad312451b948a7413f0a142fd40d49347",
                    "coinbase": "0x2adc25665018aa1fe0e6bc666dac8fc2697ff9ba",
                    "stateRoot": "0x2433042cb2af9a7164dbeaa6a731212ff7ce8ee54419c9c0d2931b8395b372a2",
                    "transactionsTrie": "0x233d554d35869db611d9ea55c55c62ced6241c113e9a1e014dfec850b044e371",
                    "receiptTrie": "0x1947f06a8f3ebfc519f82de597d1b9e0cbf9497263ff49523e399ceefa0d5f52",
                    "bloom": "0x00000000000000000000000000000000000000000000000000000000000000000000000000000000000000000000000000000000000000000000000000000000000000000000000000000000000000000000000000000000000000000000000000000000000000000000000000000000000000000000000000000000000000000000000000000000000000000000000000000000000000000000000000000000000000000000000000000000000000000000000000000000000000000000000000000000000000000000000000000000000000000000000000000000000000000000000000000000000000000000000000000000000000000000000000000000",
                    "difficulty": "0x00",
                    "number": "0x01",
                    "gasLimit": "0x02540be400",
                    "gasUsed": "0x024abbb5f1",
                    "timestamp": "0x0c",
                    "extraData": "0x",
                    "mixHash": "0x0000000000000000000000000000000000000000000000000000000000000000",
                    "nonce": "0x0000000000000000",
                    "baseFeePerGas": "0x07",
                    "withdrawalsRoot": "0x56e81f171bcc55a6ff8345e692c0f86e5b48e01b996cadc001622fb5e363b421",
                    "hash": "0x119f2e2d94ed36989c88916ce674fb5680622a8f33c2c568735a908af6fb4778"
                },
                "transactions": [
                    {
                        "type": "0x00",
                        "chainId": "0x01",
                        "nonce": "0x00",
                        "gasPrice": "0x0a",
                        "gasLimit": "0x02540be400",
                        "to": "0x8a0a19589531694250d570040a0c4b74576919b8",
                        "value": "0x00",
                        "data": "0x610087600081600b8239f35f5f5f5f5f5f5f5f5f5f5f5f5f5f5f5f5f5f5f5f5f5f5f5f5f5f5f5f5f5f5f5f5f5f5f5f5f5f5f5f5f5f5f5f5f5f5f5f5f5f5f5f5f5f5f5f5f5f5f5f5f5f5f5f5f5f5f5f5f5f5f5f5f5f5f5f5f5f5f5f5f5f5f5f5f5f5f5f5f5f5f5f5f5f5f5f5f5f5f5f5f5f5f5f5f5f5f5f5f5f5f5f5f5f5f5f5f5f5f5f5f5f5f5f5f5f5f5f5f5f5f5f5f5f5f",
                        "v": "0x26",
                        "r": "0x5282be6c4a7aa0690da4eda0cd924fafe9a6c0407d5f549d449565a3b57bf9de",
                        "s": "0x214df40917283448202ef81e67a943bf7e0ab72e4059ba8a2e31eb6f41cd1beb",
                        "sender": "0xa94f5374fce5edbc8e2a8697c15331677e6ebf0b"
                    }
                ],
                "uncleHeaders": [],
                "withdrawals": [],
                "witness": {
                    "stateDiff": [
                        {
                            "stem": "0x0365b079a274a1808d56484ce5bd97914629907d75767f51439102e22cd50d",
                            "suffixDiffs": [
                                {
                                    "suffix": 0,
                                    "currentValue": "0x000000000000000000000000000000000000000000000000000000e8d4a51000",
                                    "newValue": "0x000000000000000000000000000000010000000000000000000000d1e94ff496"
                                },
                                {
                                    "suffix": 1,
                                    "currentValue": "0xc5d2460186f7233c927e7db2dcc703c0e500b653ca82273b7bfad8045d85a470",
                                    "newValue": null
                                }
                            ]
                        },
                        {
                            "stem": "0x5b5fdfedd6a0e932da408ac7d772a36513d1eee9b9926e52620c43a433aad7",
                            "suffixDiffs": [
                                {
                                    "suffix": 64,
                                    "newValue": "0x365ba1723c591419b6c5f527c35cde3345bed24d9150d6e1a285d27516f7554a",
                                    "currentValue": null
                                }
                            ]
                        },
                        {
                            "stem": "0x914ec5f0e0c27fe094862fbd89a6abe684939af6940434d8bf218cedb2d624",
                            "suffixDiffs": [
                                {
                                    "suffix": 0,
                                    "newValue": "0x00000000000000000000000000000000000000000000000000000006e03321d3",
                                    "currentValue": null
                                },
                                {
                                    "suffix": 1,
                                    "newValue": "0xc5d2460186f7233c927e7db2dcc703c0e500b653ca82273b7bfad8045d85a470",
                                    "currentValue": null
                                }
                            ]
                        },
                        {
                            "stem": "0x9e8d27d70af8fa25cd2cee1c620e85eafeb5e6643707d5b81e747d12b3a526",
                            "suffixDiffs": [
                                {
                                    "suffix": 0,
                                    "currentValue": "0x0000000000000000000000000000000100000000000000000000000000000000",
                                    "newValue": null
                                },
                                {
                                    "suffix": 1,
                                    "currentValue": "0xc5d2460186f7233c927e7db2dcc703c0e500b653ca82273b7bfad8045d85a470",
                                    "newValue": null
                                }
                            ]
                        },
                        {
                            "stem": "0xecb505156708480caf702cd85124f67f3ed78ae4bc890a6dcb62574ba9a90c",
                            "suffixDiffs": [
                                {
                                    "suffix": 0,
                                    "currentValue": "0x0000000000000013000000000000000000000000000000000000000000000000",
                                    "newValue": "0x0000000000000013000000000000000100000000000000000000000000000000"
                                },
                                {
                                    "suffix": 1,
                                    "currentValue": "0x0411a07c1373e66c11311e9dc37cc1ac991296dd378043cb5584042b0c6ef4ba",
                                    "newValue": null
                                },
                                {
                                    "suffix": 128,
                                    "currentValue": "0x006092600060003763deadbeef609260006000f5000000000000000000000000",
                                    "newValue": null
                                }
                            ]
                        }
                    ],
                    "verkleProof": {
                        "otherStems": [],
                        "depthExtensionPresent": "0xa0a080a0a",
                        "commitmentsByPath": [
                            "0x0cb1c44970eb6d96eb16674fd5cf84f2073d2f40eafd098ac2dd5826dfd71bd4",
                            "0x636a2a367a412bc3a2689c22777733db7c599a3f70b25e76dade1bd678cb0c70",
                            "0x61506c1cc4f27c9231a546a4b0d249d5f3ba4ba9e63c5ebb84087665eb396e95",
                            "0x4909fc1889e10819cda41706a26373145c4e4575d68b96569af12db69040b6e1",
                            "0x214d6e1d8aa16fe761e18404817df34ba148eef7557bf7fcdf160d034c2c91b8",
                            "0x3ce3c8da8959f4a640e1a120ef80d80d9c217cf61b9ce7456c832594c9338223",
                            "0x052afe3f43e3a26fd85b5388eeb79cf95338d201cf6b2749a7b20721ebeb3589",
                            "0x269b8c3154185fdbd2192b252c4cab66eac02e125208b526ebb8cb220028c742",
                            "0x4ced760c8eeb796a20e5ecfb5af4991093c16b280002893a82bf85ead92ba15a"
                        ],
                        "d": "0x1f7ac3c77f1ff69e5742563dbe6bf9b54e43724de2c1d385df7383248d1bf2fa",
                        "ipaProof": {
                            "cl": [
                                "0x6a0e3b6c7269480a5d5ae5790774d0964bb9bc89926a8793d00c48dfd5548867",
                                "0x4e34d0032f6fe2c80ba8d6ceb71012123b5cd90a6ee6af736116071ec90db52d",
                                "0x723bb581d54960f134a9955c01bb675f1f64df5bbd2e2288380974019d872796",
                                "0x2540cd17ba38b7d97fe25e448ae422f279233a8cb3c436f11236f59cf72ba59e",
                                "0x10e3117dd33cb8e8c44cdb665e7e036512628769eb969c6286d2e36b4613ecb9",
                                "0x586a5132dc4d57b81ecc1404d62f23ee4c8c5ed09517b217e724e9dfa76ebb4a",
                                "0x0b07db870b31ad8efdf23472b6840880ed5226f4fd6b4270e7af49e0a8bc8d84",
                                "0x1553c218f4f595b7ebfea05ee7510a6c3273f4a6d342b80620b292faf4ffa8e5"
                            ],
                            "cr": [
                                "0x06680715d3b575d97d576641d4f2be83c58841b1174c7afa869c80de2385b92b",
                                "0x08f62fe247e521981acce8ea7e6958287c88f48e4595782556abcb8cc799086d",
                                "0x238ca3ec2f505098837f80e6b82dc6dc32ae5768af0ed09649d5509fd8eee14f",
                                "0x26584b46b2f0ca3e7112de63e59f89a03ba4a92b2fac01a660ac9f13ccf5fa5e",
                                "0x07d2a49d1f03c4f99155e86506db2634661b46199fb22eb4aa696a2f2ef5fd96",
                                "0x2c14ed3889f1da4e8fd93931dfa9cb41f90cca249c8c04aa8538e1fa0cd5aa40",
                                "0x2b5f895fb88e12c03bcb46a5046186e7f44806fb085cdc1c24c003d69dd1e0a4",
                                "0x22a2a03a76544c30e5ae30eaa5b6517c54b8b500dae1c6e91b2735e91f1ac4c0"
                            ],
                            "finalEvaluation": "0x1a085f2cd31684e0e4fae2ab7e97eb3c3de4977e847d6ab494490dc59450f911"
                        }
                    }
                },
                "rlp": "0xf90317f90219a0365ba1723c591419b6c5f527c35cde3345bed24d9150d6e1a285d27516f7554aa01dcc4de8dec75d7aab85b567b6ccd41ad312451b948a7413f0a142fd40d49347942adc25665018aa1fe0e6bc666dac8fc2697ff9baa02433042cb2af9a7164dbeaa6a731212ff7ce8ee54419c9c0d2931b8395b372a2a0233d554d35869db611d9ea55c55c62ced6241c113e9a1e014dfec850b044e371a01947f06a8f3ebfc519f82de597d1b9e0cbf9497263ff49523e399ceefa0d5f52b901000000000000000000000000000000000000000000000000000000000000000000000000000000000000000000000000000000000000000000000000000000000000000000000000000000000000000000000000000000000000000000000000000000000000000000000000000000000000000000000000000000000000000000000000000000000000000000000000000000000000000000000000000000000000000000000000000000000000000000000000000000000000000000000000000000000000000000000000000000000000000000000000000000000000000000000000000000000000000000000000000000000000000000000000000000000080018502540be40085024abbb5f10c80a0000000000000000000000000000000000000000000000000000000000000000088000000000000000007a056e81f171bcc55a6ff8345e692c0f86e5b48e01b996cadc001622fb5e363b421f8f7f8f5800a8502540be400948a0a19589531694250d570040a0c4b74576919b880b892610087600081600b8239f35f5f5f5f5f5f5f5f5f5f5f5f5f5f5f5f5f5f5f5f5f5f5f5f5f5f5f5f5f5f5f5f5f5f5f5f5f5f5f5f5f5f5f5f5f5f5f5f5f5f5f5f5f5f5f5f5f5f5f5f5f5f5f5f5f5f5f5f5f5f5f5f5f5f5f5f5f5f5f5f5f5f5f5f5f5f5f5f5f5f5f5f5f5f5f5f5f5f5f5f5f5f5f5f5f5f5f5f5f5f5f5f5f5f5f5f5f5f5f5f5f5f5f5f5f5f5f5f5f5f5f5f5f5f5f26a05282be6c4a7aa0690da4eda0cd924fafe9a6c0407d5f549d449565a3b57bf9dea0214df40917283448202ef81e67a943bf7e0ab72e4059ba8a2e31eb6f41cd1bebc0c0",
                "blocknumber": "1"
            }
        ],
        "sealEngine": "NoProof",
        "_info": {
            "hash": "0xb12331cda5d42820a0b850b5db3b3e8d87abce6a1c2c210c68f92d8cd2cb32eb",
            "comment": "`execution-spec-tests` generated test",
            "filling-transition-tool": "evm version 1.12.1-unstable-c329550a-20241022",
            "description": "Test function documentation:\n\n    Test tx contract creation and *CREATE with address collision.",
            "url": "https://github.com/ethereum/execution-spec-tests/blob/verkle@v0.0.6/tests/verkle/eip4762_verkle_gas_witness/test_creates.py#L202",
            "reference-spec": "https://github.com/ethereum/EIPs/blob/master/EIPS/eip-4762.md",
            "reference-spec-version": "2f8299df31bb8173618901a03a8366a3183479b0"
        }
    }
}