{
    "tests/osaka/eip7692_eof_v1/eip4750_functions/test_callf_execution.py::test_callf[fork_Osaka-state_test-callf_sub_retf]": {
        "env": {
            "currentCoinbase": "0x2adc25665018aa1fe0e6bc666dac8fc2697ff9ba",
            "currentGasLimit": "0x016345785d8a0000",
            "currentNumber": "0x01",
            "currentTimestamp": "0x03e8",
            "currentRandom": "0x0000000000000000000000000000000000000000000000000000000000000000",
            "currentDifficulty": "0x00",
            "currentBaseFee": "0x07",
            "currentExcessBlobGas": "0x00"
        },
        "pre": {
            "0xa94f5374fce5edbc8e2a8697c15331677e6ebf0b": {
                "nonce": "0x00",
                "balance": "0x3635c9adc5dea00000",
                "code": "0x",
                "storage": {}
            },
            "0x0000000000000000000000000000000000001000": {
                "nonce": "0x01",
                "balance": "0x00",
                "code": "0xef0001010008020002000c00020400000000800002020100026001612016e300016001550003e4",
                "storage": {}
            }
        },
        "transaction": {
            "nonce": "0x00",
            "gasPrice": "0x0a",
            "gasLimit": [
                "0x989680"
            ],
            "to": "0x0000000000000000000000000000000000001000",
            "value": [
                "0x00"
            ],
            "data": [
                "0x"
            ],
            "sender": "0xa94f5374fce5edbc8e2a8697c15331677e6ebf0b",
            "secretKey": "0x45a915e4d060149eb4365960e6a7a45f334393093061116b197e3240065ff2d8"
        },
        "post": {
            "Osaka": [
                {
                    "hash": "0x0afb84b5c137ef56de2b0f1bb87365b30f1d41a94819924a0bf444ba87978428",
                    "logs": "0x1dcc4de8dec75d7aab85b567b6ccd41ad312451b948a7413f0a142fd40d49347",
                    "txbytes": "0xf860800a83989680940000000000000000000000000000000000001000808026a0e5d462429669f661291a8dc4c49a092cfd4922b6f3f31c9189a2f4adf5ecd730a001494afaf472fbb80bcb107ffeb918a2b9115f454027840615d6d20d63c69ac0",
                    "indexes": {
                        "data": 0,
                        "gas": 0,
                        "value": 0
                    }
                }
            ]
        },
        "_info": {
            "hash": "0x1a7bdd0f3fc5ffd31169de70cb661bfd0d98fae47172cd7a0e35636f2ec8eaf6",
            "comment": "`execution-spec-tests` generated test",
            "filling-transition-tool": "evmone-t8n 0.13.0+commit.2f79e0dc",
            "description": "Test function documentation:\nTest basic usage of CALLF and RETF instructions",
            "url": "https://github.com/ethereum/execution-spec-tests/blob/eip7692@v2.1.0/tests/osaka/eip7692_eof_v1/eip4750_functions/test_callf_execution.py#L114",
            "reference-spec": "https://github.com/ethereum/EIPs/blob/master/EIPS/eip-4750.md",
            "reference-spec-version": "14400434e1199c57d912082127b1d22643788d11"
        }
    },
    "tests/osaka/eip7692_eof_v1/eip4750_functions/test_callf_execution.py::test_callf[fork_Osaka-state_test-max_code_sections_retf2]": {
        "env": {
            "currentCoinbase": "0x2adc25665018aa1fe0e6bc666dac8fc2697ff9ba",
            "currentGasLimit": "0x016345785d8a0000",
            "currentNumber": "0x01",
            "currentTimestamp": "0x03e8",
            "currentRandom": "0x0000000000000000000000000000000000000000000000000000000000000000",
            "currentDifficulty": "0x00",
            "currentBaseFee": "0x07",
            "currentExcessBlobGas": "0x00"
        },
        "pre": {
            "0xa94f5374fce5edbc8e2a8697c15331677e6ebf0b": {
                "nonce": "0x00",
                "balance": "0x3635c9adc5dea00000",
                "code": "0x",
                "storage": {}
            },
            "0x0000000000000000000000000000000000001000": {
                "nonce": "0x01",
                "balance": "0x00",
                "code": "0xef000101100002040000050004000400040004000400040004000400040004000400040004000400040004000400040004000400040004000400040004000400040004000400040004000400040004000400040004000400040004000400040004000400040004000400040004000400040004000400040004000400040004000400040004000400040004000400040004000400040004000400040004000400040004000400040004000400040004000400040004000400040004000400040004000400040004000400040004000400040004000400040004000400040004000400040004000400040004000400040004000400040004000400040004000400040004000400040004000400040004000400040004000400040004000400040004000400040004000400040004000400040004000400040004000400040004000400040004000400040004000400040004000400040004000400040004000400040004000400040004000400040004000400040004000400040004000400040004000400040004000400040004000400040004000400040004000400040004000400040004000400040004000400040004000400040004000400040004000400040004000400040004000400040004000400040004000400040004000400040004000400040004000400040004000400040004000400040004000400040004000400040004000400040004000400040004000400040004000400040004000400040004000400040004000400040004000400040004000400040004000400040004000400040004000400040004000400040004000400040004000400040004000400040004000400040004000400040004000400040004000400040004000400040004000400040004000400040004000400040004000400040004000400040004000400040004000400040004000400040004000400040004000400040004000400040004000400040004000400040004000400040004000400040004000400040004000400040004000400040004000400040004000400040004000400040004000400040004000400040004000400040004000400040004000400040004000400040004000400040004000400040004000400040004000400040004000400040004000400040004000400040004000400040004000400040004000400040004000400040004000400040004000400040004000400040004000400040004000400040004000400040004000400040004000400040004000400040004000400040004000400040004000400040004000400040004000400040004000400040004000400040004000400040004000400040004000400040004000400040004000400040004000400040004000400040004000400040004000400040004000400040004000400040004000400040004000400040004000400040004000400040004000400040004000400040004000400040004000400040004000400040004000400040004000400040004000400040004000400040004000400040004000400040004000400040004000400040004000400040004000400040004000400040004000400040004000400040004000400040004000400040004000400040004000400040004000400040004000400040004000400040004000400040004000400040004000400040004000400040004000400040004000400040004000400040004000400040004000400040004000400040004000400040004000400040004000400040004000400040004000400040004000400040004000400040004000400040004000400040004000400040004000400040004000400040004000400040004000400040004000400040004000400040004000400040004000400040004000400040004000400040004000400040004000400040004000400040004000400040004000400040004000400040004000400040004000400040004000400040004000400040004000400040004000400040004000400040004000400040004000400040004000400040004000400040004000400040004000400040004000400040004000400040004000400040004000400040004000400040004000400040004000400040004000400040004000400040004000400040004000400040004000400040004000400040004000400040004000400040004000400040004000400040004000400040004000400040004000400040004000400040004000400040004000400040004000400040004000400040004000400040004000400040004000400040004000400040004000400040004000400040004000400040004000400040004000400040004000400040004000400040004000400040004000400040004000400040004000400040004000400040004000400040004000400040004000400040004000400040004000400040004000400040004000400040004000400040004000400040004000400040004000400040004000400040004000400040004000400040004000400040004000400040004000400040004000400040004000400040004000400040004000400040004000400040004000400040004000400040004000400040004000400040004000400040004000400040004000400040004000400040004000400040004000400040004000400040004000400040004000400040004000400040004000400040004000400040004000400040004000400040004000400040004000400040004000400040004000400040004000400040004000400040004000400040004000400040004000400040004000400040004000400040004000400060400000000800002000200020002000200020002000200020002000200020002000200020002000200020002000200020002000200020002000200020002000200020002000200020002000200020002000200020002000200020002000200020002000200020002000200020002000200020002000200020002000200020002000200020002000200020002000200020002000200020002000200020002000200020002000200020002000200020002000200020002000200020002000200020002000200020002000200020002000200020002000200020002000200020002000200020002000200020002000200020002000200020002000200020002000200020002000200020002000200020002000200020002000200020002000200020002000200020002000200020002000200020002000200020002000200020002000200020002000200020002000200020002000200020002000200020002000200020002000200020002000200020002000200020002000200020002000200020002000200020002000200020002000200020002000200020002000200020002000200020002000200020002000200020002000200020002000200020002000200020002000200020002000200020002000200020002000200020002000200020002000200020002000200020002000200020002000200020002000200020002000200020002000200020002000200020002000200020002000200020002000200020002000200020002000200020002000200020002000200020002000200020002000200020002000200020002000200020002000200020002000200020002000200020002000200020002000200020002000200020002000200020002000200020002000200020002000200020002000200020002000200020002000200020002000200020002000200020002000200020002000200020002000200020002000200020002000200020002000200020002000200020002000200020002000200020002000200020002000200020002000200020002000200020002000200020002000200020002000200020002000200020002000200020002000200020002000200020002000200020002000200020002000200020002000200020002000200020002000200020002000200020002000200020002000200020002000200020002000200020002000200020002000200020002000200020002000200020002000200020002000200020002000200020002000200020002000200020002000200020002000200020002000200020002000200020002000200020002000200020002000200020002000200020002000200020002000200020002000200020002000200020002000200020002000200020002000200020002000200020002000200020002000200020002000200020002000200020002000200020002000200020002000200020002000200020002000200020002000200020002000200020002000200020002000200020002000200020002000200020002000200020002000200020002000200020002000200020002000200020002000200020002000200020002000200020002000200020002000200020002000200020002000200020002000200020002000200020002000200020002000200020002000200020002000200020002000200020002000200020002000200020002000200020002000200020002000200020002000200020002000200020002000200020002000200020002000200020002000200020002000200020002000200020002000200020002000200020002000200020002000200020002000200020002000200020002000200020002000200020002000200020002000200020002000200020002000200020002000200020002000200020002000200020002000200020002000200020002000200020002000200020002000200020002000200020002000200020002000200020002000200020002000200020002000200020002000200020002000200020002000200020002000200020002000200020002000200020002000200020002000200020002000200020002000200020002000200020002000200020002000200020002000200020002000200020002000200020002000200020002000200020002000200020002000200020002000200020002000200020002000200020002000200020002000200020002000200020002000200020002000200020002000200020002000200020002000200020002000200020002000200020002000200020002000200020002000200020002000200020002000200020002000200020002000200020002000200020002000200020002000200020002000200020002000200020002000200020002000200020002000200020002000200020002000200020002000200020002000200020002000200020002000200020002000200020002000200020002000200020002000200020002000200020002000200020002000200020002000200020002000200020002000200020002000200020002000200020002000200020002000200020002000200020002000200020002000200020002000200020002000200020002000200020002000200020002000200020002000200020002000200020002000200020002000200020002000200020002000200020002000200020002000200020002000200020002000200020002000200020002000200020002000200020002000200020002000200020002000200020002000200020002000200020002000200020002000200020002000200020002000200020002000200020002000200020002000200020002000200020002000200020002000200020002000200020002000200020002000200020002000200020002000200020002000200020002000200020002000200020002000200020002000200020002000200020002000200020002000200020002000200020002000200020002000200020002000200020002000200020002000200020002000200020002000200020002000200020002000200020002000200020002000200020002000200020002000200020002000200020002000200020002000200020002000200020002000200020002000200020002000200020002000200020002000200020002000200020002000200020002000200020002000200020002000200020002000200020002000200020002000200020002000200020002000200020002000200020002000200020002000200020002000200020002000200020002000200020002000200020002000200020002000200020002000200020002000200020002000200020002000200020002000200020002000200020002000200020002000200020002000200020002000200020002000200020002000200020002000200020002000200020002000200020002000200020002000200020002000200020002000200020002000200020002000200020002000200020002000200020002000200020002000200020002000200020002000200020002000200020002000200020002000200020002000200020002000200020002000200020002000200020002000200020002000200020002000200020002000200020002000200020002000200020002000200020002000200020002000200020002000200020002000200020002000200020002000200020002000200020002000200020002000200020002000200020002000200020002000200020002000200020002000200020002000200020002000200020002000200020002000200020002000200020002000200020002000200020002000200020002000200020002000200020002000200020002000200020002000200020002000200020002000200020002000200020002000200020002000200020002000200020002000200020002000200020002000200020002000200020002000200020002000200020002000200020002000200020002000200020002000200020002000200020002000200020002000200020002000200020002000200020002000200020002000200020002000200020002000200020002000200020002000200020002000200020002000200020002000200020002000200020002000200020002000200020002000200020002000200020002000200020002000200020002000200020002000200020002000200020002000200020002000200020002000200020002000200020002000200020002000200020002000200020002000200020002000200020002000200020002000200020002000200020002000200020002000200020002000200020002000200020002000200020002000200020002000200020002000200020002000200020002000200020002000200020002000200020002000200020002000200020002000200020002000200020002000200020002000200020002000200020002000200020002000200020002000200020002000200020002000200020002000200020002000200020002000200020002000200020002000200020002000200020002000200020002000200020002000200020002000200020002000200020002000200020002000200020002000200020002000200020002000200020002000200020002000200020002000200020002000200020002000200020002000200020002000200020002000200020002000200020002000200020002000200020002000200020002000200020002000200020002000200020002000200020002000200020002000200020002000200020002000200020002000200020002000200020002000200020002000200020002000200020002000200020002000200020002000200020002000200020002000200020002000200020002000200020002000200020002000200020002000200020002000200020002000200020002000200020002000200020002000200020002000200020002000200020002000200020002000200020002000200020002000200020002000200020002000200020002000200020002000200020002000200020002000200020002000200020002000200020002000200020002000200020002000200020002000200020002000200020002000200020002000200020002000200020002000200020002000200020002000200020002000200020002000200020002000200020002000200020002000200020002000200020002000200020002000200020002000200020002000200020002000200020002000200020002000200020002000200020002000200020002000200020002000200020002000200020002000200020002000200020002000200020002000200020002000200020002000200020002000200020002000200020002000200020002000200020002000200020002000200020002000200020002000200020002000200020002000200020002000200020002000200020002000200020002000200020002000200020002000200020002000200020002000200020002000200020002000200020002000200020002000200020002000200020002000200020002000200020002000200020002000200020002000200020002000200020002000200020002000200020002000200020002e300015500e30002e4e30003e4e30004e4e30005e4e30006e4e30007e4e30008e4e30009e4e3000ae4e3000be4e3000ce4e3000de4e3000ee4e3000fe4e30010e4e30011e4e30012e4e30013e4e30014e4e30015e4e30016e4e30017e4e30018e4e30019e4e3001ae4e3001be4e3001ce4e3001de4e3001ee4e3001fe4e30020e4e30021e4e30022e4e30023e4e30024e4e30025e4e30026e4e30027e4e30028e4e30029e4e3002ae4e3002be4e3002ce4e3002de4e3002ee4e3002fe4e30030e4e30031e4e30032e4e30033e4e30034e4e30035e4e30036e4e30037e4e30038e4e30039e4e3003ae4e3003be4e3003ce4e3003de4e3003ee4e3003fe4e30040e4e30041e4e30042e4e30043e4e30044e4e30045e4e30046e4e30047e4e30048e4e30049e4e3004ae4e3004be4e3004ce4e3004de4e3004ee4e3004fe4e30050e4e30051e4e30052e4e30053e4e30054e4e30055e4e30056e4e30057e4e30058e4e30059e4e3005ae4e3005be4e3005ce4e3005de4e3005ee4e3005fe4e30060e4e30061e4e30062e4e30063e4e30064e4e30065e4e30066e4e30067e4e30068e4e30069e4e3006ae4e3006be4e3006ce4e3006de4e3006ee4e3006fe4e30070e4e30071e4e30072e4e30073e4e30074e4e30075e4e30076e4e30077e4e30078e4e30079e4e3007ae4e3007be4e3007ce4e3007de4e3007ee4e3007fe4e30080e4e30081e4e30082e4e30083e4e30084e4e30085e4e30086e4e30087e4e30088e4e30089e4e3008ae4e3008be4e3008ce4e3008de4e3008ee4e3008fe4e30090e4e30091e4e30092e4e30093e4e30094e4e30095e4e30096e4e30097e4e30098e4e30099e4e3009ae4e3009be4e3009ce4e3009de4e3009ee4e3009fe4e300a0e4e300a1e4e300a2e4e300a3e4e300a4e4e300a5e4e300a6e4e300a7e4e300a8e4e300a9e4e300aae4e300abe4e300ace4e300ade4e300aee4e300afe4e300b0e4e300b1e4e300b2e4e300b3e4e300b4e4e300b5e4e300b6e4e300b7e4e300b8e4e300b9e4e300bae4e300bbe4e300bce4e300bde4e300bee4e300bfe4e300c0e4e300c1e4e300c2e4e300c3e4e300c4e4e300c5e4e300c6e4e300c7e4e300c8e4e300c9e4e300cae4e300cbe4e300cce4e300cde4e300cee4e300cfe4e300d0e4e300d1e4e300d2e4e300d3e4e300d4e4e300d5e4e300d6e4e300d7e4e300d8e4e300d9e4e300dae4e300dbe4e300dce4e300dde4e300dee4e300dfe4e300e0e4e300e1e4e300e2e4e300e3e4e300e4e4e300e5e4e300e6e4e300e7e4e300e8e4e300e9e4e300eae4e300ebe4e300ece4e300ede4e300eee4e300efe4e300f0e4e300f1e4e300f2e4e300f3e4e300f4e4e300f5e4e300f6e4e300f7e4e300f8e4e300f9e4e300fae4e300fbe4e300fce4e300fde4e300fee4e300ffe4e30100e4e30101e4e30102e4e30103e4e30104e4e30105e4e30106e4e30107e4e30108e4e30109e4e3010ae4e3010be4e3010ce4e3010de4e3010ee4e3010fe4e30110e4e30111e4e30112e4e30113e4e30114e4e30115e4e30116e4e30117e4e30118e4e30119e4e3011ae4e3011be4e3011ce4e3011de4e3011ee4e3011fe4e30120e4e30121e4e30122e4e30123e4e30124e4e30125e4e30126e4e30127e4e30128e4e30129e4e3012ae4e3012be4e3012ce4e3012de4e3012ee4e3012fe4e30130e4e30131e4e30132e4e30133e4e30134e4e30135e4e30136e4e30137e4e30138e4e30139e4e3013ae4e3013be4e3013ce4e3013de4e3013ee4e3013fe4e30140e4e30141e4e30142e4e30143e4e30144e4e30145e4e30146e4e30147e4e30148e4e30149e4e3014ae4e3014be4e3014ce4e3014de4e3014ee4e3014fe4e30150e4e30151e4e30152e4e30153e4e30154e4e30155e4e30156e4e30157e4e30158e4e30159e4e3015ae4e3015be4e3015ce4e3015de4e3015ee4e3015fe4e30160e4e30161e4e30162e4e30163e4e30164e4e30165e4e30166e4e30167e4e30168e4e30169e4e3016ae4e3016be4e3016ce4e3016de4e3016ee4e3016fe4e30170e4e30171e4e30172e4e30173e4e30174e4e30175e4e30176e4e30177e4e30178e4e30179e4e3017ae4e3017be4e3017ce4e3017de4e3017ee4e3017fe4e30180e4e30181e4e30182e4e30183e4e30184e4e30185e4e30186e4e30187e4e30188e4e30189e4e3018ae4e3018be4e3018ce4e3018de4e3018ee4e3018fe4e30190e4e30191e4e30192e4e30193e4e30194e4e30195e4e30196e4e30197e4e30198e4e30199e4e3019ae4e3019be4e3019ce4e3019de4e3019ee4e3019fe4e301a0e4e301a1e4e301a2e4e301a3e4e301a4e4e301a5e4e301a6e4e301a7e4e301a8e4e301a9e4e301aae4e301abe4e301ace4e301ade4e301aee4e301afe4e301b0e4e301b1e4e301b2e4e301b3e4e301b4e4e301b5e4e301b6e4e301b7e4e301b8e4e301b9e4e301bae4e301bbe4e301bce4e301bde4e301bee4e301bfe4e301c0e4e301c1e4e301c2e4e301c3e4e301c4e4e301c5e4e301c6e4e301c7e4e301c8e4e301c9e4e301cae4e301cbe4e301cce4e301cde4e301cee4e301cfe4e301d0e4e301d1e4e301d2e4e301d3e4e301d4e4e301d5e4e301d6e4e301d7e4e301d8e4e301d9e4e301dae4e301dbe4e301dce4e301dde4e301dee4e301dfe4e301e0e4e301e1e4e301e2e4e301e3e4e301e4e4e301e5e4e301e6e4e301e7e4e301e8e4e301e9e4e301eae4e301ebe4e301ece4e301ede4e301eee4e301efe4e301f0e4e301f1e4e301f2e4e301f3e4e301f4e4e301f5e4e301f6e4e301f7e4e301f8e4e301f9e4e301fae4e301fbe4e301fce4e301fde4e301fee4e301ffe4e30200e4e30201e4e30202e4e30203e4e30204e4e30205e4e30206e4e30207e4e30208e4e30209e4e3020ae4e3020be4e3020ce4e3020de4e3020ee4e3020fe4e30210e4e30211e4e30212e4e30213e4e30214e4e30215e4e30216e4e30217e4e30218e4e30219e4e3021ae4e3021be4e3021ce4e3021de4e3021ee4e3021fe4e30220e4e30221e4e30222e4e30223e4e30224e4e30225e4e30226e4e30227e4e30228e4e30229e4e3022ae4e3022be4e3022ce4e3022de4e3022ee4e3022fe4e30230e4e30231e4e30232e4e30233e4e30234e4e30235e4e30236e4e30237e4e30238e4e30239e4e3023ae4e3023be4e3023ce4e3023de4e3023ee4e3023fe4e30240e4e30241e4e30242e4e30243e4e30244e4e30245e4e30246e4e30247e4e30248e4e30249e4e3024ae4e3024be4e3024ce4e3024de4e3024ee4e3024fe4e30250e4e30251e4e30252e4e30253e4e30254e4e30255e4e30256e4e30257e4e30258e4e30259e4e3025ae4e3025be4e3025ce4e3025de4e3025ee4e3025fe4e30260e4e30261e4e30262e4e30263e4e30264e4e30265e4e30266e4e30267e4e30268e4e30269e4e3026ae4e3026be4e3026ce4e3026de4e3026ee4e3026fe4e30270e4e30271e4e30272e4e30273e4e30274e4e30275e4e30276e4e30277e4e30278e4e30279e4e3027ae4e3027be4e3027ce4e3027de4e3027ee4e3027fe4e30280e4e30281e4e30282e4e30283e4e30284e4e30285e4e30286e4e30287e4e30288e4e30289e4e3028ae4e3028be4e3028ce4e3028de4e3028ee4e3028fe4e30290e4e30291e4e30292e4e30293e4e30294e4e30295e4e30296e4e30297e4e30298e4e30299e4e3029ae4e3029be4e3029ce4e3029de4e3029ee4e3029fe4e302a0e4e302a1e4e302a2e4e302a3e4e302a4e4e302a5e4e302a6e4e302a7e4e302a8e4e302a9e4e302aae4e302abe4e302ace4e302ade4e302aee4e302afe4e302b0e4e302b1e4e302b2e4e302b3e4e302b4e4e302b5e4e302b6e4e302b7e4e302b8e4e302b9e4e302bae4e302bbe4e302bce4e302bde4e302bee4e302bfe4e302c0e4e302c1e4e302c2e4e302c3e4e302c4e4e302c5e4e302c6e4e302c7e4e302c8e4e302c9e4e302cae4e302cbe4e302cce4e302cde4e302cee4e302cfe4e302d0e4e302d1e4e302d2e4e302d3e4e302d4e4e302d5e4e302d6e4e302d7e4e302d8e4e302d9e4e302dae4e302dbe4e302dce4e302dde4e302dee4e302dfe4e302e0e4e302e1e4e302e2e4e302e3e4e302e4e4e302e5e4e302e6e4e302e7e4e302e8e4e302e9e4e302eae4e302ebe4e302ece4e302ede4e302eee4e302efe4e302f0e4e302f1e4e302f2e4e302f3e4e302f4e4e302f5e4e302f6e4e302f7e4e302f8e4e302f9e4e302fae4e302fbe4e302fce4e302fde4e302fee4e302ffe4e30300e4e30301e4e30302e4e30303e4e30304e4e30305e4e30306e4e30307e4e30308e4e30309e4e3030ae4e3030be4e3030ce4e3030de4e3030ee4e3030fe4e30310e4e30311e4e30312e4e30313e4e30314e4e30315e4e30316e4e30317e4e30318e4e30319e4e3031ae4e3031be4e3031ce4e3031de4e3031ee4e3031fe4e30320e4e30321e4e30322e4e30323e4e30324e4e30325e4e30326e4e30327e4e30328e4e30329e4e3032ae4e3032be4e3032ce4e3032de4e3032ee4e3032fe4e30330e4e30331e4e30332e4e30333e4e30334e4e30335e4e30336e4e30337e4e30338e4e30339e4e3033ae4e3033be4e3033ce4e3033de4e3033ee4e3033fe4e30340e4e30341e4e30342e4e30343e4e30344e4e30345e4e30346e4e30347e4e30348e4e30349e4e3034ae4e3034be4e3034ce4e3034de4e3034ee4e3034fe4e30350e4e30351e4e30352e4e30353e4e30354e4e30355e4e30356e4e30357e4e30358e4e30359e4e3035ae4e3035be4e3035ce4e3035de4e3035ee4e3035fe4e30360e4e30361e4e30362e4e30363e4e30364e4e30365e4e30366e4e30367e4e30368e4e30369e4e3036ae4e3036be4e3036ce4e3036de4e3036ee4e3036fe4e30370e4e30371e4e30372e4e30373e4e30374e4e30375e4e30376e4e30377e4e30378e4e30379e4e3037ae4e3037be4e3037ce4e3037de4e3037ee4e3037fe4e30380e4e30381e4e30382e4e30383e4e30384e4e30385e4e30386e4e30387e4e30388e4e30389e4e3038ae4e3038be4e3038ce4e3038de4e3038ee4e3038fe4e30390e4e30391e4e30392e4e30393e4e30394e4e30395e4e30396e4e30397e4e30398e4e30399e4e3039ae4e3039be4e3039ce4e3039de4e3039ee4e3039fe4e303a0e4e303a1e4e303a2e4e303a3e4e303a4e4e303a5e4e303a6e4e303a7e4e303a8e4e303a9e4e303aae4e303abe4e303ace4e303ade4e303aee4e303afe4e303b0e4e303b1e4e303b2e4e303b3e4e303b4e4e303b5e4e303b6e4e303b7e4e303b8e4e303b9e4e303bae4e303bbe4e303bce4e303bde4e303bee4e303bfe4e303c0e4e303c1e4e303c2e4e303c3e4e303c4e4e303c5e4e303c6e4e303c7e4e303c8e4e303c9e4e303cae4e303cbe4e303cce4e303cde4e303cee4e303cfe4e303d0e4e303d1e4e303d2e4e303d3e4e303d4e4e303d5e4e303d6e4e303d7e4e303d8e4e303d9e4e303dae4e303dbe4e303dce4e303dde4e303dee4e303dfe4e303e0e4e303e1e4e303e2e4e303e3e4e303e4e4e303e5e4e303e6e4e303e7e4e303e8e4e303e9e4e303eae4e303ebe4e303ece4e303ede4e303eee4e303efe4e303f0e4e303f1e4e303f2e4e303f3e4e303f4e4e303f5e4e303f6e4e303f7e4e303f8e4e303f9e4e303fae4e303fbe4e303fce4e303fde4e303fee4e303ffe46120156001e4",
                "storage": {}
            }
        },
        "transaction": {
            "nonce": "0x00",
            "gasPrice": "0x0a",
            "gasLimit": [
                "0x989680"
            ],
            "to": "0x0000000000000000000000000000000000001000",
            "value": [
                "0x00"
            ],
            "data": [
                "0x"
            ],
            "sender": "0xa94f5374fce5edbc8e2a8697c15331677e6ebf0b",
            "secretKey": "0x45a915e4d060149eb4365960e6a7a45f334393093061116b197e3240065ff2d8"
        },
        "post": {
            "Osaka": [
                {
                    "hash": "0x9e276ce9df5332f2a99b2fb92f2997fd2b26d083e353656230f08b1fa68ca5af",
                    "logs": "0x1dcc4de8dec75d7aab85b567b6ccd41ad312451b948a7413f0a142fd40d49347",
                    "txbytes": "0xf860800a83989680940000000000000000000000000000000000001000808026a0e5d462429669f661291a8dc4c49a092cfd4922b6f3f31c9189a2f4adf5ecd730a001494afaf472fbb80bcb107ffeb918a2b9115f454027840615d6d20d63c69ac0",
                    "indexes": {
                        "data": 0,
                        "gas": 0,
                        "value": 0
                    }
                }
            ]
        },
        "_info": {
            "hash": "0x8a28dbf71a84d6463354ededa545179c0fdb8d14188712a83eddd1f0e41dfd63",
            "comment": "`execution-spec-tests` generated test",
            "filling-transition-tool": "evmone-t8n 0.13.0+commit.2f79e0dc",
            "description": "Test function documentation:\nTest basic usage of CALLF and RETF instructions",
            "url": "https://github.com/ethereum/execution-spec-tests/blob/eip7692@v2.1.0/tests/osaka/eip7692_eof_v1/eip4750_functions/test_callf_execution.py#L114",
            "reference-spec": "https://github.com/ethereum/EIPs/blob/master/EIPS/eip-4750.md",
            "reference-spec-version": "14400434e1199c57d912082127b1d22643788d11"
        }
    }
}