{
    "tests/prague/eip2537_bls_12_381_precompiles/test_bls12_variable_length_input_contracts.py::test_invalid_gas_g1msm[fork_PragueEIP7692-state_test-precompile_address_13---zero_gas_passed]": {
        "env": {
            "currentCoinbase": "0x2adc25665018aa1fe0e6bc666dac8fc2697ff9ba",
            "currentGasLimit": "0x016345785d8a0000",
            "currentNumber": "0x01",
            "currentTimestamp": "0x03e8",
            "currentRandom": "0x0000000000000000000000000000000000000000000000000000000000000000",
            "currentDifficulty": "0x00",
            "currentBaseFee": "0x07",
            "currentExcessBlobGas": "0x00"
        },
        "pre": {
            "0x0000000000000000000000000000000000001000": {
                "nonce": "0x01",
                "balance": "0x00",
                "code": "0x6000600060a060006000600d6000f1600055",
                "storage": {}
            },
            "0xa94f5374fce5edbc8e2a8697c15331677e6ebf0b": {
                "nonce": "0x00",
                "balance": "0x038d7ea4c68000",
                "code": "0x",
                "storage": {}
            }
        },
        "transaction": {
            "nonce": "0x00",
            "gasPrice": "0x0a",
            "gasLimit": [
                "0x05f5e100"
            ],
            "to": "0x0000000000000000000000000000000000001000",
            "value": [
                "0x00"
            ],
            "data": [
                "0x"
            ],
            "sender": "0xa94f5374fce5edbc8e2a8697c15331677e6ebf0b",
            "secretKey": "0x45a915e4d060149eb4365960e6a7a45f334393093061116b197e3240065ff2d8"
        },
        "post": {
            "Prague": [
                {
                    "hash": "0x62272beeb2444a6f86d41c05648c80b2948501218bab7990f44e1d31c6065d95",
                    "logs": "0x1dcc4de8dec75d7aab85b567b6ccd41ad312451b948a7413f0a142fd40d49347",
                    "txbytes": "0xf861800a8405f5e100940000000000000000000000000000000000001000808026a00c80636d627692750a38994c80e17de29770a0e34498f5e6eccd4f233ec21b5fa04c33c43ced36fe3329a16f21f2704902ac998ae26f175265e7b14a6229b1feb1",
                    "indexes": {
                        "data": 0,
                        "gas": 0,
                        "value": 0
                    }
                }
            ]
        },
        "_info": {
            "hash": "0xb8d451b29a7a97da0ac74eb323f06a560e01ab448c13bceaf6080a331031698b",
            "comment": "`execution-spec-tests` generated test",
            "filling-transition-tool": "Hyperledger Besu evm 24.9-develop-0d63955",
            "description": "Test function documentation:\n\n    Test the BLS12_G1MSM discount gas table in full, by expecting the call to fail for\n    all possible input lengths because the appropriate amount of gas is not provided.\n\n    If any of the calls succeeds, the test will fail.",
            "url": "https://github.com/ethereum/execution-spec-tests/blob/eip7692@v1.1.1/tests/prague/eip2537_bls_12_381_precompiles/test_bls12_variable_length_input_contracts.py#L141",
            "reference-spec": "https://github.com/ethereum/EIPs/blob/master/EIPS/eip-2537.md",
            "reference-spec-version": "cd0f016ad0c4c68b8b1f5c502ef61ab9353b6e5e"
        }
    },
    "tests/prague/eip2537_bls_12_381_precompiles/test_bls12_variable_length_input_contracts.py::test_invalid_gas_g1msm[fork_PragueEIP7692-state_test-precompile_address_13---insufficient_gas_full_discount_table]": {
        "env": {
            "currentCoinbase": "0x2adc25665018aa1fe0e6bc666dac8fc2697ff9ba",
            "currentGasLimit": "0x016345785d8a0000",
            "currentNumber": "0x01",
            "currentTimestamp": "0x03e8",
            "currentRandom": "0x0000000000000000000000000000000000000000000000000000000000000000",
            "currentDifficulty": "0x00",
            "currentBaseFee": "0x07",
            "currentExcessBlobGas": "0x00"
        },
        "pre": {
            "0x0000000000000000000000000000000000001000": {
                "nonce": "0x01",
                "balance": "0x00",
                "code": "0x6000600060a060006000600d61383ff16000556000600061014060006000600d61533ff1600155600060006101e060006000600d616b6ff16002556000600061028060006000600d61782ff16003556000600061032060006000600d618b37f1600455600060006103c060006000600d6199d7f16005556000600061046060006000600d61a40ff16006556000600061050060006000600d61a9dff1600755600060006105a060006000600d61b8c7f16008556000600061064060006000600d61c647f1600955600060006106e060006000600d61d25ff1600a556000600061078060006000600d61dd9ff1600b556000600061082060006000600d61e6f3f1600c55600060006108c060006000600d61eedff1600d556000600061096060006000600d61f563f1600e5560006000610a0060006000600d61fa7ff1600f5560006000610aa060006000600d620106f7f160105560006000610b4060006000600d6201130ff160115560006000610be060006000600d62011ec7f160125560006000610c8060006000600d62012a1ff160135560006000610d2060006000600d62013517f160145560006000610dc060006000600d62013faff160155560006000610e6060006000600d620149e7f160165560006000610f0060006000600d620153bff160175560006000610fa060006000600d62015d37f16018556000600061104060006000600d6201664ff1601955600060006110e060006000600d62016dc3f1601a556000600061118060006000600d6201760ff1601b556000600061122060006000600d62017dfbf1601c55600060006112c060006000600d62018587f1601d556000600061136060006000600d62018cb3f1601e556000600061140060006000600d6201937ff1601f55600060006114a060006000600d62019e8ff16020556000600061154060006000600d6201a7eff1602155600060006115e060006000600d6201b2c3f16022556000600061168060006000600d6201bbcff16023556000600061172060006000600d6201c667f1602455600060006117c060006000600d6201cf1ff16025556000600061186060006000600d6201d97bf16026556000600061190060006000600d6201e1dff1602755600060006119a060006000600d6201ebfff160285560006000611a4060006000600d6201f40ff160295560006000611ae060006000600d6201fdf3f1602a5560006000611b8060006000600d620205aff1602b5560006000611c2060006000600d62020f57f1602c5560006000611cc060006000600d620216bff1602d5560006000611d6060006000600d6202202bf1602e5560006000611e0060006000600d6202273ff1602f5560006000611ea060006000600d6202306ff160305560006000611f4060006000600d6202372ff160315560006000611fe060006000600d62024023f16032556000600061208060006000600d6202468ff16033556000600061212060006000600d62024f47f1603455600060006121c060006000600d6202555ff16035556000600061226060006000600d62025ddbf16036556000600061230060006000600d6202639ff1603755600060006123a060006000600d62026bdff16038556000600061244060006000600d62027407f1603955600060006124e060006000600d62027953f1603a556000600061258060006000600d6202813ff1603b556000600061262060006000600d62028637f1603c55600060006126c060006000600d62028de7f1603d556000600061276060006000600d6202928bf1603e556000600061280060006000600d620299fff1603f55600060006128a060006000600d6202a15bf16040556000600061294060006000600d6202a89ff1604155600060006129e060006000600d6202afcbf160425560006000612a8060006000600d6202ba0ff160435560006000612b2060006000600d6202c117f160445560006000612bc060006000600d6202c807f160455560006000612c6060006000600d6202cedff160465560006000612d0060006000600d6202d8fff160475560006000612da060006000600d6202dfb3f160485560006000612e4060006000600d6202e64ff160495560006000612ee060006000600d6202ecd3f1604a5560006000612f8060006000600d6202f6cff1604b556000600061302060006000600d6202fd2ff1604c55600060006130c060006000600d62030377f1604d556000600061316060006000600d62030d5bf1604e556000600061320060006000600d6203137ff1604f55600060006132a060006000600d6203198bf16050556000600061334060006000600d62031f7ff1605155600060006133e060006000600d6203293ff16052556000600061348060006000600d62032f0ff16053556000600061352060006000600d620334c7f1605455600060006135c060006000600d62033a67f16055556000600061366060006000600d62034403f16056556000600061370060006000600d6203497ff1605755600060006137a060006000600d62034ee3f16058556000600061384060006000600d6203542ff1605955600060006138e060006000600d62035da7f1605a556000600061398060006000600d620362cff1605b5560006000613a2060006000600d620367dff1605c5560006000613ac060006000600d62036cd7f1605d5560006000613b6060006000600d6203762bf1605e5560006000613c0060006000600d62037afff1605f5560006000613ca060006000600d62037fbbf160605560006000613d4060006000600d6203845ff160615560006000613de060006000600d62038d8ff160625560006000613e8060006000600d6203920ff160635560006000613f2060006000600d62039677f160645560006000613fc060006000600d62039ac7f16065556000600061406060006000600d6203a3d3f16066556000600061410060006000600d6203a7fff1606755600060006141a060006000600d6203ac13f16068556000600061424060006000600d6203b507f1606955600060006142e060006000600d6203b8f7f1606a556000600061438060006000600d6203bccff1606b556000600061442060006000600d6203c08ff1606c55600060006144c060006000600d6203c95ff1606d556000600061456060006000600d6203ccfbf1606e556000600061460060006000600d6203d07ff1606f55600060006146a060006000600d6203d3ebf16070556000600061474060006000600d6203dc97f1607155600060006147e060006000600d6203dfdff16072556000600061488060006000600d6203e30ff16073556000600061492060006000600d6203e627f1607455600060006149c060006000600d6203eeaff160755560006000614a6060006000600d6203f1a3f160765560006000614b0060006000600d6203f47ff160775560006000614ba060006000600d6203f743f160785560006000614c4060006000600d6203ffa7f160795560006000614ce060006000600d62040247f1607a5560006000614d8060006000600d620404cff1607b5560006000614e2060006000600d6204073ff1607c5560006000614ec060006000600d62040f7ff1607d5560006000614f6060006000600d620411cbf1607e556000600061500060006000600d620413fff1607f55",
                "storage": {}
            },
            "0xa94f5374fce5edbc8e2a8697c15331677e6ebf0b": {
                "nonce": "0x00",
                "balance": "0x038d7ea4c68000",
                "code": "0x",
                "storage": {}
            }
        },
        "transaction": {
            "nonce": "0x00",
            "gasPrice": "0x0a",
            "gasLimit": [
                "0x05f5e100"
            ],
            "to": "0x0000000000000000000000000000000000001000",
            "value": [
                "0x00"
            ],
            "data": [
                "0x"
            ],
            "sender": "0xa94f5374fce5edbc8e2a8697c15331677e6ebf0b",
            "secretKey": "0x45a915e4d060149eb4365960e6a7a45f334393093061116b197e3240065ff2d8"
        },
        "post": {
            "Prague": [
                {
                    "hash": "0x30b9b7832d91f0a022f62c422659de6fa9bd3172fa549c10f84f2586026c6178",
                    "logs": "0x1dcc4de8dec75d7aab85b567b6ccd41ad312451b948a7413f0a142fd40d49347",
                    "txbytes": "0xf861800a8405f5e100940000000000000000000000000000000000001000808026a00c80636d627692750a38994c80e17de29770a0e34498f5e6eccd4f233ec21b5fa04c33c43ced36fe3329a16f21f2704902ac998ae26f175265e7b14a6229b1feb1",
                    "indexes": {
                        "data": 0,
                        "gas": 0,
                        "value": 0
                    }
                }
            ]
        },
        "_info": {
            "hash": "0x13e07d8fbb0f887089dc7555c4b38718a1ca1d70e520b9a858407ff71071f333",
            "comment": "`execution-spec-tests` generated test",
            "filling-transition-tool": "Hyperledger Besu evm 24.9-develop-0d63955",
            "description": "Test function documentation:\n\n    Test the BLS12_G1MSM discount gas table in full, by expecting the call to fail for\n    all possible input lengths because the appropriate amount of gas is not provided.\n\n    If any of the calls succeeds, the test will fail.",
            "url": "https://github.com/ethereum/execution-spec-tests/blob/eip7692@v1.1.1/tests/prague/eip2537_bls_12_381_precompiles/test_bls12_variable_length_input_contracts.py#L141",
            "reference-spec": "https://github.com/ethereum/EIPs/blob/master/EIPS/eip-2537.md",
            "reference-spec-version": "cd0f016ad0c4c68b8b1f5c502ef61ab9353b6e5e"
        }
    }
}