{
    "tests/prague/eip2537_bls_12_381_precompiles/test_bls12_variable_length_input_contracts.py::test_invalid_length_g1msm[fork_PragueEIP7692-state_test-precompile_address_13---zero_length_input]": {
        "env": {
            "currentCoinbase": "0x2adc25665018aa1fe0e6bc666dac8fc2697ff9ba",
            "currentGasLimit": "0x016345785d8a0000",
            "currentNumber": "0x01",
            "currentTimestamp": "0x03e8",
            "currentRandom": "0x0000000000000000000000000000000000000000000000000000000000000000",
            "currentDifficulty": "0x00",
            "currentBaseFee": "0x07",
            "currentExcessBlobGas": "0x00"
        },
        "pre": {
            "0x0000000000000000000000000000000000001000": {
                "nonce": "0x01",
                "balance": "0x00",
                "code": "0x60006000600060006000600d613840f1600055",
                "storage": {}
            },
            "0xa94f5374fce5edbc8e2a8697c15331677e6ebf0b": {
                "nonce": "0x00",
                "balance": "0x038d7ea4c68000",
                "code": "0x",
                "storage": {}
            }
        },
        "transaction": {
            "nonce": "0x00",
            "gasPrice": "0x0a",
            "gasLimit": [
                "0x05f5e100"
            ],
            "to": "0x0000000000000000000000000000000000001000",
            "value": [
                "0x00"
            ],
            "data": [
                "0x"
            ],
            "sender": "0xa94f5374fce5edbc8e2a8697c15331677e6ebf0b",
            "secretKey": "0x45a915e4d060149eb4365960e6a7a45f334393093061116b197e3240065ff2d8"
        },
        "post": {
            "Prague": [
                {
                    "hash": "0x3ac71919ca20622dcbc19ced6f533a7f8f652899ab48901173602186267ebcea",
                    "logs": "0x1dcc4de8dec75d7aab85b567b6ccd41ad312451b948a7413f0a142fd40d49347",
                    "txbytes": "0xf861800a8405f5e100940000000000000000000000000000000000001000808026a00c80636d627692750a38994c80e17de29770a0e34498f5e6eccd4f233ec21b5fa04c33c43ced36fe3329a16f21f2704902ac998ae26f175265e7b14a6229b1feb1",
                    "indexes": {
                        "data": 0,
                        "gas": 0,
                        "value": 0
                    }
                }
            ]
        },
        "_info": {
            "hash": "0x732579c83c000939e9aced65d91d5b87b49fb51c5da8d569559dd07125d40523",
            "comment": "`execution-spec-tests` generated test",
            "filling-transition-tool": "Hyperledger Besu evm 24.9-develop-beaee59",
            "description": "Test function documentation:\n\n    Test the BLS12_G1MSM discount gas table in full, by expecting the call to fail for\n    all possible input lengths provided because they are too long or short, or zero length.\n\n    If any of the calls succeeds, the test will fail.",
            "url": "https://github.com/ethereum/execution-spec-tests/blob/eip7692@v1.1.0/tests/prague/eip2537_bls_12_381_precompiles/test_bls12_variable_length_input_contracts.py#L182",
            "reference-spec": "https://github.com/ethereum/EIPs/blob/master/EIPS/eip-2537.md",
            "reference-spec-version": "cd0f016ad0c4c68b8b1f5c502ef61ab9353b6e5e"
        }
    },
    "tests/prague/eip2537_bls_12_381_precompiles/test_bls12_variable_length_input_contracts.py::test_invalid_length_g1msm[fork_PragueEIP7692-state_test-precompile_address_13---input_one_byte_too_short_full_discount_table]": {
        "env": {
            "currentCoinbase": "0x2adc25665018aa1fe0e6bc666dac8fc2697ff9ba",
            "currentGasLimit": "0x016345785d8a0000",
            "currentNumber": "0x01",
            "currentTimestamp": "0x03e8",
            "currentRandom": "0x0000000000000000000000000000000000000000000000000000000000000000",
            "currentDifficulty": "0x00",
            "currentBaseFee": "0x07",
            "currentExcessBlobGas": "0x00"
        },
        "pre": {
            "0x0000000000000000000000000000000000001000": {
                "nonce": "0x01",
                "balance": "0x00",
                "code": "0x60006000609f60006000600d613840f16000556000600061013f60006000600d615340f1600155600060006101df60006000600d616b70f16002556000600061027f60006000600d617830f16003556000600061031f60006000600d618b38f1600455600060006103bf60006000600d6199d8f16005556000600061045f60006000600d61a410f1600655600060006104ff60006000600d61a9e0f16007556000600061059f60006000600d61b8c8f16008556000600061063f60006000600d61c648f1600955600060006106df60006000600d61d260f1600a556000600061077f60006000600d61dda0f1600b556000600061081f60006000600d61e6f4f1600c55600060006108bf60006000600d61eee0f1600d556000600061095f60006000600d61f564f1600e55600060006109ff60006000600d61fa80f1600f5560006000610a9f60006000600d620106f8f160105560006000610b3f60006000600d62011310f160115560006000610bdf60006000600d62011ec8f160125560006000610c7f60006000600d62012a20f160135560006000610d1f60006000600d62013518f160145560006000610dbf60006000600d62013fb0f160155560006000610e5f60006000600d620149e8f160165560006000610eff60006000600d620153c0f160175560006000610f9f60006000600d62015d38f16018556000600061103f60006000600d62016650f1601955600060006110df60006000600d62016dc4f1601a556000600061117f60006000600d62017610f1601b556000600061121f60006000600d62017dfcf1601c55600060006112bf60006000600d62018588f1601d556000600061135f60006000600d62018cb4f1601e55600060006113ff60006000600d62019380f1601f556000600061149f60006000600d62019e90f16020556000600061153f60006000600d6201a7f0f1602155600060006115df60006000600d6201b2c4f16022556000600061167f60006000600d6201bbd0f16023556000600061171f60006000600d6201c668f1602455600060006117bf60006000600d6201cf20f16025556000600061185f60006000600d6201d97cf1602655600060006118ff60006000600d6201e1e0f16027556000600061199f60006000600d6201ec00f160285560006000611a3f60006000600d6201f410f160295560006000611adf60006000600d6201fdf4f1602a5560006000611b7f60006000600d620205b0f1602b5560006000611c1f60006000600d62020f58f1602c5560006000611cbf60006000600d620216c0f1602d5560006000611d5f60006000600d6202202cf1602e5560006000611dff60006000600d62022740f1602f5560006000611e9f60006000600d62023070f160305560006000611f3f60006000600d62023730f160315560006000611fdf60006000600d62024024f16032556000600061207f60006000600d62024690f16033556000600061211f60006000600d62024f48f1603455600060006121bf60006000600d62025560f16035556000600061225f60006000600d62025ddcf1603655600060006122ff60006000600d620263a0f16037556000600061239f60006000600d62026be0f16038556000600061243f60006000600d62027408f1603955600060006124df60006000600d62027954f1603a556000600061257f60006000600d62028140f1603b556000600061261f60006000600d62028638f1603c55600060006126bf60006000600d62028de8f1603d556000600061275f60006000600d6202928cf1603e55600060006127ff60006000600d62029a00f1603f556000600061289f60006000600d6202a15cf16040556000600061293f60006000600d6202a8a0f1604155600060006129df60006000600d6202afccf160425560006000612a7f60006000600d6202ba10f160435560006000612b1f60006000600d6202c118f160445560006000612bbf60006000600d6202c808f160455560006000612c5f60006000600d6202cee0f160465560006000612cff60006000600d6202d900f160475560006000612d9f60006000600d6202dfb4f160485560006000612e3f60006000600d6202e650f160495560006000612edf60006000600d6202ecd4f1604a5560006000612f7f60006000600d6202f6d0f1604b556000600061301f60006000600d6202fd30f1604c55600060006130bf60006000600d62030378f1604d556000600061315f60006000600d62030d5cf1604e55600060006131ff60006000600d62031380f1604f556000600061329f60006000600d6203198cf16050556000600061333f60006000600d62031f80f1605155600060006133df60006000600d62032940f16052556000600061347f60006000600d62032f10f16053556000600061351f60006000600d620334c8f1605455600060006135bf60006000600d62033a68f16055556000600061365f60006000600d62034404f1605655600060006136ff60006000600d62034980f16057556000600061379f60006000600d62034ee4f16058556000600061383f60006000600d62035430f1605955600060006138df60006000600d62035da8f1605a556000600061397f60006000600d620362d0f1605b5560006000613a1f60006000600d620367e0f1605c5560006000613abf60006000600d62036cd8f1605d5560006000613b5f60006000600d6203762cf1605e5560006000613bff60006000600d62037b00f1605f5560006000613c9f60006000600d62037fbcf160605560006000613d3f60006000600d62038460f160615560006000613ddf60006000600d62038d90f160625560006000613e7f60006000600d62039210f160635560006000613f1f60006000600d62039678f160645560006000613fbf60006000600d62039ac8f16065556000600061405f60006000600d6203a3d4f1606655600060006140ff60006000600d6203a800f16067556000600061419f60006000600d6203ac14f16068556000600061423f60006000600d6203b508f1606955600060006142df60006000600d6203b8f8f1606a556000600061437f60006000600d6203bcd0f1606b556000600061441f60006000600d6203c090f1606c55600060006144bf60006000600d6203c960f1606d556000600061455f60006000600d6203ccfcf1606e55600060006145ff60006000600d6203d080f1606f556000600061469f60006000600d6203d3ecf16070556000600061473f60006000600d6203dc98f1607155600060006147df60006000600d6203dfe0f16072556000600061487f60006000600d6203e310f16073556000600061491f60006000600d6203e628f1607455600060006149bf60006000600d6203eeb0f160755560006000614a5f60006000600d6203f1a4f160765560006000614aff60006000600d6203f480f160775560006000614b9f60006000600d6203f744f160785560006000614c3f60006000600d6203ffa8f160795560006000614cdf60006000600d62040248f1607a5560006000614d7f60006000600d620404d0f1607b5560006000614e1f60006000600d62040740f1607c5560006000614ebf60006000600d62040f80f1607d5560006000614f5f60006000600d620411ccf1607e5560006000614fff60006000600d62041400f1607f55",
                "storage": {}
            },
            "0xa94f5374fce5edbc8e2a8697c15331677e6ebf0b": {
                "nonce": "0x00",
                "balance": "0x038d7ea4c68000",
                "code": "0x",
                "storage": {}
            }
        },
        "transaction": {
            "nonce": "0x00",
            "gasPrice": "0x0a",
            "gasLimit": [
                "0x05f5e100"
            ],
            "to": "0x0000000000000000000000000000000000001000",
            "value": [
                "0x00"
            ],
            "data": [
                "0x"
            ],
            "sender": "0xa94f5374fce5edbc8e2a8697c15331677e6ebf0b",
            "secretKey": "0x45a915e4d060149eb4365960e6a7a45f334393093061116b197e3240065ff2d8"
        },
        "post": {
            "Prague": [
                {
                    "hash": "0xa622a4123bb14dc4cc160090a98d6dc09a17b85f60d03b19d4199442bcdefb41",
                    "logs": "0x1dcc4de8dec75d7aab85b567b6ccd41ad312451b948a7413f0a142fd40d49347",
                    "txbytes": "0xf861800a8405f5e100940000000000000000000000000000000000001000808026a00c80636d627692750a38994c80e17de29770a0e34498f5e6eccd4f233ec21b5fa04c33c43ced36fe3329a16f21f2704902ac998ae26f175265e7b14a6229b1feb1",
                    "indexes": {
                        "data": 0,
                        "gas": 0,
                        "value": 0
                    }
                }
            ]
        },
        "_info": {
            "hash": "0xac4d81002ab540e8f5fd5e8d6ecbad5ad2a9481d470b06a2a83c7e4fe9b65c3e",
            "comment": "`execution-spec-tests` generated test",
            "filling-transition-tool": "Hyperledger Besu evm 24.9-develop-beaee59",
            "description": "Test function documentation:\n\n    Test the BLS12_G1MSM discount gas table in full, by expecting the call to fail for\n    all possible input lengths provided because they are too long or short, or zero length.\n\n    If any of the calls succeeds, the test will fail.",
            "url": "https://github.com/ethereum/execution-spec-tests/blob/eip7692@v1.1.0/tests/prague/eip2537_bls_12_381_precompiles/test_bls12_variable_length_input_contracts.py#L182",
            "reference-spec": "https://github.com/ethereum/EIPs/blob/master/EIPS/eip-2537.md",
            "reference-spec-version": "cd0f016ad0c4c68b8b1f5c502ef61ab9353b6e5e"
        }
    },
    "tests/prague/eip2537_bls_12_381_precompiles/test_bls12_variable_length_input_contracts.py::test_invalid_length_g1msm[fork_PragueEIP7692-state_test-precompile_address_13---input_one_byte_too_long_full_discount_table]": {
        "env": {
            "currentCoinbase": "0x2adc25665018aa1fe0e6bc666dac8fc2697ff9ba",
            "currentGasLimit": "0x016345785d8a0000",
            "currentNumber": "0x01",
            "currentTimestamp": "0x03e8",
            "currentRandom": "0x0000000000000000000000000000000000000000000000000000000000000000",
            "currentDifficulty": "0x00",
            "currentBaseFee": "0x07",
            "currentExcessBlobGas": "0x00"
        },
        "pre": {
            "0x0000000000000000000000000000000000001000": {
                "nonce": "0x01",
                "balance": "0x00",
                "code": "0x6000600060a160006000600d613840f16000556000600061014160006000600d615340f1600155600060006101e160006000600d616b70f16002556000600061028160006000600d617830f16003556000600061032160006000600d618b38f1600455600060006103c160006000600d6199d8f16005556000600061046160006000600d61a410f16006556000600061050160006000600d61a9e0f1600755600060006105a160006000600d61b8c8f16008556000600061064160006000600d61c648f1600955600060006106e160006000600d61d260f1600a556000600061078160006000600d61dda0f1600b556000600061082160006000600d61e6f4f1600c55600060006108c160006000600d61eee0f1600d556000600061096160006000600d61f564f1600e5560006000610a0160006000600d61fa80f1600f5560006000610aa160006000600d620106f8f160105560006000610b4160006000600d62011310f160115560006000610be160006000600d62011ec8f160125560006000610c8160006000600d62012a20f160135560006000610d2160006000600d62013518f160145560006000610dc160006000600d62013fb0f160155560006000610e6160006000600d620149e8f160165560006000610f0160006000600d620153c0f160175560006000610fa160006000600d62015d38f16018556000600061104160006000600d62016650f1601955600060006110e160006000600d62016dc4f1601a556000600061118160006000600d62017610f1601b556000600061122160006000600d62017dfcf1601c55600060006112c160006000600d62018588f1601d556000600061136160006000600d62018cb4f1601e556000600061140160006000600d62019380f1601f55600060006114a160006000600d62019e90f16020556000600061154160006000600d6201a7f0f1602155600060006115e160006000600d6201b2c4f16022556000600061168160006000600d6201bbd0f16023556000600061172160006000600d6201c668f1602455600060006117c160006000600d6201cf20f16025556000600061186160006000600d6201d97cf16026556000600061190160006000600d6201e1e0f1602755600060006119a160006000600d6201ec00f160285560006000611a4160006000600d6201f410f160295560006000611ae160006000600d6201fdf4f1602a5560006000611b8160006000600d620205b0f1602b5560006000611c2160006000600d62020f58f1602c5560006000611cc160006000600d620216c0f1602d5560006000611d6160006000600d6202202cf1602e5560006000611e0160006000600d62022740f1602f5560006000611ea160006000600d62023070f160305560006000611f4160006000600d62023730f160315560006000611fe160006000600d62024024f16032556000600061208160006000600d62024690f16033556000600061212160006000600d62024f48f1603455600060006121c160006000600d62025560f16035556000600061226160006000600d62025ddcf16036556000600061230160006000600d620263a0f1603755600060006123a160006000600d62026be0f16038556000600061244160006000600d62027408f1603955600060006124e160006000600d62027954f1603a556000600061258160006000600d62028140f1603b556000600061262160006000600d62028638f1603c55600060006126c160006000600d62028de8f1603d556000600061276160006000600d6202928cf1603e556000600061280160006000600d62029a00f1603f55600060006128a160006000600d6202a15cf16040556000600061294160006000600d6202a8a0f1604155600060006129e160006000600d6202afccf160425560006000612a8160006000600d6202ba10f160435560006000612b2160006000600d6202c118f160445560006000612bc160006000600d6202c808f160455560006000612c6160006000600d6202cee0f160465560006000612d0160006000600d6202d900f160475560006000612da160006000600d6202dfb4f160485560006000612e4160006000600d6202e650f160495560006000612ee160006000600d6202ecd4f1604a5560006000612f8160006000600d6202f6d0f1604b556000600061302160006000600d6202fd30f1604c55600060006130c160006000600d62030378f1604d556000600061316160006000600d62030d5cf1604e556000600061320160006000600d62031380f1604f55600060006132a160006000600d6203198cf16050556000600061334160006000600d62031f80f1605155600060006133e160006000600d62032940f16052556000600061348160006000600d62032f10f16053556000600061352160006000600d620334c8f1605455600060006135c160006000600d62033a68f16055556000600061366160006000600d62034404f16056556000600061370160006000600d62034980f1605755600060006137a160006000600d62034ee4f16058556000600061384160006000600d62035430f1605955600060006138e160006000600d62035da8f1605a556000600061398160006000600d620362d0f1605b5560006000613a2160006000600d620367e0f1605c5560006000613ac160006000600d62036cd8f1605d5560006000613b6160006000600d6203762cf1605e5560006000613c0160006000600d62037b00f1605f5560006000613ca160006000600d62037fbcf160605560006000613d4160006000600d62038460f160615560006000613de160006000600d62038d90f160625560006000613e8160006000600d62039210f160635560006000613f2160006000600d62039678f160645560006000613fc160006000600d62039ac8f16065556000600061406160006000600d6203a3d4f16066556000600061410160006000600d6203a800f1606755600060006141a160006000600d6203ac14f16068556000600061424160006000600d6203b508f1606955600060006142e160006000600d6203b8f8f1606a556000600061438160006000600d6203bcd0f1606b556000600061442160006000600d6203c090f1606c55600060006144c160006000600d6203c960f1606d556000600061456160006000600d6203ccfcf1606e556000600061460160006000600d6203d080f1606f55600060006146a160006000600d6203d3ecf16070556000600061474160006000600d6203dc98f1607155600060006147e160006000600d6203dfe0f16072556000600061488160006000600d6203e310f16073556000600061492160006000600d6203e628f1607455600060006149c160006000600d6203eeb0f160755560006000614a6160006000600d6203f1a4f160765560006000614b0160006000600d6203f480f160775560006000614ba160006000600d6203f744f160785560006000614c4160006000600d6203ffa8f160795560006000614ce160006000600d62040248f1607a5560006000614d8160006000600d620404d0f1607b5560006000614e2160006000600d62040740f1607c5560006000614ec160006000600d62040f80f1607d5560006000614f6160006000600d620411ccf1607e556000600061500160006000600d62041400f1607f55",
                "storage": {}
            },
            "0xa94f5374fce5edbc8e2a8697c15331677e6ebf0b": {
                "nonce": "0x00",
                "balance": "0x038d7ea4c68000",
                "code": "0x",
                "storage": {}
            }
        },
        "transaction": {
            "nonce": "0x00",
            "gasPrice": "0x0a",
            "gasLimit": [
                "0x05f5e100"
            ],
            "to": "0x0000000000000000000000000000000000001000",
            "value": [
                "0x00"
            ],
            "data": [
                "0x"
            ],
            "sender": "0xa94f5374fce5edbc8e2a8697c15331677e6ebf0b",
            "secretKey": "0x45a915e4d060149eb4365960e6a7a45f334393093061116b197e3240065ff2d8"
        },
        "post": {
            "Prague": [
                {
                    "hash": "0xc3c19446fd5c13122df26daa5f0bba0f73c78e7faf5926945e03cedea9b1524d",
                    "logs": "0x1dcc4de8dec75d7aab85b567b6ccd41ad312451b948a7413f0a142fd40d49347",
                    "txbytes": "0xf861800a8405f5e100940000000000000000000000000000000000001000808026a00c80636d627692750a38994c80e17de29770a0e34498f5e6eccd4f233ec21b5fa04c33c43ced36fe3329a16f21f2704902ac998ae26f175265e7b14a6229b1feb1",
                    "indexes": {
                        "data": 0,
                        "gas": 0,
                        "value": 0
                    }
                }
            ]
        },
        "_info": {
            "hash": "0x4ea906c3478868c80f9aa343a662308150ae3c0d62b124899deb210816008de2",
            "comment": "`execution-spec-tests` generated test",
            "filling-transition-tool": "Hyperledger Besu evm 24.9-develop-beaee59",
            "description": "Test function documentation:\n\n    Test the BLS12_G1MSM discount gas table in full, by expecting the call to fail for\n    all possible input lengths provided because they are too long or short, or zero length.\n\n    If any of the calls succeeds, the test will fail.",
            "url": "https://github.com/ethereum/execution-spec-tests/blob/eip7692@v1.1.0/tests/prague/eip2537_bls_12_381_precompiles/test_bls12_variable_length_input_contracts.py#L182",
            "reference-spec": "https://github.com/ethereum/EIPs/blob/master/EIPS/eip-2537.md",
            "reference-spec-version": "cd0f016ad0c4c68b8b1f5c502ef61ab9353b6e5e"
        }
    }
}