{
    "tests/prague/eip2537_bls_12_381_precompiles/test_bls12_variable_length_input_contracts.py::test_invalid_length_g2msm[fork_PragueEIP7692-state_test-precompile_address_16---zero_length_input]": {
        "env": {
            "currentCoinbase": "0x2adc25665018aa1fe0e6bc666dac8fc2697ff9ba",
            "currentGasLimit": "0x016345785d8a0000",
            "currentNumber": "0x01",
            "currentTimestamp": "0x03e8",
            "currentRandom": "0x0000000000000000000000000000000000000000000000000000000000000000",
            "currentDifficulty": "0x00",
            "currentBaseFee": "0x07",
            "currentExcessBlobGas": "0x00"
        },
        "pre": {
            "0x0000000000000000000000000000000000001000": {
                "nonce": "0x01",
                "balance": "0x00",
                "code": "0x60006000600060006000601061d2f0f1600055",
                "storage": {}
            },
            "0xa94f5374fce5edbc8e2a8697c15331677e6ebf0b": {
                "nonce": "0x00",
                "balance": "0x038d7ea4c68000",
                "code": "0x",
                "storage": {}
            }
        },
        "transaction": {
            "nonce": "0x00",
            "gasPrice": "0x0a",
            "gasLimit": [
                "0x05f5e100"
            ],
            "to": "0x0000000000000000000000000000000000001000",
            "value": [
                "0x00"
            ],
            "data": [
                "0x"
            ],
            "sender": "0xa94f5374fce5edbc8e2a8697c15331677e6ebf0b",
            "secretKey": "0x45a915e4d060149eb4365960e6a7a45f334393093061116b197e3240065ff2d8"
        },
        "post": {
            "Prague": [
                {
                    "hash": "0xa27aea61c45ecb1320fee3a52c5b1ab0da9d42b923aa07fb357719b59b1e2927",
                    "logs": "0x1dcc4de8dec75d7aab85b567b6ccd41ad312451b948a7413f0a142fd40d49347",
                    "txbytes": "0xf861800a8405f5e100940000000000000000000000000000000000001000808026a00c80636d627692750a38994c80e17de29770a0e34498f5e6eccd4f233ec21b5fa04c33c43ced36fe3329a16f21f2704902ac998ae26f175265e7b14a6229b1feb1",
                    "indexes": {
                        "data": 0,
                        "gas": 0,
                        "value": 0
                    }
                }
            ]
        },
        "_info": {
            "hash": "0xb689580368d99545708b3698659254a78bbffa52d65d17637a558fd207f9afac",
            "comment": "`execution-spec-tests` generated test",
            "filling-transition-tool": "Hyperledger Besu evm 24.9-develop-beaee59",
            "description": "Test function documentation:\n\n    Test the BLS12_G2MSM discount gas table in full, by expecting the call to fail for\n    all possible input lengths provided because they are too long or short, or zero length.\n\n    If any of the calls succeeds, the test will fail.",
            "url": "https://github.com/ethereum/execution-spec-tests/blob/eip7692@v1.1.0/tests/prague/eip2537_bls_12_381_precompiles/test_bls12_variable_length_input_contracts.py#L307",
            "reference-spec": "https://github.com/ethereum/EIPs/blob/master/EIPS/eip-2537.md",
            "reference-spec-version": "cd0f016ad0c4c68b8b1f5c502ef61ab9353b6e5e"
        }
    },
    "tests/prague/eip2537_bls_12_381_precompiles/test_bls12_variable_length_input_contracts.py::test_invalid_length_g2msm[fork_PragueEIP7692-state_test-precompile_address_16---input_one_byte_too_short_full_discount_table]": {
        "env": {
            "currentCoinbase": "0x2adc25665018aa1fe0e6bc666dac8fc2697ff9ba",
            "currentGasLimit": "0x016345785d8a0000",
            "currentNumber": "0x01",
            "currentTimestamp": "0x03e8",
            "currentRandom": "0x0000000000000000000000000000000000000000000000000000000000000000",
            "currentDifficulty": "0x00",
            "currentBaseFee": "0x07",
            "currentExcessBlobGas": "0x00"
        },
        "pre": {
            "0x0000000000000000000000000000000000001000": {
                "nonce": "0x01",
                "balance": "0x00",
                "code": "0x6000600061011f60006000601061d2f0f16000556000600061023f60006000601062013830f16001556000600061035f600060006010620192e4f16002556000600061047f6000600060106201c2b4f16003556000600061059f60006000601062020a12f1600455600060006106bf600060006010620240eaf1600555600060006107df6000600060106202673cf1600655600060006108ff60006000601062027d08f160075560006000610a1f6000600060106202b4eef160085560006000610b3f6000600060106202e78ef160095560006000610c5f600060006010620314e8f1600a5560006000610d7f60006000601062033f18f1600b5560006000610e9f60006000601062036213f1600c5560006000610fbf60006000601062037fc8f1600d55600060006110df60006000601062039837f1600e55600060006111ff6000600060106203ab60f1600f556000600061131f6000600060106203da22f16010556000600061143f6000600060106204077cf16011556000600061155f6000600060106204336ef16012556000600061167f60006000601062045df8f16013556000600061179f6000600060106204871af1601455600060006118bf6000600060106204aed4f1601555600060006119df6000600060106204d526f160165560006000611aff6000600060106204fa10f160175560006000611c1f60006000601062051d92f160185560006000611d3f60006000601062053facf160195560006000611e5f60006000601062055b9ff1601a5560006000611f7f60006000601062057abcf1601b556000600061209f60006000601062059871f1601c55600060006121bf6000600060106205b4bef1601d55600060006122df6000600060106205cfa3f1601e55600060006123ff6000600060106205e920f1601f556000600061251f6000600060106206129cf16020556000600061263f600060006010620635c4f16021556000600061275f60006000601062065e5ff16022556000600061287f6000600060106206804cf16023556000600061299f6000600060106206a806f160245560006000612abf6000600060106206c8b8f160255560006000612bdf6000600060106206ef91f160265560006000612cff60006000601062070f08f160275560006000612e1f60006000601062073500f160285560006000612f3f6000600060106207533cf16029556000600061305f60006000601062077853f1602a556000600061317f60006000601062079554f1602b556000600061329f6000600060106207b98af1602c55600060006133bf6000600060106207d550f1602d55600060006134df6000600060106207f8a5f1602e55600060006135ff60006000601062081330f1602f556000600061371f600060006010620835a4f16030556000600061383f60006000601062084ef4f16031556000600061395f60006000601062087087f160325560006000613a7f6000600060106208889cf160335560006000613b9f6000600060106208a94ef160345560006000613cbf6000600060106208c028f160355560006000613ddf6000600060106208dff9f160365560006000613eff6000600060106208f598f16037556000600061401f60006000601062091488f16038556000600061413f6000600060106209331ef16039556000600061425f600060006010620946fbf1603a556000600061437f600060006010620964b0f1603b556000600061449f60006000601062097752f1603c55600060006145bf60006000601062099426f1603d55600060006146df6000600060106209a58df1603e55600060006147ff6000600060106209c180f1603f556000600061491f6000600060106209dd19f160405560006000614a3f6000600060106209f858f160415560006000614b5f600060006010620a133df160425560006000614c7f600060006010620a39bcf160435560006000614d9f600060006010620a541af160445560006000614ebf600060006010620a6e1ef160455560006000614fdf600060006010620a87c8f1604655600060006150ff600060006010620aadc0f16047556000600061521f600060006010620ac6e3f16048556000600061533f600060006010620adfacf16049556000600061545f600060006010620af81bf1604a556000600061557f600060006010620b1d8cf1604b556000600061569f600060006010620b3574f1604c55600060006157bf600060006010620b4d02f1604d55600060006158df600060006010620b7219f1604e55600060006159ff600060006010620b8920f1604f5560006000615b1f600060006010620b9fcdf160505560006000615c3f600060006010620bb620f160515560006000615d5f600060006010620bdab0f160525560006000615e7f600060006010620bf07cf160535560006000615f9f600060006010620c05eef1605455600060006160bf600060006010620c1b06f1605555600060006161df600060006010620c3f0ff1605655600060006162ff600060006010620c53a0f16057556000600061641f600060006010620c67d7f16058556000600061653f600060006010620c7bb4f16059556000600061665f600060006010620c9f36f1605a556000600061677f600060006010620cb28cf1605b556000600061689f600060006010620cc588f1605c55600060006169bf600060006010620cd82af1605d5560006000616adf600060006010620cfb25f1605e5560006000616bff600060006010620d0d40f1605f5560006000616d1f600060006010620d1f01f160605560006000616e3f600060006010620d3068f160615560006000616f5f600060006010620d52dcf16062556000600061707f600060006010620d63bcf16063556000600061719f600060006010620d7442f1606455600060006172bf600060006010620d846ef1606555600060006173df600060006010620da65bf1606655600060006174ff600060006010620db600f16067556000600061761f600060006010620dc54bf16068556000600061773f600060006010620de6def16069556000600061785f600060006010620df5a2f1606a556000600061797f600060006010620e040cf1606b5560006000617a9f600060006010620e121cf1606c5560006000617bbf600060006010620e3328f1606d5560006000617cdf600060006010620e40b1f1606e5560006000617dff600060006010620e4de0f1606f5560006000617f1f600060006010620e5ab5f16070556000600061803f600060006010620e7b3af16071556000600061815f600060006010620e8788f16072556000600061827f600060006010620e937cf16073556000600061839f600060006010620e9f16f1607455600060006184bf600060006010620ebf14f1607555600060006185df600060006010620eca27f1607655600060006186ff600060006010620ed4e0f16077556000600061881f600060006010620edf3ff16078556000600061893f600060006010620efeb6f160795560006000618a5f600060006010620f088ef1607a5560006000618b7f600060006010620f120cf1607b5560006000618c9f600060006010620f1b30f1607c5560006000618dbf600060006010620f3a20f1607d5560006000618edf600060006010620f42bdf1607e5560006000618fff600060006010620f4b00f1607f55",
                "storage": {}
            },
            "0xa94f5374fce5edbc8e2a8697c15331677e6ebf0b": {
                "nonce": "0x00",
                "balance": "0x038d7ea4c68000",
                "code": "0x",
                "storage": {}
            }
        },
        "transaction": {
            "nonce": "0x00",
            "gasPrice": "0x0a",
            "gasLimit": [
                "0x05f5e100"
            ],
            "to": "0x0000000000000000000000000000000000001000",
            "value": [
                "0x00"
            ],
            "data": [
                "0x"
            ],
            "sender": "0xa94f5374fce5edbc8e2a8697c15331677e6ebf0b",
            "secretKey": "0x45a915e4d060149eb4365960e6a7a45f334393093061116b197e3240065ff2d8"
        },
        "post": {
            "Prague": [
                {
                    "hash": "0xa389e8fae94d4df64d0b00435cbfeb75688b06ce5d2ac83a8c34bd99661d3898",
                    "logs": "0x1dcc4de8dec75d7aab85b567b6ccd41ad312451b948a7413f0a142fd40d49347",
                    "txbytes": "0xf861800a8405f5e100940000000000000000000000000000000000001000808026a00c80636d627692750a38994c80e17de29770a0e34498f5e6eccd4f233ec21b5fa04c33c43ced36fe3329a16f21f2704902ac998ae26f175265e7b14a6229b1feb1",
                    "indexes": {
                        "data": 0,
                        "gas": 0,
                        "value": 0
                    }
                }
            ]
        },
        "_info": {
            "hash": "0x0500d4b73f0a5661e06a2078862e3ad35bc4fd7617f0aa6825277c2eb64bdbd4",
            "comment": "`execution-spec-tests` generated test",
            "filling-transition-tool": "Hyperledger Besu evm 24.9-develop-beaee59",
            "description": "Test function documentation:\n\n    Test the BLS12_G2MSM discount gas table in full, by expecting the call to fail for\n    all possible input lengths provided because they are too long or short, or zero length.\n\n    If any of the calls succeeds, the test will fail.",
            "url": "https://github.com/ethereum/execution-spec-tests/blob/eip7692@v1.1.0/tests/prague/eip2537_bls_12_381_precompiles/test_bls12_variable_length_input_contracts.py#L307",
            "reference-spec": "https://github.com/ethereum/EIPs/blob/master/EIPS/eip-2537.md",
            "reference-spec-version": "cd0f016ad0c4c68b8b1f5c502ef61ab9353b6e5e"
        }
    },
    "tests/prague/eip2537_bls_12_381_precompiles/test_bls12_variable_length_input_contracts.py::test_invalid_length_g2msm[fork_PragueEIP7692-state_test-precompile_address_16---input_one_byte_too_long_full_discount_table]": {
        "env": {
            "currentCoinbase": "0x2adc25665018aa1fe0e6bc666dac8fc2697ff9ba",
            "currentGasLimit": "0x016345785d8a0000",
            "currentNumber": "0x01",
            "currentTimestamp": "0x03e8",
            "currentRandom": "0x0000000000000000000000000000000000000000000000000000000000000000",
            "currentDifficulty": "0x00",
            "currentBaseFee": "0x07",
            "currentExcessBlobGas": "0x00"
        },
        "pre": {
            "0x0000000000000000000000000000000000001000": {
                "nonce": "0x01",
                "balance": "0x00",
                "code": "0x6000600061012160006000601061d2f0f16000556000600061024160006000601062013830f160015560006000610361600060006010620192e4f1600255600060006104816000600060106201c2b4f1600355600060006105a160006000601062020a12f1600455600060006106c1600060006010620240eaf1600555600060006107e16000600060106202673cf16006556000600061090160006000601062027d08f160075560006000610a216000600060106202b4eef160085560006000610b416000600060106202e78ef160095560006000610c61600060006010620314e8f1600a5560006000610d8160006000601062033f18f1600b5560006000610ea160006000601062036213f1600c5560006000610fc160006000601062037fc8f1600d55600060006110e160006000601062039837f1600e55600060006112016000600060106203ab60f1600f55600060006113216000600060106203da22f1601055600060006114416000600060106204077cf1601155600060006115616000600060106204336ef16012556000600061168160006000601062045df8f1601355600060006117a16000600060106204871af1601455600060006118c16000600060106204aed4f1601555600060006119e16000600060106204d526f160165560006000611b016000600060106204fa10f160175560006000611c2160006000601062051d92f160185560006000611d4160006000601062053facf160195560006000611e6160006000601062055b9ff1601a5560006000611f8160006000601062057abcf1601b55600060006120a160006000601062059871f1601c55600060006121c16000600060106205b4bef1601d55600060006122e16000600060106205cfa3f1601e55600060006124016000600060106205e920f1601f55600060006125216000600060106206129cf160205560006000612641600060006010620635c4f16021556000600061276160006000601062065e5ff1602255600060006128816000600060106206804cf1602355600060006129a16000600060106206a806f160245560006000612ac16000600060106206c8b8f160255560006000612be16000600060106206ef91f160265560006000612d0160006000601062070f08f160275560006000612e2160006000601062073500f160285560006000612f416000600060106207533cf16029556000600061306160006000601062077853f1602a556000600061318160006000601062079554f1602b55600060006132a16000600060106207b98af1602c55600060006133c16000600060106207d550f1602d55600060006134e16000600060106207f8a5f1602e556000600061360160006000601062081330f1602f5560006000613721600060006010620835a4f16030556000600061384160006000601062084ef4f16031556000600061396160006000601062087087f160325560006000613a816000600060106208889cf160335560006000613ba16000600060106208a94ef160345560006000613cc16000600060106208c028f160355560006000613de16000600060106208dff9f160365560006000613f016000600060106208f598f16037556000600061402160006000601062091488f1603855600060006141416000600060106209331ef160395560006000614261600060006010620946fbf1603a5560006000614381600060006010620964b0f1603b55600060006144a160006000601062097752f1603c55600060006145c160006000601062099426f1603d55600060006146e16000600060106209a58df1603e55600060006148016000600060106209c180f1603f55600060006149216000600060106209dd19f160405560006000614a416000600060106209f858f160415560006000614b61600060006010620a133df160425560006000614c81600060006010620a39bcf160435560006000614da1600060006010620a541af160445560006000614ec1600060006010620a6e1ef160455560006000614fe1600060006010620a87c8f160465560006000615101600060006010620aadc0f160475560006000615221600060006010620ac6e3f160485560006000615341600060006010620adfacf160495560006000615461600060006010620af81bf1604a5560006000615581600060006010620b1d8cf1604b55600060006156a1600060006010620b3574f1604c55600060006157c1600060006010620b4d02f1604d55600060006158e1600060006010620b7219f1604e5560006000615a01600060006010620b8920f1604f5560006000615b21600060006010620b9fcdf160505560006000615c41600060006010620bb620f160515560006000615d61600060006010620bdab0f160525560006000615e81600060006010620bf07cf160535560006000615fa1600060006010620c05eef1605455600060006160c1600060006010620c1b06f1605555600060006161e1600060006010620c3f0ff160565560006000616301600060006010620c53a0f160575560006000616421600060006010620c67d7f160585560006000616541600060006010620c7bb4f160595560006000616661600060006010620c9f36f1605a5560006000616781600060006010620cb28cf1605b55600060006168a1600060006010620cc588f1605c55600060006169c1600060006010620cd82af1605d5560006000616ae1600060006010620cfb25f1605e5560006000616c01600060006010620d0d40f1605f5560006000616d21600060006010620d1f01f160605560006000616e41600060006010620d3068f160615560006000616f61600060006010620d52dcf160625560006000617081600060006010620d63bcf1606355600060006171a1600060006010620d7442f1606455600060006172c1600060006010620d846ef1606555600060006173e1600060006010620da65bf160665560006000617501600060006010620db600f160675560006000617621600060006010620dc54bf160685560006000617741600060006010620de6def160695560006000617861600060006010620df5a2f1606a5560006000617981600060006010620e040cf1606b5560006000617aa1600060006010620e121cf1606c5560006000617bc1600060006010620e3328f1606d5560006000617ce1600060006010620e40b1f1606e5560006000617e01600060006010620e4de0f1606f5560006000617f21600060006010620e5ab5f160705560006000618041600060006010620e7b3af160715560006000618161600060006010620e8788f160725560006000618281600060006010620e937cf1607355600060006183a1600060006010620e9f16f1607455600060006184c1600060006010620ebf14f1607555600060006185e1600060006010620eca27f160765560006000618701600060006010620ed4e0f160775560006000618821600060006010620edf3ff160785560006000618941600060006010620efeb6f160795560006000618a61600060006010620f088ef1607a5560006000618b81600060006010620f120cf1607b5560006000618ca1600060006010620f1b30f1607c5560006000618dc1600060006010620f3a20f1607d5560006000618ee1600060006010620f42bdf1607e5560006000619001600060006010620f4b00f1607f55",
                "storage": {}
            },
            "0xa94f5374fce5edbc8e2a8697c15331677e6ebf0b": {
                "nonce": "0x00",
                "balance": "0x038d7ea4c68000",
                "code": "0x",
                "storage": {}
            }
        },
        "transaction": {
            "nonce": "0x00",
            "gasPrice": "0x0a",
            "gasLimit": [
                "0x05f5e100"
            ],
            "to": "0x0000000000000000000000000000000000001000",
            "value": [
                "0x00"
            ],
            "data": [
                "0x"
            ],
            "sender": "0xa94f5374fce5edbc8e2a8697c15331677e6ebf0b",
            "secretKey": "0x45a915e4d060149eb4365960e6a7a45f334393093061116b197e3240065ff2d8"
        },
        "post": {
            "Prague": [
                {
                    "hash": "0x9ca7154b5fbde3a3be0cfc40dc548d88423e61a9257ee05680256f5b04f03426",
                    "logs": "0x1dcc4de8dec75d7aab85b567b6ccd41ad312451b948a7413f0a142fd40d49347",
                    "txbytes": "0xf861800a8405f5e100940000000000000000000000000000000000001000808026a00c80636d627692750a38994c80e17de29770a0e34498f5e6eccd4f233ec21b5fa04c33c43ced36fe3329a16f21f2704902ac998ae26f175265e7b14a6229b1feb1",
                    "indexes": {
                        "data": 0,
                        "gas": 0,
                        "value": 0
                    }
                }
            ]
        },
        "_info": {
            "hash": "0x5720800940dcac841a0eced19aaa84cf905519f3d3f5f32ee834a9b083861349",
            "comment": "`execution-spec-tests` generated test",
            "filling-transition-tool": "Hyperledger Besu evm 24.9-develop-beaee59",
            "description": "Test function documentation:\n\n    Test the BLS12_G2MSM discount gas table in full, by expecting the call to fail for\n    all possible input lengths provided because they are too long or short, or zero length.\n\n    If any of the calls succeeds, the test will fail.",
            "url": "https://github.com/ethereum/execution-spec-tests/blob/eip7692@v1.1.0/tests/prague/eip2537_bls_12_381_precompiles/test_bls12_variable_length_input_contracts.py#L307",
            "reference-spec": "https://github.com/ethereum/EIPs/blob/master/EIPS/eip-2537.md",
            "reference-spec-version": "cd0f016ad0c4c68b8b1f5c502ef61ab9353b6e5e"
        }
    }
}