{
    "tests/prague/eip2537_bls_12_381_precompiles/test_bls12_variable_length_input_contracts.py::test_valid_gas_g1msm[fork_Osaka-state_test-precompile_address_13---exact_gas_full_discount_table]": {
        "env": {
            "currentCoinbase": "0x2adc25665018aa1fe0e6bc666dac8fc2697ff9ba",
            "currentGasLimit": "0x016345785d8a0000",
            "currentNumber": "0x01",
            "currentTimestamp": "0x03e8",
            "currentRandom": "0x0000000000000000000000000000000000000000000000000000000000000000",
            "currentDifficulty": "0x00",
            "currentBaseFee": "0x07",
            "currentExcessBlobGas": "0x00"
        },
        "pre": {
            "0x0000000000000000000000000000000000001000": {
                "nonce": "0x01",
                "balance": "0x00",
                "code": "0x6000600060a060006000600d613840f16000556000600061014060006000600d615340f1600155600060006101e060006000600d616b70f16002556000600061028060006000600d617830f16003556000600061032060006000600d618b38f1600455600060006103c060006000600d6199d8f16005556000600061046060006000600d61a410f16006556000600061050060006000600d61a9e0f1600755600060006105a060006000600d61b8c8f16008556000600061064060006000600d61c648f1600955600060006106e060006000600d61d260f1600a556000600061078060006000600d61dda0f1600b556000600061082060006000600d61e6f4f1600c55600060006108c060006000600d61eee0f1600d556000600061096060006000600d61f564f1600e5560006000610a0060006000600d61fa80f1600f5560006000610aa060006000600d620106f8f160105560006000610b4060006000600d62011310f160115560006000610be060006000600d62011ec8f160125560006000610c8060006000600d62012a20f160135560006000610d2060006000600d62013518f160145560006000610dc060006000600d62013fb0f160155560006000610e6060006000600d620149e8f160165560006000610f0060006000600d620153c0f160175560006000610fa060006000600d62015d38f16018556000600061104060006000600d62016650f1601955600060006110e060006000600d62016dc4f1601a556000600061118060006000600d62017610f1601b556000600061122060006000600d62017dfcf1601c55600060006112c060006000600d62018588f1601d556000600061136060006000600d62018cb4f1601e556000600061140060006000600d62019380f1601f55600060006114a060006000600d62019e90f16020556000600061154060006000600d6201a7f0f1602155600060006115e060006000600d6201b2c4f16022556000600061168060006000600d6201bbd0f16023556000600061172060006000600d6201c668f1602455600060006117c060006000600d6201cf20f16025556000600061186060006000600d6201d97cf16026556000600061190060006000600d6201e1e0f1602755600060006119a060006000600d6201ec00f160285560006000611a4060006000600d6201f410f160295560006000611ae060006000600d6201fdf4f1602a5560006000611b8060006000600d620205b0f1602b5560006000611c2060006000600d62020f58f1602c5560006000611cc060006000600d620216c0f1602d5560006000611d6060006000600d6202202cf1602e5560006000611e0060006000600d62022740f1602f5560006000611ea060006000600d62023070f160305560006000611f4060006000600d62023730f160315560006000611fe060006000600d62024024f16032556000600061208060006000600d62024690f16033556000600061212060006000600d62024f48f1603455600060006121c060006000600d62025560f16035556000600061226060006000600d62025ddcf16036556000600061230060006000600d620263a0f1603755600060006123a060006000600d62026be0f16038556000600061244060006000600d62027408f1603955600060006124e060006000600d62027954f1603a556000600061258060006000600d62028140f1603b556000600061262060006000600d62028638f1603c55600060006126c060006000600d62028de8f1603d556000600061276060006000600d6202928cf1603e556000600061280060006000600d62029a00f1603f55600060006128a060006000600d6202a15cf16040556000600061294060006000600d6202a8a0f1604155600060006129e060006000600d6202afccf160425560006000612a8060006000600d6202ba10f160435560006000612b2060006000600d6202c118f160445560006000612bc060006000600d6202c808f160455560006000612c6060006000600d6202cee0f160465560006000612d0060006000600d6202d900f160475560006000612da060006000600d6202dfb4f160485560006000612e4060006000600d6202e650f160495560006000612ee060006000600d6202ecd4f1604a5560006000612f8060006000600d6202f6d0f1604b556000600061302060006000600d6202fd30f1604c55600060006130c060006000600d62030378f1604d556000600061316060006000600d62030d5cf1604e556000600061320060006000600d62031380f1604f55600060006132a060006000600d6203198cf16050556000600061334060006000600d62031f80f1605155600060006133e060006000600d62032940f16052556000600061348060006000600d62032f10f16053556000600061352060006000600d620334c8f1605455600060006135c060006000600d62033a68f16055556000600061366060006000600d62034404f16056556000600061370060006000600d62034980f1605755600060006137a060006000600d62034ee4f16058556000600061384060006000600d62035430f1605955600060006138e060006000600d62035da8f1605a556000600061398060006000600d620362d0f1605b5560006000613a2060006000600d620367e0f1605c5560006000613ac060006000600d62036cd8f1605d5560006000613b6060006000600d6203762cf1605e5560006000613c0060006000600d62037b00f1605f5560006000613ca060006000600d62037fbcf160605560006000613d4060006000600d62038460f160615560006000613de060006000600d62038d90f160625560006000613e8060006000600d62039210f160635560006000613f2060006000600d62039678f160645560006000613fc060006000600d62039ac8f16065556000600061406060006000600d6203a3d4f16066556000600061410060006000600d6203a800f1606755600060006141a060006000600d6203ac14f16068556000600061424060006000600d6203b508f1606955600060006142e060006000600d6203b8f8f1606a556000600061438060006000600d6203bcd0f1606b556000600061442060006000600d6203c090f1606c55600060006144c060006000600d6203c960f1606d556000600061456060006000600d6203ccfcf1606e556000600061460060006000600d6203d080f1606f55600060006146a060006000600d6203d3ecf16070556000600061474060006000600d6203dc98f1607155600060006147e060006000600d6203dfe0f16072556000600061488060006000600d6203e310f16073556000600061492060006000600d6203e628f1607455600060006149c060006000600d6203eeb0f160755560006000614a6060006000600d6203f1a4f160765560006000614b0060006000600d6203f480f160775560006000614ba060006000600d6203f744f160785560006000614c4060006000600d6203ffa8f160795560006000614ce060006000600d62040248f1607a5560006000614d8060006000600d620404d0f1607b5560006000614e2060006000600d62040740f1607c5560006000614ec060006000600d62040f80f1607d5560006000614f6060006000600d620411ccf1607e556000600061500060006000600d62041400f1607f55",
                "storage": {}
            },
            "0xa94f5374fce5edbc8e2a8697c15331677e6ebf0b": {
                "nonce": "0x00",
                "balance": "0x038d7ea4c68000",
                "code": "0x",
                "storage": {}
            }
        },
        "transaction": {
            "nonce": "0x00",
            "gasPrice": "0x0a",
            "gasLimit": [
                "0x05f5e100"
            ],
            "to": "0x0000000000000000000000000000000000001000",
            "value": [
                "0x00"
            ],
            "data": [
                "0x"
            ],
            "sender": "0xa94f5374fce5edbc8e2a8697c15331677e6ebf0b",
            "secretKey": "0x45a915e4d060149eb4365960e6a7a45f334393093061116b197e3240065ff2d8"
        },
        "post": {
            "Osaka": [
                {
                    "hash": "0x34a1681990a75d1ea3387f7bc2ae386ba64ef60fc2d128f1f02877d6b5578678",
                    "logs": "0x1dcc4de8dec75d7aab85b567b6ccd41ad312451b948a7413f0a142fd40d49347",
                    "txbytes": "0xf861800a8405f5e100940000000000000000000000000000000000001000808026a00c80636d627692750a38994c80e17de29770a0e34498f5e6eccd4f233ec21b5fa04c33c43ced36fe3329a16f21f2704902ac998ae26f175265e7b14a6229b1feb1",
                    "indexes": {
                        "data": 0,
                        "gas": 0,
                        "value": 0
                    }
                }
            ]
        },
        "_info": {
            "hash": "0x7c4b2ff31b9ca036dcccac0ccb985edbe60f43aedaa2db7974303c4a4af62576",
            "comment": "`execution-spec-tests` generated test",
            "filling-transition-tool": "Hyperledger Besu evm 24.10-develop-e720d8f",
            "description": "Test function documentation:\n\n    Test the BLS12_G1MSM discount gas table in full, by expecting the call to succeed for\n    all possible input lengths because the appropriate amount of gas is provided.\n\n    If any of the calls fail, the test will fail.",
            "url": "https://github.com/ethereum/execution-spec-tests/blob/eip7692@v2.0.0/tests/prague/eip2537_bls_12_381_precompiles/test_bls12_variable_length_input_contracts.py#L100",
            "reference-spec": "https://github.com/ethereum/EIPs/blob/master/EIPS/eip-2537.md",
            "reference-spec-version": "cd0f016ad0c4c68b8b1f5c502ef61ab9353b6e5e"
        }
    },
    "tests/prague/eip2537_bls_12_381_precompiles/test_bls12_variable_length_input_contracts.py::test_valid_gas_g1msm[fork_Osaka-state_test-precompile_address_13---one_extra_gas_full_discount_table]": {
        "env": {
            "currentCoinbase": "0x2adc25665018aa1fe0e6bc666dac8fc2697ff9ba",
            "currentGasLimit": "0x016345785d8a0000",
            "currentNumber": "0x01",
            "currentTimestamp": "0x03e8",
            "currentRandom": "0x0000000000000000000000000000000000000000000000000000000000000000",
            "currentDifficulty": "0x00",
            "currentBaseFee": "0x07",
            "currentExcessBlobGas": "0x00"
        },
        "pre": {
            "0x0000000000000000000000000000000000001000": {
                "nonce": "0x01",
                "balance": "0x00",
                "code": "0x6000600060a060006000600d613841f16000556000600061014060006000600d615341f1600155600060006101e060006000600d616b71f16002556000600061028060006000600d617831f16003556000600061032060006000600d618b39f1600455600060006103c060006000600d6199d9f16005556000600061046060006000600d61a411f16006556000600061050060006000600d61a9e1f1600755600060006105a060006000600d61b8c9f16008556000600061064060006000600d61c649f1600955600060006106e060006000600d61d261f1600a556000600061078060006000600d61dda1f1600b556000600061082060006000600d61e6f5f1600c55600060006108c060006000600d61eee1f1600d556000600061096060006000600d61f565f1600e5560006000610a0060006000600d61fa81f1600f5560006000610aa060006000600d620106f9f160105560006000610b4060006000600d62011311f160115560006000610be060006000600d62011ec9f160125560006000610c8060006000600d62012a21f160135560006000610d2060006000600d62013519f160145560006000610dc060006000600d62013fb1f160155560006000610e6060006000600d620149e9f160165560006000610f0060006000600d620153c1f160175560006000610fa060006000600d62015d39f16018556000600061104060006000600d62016651f1601955600060006110e060006000600d62016dc5f1601a556000600061118060006000600d62017611f1601b556000600061122060006000600d62017dfdf1601c55600060006112c060006000600d62018589f1601d556000600061136060006000600d62018cb5f1601e556000600061140060006000600d62019381f1601f55600060006114a060006000600d62019e91f16020556000600061154060006000600d6201a7f1f1602155600060006115e060006000600d6201b2c5f16022556000600061168060006000600d6201bbd1f16023556000600061172060006000600d6201c669f1602455600060006117c060006000600d6201cf21f16025556000600061186060006000600d6201d97df16026556000600061190060006000600d6201e1e1f1602755600060006119a060006000600d6201ec01f160285560006000611a4060006000600d6201f411f160295560006000611ae060006000600d6201fdf5f1602a5560006000611b8060006000600d620205b1f1602b5560006000611c2060006000600d62020f59f1602c5560006000611cc060006000600d620216c1f1602d5560006000611d6060006000600d6202202df1602e5560006000611e0060006000600d62022741f1602f5560006000611ea060006000600d62023071f160305560006000611f4060006000600d62023731f160315560006000611fe060006000600d62024025f16032556000600061208060006000600d62024691f16033556000600061212060006000600d62024f49f1603455600060006121c060006000600d62025561f16035556000600061226060006000600d62025dddf16036556000600061230060006000600d620263a1f1603755600060006123a060006000600d62026be1f16038556000600061244060006000600d62027409f1603955600060006124e060006000600d62027955f1603a556000600061258060006000600d62028141f1603b556000600061262060006000600d62028639f1603c55600060006126c060006000600d62028de9f1603d556000600061276060006000600d6202928df1603e556000600061280060006000600d62029a01f1603f55600060006128a060006000600d6202a15df16040556000600061294060006000600d6202a8a1f1604155600060006129e060006000600d6202afcdf160425560006000612a8060006000600d6202ba11f160435560006000612b2060006000600d6202c119f160445560006000612bc060006000600d6202c809f160455560006000612c6060006000600d6202cee1f160465560006000612d0060006000600d6202d901f160475560006000612da060006000600d6202dfb5f160485560006000612e4060006000600d6202e651f160495560006000612ee060006000600d6202ecd5f1604a5560006000612f8060006000600d6202f6d1f1604b556000600061302060006000600d6202fd31f1604c55600060006130c060006000600d62030379f1604d556000600061316060006000600d62030d5df1604e556000600061320060006000600d62031381f1604f55600060006132a060006000600d6203198df16050556000600061334060006000600d62031f81f1605155600060006133e060006000600d62032941f16052556000600061348060006000600d62032f11f16053556000600061352060006000600d620334c9f1605455600060006135c060006000600d62033a69f16055556000600061366060006000600d62034405f16056556000600061370060006000600d62034981f1605755600060006137a060006000600d62034ee5f16058556000600061384060006000600d62035431f1605955600060006138e060006000600d62035da9f1605a556000600061398060006000600d620362d1f1605b5560006000613a2060006000600d620367e1f1605c5560006000613ac060006000600d62036cd9f1605d5560006000613b6060006000600d6203762df1605e5560006000613c0060006000600d62037b01f1605f5560006000613ca060006000600d62037fbdf160605560006000613d4060006000600d62038461f160615560006000613de060006000600d62038d91f160625560006000613e8060006000600d62039211f160635560006000613f2060006000600d62039679f160645560006000613fc060006000600d62039ac9f16065556000600061406060006000600d6203a3d5f16066556000600061410060006000600d6203a801f1606755600060006141a060006000600d6203ac15f16068556000600061424060006000600d6203b509f1606955600060006142e060006000600d6203b8f9f1606a556000600061438060006000600d6203bcd1f1606b556000600061442060006000600d6203c091f1606c55600060006144c060006000600d6203c961f1606d556000600061456060006000600d6203ccfdf1606e556000600061460060006000600d6203d081f1606f55600060006146a060006000600d6203d3edf16070556000600061474060006000600d6203dc99f1607155600060006147e060006000600d6203dfe1f16072556000600061488060006000600d6203e311f16073556000600061492060006000600d6203e629f1607455600060006149c060006000600d6203eeb1f160755560006000614a6060006000600d6203f1a5f160765560006000614b0060006000600d6203f481f160775560006000614ba060006000600d6203f745f160785560006000614c4060006000600d6203ffa9f160795560006000614ce060006000600d62040249f1607a5560006000614d8060006000600d620404d1f1607b5560006000614e2060006000600d62040741f1607c5560006000614ec060006000600d62040f81f1607d5560006000614f6060006000600d620411cdf1607e556000600061500060006000600d62041401f1607f55",
                "storage": {}
            },
            "0xa94f5374fce5edbc8e2a8697c15331677e6ebf0b": {
                "nonce": "0x00",
                "balance": "0x038d7ea4c68000",
                "code": "0x",
                "storage": {}
            }
        },
        "transaction": {
            "nonce": "0x00",
            "gasPrice": "0x0a",
            "gasLimit": [
                "0x05f5e100"
            ],
            "to": "0x0000000000000000000000000000000000001000",
            "value": [
                "0x00"
            ],
            "data": [
                "0x"
            ],
            "sender": "0xa94f5374fce5edbc8e2a8697c15331677e6ebf0b",
            "secretKey": "0x45a915e4d060149eb4365960e6a7a45f334393093061116b197e3240065ff2d8"
        },
        "post": {
            "Osaka": [
                {
                    "hash": "0xeb5c701d35eb7718cd759f6f1c383841c083737422b859a2ddb3f694578e0241",
                    "logs": "0x1dcc4de8dec75d7aab85b567b6ccd41ad312451b948a7413f0a142fd40d49347",
                    "txbytes": "0xf861800a8405f5e100940000000000000000000000000000000000001000808026a00c80636d627692750a38994c80e17de29770a0e34498f5e6eccd4f233ec21b5fa04c33c43ced36fe3329a16f21f2704902ac998ae26f175265e7b14a6229b1feb1",
                    "indexes": {
                        "data": 0,
                        "gas": 0,
                        "value": 0
                    }
                }
            ]
        },
        "_info": {
            "hash": "0x7d439f9ce7c7daf2892d49d6d75204506cee4eebedb49c4f70ebeb35cc60a4a4",
            "comment": "`execution-spec-tests` generated test",
            "filling-transition-tool": "Hyperledger Besu evm 24.10-develop-e720d8f",
            "description": "Test function documentation:\n\n    Test the BLS12_G1MSM discount gas table in full, by expecting the call to succeed for\n    all possible input lengths because the appropriate amount of gas is provided.\n\n    If any of the calls fail, the test will fail.",
            "url": "https://github.com/ethereum/execution-spec-tests/blob/eip7692@v2.0.0/tests/prague/eip2537_bls_12_381_precompiles/test_bls12_variable_length_input_contracts.py#L100",
            "reference-spec": "https://github.com/ethereum/EIPs/blob/master/EIPS/eip-2537.md",
            "reference-spec-version": "cd0f016ad0c4c68b8b1f5c502ef61ab9353b6e5e"
        }
    }
}