{
    "tests/prague/eip2537_bls_12_381_precompiles/test_bls12_variable_length_input_contracts.py::test_valid_gas_g2msm[fork_PragueEIP7692-state_test-precompile_address_16---exact_gas_full_discount_table]": {
        "env": {
            "currentCoinbase": "0x2adc25665018aa1fe0e6bc666dac8fc2697ff9ba",
            "currentGasLimit": "0x016345785d8a0000",
            "currentNumber": "0x01",
            "currentTimestamp": "0x03e8",
            "currentRandom": "0x0000000000000000000000000000000000000000000000000000000000000000",
            "currentDifficulty": "0x00",
            "currentBaseFee": "0x07",
            "currentExcessBlobGas": "0x00"
        },
        "pre": {
            "0x0000000000000000000000000000000000001000": {
                "nonce": "0x01",
                "balance": "0x00",
                "code": "0x6000600061012060006000601061d2f0f16000556000600061024060006000601062013830f160015560006000610360600060006010620192e4f1600255600060006104806000600060106201c2b4f1600355600060006105a060006000601062020a12f1600455600060006106c0600060006010620240eaf1600555600060006107e06000600060106202673cf16006556000600061090060006000601062027d08f160075560006000610a206000600060106202b4eef160085560006000610b406000600060106202e78ef160095560006000610c60600060006010620314e8f1600a5560006000610d8060006000601062033f18f1600b5560006000610ea060006000601062036213f1600c5560006000610fc060006000601062037fc8f1600d55600060006110e060006000601062039837f1600e55600060006112006000600060106203ab60f1600f55600060006113206000600060106203da22f1601055600060006114406000600060106204077cf1601155600060006115606000600060106204336ef16012556000600061168060006000601062045df8f1601355600060006117a06000600060106204871af1601455600060006118c06000600060106204aed4f1601555600060006119e06000600060106204d526f160165560006000611b006000600060106204fa10f160175560006000611c2060006000601062051d92f160185560006000611d4060006000601062053facf160195560006000611e6060006000601062055b9ff1601a5560006000611f8060006000601062057abcf1601b55600060006120a060006000601062059871f1601c55600060006121c06000600060106205b4bef1601d55600060006122e06000600060106205cfa3f1601e55600060006124006000600060106205e920f1601f55600060006125206000600060106206129cf160205560006000612640600060006010620635c4f16021556000600061276060006000601062065e5ff1602255600060006128806000600060106206804cf1602355600060006129a06000600060106206a806f160245560006000612ac06000600060106206c8b8f160255560006000612be06000600060106206ef91f160265560006000612d0060006000601062070f08f160275560006000612e2060006000601062073500f160285560006000612f406000600060106207533cf16029556000600061306060006000601062077853f1602a556000600061318060006000601062079554f1602b55600060006132a06000600060106207b98af1602c55600060006133c06000600060106207d550f1602d55600060006134e06000600060106207f8a5f1602e556000600061360060006000601062081330f1602f5560006000613720600060006010620835a4f16030556000600061384060006000601062084ef4f16031556000600061396060006000601062087087f160325560006000613a806000600060106208889cf160335560006000613ba06000600060106208a94ef160345560006000613cc06000600060106208c028f160355560006000613de06000600060106208dff9f160365560006000613f006000600060106208f598f16037556000600061402060006000601062091488f1603855600060006141406000600060106209331ef160395560006000614260600060006010620946fbf1603a5560006000614380600060006010620964b0f1603b55600060006144a060006000601062097752f1603c55600060006145c060006000601062099426f1603d55600060006146e06000600060106209a58df1603e55600060006148006000600060106209c180f1603f55600060006149206000600060106209dd19f160405560006000614a406000600060106209f858f160415560006000614b60600060006010620a133df160425560006000614c80600060006010620a39bcf160435560006000614da0600060006010620a541af160445560006000614ec0600060006010620a6e1ef160455560006000614fe0600060006010620a87c8f160465560006000615100600060006010620aadc0f160475560006000615220600060006010620ac6e3f160485560006000615340600060006010620adfacf160495560006000615460600060006010620af81bf1604a5560006000615580600060006010620b1d8cf1604b55600060006156a0600060006010620b3574f1604c55600060006157c0600060006010620b4d02f1604d55600060006158e0600060006010620b7219f1604e5560006000615a00600060006010620b8920f1604f5560006000615b20600060006010620b9fcdf160505560006000615c40600060006010620bb620f160515560006000615d60600060006010620bdab0f160525560006000615e80600060006010620bf07cf160535560006000615fa0600060006010620c05eef1605455600060006160c0600060006010620c1b06f1605555600060006161e0600060006010620c3f0ff160565560006000616300600060006010620c53a0f160575560006000616420600060006010620c67d7f160585560006000616540600060006010620c7bb4f160595560006000616660600060006010620c9f36f1605a5560006000616780600060006010620cb28cf1605b55600060006168a0600060006010620cc588f1605c55600060006169c0600060006010620cd82af1605d5560006000616ae0600060006010620cfb25f1605e5560006000616c00600060006010620d0d40f1605f5560006000616d20600060006010620d1f01f160605560006000616e40600060006010620d3068f160615560006000616f60600060006010620d52dcf160625560006000617080600060006010620d63bcf1606355600060006171a0600060006010620d7442f1606455600060006172c0600060006010620d846ef1606555600060006173e0600060006010620da65bf160665560006000617500600060006010620db600f160675560006000617620600060006010620dc54bf160685560006000617740600060006010620de6def160695560006000617860600060006010620df5a2f1606a5560006000617980600060006010620e040cf1606b5560006000617aa0600060006010620e121cf1606c5560006000617bc0600060006010620e3328f1606d5560006000617ce0600060006010620e40b1f1606e5560006000617e00600060006010620e4de0f1606f5560006000617f20600060006010620e5ab5f160705560006000618040600060006010620e7b3af160715560006000618160600060006010620e8788f160725560006000618280600060006010620e937cf1607355600060006183a0600060006010620e9f16f1607455600060006184c0600060006010620ebf14f1607555600060006185e0600060006010620eca27f160765560006000618700600060006010620ed4e0f160775560006000618820600060006010620edf3ff160785560006000618940600060006010620efeb6f160795560006000618a60600060006010620f088ef1607a5560006000618b80600060006010620f120cf1607b5560006000618ca0600060006010620f1b30f1607c5560006000618dc0600060006010620f3a20f1607d5560006000618ee0600060006010620f42bdf1607e5560006000619000600060006010620f4b00f1607f55",
                "storage": {}
            },
            "0xa94f5374fce5edbc8e2a8697c15331677e6ebf0b": {
                "nonce": "0x00",
                "balance": "0x038d7ea4c68000",
                "code": "0x",
                "storage": {}
            }
        },
        "transaction": {
            "nonce": "0x00",
            "gasPrice": "0x0a",
            "gasLimit": [
                "0x05f5e100"
            ],
            "to": "0x0000000000000000000000000000000000001000",
            "value": [
                "0x00"
            ],
            "data": [
                "0x"
            ],
            "sender": "0xa94f5374fce5edbc8e2a8697c15331677e6ebf0b",
            "secretKey": "0x45a915e4d060149eb4365960e6a7a45f334393093061116b197e3240065ff2d8"
        },
        "post": {
            "Prague": [
                {
                    "hash": "0xd91d7a31f7b81a5073a77073e274eeba52fc72159e0c353a3727d5a24bcfc13d",
                    "logs": "0x1dcc4de8dec75d7aab85b567b6ccd41ad312451b948a7413f0a142fd40d49347",
                    "txbytes": "0xf861800a8405f5e100940000000000000000000000000000000000001000808026a00c80636d627692750a38994c80e17de29770a0e34498f5e6eccd4f233ec21b5fa04c33c43ced36fe3329a16f21f2704902ac998ae26f175265e7b14a6229b1feb1",
                    "indexes": {
                        "data": 0,
                        "gas": 0,
                        "value": 0
                    }
                }
            ]
        },
        "_info": {
            "hash": "0x21bb1197b9be6e06b261b44c3f2f99dbf8b42f49a48072a7e631d95374697638",
            "comment": "`execution-spec-tests` generated test",
            "filling-transition-tool": "Hyperledger Besu evm 24.9-develop-beaee59",
            "description": "Test function documentation:\n\n    Test the BLS12_G2MSM discount gas table in full, by expecting the call to succeed for\n    all possible input lengths because the appropriate amount of gas is provided.\n\n    If any of the calls fail, the test will fail.",
            "url": "https://github.com/ethereum/execution-spec-tests/blob/eip7692@v1.1.0/tests/prague/eip2537_bls_12_381_precompiles/test_bls12_variable_length_input_contracts.py#L225",
            "reference-spec": "https://github.com/ethereum/EIPs/blob/master/EIPS/eip-2537.md",
            "reference-spec-version": "cd0f016ad0c4c68b8b1f5c502ef61ab9353b6e5e"
        }
    },
    "tests/prague/eip2537_bls_12_381_precompiles/test_bls12_variable_length_input_contracts.py::test_valid_gas_g2msm[fork_PragueEIP7692-state_test-precompile_address_16---one_extra_gas_full_discount_table]": {
        "env": {
            "currentCoinbase": "0x2adc25665018aa1fe0e6bc666dac8fc2697ff9ba",
            "currentGasLimit": "0x016345785d8a0000",
            "currentNumber": "0x01",
            "currentTimestamp": "0x03e8",
            "currentRandom": "0x0000000000000000000000000000000000000000000000000000000000000000",
            "currentDifficulty": "0x00",
            "currentBaseFee": "0x07",
            "currentExcessBlobGas": "0x00"
        },
        "pre": {
            "0x0000000000000000000000000000000000001000": {
                "nonce": "0x01",
                "balance": "0x00",
                "code": "0x6000600061012060006000601061d2f1f16000556000600061024060006000601062013831f160015560006000610360600060006010620192e5f1600255600060006104806000600060106201c2b5f1600355600060006105a060006000601062020a13f1600455600060006106c0600060006010620240ebf1600555600060006107e06000600060106202673df16006556000600061090060006000601062027d09f160075560006000610a206000600060106202b4eff160085560006000610b406000600060106202e78ff160095560006000610c60600060006010620314e9f1600a5560006000610d8060006000601062033f19f1600b5560006000610ea060006000601062036214f1600c5560006000610fc060006000601062037fc9f1600d55600060006110e060006000601062039838f1600e55600060006112006000600060106203ab61f1600f55600060006113206000600060106203da23f1601055600060006114406000600060106204077df1601155600060006115606000600060106204336ff16012556000600061168060006000601062045df9f1601355600060006117a06000600060106204871bf1601455600060006118c06000600060106204aed5f1601555600060006119e06000600060106204d527f160165560006000611b006000600060106204fa11f160175560006000611c2060006000601062051d93f160185560006000611d4060006000601062053fadf160195560006000611e6060006000601062055ba0f1601a5560006000611f8060006000601062057abdf1601b55600060006120a060006000601062059872f1601c55600060006121c06000600060106205b4bff1601d55600060006122e06000600060106205cfa4f1601e55600060006124006000600060106205e921f1601f55600060006125206000600060106206129df160205560006000612640600060006010620635c5f16021556000600061276060006000601062065e60f1602255600060006128806000600060106206804df1602355600060006129a06000600060106206a807f160245560006000612ac06000600060106206c8b9f160255560006000612be06000600060106206ef92f160265560006000612d0060006000601062070f09f160275560006000612e2060006000601062073501f160285560006000612f406000600060106207533df16029556000600061306060006000601062077854f1602a556000600061318060006000601062079555f1602b55600060006132a06000600060106207b98bf1602c55600060006133c06000600060106207d551f1602d55600060006134e06000600060106207f8a6f1602e556000600061360060006000601062081331f1602f5560006000613720600060006010620835a5f16030556000600061384060006000601062084ef5f16031556000600061396060006000601062087088f160325560006000613a806000600060106208889df160335560006000613ba06000600060106208a94ff160345560006000613cc06000600060106208c029f160355560006000613de06000600060106208dffaf160365560006000613f006000600060106208f599f16037556000600061402060006000601062091489f1603855600060006141406000600060106209331ff160395560006000614260600060006010620946fcf1603a5560006000614380600060006010620964b1f1603b55600060006144a060006000601062097753f1603c55600060006145c060006000601062099427f1603d55600060006146e06000600060106209a58ef1603e55600060006148006000600060106209c181f1603f55600060006149206000600060106209dd1af160405560006000614a406000600060106209f859f160415560006000614b60600060006010620a133ef160425560006000614c80600060006010620a39bdf160435560006000614da0600060006010620a541bf160445560006000614ec0600060006010620a6e1ff160455560006000614fe0600060006010620a87c9f160465560006000615100600060006010620aadc1f160475560006000615220600060006010620ac6e4f160485560006000615340600060006010620adfadf160495560006000615460600060006010620af81cf1604a5560006000615580600060006010620b1d8df1604b55600060006156a0600060006010620b3575f1604c55600060006157c0600060006010620b4d03f1604d55600060006158e0600060006010620b721af1604e5560006000615a00600060006010620b8921f1604f5560006000615b20600060006010620b9fcef160505560006000615c40600060006010620bb621f160515560006000615d60600060006010620bdab1f160525560006000615e80600060006010620bf07df160535560006000615fa0600060006010620c05eff1605455600060006160c0600060006010620c1b07f1605555600060006161e0600060006010620c3f10f160565560006000616300600060006010620c53a1f160575560006000616420600060006010620c67d8f160585560006000616540600060006010620c7bb5f160595560006000616660600060006010620c9f37f1605a5560006000616780600060006010620cb28df1605b55600060006168a0600060006010620cc589f1605c55600060006169c0600060006010620cd82bf1605d5560006000616ae0600060006010620cfb26f1605e5560006000616c00600060006010620d0d41f1605f5560006000616d20600060006010620d1f02f160605560006000616e40600060006010620d3069f160615560006000616f60600060006010620d52ddf160625560006000617080600060006010620d63bdf1606355600060006171a0600060006010620d7443f1606455600060006172c0600060006010620d846ff1606555600060006173e0600060006010620da65cf160665560006000617500600060006010620db601f160675560006000617620600060006010620dc54cf160685560006000617740600060006010620de6dff160695560006000617860600060006010620df5a3f1606a5560006000617980600060006010620e040df1606b5560006000617aa0600060006010620e121df1606c5560006000617bc0600060006010620e3329f1606d5560006000617ce0600060006010620e40b2f1606e5560006000617e00600060006010620e4de1f1606f5560006000617f20600060006010620e5ab6f160705560006000618040600060006010620e7b3bf160715560006000618160600060006010620e8789f160725560006000618280600060006010620e937df1607355600060006183a0600060006010620e9f17f1607455600060006184c0600060006010620ebf15f1607555600060006185e0600060006010620eca28f160765560006000618700600060006010620ed4e1f160775560006000618820600060006010620edf40f160785560006000618940600060006010620efeb7f160795560006000618a60600060006010620f088ff1607a5560006000618b80600060006010620f120df1607b5560006000618ca0600060006010620f1b31f1607c5560006000618dc0600060006010620f3a21f1607d5560006000618ee0600060006010620f42bef1607e5560006000619000600060006010620f4b01f1607f55",
                "storage": {}
            },
            "0xa94f5374fce5edbc8e2a8697c15331677e6ebf0b": {
                "nonce": "0x00",
                "balance": "0x038d7ea4c68000",
                "code": "0x",
                "storage": {}
            }
        },
        "transaction": {
            "nonce": "0x00",
            "gasPrice": "0x0a",
            "gasLimit": [
                "0x05f5e100"
            ],
            "to": "0x0000000000000000000000000000000000001000",
            "value": [
                "0x00"
            ],
            "data": [
                "0x"
            ],
            "sender": "0xa94f5374fce5edbc8e2a8697c15331677e6ebf0b",
            "secretKey": "0x45a915e4d060149eb4365960e6a7a45f334393093061116b197e3240065ff2d8"
        },
        "post": {
            "Prague": [
                {
                    "hash": "0x484c11e86696019dd6cf53509d74c686efee7317d2bb2a828b0a4389ce9ed3de",
                    "logs": "0x1dcc4de8dec75d7aab85b567b6ccd41ad312451b948a7413f0a142fd40d49347",
                    "txbytes": "0xf861800a8405f5e100940000000000000000000000000000000000001000808026a00c80636d627692750a38994c80e17de29770a0e34498f5e6eccd4f233ec21b5fa04c33c43ced36fe3329a16f21f2704902ac998ae26f175265e7b14a6229b1feb1",
                    "indexes": {
                        "data": 0,
                        "gas": 0,
                        "value": 0
                    }
                }
            ]
        },
        "_info": {
            "hash": "0x33604dfae1361d3fae9fe06d440c6a85d77350d1d5e6ef5e92a84991e96f05f8",
            "comment": "`execution-spec-tests` generated test",
            "filling-transition-tool": "Hyperledger Besu evm 24.9-develop-beaee59",
            "description": "Test function documentation:\n\n    Test the BLS12_G2MSM discount gas table in full, by expecting the call to succeed for\n    all possible input lengths because the appropriate amount of gas is provided.\n\n    If any of the calls fail, the test will fail.",
            "url": "https://github.com/ethereum/execution-spec-tests/blob/eip7692@v1.1.0/tests/prague/eip2537_bls_12_381_precompiles/test_bls12_variable_length_input_contracts.py#L225",
            "reference-spec": "https://github.com/ethereum/EIPs/blob/master/EIPS/eip-2537.md",
            "reference-spec-version": "cd0f016ad0c4c68b8b1f5c502ef61ab9353b6e5e"
        }
    }
}