{
    "tests/prague/eip2537_bls_12_381_precompiles/test_bls12_map_fp2_to_g2.py::test_valid[fork_PragueEIP7692-state_test-bls_g2map_-]": {
        "env": {
            "currentCoinbase": "0x2adc25665018aa1fe0e6bc666dac8fc2697ff9ba",
            "currentGasLimit": "0x016345785d8a0000",
            "currentNumber": "0x01",
            "currentTimestamp": "0x03e8",
            "currentRandom": "0x0000000000000000000000000000000000000000000000000000000000000000",
            "currentDifficulty": "0x00",
            "currentBaseFee": "0x07",
            "currentExcessBlobGas": "0x00"
        },
        "pre": {
            "0x0000000000000000000000000000000000001000": {
                "nonce": "0x01",
                "balance": "0x00",
                "code": "0x3660006000376000600036600060006013620124f8f16000553d6001553d600060003e3d600020600255",
                "storage": {}
            },
            "0xa94f5374fce5edbc8e2a8697c15331677e6ebf0b": {
                "nonce": "0x00",
                "balance": "0x038d7ea4c68000",
                "code": "0x",
                "storage": {}
            }
        },
        "transaction": {
            "nonce": "0x00",
            "gasPrice": "0x0a",
            "gasLimit": [
                "0x99bb78"
            ],
            "to": "0x0000000000000000000000000000000000001000",
            "value": [
                "0x00"
            ],
            "data": [
                "0x0000000000000000000000000000000007355d25caf6e7f2f0cb2812ca0e513bd026ed09dda65b177500fa31714e09ea0ded3a078b526bed3307f804d4b93b040000000000000000000000000000000002829ce3c021339ccb5caf3e187f6370e1e2a311dec9b75363117063ab2015603ff52c3d3b98f19c2f65575e99e8b78c"
            ],
            "sender": "0xa94f5374fce5edbc8e2a8697c15331677e6ebf0b",
            "secretKey": "0x45a915e4d060149eb4365960e6a7a45f334393093061116b197e3240065ff2d8"
        },
        "post": {
            "Prague": [
                {
                    "hash": "0x49e3773c56d53abf83e461c54feeeb3a254fc5f3bfe349d749a14d159a60c43d",
                    "logs": "0x1dcc4de8dec75d7aab85b567b6ccd41ad312451b948a7413f0a142fd40d49347",
                    "txbytes": "0xf8e1800a8399bb7894000000000000000000000000000000000000100080b8800000000000000000000000000000000007355d25caf6e7f2f0cb2812ca0e513bd026ed09dda65b177500fa31714e09ea0ded3a078b526bed3307f804d4b93b040000000000000000000000000000000002829ce3c021339ccb5caf3e187f6370e1e2a311dec9b75363117063ab2015603ff52c3d3b98f19c2f65575e99e8b78c25a08f3e82aa03c6320239481ee41d747cdef6c6055e045acb7f2cbbdf34a0746859a05c068def8f6a939604dd0db16c0261eaa74c8b3ced52763b41a94d7af42f640b",
                    "indexes": {
                        "data": 0,
                        "gas": 0,
                        "value": 0
                    }
                }
            ]
        },
        "_info": {
            "hash": "0x4d15afb265485a9b4eeda48503bf7e6491737b963062bec11006cc1fab757699",
            "comment": "`execution-spec-tests` generated test",
            "filling-transition-tool": "Hyperledger Besu evm 24.9-develop-0d63955",
            "description": "Test function documentation:\n\n    Test the BLS12_MAP_FP2_TO_G2 precompile.",
            "url": "https://github.com/ethereum/execution-spec-tests/blob/eip7692@v1.1.1/tests/prague/eip2537_bls_12_381_precompiles/test_bls12_map_fp2_to_g2.py#L36",
            "reference-spec": "https://github.com/ethereum/EIPs/blob/master/EIPS/eip-2537.md",
            "reference-spec-version": "cd0f016ad0c4c68b8b1f5c502ef61ab9353b6e5e"
        }
    },
    "tests/prague/eip2537_bls_12_381_precompiles/test_bls12_map_fp2_to_g2.py::test_valid[fork_PragueEIP7692-state_test-bls_g2map_616263-]": {
        "env": {
            "currentCoinbase": "0x2adc25665018aa1fe0e6bc666dac8fc2697ff9ba",
            "currentGasLimit": "0x016345785d8a0000",
            "currentNumber": "0x01",
            "currentTimestamp": "0x03e8",
            "currentRandom": "0x0000000000000000000000000000000000000000000000000000000000000000",
            "currentDifficulty": "0x00",
            "currentBaseFee": "0x07",
            "currentExcessBlobGas": "0x00"
        },
        "pre": {
            "0x0000000000000000000000000000000000001000": {
                "nonce": "0x01",
                "balance": "0x00",
                "code": "0x3660006000376000600036600060006013620124f8f16000553d6001553d600060003e3d600020600255",
                "storage": {}
            },
            "0xa94f5374fce5edbc8e2a8697c15331677e6ebf0b": {
                "nonce": "0x00",
                "balance": "0x038d7ea4c68000",
                "code": "0x",
                "storage": {}
            }
        },
        "transaction": {
            "nonce": "0x00",
            "gasPrice": "0x0a",
            "gasLimit": [
                "0x99bb78"
            ],
            "to": "0x0000000000000000000000000000000000001000",
            "value": [
                "0x00"
            ],
            "data": [
                "0x00000000000000000000000000000000138879a9559e24cecee8697b8b4ad32cced053138ab913b99872772dc753a2967ed50aabc907937aefb2439ba06cc50c000000000000000000000000000000000a1ae7999ea9bab1dcc9ef8887a6cb6e8f1e22566015428d220b7eec90ffa70ad1f624018a9ad11e78d588bd3617f9f2"
            ],
            "sender": "0xa94f5374fce5edbc8e2a8697c15331677e6ebf0b",
            "secretKey": "0x45a915e4d060149eb4365960e6a7a45f334393093061116b197e3240065ff2d8"
        },
        "post": {
            "Prague": [
                {
                    "hash": "0x5094236dbd191916d1eb3c70eddc9a60ff4dc5d3ddad2b521b24151ff51522f4",
                    "logs": "0x1dcc4de8dec75d7aab85b567b6ccd41ad312451b948a7413f0a142fd40d49347",
                    "txbytes": "0xf8e1800a8399bb7894000000000000000000000000000000000000100080b88000000000000000000000000000000000138879a9559e24cecee8697b8b4ad32cced053138ab913b99872772dc753a2967ed50aabc907937aefb2439ba06cc50c000000000000000000000000000000000a1ae7999ea9bab1dcc9ef8887a6cb6e8f1e22566015428d220b7eec90ffa70ad1f624018a9ad11e78d588bd3617f9f225a0a828c4562398720bd73d93b430376ee8e477d49adf2a533b4218ce230cd25f98a03e16bcc3c57d7b7ea9b92e978e8d818c931b51a520e85976d1caba81a232aa5c",
                    "indexes": {
                        "data": 0,
                        "gas": 0,
                        "value": 0
                    }
                }
            ]
        },
        "_info": {
            "hash": "0xed2a061aab8e074657465416b2b67e01e72bff3f95d889c458a03bab1567357a",
            "comment": "`execution-spec-tests` generated test",
            "filling-transition-tool": "Hyperledger Besu evm 24.9-develop-0d63955",
            "description": "Test function documentation:\n\n    Test the BLS12_MAP_FP2_TO_G2 precompile.",
            "url": "https://github.com/ethereum/execution-spec-tests/blob/eip7692@v1.1.1/tests/prague/eip2537_bls_12_381_precompiles/test_bls12_map_fp2_to_g2.py#L36",
            "reference-spec": "https://github.com/ethereum/EIPs/blob/master/EIPS/eip-2537.md",
            "reference-spec-version": "cd0f016ad0c4c68b8b1f5c502ef61ab9353b6e5e"
        }
    },
    "tests/prague/eip2537_bls_12_381_precompiles/test_bls12_map_fp2_to_g2.py::test_valid[fork_PragueEIP7692-state_test-bls_g2map_6162636465663031-]": {
        "env": {
            "currentCoinbase": "0x2adc25665018aa1fe0e6bc666dac8fc2697ff9ba",
            "currentGasLimit": "0x016345785d8a0000",
            "currentNumber": "0x01",
            "currentTimestamp": "0x03e8",
            "currentRandom": "0x0000000000000000000000000000000000000000000000000000000000000000",
            "currentDifficulty": "0x00",
            "currentBaseFee": "0x07",
            "currentExcessBlobGas": "0x00"
        },
        "pre": {
            "0x0000000000000000000000000000000000001000": {
                "nonce": "0x01",
                "balance": "0x00",
                "code": "0x3660006000376000600036600060006013620124f8f16000553d6001553d600060003e3d600020600255",
                "storage": {}
            },
            "0xa94f5374fce5edbc8e2a8697c15331677e6ebf0b": {
                "nonce": "0x00",
                "balance": "0x038d7ea4c68000",
                "code": "0x",
                "storage": {}
            }
        },
        "transaction": {
            "nonce": "0x00",
            "gasPrice": "0x0a",
            "gasLimit": [
                "0x99bb78"
            ],
            "to": "0x0000000000000000000000000000000000001000",
            "value": [
                "0x00"
            ],
            "data": [
                "0x0000000000000000000000000000000018c16fe362b7dbdfa102e42bdfd3e2f4e6191d479437a59db4eb716986bf08ee1f42634db66bde97d6c16bbfd342b3b8000000000000000000000000000000000e37812ce1b146d998d5f92bdd5ada2a31bfd63dfe18311aa91637b5f279dd045763166aa1615e46a50d8d8f475f184e"
            ],
            "sender": "0xa94f5374fce5edbc8e2a8697c15331677e6ebf0b",
            "secretKey": "0x45a915e4d060149eb4365960e6a7a45f334393093061116b197e3240065ff2d8"
        },
        "post": {
            "Prague": [
                {
                    "hash": "0x553cc294c2c418bd7b0f7390c52bfc692e58866d5c085d755be2ec657256cb4f",
                    "logs": "0x1dcc4de8dec75d7aab85b567b6ccd41ad312451b948a7413f0a142fd40d49347",
                    "txbytes": "0xf8e1800a8399bb7894000000000000000000000000000000000000100080b8800000000000000000000000000000000018c16fe362b7dbdfa102e42bdfd3e2f4e6191d479437a59db4eb716986bf08ee1f42634db66bde97d6c16bbfd342b3b8000000000000000000000000000000000e37812ce1b146d998d5f92bdd5ada2a31bfd63dfe18311aa91637b5f279dd045763166aa1615e46a50d8d8f475f184e25a0f5272a50238c6447b682ed2c3bfab4e1dd1f3b534c92d0efc76b2d9596abbd4aa0190f988388bb7367075e3e7bf0bf0aa0a03aa04d97d605e7eb05aa3c487be7e1",
                    "indexes": {
                        "data": 0,
                        "gas": 0,
                        "value": 0
                    }
                }
            ]
        },
        "_info": {
            "hash": "0x7218f26425b4ccf19e846ffa8046a64e09ce7a3155f8a492a94a28e8c7a8bee8",
            "comment": "`execution-spec-tests` generated test",
            "filling-transition-tool": "Hyperledger Besu evm 24.9-develop-0d63955",
            "description": "Test function documentation:\n\n    Test the BLS12_MAP_FP2_TO_G2 precompile.",
            "url": "https://github.com/ethereum/execution-spec-tests/blob/eip7692@v1.1.1/tests/prague/eip2537_bls_12_381_precompiles/test_bls12_map_fp2_to_g2.py#L36",
            "reference-spec": "https://github.com/ethereum/EIPs/blob/master/EIPS/eip-2537.md",
            "reference-spec-version": "cd0f016ad0c4c68b8b1f5c502ef61ab9353b6e5e"
        }
    },
    "tests/prague/eip2537_bls_12_381_precompiles/test_bls12_map_fp2_to_g2.py::test_valid[fork_PragueEIP7692-state_test-bls_g2map_713132385f717171-]": {
        "env": {
            "currentCoinbase": "0x2adc25665018aa1fe0e6bc666dac8fc2697ff9ba",
            "currentGasLimit": "0x016345785d8a0000",
            "currentNumber": "0x01",
            "currentTimestamp": "0x03e8",
            "currentRandom": "0x0000000000000000000000000000000000000000000000000000000000000000",
            "currentDifficulty": "0x00",
            "currentBaseFee": "0x07",
            "currentExcessBlobGas": "0x00"
        },
        "pre": {
            "0x0000000000000000000000000000000000001000": {
                "nonce": "0x01",
                "balance": "0x00",
                "code": "0x3660006000376000600036600060006013620124f8f16000553d6001553d600060003e3d600020600255",
                "storage": {}
            },
            "0xa94f5374fce5edbc8e2a8697c15331677e6ebf0b": {
                "nonce": "0x00",
                "balance": "0x038d7ea4c68000",
                "code": "0x",
                "storage": {}
            }
        },
        "transaction": {
            "nonce": "0x00",
            "gasPrice": "0x0a",
            "gasLimit": [
                "0x99bb78"
            ],
            "to": "0x0000000000000000000000000000000000001000",
            "value": [
                "0x00"
            ],
            "data": [
                "0x0000000000000000000000000000000008d4a0997b9d52fecf99427abb721f0fa779479963315fe21c6445250de7183e3f63bfdf86570da8929489e421d4ee950000000000000000000000000000000016cb4ccad91ec95aab070f22043916cd6a59c4ca94097f7f510043d48515526dc8eaaea27e586f09151ae613688d5a89"
            ],
            "sender": "0xa94f5374fce5edbc8e2a8697c15331677e6ebf0b",
            "secretKey": "0x45a915e4d060149eb4365960e6a7a45f334393093061116b197e3240065ff2d8"
        },
        "post": {
            "Prague": [
                {
                    "hash": "0x74406e411a4acddf55e5be7654c7bfecf1e99e7afa0219c0798b55ffa441519b",
                    "logs": "0x1dcc4de8dec75d7aab85b567b6ccd41ad312451b948a7413f0a142fd40d49347",
                    "txbytes": "0xf8e1800a8399bb7894000000000000000000000000000000000000100080b8800000000000000000000000000000000008d4a0997b9d52fecf99427abb721f0fa779479963315fe21c6445250de7183e3f63bfdf86570da8929489e421d4ee950000000000000000000000000000000016cb4ccad91ec95aab070f22043916cd6a59c4ca94097f7f510043d48515526dc8eaaea27e586f09151ae613688d5a8925a09e8139e3227d3afe3e07075853f935ef22b9cf9cf4c015c5abcc358543f63fc1a072065a370600fb416a612ceb8cce1d95fdbf7a8a0def6ee84b0b21aa72212f93",
                    "indexes": {
                        "data": 0,
                        "gas": 0,
                        "value": 0
                    }
                }
            ]
        },
        "_info": {
            "hash": "0x29db7d283133e9fcfba65ec8fd484d58e2ce1ce646637f48bc895fc054329b1a",
            "comment": "`execution-spec-tests` generated test",
            "filling-transition-tool": "Hyperledger Besu evm 24.9-develop-0d63955",
            "description": "Test function documentation:\n\n    Test the BLS12_MAP_FP2_TO_G2 precompile.",
            "url": "https://github.com/ethereum/execution-spec-tests/blob/eip7692@v1.1.1/tests/prague/eip2537_bls_12_381_precompiles/test_bls12_map_fp2_to_g2.py#L36",
            "reference-spec": "https://github.com/ethereum/EIPs/blob/master/EIPS/eip-2537.md",
            "reference-spec-version": "cd0f016ad0c4c68b8b1f5c502ef61ab9353b6e5e"
        }
    },
    "tests/prague/eip2537_bls_12_381_precompiles/test_bls12_map_fp2_to_g2.py::test_valid[fork_PragueEIP7692-state_test-bls_g2map_613531325f616161-]": {
        "env": {
            "currentCoinbase": "0x2adc25665018aa1fe0e6bc666dac8fc2697ff9ba",
            "currentGasLimit": "0x016345785d8a0000",
            "currentNumber": "0x01",
            "currentTimestamp": "0x03e8",
            "currentRandom": "0x0000000000000000000000000000000000000000000000000000000000000000",
            "currentDifficulty": "0x00",
            "currentBaseFee": "0x07",
            "currentExcessBlobGas": "0x00"
        },
        "pre": {
            "0x0000000000000000000000000000000000001000": {
                "nonce": "0x01",
                "balance": "0x00",
                "code": "0x3660006000376000600036600060006013620124f8f16000553d6001553d600060003e3d600020600255",
                "storage": {}
            },
            "0xa94f5374fce5edbc8e2a8697c15331677e6ebf0b": {
                "nonce": "0x00",
                "balance": "0x038d7ea4c68000",
                "code": "0x",
                "storage": {}
            }
        },
        "transaction": {
            "nonce": "0x00",
            "gasPrice": "0x0a",
            "gasLimit": [
                "0x99bb78"
            ],
            "to": "0x0000000000000000000000000000000000001000",
            "value": [
                "0x00"
            ],
            "data": [
                "0x0000000000000000000000000000000003f80ce4ff0ca2f576d797a3660e3f65b274285c054feccc3215c879e2c0589d376e83ede13f93c32f05da0f68fd6a1000000000000000000000000000000000006488a837c5413746d868d1efb7232724da10eca410b07d8b505b9363bdccf0a1fc0029bad07d65b15ccfe6dd25e20d"
            ],
            "sender": "0xa94f5374fce5edbc8e2a8697c15331677e6ebf0b",
            "secretKey": "0x45a915e4d060149eb4365960e6a7a45f334393093061116b197e3240065ff2d8"
        },
        "post": {
            "Prague": [
                {
                    "hash": "0x454e78efe4838591e242ea3b4ca8795cde273e0c4318fbcd2d71ee450d60b834",
                    "logs": "0x1dcc4de8dec75d7aab85b567b6ccd41ad312451b948a7413f0a142fd40d49347",
                    "txbytes": "0xf8e1800a8399bb7894000000000000000000000000000000000000100080b8800000000000000000000000000000000003f80ce4ff0ca2f576d797a3660e3f65b274285c054feccc3215c879e2c0589d376e83ede13f93c32f05da0f68fd6a1000000000000000000000000000000000006488a837c5413746d868d1efb7232724da10eca410b07d8b505b9363bdccf0a1fc0029bad07d65b15ccfe6dd25e20d26a0546282bee279d274b10fe5409e5d9622b2774babbcb0dd2dc2576b60fca5a1eaa02eed4462018fdd63269d1e90de639058fc7a0ce76a3dd6120a83f676cc1361d8",
                    "indexes": {
                        "data": 0,
                        "gas": 0,
                        "value": 0
                    }
                }
            ]
        },
        "_info": {
            "hash": "0x6a5219596bd3f443b1112ef10c9b66f82b4acd550c4f5bc344f0a5bbf4e139e9",
            "comment": "`execution-spec-tests` generated test",
            "filling-transition-tool": "Hyperledger Besu evm 24.9-develop-0d63955",
            "description": "Test function documentation:\n\n    Test the BLS12_MAP_FP2_TO_G2 precompile.",
            "url": "https://github.com/ethereum/execution-spec-tests/blob/eip7692@v1.1.1/tests/prague/eip2537_bls_12_381_precompiles/test_bls12_map_fp2_to_g2.py#L36",
            "reference-spec": "https://github.com/ethereum/EIPs/blob/master/EIPS/eip-2537.md",
            "reference-spec-version": "cd0f016ad0c4c68b8b1f5c502ef61ab9353b6e5e"
        }
    },
    "tests/prague/eip2537_bls_12_381_precompiles/test_bls12_map_fp2_to_g2.py::test_valid[fork_PragueEIP7692-state_test-fp_0-]": {
        "env": {
            "currentCoinbase": "0x2adc25665018aa1fe0e6bc666dac8fc2697ff9ba",
            "currentGasLimit": "0x016345785d8a0000",
            "currentNumber": "0x01",
            "currentTimestamp": "0x03e8",
            "currentRandom": "0x0000000000000000000000000000000000000000000000000000000000000000",
            "currentDifficulty": "0x00",
            "currentBaseFee": "0x07",
            "currentExcessBlobGas": "0x00"
        },
        "pre": {
            "0x0000000000000000000000000000000000001000": {
                "nonce": "0x01",
                "balance": "0x00",
                "code": "0x3660006000376000600036600060006013620124f8f16000553d6001553d600060003e3d600020600255",
                "storage": {}
            },
            "0xa94f5374fce5edbc8e2a8697c15331677e6ebf0b": {
                "nonce": "0x00",
                "balance": "0x038d7ea4c68000",
                "code": "0x",
                "storage": {}
            }
        },
        "transaction": {
            "nonce": "0x00",
            "gasPrice": "0x0a",
            "gasLimit": [
                "0x99bb78"
            ],
            "to": "0x0000000000000000000000000000000000001000",
            "value": [
                "0x00"
            ],
            "data": [
                "0x0000000000000000000000000000000000000000000000000000000000000000000000000000000000000000000000000000000000000000000000000000000000000000000000000000000000000000000000000000000000000000000000000000000000000000000000000000000000000000000000000000000000000000"
            ],
            "sender": "0xa94f5374fce5edbc8e2a8697c15331677e6ebf0b",
            "secretKey": "0x45a915e4d060149eb4365960e6a7a45f334393093061116b197e3240065ff2d8"
        },
        "post": {
            "Prague": [
                {
                    "hash": "0xb7b4690f04fac93a0d3242c509e711b19293ebf63fb965db19cdf3bd5d90f8cb",
                    "logs": "0x1dcc4de8dec75d7aab85b567b6ccd41ad312451b948a7413f0a142fd40d49347",
                    "txbytes": "0xf8e1800a8399bb7894000000000000000000000000000000000000100080b880000000000000000000000000000000000000000000000000000000000000000000000000000000000000000000000000000000000000000000000000000000000000000000000000000000000000000000000000000000000000000000000000000000000000000000000000000000000000000000000000000000000000000025a05b57b496e7f734884287bf51cfdbb2114fa38d8869d1303efa7e3e3949b7b1e4a07c43fd21dd29c3fa8212340f58df83653e390f5eb4af3886161e49de2f7f0f6b",
                    "indexes": {
                        "data": 0,
                        "gas": 0,
                        "value": 0
                    }
                }
            ]
        },
        "_info": {
            "hash": "0xe5d54779ee605661d8a2ed7546ccca929728870360f4a172a3a727417f4f604b",
            "comment": "`execution-spec-tests` generated test",
            "filling-transition-tool": "Hyperledger Besu evm 24.9-develop-0d63955",
            "description": "Test function documentation:\n\n    Test the BLS12_MAP_FP2_TO_G2 precompile.",
            "url": "https://github.com/ethereum/execution-spec-tests/blob/eip7692@v1.1.1/tests/prague/eip2537_bls_12_381_precompiles/test_bls12_map_fp2_to_g2.py#L36",
            "reference-spec": "https://github.com/ethereum/EIPs/blob/master/EIPS/eip-2537.md",
            "reference-spec-version": "cd0f016ad0c4c68b8b1f5c502ef61ab9353b6e5e"
        }
    },
    "tests/prague/eip2537_bls_12_381_precompiles/test_bls12_map_fp2_to_g2.py::test_valid[fork_PragueEIP7692-state_test-fp_p_minus_1-]": {
        "env": {
            "currentCoinbase": "0x2adc25665018aa1fe0e6bc666dac8fc2697ff9ba",
            "currentGasLimit": "0x016345785d8a0000",
            "currentNumber": "0x01",
            "currentTimestamp": "0x03e8",
            "currentRandom": "0x0000000000000000000000000000000000000000000000000000000000000000",
            "currentDifficulty": "0x00",
            "currentBaseFee": "0x07",
            "currentExcessBlobGas": "0x00"
        },
        "pre": {
            "0x0000000000000000000000000000000000001000": {
                "nonce": "0x01",
                "balance": "0x00",
                "code": "0x3660006000376000600036600060006013620124f8f16000553d6001553d600060003e3d600020600255",
                "storage": {}
            },
            "0xa94f5374fce5edbc8e2a8697c15331677e6ebf0b": {
                "nonce": "0x00",
                "balance": "0x038d7ea4c68000",
                "code": "0x",
                "storage": {}
            }
        },
        "transaction": {
            "nonce": "0x00",
            "gasPrice": "0x0a",
            "gasLimit": [
                "0x99bb78"
            ],
            "to": "0x0000000000000000000000000000000000001000",
            "value": [
                "0x00"
            ],
            "data": [
                "0x000000000000000000000000000000001a0111ea397fe69a4b1ba7b6434bacd764774b84f38512bf6730d2a0f6b0f6241eabfffeb153ffffb9feffffffffaaaa000000000000000000000000000000001a0111ea397fe69a4b1ba7b6434bacd764774b84f38512bf6730d2a0f6b0f6241eabfffeb153ffffb9feffffffffaaaa"
            ],
            "sender": "0xa94f5374fce5edbc8e2a8697c15331677e6ebf0b",
            "secretKey": "0x45a915e4d060149eb4365960e6a7a45f334393093061116b197e3240065ff2d8"
        },
        "post": {
            "Prague": [
                {
                    "hash": "0xf369d97dd962051ad02d2a992882c7ecd0b6b670fa258cdc1d48004cea88f7ac",
                    "logs": "0x1dcc4de8dec75d7aab85b567b6ccd41ad312451b948a7413f0a142fd40d49347",
                    "txbytes": "0xf8e1800a8399bb7894000000000000000000000000000000000000100080b880000000000000000000000000000000001a0111ea397fe69a4b1ba7b6434bacd764774b84f38512bf6730d2a0f6b0f6241eabfffeb153ffffb9feffffffffaaaa000000000000000000000000000000001a0111ea397fe69a4b1ba7b6434bacd764774b84f38512bf6730d2a0f6b0f6241eabfffeb153ffffb9feffffffffaaaa26a0a9fa006c41d39f1ee6987672efb446547ddae34ad16092f6a530f8d8eb1b73d7a018b4665f75ea6c96fea09430e093a4462f888126a9d901bf9a99c79c279d2f92",
                    "indexes": {
                        "data": 0,
                        "gas": 0,
                        "value": 0
                    }
                }
            ]
        },
        "_info": {
            "hash": "0x860504f1c4114110c7fe589718dd8b257c502f102ec29e9e5efc2e7ccc36ef39",
            "comment": "`execution-spec-tests` generated test",
            "filling-transition-tool": "Hyperledger Besu evm 24.9-develop-0d63955",
            "description": "Test function documentation:\n\n    Test the BLS12_MAP_FP2_TO_G2 precompile.",
            "url": "https://github.com/ethereum/execution-spec-tests/blob/eip7692@v1.1.1/tests/prague/eip2537_bls_12_381_precompiles/test_bls12_map_fp2_to_g2.py#L36",
            "reference-spec": "https://github.com/ethereum/EIPs/blob/master/EIPS/eip-2537.md",
            "reference-spec-version": "cd0f016ad0c4c68b8b1f5c502ef61ab9353b6e5e"
        }
    }
}