{
    "tests/prague/eip7692_eof_v1/eip7620_eof_create/test_subcontainer_validation.py::test_container_combos_valid[fork_CancunEIP7692-blockchain_test_engine-EOFCREATE/RETURNCONTRACT]": {
        "network": "Prague",
        "genesisBlockHeader": {
            "parentHash": "0x0000000000000000000000000000000000000000000000000000000000000000",
            "uncleHash": "0x1dcc4de8dec75d7aab85b567b6ccd41ad312451b948a7413f0a142fd40d49347",
            "coinbase": "0x0000000000000000000000000000000000000000",
            "stateRoot": "0x5492586ff0f01713881a462269919013376fdc40ffb85679aa1a90e8df38b163",
            "transactionsTrie": "0x56e81f171bcc55a6ff8345e692c0f86e5b48e01b996cadc001622fb5e363b421",
            "receiptTrie": "0x56e81f171bcc55a6ff8345e692c0f86e5b48e01b996cadc001622fb5e363b421",
            "bloom": "0x00000000000000000000000000000000000000000000000000000000000000000000000000000000000000000000000000000000000000000000000000000000000000000000000000000000000000000000000000000000000000000000000000000000000000000000000000000000000000000000000000000000000000000000000000000000000000000000000000000000000000000000000000000000000000000000000000000000000000000000000000000000000000000000000000000000000000000000000000000000000000000000000000000000000000000000000000000000000000000000000000000000000000000000000000000000",
            "difficulty": "0x00",
            "number": "0x00",
            "gasLimit": "0x016345785d8a0000",
            "gasUsed": "0x00",
            "timestamp": "0x00",
            "extraData": "0x00",
            "mixHash": "0x0000000000000000000000000000000000000000000000000000000000000000",
            "nonce": "0x0000000000000000",
            "baseFeePerGas": "0x07",
            "withdrawalsRoot": "0x56e81f171bcc55a6ff8345e692c0f86e5b48e01b996cadc001622fb5e363b421",
            "blobGasUsed": "0x00",
            "excessBlobGas": "0x00",
            "parentBeaconBlockRoot": "0x0000000000000000000000000000000000000000000000000000000000000000",
            "hash": "0xce059f4737fb7b799d4492f19cbd28545457115c57a7713867f7a449308f80b4"
        },
        "pre": {
            "0x000f3df6d732807ef1319fb7b8bb8522d0beac02": {
                "nonce": "0x01",
                "balance": "0x00",
                "code": "0x3373fffffffffffffffffffffffffffffffffffffffe14604d57602036146024575f5ffd5b5f35801560495762001fff810690815414603c575f5ffd5b62001fff01545f5260205ff35b5f5ffd5b62001fff42064281555f359062001fff015500",
                "storage": {}
            },
            "0xa94f5374fce5edbc8e2a8697c15331677e6ebf0b": {
                "nonce": "0x00",
                "balance": "0x3635c9adc5dea00000",
                "code": "0x",
                "storage": {}
            },
            "0x0000000000000000000000000000000000001000": {
                "nonce": "0x01",
                "balance": "0x00",
                "code": "0xef00010100040200010011030001003204000000008000046000600060006000ec0061201560015500ef000101000402000100060300010014040000000080000260006000ee00ef00010100040200010001040000000080000000",
                "storage": {}
            }
        },
        "postState": {
            "0x0000000000000000000000000000000000001000": {
                "nonce": "0x02",
                "balance": "0x00",
                "code": "0xef00010100040200010011030001003204000000008000046000600060006000ec0061201560015500ef000101000402000100060300010014040000000080000260006000ee00ef00010100040200010001040000000080000000",
                "storage": {
                    "0x01": "0x2015"
                }
            },
            "0x000f3df6d732807ef1319fb7b8bb8522d0beac02": {
                "nonce": "0x01",
                "balance": "0x00",
                "code": "0x3373fffffffffffffffffffffffffffffffffffffffe14604d57602036146024575f5ffd5b5f35801560495762001fff810690815414603c575f5ffd5b62001fff01545f5260205ff35b5f5ffd5b62001fff42064281555f359062001fff015500",
                "storage": {
                    "0x03e8": "0x03e8"
                }
            },
            "0x2adc25665018aa1fe0e6bc666dac8fc2697ff9ba": {
                "nonce": "0x00",
                "balance": "0x039f60",
                "code": "0x",
                "storage": {}
            },
            "0x6527a8aefdeeb438b0bfb0e197a6f075e8524c74": {
                "nonce": "0x01",
                "balance": "0x00",
                "code": "0xef00010100040200010001040000000080000000",
                "storage": {}
            },
            "0xa94f5374fce5edbc8e2a8697c15331677e6ebf0b": {
                "nonce": "0x01",
                "balance": "0x3635c9adc5de93ecc0",
                "code": "0x",
                "storage": {}
            }
        },
        "lastblockhash": "0x0eb402fae6c9e91cf2c7658044c4f0e2c77a33a9db8d4c78e05e0a8e490b3fba",
        "engineNewPayloads": [
            {
                "params": [
                    {
                        "parentHash": "0xce059f4737fb7b799d4492f19cbd28545457115c57a7713867f7a449308f80b4",
                        "feeRecipient": "0x2adc25665018aa1fe0e6bc666dac8fc2697ff9ba",
                        "stateRoot": "0x295a7cdcb6ef1e21523ab31cad6e1f52c9e575f5712913ec281d46759050384f",
                        "receiptsRoot": "0x5f2759f1b86db1a870c07a7f61ba04874953100ade9f9ecca127c60f786a8643",
                        "logsBloom": "0x00000000000000000000000000000000000000000000000000000000000000000000000000000000000000000000000000000000000000000000000000000000000000000000000000000000000000000000000000000000000000000000000000000000000000000000000000000000000000000000000000000000000000000000000000000000000000000000000000000000000000000000000000000000000000000000000000000000000000000000000000000000000000000000000000000000000000000000000000000000000000000000000000000000000000000000000000000000000000000000000000000000000000000000000000000000",
                        "blockNumber": "0x1",
                        "gasLimit": "0x16345785d8a0000",
                        "gasUsed": "0x13520",
                        "timestamp": "0x3e8",
                        "extraData": "0x00",
                        "prevRandao": "0x0000000000000000000000000000000000000000000000000000000000000000",
                        "baseFeePerGas": "0x7",
                        "blobGasUsed": "0x0",
                        "excessBlobGas": "0x0",
                        "blockHash": "0x0eb402fae6c9e91cf2c7658044c4f0e2c77a33a9db8d4c78e05e0a8e490b3fba",
                        "transactions": [
                            "0xf860800a83989680940000000000000000000000000000000000001000808026a0e5d462429669f661291a8dc4c49a092cfd4922b6f3f31c9189a2f4adf5ecd730a001494afaf472fbb80bcb107ffeb918a2b9115f454027840615d6d20d63c69ac0"
                        ],
                        "withdrawals": []
                    },
                    [],
                    "0x0000000000000000000000000000000000000000000000000000000000000000"
                ],
                "newPayloadVersion": "3",
                "forkchoiceUpdatedVersion": "3"
            }
        ],
        "_info": {
            "hash": "0x21298367325b47e400d3a33019ec1649f702df0aeb9a10226afba339a8b164ce",
            "comment": "`execution-spec-tests` generated test",
            "filling-transition-tool": "evmone-t8n 0.12.0-dev+commit.26d56091",
            "description": "Test function documentation:\nTest valid subcontainer reference / opcode combos",
            "url": "https://github.com/ethereum/execution-spec-tests/tree/v3.0.0/tests/prague/eip7692_eof_v1/eip7620_eof_create/test_subcontainer_validation.py#L142",
            "reference-spec": "https://github.com/ethereum/EIPs/blob/master/EIPS/eip-7620.md",
            "reference-spec-version": "52ddbcdddcf72dd72427c319f2beddeb468e1737"
        }
    },
    "tests/prague/eip7692_eof_v1/eip7620_eof_create/test_subcontainer_validation.py::test_container_combos_valid[fork_CancunEIP7692-blockchain_test_engine-RETURNCONTRACT/STOP]": {
        "network": "Prague",
        "genesisBlockHeader": {
            "parentHash": "0x0000000000000000000000000000000000000000000000000000000000000000",
            "uncleHash": "0x1dcc4de8dec75d7aab85b567b6ccd41ad312451b948a7413f0a142fd40d49347",
            "coinbase": "0x0000000000000000000000000000000000000000",
            "stateRoot": "0x63383dbb17c22d07d7f7768d7e9b528638b61dea59f9484999ffb3463e1ee7d9",
            "transactionsTrie": "0x56e81f171bcc55a6ff8345e692c0f86e5b48e01b996cadc001622fb5e363b421",
            "receiptTrie": "0x56e81f171bcc55a6ff8345e692c0f86e5b48e01b996cadc001622fb5e363b421",
            "bloom": "0x00000000000000000000000000000000000000000000000000000000000000000000000000000000000000000000000000000000000000000000000000000000000000000000000000000000000000000000000000000000000000000000000000000000000000000000000000000000000000000000000000000000000000000000000000000000000000000000000000000000000000000000000000000000000000000000000000000000000000000000000000000000000000000000000000000000000000000000000000000000000000000000000000000000000000000000000000000000000000000000000000000000000000000000000000000000",
            "difficulty": "0x00",
            "number": "0x00",
            "gasLimit": "0x016345785d8a0000",
            "gasUsed": "0x00",
            "timestamp": "0x00",
            "extraData": "0x00",
            "mixHash": "0x0000000000000000000000000000000000000000000000000000000000000000",
            "nonce": "0x0000000000000000",
            "baseFeePerGas": "0x07",
            "withdrawalsRoot": "0x56e81f171bcc55a6ff8345e692c0f86e5b48e01b996cadc001622fb5e363b421",
            "blobGasUsed": "0x00",
            "excessBlobGas": "0x00",
            "parentBeaconBlockRoot": "0x0000000000000000000000000000000000000000000000000000000000000000",
            "hash": "0x75f987ffc84f12861a575922ee8620845a804f7c79f2dfeef0ca352d0fe1c46a"
        },
        "pre": {
            "0x000f3df6d732807ef1319fb7b8bb8522d0beac02": {
                "nonce": "0x01",
                "balance": "0x00",
                "code": "0x3373fffffffffffffffffffffffffffffffffffffffe14604d57602036146024575f5ffd5b5f35801560495762001fff810690815414603c575f5ffd5b62001fff01545f5260205ff35b5f5ffd5b62001fff42064281555f359062001fff015500",
                "storage": {}
            },
            "0xa94f5374fce5edbc8e2a8697c15331677e6ebf0b": {
                "nonce": "0x00",
                "balance": "0x3635c9adc5dea00000",
                "code": "0x",
                "storage": {}
            }
        },
        "postState": {
            "0x000f3df6d732807ef1319fb7b8bb8522d0beac02": {
                "nonce": "0x01",
                "balance": "0x00",
                "code": "0x3373fffffffffffffffffffffffffffffffffffffffe14604d57602036146024575f5ffd5b5f35801560495762001fff810690815414603c575f5ffd5b62001fff01545f5260205ff35b5f5ffd5b62001fff42064281555f359062001fff015500",
                "storage": {
                    "0x03e8": "0x03e8"
                }
            },
            "0x2adc25665018aa1fe0e6bc666dac8fc2697ff9ba": {
                "nonce": "0x00",
                "balance": "0x03a620",
                "code": "0x",
                "storage": {}
            },
            "0x6295ee1b4f6dd65047762f924ecd367c17eabf8f": {
                "nonce": "0x01",
                "balance": "0x00",
                "code": "0xef00010100040200010001040000000080000000",
                "storage": {
                    "0x01": "0x2015"
                }
            },
            "0xa94f5374fce5edbc8e2a8697c15331677e6ebf0b": {
                "nonce": "0x01",
                "balance": "0x3635c9adc5de93d640",
                "code": "0x",
                "storage": {}
            }
        },
        "lastblockhash": "0x3fe098145d33b58e17c58b10e647f90a1c4ab15122d490498c4d0b20323ebe61",
        "engineNewPayloads": [
            {
                "params": [
                    {
                        "parentHash": "0x75f987ffc84f12861a575922ee8620845a804f7c79f2dfeef0ca352d0fe1c46a",
                        "feeRecipient": "0x2adc25665018aa1fe0e6bc666dac8fc2697ff9ba",
                        "stateRoot": "0x6da301b837325800b0ba2e93fda57efd791e434c82ac5a3d2d6598a0f0f8c1fd",
                        "receiptsRoot": "0x1c307588969843ad053a7ed05926cfaaafdd8ebd2c9f1c4b5f575b0156dae6f8",
                        "logsBloom": "0x00000000000000000000000000000000000000000000000000000000000000000000000000000000000000000000000000000000000000000000000000000000000000000000000000000000000000000000000000000000000000000000000000000000000000000000000000000000000000000000000000000000000000000000000000000000000000000000000000000000000000000000000000000000000000000000000000000000000000000000000000000000000000000000000000000000000000000000000000000000000000000000000000000000000000000000000000000000000000000000000000000000000000000000000000000000",
                        "blockNumber": "0x1",
                        "gasLimit": "0x16345785d8a0000",
                        "gasUsed": "0x13760",
                        "timestamp": "0x3e8",
                        "extraData": "0x00",
                        "prevRandao": "0x0000000000000000000000000000000000000000000000000000000000000000",
                        "baseFeePerGas": "0x7",
                        "blobGasUsed": "0x0",
                        "excessBlobGas": "0x0",
                        "blockHash": "0x3fe098145d33b58e17c58b10e647f90a1c4ab15122d490498c4d0b20323ebe61",
                        "transactions": [
                            "0xf885800a839896808080b838ef0001010004020001000c0300010014040000000080000261201560015560006000ee00ef0001010004020001000104000000008000000026a04c94635d68abe83e43036cbe2aa61872d17b0b37db1c951030b1cad05a370587a0375472628a7ef4652e3d64e92ab288b59b46f52ac16f5ca56aefe24d08a51b60"
                        ],
                        "withdrawals": []
                    },
                    [],
                    "0x0000000000000000000000000000000000000000000000000000000000000000"
                ],
                "newPayloadVersion": "3",
                "forkchoiceUpdatedVersion": "3"
            }
        ],
        "_info": {
            "hash": "0x436cbcc110f60b5b88ca3418d89b7a2f4c6f53c6c80d3e83dfafa7910ffc7296",
            "comment": "`execution-spec-tests` generated test",
            "filling-transition-tool": "evmone-t8n 0.12.0-dev+commit.26d56091",
            "description": "Test function documentation:\nTest valid subcontainer reference / opcode combos",
            "url": "https://github.com/ethereum/execution-spec-tests/tree/v3.0.0/tests/prague/eip7692_eof_v1/eip7620_eof_create/test_subcontainer_validation.py#L142",
            "reference-spec": "https://github.com/ethereum/EIPs/blob/master/EIPS/eip-7620.md",
            "reference-spec-version": "52ddbcdddcf72dd72427c319f2beddeb468e1737"
        }
    },
    "tests/prague/eip7692_eof_v1/eip7620_eof_create/test_subcontainer_validation.py::test_container_combos_valid[fork_CancunEIP7692-blockchain_test_engine-RETURNCONTRACT/RETURN]": {
        "network": "Prague",
        "genesisBlockHeader": {
            "parentHash": "0x0000000000000000000000000000000000000000000000000000000000000000",
            "uncleHash": "0x1dcc4de8dec75d7aab85b567b6ccd41ad312451b948a7413f0a142fd40d49347",
            "coinbase": "0x0000000000000000000000000000000000000000",
            "stateRoot": "0x63383dbb17c22d07d7f7768d7e9b528638b61dea59f9484999ffb3463e1ee7d9",
            "transactionsTrie": "0x56e81f171bcc55a6ff8345e692c0f86e5b48e01b996cadc001622fb5e363b421",
            "receiptTrie": "0x56e81f171bcc55a6ff8345e692c0f86e5b48e01b996cadc001622fb5e363b421",
            "bloom": "0x00000000000000000000000000000000000000000000000000000000000000000000000000000000000000000000000000000000000000000000000000000000000000000000000000000000000000000000000000000000000000000000000000000000000000000000000000000000000000000000000000000000000000000000000000000000000000000000000000000000000000000000000000000000000000000000000000000000000000000000000000000000000000000000000000000000000000000000000000000000000000000000000000000000000000000000000000000000000000000000000000000000000000000000000000000000",
            "difficulty": "0x00",
            "number": "0x00",
            "gasLimit": "0x016345785d8a0000",
            "gasUsed": "0x00",
            "timestamp": "0x00",
            "extraData": "0x00",
            "mixHash": "0x0000000000000000000000000000000000000000000000000000000000000000",
            "nonce": "0x0000000000000000",
            "baseFeePerGas": "0x07",
            "withdrawalsRoot": "0x56e81f171bcc55a6ff8345e692c0f86e5b48e01b996cadc001622fb5e363b421",
            "blobGasUsed": "0x00",
            "excessBlobGas": "0x00",
            "parentBeaconBlockRoot": "0x0000000000000000000000000000000000000000000000000000000000000000",
            "hash": "0x75f987ffc84f12861a575922ee8620845a804f7c79f2dfeef0ca352d0fe1c46a"
        },
        "pre": {
            "0x000f3df6d732807ef1319fb7b8bb8522d0beac02": {
                "nonce": "0x01",
                "balance": "0x00",
                "code": "0x3373fffffffffffffffffffffffffffffffffffffffe14604d57602036146024575f5ffd5b5f35801560495762001fff810690815414603c575f5ffd5b62001fff01545f5260205ff35b5f5ffd5b62001fff42064281555f359062001fff015500",
                "storage": {}
            },
            "0xa94f5374fce5edbc8e2a8697c15331677e6ebf0b": {
                "nonce": "0x00",
                "balance": "0x3635c9adc5dea00000",
                "code": "0x",
                "storage": {}
            }
        },
        "postState": {
            "0x000f3df6d732807ef1319fb7b8bb8522d0beac02": {
                "nonce": "0x01",
                "balance": "0x00",
                "code": "0x3373fffffffffffffffffffffffffffffffffffffffe14604d57602036146024575f5ffd5b5f35801560495762001fff810690815414603c575f5ffd5b62001fff01545f5260205ff35b5f5ffd5b62001fff42064281555f359062001fff015500",
                "storage": {
                    "0x03e8": "0x03e8"
                }
            },
            "0x2adc25665018aa1fe0e6bc666dac8fc2697ff9ba": {
                "nonce": "0x00",
                "balance": "0x03b040",
                "code": "0x",
                "storage": {}
            },
            "0x6295ee1b4f6dd65047762f924ecd367c17eabf8f": {
                "nonce": "0x01",
                "balance": "0x00",
                "code": "0xef00010100040200010005040000000080000260006000f3",
                "storage": {
                    "0x01": "0x2015"
                }
            },
            "0xa94f5374fce5edbc8e2a8697c15331677e6ebf0b": {
                "nonce": "0x01",
                "balance": "0x3635c9adc5de93b480",
                "code": "0x",
                "storage": {}
            }
        },
        "lastblockhash": "0x52f62639f419c124a7bba54877a4976f9a5903a2434d57adf84dd60221b09e83",
        "engineNewPayloads": [
            {
                "params": [
                    {
                        "parentHash": "0x75f987ffc84f12861a575922ee8620845a804f7c79f2dfeef0ca352d0fe1c46a",
                        "feeRecipient": "0x2adc25665018aa1fe0e6bc666dac8fc2697ff9ba",
                        "stateRoot": "0x03fc2db7c9ac58a113123169f2fab527ca60e0a70cf607276881b3ded86b0346",
                        "receiptsRoot": "0x4b83bc08f02e00da798d4326c56bff96af4a2d4b01b4807d743c035b1af0daf9",
                        "logsBloom": "0x00000000000000000000000000000000000000000000000000000000000000000000000000000000000000000000000000000000000000000000000000000000000000000000000000000000000000000000000000000000000000000000000000000000000000000000000000000000000000000000000000000000000000000000000000000000000000000000000000000000000000000000000000000000000000000000000000000000000000000000000000000000000000000000000000000000000000000000000000000000000000000000000000000000000000000000000000000000000000000000000000000000000000000000000000000000",
                        "blockNumber": "0x1",
                        "gasLimit": "0x16345785d8a0000",
                        "gasUsed": "0x13ac0",
                        "timestamp": "0x3e8",
                        "extraData": "0x00",
                        "prevRandao": "0x0000000000000000000000000000000000000000000000000000000000000000",
                        "baseFeePerGas": "0x7",
                        "blobGasUsed": "0x0",
                        "excessBlobGas": "0x0",
                        "blockHash": "0x52f62639f419c124a7bba54877a4976f9a5903a2434d57adf84dd60221b09e83",
                        "transactions": [
                            "0xf889800a839896808080b83cef0001010004020001000c0300010018040000000080000261201560015560006000ee00ef00010100040200010005040000000080000260006000f326a0df9cee07c3007bbba1081b759efa7011cc02781f24bf5a452fa331c21713b0bda026356b6166f539b49dbb02944a8c4522568612c5ccc86d0d44200fb04869df82"
                        ],
                        "withdrawals": []
                    },
                    [],
                    "0x0000000000000000000000000000000000000000000000000000000000000000"
                ],
                "newPayloadVersion": "3",
                "forkchoiceUpdatedVersion": "3"
            }
        ],
        "_info": {
            "hash": "0xc0cd113c97ba84976d8a8d0970c6a172a72938df0aa574d8d138c4b6c6e33245",
            "comment": "`execution-spec-tests` generated test",
            "filling-transition-tool": "evmone-t8n 0.12.0-dev+commit.26d56091",
            "description": "Test function documentation:\nTest valid subcontainer reference / opcode combos",
            "url": "https://github.com/ethereum/execution-spec-tests/tree/v3.0.0/tests/prague/eip7692_eof_v1/eip7620_eof_create/test_subcontainer_validation.py#L142",
            "reference-spec": "https://github.com/ethereum/EIPs/blob/master/EIPS/eip-7620.md",
            "reference-spec-version": "52ddbcdddcf72dd72427c319f2beddeb468e1737"
        }
    },
    "tests/prague/eip7692_eof_v1/eip7620_eof_create/test_subcontainer_validation.py::test_container_combos_valid[fork_CancunEIP7692-blockchain_test_engine-EOFCREATE/REVERT]": {
        "network": "Prague",
        "genesisBlockHeader": {
            "parentHash": "0x0000000000000000000000000000000000000000000000000000000000000000",
            "uncleHash": "0x1dcc4de8dec75d7aab85b567b6ccd41ad312451b948a7413f0a142fd40d49347",
            "coinbase": "0x0000000000000000000000000000000000000000",
            "stateRoot": "0x1088a93fc6295034190b77d1f116d7636f31585db21e46d7a1d18dec9275503d",
            "transactionsTrie": "0x56e81f171bcc55a6ff8345e692c0f86e5b48e01b996cadc001622fb5e363b421",
            "receiptTrie": "0x56e81f171bcc55a6ff8345e692c0f86e5b48e01b996cadc001622fb5e363b421",
            "bloom": "0x00000000000000000000000000000000000000000000000000000000000000000000000000000000000000000000000000000000000000000000000000000000000000000000000000000000000000000000000000000000000000000000000000000000000000000000000000000000000000000000000000000000000000000000000000000000000000000000000000000000000000000000000000000000000000000000000000000000000000000000000000000000000000000000000000000000000000000000000000000000000000000000000000000000000000000000000000000000000000000000000000000000000000000000000000000000",
            "difficulty": "0x00",
            "number": "0x00",
            "gasLimit": "0x016345785d8a0000",
            "gasUsed": "0x00",
            "timestamp": "0x00",
            "extraData": "0x00",
            "mixHash": "0x0000000000000000000000000000000000000000000000000000000000000000",
            "nonce": "0x0000000000000000",
            "baseFeePerGas": "0x07",
            "withdrawalsRoot": "0x56e81f171bcc55a6ff8345e692c0f86e5b48e01b996cadc001622fb5e363b421",
            "blobGasUsed": "0x00",
            "excessBlobGas": "0x00",
            "parentBeaconBlockRoot": "0x0000000000000000000000000000000000000000000000000000000000000000",
            "hash": "0x0a0ccdd8a050391d923967f039aed39296059462a45a89215b3ea9448fb3a1eb"
        },
        "pre": {
            "0x000f3df6d732807ef1319fb7b8bb8522d0beac02": {
                "nonce": "0x01",
                "balance": "0x00",
                "code": "0x3373fffffffffffffffffffffffffffffffffffffffe14604d57602036146024575f5ffd5b5f35801560495762001fff810690815414603c575f5ffd5b62001fff01545f5260205ff35b5f5ffd5b62001fff42064281555f359062001fff015500",
                "storage": {}
            },
            "0xa94f5374fce5edbc8e2a8697c15331677e6ebf0b": {
                "nonce": "0x00",
                "balance": "0x3635c9adc5dea00000",
                "code": "0x",
                "storage": {}
            },
            "0x0000000000000000000000000000000000001000": {
                "nonce": "0x01",
                "balance": "0x00",
                "code": "0xef00010100040200010011030001001804000000008000046000600060006000ec0061201560015500ef00010100040200010005040000000080000260006000fd",
                "storage": {}
            }
        },
        "postState": {
            "0x0000000000000000000000000000000000001000": {
                "nonce": "0x02",
                "balance": "0x00",
                "code": "0xef00010100040200010011030001001804000000008000046000600060006000ec0061201560015500ef00010100040200010005040000000080000260006000fd",
                "storage": {
                    "0x01": "0x2015"
                }
            },
            "0x000f3df6d732807ef1319fb7b8bb8522d0beac02": {
                "nonce": "0x01",
                "balance": "0x00",
                "code": "0x3373fffffffffffffffffffffffffffffffffffffffe14604d57602036146024575f5ffd5b5f35801560495762001fff810690815414603c575f5ffd5b62001fff01545f5260205ff35b5f5ffd5b62001fff42064281555f359062001fff015500",
                "storage": {
                    "0x03e8": "0x03e8"
                }
            },
            "0x2adc25665018aa1fe0e6bc666dac8fc2697ff9ba": {
                "nonce": "0x00",
                "balance": "0x03706e",
                "code": "0x",
                "storage": {}
            },
            "0xa94f5374fce5edbc8e2a8697c15331677e6ebf0b": {
                "nonce": "0x01",
                "balance": "0x3635c9adc5de94893c",
                "code": "0x",
                "storage": {}
            }
        },
        "lastblockhash": "0xfaee0c76aeb5fb7a93aa67f0c82b049c05f13e7f71ad213dc8920d770911b44b",
        "engineNewPayloads": [
            {
                "params": [
                    {
                        "parentHash": "0x0a0ccdd8a050391d923967f039aed39296059462a45a89215b3ea9448fb3a1eb",
                        "feeRecipient": "0x2adc25665018aa1fe0e6bc666dac8fc2697ff9ba",
                        "stateRoot": "0x586f4e528461935423e3019e0e064963d583b15a2a711baf2f98d751ec5914a7",
                        "receiptsRoot": "0x183d94099f4ec460b4492433fa22e2d191d0e7ec9887562f08d4f153798063be",
                        "logsBloom": "0x00000000000000000000000000000000000000000000000000000000000000000000000000000000000000000000000000000000000000000000000000000000000000000000000000000000000000000000000000000000000000000000000000000000000000000000000000000000000000000000000000000000000000000000000000000000000000000000000000000000000000000000000000000000000000000000000000000000000000000000000000000000000000000000000000000000000000000000000000000000000000000000000000000000000000000000000000000000000000000000000000000000000000000000000000000000",
                        "blockNumber": "0x1",
                        "gasLimit": "0x16345785d8a0000",
                        "gasUsed": "0x1257a",
                        "timestamp": "0x3e8",
                        "extraData": "0x00",
                        "prevRandao": "0x0000000000000000000000000000000000000000000000000000000000000000",
                        "baseFeePerGas": "0x7",
                        "blobGasUsed": "0x0",
                        "excessBlobGas": "0x0",
                        "blockHash": "0xfaee0c76aeb5fb7a93aa67f0c82b049c05f13e7f71ad213dc8920d770911b44b",
                        "transactions": [
                            "0xf860800a83989680940000000000000000000000000000000000001000808026a0e5d462429669f661291a8dc4c49a092cfd4922b6f3f31c9189a2f4adf5ecd730a001494afaf472fbb80bcb107ffeb918a2b9115f454027840615d6d20d63c69ac0"
                        ],
                        "withdrawals": []
                    },
                    [],
                    "0x0000000000000000000000000000000000000000000000000000000000000000"
                ],
                "newPayloadVersion": "3",
                "forkchoiceUpdatedVersion": "3"
            }
        ],
        "_info": {
            "hash": "0x080b9d8006c980dc56b8763c5b8e67af919d196766fe615207c2bc212903ed1a",
            "comment": "`execution-spec-tests` generated test",
            "filling-transition-tool": "evmone-t8n 0.12.0-dev+commit.26d56091",
            "description": "Test function documentation:\nTest valid subcontainer reference / opcode combos",
            "url": "https://github.com/ethereum/execution-spec-tests/tree/v3.0.0/tests/prague/eip7692_eof_v1/eip7620_eof_create/test_subcontainer_validation.py#L142",
            "reference-spec": "https://github.com/ethereum/EIPs/blob/master/EIPS/eip-7620.md",
            "reference-spec-version": "52ddbcdddcf72dd72427c319f2beddeb468e1737"
        }
    },
    "tests/prague/eip7692_eof_v1/eip7620_eof_create/test_subcontainer_validation.py::test_container_combos_valid[fork_CancunEIP7692-blockchain_test_engine-RETURNCONTRACT/REVERT]": {
        "network": "Prague",
        "genesisBlockHeader": {
            "parentHash": "0x0000000000000000000000000000000000000000000000000000000000000000",
            "uncleHash": "0x1dcc4de8dec75d7aab85b567b6ccd41ad312451b948a7413f0a142fd40d49347",
            "coinbase": "0x0000000000000000000000000000000000000000",
            "stateRoot": "0x63383dbb17c22d07d7f7768d7e9b528638b61dea59f9484999ffb3463e1ee7d9",
            "transactionsTrie": "0x56e81f171bcc55a6ff8345e692c0f86e5b48e01b996cadc001622fb5e363b421",
            "receiptTrie": "0x56e81f171bcc55a6ff8345e692c0f86e5b48e01b996cadc001622fb5e363b421",
            "bloom": "0x00000000000000000000000000000000000000000000000000000000000000000000000000000000000000000000000000000000000000000000000000000000000000000000000000000000000000000000000000000000000000000000000000000000000000000000000000000000000000000000000000000000000000000000000000000000000000000000000000000000000000000000000000000000000000000000000000000000000000000000000000000000000000000000000000000000000000000000000000000000000000000000000000000000000000000000000000000000000000000000000000000000000000000000000000000000",
            "difficulty": "0x00",
            "number": "0x00",
            "gasLimit": "0x016345785d8a0000",
            "gasUsed": "0x00",
            "timestamp": "0x00",
            "extraData": "0x00",
            "mixHash": "0x0000000000000000000000000000000000000000000000000000000000000000",
            "nonce": "0x0000000000000000",
            "baseFeePerGas": "0x07",
            "withdrawalsRoot": "0x56e81f171bcc55a6ff8345e692c0f86e5b48e01b996cadc001622fb5e363b421",
            "blobGasUsed": "0x00",
            "excessBlobGas": "0x00",
            "parentBeaconBlockRoot": "0x0000000000000000000000000000000000000000000000000000000000000000",
            "hash": "0x75f987ffc84f12861a575922ee8620845a804f7c79f2dfeef0ca352d0fe1c46a"
        },
        "pre": {
            "0x000f3df6d732807ef1319fb7b8bb8522d0beac02": {
                "nonce": "0x01",
                "balance": "0x00",
                "code": "0x3373fffffffffffffffffffffffffffffffffffffffe14604d57602036146024575f5ffd5b5f35801560495762001fff810690815414603c575f5ffd5b62001fff01545f5260205ff35b5f5ffd5b62001fff42064281555f359062001fff015500",
                "storage": {}
            },
            "0xa94f5374fce5edbc8e2a8697c15331677e6ebf0b": {
                "nonce": "0x00",
                "balance": "0x3635c9adc5dea00000",
                "code": "0x",
                "storage": {}
            }
        },
        "postState": {
            "0x000f3df6d732807ef1319fb7b8bb8522d0beac02": {
                "nonce": "0x01",
                "balance": "0x00",
                "code": "0x3373fffffffffffffffffffffffffffffffffffffffe14604d57602036146024575f5ffd5b5f35801560495762001fff810690815414603c575f5ffd5b62001fff01545f5260205ff35b5f5ffd5b62001fff42064281555f359062001fff015500",
                "storage": {
                    "0x03e8": "0x03e8"
                }
            },
            "0x2adc25665018aa1fe0e6bc666dac8fc2697ff9ba": {
                "nonce": "0x00",
                "balance": "0x03b040",
                "code": "0x",
                "storage": {}
            },
            "0x6295ee1b4f6dd65047762f924ecd367c17eabf8f": {
                "nonce": "0x01",
                "balance": "0x00",
                "code": "0xef00010100040200010005040000000080000260006000fd",
                "storage": {
                    "0x01": "0x2015"
                }
            },
            "0xa94f5374fce5edbc8e2a8697c15331677e6ebf0b": {
                "nonce": "0x01",
                "balance": "0x3635c9adc5de93b480",
                "code": "0x",
                "storage": {}
            }
        },
        "lastblockhash": "0xd7d0d4b346205ad2922a5257e41b936ac1b1786f8561f701a40759f86f782054",
        "engineNewPayloads": [
            {
                "params": [
                    {
                        "parentHash": "0x75f987ffc84f12861a575922ee8620845a804f7c79f2dfeef0ca352d0fe1c46a",
                        "feeRecipient": "0x2adc25665018aa1fe0e6bc666dac8fc2697ff9ba",
                        "stateRoot": "0xd242dd7ec549844cac02eca23f60ff334eec1ec4d3c0dec417bb5cbcba2b3d48",
                        "receiptsRoot": "0x4b83bc08f02e00da798d4326c56bff96af4a2d4b01b4807d743c035b1af0daf9",
                        "logsBloom": "0x00000000000000000000000000000000000000000000000000000000000000000000000000000000000000000000000000000000000000000000000000000000000000000000000000000000000000000000000000000000000000000000000000000000000000000000000000000000000000000000000000000000000000000000000000000000000000000000000000000000000000000000000000000000000000000000000000000000000000000000000000000000000000000000000000000000000000000000000000000000000000000000000000000000000000000000000000000000000000000000000000000000000000000000000000000000",
                        "blockNumber": "0x1",
                        "gasLimit": "0x16345785d8a0000",
                        "gasUsed": "0x13ac0",
                        "timestamp": "0x3e8",
                        "extraData": "0x00",
                        "prevRandao": "0x0000000000000000000000000000000000000000000000000000000000000000",
                        "baseFeePerGas": "0x7",
                        "blobGasUsed": "0x0",
                        "excessBlobGas": "0x0",
                        "blockHash": "0xd7d0d4b346205ad2922a5257e41b936ac1b1786f8561f701a40759f86f782054",
                        "transactions": [
                            "0xf889800a839896808080b83cef0001010004020001000c0300010018040000000080000261201560015560006000ee00ef00010100040200010005040000000080000260006000fd25a07766ccf2b001d31981438bd4b3622699f825cb98d8b9e9397672c83f45030b28a06b13a594df0e115a2c012e14014e4e7c002eb14088c8173cf9ee65759970848c"
                        ],
                        "withdrawals": []
                    },
                    [],
                    "0x0000000000000000000000000000000000000000000000000000000000000000"
                ],
                "newPayloadVersion": "3",
                "forkchoiceUpdatedVersion": "3"
            }
        ],
        "_info": {
            "hash": "0x8c7b52143134a504be5cfb78560d3830413168bf82e4140431fc20def7aa8508",
            "comment": "`execution-spec-tests` generated test",
            "filling-transition-tool": "evmone-t8n 0.12.0-dev+commit.26d56091",
            "description": "Test function documentation:\nTest valid subcontainer reference / opcode combos",
            "url": "https://github.com/ethereum/execution-spec-tests/tree/v3.0.0/tests/prague/eip7692_eof_v1/eip7620_eof_create/test_subcontainer_validation.py#L142",
            "reference-spec": "https://github.com/ethereum/EIPs/blob/master/EIPS/eip-7620.md",
            "reference-spec-version": "52ddbcdddcf72dd72427c319f2beddeb468e1737"
        }
    }
}