{
    "tests/prague/eip7692_eof_v1/eip4200_relative_jumps/test_rjump.py::test_rjump_zero[fork_CancunEIP7692-blockchain_test_hive]": {
        "network": "Prague",
        "genesisBlockHeader": {
            "parentHash": "0x0000000000000000000000000000000000000000000000000000000000000000",
            "uncleHash": "0x1dcc4de8dec75d7aab85b567b6ccd41ad312451b948a7413f0a142fd40d49347",
            "coinbase": "0x0000000000000000000000000000000000000000",
            "stateRoot": "0x97accc13cd7065af77eaee85131e5d2f06444e6354f378518302297e0653ded7",
            "transactionsTrie": "0x56e81f171bcc55a6ff8345e692c0f86e5b48e01b996cadc001622fb5e363b421",
            "receiptTrie": "0x56e81f171bcc55a6ff8345e692c0f86e5b48e01b996cadc001622fb5e363b421",
            "bloom": "0x00000000000000000000000000000000000000000000000000000000000000000000000000000000000000000000000000000000000000000000000000000000000000000000000000000000000000000000000000000000000000000000000000000000000000000000000000000000000000000000000000000000000000000000000000000000000000000000000000000000000000000000000000000000000000000000000000000000000000000000000000000000000000000000000000000000000000000000000000000000000000000000000000000000000000000000000000000000000000000000000000000000000000000000000000000000",
            "difficulty": "0x00",
            "number": "0x00",
            "gasLimit": "0x016345785d8a0000",
            "gasUsed": "0x00",
            "timestamp": "0x00",
            "extraData": "0x00",
            "mixHash": "0x0000000000000000000000000000000000000000000000000000000000000000",
            "nonce": "0x0000000000000000",
            "baseFeePerGas": "0x07",
            "withdrawalsRoot": "0x56e81f171bcc55a6ff8345e692c0f86e5b48e01b996cadc001622fb5e363b421",
            "blobGasUsed": "0x00",
            "excessBlobGas": "0x00",
            "parentBeaconBlockRoot": "0x0000000000000000000000000000000000000000000000000000000000000000",
            "hash": "0x3426d2936f0e669de8731bcd884d0b33b5a34d1461a913f635a55e57ff742597"
        },
        "pre": {
            "0x000f3df6d732807ef1319fb7b8bb8522d0beac02": {
                "nonce": "0x01",
                "balance": "0x00",
                "code": "0x3373fffffffffffffffffffffffffffffffffffffffe14604d57602036146024575f5ffd5b5f35801560495762001fff810690815414603c575f5ffd5b62001fff01545f5260205ff35b5f5ffd5b62001fff42064281555f359062001fff015500",
                "storage": {}
            },
            "0x0000000000000000000000000000000000001000": {
                "nonce": "0x01",
                "balance": "0x00",
                "code": "0xef0001010004020001000a0400000000800002e0000061201560015500",
                "storage": {}
            },
            "0xa94f5374fce5edbc8e2a8697c15331677e6ebf0b": {
                "nonce": "0x00",
                "balance": "0x3635c9adc5dea00000",
                "code": "0x",
                "storage": {}
            }
        },
        "postState": {
            "0x0000000000000000000000000000000000001000": {
                "nonce": "0x01",
                "balance": "0x00",
                "code": "0xef0001010004020001000a0400000000800002e0000061201560015500",
                "storage": {
                    "0x01": "0x2015"
                }
            },
            "0x000f3df6d732807ef1319fb7b8bb8522d0beac02": {
                "nonce": "0x01",
                "balance": "0x00",
                "code": "0x3373fffffffffffffffffffffffffffffffffffffffe14604d57602036146024575f5ffd5b5f35801560495762001fff810690815414603c575f5ffd5b62001fff01545f5260205ff35b5f5ffd5b62001fff42064281555f359062001fff015500",
                "storage": {
                    "0x03e8": "0x03e8"
                }
            },
            "0x2adc25665018aa1fe0e6bc666dac8fc2697ff9ba": {
                "nonce": "0x00",
                "balance": "0x01f92c",
                "code": "0x",
                "storage": {}
            },
            "0xa94f5374fce5edbc8e2a8697c15331677e6ebf0b": {
                "nonce": "0x01",
                "balance": "0x3635c9adc5de996c18",
                "code": "0x",
                "storage": {}
            }
        },
        "engineNewPayloads": [
            {
                "executionPayload": {
                    "parentHash": "0x3426d2936f0e669de8731bcd884d0b33b5a34d1461a913f635a55e57ff742597",
                    "feeRecipient": "0x2adc25665018aa1fe0e6bc666dac8fc2697ff9ba",
                    "stateRoot": "0x914c87c0c258dfb37aa5378a93a43ea9b9f1171985ae720b5ada2f1e4e785685",
                    "receiptsRoot": "0x9593f56abf23bcbb26d27b0c6e46a56415d9103ed6b4d8ac7b4182f9f250cafa",
                    "logsBloom": "0x00000000000000000000000000000000000000000000000000000000000000000000000000000000000000000000000000000000000000000000000000000000000000000000000000000000000000000000000000000000000000000000000000000000000000000000000000000000000000000000000000000000000000000000000000000000000000000000000000000000000000000000000000000000000000000000000000000000000000000000000000000000000000000000000000000000000000000000000000000000000000000000000000000000000000000000000000000000000000000000000000000000000000000000000000000000",
                    "blockNumber": "0x1",
                    "gasLimit": "0x16345785d8a0000",
                    "gasUsed": "0xa864",
                    "timestamp": "0x3e8",
                    "extraData": "0x00",
                    "prevRandao": "0x0000000000000000000000000000000000000000000000000000000000000000",
                    "baseFeePerGas": "0x7",
                    "blobGasUsed": "0x0",
                    "excessBlobGas": "0x0",
                    "blockHash": "0x406f5b318575ae2ee9c6a84f3e56af5b51d19ae764508969f3c03fce5b142393",
                    "transactions": [
                        "0xf860800a8398968094000000000000000000000000000000000000100080801ba00a827f57dab1e27137696202f240cb95cfc25acf2f077f6b32a7ca3ac039baf0a055fdd3269172368d880a16fa4192049edd5211d8cbb1d5222a0a77b11174d574"
                    ],
                    "withdrawals": []
                },
                "version": "3",
                "expectedBlobVersionedHashes": [],
                "parentBeaconBlockRoot": "0x0000000000000000000000000000000000000000000000000000000000000000"
            }
        ],
        "engineFcuVersion": "3",
        "_info": {
            "hash": "0x42bedabfca6938a8728d51f3491f37397a8c500fab683eea897bf7804fc7ba90",
            "comment": "`execution-spec-tests` generated test",
            "filling-transition-tool": "evmone-t8n 0.12.0-dev+commit.85a89e56",
            "description": "Test function documentation:\nEOF1V4200_0002 (Valid) EOF code containing RJUMP (Zero)",
            "url": "https://github.com/ethereum/execution-spec-tests/blob/eip7692@v1.0.4/tests/prague/eip7692_eof_v1/eip4200_relative_jumps/test_rjump.py#L63",
            "reference-spec": "https://github.com/ethereum/EIPs/blob/master/EIPS/eip-4200.md",
            "reference-spec-version": "17d4a8d12d2b5e0f2985c866376c16c8c6df7cba"
        }
    }
}