{
    "tests/verkle/eip4762_verkle_gas_witness/test_coinbase_fees.py::test_coinbase_fees[fork_Verkle-blockchain_test-priority_fee_0]": {
        "network": "Verkle",
        "genesisBlockHeader": {
            "parentHash": "0x0000000000000000000000000000000000000000000000000000000000000000",
            "uncleHash": "0x1dcc4de8dec75d7aab85b567b6ccd41ad312451b948a7413f0a142fd40d49347",
            "coinbase": "0x0000000000000000000000000000000000000000",
            "stateRoot": "0x3901899f4bfd31a5d77611f70c4eb98cffdbbe5280fba656631f04336afe6f5a",
            "transactionsTrie": "0x56e81f171bcc55a6ff8345e692c0f86e5b48e01b996cadc001622fb5e363b421",
            "receiptTrie": "0x56e81f171bcc55a6ff8345e692c0f86e5b48e01b996cadc001622fb5e363b421",
            "bloom": "0x00000000000000000000000000000000000000000000000000000000000000000000000000000000000000000000000000000000000000000000000000000000000000000000000000000000000000000000000000000000000000000000000000000000000000000000000000000000000000000000000000000000000000000000000000000000000000000000000000000000000000000000000000000000000000000000000000000000000000000000000000000000000000000000000000000000000000000000000000000000000000000000000000000000000000000000000000000000000000000000000000000000000000000000000000000000",
            "difficulty": "0x00",
            "number": "0x00",
            "gasLimit": "0x02540be400",
            "gasUsed": "0x00",
            "timestamp": "0x00",
            "extraData": "0x00",
            "mixHash": "0x0000000000000000000000000000000000000000000000000000000000000000",
            "nonce": "0x0000000000000000",
            "baseFeePerGas": "0x07",
            "withdrawalsRoot": "0x56e81f171bcc55a6ff8345e692c0f86e5b48e01b996cadc001622fb5e363b421",
            "hash": "0x00b2e892fbf04dcdbb33d71633d7cea0722aed27f8a9d0cf9912f97b34f9dadd"
        },
        "pre": {
            "0xfffffffffffffffffffffffffffffffffffffffe": {
                "nonce": "0x01",
                "balance": "0x00",
                "code": "0x60203611603157600143035f35116029575f356120000143116029576120005f3506545f5260205ff35b5f5f5260205ff35b5f5ffd00",
                "storage": {}
            },
            "0xa94f5374fce5edbc8e2a8697c15331677e6ebf0b": {
                "nonce": "0x00",
                "balance": "0x3635c9adc5dea00000",
                "code": "0x",
                "storage": {}
            }
        },
        "lastblockhash": "0xf87c6b8a5828b71085b8c3d9298a345be24f5b9b87b918944eab6f319526f906",
        "genesisRLP": "0xf9021af90214a00000000000000000000000000000000000000000000000000000000000000000a01dcc4de8dec75d7aab85b567b6ccd41ad312451b948a7413f0a142fd40d49347940000000000000000000000000000000000000000a03901899f4bfd31a5d77611f70c4eb98cffdbbe5280fba656631f04336afe6f5aa056e81f171bcc55a6ff8345e692c0f86e5b48e01b996cadc001622fb5e363b421a056e81f171bcc55a6ff8345e692c0f86e5b48e01b996cadc001622fb5e363b421b901000000000000000000000000000000000000000000000000000000000000000000000000000000000000000000000000000000000000000000000000000000000000000000000000000000000000000000000000000000000000000000000000000000000000000000000000000000000000000000000000000000000000000000000000000000000000000000000000000000000000000000000000000000000000000000000000000000000000000000000000000000000000000000000000000000000000000000000000000000000000000000000000000000000000000000000000000000000000000000000000000000000000000000000000000000000080808502540be400808000a0000000000000000000000000000000000000000000000000000000000000000088000000000000000007a056e81f171bcc55a6ff8345e692c0f86e5b48e01b996cadc001622fb5e363b421c0c0c0",
        "blocks": [
            {
                "blockHeader": {
                    "parentHash": "0x00b2e892fbf04dcdbb33d71633d7cea0722aed27f8a9d0cf9912f97b34f9dadd",
                    "uncleHash": "0x1dcc4de8dec75d7aab85b567b6ccd41ad312451b948a7413f0a142fd40d49347",
                    "coinbase": "0x2adc25665018aa1fe0e6bc666dac8fc2697ff9ba",
                    "stateRoot": "0x5b29f27c32e46053298adb8b2ff01e2c256c6eb033d15190695ef08508505c60",
                    "transactionsTrie": "0xa248f1bb6292fc7aab67ec1fd827f64a471c2fa61b25d397e91f7fdf3f76abde",
                    "receiptTrie": "0xf78dfb743fbd92ade140711c8bbc542b5e307f0ab7984eff35d751969fe57efa",
                    "bloom": "0x00000000000000000000000000000000000000000000000000000000000000000000000000000000000000000000000000000000000000000000000000000000000000000000000000000000000000000000000000000000000000000000000000000000000000000000000000000000000000000000000000000000000000000000000000000000000000000000000000000000000000000000000000000000000000000000000000000000000000000000000000000000000000000000000000000000000000000000000000000000000000000000000000000000000000000000000000000000000000000000000000000000000000000000000000000000",
                    "difficulty": "0x00",
                    "number": "0x01",
                    "gasLimit": "0x02540be400",
                    "gasUsed": "0x5208",
                    "timestamp": "0x0c",
                    "extraData": "0x",
                    "mixHash": "0x0000000000000000000000000000000000000000000000000000000000000000",
                    "nonce": "0x0000000000000000",
                    "baseFeePerGas": "0x07",
                    "withdrawalsRoot": "0x56e81f171bcc55a6ff8345e692c0f86e5b48e01b996cadc001622fb5e363b421",
                    "hash": "0xf87c6b8a5828b71085b8c3d9298a345be24f5b9b87b918944eab6f319526f906"
                },
                "transactions": [
                    {
                        "type": "0x02",
                        "chainId": "0x01",
                        "nonce": "0x00",
                        "maxPriorityFeePerGas": "0x00",
                        "maxFeePerGas": "0x03e8",
                        "gasLimit": "0x0f4240",
                        "to": "0x8a0a19589531694250d570040a0c4b74576919b8",
                        "value": "0x64",
                        "data": "0x",
                        "accessList": [],
                        "v": "0x00",
                        "r": "0x7f0a275a3638b76e2ab17d07e571f95c1a7182092c0c5b773fd4f04b18f2aa49",
                        "s": "0x6c941299e6842552ff9f792896b20ad86a85fe1ef95a5d0a2d43379f81050915",
                        "sender": "0xa94f5374fce5edbc8e2a8697c15331677e6ebf0b"
                    }
                ],
                "uncleHeaders": [],
                "withdrawals": [],
                "witness": {
                    "stateDiff": [
                        {
                            "stem": "0x0365b079a274a1808d56484ce5bd97914629907d75767f51439102e22cd50d",
                            "suffixDiffs": [
                                {
                                    "suffix": 0,
                                    "currentValue": "0x00000000000000000000000000000000000000000000003635c9adc5dea00000",
                                    "newValue": "0x00000000000000000000000000000001000000000000003635c9adc5de9dc164"
                                },
                                {
                                    "suffix": 1,
                                    "currentValue": "0xc5d2460186f7233c927e7db2dcc703c0e500b653ca82273b7bfad8045d85a470",
                                    "newValue": null
                                }
                            ]
                        },
                        {
                            "stem": "0x5b5fdfedd6a0e932da408ac7d772a36513d1eee9b9926e52620c43a433aad7",
                            "suffixDiffs": [
                                {
                                    "suffix": 64,
                                    "newValue": "0x00b2e892fbf04dcdbb33d71633d7cea0722aed27f8a9d0cf9912f97b34f9dadd",
                                    "currentValue": null
                                }
                            ]
                        },
                        {
                            "stem": "0xecb505156708480caf702cd85124f67f3ed78ae4bc890a6dcb62574ba9a90c",
                            "suffixDiffs": [
                                {
                                    "suffix": 0,
                                    "newValue": "0x0000000000000000000000000000000000000000000000000000000000000064",
                                    "currentValue": null
                                },
                                {
                                    "suffix": 1,
                                    "newValue": "0xc5d2460186f7233c927e7db2dcc703c0e500b653ca82273b7bfad8045d85a470",
                                    "currentValue": null
                                }
                            ]
                        }
                    ],
                    "verkleProof": {
                        "otherStems": [],
                        "depthExtensionPresent": "0xa0a08",
                        "commitmentsByPath": [
                            "0x360bcc4c15a10f6f058d1d07e13e9a271da3da0cd69026d5a9ab25e1c0a5d697",
                            "0x324e7b7405bbfae46866bad5c94ac2983093b86f85035fe5984ec40a1b5e5ce3",
                            "0x61506c1cc4f27c9231a546a4b0d249d5f3ba4ba9e63c5ebb84087665eb396e95",
                            "0x4909fc1889e10819cda41706a26373145c4e4575d68b96569af12db69040b6e1"
                        ],
                        "d": "0x0a6a004003fd7008025e0d3b0e59de37bae312c94a33d2a8647653999c449fa4",
                        "ipaProof": {
                            "cl": [
                                "0x17d4caab73f16e69c39f8aea938cab15e0f6fcbb145deed5e813d570bde69ec7",
                                "0x5816a0c300e250b588573fdc991fa3a2a087411d9f53818158be9fa68515558b",
                                "0x64fd2e2aa21cb6cc2e94cf86fdee705ddd45fd0b1ab3723038caaaf3fc6db7fc",
                                "0x62e41829da3288aa87886b59519ad46b0f90fad8fbae362b840760657a427f14",
                                "0x010afc2dfaf00555b08308a5e33e83c011d3beee2c54cb4dd44df1cd9b1a8c04",
                                "0x0251f098b13399a70537997c2e66ecc042115a6628780661ded5d3ef6e819266",
                                "0x2fa05e51dd22fbf6e66a3094e3d7ccc99a5d54ae4cf1e61b181ee0f1975ce548",
                                "0x52706a257dd3beb67bd454856c4f9cc9c3959adfbfafb594b26c73126f55dd02"
                            ],
                            "cr": [
                                "0x67964ac5b0fd0ef558c7343d9053bc374165cb3f28efae33694a3486d6f4fb15",
                                "0x487fb964463810930708187e7ae80f118f6ce3b65e3b3c2531985ec72abdfa7e",
                                "0x7203037823b5c1abc12bea160060b2c7dfe855c9f203b7f412bba4b5cef89512",
                                "0x2f9022c4d80eb40bc307a4a3b9504a9039d1f501c00c6d81550096c7604000b2",
                                "0x1316345b98adf08c8b4604412ea1ccb141d70f6eccb07768e44ed667e6800216",
                                "0x584cc988c9129fa4f8ec085f6ce15f133cb49fc6d1a858499080d203b7d89678",
                                "0x073bfc97eefdbd40d1cc916c411da234a199aeef723472ab73c88edeb092f58c",
                                "0x1190eb9c0238654e19749c4b03b5723dccc68c63fb1fb4befcae3d7a9b3d3b6a"
                            ],
                            "finalEvaluation": "0x0617fbad71085b940062e0430b4d7330cfb5b011407c92bdbb3355444eaeef9b"
                        }
                    }
                },
                "rlp": "0xf90287f90216a000b2e892fbf04dcdbb33d71633d7cea0722aed27f8a9d0cf9912f97b34f9dadda01dcc4de8dec75d7aab85b567b6ccd41ad312451b948a7413f0a142fd40d49347942adc25665018aa1fe0e6bc666dac8fc2697ff9baa05b29f27c32e46053298adb8b2ff01e2c256c6eb033d15190695ef08508505c60a0a248f1bb6292fc7aab67ec1fd827f64a471c2fa61b25d397e91f7fdf3f76abdea0f78dfb743fbd92ade140711c8bbc542b5e307f0ab7984eff35d751969fe57efab901000000000000000000000000000000000000000000000000000000000000000000000000000000000000000000000000000000000000000000000000000000000000000000000000000000000000000000000000000000000000000000000000000000000000000000000000000000000000000000000000000000000000000000000000000000000000000000000000000000000000000000000000000000000000000000000000000000000000000000000000000000000000000000000000000000000000000000000000000000000000000000000000000000000000000000000000000000000000000000000000000000000000000000000000000000000080018502540be4008252080c80a0000000000000000000000000000000000000000000000000000000000000000088000000000000000007a056e81f171bcc55a6ff8345e692c0f86e5b48e01b996cadc001622fb5e363b421f86ab86802f8650180808203e8830f4240948a0a19589531694250d570040a0c4b74576919b86480c080a07f0a275a3638b76e2ab17d07e571f95c1a7182092c0c5b773fd4f04b18f2aa49a06c941299e6842552ff9f792896b20ad86a85fe1ef95a5d0a2d43379f81050915c0c0",
                "blocknumber": "1"
            }
        ],
        "sealEngine": "NoProof",
        "_info": {
            "hash": "0x74302b948e0657947dee0dd89e07f3a4177e1d26121311b6421e8b0b2de70ee6",
            "comment": "`execution-spec-tests` generated test",
            "filling-transition-tool": "evm version 1.12.1-unstable-c329550a-20241022",
            "description": "Test function documentation:\n\n    Test coinbase witness.",
            "url": "https://github.com/ethereum/execution-spec-tests/blob/verkle@v0.0.6/tests/verkle/eip4762_verkle_gas_witness/test_coinbase_fees.py#L27",
            "reference-spec": "https://github.com/ethereum/EIPs/blob/master/EIPS/eip-4762.md",
            "reference-spec-version": "2f8299df31bb8173618901a03a8366a3183479b0"
        }
    },
    "tests/verkle/eip4762_verkle_gas_witness/test_coinbase_fees.py::test_coinbase_fees[fork_Verkle-blockchain_test-priority_fee_100]": {
        "network": "Verkle",
        "genesisBlockHeader": {
            "parentHash": "0x0000000000000000000000000000000000000000000000000000000000000000",
            "uncleHash": "0x1dcc4de8dec75d7aab85b567b6ccd41ad312451b948a7413f0a142fd40d49347",
            "coinbase": "0x0000000000000000000000000000000000000000",
            "stateRoot": "0x3901899f4bfd31a5d77611f70c4eb98cffdbbe5280fba656631f04336afe6f5a",
            "transactionsTrie": "0x56e81f171bcc55a6ff8345e692c0f86e5b48e01b996cadc001622fb5e363b421",
            "receiptTrie": "0x56e81f171bcc55a6ff8345e692c0f86e5b48e01b996cadc001622fb5e363b421",
            "bloom": "0x00000000000000000000000000000000000000000000000000000000000000000000000000000000000000000000000000000000000000000000000000000000000000000000000000000000000000000000000000000000000000000000000000000000000000000000000000000000000000000000000000000000000000000000000000000000000000000000000000000000000000000000000000000000000000000000000000000000000000000000000000000000000000000000000000000000000000000000000000000000000000000000000000000000000000000000000000000000000000000000000000000000000000000000000000000000",
            "difficulty": "0x00",
            "number": "0x00",
            "gasLimit": "0x02540be400",
            "gasUsed": "0x00",
            "timestamp": "0x00",
            "extraData": "0x00",
            "mixHash": "0x0000000000000000000000000000000000000000000000000000000000000000",
            "nonce": "0x0000000000000000",
            "baseFeePerGas": "0x07",
            "withdrawalsRoot": "0x56e81f171bcc55a6ff8345e692c0f86e5b48e01b996cadc001622fb5e363b421",
            "hash": "0x00b2e892fbf04dcdbb33d71633d7cea0722aed27f8a9d0cf9912f97b34f9dadd"
        },
        "pre": {
            "0xfffffffffffffffffffffffffffffffffffffffe": {
                "nonce": "0x01",
                "balance": "0x00",
                "code": "0x60203611603157600143035f35116029575f356120000143116029576120005f3506545f5260205ff35b5f5f5260205ff35b5f5ffd00",
                "storage": {}
            },
            "0xa94f5374fce5edbc8e2a8697c15331677e6ebf0b": {
                "nonce": "0x00",
                "balance": "0x3635c9adc5dea00000",
                "code": "0x",
                "storage": {}
            }
        },
        "lastblockhash": "0xa6ab91a64709172a9114ac0402694b6bee892db859665f2a764f0b44d2bc25e4",
        "genesisRLP": "0xf9021af90214a00000000000000000000000000000000000000000000000000000000000000000a01dcc4de8dec75d7aab85b567b6ccd41ad312451b948a7413f0a142fd40d49347940000000000000000000000000000000000000000a03901899f4bfd31a5d77611f70c4eb98cffdbbe5280fba656631f04336afe6f5aa056e81f171bcc55a6ff8345e692c0f86e5b48e01b996cadc001622fb5e363b421a056e81f171bcc55a6ff8345e692c0f86e5b48e01b996cadc001622fb5e363b421b901000000000000000000000000000000000000000000000000000000000000000000000000000000000000000000000000000000000000000000000000000000000000000000000000000000000000000000000000000000000000000000000000000000000000000000000000000000000000000000000000000000000000000000000000000000000000000000000000000000000000000000000000000000000000000000000000000000000000000000000000000000000000000000000000000000000000000000000000000000000000000000000000000000000000000000000000000000000000000000000000000000000000000000000000000000000080808502540be400808000a0000000000000000000000000000000000000000000000000000000000000000088000000000000000007a056e81f171bcc55a6ff8345e692c0f86e5b48e01b996cadc001622fb5e363b421c0c0c0",
        "blocks": [
            {
                "blockHeader": {
                    "parentHash": "0x00b2e892fbf04dcdbb33d71633d7cea0722aed27f8a9d0cf9912f97b34f9dadd",
                    "uncleHash": "0x1dcc4de8dec75d7aab85b567b6ccd41ad312451b948a7413f0a142fd40d49347",
                    "coinbase": "0x2adc25665018aa1fe0e6bc666dac8fc2697ff9ba",
                    "stateRoot": "0x03d5c733bfd9c6b047eb8cfb3552f187b519e3e7357b50cddb1f30c2a3a289e8",
                    "transactionsTrie": "0xc86b2c42983068b792e215190e9879b82a0b9dbb1e14e8c21299a7b8bda9df70",
                    "receiptTrie": "0xf78dfb743fbd92ade140711c8bbc542b5e307f0ab7984eff35d751969fe57efa",
                    "bloom": "0x00000000000000000000000000000000000000000000000000000000000000000000000000000000000000000000000000000000000000000000000000000000000000000000000000000000000000000000000000000000000000000000000000000000000000000000000000000000000000000000000000000000000000000000000000000000000000000000000000000000000000000000000000000000000000000000000000000000000000000000000000000000000000000000000000000000000000000000000000000000000000000000000000000000000000000000000000000000000000000000000000000000000000000000000000000000",
                    "difficulty": "0x00",
                    "number": "0x01",
                    "gasLimit": "0x02540be400",
                    "gasUsed": "0x5208",
                    "timestamp": "0x0c",
                    "extraData": "0x",
                    "mixHash": "0x0000000000000000000000000000000000000000000000000000000000000000",
                    "nonce": "0x0000000000000000",
                    "baseFeePerGas": "0x07",
                    "withdrawalsRoot": "0x56e81f171bcc55a6ff8345e692c0f86e5b48e01b996cadc001622fb5e363b421",
                    "hash": "0xa6ab91a64709172a9114ac0402694b6bee892db859665f2a764f0b44d2bc25e4"
                },
                "transactions": [
                    {
                        "type": "0x02",
                        "chainId": "0x01",
                        "nonce": "0x00",
                        "maxPriorityFeePerGas": "0x64",
                        "maxFeePerGas": "0x03e8",
                        "gasLimit": "0x0f4240",
                        "to": "0x8a0a19589531694250d570040a0c4b74576919b8",
                        "value": "0x64",
                        "data": "0x",
                        "accessList": [],
                        "v": "0x01",
                        "r": "0xa0c4b7f1ccce1fece721ac3fe808e43650100964df4125928384c8d81a789ae4",
                        "s": "0x7b5721466db50c1e64da074b00977f96c683f3925fdfe1bb6951b90fb39951a1",
                        "sender": "0xa94f5374fce5edbc8e2a8697c15331677e6ebf0b"
                    }
                ],
                "uncleHeaders": [],
                "withdrawals": [],
                "witness": {
                    "stateDiff": [
                        {
                            "stem": "0x0365b079a274a1808d56484ce5bd97914629907d75767f51439102e22cd50d",
                            "suffixDiffs": [
                                {
                                    "suffix": 0,
                                    "currentValue": "0x00000000000000000000000000000000000000000000003635c9adc5dea00000",
                                    "newValue": "0x00000000000000000000000000000001000000000000003635c9adc5de7db644"
                                },
                                {
                                    "suffix": 1,
                                    "currentValue": "0xc5d2460186f7233c927e7db2dcc703c0e500b653ca82273b7bfad8045d85a470",
                                    "newValue": null
                                }
                            ]
                        },
                        {
                            "stem": "0x5b5fdfedd6a0e932da408ac7d772a36513d1eee9b9926e52620c43a433aad7",
                            "suffixDiffs": [
                                {
                                    "suffix": 64,
                                    "newValue": "0x00b2e892fbf04dcdbb33d71633d7cea0722aed27f8a9d0cf9912f97b34f9dadd",
                                    "currentValue": null
                                }
                            ]
                        },
                        {
                            "stem": "0x914ec5f0e0c27fe094862fbd89a6abe684939af6940434d8bf218cedb2d624",
                            "suffixDiffs": [
                                {
                                    "suffix": 0,
                                    "newValue": "0x0000000000000000000000000000000000000000000000000000000000200b20",
                                    "currentValue": null
                                },
                                {
                                    "suffix": 1,
                                    "newValue": "0xc5d2460186f7233c927e7db2dcc703c0e500b653ca82273b7bfad8045d85a470",
                                    "currentValue": null
                                }
                            ]
                        },
                        {
                            "stem": "0xecb505156708480caf702cd85124f67f3ed78ae4bc890a6dcb62574ba9a90c",
                            "suffixDiffs": [
                                {
                                    "suffix": 0,
                                    "newValue": "0x0000000000000000000000000000000000000000000000000000000000000064",
                                    "currentValue": null
                                },
                                {
                                    "suffix": 1,
                                    "newValue": "0xc5d2460186f7233c927e7db2dcc703c0e500b653ca82273b7bfad8045d85a470",
                                    "currentValue": null
                                }
                            ]
                        }
                    ],
                    "verkleProof": {
                        "otherStems": [],
                        "depthExtensionPresent": "0xa0a0808",
                        "commitmentsByPath": [
                            "0x360bcc4c15a10f6f058d1d07e13e9a271da3da0cd69026d5a9ab25e1c0a5d697",
                            "0x324e7b7405bbfae46866bad5c94ac2983093b86f85035fe5984ec40a1b5e5ce3",
                            "0x61506c1cc4f27c9231a546a4b0d249d5f3ba4ba9e63c5ebb84087665eb396e95",
                            "0x4909fc1889e10819cda41706a26373145c4e4575d68b96569af12db69040b6e1"
                        ],
                        "d": "0x530b7b926f178a1ce3fb92922303111735f9e5395f041b8d2b6089dbf9a73c31",
                        "ipaProof": {
                            "cl": [
                                "0x3d87ee7a9da30dba329f168f203cff8690921bf51e03edeb439ccd838abf68af",
                                "0x5ddc74d79bedcd053f53432f873bebceff9acb5e9eb1c55b7b2228c40fab1e9b",
                                "0x67eacc9c3d3cf158686d0196256d9b858d00aede48fe7d74345628fa43e2f423",
                                "0x3a4ee7713b54286822dd4250fe7713ff89bd73f5dd25a8850cb95813df63bdf7",
                                "0x5341f88ef80898f8550f70466b363626c0e5a4749159e24acb4f7b1fade6e1d6",
                                "0x18d2a1b99473a3a8f94bb9032e2a30e9f303bc37950fc0f67cb62825f42808ac",
                                "0x56a7d7f239c132fd999991d2de37bdbc88b0edc780b61e132fd5e57986d20edf",
                                "0x0bab046e2e62e4c51f807df783f9dc3bef37a943c0dfcf01ec0bc9733f144a38"
                            ],
                            "cr": [
                                "0x27e8b165e814dd45d7c628e1f3dcb31b50b0c1818f87cacf2c041b1e42abe5bd",
                                "0x71dc9a4412d0ae3ce105f16d772c62cefbe7088673b523496b37bf16c303dffd",
                                "0x0baed508372a64eca49e8e9cc379b848bedd37d040ac683ccde28debac3793ca",
                                "0x6b96bfb4b9c044137613dc62be2ab377b31fb93a587742bca109525726799b84",
                                "0x0b26a2aa70fe810cadf1d7cf47b7823ede1a4129fdc714c7b8bee60e01d6d0e9",
                                "0x4ae3cd3a9e08425363ca98dce1f264e3cd2fd81a92758a372f412547017dd57e",
                                "0x44ecde38a0a3e046352cac96b63602a73381308fce1c0900197273fe14ab615d",
                                "0x28bf63a6e0aa789d798fd116fb29e3820aefff43aaa5226c28985871ee519f81"
                            ],
                            "finalEvaluation": "0x00095c56030aeac61ba23e9468ddf059f5b2dac95af6a13e78720c44ca7c4ed7"
                        }
                    }
                },
                "rlp": "0xf90287f90216a000b2e892fbf04dcdbb33d71633d7cea0722aed27f8a9d0cf9912f97b34f9dadda01dcc4de8dec75d7aab85b567b6ccd41ad312451b948a7413f0a142fd40d49347942adc25665018aa1fe0e6bc666dac8fc2697ff9baa003d5c733bfd9c6b047eb8cfb3552f187b519e3e7357b50cddb1f30c2a3a289e8a0c86b2c42983068b792e215190e9879b82a0b9dbb1e14e8c21299a7b8bda9df70a0f78dfb743fbd92ade140711c8bbc542b5e307f0ab7984eff35d751969fe57efab901000000000000000000000000000000000000000000000000000000000000000000000000000000000000000000000000000000000000000000000000000000000000000000000000000000000000000000000000000000000000000000000000000000000000000000000000000000000000000000000000000000000000000000000000000000000000000000000000000000000000000000000000000000000000000000000000000000000000000000000000000000000000000000000000000000000000000000000000000000000000000000000000000000000000000000000000000000000000000000000000000000000000000000000000000000000080018502540be4008252080c80a0000000000000000000000000000000000000000000000000000000000000000088000000000000000007a056e81f171bcc55a6ff8345e692c0f86e5b48e01b996cadc001622fb5e363b421f86ab86802f8650180648203e8830f4240948a0a19589531694250d570040a0c4b74576919b86480c001a0a0c4b7f1ccce1fece721ac3fe808e43650100964df4125928384c8d81a789ae4a07b5721466db50c1e64da074b00977f96c683f3925fdfe1bb6951b90fb39951a1c0c0",
                "blocknumber": "1"
            }
        ],
        "sealEngine": "NoProof",
        "_info": {
            "hash": "0x970ead985c19b6f8dbbbfd441226cd05ad399594409fb831349bb350ba0c422b",
            "comment": "`execution-spec-tests` generated test",
            "filling-transition-tool": "evm version 1.12.1-unstable-c329550a-20241022",
            "description": "Test function documentation:\n\n    Test coinbase witness.",
            "url": "https://github.com/ethereum/execution-spec-tests/blob/verkle@v0.0.6/tests/verkle/eip4762_verkle_gas_witness/test_coinbase_fees.py#L27",
            "reference-spec": "https://github.com/ethereum/EIPs/blob/master/EIPS/eip-4762.md",
            "reference-spec-version": "2f8299df31bb8173618901a03a8366a3183479b0"
        }
    }
}