{
    "tests/berlin/eip2929_gas_cost_increases/test_precompile_warming.py::test_precompile_warming[fork_ParisToShanghaiAtTime15k-address_0x0000000000000000000000000000000000000001-precompile_in_successor_True-precompile_in_predecessor_True-blockchain_test]": {
        "network": "ParisToShanghaiAtTime15k",
        "genesisBlockHeader": {
            "parentHash": "0x0000000000000000000000000000000000000000000000000000000000000000",
            "uncleHash": "0x1dcc4de8dec75d7aab85b567b6ccd41ad312451b948a7413f0a142fd40d49347",
            "coinbase": "0x0000000000000000000000000000000000000000",
            "stateRoot": "0x0b5024cde9ae0c3c4fea25c362ca3bdbe461c74a81aa04988a255d30fe14de53",
            "transactionsTrie": "0x56e81f171bcc55a6ff8345e692c0f86e5b48e01b996cadc001622fb5e363b421",
            "receiptTrie": "0x56e81f171bcc55a6ff8345e692c0f86e5b48e01b996cadc001622fb5e363b421",
            "bloom": "0x00000000000000000000000000000000000000000000000000000000000000000000000000000000000000000000000000000000000000000000000000000000000000000000000000000000000000000000000000000000000000000000000000000000000000000000000000000000000000000000000000000000000000000000000000000000000000000000000000000000000000000000000000000000000000000000000000000000000000000000000000000000000000000000000000000000000000000000000000000000000000000000000000000000000000000000000000000000000000000000000000000000000000000000000000000000",
            "difficulty": "0x00",
            "number": "0x00",
            "gasLimit": "0x055d4a80",
            "gasUsed": "0x00",
            "timestamp": "0x00",
            "extraData": "0x00",
            "mixHash": "0x0000000000000000000000000000000000000000000000000000000000000000",
            "nonce": "0x0000000000000000",
            "baseFeePerGas": "0x07",
            "hash": "0xb495b59b97318c1b309011a99ccb335f80daed505589168530092825c4de7702"
        },
        "pre": {
            "0xa94f5374fce5edbc8e2a8697c15331677e6ebf0b": {
                "nonce": "0x00",
                "balance": "0x3635c9adc5dea00000",
                "code": "0x",
                "storage": {}
            },
            "0x1000000000000000000000000000000000001000": {
                "nonce": "0x01",
                "balance": "0x00",
                "code": "0x5a600131505a900360005500",
                "storage": {
                    "0x00": "0xdeadbeef"
                }
            },
            "0x1000000000000000000000000000000000001100": {
                "nonce": "0x01",
                "balance": "0x00",
                "code": "0x5a600131505a900360005500",
                "storage": {
                    "0x00": "0xdeadbeef"
                }
            }
        },
        "postState": {
            "0xa94f5374fce5edbc8e2a8697c15331677e6ebf0b": {
                "nonce": "0x02",
                "balance": "0x3635c9adc5de980788",
                "code": "0x",
                "storage": {}
            },
            "0x1000000000000000000000000000000000001000": {
                "nonce": "0x01",
                "balance": "0x00",
                "code": "0x5a600131505a900360005500",
                "storage": {
                    "0x00": "0x6b"
                }
            },
            "0x1000000000000000000000000000000000001100": {
                "nonce": "0x01",
                "balance": "0x00",
                "code": "0x5a600131505a900360005500",
                "storage": {
                    "0x00": "0x6b"
                }
            },
            "0x2adc25665018aa1fe0e6bc666dac8fc2697ff9ba": {
                "nonce": "0x00",
                "balance": "0x026424",
                "code": "0x",
                "storage": {}
            }
        },
        "lastblockhash": "0xb69607ab0970f238531724f2a9986f3cafd5d16b0c9ccede10d6312a37020850",
        "config": {
            "network": "ParisToShanghaiAtTime15k",
            "chainid": "0x01"
        },
        "genesisRLP": "0xf901f7f901f2a00000000000000000000000000000000000000000000000000000000000000000a01dcc4de8dec75d7aab85b567b6ccd41ad312451b948a7413f0a142fd40d49347940000000000000000000000000000000000000000a00b5024cde9ae0c3c4fea25c362ca3bdbe461c74a81aa04988a255d30fe14de53a056e81f171bcc55a6ff8345e692c0f86e5b48e01b996cadc001622fb5e363b421a056e81f171bcc55a6ff8345e692c0f86e5b48e01b996cadc001622fb5e363b421b9010000000000000000000000000000000000000000000000000000000000000000000000000000000000000000000000000000000000000000000000000000000000000000000000000000000000000000000000000000000000000000000000000000000000000000000000000000000000000000000000000000000000000000000000000000000000000000000000000000000000000000000000000000000000000000000000000000000000000000000000000000000000000000000000000000000000000000000000000000000000000000000000000000000000000000000000000000000000000000000000000000000000000000000000000000000000808084055d4a80808000a0000000000000000000000000000000000000000000000000000000000000000088000000000000000007c0c0",
        "blocks": [
            {
                "blockHeader": {
                    "parentHash": "0xb495b59b97318c1b309011a99ccb335f80daed505589168530092825c4de7702",
                    "uncleHash": "0x1dcc4de8dec75d7aab85b567b6ccd41ad312451b948a7413f0a142fd40d49347",
                    "coinbase": "0x2adc25665018aa1fe0e6bc666dac8fc2697ff9ba",
                    "stateRoot": "0xd7927fcf21d7a40b5cc68716a170d97290d4e2b904ab67c050636d03032a15d3",
                    "transactionsTrie": "0x3e7afb048300da41f34540c3270c489572ce5321dfe35189de9accade98b3a2a",
                    "receiptTrie": "0x8a83406d45a4497363802599ed5049373399e302b9bb0c76005d76e005bafa61",
                    "bloom": "0x00000000000000000000000000000000000000000000000000000000000000000000000000000000000000000000000000000000000000000000000000000000000000000000000000000000000000000000000000000000000000000000000000000000000000000000000000000000000000000000000000000000000000000000000000000000000000000000000000000000000000000000000000000000000000000000000000000000000000000000000000000000000000000000000000000000000000000000000000000000000000000000000000000000000000000000000000000000000000000000000000000000000000000000000000000000",
                    "difficulty": "0x00",
                    "number": "0x01",
                    "gasLimit": "0x055d4a80",
                    "gasUsed": "0x6606",
                    "timestamp": "0x2710",
                    "extraData": "0x",
                    "mixHash": "0x0000000000000000000000000000000000000000000000000000000000000000",
                    "nonce": "0x0000000000000000",
                    "baseFeePerGas": "0x07",
                    "hash": "0x7ddc1ab67aa1af37f32462bd83075503e342e050994a76ca04f4ff3c7801f3f2"
                },
                "transactions": [
                    {
                        "type": "0x00",
                        "chainId": "0x01",
                        "nonce": "0x00",
                        "gasPrice": "0x0a",
                        "gasLimit": "0x0f4240",
                        "to": "0x1000000000000000000000000000000000001000",
                        "value": "0x00",
                        "data": "0x",
                        "v": "0x26",
                        "r": "0xd14a8da0ebd0761712b3c343a6689e02129332b04561269b9ce2f5a80ae151ab",
                        "s": "0x25ccdfcf9b476d04830c6f51ba8bd1144514fdbd4b2de40a29679284ba9cdea3",
                        "sender": "0xa94f5374fce5edbc8e2a8697c15331677e6ebf0b"
                    }
                ],
                "uncleHeaders": [],
                "rlp": "0xf9025ef901f6a0b495b59b97318c1b309011a99ccb335f80daed505589168530092825c4de7702a01dcc4de8dec75d7aab85b567b6ccd41ad312451b948a7413f0a142fd40d49347942adc25665018aa1fe0e6bc666dac8fc2697ff9baa0d7927fcf21d7a40b5cc68716a170d97290d4e2b904ab67c050636d03032a15d3a03e7afb048300da41f34540c3270c489572ce5321dfe35189de9accade98b3a2aa08a83406d45a4497363802599ed5049373399e302b9bb0c76005d76e005bafa61b9010000000000000000000000000000000000000000000000000000000000000000000000000000000000000000000000000000000000000000000000000000000000000000000000000000000000000000000000000000000000000000000000000000000000000000000000000000000000000000000000000000000000000000000000000000000000000000000000000000000000000000000000000000000000000000000000000000000000000000000000000000000000000000000000000000000000000000000000000000000000000000000000000000000000000000000000000000000000000000000000000000000000000000000000000000000000800184055d4a8082660682271080a0000000000000000000000000000000000000000000000000000000000000000088000000000000000007f862f860800a830f4240941000000000000000000000000000000000001000808026a0d14a8da0ebd0761712b3c343a6689e02129332b04561269b9ce2f5a80ae151aba025ccdfcf9b476d04830c6f51ba8bd1144514fdbd4b2de40a29679284ba9cdea3c0",
                "blocknumber": "1"
            },
            {
                "blockHeader": {
                    "parentHash": "0x7ddc1ab67aa1af37f32462bd83075503e342e050994a76ca04f4ff3c7801f3f2",
                    "uncleHash": "0x1dcc4de8dec75d7aab85b567b6ccd41ad312451b948a7413f0a142fd40d49347",
                    "coinbase": "0x2adc25665018aa1fe0e6bc666dac8fc2697ff9ba",
                    "stateRoot": "0x0413d519847627e2c0a1abbdd399d5885732b6665f30271a496487d320854920",
                    "transactionsTrie": "0x963e4adffd66d59e497759f0a46b1b39ff77f7ddfcdb0093a343f3f74eba14c1",
                    "receiptTrie": "0x8a83406d45a4497363802599ed5049373399e302b9bb0c76005d76e005bafa61",
                    "bloom": "0x00000000000000000000000000000000000000000000000000000000000000000000000000000000000000000000000000000000000000000000000000000000000000000000000000000000000000000000000000000000000000000000000000000000000000000000000000000000000000000000000000000000000000000000000000000000000000000000000000000000000000000000000000000000000000000000000000000000000000000000000000000000000000000000000000000000000000000000000000000000000000000000000000000000000000000000000000000000000000000000000000000000000000000000000000000000",
                    "difficulty": "0x00",
                    "number": "0x02",
                    "gasLimit": "0x055d4a80",
                    "gasUsed": "0x6606",
                    "timestamp": "0x4e20",
                    "extraData": "0x",
                    "mixHash": "0x0000000000000000000000000000000000000000000000000000000000000000",
                    "nonce": "0x0000000000000000",
                    "baseFeePerGas": "0x07",
                    "withdrawalsRoot": "0x56e81f171bcc55a6ff8345e692c0f86e5b48e01b996cadc001622fb5e363b421",
                    "hash": "0xb69607ab0970f238531724f2a9986f3cafd5d16b0c9ccede10d6312a37020850"
                },
                "transactions": [
                    {
                        "type": "0x00",
                        "chainId": "0x01",
                        "nonce": "0x01",
                        "gasPrice": "0x0a",
                        "gasLimit": "0x0f4240",
                        "to": "0x1000000000000000000000000000000000001100",
                        "value": "0x00",
                        "data": "0x",
                        "v": "0x26",
                        "r": "0x43a70aff7f30885843eb256f7888057ce4605f9b67ed5868f91d8229f96b6585",
                        "s": "0x4f7824139baa6f0469907394fb619e73b665c85cda2de895fe2726958175a3c6",
                        "sender": "0xa94f5374fce5edbc8e2a8697c15331677e6ebf0b"
                    }
                ],
                "uncleHeaders": [],
                "withdrawals": [],
                "rlp": "0xf90280f90217a07ddc1ab67aa1af37f32462bd83075503e342e050994a76ca04f4ff3c7801f3f2a01dcc4de8dec75d7aab85b567b6ccd41ad312451b948a7413f0a142fd40d49347942adc25665018aa1fe0e6bc666dac8fc2697ff9baa00413d519847627e2c0a1abbdd399d5885732b6665f30271a496487d320854920a0963e4adffd66d59e497759f0a46b1b39ff77f7ddfcdb0093a343f3f74eba14c1a08a83406d45a4497363802599ed5049373399e302b9bb0c76005d76e005bafa61b9010000000000000000000000000000000000000000000000000000000000000000000000000000000000000000000000000000000000000000000000000000000000000000000000000000000000000000000000000000000000000000000000000000000000000000000000000000000000000000000000000000000000000000000000000000000000000000000000000000000000000000000000000000000000000000000000000000000000000000000000000000000000000000000000000000000000000000000000000000000000000000000000000000000000000000000000000000000000000000000000000000000000000000000000000000000000800284055d4a80826606824e2080a0000000000000000000000000000000000000000000000000000000000000000088000000000000000007a056e81f171bcc55a6ff8345e692c0f86e5b48e01b996cadc001622fb5e363b421f862f860010a830f4240941000000000000000000000000000000000001100808026a043a70aff7f30885843eb256f7888057ce4605f9b67ed5868f91d8229f96b6585a04f7824139baa6f0469907394fb619e73b665c85cda2de895fe2726958175a3c6c0c0",
                "blocknumber": "2"
            }
        ],
        "sealEngine": "NoProof",
        "_info": {
            "hash": "0xabefd4f6e2fed00a9adda6db0de6279cf0814bcf82a44262b20d0fb7795d3913",
            "comment": "`execution-spec-tests` generated test",
            "filling-transition-tool": "ethereum-spec-evm-resolver 0.0.5",
            "description": "Call BALANCE of a precompile addresses before and after a fork.\n\n    According to EIP-2929, when a transaction begins, accessed_addresses is initialized to include:\n    - tx.sender, tx.to\n    - and the set of all precompiles\n\n    This test verifies that:\n    1. Precompiles that exist in the predecessor fork are always \"warm\" (lower gas cost)\n    2. New precompiles added in a fork are \"cold\" before the fork and become \"warm\" after",
            "url": "https://github.com/ethereum/execution-spec-tests/blob/969846b736f5f5b0c295fb2765486b7cd7460a21/tests/berlin/eip2929_gas_cost_increases/test_precompile_warming.py#L68",
            "fixture-format": "blockchain_test",
            "reference-spec": "https://github.com/ethereum/EIPs/blob/master/EIPS/eip-2929.md",
            "reference-spec-version": "0e11417265a623adb680c527b15d0cb6701b870b",
            "eels-resolution": {
                "git-url": "https://github.com/marioevz/execution-specs.git",
                "branch": "forks/bpo1",
                "commit": "3387e5f4aedfe99becfdc39b444d6371e25e0924"
            }
        }
    }
}