{
    "tests/prague/eip7692_eof_v1/eip7620_eof_create/test_eofcreate_failures.py::test_insufficient_gas_memory_expansion[fork_PragueEIP7692-state_test]": {
        "env": {
            "currentCoinbase": "0x2adc25665018aa1fe0e6bc666dac8fc2697ff9ba",
            "currentGasLimit": "0x016345785d8a0000",
            "currentNumber": "0x01",
            "currentTimestamp": "0x03e8",
            "currentRandom": "0x0000000000000000000000000000000000000000000000000000000000000000",
            "currentDifficulty": "0x00",
            "currentBaseFee": "0x07",
            "currentExcessBlobGas": "0x00"
        },
        "pre": {
            "0xa94f5374fce5edbc8e2a8697c15331677e6ebf0b": {
                "nonce": "0x00",
                "balance": "0x3635c9adc5dea00000",
                "code": "0x",
                "storage": {}
            },
            "0x0000000000000000000000000000000000001000": {
                "nonce": "0x01",
                "balance": "0x00",
                "code": "0xef0001010004020001001403000100320400000000800004615000600060006000ec00600355600160025500ef000101000402000100060300010014040000000080000260006000ee00ef00010100040200010001040000000080000000",
                "storage": {
                    "0x03": "0x2019",
                    "0x02": "0x2019"
                }
            }
        },
        "transaction": {
            "nonce": "0x00",
            "gasPrice": "0x0a",
            "gasLimit": [
                "0xd9ba"
            ],
            "to": "0x0000000000000000000000000000000000001000",
            "value": [
                "0x00"
            ],
            "data": [
                "0x"
            ],
            "sender": "0xa94f5374fce5edbc8e2a8697c15331677e6ebf0b",
            "secretKey": "0x45a915e4d060149eb4365960e6a7a45f334393093061116b197e3240065ff2d8"
        },
        "post": {
            "Prague": [
                {
                    "hash": "0x9747af5c90023ebcc200c11d992d273843995cdaed32eb2a4e7e2cf695c0c796",
                    "logs": "0x1dcc4de8dec75d7aab85b567b6ccd41ad312451b948a7413f0a142fd40d49347",
                    "txbytes": "0xf85f800a82d9ba94000000000000000000000000000000000000100080801ca01e84e83c14e00ffe82af986006766721c1530add93e99ae48237d56bf82acfbfa055490d211ae4e64a31476307ad1b3c052f08f0b684641df622e7f271cc09adf2",
                    "indexes": {
                        "data": 0,
                        "gas": 0,
                        "value": 0
                    }
                }
            ]
        },
        "_info": {
            "hash": "0x6273b228802ee2e20a421f47de153852176e4b783b437034b745523ba53bc125",
            "comment": "`execution-spec-tests` generated test",
            "filling-transition-tool": "Hyperledger Besu evm 24.9-develop-0d63955",
            "description": "Test function documentation:\n\n    Excercises an EOFCREATE when the memory for auxdata has not been expanded but is requested",
            "url": "https://github.com/ethereum/execution-spec-tests/blob/eip7692@v1.1.1/tests/prague/eip7692_eof_v1/eip7620_eof_create/test_eofcreate_failures.py#L461",
            "reference-spec": "https://github.com/ethereum/EIPs/blob/master/EIPS/eip-7620.md",
            "reference-spec-version": "52ddbcdddcf72dd72427c319f2beddeb468e1737"
        }
    }
}