{
    "tests/verkle/eip4762_verkle_gas_witness/test_sload.py::test_sload_insufficient_gas[fork_Verkle-blockchain_test-missing_1_gas_for_third_slot]": {
        "network": "Verkle",
        "genesisBlockHeader": {
            "parentHash": "0x0000000000000000000000000000000000000000000000000000000000000000",
            "uncleHash": "0x1dcc4de8dec75d7aab85b567b6ccd41ad312451b948a7413f0a142fd40d49347",
            "coinbase": "0x0000000000000000000000000000000000000000",
            "stateRoot": "0x2d7eccd99939c26824080b77b3dc573d1224685966336ac348f9623bb3ff83da",
            "transactionsTrie": "0x56e81f171bcc55a6ff8345e692c0f86e5b48e01b996cadc001622fb5e363b421",
            "receiptTrie": "0x56e81f171bcc55a6ff8345e692c0f86e5b48e01b996cadc001622fb5e363b421",
            "bloom": "0x00000000000000000000000000000000000000000000000000000000000000000000000000000000000000000000000000000000000000000000000000000000000000000000000000000000000000000000000000000000000000000000000000000000000000000000000000000000000000000000000000000000000000000000000000000000000000000000000000000000000000000000000000000000000000000000000000000000000000000000000000000000000000000000000000000000000000000000000000000000000000000000000000000000000000000000000000000000000000000000000000000000000000000000000000000000",
            "difficulty": "0x00",
            "number": "0x00",
            "gasLimit": "0x02540be400",
            "gasUsed": "0x00",
            "timestamp": "0x00",
            "extraData": "0x00",
            "mixHash": "0x0000000000000000000000000000000000000000000000000000000000000000",
            "nonce": "0x0000000000000000",
            "baseFeePerGas": "0x07",
            "withdrawalsRoot": "0x56e81f171bcc55a6ff8345e692c0f86e5b48e01b996cadc001622fb5e363b421",
            "hash": "0xc63e798f9c263d741c339bb1519e36c8254ac091314bc6b1cacd959d2ee680bd"
        },
        "pre": {
            "0xfffffffffffffffffffffffffffffffffffffffe": {
                "nonce": "0x01",
                "balance": "0x00",
                "code": "0x60203611603157600143035f35116029575f356120000143116029576120005f3506545f5260205ff35b5f5f5260205ff35b5f5ffd00",
                "storage": {}
            },
            "0xa94f5374fce5edbc8e2a8697c15331677e6ebf0b": {
                "nonce": "0x00",
                "balance": "0x3635c9adc5dea00000",
                "code": "0x",
                "storage": {}
            },
            "0x8a0a19589531694250d570040a0c4b74576919b8": {
                "nonce": "0x00",
                "balance": "0x00",
                "code": "0x6103e8546103e9546103ea546103eb54",
                "storage": {
                    "0x00": "0xaa",
                    "0x03e8": "0xbb"
                }
            }
        },
        "lastblockhash": "0x869768bf1de691d5d78fbaf4614a9834d6fd2ed3089ea04e0840a8ef2ab06aa8",
        "genesisRLP": "0xf9021af90214a00000000000000000000000000000000000000000000000000000000000000000a01dcc4de8dec75d7aab85b567b6ccd41ad312451b948a7413f0a142fd40d49347940000000000000000000000000000000000000000a02d7eccd99939c26824080b77b3dc573d1224685966336ac348f9623bb3ff83daa056e81f171bcc55a6ff8345e692c0f86e5b48e01b996cadc001622fb5e363b421a056e81f171bcc55a6ff8345e692c0f86e5b48e01b996cadc001622fb5e363b421b901000000000000000000000000000000000000000000000000000000000000000000000000000000000000000000000000000000000000000000000000000000000000000000000000000000000000000000000000000000000000000000000000000000000000000000000000000000000000000000000000000000000000000000000000000000000000000000000000000000000000000000000000000000000000000000000000000000000000000000000000000000000000000000000000000000000000000000000000000000000000000000000000000000000000000000000000000000000000000000000000000000000000000000000000000000000080808502540be400808000a0000000000000000000000000000000000000000000000000000000000000000088000000000000000007a056e81f171bcc55a6ff8345e692c0f86e5b48e01b996cadc001622fb5e363b421c0c0c0",
        "blocks": [
            {
                "blockHeader": {
                    "parentHash": "0xc63e798f9c263d741c339bb1519e36c8254ac091314bc6b1cacd959d2ee680bd",
                    "uncleHash": "0x1dcc4de8dec75d7aab85b567b6ccd41ad312451b948a7413f0a142fd40d49347",
                    "coinbase": "0x2adc25665018aa1fe0e6bc666dac8fc2697ff9ba",
                    "stateRoot": "0x3d3ae611ef61e3f65cae63503196760690266a29305dcb5a6ccab4251d7004da",
                    "transactionsTrie": "0xb9a2861e269b4476c733ef76932efeaeacf68586809c43ed0c88ff96a3ac0fba",
                    "receiptTrie": "0x9de4e5a58fbcc71412ce68c52e795b91b5388581e042da5867c8bc9db4eae70f",
                    "bloom": "0x00000000000000000000000000000000000000000000000000000000000000000000000000000000000000000000000000000000000000000000000000000000000000000000000000000000000000000000000000000000000000000000000000000000000000000000000000000000000000000000000000000000000000000000000000000000000000000000000000000000000000000000000000000000000000000000000000000000000000000000000000000000000000000000000000000000000000000000000000000000000000000000000000000000000000000000000000000000000000000000000000000000000000000000000000000000",
                    "difficulty": "0x00",
                    "number": "0x01",
                    "gasLimit": "0x02540be400",
                    "gasUsed": "0x5c9c",
                    "timestamp": "0x0c",
                    "extraData": "0x",
                    "mixHash": "0x0000000000000000000000000000000000000000000000000000000000000000",
                    "nonce": "0x0000000000000000",
                    "baseFeePerGas": "0x07",
                    "withdrawalsRoot": "0x56e81f171bcc55a6ff8345e692c0f86e5b48e01b996cadc001622fb5e363b421",
                    "hash": "0x869768bf1de691d5d78fbaf4614a9834d6fd2ed3089ea04e0840a8ef2ab06aa8"
                },
                "transactions": [
                    {
                        "type": "0x00",
                        "chainId": "0x01",
                        "nonce": "0x00",
                        "gasPrice": "0x0a",
                        "gasLimit": "0x5c9c",
                        "to": "0x8a0a19589531694250d570040a0c4b74576919b8",
                        "value": "0x00",
                        "data": "0x",
                        "v": "0x25",
                        "r": "0x25da573a482dd15041aa2bc78e96aa3d1c7b7d6c4e4a197b5c48ec1ee3709fec",
                        "s": "0x30ac4019214c30d0b3ba40eb84c6a69a8a5d604ec8ac7d39bb5832b2bc908815",
                        "sender": "0xa94f5374fce5edbc8e2a8697c15331677e6ebf0b"
                    }
                ],
                "uncleHeaders": [],
                "withdrawals": [],
                "witness": {
                    "stateDiff": [
                        {
                            "stem": "0x0365b079a274a1808d56484ce5bd97914629907d75767f51439102e22cd50d",
                            "suffixDiffs": [
                                {
                                    "suffix": 0,
                                    "currentValue": "0x00000000000000000000000000000000000000000000003635c9adc5dea00000",
                                    "newValue": "0x00000000000000000000000000000001000000000000003635c9adc5de9c61e8"
                                },
                                {
                                    "suffix": 1,
                                    "currentValue": "0xc5d2460186f7233c927e7db2dcc703c0e500b653ca82273b7bfad8045d85a470",
                                    "newValue": null
                                }
                            ]
                        },
                        {
                            "stem": "0x5b5fdfedd6a0e932da408ac7d772a36513d1eee9b9926e52620c43a433aad7",
                            "suffixDiffs": [
                                {
                                    "suffix": 64,
                                    "newValue": "0xc63e798f9c263d741c339bb1519e36c8254ac091314bc6b1cacd959d2ee680bd",
                                    "currentValue": null
                                }
                            ]
                        },
                        {
                            "stem": "0x914ec5f0e0c27fe094862fbd89a6abe684939af6940434d8bf218cedb2d624",
                            "suffixDiffs": [
                                {
                                    "suffix": 0,
                                    "newValue": "0x00000000000000000000000000000000000000000000000000000000000115d4",
                                    "currentValue": null
                                },
                                {
                                    "suffix": 1,
                                    "newValue": "0xc5d2460186f7233c927e7db2dcc703c0e500b653ca82273b7bfad8045d85a470",
                                    "currentValue": null
                                }
                            ]
                        },
                        {
                            "stem": "0xdfe5d73a8b35c134aabcf2c924c06c322d9ef2d6606d0592645055c92c18de",
                            "suffixDiffs": [
                                {
                                    "suffix": 232,
                                    "currentValue": "0x00000000000000000000000000000000000000000000000000000000000000bb",
                                    "newValue": null
                                },
                                {
                                    "suffix": 233,
                                    "currentValue": null,
                                    "newValue": null
                                }
                            ]
                        },
                        {
                            "stem": "0xecb505156708480caf702cd85124f67f3ed78ae4bc890a6dcb62574ba9a90c",
                            "suffixDiffs": [
                                {
                                    "suffix": 0,
                                    "currentValue": "0x0000000000000010000000000000000000000000000000000000000000000000",
                                    "newValue": null
                                },
                                {
                                    "suffix": 1,
                                    "currentValue": "0x1a736f68c723845d9f970b7c6f99775a9d67611bf6ce417fc86d6a4ea76a6aa0",
                                    "newValue": null
                                },
                                {
                                    "suffix": 128,
                                    "currentValue": "0x006103e8546103e9546103ea546103eb54000000000000000000000000000000",
                                    "newValue": null
                                }
                            ]
                        }
                    ],
                    "verkleProof": {
                        "otherStems": [],
                        "depthExtensionPresent": "0xa0a080a0a",
                        "commitmentsByPath": [
                            "0x360bcc4c15a10f6f058d1d07e13e9a271da3da0cd69026d5a9ab25e1c0a5d697",
                            "0x324e7b7405bbfae46866bad5c94ac2983093b86f85035fe5984ec40a1b5e5ce3",
                            "0x61506c1cc4f27c9231a546a4b0d249d5f3ba4ba9e63c5ebb84087665eb396e95",
                            "0x4909fc1889e10819cda41706a26373145c4e4575d68b96569af12db69040b6e1",
                            "0x4bfe94d1dd187cbaffa2ce51c1c978d560cb8eb0a510d50a572ed5b07da8256e",
                            "0x219cf151b4aa2423fec983f58e8ab88c7679e934a08b1368522cbfc355e7430b",
                            "0x5ec03782a948b4eed4b5a486c58c94f328dca2b556a43463f933866f87a52591",
                            "0x20b5bd5ad45f0167d56253d4d65cb12b74fe60751c7e71d333c977526d8759a7",
                            "0x37ffc7d1b10dcc7119ec436704dede8782124ba9f72f94f657dba799a465fa2e"
                        ],
                        "d": "0x7091868aa00628c293b61641ae8a76ec47e88d8cfa4e247afdf0f50aae4bda44",
                        "ipaProof": {
                            "cl": [
                                "0x4f29919e6834b0a1af4adae7d5bdf1337ace5ace7b3bc4e1906efcdcf97841d2",
                                "0x19a53300ee24d6b23918edda328b5b58bd478bf1e86ab95f2489733d03378bd5",
                                "0x4777acd7af5d34fc22f039323fbfab5c7e4ca87a8c40b48d2e6ccbfaeea198c6",
                                "0x28ad88c8bc5af0033086530dbc92a40ee19a1ea504b970b46c1afb4493f97aff",
                                "0x54a3184abbe2be4dc077c459adadff80e6de03be527a9d1faa787fb513f97769",
                                "0x65d5f8490b8b81e7cb47d04059fcb16a43a497910049425d553fd5c78bc477c5",
                                "0x60d26dfeee4cb51be220174313985d183b434fa3bc81a61f0a9e72393bd55b53",
                                "0x4a7df0f45ab9cd205d4e57f8a3c855d228fc85b573f8727a615cf39f230d2a42"
                            ],
                            "cr": [
                                "0x2cd472746e881fc1ecd6dc958b07205bd58fc6ead5776785b97ec54410d4ed6c",
                                "0x114b3c537c8e0f542940442d75868eceab2fa77120538475c370931ad44968f4",
                                "0x46d3e14d5f6b551c76f513857568c52e884435181b57e988c6fe7d09fb881efe",
                                "0x71300951e8a7a8c98ffbdcbb3b0956363656ac86af66de3e9a83a2a4d27157dd",
                                "0x3786b660dc29f7f97f71b27b1f7a427cc3df5f76ce9e7eebe9cc615989ebe4fe",
                                "0x12be6ffd2454719d30e4ca1074a608d2514e1f8e148c1279477e73d5c6035c19",
                                "0x27387ea021a7365aa60a1ec8584dab8a07e3e5dc34da7d9961d87a008c2eb5a4",
                                "0x30dff16fd12aec0448c963af352c1c302a7fa55473573f3c9eea480dbe7b660e"
                            ],
                            "finalEvaluation": "0x088a69f4cceea72e8be87cd5f49d5df8b7e38398ba2cfccf418b3436eab569a9"
                        }
                    }
                },
                "rlp": "0xf9027ef90216a0c63e798f9c263d741c339bb1519e36c8254ac091314bc6b1cacd959d2ee680bda01dcc4de8dec75d7aab85b567b6ccd41ad312451b948a7413f0a142fd40d49347942adc25665018aa1fe0e6bc666dac8fc2697ff9baa03d3ae611ef61e3f65cae63503196760690266a29305dcb5a6ccab4251d7004daa0b9a2861e269b4476c733ef76932efeaeacf68586809c43ed0c88ff96a3ac0fbaa09de4e5a58fbcc71412ce68c52e795b91b5388581e042da5867c8bc9db4eae70fb901000000000000000000000000000000000000000000000000000000000000000000000000000000000000000000000000000000000000000000000000000000000000000000000000000000000000000000000000000000000000000000000000000000000000000000000000000000000000000000000000000000000000000000000000000000000000000000000000000000000000000000000000000000000000000000000000000000000000000000000000000000000000000000000000000000000000000000000000000000000000000000000000000000000000000000000000000000000000000000000000000000000000000000000000000000000080018502540be400825c9c0c80a0000000000000000000000000000000000000000000000000000000000000000088000000000000000007a056e81f171bcc55a6ff8345e692c0f86e5b48e01b996cadc001622fb5e363b421f861f85f800a825c9c948a0a19589531694250d570040a0c4b74576919b8808025a025da573a482dd15041aa2bc78e96aa3d1c7b7d6c4e4a197b5c48ec1ee3709feca030ac4019214c30d0b3ba40eb84c6a69a8a5d604ec8ac7d39bb5832b2bc908815c0c0",
                "blocknumber": "1"
            }
        ],
        "sealEngine": "NoProof",
        "_info": {
            "hash": "0x7f74a4387be5f2e62cb572721a4a310ff204a750f7277c0ae94c144530b19417",
            "comment": "`execution-spec-tests` generated test",
            "filling-transition-tool": "evm version 1.12.1-unstable-c329550a-20241022",
            "description": "Test function documentation:\n\n    Test SLOAD with insufficient gas.",
            "url": "https://github.com/ethereum/execution-spec-tests/blob/verkle@v0.0.6/tests/verkle/eip4762_verkle_gas_witness/test_sload.py#L63",
            "reference-spec": "https://github.com/ethereum/EIPs/blob/master/EIPS/eip-4762.md",
            "reference-spec-version": "2f8299df31bb8173618901a03a8366a3183479b0"
        }
    },
    "tests/verkle/eip4762_verkle_gas_witness/test_sload.py::test_sload_insufficient_gas[fork_Verkle-blockchain_test-exact_gas_for_three_slots]": {
        "network": "Verkle",
        "genesisBlockHeader": {
            "parentHash": "0x0000000000000000000000000000000000000000000000000000000000000000",
            "uncleHash": "0x1dcc4de8dec75d7aab85b567b6ccd41ad312451b948a7413f0a142fd40d49347",
            "coinbase": "0x0000000000000000000000000000000000000000",
            "stateRoot": "0x2d7eccd99939c26824080b77b3dc573d1224685966336ac348f9623bb3ff83da",
            "transactionsTrie": "0x56e81f171bcc55a6ff8345e692c0f86e5b48e01b996cadc001622fb5e363b421",
            "receiptTrie": "0x56e81f171bcc55a6ff8345e692c0f86e5b48e01b996cadc001622fb5e363b421",
            "bloom": "0x00000000000000000000000000000000000000000000000000000000000000000000000000000000000000000000000000000000000000000000000000000000000000000000000000000000000000000000000000000000000000000000000000000000000000000000000000000000000000000000000000000000000000000000000000000000000000000000000000000000000000000000000000000000000000000000000000000000000000000000000000000000000000000000000000000000000000000000000000000000000000000000000000000000000000000000000000000000000000000000000000000000000000000000000000000000",
            "difficulty": "0x00",
            "number": "0x00",
            "gasLimit": "0x02540be400",
            "gasUsed": "0x00",
            "timestamp": "0x00",
            "extraData": "0x00",
            "mixHash": "0x0000000000000000000000000000000000000000000000000000000000000000",
            "nonce": "0x0000000000000000",
            "baseFeePerGas": "0x07",
            "withdrawalsRoot": "0x56e81f171bcc55a6ff8345e692c0f86e5b48e01b996cadc001622fb5e363b421",
            "hash": "0xc63e798f9c263d741c339bb1519e36c8254ac091314bc6b1cacd959d2ee680bd"
        },
        "pre": {
            "0xfffffffffffffffffffffffffffffffffffffffe": {
                "nonce": "0x01",
                "balance": "0x00",
                "code": "0x60203611603157600143035f35116029575f356120000143116029576120005f3506545f5260205ff35b5f5f5260205ff35b5f5ffd00",
                "storage": {}
            },
            "0xa94f5374fce5edbc8e2a8697c15331677e6ebf0b": {
                "nonce": "0x00",
                "balance": "0x3635c9adc5dea00000",
                "code": "0x",
                "storage": {}
            },
            "0x8a0a19589531694250d570040a0c4b74576919b8": {
                "nonce": "0x00",
                "balance": "0x00",
                "code": "0x6103e8546103e9546103ea546103eb54",
                "storage": {
                    "0x00": "0xaa",
                    "0x03e8": "0xbb"
                }
            }
        },
        "lastblockhash": "0x38eade7040101214adb948e526606ad63eb868ae744a5ff0e4873bde3fcda769",
        "genesisRLP": "0xf9021af90214a00000000000000000000000000000000000000000000000000000000000000000a01dcc4de8dec75d7aab85b567b6ccd41ad312451b948a7413f0a142fd40d49347940000000000000000000000000000000000000000a02d7eccd99939c26824080b77b3dc573d1224685966336ac348f9623bb3ff83daa056e81f171bcc55a6ff8345e692c0f86e5b48e01b996cadc001622fb5e363b421a056e81f171bcc55a6ff8345e692c0f86e5b48e01b996cadc001622fb5e363b421b901000000000000000000000000000000000000000000000000000000000000000000000000000000000000000000000000000000000000000000000000000000000000000000000000000000000000000000000000000000000000000000000000000000000000000000000000000000000000000000000000000000000000000000000000000000000000000000000000000000000000000000000000000000000000000000000000000000000000000000000000000000000000000000000000000000000000000000000000000000000000000000000000000000000000000000000000000000000000000000000000000000000000000000000000000000000080808502540be400808000a0000000000000000000000000000000000000000000000000000000000000000088000000000000000007a056e81f171bcc55a6ff8345e692c0f86e5b48e01b996cadc001622fb5e363b421c0c0c0",
        "blocks": [
            {
                "blockHeader": {
                    "parentHash": "0xc63e798f9c263d741c339bb1519e36c8254ac091314bc6b1cacd959d2ee680bd",
                    "uncleHash": "0x1dcc4de8dec75d7aab85b567b6ccd41ad312451b948a7413f0a142fd40d49347",
                    "coinbase": "0x2adc25665018aa1fe0e6bc666dac8fc2697ff9ba",
                    "stateRoot": "0x5b523b33a5c612de40ad0cf96af5edc5797c951fb5f0f64b62a1f77afe7d256c",
                    "transactionsTrie": "0xc9d6f245f377f24a937aa812282993d6469bb50c71b1578b3ab02f038a90bcd2",
                    "receiptTrie": "0x8396f8c2edfeb38e92ffc2b00b43d899cefe0573200fc93c7307c70b28c12b73",
                    "bloom": "0x00000000000000000000000000000000000000000000000000000000000000000000000000000000000000000000000000000000000000000000000000000000000000000000000000000000000000000000000000000000000000000000000000000000000000000000000000000000000000000000000000000000000000000000000000000000000000000000000000000000000000000000000000000000000000000000000000000000000000000000000000000000000000000000000000000000000000000000000000000000000000000000000000000000000000000000000000000000000000000000000000000000000000000000000000000000",
                    "difficulty": "0x00",
                    "number": "0x01",
                    "gasLimit": "0x02540be400",
                    "gasUsed": "0x5c9d",
                    "timestamp": "0x0c",
                    "extraData": "0x",
                    "mixHash": "0x0000000000000000000000000000000000000000000000000000000000000000",
                    "nonce": "0x0000000000000000",
                    "baseFeePerGas": "0x07",
                    "withdrawalsRoot": "0x56e81f171bcc55a6ff8345e692c0f86e5b48e01b996cadc001622fb5e363b421",
                    "hash": "0x38eade7040101214adb948e526606ad63eb868ae744a5ff0e4873bde3fcda769"
                },
                "transactions": [
                    {
                        "type": "0x00",
                        "chainId": "0x01",
                        "nonce": "0x00",
                        "gasPrice": "0x0a",
                        "gasLimit": "0x5c9d",
                        "to": "0x8a0a19589531694250d570040a0c4b74576919b8",
                        "value": "0x00",
                        "data": "0x",
                        "v": "0x25",
                        "r": "0xd83b6bdbf1236b5d4b8ab1e2dcbfa01d88aed69038d22963811a1a5c146c983d",
                        "s": "0x1348c98cd17fb69d27e125597bf195b6db459fe3919916eecdfeea5c02bc86a3",
                        "sender": "0xa94f5374fce5edbc8e2a8697c15331677e6ebf0b"
                    }
                ],
                "uncleHeaders": [],
                "withdrawals": [],
                "witness": {
                    "stateDiff": [
                        {
                            "stem": "0x0365b079a274a1808d56484ce5bd97914629907d75767f51439102e22cd50d",
                            "suffixDiffs": [
                                {
                                    "suffix": 0,
                                    "currentValue": "0x00000000000000000000000000000000000000000000003635c9adc5dea00000",
                                    "newValue": "0x00000000000000000000000000000001000000000000003635c9adc5de9c61de"
                                },
                                {
                                    "suffix": 1,
                                    "currentValue": "0xc5d2460186f7233c927e7db2dcc703c0e500b653ca82273b7bfad8045d85a470",
                                    "newValue": null
                                }
                            ]
                        },
                        {
                            "stem": "0x5b5fdfedd6a0e932da408ac7d772a36513d1eee9b9926e52620c43a433aad7",
                            "suffixDiffs": [
                                {
                                    "suffix": 64,
                                    "newValue": "0xc63e798f9c263d741c339bb1519e36c8254ac091314bc6b1cacd959d2ee680bd",
                                    "currentValue": null
                                }
                            ]
                        },
                        {
                            "stem": "0x914ec5f0e0c27fe094862fbd89a6abe684939af6940434d8bf218cedb2d624",
                            "suffixDiffs": [
                                {
                                    "suffix": 0,
                                    "newValue": "0x00000000000000000000000000000000000000000000000000000000000115d7",
                                    "currentValue": null
                                },
                                {
                                    "suffix": 1,
                                    "newValue": "0xc5d2460186f7233c927e7db2dcc703c0e500b653ca82273b7bfad8045d85a470",
                                    "currentValue": null
                                }
                            ]
                        },
                        {
                            "stem": "0xdfe5d73a8b35c134aabcf2c924c06c322d9ef2d6606d0592645055c92c18de",
                            "suffixDiffs": [
                                {
                                    "suffix": 232,
                                    "currentValue": "0x00000000000000000000000000000000000000000000000000000000000000bb",
                                    "newValue": null
                                },
                                {
                                    "suffix": 233,
                                    "currentValue": null,
                                    "newValue": null
                                },
                                {
                                    "suffix": 234,
                                    "currentValue": null,
                                    "newValue": null
                                }
                            ]
                        },
                        {
                            "stem": "0xecb505156708480caf702cd85124f67f3ed78ae4bc890a6dcb62574ba9a90c",
                            "suffixDiffs": [
                                {
                                    "suffix": 0,
                                    "currentValue": "0x0000000000000010000000000000000000000000000000000000000000000000",
                                    "newValue": null
                                },
                                {
                                    "suffix": 1,
                                    "currentValue": "0x1a736f68c723845d9f970b7c6f99775a9d67611bf6ce417fc86d6a4ea76a6aa0",
                                    "newValue": null
                                },
                                {
                                    "suffix": 128,
                                    "currentValue": "0x006103e8546103e9546103ea546103eb54000000000000000000000000000000",
                                    "newValue": null
                                }
                            ]
                        }
                    ],
                    "verkleProof": {
                        "otherStems": [],
                        "depthExtensionPresent": "0xa0a080a0a",
                        "commitmentsByPath": [
                            "0x360bcc4c15a10f6f058d1d07e13e9a271da3da0cd69026d5a9ab25e1c0a5d697",
                            "0x324e7b7405bbfae46866bad5c94ac2983093b86f85035fe5984ec40a1b5e5ce3",
                            "0x61506c1cc4f27c9231a546a4b0d249d5f3ba4ba9e63c5ebb84087665eb396e95",
                            "0x4909fc1889e10819cda41706a26373145c4e4575d68b96569af12db69040b6e1",
                            "0x4bfe94d1dd187cbaffa2ce51c1c978d560cb8eb0a510d50a572ed5b07da8256e",
                            "0x219cf151b4aa2423fec983f58e8ab88c7679e934a08b1368522cbfc355e7430b",
                            "0x5ec03782a948b4eed4b5a486c58c94f328dca2b556a43463f933866f87a52591",
                            "0x20b5bd5ad45f0167d56253d4d65cb12b74fe60751c7e71d333c977526d8759a7",
                            "0x37ffc7d1b10dcc7119ec436704dede8782124ba9f72f94f657dba799a465fa2e"
                        ],
                        "d": "0x07bffc4fac4c342a33580be30c5cd880b14b58b03bebde902ce86f3c7e54fd03",
                        "ipaProof": {
                            "cl": [
                                "0x269423e4b85f79ba4cb41047186d898be8457aa84cda1abb10fcad4f077b4514",
                                "0x060905758e2db145b872d9d41b7ae819a76a6567826e4aa51cfd638535eb48bf",
                                "0x3152cdde7c37e147a413a98132377b1dfa69f9eac149c6ec20c373eabe4cb9d1",
                                "0x6735c6ff2bceb9b17ba18479331f115640719746a0711beb1cf8a11b2c71ef07",
                                "0x581d25d858802e2dbd72fe625346072c24183c234450ef619849eb35ced91fb4",
                                "0x0cf6f0b738bec8fe2f4a8a6be14be0eeb6d42ace42f26a16371a5df3dae3f397",
                                "0x1f2b790b51d2420dd23a0b39e19e4db53fd713092a09b44d6e82717b77fbac5f",
                                "0x7027660dcf5a9a4dec6d6a7da1e37347c0837c2e2f70d3080cd642db5196cb12"
                            ],
                            "cr": [
                                "0x7211d9d3c7dc193931c63eddf9b7700108cea907537857466d98e3bdd1bd4c67",
                                "0x73204c7381f55ad2e5530fe1c8aeb6d58e715a050f350229ec76b50eaf9c327b",
                                "0x368020f7ef19cf22d7b9b72fa2ed8e92ae1c349f0ec624e402ecc2503fa28f43",
                                "0x408392a8ac91818a7bd219a81e2c886bbbc28096b9204240a76e4fcef16c3def",
                                "0x0485f39b9fc0ff3f24f1f2fb4747fa75e05a011ee2144b9554df0d547bdce667",
                                "0x2e342592fee8628a3fcd3c7e1b886791a87a7ad6921a697292dc0321c87d85f1",
                                "0x1222ae4eec9fd0a90220b386af6d9bc702fcba5b8e55f24d9b112838127d501f",
                                "0x64d480eca7eac41455a281b5f53f256b74971d0ba25f6f6a9bed4b6bc4b60d90"
                            ],
                            "finalEvaluation": "0x142d9633dad35365614686242723eb17279174cdcbd779d1578d373a55663bc0"
                        }
                    }
                },
                "rlp": "0xf9027ef90216a0c63e798f9c263d741c339bb1519e36c8254ac091314bc6b1cacd959d2ee680bda01dcc4de8dec75d7aab85b567b6ccd41ad312451b948a7413f0a142fd40d49347942adc25665018aa1fe0e6bc666dac8fc2697ff9baa05b523b33a5c612de40ad0cf96af5edc5797c951fb5f0f64b62a1f77afe7d256ca0c9d6f245f377f24a937aa812282993d6469bb50c71b1578b3ab02f038a90bcd2a08396f8c2edfeb38e92ffc2b00b43d899cefe0573200fc93c7307c70b28c12b73b901000000000000000000000000000000000000000000000000000000000000000000000000000000000000000000000000000000000000000000000000000000000000000000000000000000000000000000000000000000000000000000000000000000000000000000000000000000000000000000000000000000000000000000000000000000000000000000000000000000000000000000000000000000000000000000000000000000000000000000000000000000000000000000000000000000000000000000000000000000000000000000000000000000000000000000000000000000000000000000000000000000000000000000000000000000000080018502540be400825c9d0c80a0000000000000000000000000000000000000000000000000000000000000000088000000000000000007a056e81f171bcc55a6ff8345e692c0f86e5b48e01b996cadc001622fb5e363b421f861f85f800a825c9d948a0a19589531694250d570040a0c4b74576919b8808025a0d83b6bdbf1236b5d4b8ab1e2dcbfa01d88aed69038d22963811a1a5c146c983da01348c98cd17fb69d27e125597bf195b6db459fe3919916eecdfeea5c02bc86a3c0c0",
                "blocknumber": "1"
            }
        ],
        "sealEngine": "NoProof",
        "_info": {
            "hash": "0x1d143a18fbe29070534eca07be5efcd59db1b30495df3f3052f34509f76bb9ce",
            "comment": "`execution-spec-tests` generated test",
            "filling-transition-tool": "evm version 1.12.1-unstable-c329550a-20241022",
            "description": "Test function documentation:\n\n    Test SLOAD with insufficient gas.",
            "url": "https://github.com/ethereum/execution-spec-tests/blob/verkle@v0.0.6/tests/verkle/eip4762_verkle_gas_witness/test_sload.py#L63",
            "reference-spec": "https://github.com/ethereum/EIPs/blob/master/EIPS/eip-4762.md",
            "reference-spec-version": "2f8299df31bb8173618901a03a8366a3183479b0"
        }
    }
}