{
    "tests/prague/eip7692_eof_v1/eip3540_eof_v1/test_calls.py::test_eof_calls_legacy_sstore[fork_CancunEIP7692-blockchain_test_engine-extcall]": {
        "network": "Prague",
        "genesisBlockHeader": {
            "parentHash": "0x0000000000000000000000000000000000000000000000000000000000000000",
            "uncleHash": "0x1dcc4de8dec75d7aab85b567b6ccd41ad312451b948a7413f0a142fd40d49347",
            "coinbase": "0x0000000000000000000000000000000000000000",
            "stateRoot": "0x14fe179adfe81427a6f285dfb7f2df66b07e9bc04c4715c314858536155dcacd",
            "transactionsTrie": "0x56e81f171bcc55a6ff8345e692c0f86e5b48e01b996cadc001622fb5e363b421",
            "receiptTrie": "0x56e81f171bcc55a6ff8345e692c0f86e5b48e01b996cadc001622fb5e363b421",
            "bloom": "0x00000000000000000000000000000000000000000000000000000000000000000000000000000000000000000000000000000000000000000000000000000000000000000000000000000000000000000000000000000000000000000000000000000000000000000000000000000000000000000000000000000000000000000000000000000000000000000000000000000000000000000000000000000000000000000000000000000000000000000000000000000000000000000000000000000000000000000000000000000000000000000000000000000000000000000000000000000000000000000000000000000000000000000000000000000000",
            "difficulty": "0x00",
            "number": "0x00",
            "gasLimit": "0x016345785d8a0000",
            "gasUsed": "0x00",
            "timestamp": "0x00",
            "extraData": "0x00",
            "mixHash": "0x0000000000000000000000000000000000000000000000000000000000000000",
            "nonce": "0x0000000000000000",
            "baseFeePerGas": "0x07",
            "withdrawalsRoot": "0x56e81f171bcc55a6ff8345e692c0f86e5b48e01b996cadc001622fb5e363b421",
            "blobGasUsed": "0x00",
            "excessBlobGas": "0x00",
            "parentBeaconBlockRoot": "0x0000000000000000000000000000000000000000000000000000000000000000",
            "hash": "0x96b55d5d06c25793ac984b2b63b8fa4e272a88ac623ddf5543dc3c3db5a354c9"
        },
        "pre": {
            "0x000f3df6d732807ef1319fb7b8bb8522d0beac02": {
                "nonce": "0x01",
                "balance": "0x00",
                "code": "0x3373fffffffffffffffffffffffffffffffffffffffe14604d57602036146024575f5ffd5b5f35801560495762001fff810690815414603c575f5ffd5b62001fff01545f5260205ff35b5f5ffd5b62001fff42064281555f359062001fff015500",
                "storage": {}
            },
            "0xa94f5374fce5edbc8e2a8697c15331677e6ebf0b": {
                "nonce": "0x00",
                "balance": "0x3635c9adc5dea00000",
                "code": "0x",
                "storage": {}
            },
            "0x0000000000000000000000000000000000001000": {
                "nonce": "0x01",
                "balance": "0x00",
                "code": "0x3360055500",
                "storage": {}
            },
            "0x0000000000000000000000000000000000001100": {
                "nonce": "0x01",
                "balance": "0x00",
                "code": "0xef000101000402000100140400000000800004600060006000611000f860025561201560015500",
                "storage": {}
            }
        },
        "postState": {
            "0x0000000000000000000000000000000000001000": {
                "nonce": "0x01",
                "balance": "0x00",
                "code": "0x3360055500",
                "storage": {
                    "0x05": "0x1100"
                }
            },
            "0x0000000000000000000000000000000000001100": {
                "nonce": "0x01",
                "balance": "0x00",
                "code": "0xef000101000402000100140400000000800004600060006000611000f860025561201560015500",
                "storage": {
                    "0x01": "0x2015"
                }
            },
            "0x000f3df6d732807ef1319fb7b8bb8522d0beac02": {
                "nonce": "0x01",
                "balance": "0x00",
                "code": "0x3373fffffffffffffffffffffffffffffffffffffffe14604d57602036146024575f5ffd5b5f35801560495762001fff810690815414603c575f5ffd5b62001fff01545f5260205ff35b5f5ffd5b62001fff42064281555f359062001fff015500",
                "storage": {
                    "0x03e8": "0x03e8"
                }
            },
            "0x2adc25665018aa1fe0e6bc666dac8fc2697ff9ba": {
                "nonce": "0x00",
                "balance": "0x03349e",
                "code": "0x",
                "storage": {}
            },
            "0xa94f5374fce5edbc8e2a8697c15331677e6ebf0b": {
                "nonce": "0x01",
                "balance": "0x3635c9adc5de95509c",
                "code": "0x",
                "storage": {}
            }
        },
        "lastblockhash": "0xf3bb8b02b3ff4388929e524efd41bde913eb7f21766149d82780ac6a41da2800",
        "engineNewPayloads": [
            {
                "params": [
                    {
                        "parentHash": "0x96b55d5d06c25793ac984b2b63b8fa4e272a88ac623ddf5543dc3c3db5a354c9",
                        "feeRecipient": "0x2adc25665018aa1fe0e6bc666dac8fc2697ff9ba",
                        "stateRoot": "0x03dfbf06a6fe21106cb42d84f07c30f279e9063d1bb3a1a65fe253baee2db2fb",
                        "receiptsRoot": "0x7f87a8954f75f59cfc9f1ce406d6f2e5c2b1d8e6258d54780f2e0871ccb6a390",
                        "logsBloom": "0x00000000000000000000000000000000000000000000000000000000000000000000000000000000000000000000000000000000000000000000000000000000000000000000000000000000000000000000000000000000000000000000000000000000000000000000000000000000000000000000000000000000000000000000000000000000000000000000000000000000000000000000000000000000000000000000000000000000000000000000000000000000000000000000000000000000000000000000000000000000000000000000000000000000000000000000000000000000000000000000000000000000000000000000000000000000",
                        "blockNumber": "0x1",
                        "gasLimit": "0x16345785d8a0000",
                        "gasUsed": "0x1118a",
                        "timestamp": "0x3e8",
                        "extraData": "0x00",
                        "prevRandao": "0x0000000000000000000000000000000000000000000000000000000000000000",
                        "baseFeePerGas": "0x7",
                        "blobGasUsed": "0x0",
                        "excessBlobGas": "0x0",
                        "blockHash": "0xf3bb8b02b3ff4388929e524efd41bde913eb7f21766149d82780ac6a41da2800",
                        "transactions": [
                            "0xf861800a8402faf08094000000000000000000000000000000000000110080801ca056c88a6605edb3f99e9e7cc00f610552b178d48d42c0b35ad6fac734c0494f0ca03eeaa85d4f62077ba1752742940c70b52ca3c6cd939d7eaaa4157c45362365be"
                        ],
                        "withdrawals": []
                    },
                    [],
                    "0x0000000000000000000000000000000000000000000000000000000000000000"
                ],
                "newPayloadVersion": "3",
                "forkchoiceUpdatedVersion": "3"
            }
        ],
        "_info": {
            "hash": "0x0f3388f1a2b362d3a7d07ce7447304f2302299ff368a3171d7714c393c94e2c4",
            "comment": "`execution-spec-tests` generated test",
            "filling-transition-tool": "evmone-t8n 0.12.0-dev+commit.26d56091",
            "description": "Test function documentation:\nTest EOF contracts calling Legacy contracts that use SSTORE",
            "url": "https://github.com/ethereum/execution-spec-tests/tree/v3.0.0/tests/prague/eip7692_eof_v1/eip3540_eof_v1/test_calls.py#L335",
            "reference-spec": "https://github.com/ethereum/EIPs/blob/master/EIPS/eip-3540.md",
            "reference-spec-version": "2f013de4065babde7c02f84a2ce9864a3c5bfbd3"
        }
    },
    "tests/prague/eip7692_eof_v1/eip3540_eof_v1/test_calls.py::test_eof_calls_legacy_sstore[fork_CancunEIP7692-blockchain_test_engine-extdelegatecall]": {
        "network": "Prague",
        "genesisBlockHeader": {
            "parentHash": "0x0000000000000000000000000000000000000000000000000000000000000000",
            "uncleHash": "0x1dcc4de8dec75d7aab85b567b6ccd41ad312451b948a7413f0a142fd40d49347",
            "coinbase": "0x0000000000000000000000000000000000000000",
            "stateRoot": "0x71fbb9405805aa587772d76fc83620fd951502919179adc2b143554b50f01677",
            "transactionsTrie": "0x56e81f171bcc55a6ff8345e692c0f86e5b48e01b996cadc001622fb5e363b421",
            "receiptTrie": "0x56e81f171bcc55a6ff8345e692c0f86e5b48e01b996cadc001622fb5e363b421",
            "bloom": "0x00000000000000000000000000000000000000000000000000000000000000000000000000000000000000000000000000000000000000000000000000000000000000000000000000000000000000000000000000000000000000000000000000000000000000000000000000000000000000000000000000000000000000000000000000000000000000000000000000000000000000000000000000000000000000000000000000000000000000000000000000000000000000000000000000000000000000000000000000000000000000000000000000000000000000000000000000000000000000000000000000000000000000000000000000000000",
            "difficulty": "0x00",
            "number": "0x00",
            "gasLimit": "0x016345785d8a0000",
            "gasUsed": "0x00",
            "timestamp": "0x00",
            "extraData": "0x00",
            "mixHash": "0x0000000000000000000000000000000000000000000000000000000000000000",
            "nonce": "0x0000000000000000",
            "baseFeePerGas": "0x07",
            "withdrawalsRoot": "0x56e81f171bcc55a6ff8345e692c0f86e5b48e01b996cadc001622fb5e363b421",
            "blobGasUsed": "0x00",
            "excessBlobGas": "0x00",
            "parentBeaconBlockRoot": "0x0000000000000000000000000000000000000000000000000000000000000000",
            "hash": "0x54bbb03b77e8fa729cc1ad2d2f71fe42332917d9887cfb47f2c5071e512a04c6"
        },
        "pre": {
            "0x000f3df6d732807ef1319fb7b8bb8522d0beac02": {
                "nonce": "0x01",
                "balance": "0x00",
                "code": "0x3373fffffffffffffffffffffffffffffffffffffffe14604d57602036146024575f5ffd5b5f35801560495762001fff810690815414603c575f5ffd5b62001fff01545f5260205ff35b5f5ffd5b62001fff42064281555f359062001fff015500",
                "storage": {}
            },
            "0xa94f5374fce5edbc8e2a8697c15331677e6ebf0b": {
                "nonce": "0x00",
                "balance": "0x3635c9adc5dea00000",
                "code": "0x",
                "storage": {}
            },
            "0x0000000000000000000000000000000000001000": {
                "nonce": "0x01",
                "balance": "0x00",
                "code": "0x3360055500",
                "storage": {}
            },
            "0x0000000000000000000000000000000000001100": {
                "nonce": "0x01",
                "balance": "0x00",
                "code": "0xef00010100040200010012040000000080000360006000611000f960025561201560015500",
                "storage": {}
            }
        },
        "postState": {
            "0x0000000000000000000000000000000000001000": {
                "nonce": "0x01",
                "balance": "0x00",
                "code": "0x3360055500",
                "storage": {}
            },
            "0x0000000000000000000000000000000000001100": {
                "nonce": "0x01",
                "balance": "0x00",
                "code": "0xef00010100040200010012040000000080000360006000611000f960025561201560015500",
                "storage": {
                    "0x01": "0x2015",
                    "0x02": "0x01"
                }
            },
            "0x000f3df6d732807ef1319fb7b8bb8522d0beac02": {
                "nonce": "0x01",
                "balance": "0x00",
                "code": "0x3373fffffffffffffffffffffffffffffffffffffffe14604d57602036146024575f5ffd5b5f35801560495762001fff810690815414603c575f5ffd5b62001fff01545f5260205ff35b5f5ffd5b62001fff42064281555f359062001fff015500",
                "storage": {
                    "0x03e8": "0x03e8"
                }
            },
            "0x2adc25665018aa1fe0e6bc666dac8fc2697ff9ba": {
                "nonce": "0x00",
                "balance": "0x031abe",
                "code": "0x",
                "storage": {}
            },
            "0xa94f5374fce5edbc8e2a8697c15331677e6ebf0b": {
                "nonce": "0x01",
                "balance": "0x3635c9adc5de95a6dc",
                "code": "0x",
                "storage": {}
            }
        },
        "lastblockhash": "0x70913444c11d74c88f75e59e3d5fc0fd1cabb6fe108b686def1bd77d569be64b",
        "engineNewPayloads": [
            {
                "params": [
                    {
                        "parentHash": "0x54bbb03b77e8fa729cc1ad2d2f71fe42332917d9887cfb47f2c5071e512a04c6",
                        "feeRecipient": "0x2adc25665018aa1fe0e6bc666dac8fc2697ff9ba",
                        "stateRoot": "0x83f30f72ace342a27a3066c27ada3e017d7a9be368e5203e5696d81032b579f7",
                        "receiptsRoot": "0x37b02636dc4d2dd0ace98367d678323904a37abc05ca1d2d8737546a75e91e14",
                        "logsBloom": "0x00000000000000000000000000000000000000000000000000000000000000000000000000000000000000000000000000000000000000000000000000000000000000000000000000000000000000000000000000000000000000000000000000000000000000000000000000000000000000000000000000000000000000000000000000000000000000000000000000000000000000000000000000000000000000000000000000000000000000000000000000000000000000000000000000000000000000000000000000000000000000000000000000000000000000000000000000000000000000000000000000000000000000000000000000000000",
                        "blockNumber": "0x1",
                        "gasLimit": "0x16345785d8a0000",
                        "gasUsed": "0x108ea",
                        "timestamp": "0x3e8",
                        "extraData": "0x00",
                        "prevRandao": "0x0000000000000000000000000000000000000000000000000000000000000000",
                        "baseFeePerGas": "0x7",
                        "blobGasUsed": "0x0",
                        "excessBlobGas": "0x0",
                        "blockHash": "0x70913444c11d74c88f75e59e3d5fc0fd1cabb6fe108b686def1bd77d569be64b",
                        "transactions": [
                            "0xf861800a8402faf08094000000000000000000000000000000000000110080801ca056c88a6605edb3f99e9e7cc00f610552b178d48d42c0b35ad6fac734c0494f0ca03eeaa85d4f62077ba1752742940c70b52ca3c6cd939d7eaaa4157c45362365be"
                        ],
                        "withdrawals": []
                    },
                    [],
                    "0x0000000000000000000000000000000000000000000000000000000000000000"
                ],
                "newPayloadVersion": "3",
                "forkchoiceUpdatedVersion": "3"
            }
        ],
        "_info": {
            "hash": "0x4a2c4c65f553196e503691ad3d5f55079ba2cc06f6394d66e2f9738791141493",
            "comment": "`execution-spec-tests` generated test",
            "filling-transition-tool": "evmone-t8n 0.12.0-dev+commit.26d56091",
            "description": "Test function documentation:\nTest EOF contracts calling Legacy contracts that use SSTORE",
            "url": "https://github.com/ethereum/execution-spec-tests/tree/v3.0.0/tests/prague/eip7692_eof_v1/eip3540_eof_v1/test_calls.py#L335",
            "reference-spec": "https://github.com/ethereum/EIPs/blob/master/EIPS/eip-3540.md",
            "reference-spec-version": "2f013de4065babde7c02f84a2ce9864a3c5bfbd3"
        }
    },
    "tests/prague/eip7692_eof_v1/eip3540_eof_v1/test_calls.py::test_eof_calls_legacy_sstore[fork_CancunEIP7692-blockchain_test_engine-extstaticall]": {
        "network": "Prague",
        "genesisBlockHeader": {
            "parentHash": "0x0000000000000000000000000000000000000000000000000000000000000000",
            "uncleHash": "0x1dcc4de8dec75d7aab85b567b6ccd41ad312451b948a7413f0a142fd40d49347",
            "coinbase": "0x0000000000000000000000000000000000000000",
            "stateRoot": "0x11f297bfff70803f6701fdcadcbca65f7befbaac93e6b90fc334749f6754a7b3",
            "transactionsTrie": "0x56e81f171bcc55a6ff8345e692c0f86e5b48e01b996cadc001622fb5e363b421",
            "receiptTrie": "0x56e81f171bcc55a6ff8345e692c0f86e5b48e01b996cadc001622fb5e363b421",
            "bloom": "0x00000000000000000000000000000000000000000000000000000000000000000000000000000000000000000000000000000000000000000000000000000000000000000000000000000000000000000000000000000000000000000000000000000000000000000000000000000000000000000000000000000000000000000000000000000000000000000000000000000000000000000000000000000000000000000000000000000000000000000000000000000000000000000000000000000000000000000000000000000000000000000000000000000000000000000000000000000000000000000000000000000000000000000000000000000000",
            "difficulty": "0x00",
            "number": "0x00",
            "gasLimit": "0x016345785d8a0000",
            "gasUsed": "0x00",
            "timestamp": "0x00",
            "extraData": "0x00",
            "mixHash": "0x0000000000000000000000000000000000000000000000000000000000000000",
            "nonce": "0x0000000000000000",
            "baseFeePerGas": "0x07",
            "withdrawalsRoot": "0x56e81f171bcc55a6ff8345e692c0f86e5b48e01b996cadc001622fb5e363b421",
            "blobGasUsed": "0x00",
            "excessBlobGas": "0x00",
            "parentBeaconBlockRoot": "0x0000000000000000000000000000000000000000000000000000000000000000",
            "hash": "0x922a1769efbffca83086336a3974bd9665734ebb1a4947d6275daaf54d3cddcc"
        },
        "pre": {
            "0x000f3df6d732807ef1319fb7b8bb8522d0beac02": {
                "nonce": "0x01",
                "balance": "0x00",
                "code": "0x3373fffffffffffffffffffffffffffffffffffffffe14604d57602036146024575f5ffd5b5f35801560495762001fff810690815414603c575f5ffd5b62001fff01545f5260205ff35b5f5ffd5b62001fff42064281555f359062001fff015500",
                "storage": {}
            },
            "0xa94f5374fce5edbc8e2a8697c15331677e6ebf0b": {
                "nonce": "0x00",
                "balance": "0x3635c9adc5dea00000",
                "code": "0x",
                "storage": {}
            },
            "0x0000000000000000000000000000000000001000": {
                "nonce": "0x01",
                "balance": "0x00",
                "code": "0x3360055500",
                "storage": {}
            },
            "0x0000000000000000000000000000000000001100": {
                "nonce": "0x01",
                "balance": "0x00",
                "code": "0xef00010100040200010012040000000080000360006000611000fb60025561201560015500",
                "storage": {}
            }
        },
        "postState": {
            "0x0000000000000000000000000000000000001000": {
                "nonce": "0x01",
                "balance": "0x00",
                "code": "0x3360055500",
                "storage": {}
            },
            "0x0000000000000000000000000000000000001100": {
                "nonce": "0x01",
                "balance": "0x00",
                "code": "0xef00010100040200010012040000000080000360006000611000fb60025561201560015500",
                "storage": {
                    "0x01": "0x2015",
                    "0x02": "0x02"
                }
            },
            "0x000f3df6d732807ef1319fb7b8bb8522d0beac02": {
                "nonce": "0x01",
                "balance": "0x00",
                "code": "0x3373fffffffffffffffffffffffffffffffffffffffe14604d57602036146024575f5ffd5b5f35801560495762001fff810690815414603c575f5ffd5b62001fff01545f5260205ff35b5f5ffd5b62001fff42064281555f359062001fff015500",
                "storage": {
                    "0x03e8": "0x03e8"
                }
            },
            "0x2adc25665018aa1fe0e6bc666dac8fc2697ff9ba": {
                "nonce": "0x00",
                "balance": "0x08cf18a0",
                "code": "0x",
                "storage": {}
            },
            "0xa94f5374fce5edbc8e2a8697c15331677e6ebf0b": {
                "nonce": "0x01",
                "balance": "0x3635c9adc5c1430340",
                "code": "0x",
                "storage": {}
            }
        },
        "lastblockhash": "0xabb5781818ae683353640e48808249c6d0e4a65720e1e02adeddbe1f69f1b0b7",
        "engineNewPayloads": [
            {
                "params": [
                    {
                        "parentHash": "0x922a1769efbffca83086336a3974bd9665734ebb1a4947d6275daaf54d3cddcc",
                        "feeRecipient": "0x2adc25665018aa1fe0e6bc666dac8fc2697ff9ba",
                        "stateRoot": "0xde116e0b79caa97921957f7ade56e951a72d9fc7f2ce33507d5f54e91d8dd1f8",
                        "receiptsRoot": "0xdeea12b44b55804f1695e0ed227d5bcac00fc0de9e48d3276e51a825658cc4e8",
                        "logsBloom": "0x00000000000000000000000000000000000000000000000000000000000000000000000000000000000000000000000000000000000000000000000000000000000000000000000000000000000000000000000000000000000000000000000000000000000000000000000000000000000000000000000000000000000000000000000000000000000000000000000000000000000000000000000000000000000000000000000000000000000000000000000000000000000000000000000000000000000000000000000000000000000000000000000000000000000000000000000000000000000000000000000000000000000000000000000000000000",
                        "blockNumber": "0x1",
                        "gasLimit": "0x16345785d8a0000",
                        "gasUsed": "0x2efb2e0",
                        "timestamp": "0x3e8",
                        "extraData": "0x00",
                        "prevRandao": "0x0000000000000000000000000000000000000000000000000000000000000000",
                        "baseFeePerGas": "0x7",
                        "blobGasUsed": "0x0",
                        "excessBlobGas": "0x0",
                        "blockHash": "0xabb5781818ae683353640e48808249c6d0e4a65720e1e02adeddbe1f69f1b0b7",
                        "transactions": [
                            "0xf861800a8402faf08094000000000000000000000000000000000000110080801ca056c88a6605edb3f99e9e7cc00f610552b178d48d42c0b35ad6fac734c0494f0ca03eeaa85d4f62077ba1752742940c70b52ca3c6cd939d7eaaa4157c45362365be"
                        ],
                        "withdrawals": []
                    },
                    [],
                    "0x0000000000000000000000000000000000000000000000000000000000000000"
                ],
                "newPayloadVersion": "3",
                "forkchoiceUpdatedVersion": "3"
            }
        ],
        "_info": {
            "hash": "0x6242811afc92ba1130b80cc9849b85f35b1e12199e1a07a2cdcfc2e9ca4b9c7e",
            "comment": "`execution-spec-tests` generated test",
            "filling-transition-tool": "evmone-t8n 0.12.0-dev+commit.26d56091",
            "description": "Test function documentation:\nTest EOF contracts calling Legacy contracts that use SSTORE",
            "url": "https://github.com/ethereum/execution-spec-tests/tree/v3.0.0/tests/prague/eip7692_eof_v1/eip3540_eof_v1/test_calls.py#L335",
            "reference-spec": "https://github.com/ethereum/EIPs/blob/master/EIPS/eip-3540.md",
            "reference-spec-version": "2f013de4065babde7c02f84a2ce9864a3c5bfbd3"
        }
    }
}