{
    "000-fork=Cancun": {
        "_info": {
            "filling-transition-tool": "evm version 1.13.0-unstable-b1a1675c-20230912",
            "reference-spec": "https://github.com/ethereum/EIPs/blob/master/EIPS/eip-4844.md",
            "reference-spec-version": "f0eb6a364aaf5ccb43516fa2c269a54fb881ecfd"
        },
        "blocks": [
            {
                "rlp": "0xf90423f90240a0b28ee6a9a5c47b6b6eb76c164fe4ad4ee11e1069b04f9f5818f1eac81c79009ea01dcc4de8dec75d7aab85b567b6ccd41ad312451b948a7413f0a142fd40d49347942adc25665018aa1fe0e6bc666dac8fc2697ff9baa08567193ef1f43d240b8c6719aaa71096581a4b527050077566aa05bce1b81326a02530ab893152e0ad5249a3b2f034880574e2f2eee86fa0fb7b35fcd97ec16953a0f44b62ca500455002c17e676410100f1a6df14862de0691766cb2a9ed3c59dc8b9010000000000000000000000000000000000000000000000000000000000000000000000000000000000000000000000000000000000000000000000000000000000000000000000000000000000000000000000000000000000000000000000000000000000000000000000000000000000000000000000000000000000000000000000000000000000000000000000000000000000000000000000000000000000000000000000000000000000000000000000000000000000000000000000000000000000000000000000000000000000000000000000000000000000000000000000000000000000000000000000000000000000000000000000000000000000800188016345785d8a00008302f8a80c80a0000000000000000000000000000000000000000000000000000000000000000088000000000000000007a056e81f171bcc55a6ff8345e692c0f86e5b48e01b996cadc001622fb5e363b421830c000080a00000000000000000000000000000000000000000000000000000000000000000f901dbb9015003f9014c01800a0a832dc6c094000000000000000000000000000000000000010080a00000000000000000000000000000000000000000000000000000000000000000c00af8c6a001b8c5b09810b5fc07355d3da42e2c3a3e200c1d9a678491b7e8e256fc50cc4fa0015b4c8cc4f86aa2d2cf9e9ce97fca704a11a6c20f6b1d6c00a6e15f6d60a6dfa001878f80eaf10be1a6f618e6f8c071b10a6c14d9b89a3bf2a3f3cf2db6c5681da0014eb72b108d562c639faeb6f8c6f366a28b0381c7d30431117ec8c7bb89f834a001a9b2a6c3f3f0675b768d49b5f5dc5b5d988f88d55766247ba9e40b125f16bba001a4d4cde4aa01e57fb2c880d1d9c778c33bdf85e48ef4c4d4b4de51abccf4ed80a09f52048014af781caa5744953c6edf4cfc23ad2aa32941f2fd8dba63d494ac61a04ba047b00c1382075fce0c2a783573ac2c8e57f6e73b53672caddc7c5618ab72b88602f88301010a0a832dc6c094000000000000000000000000000000000000010080a00000000000000000000000000000000000000000000000000000000000000000c001a0bc32aa960b595f4effa870df3fbee0f81a8c04db36fb98be1e73218ef20bf662a0360455afb68e21fa0480dc3eba51c81a65d0b5bbf74b9083693e1c9e83f4dae6c0c0",
                "blockHeader": {
                    "parentHash": "0xb28ee6a9a5c47b6b6eb76c164fe4ad4ee11e1069b04f9f5818f1eac81c79009e",
                    "uncleHash": "0x1dcc4de8dec75d7aab85b567b6ccd41ad312451b948a7413f0a142fd40d49347",
                    "coinbase": "0x2adc25665018aa1fe0e6bc666dac8fc2697ff9ba",
                    "stateRoot": "0x8567193ef1f43d240b8c6719aaa71096581a4b527050077566aa05bce1b81326",
                    "transactionsTrie": "0x2530ab893152e0ad5249a3b2f034880574e2f2eee86fa0fb7b35fcd97ec16953",
                    "receiptTrie": "0xf44b62ca500455002c17e676410100f1a6df14862de0691766cb2a9ed3c59dc8",
                    "bloom": "0x00000000000000000000000000000000000000000000000000000000000000000000000000000000000000000000000000000000000000000000000000000000000000000000000000000000000000000000000000000000000000000000000000000000000000000000000000000000000000000000000000000000000000000000000000000000000000000000000000000000000000000000000000000000000000000000000000000000000000000000000000000000000000000000000000000000000000000000000000000000000000000000000000000000000000000000000000000000000000000000000000000000000000000000000000000000",
                    "difficulty": "0x00",
                    "number": "0x01",
                    "gasLimit": "0x016345785d8a0000",
                    "gasUsed": "0x02f8a8",
                    "timestamp": "0x0c",
                    "extraData": "0x",
                    "mixHash": "0x0000000000000000000000000000000000000000000000000000000000000000",
                    "nonce": "0x0000000000000000",
                    "baseFeePerGas": "0x07",
                    "withdrawalsRoot": "0x56e81f171bcc55a6ff8345e692c0f86e5b48e01b996cadc001622fb5e363b421",
                    "blobGasUsed": "0x0c0000",
                    "excessBlobGas": "0x00",
                    "parentBeaconBlockRoot": "0x0000000000000000000000000000000000000000000000000000000000000000",
                    "hash": "0x1a03a9be942985437fa988c1960ab2a6f660d5c4c77d2cbf626ef476d5f254e2"
                },
                "engineNewPayload": {
                    "executionPayload": {
                        "parentHash": "0xb28ee6a9a5c47b6b6eb76c164fe4ad4ee11e1069b04f9f5818f1eac81c79009e",
                        "feeRecipient": "0x2adc25665018aa1fe0e6bc666dac8fc2697ff9ba",
                        "stateRoot": "0x8567193ef1f43d240b8c6719aaa71096581a4b527050077566aa05bce1b81326",
                        "receiptsRoot": "0xf44b62ca500455002c17e676410100f1a6df14862de0691766cb2a9ed3c59dc8",
                        "logsBloom": "0x00000000000000000000000000000000000000000000000000000000000000000000000000000000000000000000000000000000000000000000000000000000000000000000000000000000000000000000000000000000000000000000000000000000000000000000000000000000000000000000000000000000000000000000000000000000000000000000000000000000000000000000000000000000000000000000000000000000000000000000000000000000000000000000000000000000000000000000000000000000000000000000000000000000000000000000000000000000000000000000000000000000000000000000000000000000",
                        "blockNumber": "0x1",
                        "gasLimit": "0x16345785d8a0000",
                        "gasUsed": "0x2f8a8",
                        "timestamp": "0xc",
                        "extraData": "0x",
                        "prevRandao": "0x0000000000000000000000000000000000000000000000000000000000000000",
                        "baseFeePerGas": "0x7",
                        "blobGasUsed": "0xc0000",
                        "excessBlobGas": "0x0",
                        "blockHash": "0x1a03a9be942985437fa988c1960ab2a6f660d5c4c77d2cbf626ef476d5f254e2",
                        "transactions": [
                            "0x03f9014c01800a0a832dc6c094000000000000000000000000000000000000010080a00000000000000000000000000000000000000000000000000000000000000000c00af8c6a001b8c5b09810b5fc07355d3da42e2c3a3e200c1d9a678491b7e8e256fc50cc4fa0015b4c8cc4f86aa2d2cf9e9ce97fca704a11a6c20f6b1d6c00a6e15f6d60a6dfa001878f80eaf10be1a6f618e6f8c071b10a6c14d9b89a3bf2a3f3cf2db6c5681da0014eb72b108d562c639faeb6f8c6f366a28b0381c7d30431117ec8c7bb89f834a001a9b2a6c3f3f0675b768d49b5f5dc5b5d988f88d55766247ba9e40b125f16bba001a4d4cde4aa01e57fb2c880d1d9c778c33bdf85e48ef4c4d4b4de51abccf4ed80a09f52048014af781caa5744953c6edf4cfc23ad2aa32941f2fd8dba63d494ac61a04ba047b00c1382075fce0c2a783573ac2c8e57f6e73b53672caddc7c5618ab72",
                            "0x02f88301010a0a832dc6c094000000000000000000000000000000000000010080a00000000000000000000000000000000000000000000000000000000000000000c001a0bc32aa960b595f4effa870df3fbee0f81a8c04db36fb98be1e73218ef20bf662a0360455afb68e21fa0480dc3eba51c81a65d0b5bbf74b9083693e1c9e83f4dae6"
                        ],
                        "withdrawals": []
                    },
                    "expectedBlobVersionedHashes": [
                        "0x01b8c5b09810b5fc07355d3da42e2c3a3e200c1d9a678491b7e8e256fc50cc4f",
                        "0x015b4c8cc4f86aa2d2cf9e9ce97fca704a11a6c20f6b1d6c00a6e15f6d60a6df",
                        "0x01878f80eaf10be1a6f618e6f8c071b10a6c14d9b89a3bf2a3f3cf2db6c5681d",
                        "0x014eb72b108d562c639faeb6f8c6f366a28b0381c7d30431117ec8c7bb89f834",
                        "0x01a9b2a6c3f3f0675b768d49b5f5dc5b5d988f88d55766247ba9e40b125f16bb",
                        "0x01a4d4cde4aa01e57fb2c880d1d9c778c33bdf85e48ef4c4d4b4de51abccf4ed"
                    ],
                    "version": "3",
                    "parentBeaconBlockRoot": "0x0000000000000000000000000000000000000000000000000000000000000000"
                },
                "blocknumber": "1",
                "transactions": [
                    {
                        "type": "0x03",
                        "chainId": "0x01",
                        "nonce": "0x00",
                        "maxPriorityFeePerGas": "0x0a",
                        "maxFeePerGas": "0x0a",
                        "gasLimit": "0x2dc6c0",
                        "to": "0x0000000000000000000000000000000000000100",
                        "value": "0x00",
                        "data": "0x0000000000000000000000000000000000000000000000000000000000000000",
                        "accessList": [],
                        "maxFeePerBlobGas": "0x0a",
                        "blobVersionedHashes": [
                            "0x01b8c5b09810b5fc07355d3da42e2c3a3e200c1d9a678491b7e8e256fc50cc4f",
                            "0x015b4c8cc4f86aa2d2cf9e9ce97fca704a11a6c20f6b1d6c00a6e15f6d60a6df",
                            "0x01878f80eaf10be1a6f618e6f8c071b10a6c14d9b89a3bf2a3f3cf2db6c5681d",
                            "0x014eb72b108d562c639faeb6f8c6f366a28b0381c7d30431117ec8c7bb89f834",
                            "0x01a9b2a6c3f3f0675b768d49b5f5dc5b5d988f88d55766247ba9e40b125f16bb",
                            "0x01a4d4cde4aa01e57fb2c880d1d9c778c33bdf85e48ef4c4d4b4de51abccf4ed"
                        ],
                        "v": "0x00",
                        "r": "0x9f52048014af781caa5744953c6edf4cfc23ad2aa32941f2fd8dba63d494ac61",
                        "s": "0x4ba047b00c1382075fce0c2a783573ac2c8e57f6e73b53672caddc7c5618ab72",
                        "sender": "0xa94f5374fce5edbc8e2a8697c15331677e6ebf0b"
                    },
                    {
                        "type": "0x02",
                        "chainId": "0x01",
                        "nonce": "0x01",
                        "maxPriorityFeePerGas": "0x0a",
                        "maxFeePerGas": "0x0a",
                        "gasLimit": "0x2dc6c0",
                        "to": "0x0000000000000000000000000000000000000100",
                        "value": "0x00",
                        "data": "0x0000000000000000000000000000000000000000000000000000000000000000",
                        "accessList": [],
                        "v": "0x01",
                        "r": "0xbc32aa960b595f4effa870df3fbee0f81a8c04db36fb98be1e73218ef20bf662",
                        "s": "0x360455afb68e21fa0480dc3eba51c81a65d0b5bbf74b9083693e1c9e83f4dae6",
                        "sender": "0xa94f5374fce5edbc8e2a8697c15331677e6ebf0b"
                    }
                ],
                "uncleHeaders": [],
                "withdrawals": []
            },
            {
                "rlp": "0xf90426f90243a01a03a9be942985437fa988c1960ab2a6f660d5c4c77d2cbf626ef476d5f254e2a01dcc4de8dec75d7aab85b567b6ccd41ad312451b948a7413f0a142fd40d49347942adc25665018aa1fe0e6bc666dac8fc2697ff9baa09a24432fb576ba1b5c8b8ff6d8e4f9cbf5d21423276c979b4878a186623427ada01877e89f9767a27690b1c99efe4426e7950021091c370b24ca004164fd1485a9a0da5ac010087a7cb6e374f2cda2f2c54242b12da3fc28ef70fffbdce90d262adfb9010000000000000000000000000000000000000000000000000000000000000000000000000000000000000000000000000000000000000000000000000000000000000000000000000000000000000000000000000000000000000000000000000000000000000000000000000000000000000000000000000000000000000000000000000000000000000000000000000000000000000000000000000000000000000000000000000000000000000000000000000000000000000000000000000000000000000000000000000000000000000000000000000000000000000000000000000000000000000000000000000000000000000000000000000000000000800288016345785d8a00008302df041880a0000000000000000000000000000000000000000000000000000000000000000088000000000000000007a056e81f171bcc55a6ff8345e692c0f86e5b48e01b996cadc001622fb5e363b421830c000083060000a00000000000000000000000000000000000000000000000000000000000000000f901dbb88602f88301020a0a832dc6c094000000000000000000000000000000000000020080a00000000000000000000000000000000000000000000000000000000000000000c080a0873e0a447c93f9b3517357b4031960d3b323bedb43209b7c53e3468a9af97d73a02b45a409360b87c178a79d47a10a9837930ebdf6e4b07f32eb3f1050708fee9bb9015003f9014c01030a0a832dc6c094000000000000000000000000000000000000020080a00000000000000000000000000000000000000000000000000000000000000000c00af8c6a001b8c5b09810b5fc07355d3da42e2c3a3e200c1d9a678491b7e8e256fc50cc4fa0015b4c8cc4f86aa2d2cf9e9ce97fca704a11a6c20f6b1d6c00a6e15f6d60a6dfa001878f80eaf10be1a6f618e6f8c071b10a6c14d9b89a3bf2a3f3cf2db6c5681da0014eb72b108d562c639faeb6f8c6f366a28b0381c7d30431117ec8c7bb89f834a001a9b2a6c3f3f0675b768d49b5f5dc5b5d988f88d55766247ba9e40b125f16bba001a4d4cde4aa01e57fb2c880d1d9c778c33bdf85e48ef4c4d4b4de51abccf4ed01a00da4d1561d2d7fd1e8579a59e94a656ab6d517016a24fced4498eab22aa4b797a0548dac7ef121500d483e413d443f2d19d1bb89fa14c797eb32eb68187dc57180c0c0",
                "blockHeader": {
                    "parentHash": "0x1a03a9be942985437fa988c1960ab2a6f660d5c4c77d2cbf626ef476d5f254e2",
                    "uncleHash": "0x1dcc4de8dec75d7aab85b567b6ccd41ad312451b948a7413f0a142fd40d49347",
                    "coinbase": "0x2adc25665018aa1fe0e6bc666dac8fc2697ff9ba",
                    "stateRoot": "0x9a24432fb576ba1b5c8b8ff6d8e4f9cbf5d21423276c979b4878a186623427ad",
                    "transactionsTrie": "0x1877e89f9767a27690b1c99efe4426e7950021091c370b24ca004164fd1485a9",
                    "receiptTrie": "0xda5ac010087a7cb6e374f2cda2f2c54242b12da3fc28ef70fffbdce90d262adf",
                    "bloom": "0x00000000000000000000000000000000000000000000000000000000000000000000000000000000000000000000000000000000000000000000000000000000000000000000000000000000000000000000000000000000000000000000000000000000000000000000000000000000000000000000000000000000000000000000000000000000000000000000000000000000000000000000000000000000000000000000000000000000000000000000000000000000000000000000000000000000000000000000000000000000000000000000000000000000000000000000000000000000000000000000000000000000000000000000000000000000",
                    "difficulty": "0x00",
                    "number": "0x02",
                    "gasLimit": "0x016345785d8a0000",
                    "gasUsed": "0x02df04",
                    "timestamp": "0x18",
                    "extraData": "0x",
                    "mixHash": "0x0000000000000000000000000000000000000000000000000000000000000000",
                    "nonce": "0x0000000000000000",
                    "baseFeePerGas": "0x07",
                    "withdrawalsRoot": "0x56e81f171bcc55a6ff8345e692c0f86e5b48e01b996cadc001622fb5e363b421",
                    "blobGasUsed": "0x0c0000",
                    "excessBlobGas": "0x060000",
                    "parentBeaconBlockRoot": "0x0000000000000000000000000000000000000000000000000000000000000000",
                    "hash": "0xcf2cce68a8d2d567908c4d420fcd0f51db720d51b939d9e7d5903a3188090e8b"
                },
                "engineNewPayload": {
                    "executionPayload": {
                        "parentHash": "0x1a03a9be942985437fa988c1960ab2a6f660d5c4c77d2cbf626ef476d5f254e2",
                        "feeRecipient": "0x2adc25665018aa1fe0e6bc666dac8fc2697ff9ba",
                        "stateRoot": "0x9a24432fb576ba1b5c8b8ff6d8e4f9cbf5d21423276c979b4878a186623427ad",
                        "receiptsRoot": "0xda5ac010087a7cb6e374f2cda2f2c54242b12da3fc28ef70fffbdce90d262adf",
                        "logsBloom": "0x00000000000000000000000000000000000000000000000000000000000000000000000000000000000000000000000000000000000000000000000000000000000000000000000000000000000000000000000000000000000000000000000000000000000000000000000000000000000000000000000000000000000000000000000000000000000000000000000000000000000000000000000000000000000000000000000000000000000000000000000000000000000000000000000000000000000000000000000000000000000000000000000000000000000000000000000000000000000000000000000000000000000000000000000000000000",
                        "blockNumber": "0x2",
                        "gasLimit": "0x16345785d8a0000",
                        "gasUsed": "0x2df04",
                        "timestamp": "0x18",
                        "extraData": "0x",
                        "prevRandao": "0x0000000000000000000000000000000000000000000000000000000000000000",
                        "baseFeePerGas": "0x7",
                        "blobGasUsed": "0xc0000",
                        "excessBlobGas": "0x60000",
                        "blockHash": "0xcf2cce68a8d2d567908c4d420fcd0f51db720d51b939d9e7d5903a3188090e8b",
                        "transactions": [
                            "0x02f88301020a0a832dc6c094000000000000000000000000000000000000020080a00000000000000000000000000000000000000000000000000000000000000000c080a0873e0a447c93f9b3517357b4031960d3b323bedb43209b7c53e3468a9af97d73a02b45a409360b87c178a79d47a10a9837930ebdf6e4b07f32eb3f1050708fee9b",
                            "0x03f9014c01030a0a832dc6c094000000000000000000000000000000000000020080a00000000000000000000000000000000000000000000000000000000000000000c00af8c6a001b8c5b09810b5fc07355d3da42e2c3a3e200c1d9a678491b7e8e256fc50cc4fa0015b4c8cc4f86aa2d2cf9e9ce97fca704a11a6c20f6b1d6c00a6e15f6d60a6dfa001878f80eaf10be1a6f618e6f8c071b10a6c14d9b89a3bf2a3f3cf2db6c5681da0014eb72b108d562c639faeb6f8c6f366a28b0381c7d30431117ec8c7bb89f834a001a9b2a6c3f3f0675b768d49b5f5dc5b5d988f88d55766247ba9e40b125f16bba001a4d4cde4aa01e57fb2c880d1d9c778c33bdf85e48ef4c4d4b4de51abccf4ed01a00da4d1561d2d7fd1e8579a59e94a656ab6d517016a24fced4498eab22aa4b797a0548dac7ef121500d483e413d443f2d19d1bb89fa14c797eb32eb68187dc57180"
                        ],
                        "withdrawals": []
                    },
                    "expectedBlobVersionedHashes": [
                        "0x01b8c5b09810b5fc07355d3da42e2c3a3e200c1d9a678491b7e8e256fc50cc4f",
                        "0x015b4c8cc4f86aa2d2cf9e9ce97fca704a11a6c20f6b1d6c00a6e15f6d60a6df",
                        "0x01878f80eaf10be1a6f618e6f8c071b10a6c14d9b89a3bf2a3f3cf2db6c5681d",
                        "0x014eb72b108d562c639faeb6f8c6f366a28b0381c7d30431117ec8c7bb89f834",
                        "0x01a9b2a6c3f3f0675b768d49b5f5dc5b5d988f88d55766247ba9e40b125f16bb",
                        "0x01a4d4cde4aa01e57fb2c880d1d9c778c33bdf85e48ef4c4d4b4de51abccf4ed"
                    ],
                    "version": "3",
                    "parentBeaconBlockRoot": "0x0000000000000000000000000000000000000000000000000000000000000000"
                },
                "blocknumber": "2",
                "transactions": [
                    {
                        "type": "0x02",
                        "chainId": "0x01",
                        "nonce": "0x02",
                        "maxPriorityFeePerGas": "0x0a",
                        "maxFeePerGas": "0x0a",
                        "gasLimit": "0x2dc6c0",
                        "to": "0x0000000000000000000000000000000000000200",
                        "value": "0x00",
                        "data": "0x0000000000000000000000000000000000000000000000000000000000000000",
                        "accessList": [],
                        "v": "0x00",
                        "r": "0x873e0a447c93f9b3517357b4031960d3b323bedb43209b7c53e3468a9af97d73",
                        "s": "0x2b45a409360b87c178a79d47a10a9837930ebdf6e4b07f32eb3f1050708fee9b",
                        "sender": "0xa94f5374fce5edbc8e2a8697c15331677e6ebf0b"
                    },
                    {
                        "type": "0x03",
                        "chainId": "0x01",
                        "nonce": "0x03",
                        "maxPriorityFeePerGas": "0x0a",
                        "maxFeePerGas": "0x0a",
                        "gasLimit": "0x2dc6c0",
                        "to": "0x0000000000000000000000000000000000000200",
                        "value": "0x00",
                        "data": "0x0000000000000000000000000000000000000000000000000000000000000000",
                        "accessList": [],
                        "maxFeePerBlobGas": "0x0a",
                        "blobVersionedHashes": [
                            "0x01b8c5b09810b5fc07355d3da42e2c3a3e200c1d9a678491b7e8e256fc50cc4f",
                            "0x015b4c8cc4f86aa2d2cf9e9ce97fca704a11a6c20f6b1d6c00a6e15f6d60a6df",
                            "0x01878f80eaf10be1a6f618e6f8c071b10a6c14d9b89a3bf2a3f3cf2db6c5681d",
                            "0x014eb72b108d562c639faeb6f8c6f366a28b0381c7d30431117ec8c7bb89f834",
                            "0x01a9b2a6c3f3f0675b768d49b5f5dc5b5d988f88d55766247ba9e40b125f16bb",
                            "0x01a4d4cde4aa01e57fb2c880d1d9c778c33bdf85e48ef4c4d4b4de51abccf4ed"
                        ],
                        "v": "0x01",
                        "r": "0x0da4d1561d2d7fd1e8579a59e94a656ab6d517016a24fced4498eab22aa4b797",
                        "s": "0x548dac7ef121500d483e413d443f2d19d1bb89fa14c797eb32eb68187dc57180",
                        "sender": "0xa94f5374fce5edbc8e2a8697c15331677e6ebf0b"
                    }
                ],
                "uncleHeaders": [],
                "withdrawals": []
            },
            {
                "rlp": "0xf90426f90243a0cf2cce68a8d2d567908c4d420fcd0f51db720d51b939d9e7d5903a3188090e8ba01dcc4de8dec75d7aab85b567b6ccd41ad312451b948a7413f0a142fd40d49347942adc25665018aa1fe0e6bc666dac8fc2697ff9baa0814091c835235751f7f3c76eff330c7101252f5fab6481589c2216eeada8cfe7a02e86d2932b2cffc9c656d7d48f31342a45572b253397110a32d4a48a9a94830ca0da5ac010087a7cb6e374f2cda2f2c54242b12da3fc28ef70fffbdce90d262adfb9010000000000000000000000000000000000000000000000000000000000000000000000000000000000000000000000000000000000000000000000000000000000000000000000000000000000000000000000000000000000000000000000000000000000000000000000000000000000000000000000000000000000000000000000000000000000000000000000000000000000000000000000000000000000000000000000000000000000000000000000000000000000000000000000000000000000000000000000000000000000000000000000000000000000000000000000000000000000000000000000000000000000000000000000000000000000800388016345785d8a00008302df042480a0000000000000000000000000000000000000000000000000000000000000000088000000000000000007a056e81f171bcc55a6ff8345e692c0f86e5b48e01b996cadc001622fb5e363b421830c0000830c0000a00000000000000000000000000000000000000000000000000000000000000000f901dbb88602f88301040a0a832dc6c094000000000000000000000000000000000000030080a00000000000000000000000000000000000000000000000000000000000000000c080a096df1862ed64d69b9fc923519699bdf5216e09cf6ba31b3d769f57f00e2f9e85a00e7adc0f0964bb80e1243342234e1eb4223863559888ac2edb6a18bf3504a00eb9015003f9014c01050a0a832dc6c094000000000000000000000000000000000000040080a00000000000000000000000000000000000000000000000000000000000000000c00af8c6a001b8c5b09810b5fc07355d3da42e2c3a3e200c1d9a678491b7e8e256fc50cc4fa0015b4c8cc4f86aa2d2cf9e9ce97fca704a11a6c20f6b1d6c00a6e15f6d60a6dfa001878f80eaf10be1a6f618e6f8c071b10a6c14d9b89a3bf2a3f3cf2db6c5681da0014eb72b108d562c639faeb6f8c6f366a28b0381c7d30431117ec8c7bb89f834a001a9b2a6c3f3f0675b768d49b5f5dc5b5d988f88d55766247ba9e40b125f16bba001a4d4cde4aa01e57fb2c880d1d9c778c33bdf85e48ef4c4d4b4de51abccf4ed80a0ae72412e03c21b775a1b8a87ddc4d78fca0ce263efe088454352a4b30c6689c3a06720d86ada5a4cc9f255c3209ea08a449e91611b624eae9c20ace49ec47f40afc0c0",
                "blockHeader": {
                    "parentHash": "0xcf2cce68a8d2d567908c4d420fcd0f51db720d51b939d9e7d5903a3188090e8b",
                    "uncleHash": "0x1dcc4de8dec75d7aab85b567b6ccd41ad312451b948a7413f0a142fd40d49347",
                    "coinbase": "0x2adc25665018aa1fe0e6bc666dac8fc2697ff9ba",
                    "stateRoot": "0x814091c835235751f7f3c76eff330c7101252f5fab6481589c2216eeada8cfe7",
                    "transactionsTrie": "0x2e86d2932b2cffc9c656d7d48f31342a45572b253397110a32d4a48a9a94830c",
                    "receiptTrie": "0xda5ac010087a7cb6e374f2cda2f2c54242b12da3fc28ef70fffbdce90d262adf",
                    "bloom": "0x00000000000000000000000000000000000000000000000000000000000000000000000000000000000000000000000000000000000000000000000000000000000000000000000000000000000000000000000000000000000000000000000000000000000000000000000000000000000000000000000000000000000000000000000000000000000000000000000000000000000000000000000000000000000000000000000000000000000000000000000000000000000000000000000000000000000000000000000000000000000000000000000000000000000000000000000000000000000000000000000000000000000000000000000000000000",
                    "difficulty": "0x00",
                    "number": "0x03",
                    "gasLimit": "0x016345785d8a0000",
                    "gasUsed": "0x02df04",
                    "timestamp": "0x24",
                    "extraData": "0x",
                    "mixHash": "0x0000000000000000000000000000000000000000000000000000000000000000",
                    "nonce": "0x0000000000000000",
                    "baseFeePerGas": "0x07",
                    "withdrawalsRoot": "0x56e81f171bcc55a6ff8345e692c0f86e5b48e01b996cadc001622fb5e363b421",
                    "blobGasUsed": "0x0c0000",
                    "excessBlobGas": "0x0c0000",
                    "parentBeaconBlockRoot": "0x0000000000000000000000000000000000000000000000000000000000000000",
                    "hash": "0xb7f05e16f434cb5204bcfff2e70c9558eef850026100d93ab2217fabf405af5b"
                },
                "engineNewPayload": {
                    "executionPayload": {
                        "parentHash": "0xcf2cce68a8d2d567908c4d420fcd0f51db720d51b939d9e7d5903a3188090e8b",
                        "feeRecipient": "0x2adc25665018aa1fe0e6bc666dac8fc2697ff9ba",
                        "stateRoot": "0x814091c835235751f7f3c76eff330c7101252f5fab6481589c2216eeada8cfe7",
                        "receiptsRoot": "0xda5ac010087a7cb6e374f2cda2f2c54242b12da3fc28ef70fffbdce90d262adf",
                        "logsBloom": "0x00000000000000000000000000000000000000000000000000000000000000000000000000000000000000000000000000000000000000000000000000000000000000000000000000000000000000000000000000000000000000000000000000000000000000000000000000000000000000000000000000000000000000000000000000000000000000000000000000000000000000000000000000000000000000000000000000000000000000000000000000000000000000000000000000000000000000000000000000000000000000000000000000000000000000000000000000000000000000000000000000000000000000000000000000000000",
                        "blockNumber": "0x3",
                        "gasLimit": "0x16345785d8a0000",
                        "gasUsed": "0x2df04",
                        "timestamp": "0x24",
                        "extraData": "0x",
                        "prevRandao": "0x0000000000000000000000000000000000000000000000000000000000000000",
                        "baseFeePerGas": "0x7",
                        "blobGasUsed": "0xc0000",
                        "excessBlobGas": "0xc0000",
                        "blockHash": "0xb7f05e16f434cb5204bcfff2e70c9558eef850026100d93ab2217fabf405af5b",
                        "transactions": [
                            "0x02f88301040a0a832dc6c094000000000000000000000000000000000000030080a00000000000000000000000000000000000000000000000000000000000000000c080a096df1862ed64d69b9fc923519699bdf5216e09cf6ba31b3d769f57f00e2f9e85a00e7adc0f0964bb80e1243342234e1eb4223863559888ac2edb6a18bf3504a00e",
                            "0x03f9014c01050a0a832dc6c094000000000000000000000000000000000000040080a00000000000000000000000000000000000000000000000000000000000000000c00af8c6a001b8c5b09810b5fc07355d3da42e2c3a3e200c1d9a678491b7e8e256fc50cc4fa0015b4c8cc4f86aa2d2cf9e9ce97fca704a11a6c20f6b1d6c00a6e15f6d60a6dfa001878f80eaf10be1a6f618e6f8c071b10a6c14d9b89a3bf2a3f3cf2db6c5681da0014eb72b108d562c639faeb6f8c6f366a28b0381c7d30431117ec8c7bb89f834a001a9b2a6c3f3f0675b768d49b5f5dc5b5d988f88d55766247ba9e40b125f16bba001a4d4cde4aa01e57fb2c880d1d9c778c33bdf85e48ef4c4d4b4de51abccf4ed80a0ae72412e03c21b775a1b8a87ddc4d78fca0ce263efe088454352a4b30c6689c3a06720d86ada5a4cc9f255c3209ea08a449e91611b624eae9c20ace49ec47f40af"
                        ],
                        "withdrawals": []
                    },
                    "expectedBlobVersionedHashes": [
                        "0x01b8c5b09810b5fc07355d3da42e2c3a3e200c1d9a678491b7e8e256fc50cc4f",
                        "0x015b4c8cc4f86aa2d2cf9e9ce97fca704a11a6c20f6b1d6c00a6e15f6d60a6df",
                        "0x01878f80eaf10be1a6f618e6f8c071b10a6c14d9b89a3bf2a3f3cf2db6c5681d",
                        "0x014eb72b108d562c639faeb6f8c6f366a28b0381c7d30431117ec8c7bb89f834",
                        "0x01a9b2a6c3f3f0675b768d49b5f5dc5b5d988f88d55766247ba9e40b125f16bb",
                        "0x01a4d4cde4aa01e57fb2c880d1d9c778c33bdf85e48ef4c4d4b4de51abccf4ed"
                    ],
                    "version": "3",
                    "parentBeaconBlockRoot": "0x0000000000000000000000000000000000000000000000000000000000000000"
                },
                "blocknumber": "3",
                "transactions": [
                    {
                        "type": "0x02",
                        "chainId": "0x01",
                        "nonce": "0x04",
                        "maxPriorityFeePerGas": "0x0a",
                        "maxFeePerGas": "0x0a",
                        "gasLimit": "0x2dc6c0",
                        "to": "0x0000000000000000000000000000000000000300",
                        "value": "0x00",
                        "data": "0x0000000000000000000000000000000000000000000000000000000000000000",
                        "accessList": [],
                        "v": "0x00",
                        "r": "0x96df1862ed64d69b9fc923519699bdf5216e09cf6ba31b3d769f57f00e2f9e85",
                        "s": "0x0e7adc0f0964bb80e1243342234e1eb4223863559888ac2edb6a18bf3504a00e",
                        "sender": "0xa94f5374fce5edbc8e2a8697c15331677e6ebf0b"
                    },
                    {
                        "type": "0x03",
                        "chainId": "0x01",
                        "nonce": "0x05",
                        "maxPriorityFeePerGas": "0x0a",
                        "maxFeePerGas": "0x0a",
                        "gasLimit": "0x2dc6c0",
                        "to": "0x0000000000000000000000000000000000000400",
                        "value": "0x00",
                        "data": "0x0000000000000000000000000000000000000000000000000000000000000000",
                        "accessList": [],
                        "maxFeePerBlobGas": "0x0a",
                        "blobVersionedHashes": [
                            "0x01b8c5b09810b5fc07355d3da42e2c3a3e200c1d9a678491b7e8e256fc50cc4f",
                            "0x015b4c8cc4f86aa2d2cf9e9ce97fca704a11a6c20f6b1d6c00a6e15f6d60a6df",
                            "0x01878f80eaf10be1a6f618e6f8c071b10a6c14d9b89a3bf2a3f3cf2db6c5681d",
                            "0x014eb72b108d562c639faeb6f8c6f366a28b0381c7d30431117ec8c7bb89f834",
                            "0x01a9b2a6c3f3f0675b768d49b5f5dc5b5d988f88d55766247ba9e40b125f16bb",
                            "0x01a4d4cde4aa01e57fb2c880d1d9c778c33bdf85e48ef4c4d4b4de51abccf4ed"
                        ],
                        "v": "0x00",
                        "r": "0xae72412e03c21b775a1b8a87ddc4d78fca0ce263efe088454352a4b30c6689c3",
                        "s": "0x6720d86ada5a4cc9f255c3209ea08a449e91611b624eae9c20ace49ec47f40af",
                        "sender": "0xa94f5374fce5edbc8e2a8697c15331677e6ebf0b"
                    }
                ],
                "uncleHeaders": [],
                "withdrawals": []
            }
        ],
        "genesisBlockHeader": {
            "parentHash": "0x0000000000000000000000000000000000000000000000000000000000000000",
            "uncleHash": "0x1dcc4de8dec75d7aab85b567b6ccd41ad312451b948a7413f0a142fd40d49347",
            "coinbase": "0x0000000000000000000000000000000000000000",
            "stateRoot": "0xd7ae152775ae74748ae353b8592d2ca663356d8c179f6d0c1fdfdd1b0a0b6922",
            "transactionsTrie": "0x56e81f171bcc55a6ff8345e692c0f86e5b48e01b996cadc001622fb5e363b421",
            "receiptTrie": "0x56e81f171bcc55a6ff8345e692c0f86e5b48e01b996cadc001622fb5e363b421",
            "bloom": "0x00000000000000000000000000000000000000000000000000000000000000000000000000000000000000000000000000000000000000000000000000000000000000000000000000000000000000000000000000000000000000000000000000000000000000000000000000000000000000000000000000000000000000000000000000000000000000000000000000000000000000000000000000000000000000000000000000000000000000000000000000000000000000000000000000000000000000000000000000000000000000000000000000000000000000000000000000000000000000000000000000000000000000000000000000000000",
            "difficulty": "0x00",
            "number": "0x00",
            "gasLimit": "0x016345785d8a0000",
            "gasUsed": "0x00",
            "timestamp": "0x00",
            "extraData": "0x00",
            "mixHash": "0x0000000000000000000000000000000000000000000000000000000000000000",
            "nonce": "0x0000000000000000",
            "baseFeePerGas": "0x07",
            "withdrawalsRoot": "0x56e81f171bcc55a6ff8345e692c0f86e5b48e01b996cadc001622fb5e363b421",
            "blobGasUsed": "0x00",
            "excessBlobGas": "0x00",
            "parentBeaconBlockRoot": "0x0000000000000000000000000000000000000000000000000000000000000000",
            "hash": "0xb28ee6a9a5c47b6b6eb76c164fe4ad4ee11e1069b04f9f5818f1eac81c79009e"
        },
        "genesisRLP": "0xf90240f9023aa00000000000000000000000000000000000000000000000000000000000000000a01dcc4de8dec75d7aab85b567b6ccd41ad312451b948a7413f0a142fd40d49347940000000000000000000000000000000000000000a0d7ae152775ae74748ae353b8592d2ca663356d8c179f6d0c1fdfdd1b0a0b6922a056e81f171bcc55a6ff8345e692c0f86e5b48e01b996cadc001622fb5e363b421a056e81f171bcc55a6ff8345e692c0f86e5b48e01b996cadc001622fb5e363b421b9010000000000000000000000000000000000000000000000000000000000000000000000000000000000000000000000000000000000000000000000000000000000000000000000000000000000000000000000000000000000000000000000000000000000000000000000000000000000000000000000000000000000000000000000000000000000000000000000000000000000000000000000000000000000000000000000000000000000000000000000000000000000000000000000000000000000000000000000000000000000000000000000000000000000000000000000000000000000000000000000000000000000000000000000000000000000808088016345785d8a0000808000a0000000000000000000000000000000000000000000000000000000000000000088000000000000000007a056e81f171bcc55a6ff8345e692c0f86e5b48e01b996cadc001622fb5e363b4218080a00000000000000000000000000000000000000000000000000000000000000000c0c0c0",
        "lastblockhash": "0xb7f05e16f434cb5204bcfff2e70c9558eef850026100d93ab2217fabf405af5b",
        "network": "Cancun",
        "pre": {
            "0x0000000000000000000000000000000000000100": {
                "nonce": "0x00",
                "balance": "0x00",
                "code": "0x600049600055600149600155600249600255600349600355600449600455600549600555",
                "storage": {}
            },
            "0x0000000000000000000000000000000000000200": {
                "nonce": "0x00",
                "balance": "0x00",
                "code": "0x600049600055600149600155600249600255600349600355600449600455600549600555",
                "storage": {}
            },
            "0x0000000000000000000000000000000000000300": {
                "nonce": "0x00",
                "balance": "0x00",
                "code": "0x600049600055600149600155600249600255600349600355600449600455600549600555",
                "storage": {}
            },
            "0x0000000000000000000000000000000000000400": {
                "nonce": "0x00",
                "balance": "0x00",
                "code": "0x600049600055600149600155600249600255600349600355600449600455600549600555",
                "storage": {}
            },
            "0xa94f5374fce5edbc8e2a8697c15331677e6ebf0b": {
                "nonce": "0x00",
                "balance": "0x021e19e0c9bab2400000",
                "code": "0x",
                "storage": {}
            },
            "0xbeac00ddb15f3b6d645c48263dc93862413a222d": {
                "nonce": "0x01",
                "balance": "0x00",
                "code": "0x3373fffffffffffffffffffffffffffffffffffffffe14604457602036146024575f5ffd5b620180005f350680545f35146037575f5ffd5b6201800001545f5260205ff35b6201800042064281555f359062018000015500",
                "storage": {}
            }
        },
        "postState": {
            "0x0000000000000000000000000000000000000100": {
                "nonce": "0x00",
                "balance": "0x00",
                "code": "0x600049600055600149600155600249600255600349600355600449600455600549600555",
                "storage": {}
            },
            "0x0000000000000000000000000000000000000200": {
                "nonce": "0x00",
                "balance": "0x00",
                "code": "0x600049600055600149600155600249600255600349600355600449600455600549600555",
                "storage": {
                    "0x00": "0x01b8c5b09810b5fc07355d3da42e2c3a3e200c1d9a678491b7e8e256fc50cc4f",
                    "0x01": "0x015b4c8cc4f86aa2d2cf9e9ce97fca704a11a6c20f6b1d6c00a6e15f6d60a6df",
                    "0x02": "0x01878f80eaf10be1a6f618e6f8c071b10a6c14d9b89a3bf2a3f3cf2db6c5681d",
                    "0x03": "0x014eb72b108d562c639faeb6f8c6f366a28b0381c7d30431117ec8c7bb89f834",
                    "0x04": "0x01a9b2a6c3f3f0675b768d49b5f5dc5b5d988f88d55766247ba9e40b125f16bb",
                    "0x05": "0x01a4d4cde4aa01e57fb2c880d1d9c778c33bdf85e48ef4c4d4b4de51abccf4ed"
                }
            },
            "0x0000000000000000000000000000000000000300": {
                "nonce": "0x00",
                "balance": "0x00",
                "code": "0x600049600055600149600155600249600255600349600355600449600455600549600555",
                "storage": {}
            },
            "0x0000000000000000000000000000000000000400": {
                "nonce": "0x00",
                "balance": "0x00",
                "code": "0x600049600055600149600155600249600255600349600355600449600455600549600555",
                "storage": {
                    "0x00": "0x01b8c5b09810b5fc07355d3da42e2c3a3e200c1d9a678491b7e8e256fc50cc4f",
                    "0x01": "0x015b4c8cc4f86aa2d2cf9e9ce97fca704a11a6c20f6b1d6c00a6e15f6d60a6df",
                    "0x02": "0x01878f80eaf10be1a6f618e6f8c071b10a6c14d9b89a3bf2a3f3cf2db6c5681d",
                    "0x03": "0x014eb72b108d562c639faeb6f8c6f366a28b0381c7d30431117ec8c7bb89f834",
                    "0x04": "0x01a9b2a6c3f3f0675b768d49b5f5dc5b5d988f88d55766247ba9e40b125f16bb",
                    "0x05": "0x01a4d4cde4aa01e57fb2c880d1d9c778c33bdf85e48ef4c4d4b4de51abccf4ed"
                }
            },
            "0x2adc25665018aa1fe0e6bc666dac8fc2697ff9ba": {
                "nonce": "0x00",
                "balance": "0x1a2410",
                "code": "0x",
                "storage": {}
            },
            "0xa94f5374fce5edbc8e2a8697c15331677e6ebf0b": {
                "nonce": "0x06",
                "balance": "0x021e19e0c9bab1c4dd20",
                "code": "0x",
                "storage": {}
            },
            "0xbeac00ddb15f3b6d645c48263dc93862413a222d": {
                "nonce": "0x01",
                "balance": "0x00",
                "code": "0x3373fffffffffffffffffffffffffffffffffffffffe14604457602036146024575f5ffd5b620180005f350680545f35146037575f5ffd5b6201800001545f5260205ff35b6201800042064281555f359062018000015500",
                "storage": {
                    "0x0c": "0x0c",
                    "0x18": "0x18",
                    "0x24": "0x24"
                }
            }
        },
        "sealEngine": "NoProof"
    }
}