{
    "tests/frontier/opcodes/test_selfdestruct.py::test_double_kill[fork_Frontier-blockchain_test]": {
        "network": "Frontier",
        "genesisBlockHeader": {
            "parentHash": "0x0000000000000000000000000000000000000000000000000000000000000000",
            "uncleHash": "0x1dcc4de8dec75d7aab85b567b6ccd41ad312451b948a7413f0a142fd40d49347",
            "coinbase": "0x0000000000000000000000000000000000000000",
            "stateRoot": "0x70c42824108fafccadbfce71e6e22660c4fad89be18be324cd15ef351969a8c8",
            "transactionsTrie": "0x56e81f171bcc55a6ff8345e692c0f86e5b48e01b996cadc001622fb5e363b421",
            "receiptTrie": "0x56e81f171bcc55a6ff8345e692c0f86e5b48e01b996cadc001622fb5e363b421",
            "bloom": "0x00000000000000000000000000000000000000000000000000000000000000000000000000000000000000000000000000000000000000000000000000000000000000000000000000000000000000000000000000000000000000000000000000000000000000000000000000000000000000000000000000000000000000000000000000000000000000000000000000000000000000000000000000000000000000000000000000000000000000000000000000000000000000000000000000000000000000000000000000000000000000000000000000000000000000000000000000000000000000000000000000000000000000000000000000000000",
            "difficulty": "0x020000",
            "number": "0x00",
            "gasLimit": "0x016345785d8a0000",
            "gasUsed": "0x00",
            "timestamp": "0x00",
            "extraData": "0x00",
            "mixHash": "0x0000000000000000000000000000000000000000000000000000000000000000",
            "nonce": "0x0000000000000000",
            "hash": "0x061e0ff361b8797b01e4fb8419fac7e56f002fad10f2a78ed8588b67b8baf08c"
        },
        "pre": {
            "0xa94f5374fce5edbc8e2a8697c15331677e6ebf0b": {
                "nonce": "0x00",
                "balance": "0x3635c9adc5dea00000",
                "code": "0x",
                "storage": {}
            }
        },
        "postState": {
            "0x2adc25665018aa1fe0e6bc666dac8fc2697ff9ba": {
                "nonce": "0x00",
                "balance": "0x8ac7230489f030ea",
                "code": "0x",
                "storage": {}
            },
            "0x6295ee1b4f6dd65047762f924ecd367c17eabf8f": {
                "nonce": "0x00",
                "balance": "0x00",
                "code": "0x",
                "storage": {}
            },
            "0xa94f5374fce5edbc8e2a8697c15331677e6ebf0b": {
                "nonce": "0x03",
                "balance": "0x3635c9adc5de97cf16",
                "code": "0x",
                "storage": {}
            }
        },
        "genesisRLP": "0xf901fdf901f8a00000000000000000000000000000000000000000000000000000000000000000a01dcc4de8dec75d7aab85b567b6ccd41ad312451b948a7413f0a142fd40d49347940000000000000000000000000000000000000000a070c42824108fafccadbfce71e6e22660c4fad89be18be324cd15ef351969a8c8a056e81f171bcc55a6ff8345e692c0f86e5b48e01b996cadc001622fb5e363b421a056e81f171bcc55a6ff8345e692c0f86e5b48e01b996cadc001622fb5e363b421b9010000000000000000000000000000000000000000000000000000000000000000000000000000000000000000000000000000000000000000000000000000000000000000000000000000000000000000000000000000000000000000000000000000000000000000000000000000000000000000000000000000000000000000000000000000000000000000000000000000000000000000000000000000000000000000000000000000000000000000000000000000000000000000000000000000000000000000000000000000000000000000000000000000000000000000000000000000000000000000000000000000000000000000000000000000000000830200008088016345785d8a0000808000a00000000000000000000000000000000000000000000000000000000000000000880000000000000000c0c0",
        "blocks": [
            {
                "blockHeader": {
                    "parentHash": "0x061e0ff361b8797b01e4fb8419fac7e56f002fad10f2a78ed8588b67b8baf08c",
                    "uncleHash": "0x1dcc4de8dec75d7aab85b567b6ccd41ad312451b948a7413f0a142fd40d49347",
                    "coinbase": "0x2adc25665018aa1fe0e6bc666dac8fc2697ff9ba",
                    "stateRoot": "0xd57a9c43e86b33f8781a609421d2dd2c3afe14404ae77fef058e98aac969b5a9",
                    "transactionsTrie": "0x8670c19d5f6126e0ce550214a49321c43a921745cb2d06e56f1642d60f7562b6",
                    "receiptTrie": "0xb9613e9deb05fae5ee19ceb2d4937ad8d84fe4256f120c4ba7c688dc83b92cb1",
                    "bloom": "0x00000000000000000000000000000000000000000000000000000000000000000000000000000000000000000000000000000000000000000000000000000000000000000000000000000000000000000000000000000000000000000000000000000000000000000000000000000000000000000000000000000000000000000000000000000000000000000000000000000000000000000000000000000000000000000000000000000000000000000000000000000000000000000000000000000000000000000000000000000000000000000000000000000000000000000000000000000000000000000000000000000000000000000000000000000000",
                    "difficulty": "0x020040",
                    "number": "0x01",
                    "gasLimit": "0x016345785d8a0000",
                    "gasUsed": "0x56a4",
                    "timestamp": "0x0c",
                    "extraData": "0x",
                    "mixHash": "0x0000000000000000000000000000000000000000000000000000000000000000",
                    "nonce": "0x0000000000000000",
                    "hash": "0xda2d5958638ebaf1649f9083a02d7634181e1bd8933dea3a897ac67b3b681960"
                },
                "transactions": [
                    {
                        "type": "0x00",
                        "chainId": "0x01",
                        "nonce": "0x00",
                        "gasPrice": "0x0a",
                        "gasLimit": "0x05f5e100",
                        "value": "0x00",
                        "data": "0x610002600081600b8239f330ff",
                        "v": "0x1c",
                        "r": "0x929a88e6abb176b72ec9c6ae6577be4615112acee6e1c3c233a69f022e6587ba",
                        "s": "0x2bcabe3704e97f6f8303bc2413ae1adafed0ead260ae7561e59c7fe3c2f5dc1c",
                        "sender": "0xa94f5374fce5edbc8e2a8697c15331677e6ebf0b",
                        "to": ""
                    }
                ],
                "uncleHeaders": [],
                "rlp": "0xf9025cf901faa0061e0ff361b8797b01e4fb8419fac7e56f002fad10f2a78ed8588b67b8baf08ca01dcc4de8dec75d7aab85b567b6ccd41ad312451b948a7413f0a142fd40d49347942adc25665018aa1fe0e6bc666dac8fc2697ff9baa0d57a9c43e86b33f8781a609421d2dd2c3afe14404ae77fef058e98aac969b5a9a08670c19d5f6126e0ce550214a49321c43a921745cb2d06e56f1642d60f7562b6a0b9613e9deb05fae5ee19ceb2d4937ad8d84fe4256f120c4ba7c688dc83b92cb1b9010000000000000000000000000000000000000000000000000000000000000000000000000000000000000000000000000000000000000000000000000000000000000000000000000000000000000000000000000000000000000000000000000000000000000000000000000000000000000000000000000000000000000000000000000000000000000000000000000000000000000000000000000000000000000000000000000000000000000000000000000000000000000000000000000000000000000000000000000000000000000000000000000000000000000000000000000000000000000000000000000000000000000000000000000000000000830200400188016345785d8a00008256a40c80a00000000000000000000000000000000000000000000000000000000000000000880000000000000000f85cf85a800a8405f5e10080808d610002600081600b8239f330ff1ca0929a88e6abb176b72ec9c6ae6577be4615112acee6e1c3c233a69f022e6587baa02bcabe3704e97f6f8303bc2413ae1adafed0ead260ae7561e59c7fe3c2f5dc1cc0",
                "blocknumber": "1"
            },
            {
                "blockHeader": {
                    "parentHash": "0xda2d5958638ebaf1649f9083a02d7634181e1bd8933dea3a897ac67b3b681960",
                    "uncleHash": "0x1dcc4de8dec75d7aab85b567b6ccd41ad312451b948a7413f0a142fd40d49347",
                    "coinbase": "0x2adc25665018aa1fe0e6bc666dac8fc2697ff9ba",
                    "stateRoot": "0x9f63869babe654b6ab809db30931c76916fa8f1610e4f3aeaeb341f976490bbe",
                    "transactionsTrie": "0x48835d0dbe2a80023fb343376bf168d5097efb93ae00f06a4d30559fb3e78d27",
                    "receiptTrie": "0x663fe96c77f1266e310b4de60e5f9f342a87f5a466a0448c723a70f3b099b65f",
                    "bloom": "0x00000000000000000000000000000000000000000000000000000000000000000000000000000000000000000000000000000000000000000000000000000000000000000000000000000000000000000000000000000000000000000000000000000000000000000000000000000000000000000000000000000000000000000000000000000000000000000000000000000000000000000000000000000000000000000000000000000000000000000000000000000000000000000000000000000000000000000000000000000000000000000000000000000000000000000000000000000000000000000000000000000000000000000000000000000000",
                    "difficulty": "0x020080",
                    "number": "0x02",
                    "gasLimit": "0x016345785d8a0000",
                    "gasUsed": "0x7b0d",
                    "timestamp": "0x18",
                    "extraData": "0x",
                    "mixHash": "0x0000000000000000000000000000000000000000000000000000000000000000",
                    "nonce": "0x0000000000000000",
                    "hash": "0xbd72176468fd44f69a76b70b09245f0da83f5abc52967507292e5d2691ed412d"
                },
                "transactions": [
                    {
                        "type": "0x00",
                        "chainId": "0x01",
                        "nonce": "0x01",
                        "gasPrice": "0x0a",
                        "gasLimit": "0x05f5e100",
                        "to": "0x6295ee1b4f6dd65047762f924ecd367c17eabf8f",
                        "value": "0x00",
                        "data": "0x",
                        "v": "0x1c",
                        "r": "0x3e75145ab750168ae064bb25f4d6f57bf4fa8b82f58ee9aeaaf4de991987848c",
                        "s": "0x0aee7274a8e6522da7395a78d01306c376cf8bb584d37fc2f729d00b76d757db",
                        "sender": "0xa94f5374fce5edbc8e2a8697c15331677e6ebf0b"
                    },
                    {
                        "type": "0x00",
                        "chainId": "0x01",
                        "nonce": "0x02",
                        "gasPrice": "0x0a",
                        "gasLimit": "0x05f5e100",
                        "to": "0x6295ee1b4f6dd65047762f924ecd367c17eabf8f",
                        "value": "0x00",
                        "data": "0x",
                        "v": "0x1b",
                        "r": "0xc120d62737719feec0cf5ee2102131d91e57feb255bd78bbdcf2b44c5668f830",
                        "s": "0x302465d3eaaa9165e0fe5fa3ccef7a89ab0d27052cb5da30c23821801e8950e6",
                        "sender": "0xa94f5374fce5edbc8e2a8697c15331677e6ebf0b"
                    }
                ],
                "uncleHeaders": [],
                "rlp": "0xf902c6f901faa0da2d5958638ebaf1649f9083a02d7634181e1bd8933dea3a897ac67b3b681960a01dcc4de8dec75d7aab85b567b6ccd41ad312451b948a7413f0a142fd40d49347942adc25665018aa1fe0e6bc666dac8fc2697ff9baa09f63869babe654b6ab809db30931c76916fa8f1610e4f3aeaeb341f976490bbea048835d0dbe2a80023fb343376bf168d5097efb93ae00f06a4d30559fb3e78d27a0663fe96c77f1266e310b4de60e5f9f342a87f5a466a0448c723a70f3b099b65fb9010000000000000000000000000000000000000000000000000000000000000000000000000000000000000000000000000000000000000000000000000000000000000000000000000000000000000000000000000000000000000000000000000000000000000000000000000000000000000000000000000000000000000000000000000000000000000000000000000000000000000000000000000000000000000000000000000000000000000000000000000000000000000000000000000000000000000000000000000000000000000000000000000000000000000000000000000000000000000000000000000000000000000000000000000000000000830200800288016345785d8a0000827b0d1880a00000000000000000000000000000000000000000000000000000000000000000880000000000000000f8c6f861010a8405f5e100946295ee1b4f6dd65047762f924ecd367c17eabf8f80801ca03e75145ab750168ae064bb25f4d6f57bf4fa8b82f58ee9aeaaf4de991987848ca00aee7274a8e6522da7395a78d01306c376cf8bb584d37fc2f729d00b76d757dbf861020a8405f5e100946295ee1b4f6dd65047762f924ecd367c17eabf8f80801ba0c120d62737719feec0cf5ee2102131d91e57feb255bd78bbdcf2b44c5668f830a0302465d3eaaa9165e0fe5fa3ccef7a89ab0d27052cb5da30c23821801e8950e6c0",
                "blocknumber": "2"
            }
        ],
        "lastblockhash": "0xbd72176468fd44f69a76b70b09245f0da83f5abc52967507292e5d2691ed412d",
        "sealEngine": "NoProof",
        "_info": {
            "hash": "0x2e38339a716dc98fc9096b11fa7b273371f8cd9925cc17b38c210167256c3c85",
            "comment": "`execution-spec-tests` generated test",
            "filling-transition-tool": "evm version 1.14.6-unstable-7e5dd44a-20240705",
            "description": "Test function documentation:\n\n    Test that when two transactions attempt to destruct a contract,\n    the second transaction actually resurrects the contract as an empty account (prior to Spurious\n    Dragon).",
            "url": "https://github.com/ethereum/execution-spec-tests/blob/devnet-1@v1.3.0/tests/frontier/opcodes/test_selfdestruct.py#L12"
        }
    },
    "tests/frontier/opcodes/test_selfdestruct.py::test_double_kill[fork_Homestead-blockchain_test]": {
        "network": "Homestead",
        "genesisBlockHeader": {
            "parentHash": "0x0000000000000000000000000000000000000000000000000000000000000000",
            "uncleHash": "0x1dcc4de8dec75d7aab85b567b6ccd41ad312451b948a7413f0a142fd40d49347",
            "coinbase": "0x0000000000000000000000000000000000000000",
            "stateRoot": "0x70c42824108fafccadbfce71e6e22660c4fad89be18be324cd15ef351969a8c8",
            "transactionsTrie": "0x56e81f171bcc55a6ff8345e692c0f86e5b48e01b996cadc001622fb5e363b421",
            "receiptTrie": "0x56e81f171bcc55a6ff8345e692c0f86e5b48e01b996cadc001622fb5e363b421",
            "bloom": "0x00000000000000000000000000000000000000000000000000000000000000000000000000000000000000000000000000000000000000000000000000000000000000000000000000000000000000000000000000000000000000000000000000000000000000000000000000000000000000000000000000000000000000000000000000000000000000000000000000000000000000000000000000000000000000000000000000000000000000000000000000000000000000000000000000000000000000000000000000000000000000000000000000000000000000000000000000000000000000000000000000000000000000000000000000000000",
            "difficulty": "0x020000",
            "number": "0x00",
            "gasLimit": "0x016345785d8a0000",
            "gasUsed": "0x00",
            "timestamp": "0x00",
            "extraData": "0x00",
            "mixHash": "0x0000000000000000000000000000000000000000000000000000000000000000",
            "nonce": "0x0000000000000000",
            "hash": "0x061e0ff361b8797b01e4fb8419fac7e56f002fad10f2a78ed8588b67b8baf08c"
        },
        "pre": {
            "0xa94f5374fce5edbc8e2a8697c15331677e6ebf0b": {
                "nonce": "0x00",
                "balance": "0x3635c9adc5dea00000",
                "code": "0x",
                "storage": {}
            }
        },
        "postState": {
            "0x2adc25665018aa1fe0e6bc666dac8fc2697ff9ba": {
                "nonce": "0x00",
                "balance": "0x8ac7230489f512ea",
                "code": "0x",
                "storage": {}
            },
            "0x6295ee1b4f6dd65047762f924ecd367c17eabf8f": {
                "nonce": "0x00",
                "balance": "0x00",
                "code": "0x",
                "storage": {}
            },
            "0xa94f5374fce5edbc8e2a8697c15331677e6ebf0b": {
                "nonce": "0x03",
                "balance": "0x3635c9adc5de92ed16",
                "code": "0x",
                "storage": {}
            }
        },
        "genesisRLP": "0xf901fdf901f8a00000000000000000000000000000000000000000000000000000000000000000a01dcc4de8dec75d7aab85b567b6ccd41ad312451b948a7413f0a142fd40d49347940000000000000000000000000000000000000000a070c42824108fafccadbfce71e6e22660c4fad89be18be324cd15ef351969a8c8a056e81f171bcc55a6ff8345e692c0f86e5b48e01b996cadc001622fb5e363b421a056e81f171bcc55a6ff8345e692c0f86e5b48e01b996cadc001622fb5e363b421b9010000000000000000000000000000000000000000000000000000000000000000000000000000000000000000000000000000000000000000000000000000000000000000000000000000000000000000000000000000000000000000000000000000000000000000000000000000000000000000000000000000000000000000000000000000000000000000000000000000000000000000000000000000000000000000000000000000000000000000000000000000000000000000000000000000000000000000000000000000000000000000000000000000000000000000000000000000000000000000000000000000000000000000000000000000000000830200008088016345785d8a0000808000a00000000000000000000000000000000000000000000000000000000000000000880000000000000000c0c0",
        "blocks": [
            {
                "blockHeader": {
                    "parentHash": "0x061e0ff361b8797b01e4fb8419fac7e56f002fad10f2a78ed8588b67b8baf08c",
                    "uncleHash": "0x1dcc4de8dec75d7aab85b567b6ccd41ad312451b948a7413f0a142fd40d49347",
                    "coinbase": "0x2adc25665018aa1fe0e6bc666dac8fc2697ff9ba",
                    "stateRoot": "0x1098fb6f9eea12bb3d8207321be54f341b3d56c84d6a6f4f19e68fb3ef6e43b6",
                    "transactionsTrie": "0x8670c19d5f6126e0ce550214a49321c43a921745cb2d06e56f1642d60f7562b6",
                    "receiptTrie": "0x0a6aa09c5785efad9d3f3258530756de4a467f0763097972bedf45774f156bf8",
                    "bloom": "0x00000000000000000000000000000000000000000000000000000000000000000000000000000000000000000000000000000000000000000000000000000000000000000000000000000000000000000000000000000000000000000000000000000000000000000000000000000000000000000000000000000000000000000000000000000000000000000000000000000000000000000000000000000000000000000000000000000000000000000000000000000000000000000000000000000000000000000000000000000000000000000000000000000000000000000000000000000000000000000000000000000000000000000000000000000000",
                    "difficulty": "0x020000",
                    "number": "0x01",
                    "gasLimit": "0x016345785d8a0000",
                    "gasUsed": "0xd3a4",
                    "timestamp": "0x0c",
                    "extraData": "0x",
                    "mixHash": "0x0000000000000000000000000000000000000000000000000000000000000000",
                    "nonce": "0x0000000000000000",
                    "hash": "0xfc4fdc5dae3fd1269c853296d1f3d8417295cf730c9259c99aa4054c57c754e6"
                },
                "transactions": [
                    {
                        "type": "0x00",
                        "chainId": "0x01",
                        "nonce": "0x00",
                        "gasPrice": "0x0a",
                        "gasLimit": "0x05f5e100",
                        "value": "0x00",
                        "data": "0x610002600081600b8239f330ff",
                        "v": "0x1c",
                        "r": "0x929a88e6abb176b72ec9c6ae6577be4615112acee6e1c3c233a69f022e6587ba",
                        "s": "0x2bcabe3704e97f6f8303bc2413ae1adafed0ead260ae7561e59c7fe3c2f5dc1c",
                        "sender": "0xa94f5374fce5edbc8e2a8697c15331677e6ebf0b",
                        "to": ""
                    }
                ],
                "uncleHeaders": [],
                "rlp": "0xf9025cf901faa0061e0ff361b8797b01e4fb8419fac7e56f002fad10f2a78ed8588b67b8baf08ca01dcc4de8dec75d7aab85b567b6ccd41ad312451b948a7413f0a142fd40d49347942adc25665018aa1fe0e6bc666dac8fc2697ff9baa01098fb6f9eea12bb3d8207321be54f341b3d56c84d6a6f4f19e68fb3ef6e43b6a08670c19d5f6126e0ce550214a49321c43a921745cb2d06e56f1642d60f7562b6a00a6aa09c5785efad9d3f3258530756de4a467f0763097972bedf45774f156bf8b9010000000000000000000000000000000000000000000000000000000000000000000000000000000000000000000000000000000000000000000000000000000000000000000000000000000000000000000000000000000000000000000000000000000000000000000000000000000000000000000000000000000000000000000000000000000000000000000000000000000000000000000000000000000000000000000000000000000000000000000000000000000000000000000000000000000000000000000000000000000000000000000000000000000000000000000000000000000000000000000000000000000000000000000000000000000000830200000188016345785d8a000082d3a40c80a00000000000000000000000000000000000000000000000000000000000000000880000000000000000f85cf85a800a8405f5e10080808d610002600081600b8239f330ff1ca0929a88e6abb176b72ec9c6ae6577be4615112acee6e1c3c233a69f022e6587baa02bcabe3704e97f6f8303bc2413ae1adafed0ead260ae7561e59c7fe3c2f5dc1cc0",
                "blocknumber": "1"
            },
            {
                "blockHeader": {
                    "parentHash": "0xfc4fdc5dae3fd1269c853296d1f3d8417295cf730c9259c99aa4054c57c754e6",
                    "uncleHash": "0x1dcc4de8dec75d7aab85b567b6ccd41ad312451b948a7413f0a142fd40d49347",
                    "coinbase": "0x2adc25665018aa1fe0e6bc666dac8fc2697ff9ba",
                    "stateRoot": "0xf6bbc543ba274d164de3f9f97abc1bdda0c69d27fab17fcba7a23f7766037c93",
                    "transactionsTrie": "0x48835d0dbe2a80023fb343376bf168d5097efb93ae00f06a4d30559fb3e78d27",
                    "receiptTrie": "0x8b4f32f32048eaa6765d528072e45bf93d9e9249274e288751f875b664cbd718",
                    "bloom": "0x00000000000000000000000000000000000000000000000000000000000000000000000000000000000000000000000000000000000000000000000000000000000000000000000000000000000000000000000000000000000000000000000000000000000000000000000000000000000000000000000000000000000000000000000000000000000000000000000000000000000000000000000000000000000000000000000000000000000000000000000000000000000000000000000000000000000000000000000000000000000000000000000000000000000000000000000000000000000000000000000000000000000000000000000000000000",
                    "difficulty": "0x020000",
                    "number": "0x02",
                    "gasLimit": "0x016345785d8a0000",
                    "gasUsed": "0x7b0d",
                    "timestamp": "0x18",
                    "extraData": "0x",
                    "mixHash": "0x0000000000000000000000000000000000000000000000000000000000000000",
                    "nonce": "0x0000000000000000",
                    "hash": "0xf12e6f46458018c0d09905447bad793c7092b5d6921a72c3fca590b1575f2dfd"
                },
                "transactions": [
                    {
                        "type": "0x00",
                        "chainId": "0x01",
                        "nonce": "0x01",
                        "gasPrice": "0x0a",
                        "gasLimit": "0x05f5e100",
                        "to": "0x6295ee1b4f6dd65047762f924ecd367c17eabf8f",
                        "value": "0x00",
                        "data": "0x",
                        "v": "0x1c",
                        "r": "0x3e75145ab750168ae064bb25f4d6f57bf4fa8b82f58ee9aeaaf4de991987848c",
                        "s": "0x0aee7274a8e6522da7395a78d01306c376cf8bb584d37fc2f729d00b76d757db",
                        "sender": "0xa94f5374fce5edbc8e2a8697c15331677e6ebf0b"
                    },
                    {
                        "type": "0x00",
                        "chainId": "0x01",
                        "nonce": "0x02",
                        "gasPrice": "0x0a",
                        "gasLimit": "0x05f5e100",
                        "to": "0x6295ee1b4f6dd65047762f924ecd367c17eabf8f",
                        "value": "0x00",
                        "data": "0x",
                        "v": "0x1b",
                        "r": "0xc120d62737719feec0cf5ee2102131d91e57feb255bd78bbdcf2b44c5668f830",
                        "s": "0x302465d3eaaa9165e0fe5fa3ccef7a89ab0d27052cb5da30c23821801e8950e6",
                        "sender": "0xa94f5374fce5edbc8e2a8697c15331677e6ebf0b"
                    }
                ],
                "uncleHeaders": [],
                "rlp": "0xf902c6f901faa0fc4fdc5dae3fd1269c853296d1f3d8417295cf730c9259c99aa4054c57c754e6a01dcc4de8dec75d7aab85b567b6ccd41ad312451b948a7413f0a142fd40d49347942adc25665018aa1fe0e6bc666dac8fc2697ff9baa0f6bbc543ba274d164de3f9f97abc1bdda0c69d27fab17fcba7a23f7766037c93a048835d0dbe2a80023fb343376bf168d5097efb93ae00f06a4d30559fb3e78d27a08b4f32f32048eaa6765d528072e45bf93d9e9249274e288751f875b664cbd718b9010000000000000000000000000000000000000000000000000000000000000000000000000000000000000000000000000000000000000000000000000000000000000000000000000000000000000000000000000000000000000000000000000000000000000000000000000000000000000000000000000000000000000000000000000000000000000000000000000000000000000000000000000000000000000000000000000000000000000000000000000000000000000000000000000000000000000000000000000000000000000000000000000000000000000000000000000000000000000000000000000000000000000000000000000000000000830200000288016345785d8a0000827b0d1880a00000000000000000000000000000000000000000000000000000000000000000880000000000000000f8c6f861010a8405f5e100946295ee1b4f6dd65047762f924ecd367c17eabf8f80801ca03e75145ab750168ae064bb25f4d6f57bf4fa8b82f58ee9aeaaf4de991987848ca00aee7274a8e6522da7395a78d01306c376cf8bb584d37fc2f729d00b76d757dbf861020a8405f5e100946295ee1b4f6dd65047762f924ecd367c17eabf8f80801ba0c120d62737719feec0cf5ee2102131d91e57feb255bd78bbdcf2b44c5668f830a0302465d3eaaa9165e0fe5fa3ccef7a89ab0d27052cb5da30c23821801e8950e6c0",
                "blocknumber": "2"
            }
        ],
        "lastblockhash": "0xf12e6f46458018c0d09905447bad793c7092b5d6921a72c3fca590b1575f2dfd",
        "sealEngine": "NoProof",
        "_info": {
            "hash": "0xa2ecd896eda4bf0412ddccc16f007557d3554010aeeea3c7176c66e22745fc1e",
            "comment": "`execution-spec-tests` generated test",
            "filling-transition-tool": "evm version 1.14.6-unstable-7e5dd44a-20240705",
            "description": "Test function documentation:\n\n    Test that when two transactions attempt to destruct a contract,\n    the second transaction actually resurrects the contract as an empty account (prior to Spurious\n    Dragon).",
            "url": "https://github.com/ethereum/execution-spec-tests/blob/devnet-1@v1.3.0/tests/frontier/opcodes/test_selfdestruct.py#L12"
        }
    }
}