{
    "000-fork=Cancun-no_outer_selfdestruct": {
        "_info": {
            "filling-transition-tool": "evm version 1.13.0-unstable-998b2182-20230919",
            "reference-spec": "https://github.com/ethereum/EIPs/blob/master/EIPS/eip-6780.md",
            "reference-spec-version": "2f8299df31bb8173618901a03a8366a3183479b0"
        },
        "network": "Cancun",
        "genesisRLP": "0xf90240f9023aa00000000000000000000000000000000000000000000000000000000000000000a01dcc4de8dec75d7aab85b567b6ccd41ad312451b948a7413f0a142fd40d49347940000000000000000000000000000000000000000a06a8f266b615416d2b654ad1341c1759d91f041933ea14be3873a1fe0e49f0eb0a056e81f171bcc55a6ff8345e692c0f86e5b48e01b996cadc001622fb5e363b421a056e81f171bcc55a6ff8345e692c0f86e5b48e01b996cadc001622fb5e363b421b9010000000000000000000000000000000000000000000000000000000000000000000000000000000000000000000000000000000000000000000000000000000000000000000000000000000000000000000000000000000000000000000000000000000000000000000000000000000000000000000000000000000000000000000000000000000000000000000000000000000000000000000000000000000000000000000000000000000000000000000000000000000000000000000000000000000000000000000000000000000000000000000000000000000000000000000000000000000000000000000000000000000000000000000000000000000000808088016345785d8a0000808000a0000000000000000000000000000000000000000000000000000000000000000088000000000000000007a056e81f171bcc55a6ff8345e692c0f86e5b48e01b996cadc001622fb5e363b4218080a00000000000000000000000000000000000000000000000000000000000000000c0c0c0",
        "genesisBlockHeader": {
            "parentHash": "0x0000000000000000000000000000000000000000000000000000000000000000",
            "uncleHash": "0x1dcc4de8dec75d7aab85b567b6ccd41ad312451b948a7413f0a142fd40d49347",
            "coinbase": "0x0000000000000000000000000000000000000000",
            "stateRoot": "0x6a8f266b615416d2b654ad1341c1759d91f041933ea14be3873a1fe0e49f0eb0",
            "transactionsTrie": "0x56e81f171bcc55a6ff8345e692c0f86e5b48e01b996cadc001622fb5e363b421",
            "receiptTrie": "0x56e81f171bcc55a6ff8345e692c0f86e5b48e01b996cadc001622fb5e363b421",
            "bloom": "0x00000000000000000000000000000000000000000000000000000000000000000000000000000000000000000000000000000000000000000000000000000000000000000000000000000000000000000000000000000000000000000000000000000000000000000000000000000000000000000000000000000000000000000000000000000000000000000000000000000000000000000000000000000000000000000000000000000000000000000000000000000000000000000000000000000000000000000000000000000000000000000000000000000000000000000000000000000000000000000000000000000000000000000000000000000000",
            "difficulty": "0x00",
            "number": "0x00",
            "gasLimit": "0x016345785d8a0000",
            "gasUsed": "0x00",
            "timestamp": "0x00",
            "extraData": "0x00",
            "mixHash": "0x0000000000000000000000000000000000000000000000000000000000000000",
            "nonce": "0x0000000000000000",
            "baseFeePerGas": "0x07",
            "withdrawalsRoot": "0x56e81f171bcc55a6ff8345e692c0f86e5b48e01b996cadc001622fb5e363b421",
            "blobGasUsed": "0x00",
            "excessBlobGas": "0x00",
            "parentBeaconBlockRoot": "0x0000000000000000000000000000000000000000000000000000000000000000",
            "hash": "0xa2b27df743e5a2c38898126c555b95ccb0eace1604d9193d56dc7412f098425e"
        },
        "blocks": [
            {
                "rlp": "0xf902b6f9023fa0a2b27df743e5a2c38898126c555b95ccb0eace1604d9193d56dc7412f098425ea01dcc4de8dec75d7aab85b567b6ccd41ad312451b948a7413f0a142fd40d49347942adc25665018aa1fe0e6bc666dac8fc2697ff9baa04d5b1d47ccb621448f6bb6d303a10e9573ddd584f85ac9f2fb8be3a5daa934c1a0aee86bdc9f4cdcab98bcbd2bf7778c96fa0ece00fcbd5e3676d7b8df9a90febaa074cc8a34c6b9604c9301803c1f5c6e45319fca3745391e2fe76ceb9705616990b9010000000000000000000000000000000000000000000000000000000000000000000000000000000000000000000000000000000000000000000000000000000000000000000000000000000000000000000000000000000000000000000000000000000000000000000000000000000000000000000000000000000000000000000000000000000000000000000000000000000000000000000000000000000000000000000000000000000000000000000000000000000000000000000000000000000000000000000000000000000000000000000000000000000000000000000000000000000000000000000000000000000000000000000000000000000000800188016345785d8a000083029da58203e800a0000000000000000000000000000000000000000000000000000000000000000088000000000000000007a056e81f171bcc55a6ff8345e692c0f86e5b48e01b996cadc001622fb5e363b4218080a00000000000000000000000000000000000000000000000000000000000000000f870f86e800a8405f5e1008080a1600060006000600060007300000000000000000000000000000000deadbeef45f11ba04be9d4cb23e70d0bd36b18bedaa401fd9d2dc5bce6d37bae98777c094e8d6c46a046bb18ca04a74583befbf371e13a0190e72dcdb58e6da43d192008ddb9a6afb3c0c0",
                "blockHeader": {
                    "parentHash": "0xa2b27df743e5a2c38898126c555b95ccb0eace1604d9193d56dc7412f098425e",
                    "uncleHash": "0x1dcc4de8dec75d7aab85b567b6ccd41ad312451b948a7413f0a142fd40d49347",
                    "coinbase": "0x2adc25665018aa1fe0e6bc666dac8fc2697ff9ba",
                    "stateRoot": "0x4d5b1d47ccb621448f6bb6d303a10e9573ddd584f85ac9f2fb8be3a5daa934c1",
                    "transactionsTrie": "0xaee86bdc9f4cdcab98bcbd2bf7778c96fa0ece00fcbd5e3676d7b8df9a90feba",
                    "receiptTrie": "0x74cc8a34c6b9604c9301803c1f5c6e45319fca3745391e2fe76ceb9705616990",
                    "bloom": "0x00000000000000000000000000000000000000000000000000000000000000000000000000000000000000000000000000000000000000000000000000000000000000000000000000000000000000000000000000000000000000000000000000000000000000000000000000000000000000000000000000000000000000000000000000000000000000000000000000000000000000000000000000000000000000000000000000000000000000000000000000000000000000000000000000000000000000000000000000000000000000000000000000000000000000000000000000000000000000000000000000000000000000000000000000000000",
                    "difficulty": "0x00",
                    "number": "0x01",
                    "gasLimit": "0x016345785d8a0000",
                    "gasUsed": "0x029da5",
                    "timestamp": "0x03e8",
                    "extraData": "0x00",
                    "mixHash": "0x0000000000000000000000000000000000000000000000000000000000000000",
                    "nonce": "0x0000000000000000",
                    "baseFeePerGas": "0x07",
                    "withdrawalsRoot": "0x56e81f171bcc55a6ff8345e692c0f86e5b48e01b996cadc001622fb5e363b421",
                    "blobGasUsed": "0x00",
                    "excessBlobGas": "0x00",
                    "parentBeaconBlockRoot": "0x0000000000000000000000000000000000000000000000000000000000000000",
                    "hash": "0x5835ff52a83d13467b3f00441e518131cdb72d611387d800707c56d8f15c77e1"
                },
                "transactions": [
                    {
                        "type": "0x00",
                        "chainId": "0x00",
                        "nonce": "0x00",
                        "gasPrice": "0x0a",
                        "gasLimit": "0x05f5e100",
                        "to": "",
                        "value": "0x00",
                        "data": "0x600060006000600060007300000000000000000000000000000000deadbeef45f1",
                        "v": "0x1b",
                        "r": "0x4be9d4cb23e70d0bd36b18bedaa401fd9d2dc5bce6d37bae98777c094e8d6c46",
                        "s": "0x46bb18ca04a74583befbf371e13a0190e72dcdb58e6da43d192008ddb9a6afb3",
                        "sender": "0xa94f5374fce5edbc8e2a8697c15331677e6ebf0b"
                    }
                ],
                "uncleHeaders": [],
                "withdrawals": []
            }
        ],
        "lastblockhash": "0x5835ff52a83d13467b3f00441e518131cdb72d611387d800707c56d8f15c77e1",
        "pre": {
            "0x00000000000000000000000000000000deadbeef": {
                "nonce": "0x00",
                "balance": "0x02",
                "code": "0x5f355f6001825f811460145760018114606057005b5f80525f8060205f60017364e2ebd6405af8cb348aec519084d3fff42ebba645f150815f525f8060205f803045f1507364e2ebd6405af8cb348aec519084d3fff42ebba6316001555f80f35b60015f525f8060205f60017364e2ebd6405af8cb348aec519084d3fff42ebba645f15f80fd",
                "storage": {}
            },
            "0x64e2ebd6405af8cb348aec519084d3fff42ebba6": {
                "nonce": "0x00",
                "balance": "0x00",
                "code": "0x5f35805f811460115760018114602057005b5f54600181019050805f555f80f35b60015460018101905080600155611234ff",
                "storage": {}
            },
            "0xa94f5374fce5edbc8e2a8697c15331677e6ebf0b": {
                "nonce": "0x00",
                "balance": "0x056bc75e2d63100000",
                "code": "0x",
                "storage": {}
            },
            "0xbeac020008aff7331c0a389cb2aab67597567d7a": {
                "nonce": "0x01",
                "balance": "0x00",
                "code": "0x3373fffffffffffffffffffffffffffffffffffffffe14604d57602036146024575f5ffd5b5f35801560495762001fff810690815414603c575f5ffd5b62001fff01545f5260205ff35b5f5ffd5b62001fff42064281555f359062001fff015500",
                "storage": {}
            }
        },
        "postState": {
            "0x00000000000000000000000000000000deadbeef": {
                "nonce": "0x00",
                "balance": "0x01",
                "code": "0x5f355f6001825f811460145760018114606057005b5f80525f8060205f60017364e2ebd6405af8cb348aec519084d3fff42ebba645f150815f525f8060205f803045f1507364e2ebd6405af8cb348aec519084d3fff42ebba6316001555f80f35b60015f525f8060205f60017364e2ebd6405af8cb348aec519084d3fff42ebba645f15f80fd",
                "storage": {
                    "0x01": "0x01"
                }
            },
            "0x2adc25665018aa1fe0e6bc666dac8fc2697ff9ba": {
                "nonce": "0x00",
                "balance": "0x07d8ef",
                "code": "0x",
                "storage": {}
            },
            "0x6295ee1b4f6dd65047762f924ecd367c17eabf8f": {
                "nonce": "0x01",
                "balance": "0x00",
                "code": "0x",
                "storage": {}
            },
            "0x64e2ebd6405af8cb348aec519084d3fff42ebba6": {
                "nonce": "0x00",
                "balance": "0x01",
                "code": "0x5f35805f811460115760018114602057005b5f54600181019050805f555f80f35b60015460018101905080600155611234ff",
                "storage": {
                    "0x00": "0x01"
                }
            },
            "0xa94f5374fce5edbc8e2a8697c15331677e6ebf0b": {
                "nonce": "0x01",
                "balance": "0x056bc75e2d62f5d78e",
                "code": "0x",
                "storage": {}
            },
            "0xbeac020008aff7331c0a389cb2aab67597567d7a": {
                "nonce": "0x01",
                "balance": "0x00",
                "code": "0x3373fffffffffffffffffffffffffffffffffffffffe14604d57602036146024575f5ffd5b5f35801560495762001fff810690815414603c575f5ffd5b62001fff01545f5260205ff35b5f5ffd5b62001fff42064281555f359062001fff015500",
                "storage": {
                    "0x03e8": "0x03e8"
                }
            }
        },
        "sealEngine": "NoProof"
    },
    "001-fork=Cancun-outer_selfdestruct_before_inner_call": {
        "_info": {
            "filling-transition-tool": "evm version 1.13.0-unstable-998b2182-20230919",
            "reference-spec": "https://github.com/ethereum/EIPs/blob/master/EIPS/eip-6780.md",
            "reference-spec-version": "2f8299df31bb8173618901a03a8366a3183479b0"
        },
        "network": "Cancun",
        "genesisRLP": "0xf90240f9023aa00000000000000000000000000000000000000000000000000000000000000000a01dcc4de8dec75d7aab85b567b6ccd41ad312451b948a7413f0a142fd40d49347940000000000000000000000000000000000000000a0790d54bf6d798bb42a7a54f9ffedd2491d545321628ca035db837c596dd2709da056e81f171bcc55a6ff8345e692c0f86e5b48e01b996cadc001622fb5e363b421a056e81f171bcc55a6ff8345e692c0f86e5b48e01b996cadc001622fb5e363b421b9010000000000000000000000000000000000000000000000000000000000000000000000000000000000000000000000000000000000000000000000000000000000000000000000000000000000000000000000000000000000000000000000000000000000000000000000000000000000000000000000000000000000000000000000000000000000000000000000000000000000000000000000000000000000000000000000000000000000000000000000000000000000000000000000000000000000000000000000000000000000000000000000000000000000000000000000000000000000000000000000000000000000000000000000000000000000808088016345785d8a0000808000a0000000000000000000000000000000000000000000000000000000000000000088000000000000000007a056e81f171bcc55a6ff8345e692c0f86e5b48e01b996cadc001622fb5e363b4218080a00000000000000000000000000000000000000000000000000000000000000000c0c0c0",
        "genesisBlockHeader": {
            "parentHash": "0x0000000000000000000000000000000000000000000000000000000000000000",
            "uncleHash": "0x1dcc4de8dec75d7aab85b567b6ccd41ad312451b948a7413f0a142fd40d49347",
            "coinbase": "0x0000000000000000000000000000000000000000",
            "stateRoot": "0x790d54bf6d798bb42a7a54f9ffedd2491d545321628ca035db837c596dd2709d",
            "transactionsTrie": "0x56e81f171bcc55a6ff8345e692c0f86e5b48e01b996cadc001622fb5e363b421",
            "receiptTrie": "0x56e81f171bcc55a6ff8345e692c0f86e5b48e01b996cadc001622fb5e363b421",
            "bloom": "0x00000000000000000000000000000000000000000000000000000000000000000000000000000000000000000000000000000000000000000000000000000000000000000000000000000000000000000000000000000000000000000000000000000000000000000000000000000000000000000000000000000000000000000000000000000000000000000000000000000000000000000000000000000000000000000000000000000000000000000000000000000000000000000000000000000000000000000000000000000000000000000000000000000000000000000000000000000000000000000000000000000000000000000000000000000000",
            "difficulty": "0x00",
            "number": "0x00",
            "gasLimit": "0x016345785d8a0000",
            "gasUsed": "0x00",
            "timestamp": "0x00",
            "extraData": "0x00",
            "mixHash": "0x0000000000000000000000000000000000000000000000000000000000000000",
            "nonce": "0x0000000000000000",
            "baseFeePerGas": "0x07",
            "withdrawalsRoot": "0x56e81f171bcc55a6ff8345e692c0f86e5b48e01b996cadc001622fb5e363b421",
            "blobGasUsed": "0x00",
            "excessBlobGas": "0x00",
            "parentBeaconBlockRoot": "0x0000000000000000000000000000000000000000000000000000000000000000",
            "hash": "0x85344c637ec225a972967208092a02c51909af34c414397f2a17706c399dfdb0"
        },
        "blocks": [
            {
                "rlp": "0xf902b6f9023fa085344c637ec225a972967208092a02c51909af34c414397f2a17706c399dfdb0a01dcc4de8dec75d7aab85b567b6ccd41ad312451b948a7413f0a142fd40d49347942adc25665018aa1fe0e6bc666dac8fc2697ff9baa0ed5e2a2b617ca56bfda0ab34ed0ed4b4c003033856d7bad7afcc58d1e3b577aaa0aee86bdc9f4cdcab98bcbd2bf7778c96fa0ece00fcbd5e3676d7b8df9a90febaa0334e4b297114883128ee1b7d16cfbbb06eb77331aa76179e67a3c1096bb24c15b9010000000000000000000000000000000000000000000000000000000000000000000000000000000000000000000000000000000000000000000000000000000000000000000000000000000000000000000000000000000000000000000000000000000000000000000000000000000000000000000000000000000000000000000000000000000000000000000000000000000000000000000000000000000000000000000000000000000000000000000000000000000000000000000000000000000000000000000000000000000000000000000000000000000000000000000000000000000000000000000000000000000000000000000000000000000000800188016345785d8a00008302b8518203e800a0000000000000000000000000000000000000000000000000000000000000000088000000000000000007a056e81f171bcc55a6ff8345e692c0f86e5b48e01b996cadc001622fb5e363b4218080a00000000000000000000000000000000000000000000000000000000000000000f870f86e800a8405f5e1008080a1600060006000600060007300000000000000000000000000000000deadbeef45f11ba04be9d4cb23e70d0bd36b18bedaa401fd9d2dc5bce6d37bae98777c094e8d6c46a046bb18ca04a74583befbf371e13a0190e72dcdb58e6da43d192008ddb9a6afb3c0c0",
                "blockHeader": {
                    "parentHash": "0x85344c637ec225a972967208092a02c51909af34c414397f2a17706c399dfdb0",
                    "uncleHash": "0x1dcc4de8dec75d7aab85b567b6ccd41ad312451b948a7413f0a142fd40d49347",
                    "coinbase": "0x2adc25665018aa1fe0e6bc666dac8fc2697ff9ba",
                    "stateRoot": "0xed5e2a2b617ca56bfda0ab34ed0ed4b4c003033856d7bad7afcc58d1e3b577aa",
                    "transactionsTrie": "0xaee86bdc9f4cdcab98bcbd2bf7778c96fa0ece00fcbd5e3676d7b8df9a90feba",
                    "receiptTrie": "0x334e4b297114883128ee1b7d16cfbbb06eb77331aa76179e67a3c1096bb24c15",
                    "bloom": "0x00000000000000000000000000000000000000000000000000000000000000000000000000000000000000000000000000000000000000000000000000000000000000000000000000000000000000000000000000000000000000000000000000000000000000000000000000000000000000000000000000000000000000000000000000000000000000000000000000000000000000000000000000000000000000000000000000000000000000000000000000000000000000000000000000000000000000000000000000000000000000000000000000000000000000000000000000000000000000000000000000000000000000000000000000000000",
                    "difficulty": "0x00",
                    "number": "0x01",
                    "gasLimit": "0x016345785d8a0000",
                    "gasUsed": "0x02b851",
                    "timestamp": "0x03e8",
                    "extraData": "0x00",
                    "mixHash": "0x0000000000000000000000000000000000000000000000000000000000000000",
                    "nonce": "0x0000000000000000",
                    "baseFeePerGas": "0x07",
                    "withdrawalsRoot": "0x56e81f171bcc55a6ff8345e692c0f86e5b48e01b996cadc001622fb5e363b421",
                    "blobGasUsed": "0x00",
                    "excessBlobGas": "0x00",
                    "parentBeaconBlockRoot": "0x0000000000000000000000000000000000000000000000000000000000000000",
                    "hash": "0xc9853ed492316d6dca4999b88baef13e38b59784230c33a6c7b0761557f7c31d"
                },
                "transactions": [
                    {
                        "type": "0x00",
                        "chainId": "0x00",
                        "nonce": "0x00",
                        "gasPrice": "0x0a",
                        "gasLimit": "0x05f5e100",
                        "to": "",
                        "value": "0x00",
                        "data": "0x600060006000600060007300000000000000000000000000000000deadbeef45f1",
                        "v": "0x1b",
                        "r": "0x4be9d4cb23e70d0bd36b18bedaa401fd9d2dc5bce6d37bae98777c094e8d6c46",
                        "s": "0x46bb18ca04a74583befbf371e13a0190e72dcdb58e6da43d192008ddb9a6afb3",
                        "sender": "0xa94f5374fce5edbc8e2a8697c15331677e6ebf0b"
                    }
                ],
                "uncleHeaders": [],
                "withdrawals": []
            }
        ],
        "lastblockhash": "0xc9853ed492316d6dca4999b88baef13e38b59784230c33a6c7b0761557f7c31d",
        "pre": {
            "0x00000000000000000000000000000000deadbeef": {
                "nonce": "0x00",
                "balance": "0x02",
                "code": "0x5f355f6001825f811460145760018114608357005b60015f525f8060205f60017364e2ebd6405af8cb348aec519084d3fff42ebba645f1505f80525f8060205f60017364e2ebd6405af8cb348aec519084d3fff42ebba645f150815f525f8060205f803045f1507364e2ebd6405af8cb348aec519084d3fff42ebba6316001555f80f35b60015f525f8060205f60017364e2ebd6405af8cb348aec519084d3fff42ebba645f15f80fd",
                "storage": {}
            },
            "0x64e2ebd6405af8cb348aec519084d3fff42ebba6": {
                "nonce": "0x00",
                "balance": "0x00",
                "code": "0x5f35805f811460115760018114602057005b5f54600181019050805f555f80f35b60015460018101905080600155611234ff",
                "storage": {}
            },
            "0xa94f5374fce5edbc8e2a8697c15331677e6ebf0b": {
                "nonce": "0x00",
                "balance": "0x056bc75e2d63100000",
                "code": "0x",
                "storage": {}
            },
            "0xbeac020008aff7331c0a389cb2aab67597567d7a": {
                "nonce": "0x01",
                "balance": "0x00",
                "code": "0x3373fffffffffffffffffffffffffffffffffffffffe14604d57602036146024575f5ffd5b5f35801560495762001fff810690815414603c575f5ffd5b62001fff01545f5260205ff35b5f5ffd5b62001fff42064281555f359062001fff015500",
                "storage": {}
            }
        },
        "postState": {
            "0x0000000000000000000000000000000000001234": {
                "nonce": "0x00",
                "balance": "0x01",
                "code": "0x",
                "storage": {}
            },
            "0x00000000000000000000000000000000deadbeef": {
                "nonce": "0x00",
                "balance": "0x00",
                "code": "0x5f355f6001825f811460145760018114608357005b60015f525f8060205f60017364e2ebd6405af8cb348aec519084d3fff42ebba645f1505f80525f8060205f60017364e2ebd6405af8cb348aec519084d3fff42ebba645f150815f525f8060205f803045f1507364e2ebd6405af8cb348aec519084d3fff42ebba6316001555f80f35b60015f525f8060205f60017364e2ebd6405af8cb348aec519084d3fff42ebba645f15f80fd",
                "storage": {
                    "0x01": "0x01"
                }
            },
            "0x2adc25665018aa1fe0e6bc666dac8fc2697ff9ba": {
                "nonce": "0x00",
                "balance": "0x0828f3",
                "code": "0x",
                "storage": {}
            },
            "0x6295ee1b4f6dd65047762f924ecd367c17eabf8f": {
                "nonce": "0x01",
                "balance": "0x00",
                "code": "0x",
                "storage": {}
            },
            "0x64e2ebd6405af8cb348aec519084d3fff42ebba6": {
                "nonce": "0x00",
                "balance": "0x01",
                "code": "0x5f35805f811460115760018114602057005b5f54600181019050805f555f80f35b60015460018101905080600155611234ff",
                "storage": {
                    "0x00": "0x01",
                    "0x01": "0x01"
                }
            },
            "0xa94f5374fce5edbc8e2a8697c15331677e6ebf0b": {
                "nonce": "0x01",
                "balance": "0x056bc75e2d62f4ccd6",
                "code": "0x",
                "storage": {}
            },
            "0xbeac020008aff7331c0a389cb2aab67597567d7a": {
                "nonce": "0x01",
                "balance": "0x00",
                "code": "0x3373fffffffffffffffffffffffffffffffffffffffe14604d57602036146024575f5ffd5b5f35801560495762001fff810690815414603c575f5ffd5b62001fff01545f5260205ff35b5f5ffd5b62001fff42064281555f359062001fff015500",
                "storage": {
                    "0x03e8": "0x03e8"
                }
            }
        },
        "sealEngine": "NoProof"
    },
    "002-fork=Cancun-outer_selfdestruct_after_inner_call": {
        "_info": {
            "filling-transition-tool": "evm version 1.13.0-unstable-998b2182-20230919",
            "reference-spec": "https://github.com/ethereum/EIPs/blob/master/EIPS/eip-6780.md",
            "reference-spec-version": "2f8299df31bb8173618901a03a8366a3183479b0"
        },
        "network": "Cancun",
        "genesisRLP": "0xf90240f9023aa00000000000000000000000000000000000000000000000000000000000000000a01dcc4de8dec75d7aab85b567b6ccd41ad312451b948a7413f0a142fd40d49347940000000000000000000000000000000000000000a0ee6cd34b09c863f02122b0f10af28252fbfe705a706931657c249a7e608af073a056e81f171bcc55a6ff8345e692c0f86e5b48e01b996cadc001622fb5e363b421a056e81f171bcc55a6ff8345e692c0f86e5b48e01b996cadc001622fb5e363b421b9010000000000000000000000000000000000000000000000000000000000000000000000000000000000000000000000000000000000000000000000000000000000000000000000000000000000000000000000000000000000000000000000000000000000000000000000000000000000000000000000000000000000000000000000000000000000000000000000000000000000000000000000000000000000000000000000000000000000000000000000000000000000000000000000000000000000000000000000000000000000000000000000000000000000000000000000000000000000000000000000000000000000000000000000000000000000808088016345785d8a0000808000a0000000000000000000000000000000000000000000000000000000000000000088000000000000000007a056e81f171bcc55a6ff8345e692c0f86e5b48e01b996cadc001622fb5e363b4218080a00000000000000000000000000000000000000000000000000000000000000000c0c0c0",
        "genesisBlockHeader": {
            "parentHash": "0x0000000000000000000000000000000000000000000000000000000000000000",
            "uncleHash": "0x1dcc4de8dec75d7aab85b567b6ccd41ad312451b948a7413f0a142fd40d49347",
            "coinbase": "0x0000000000000000000000000000000000000000",
            "stateRoot": "0xee6cd34b09c863f02122b0f10af28252fbfe705a706931657c249a7e608af073",
            "transactionsTrie": "0x56e81f171bcc55a6ff8345e692c0f86e5b48e01b996cadc001622fb5e363b421",
            "receiptTrie": "0x56e81f171bcc55a6ff8345e692c0f86e5b48e01b996cadc001622fb5e363b421",
            "bloom": "0x00000000000000000000000000000000000000000000000000000000000000000000000000000000000000000000000000000000000000000000000000000000000000000000000000000000000000000000000000000000000000000000000000000000000000000000000000000000000000000000000000000000000000000000000000000000000000000000000000000000000000000000000000000000000000000000000000000000000000000000000000000000000000000000000000000000000000000000000000000000000000000000000000000000000000000000000000000000000000000000000000000000000000000000000000000000",
            "difficulty": "0x00",
            "number": "0x00",
            "gasLimit": "0x016345785d8a0000",
            "gasUsed": "0x00",
            "timestamp": "0x00",
            "extraData": "0x00",
            "mixHash": "0x0000000000000000000000000000000000000000000000000000000000000000",
            "nonce": "0x0000000000000000",
            "baseFeePerGas": "0x07",
            "withdrawalsRoot": "0x56e81f171bcc55a6ff8345e692c0f86e5b48e01b996cadc001622fb5e363b421",
            "blobGasUsed": "0x00",
            "excessBlobGas": "0x00",
            "parentBeaconBlockRoot": "0x0000000000000000000000000000000000000000000000000000000000000000",
            "hash": "0xedc65b55d5168185e6220ebfa07956c8c84abf5aab3523641b4e154c0b662827"
        },
        "blocks": [
            {
                "rlp": "0xf902b6f9023fa0edc65b55d5168185e6220ebfa07956c8c84abf5aab3523641b4e154c0b662827a01dcc4de8dec75d7aab85b567b6ccd41ad312451b948a7413f0a142fd40d49347942adc25665018aa1fe0e6bc666dac8fc2697ff9baa0e69197589da9cf67b37b7afe922e01397632ad68fd5e7c09c46663dc54c248bfa0aee86bdc9f4cdcab98bcbd2bf7778c96fa0ece00fcbd5e3676d7b8df9a90febaa0519698b6d7bf651575602756f0eca7bce1772ca28cfe0d5a71d365053c0bbefdb9010000000000000000000000000000000000000000000000000000000000000000000000000000000000000000000000000000000000000000000000000000000000000000000000000000000000000000000000000000000000000000000000000000000000000000000000000000000000000000000000000000000000000000000000000000000000000000000000000000000000000000000000000000000000000000000000000000000000000000000000000000000000000000000000000000000000000000000000000000000000000000000000000000000000000000000000000000000000000000000000000000000000000000000000000000000000800188016345785d8a000083038e498203e800a0000000000000000000000000000000000000000000000000000000000000000088000000000000000007a056e81f171bcc55a6ff8345e692c0f86e5b48e01b996cadc001622fb5e363b4218080a00000000000000000000000000000000000000000000000000000000000000000f870f86e800a8405f5e1008080a1600060006000600060007300000000000000000000000000000000deadbeef45f11ba04be9d4cb23e70d0bd36b18bedaa401fd9d2dc5bce6d37bae98777c094e8d6c46a046bb18ca04a74583befbf371e13a0190e72dcdb58e6da43d192008ddb9a6afb3c0c0",
                "blockHeader": {
                    "parentHash": "0xedc65b55d5168185e6220ebfa07956c8c84abf5aab3523641b4e154c0b662827",
                    "uncleHash": "0x1dcc4de8dec75d7aab85b567b6ccd41ad312451b948a7413f0a142fd40d49347",
                    "coinbase": "0x2adc25665018aa1fe0e6bc666dac8fc2697ff9ba",
                    "stateRoot": "0xe69197589da9cf67b37b7afe922e01397632ad68fd5e7c09c46663dc54c248bf",
                    "transactionsTrie": "0xaee86bdc9f4cdcab98bcbd2bf7778c96fa0ece00fcbd5e3676d7b8df9a90feba",
                    "receiptTrie": "0x519698b6d7bf651575602756f0eca7bce1772ca28cfe0d5a71d365053c0bbefd",
                    "bloom": "0x00000000000000000000000000000000000000000000000000000000000000000000000000000000000000000000000000000000000000000000000000000000000000000000000000000000000000000000000000000000000000000000000000000000000000000000000000000000000000000000000000000000000000000000000000000000000000000000000000000000000000000000000000000000000000000000000000000000000000000000000000000000000000000000000000000000000000000000000000000000000000000000000000000000000000000000000000000000000000000000000000000000000000000000000000000000",
                    "difficulty": "0x00",
                    "number": "0x01",
                    "gasLimit": "0x016345785d8a0000",
                    "gasUsed": "0x038e49",
                    "timestamp": "0x03e8",
                    "extraData": "0x00",
                    "mixHash": "0x0000000000000000000000000000000000000000000000000000000000000000",
                    "nonce": "0x0000000000000000",
                    "baseFeePerGas": "0x07",
                    "withdrawalsRoot": "0x56e81f171bcc55a6ff8345e692c0f86e5b48e01b996cadc001622fb5e363b421",
                    "blobGasUsed": "0x00",
                    "excessBlobGas": "0x00",
                    "parentBeaconBlockRoot": "0x0000000000000000000000000000000000000000000000000000000000000000",
                    "hash": "0xc85bd8a383eecc35b8dbc6f309edfe7ca73dab70bef8a0e2b02463c5069ff76a"
                },
                "transactions": [
                    {
                        "type": "0x00",
                        "chainId": "0x00",
                        "nonce": "0x00",
                        "gasPrice": "0x0a",
                        "gasLimit": "0x05f5e100",
                        "to": "",
                        "value": "0x00",
                        "data": "0x600060006000600060007300000000000000000000000000000000deadbeef45f1",
                        "v": "0x1b",
                        "r": "0x4be9d4cb23e70d0bd36b18bedaa401fd9d2dc5bce6d37bae98777c094e8d6c46",
                        "s": "0x46bb18ca04a74583befbf371e13a0190e72dcdb58e6da43d192008ddb9a6afb3",
                        "sender": "0xa94f5374fce5edbc8e2a8697c15331677e6ebf0b"
                    }
                ],
                "uncleHeaders": [],
                "withdrawals": []
            }
        ],
        "lastblockhash": "0xc85bd8a383eecc35b8dbc6f309edfe7ca73dab70bef8a0e2b02463c5069ff76a",
        "pre": {
            "0x00000000000000000000000000000000deadbeef": {
                "nonce": "0x00",
                "balance": "0x02",
                "code": "0x5f355f6001825f811460145760018114608257005b5f80525f8060205f60017364e2ebd6405af8cb348aec519084d3fff42ebba645f150815f525f8060205f803045f1507364e2ebd6405af8cb348aec519084d3fff42ebba63160015560015f525f8060205f60017364e2ebd6405af8cb348aec519084d3fff42ebba645f15f80f35b60015f525f8060205f60017364e2ebd6405af8cb348aec519084d3fff42ebba645f15f80fd",
                "storage": {}
            },
            "0x64e2ebd6405af8cb348aec519084d3fff42ebba6": {
                "nonce": "0x00",
                "balance": "0x00",
                "code": "0x5f35805f811460115760018114602057005b5f54600181019050805f555f80f35b60015460018101905080600155611234ff",
                "storage": {}
            },
            "0xa94f5374fce5edbc8e2a8697c15331677e6ebf0b": {
                "nonce": "0x00",
                "balance": "0x056bc75e2d63100000",
                "code": "0x",
                "storage": {}
            },
            "0xbeac020008aff7331c0a389cb2aab67597567d7a": {
                "nonce": "0x01",
                "balance": "0x00",
                "code": "0x3373fffffffffffffffffffffffffffffffffffffffe14604d57602036146024575f5ffd5b5f35801560495762001fff810690815414603c575f5ffd5b62001fff01545f5260205ff35b5f5ffd5b62001fff42064281555f359062001fff015500",
                "storage": {}
            }
        },
        "postState": {
            "0x0000000000000000000000000000000000001234": {
                "nonce": "0x00",
                "balance": "0x02",
                "code": "0x",
                "storage": {}
            },
            "0x00000000000000000000000000000000deadbeef": {
                "nonce": "0x00",
                "balance": "0x00",
                "code": "0x5f355f6001825f811460145760018114608257005b5f80525f8060205f60017364e2ebd6405af8cb348aec519084d3fff42ebba645f150815f525f8060205f803045f1507364e2ebd6405af8cb348aec519084d3fff42ebba63160015560015f525f8060205f60017364e2ebd6405af8cb348aec519084d3fff42ebba645f15f80f35b60015f525f8060205f60017364e2ebd6405af8cb348aec519084d3fff42ebba645f15f80fd",
                "storage": {
                    "0x01": "0x01"
                }
            },
            "0x2adc25665018aa1fe0e6bc666dac8fc2697ff9ba": {
                "nonce": "0x00",
                "balance": "0x0aaadb",
                "code": "0x",
                "storage": {}
            },
            "0x6295ee1b4f6dd65047762f924ecd367c17eabf8f": {
                "nonce": "0x01",
                "balance": "0x00",
                "code": "0x",
                "storage": {}
            },
            "0x64e2ebd6405af8cb348aec519084d3fff42ebba6": {
                "nonce": "0x00",
                "balance": "0x00",
                "code": "0x5f35805f811460115760018114602057005b5f54600181019050805f555f80f35b60015460018101905080600155611234ff",
                "storage": {
                    "0x00": "0x01",
                    "0x01": "0x01"
                }
            },
            "0xa94f5374fce5edbc8e2a8697c15331677e6ebf0b": {
                "nonce": "0x01",
                "balance": "0x056bc75e2d62ec7126",
                "code": "0x",
                "storage": {}
            },
            "0xbeac020008aff7331c0a389cb2aab67597567d7a": {
                "nonce": "0x01",
                "balance": "0x00",
                "code": "0x3373fffffffffffffffffffffffffffffffffffffffe14604d57602036146024575f5ffd5b5f35801560495762001fff810690815414603c575f5ffd5b62001fff01545f5260205ff35b5f5ffd5b62001fff42064281555f359062001fff015500",
                "storage": {
                    "0x03e8": "0x03e8"
                }
            }
        },
        "sealEngine": "NoProof"
    }
}