{
    "000-fork=Cancun-no_outer_selfdestruct": {
        "_info": {
            "filling-transition-tool": "evm version 1.13.0-unstable-998b2182-20230919",
            "reference-spec": "https://github.com/ethereum/EIPs/blob/master/EIPS/eip-6780.md",
            "reference-spec-version": "2f8299df31bb8173618901a03a8366a3183479b0"
        },
        "network": "Cancun",
        "genesisRLP": "0xf90240f9023aa00000000000000000000000000000000000000000000000000000000000000000a01dcc4de8dec75d7aab85b567b6ccd41ad312451b948a7413f0a142fd40d49347940000000000000000000000000000000000000000a0ec8597d9ee7c3a3bdba4596e878dfe12c9a40edbbd47e48b1c05291e1ec8ea71a056e81f171bcc55a6ff8345e692c0f86e5b48e01b996cadc001622fb5e363b421a056e81f171bcc55a6ff8345e692c0f86e5b48e01b996cadc001622fb5e363b421b9010000000000000000000000000000000000000000000000000000000000000000000000000000000000000000000000000000000000000000000000000000000000000000000000000000000000000000000000000000000000000000000000000000000000000000000000000000000000000000000000000000000000000000000000000000000000000000000000000000000000000000000000000000000000000000000000000000000000000000000000000000000000000000000000000000000000000000000000000000000000000000000000000000000000000000000000000000000000000000000000000000000000000000000000000000000000808088016345785d8a0000808000a0000000000000000000000000000000000000000000000000000000000000000088000000000000000007a056e81f171bcc55a6ff8345e692c0f86e5b48e01b996cadc001622fb5e363b4218080a00000000000000000000000000000000000000000000000000000000000000000c0c0c0",
        "genesisBlockHeader": {
            "parentHash": "0x0000000000000000000000000000000000000000000000000000000000000000",
            "uncleHash": "0x1dcc4de8dec75d7aab85b567b6ccd41ad312451b948a7413f0a142fd40d49347",
            "coinbase": "0x0000000000000000000000000000000000000000",
            "stateRoot": "0xec8597d9ee7c3a3bdba4596e878dfe12c9a40edbbd47e48b1c05291e1ec8ea71",
            "transactionsTrie": "0x56e81f171bcc55a6ff8345e692c0f86e5b48e01b996cadc001622fb5e363b421",
            "receiptTrie": "0x56e81f171bcc55a6ff8345e692c0f86e5b48e01b996cadc001622fb5e363b421",
            "bloom": "0x00000000000000000000000000000000000000000000000000000000000000000000000000000000000000000000000000000000000000000000000000000000000000000000000000000000000000000000000000000000000000000000000000000000000000000000000000000000000000000000000000000000000000000000000000000000000000000000000000000000000000000000000000000000000000000000000000000000000000000000000000000000000000000000000000000000000000000000000000000000000000000000000000000000000000000000000000000000000000000000000000000000000000000000000000000000",
            "difficulty": "0x00",
            "number": "0x00",
            "gasLimit": "0x016345785d8a0000",
            "gasUsed": "0x00",
            "timestamp": "0x00",
            "extraData": "0x00",
            "mixHash": "0x0000000000000000000000000000000000000000000000000000000000000000",
            "nonce": "0x0000000000000000",
            "baseFeePerGas": "0x07",
            "withdrawalsRoot": "0x56e81f171bcc55a6ff8345e692c0f86e5b48e01b996cadc001622fb5e363b421",
            "blobGasUsed": "0x00",
            "excessBlobGas": "0x00",
            "parentBeaconBlockRoot": "0x0000000000000000000000000000000000000000000000000000000000000000",
            "hash": "0x46c23db060edaef864f440af2cb702328466168bbea1855304b5905b5d47e1f8"
        },
        "blocks": [
            {
                "rlp": "0xf902ddf9023fa046c23db060edaef864f440af2cb702328466168bbea1855304b5905b5d47e1f8a01dcc4de8dec75d7aab85b567b6ccd41ad312451b948a7413f0a142fd40d49347942adc25665018aa1fe0e6bc666dac8fc2697ff9baa0c6e19d34c8621ac9c1e3a6a88330821b35f8354b7f29f05c7c6ebdf40716a84da0b3311f08e0e6add21bf54e298fc03e742cf752dff6576f524c3bbf94b39bb005a0d5dea520f962bcb326c68f90f6eae6733b4002522d7a32da37cdc5c142b4dc4fb9010000000000000000000000000000000000000000000000000000000000000000000000000000000000000000000000000000000000000000000000000000000000000000000000000000000000000000000000000000000000000000000000000000000000000000000000000000000000000000000000000000000000000000000000000000000000000000000000000000000000000000000000000000000000000000000000000000000000000000000000000000000000000000000000000000000000000000000000000000000000000000000000000000000000000000000000000000000000000000000000000000000000000000000000000000000000800188016345785d8a000083039a018203e800a0000000000000000000000000000000000000000000000000000000000000000088000000000000000007a056e81f171bcc55a6ff8345e692c0f86e5b48e01b996cadc001622fb5e363b4218080a00000000000000000000000000000000000000000000000000000000000000000f897f895800a8405f5e1008080b847603d6000600073000000000000000000000000000000000000abcd3c603d60006000f0600055600060006000600060007300000000000000000000000000000000deadbeef45f11ca05e2399ead0884964c44343e87ac090921870df6da40048cf4a37c2a5144cc3e9a04b5f3ec615e2767d1a598c5b5ab49e9666c4214bd453b2270e06319a6412cca2c0c0",
                "blockHeader": {
                    "parentHash": "0x46c23db060edaef864f440af2cb702328466168bbea1855304b5905b5d47e1f8",
                    "uncleHash": "0x1dcc4de8dec75d7aab85b567b6ccd41ad312451b948a7413f0a142fd40d49347",
                    "coinbase": "0x2adc25665018aa1fe0e6bc666dac8fc2697ff9ba",
                    "stateRoot": "0xc6e19d34c8621ac9c1e3a6a88330821b35f8354b7f29f05c7c6ebdf40716a84d",
                    "transactionsTrie": "0xb3311f08e0e6add21bf54e298fc03e742cf752dff6576f524c3bbf94b39bb005",
                    "receiptTrie": "0xd5dea520f962bcb326c68f90f6eae6733b4002522d7a32da37cdc5c142b4dc4f",
                    "bloom": "0x00000000000000000000000000000000000000000000000000000000000000000000000000000000000000000000000000000000000000000000000000000000000000000000000000000000000000000000000000000000000000000000000000000000000000000000000000000000000000000000000000000000000000000000000000000000000000000000000000000000000000000000000000000000000000000000000000000000000000000000000000000000000000000000000000000000000000000000000000000000000000000000000000000000000000000000000000000000000000000000000000000000000000000000000000000000",
                    "difficulty": "0x00",
                    "number": "0x01",
                    "gasLimit": "0x016345785d8a0000",
                    "gasUsed": "0x039a01",
                    "timestamp": "0x03e8",
                    "extraData": "0x00",
                    "mixHash": "0x0000000000000000000000000000000000000000000000000000000000000000",
                    "nonce": "0x0000000000000000",
                    "baseFeePerGas": "0x07",
                    "withdrawalsRoot": "0x56e81f171bcc55a6ff8345e692c0f86e5b48e01b996cadc001622fb5e363b421",
                    "blobGasUsed": "0x00",
                    "excessBlobGas": "0x00",
                    "parentBeaconBlockRoot": "0x0000000000000000000000000000000000000000000000000000000000000000",
                    "hash": "0x1c9f754107b6388d5fe202d2555ee4fbd867333d42c419187571231f05534c6b"
                },
                "transactions": [
                    {
                        "type": "0x00",
                        "chainId": "0x00",
                        "nonce": "0x00",
                        "gasPrice": "0x0a",
                        "gasLimit": "0x05f5e100",
                        "to": "",
                        "value": "0x00",
                        "data": "0x603d6000600073000000000000000000000000000000000000abcd3c603d60006000f0600055600060006000600060007300000000000000000000000000000000deadbeef45f1",
                        "v": "0x1c",
                        "r": "0x5e2399ead0884964c44343e87ac090921870df6da40048cf4a37c2a5144cc3e9",
                        "s": "0x4b5f3ec615e2767d1a598c5b5ab49e9666c4214bd453b2270e06319a6412cca2",
                        "sender": "0xa94f5374fce5edbc8e2a8697c15331677e6ebf0b"
                    }
                ],
                "uncleHeaders": [],
                "withdrawals": []
            }
        ],
        "lastblockhash": "0x1c9f754107b6388d5fe202d2555ee4fbd867333d42c419187571231f05534c6b",
        "pre": {
            "0x000000000000000000000000000000000000abcd": {
                "nonce": "0x00",
                "balance": "0x00",
                "code": "0x610032600081600b8239f35f35805f811460115760018114602057005b5f54600181019050805f555f80f35b60015460018101905080600155611234ff",
                "storage": {}
            },
            "0x00000000000000000000000000000000deadbeef": {
                "nonce": "0x00",
                "balance": "0x03",
                "code": "0x5f355f6001825f811460145760018114606057005b5f80525f8060205f60017364e2ebd6405af8cb348aec519084d3fff42ebba645f150815f525f8060205f803045f1507364e2ebd6405af8cb348aec519084d3fff42ebba6316001555f80f35b60015f525f8060205f60017364e2ebd6405af8cb348aec519084d3fff42ebba645f15f80fd",
                "storage": {}
            },
            "0xa94f5374fce5edbc8e2a8697c15331677e6ebf0b": {
                "nonce": "0x00",
                "balance": "0x056bc75e2d63100000",
                "code": "0x",
                "storage": {}
            },
            "0xbeac020008aff7331c0a389cb2aab67597567d7a": {
                "nonce": "0x01",
                "balance": "0x00",
                "code": "0x3373fffffffffffffffffffffffffffffffffffffffe14604d57602036146024575f5ffd5b5f35801560495762001fff810690815414603c575f5ffd5b62001fff01545f5260205ff35b5f5ffd5b62001fff42064281555f359062001fff015500",
                "storage": {}
            }
        },
        "postState": {
            "0x000000000000000000000000000000000000abcd": {
                "nonce": "0x00",
                "balance": "0x00",
                "code": "0x610032600081600b8239f35f35805f811460115760018114602057005b5f54600181019050805f555f80f35b60015460018101905080600155611234ff",
                "storage": {}
            },
            "0x00000000000000000000000000000000deadbeef": {
                "nonce": "0x00",
                "balance": "0x02",
                "code": "0x5f355f6001825f811460145760018114606057005b5f80525f8060205f60017364e2ebd6405af8cb348aec519084d3fff42ebba645f150815f525f8060205f803045f1507364e2ebd6405af8cb348aec519084d3fff42ebba6316001555f80f35b60015f525f8060205f60017364e2ebd6405af8cb348aec519084d3fff42ebba645f15f80fd",
                "storage": {
                    "0x01": "0x01"
                }
            },
            "0x2adc25665018aa1fe0e6bc666dac8fc2697ff9ba": {
                "nonce": "0x00",
                "balance": "0x0ace03",
                "code": "0x",
                "storage": {}
            },
            "0x6295ee1b4f6dd65047762f924ecd367c17eabf8f": {
                "nonce": "0x02",
                "balance": "0x00",
                "code": "0x",
                "storage": {
                    "0x00": "0x64e2ebd6405af8cb348aec519084d3fff42ebba6"
                }
            },
            "0x64e2ebd6405af8cb348aec519084d3fff42ebba6": {
                "nonce": "0x01",
                "balance": "0x01",
                "code": "0x5f35805f811460115760018114602057005b5f54600181019050805f555f80f35b60015460018101905080600155611234ff",
                "storage": {
                    "0x00": "0x01"
                }
            },
            "0xa94f5374fce5edbc8e2a8697c15331677e6ebf0b": {
                "nonce": "0x01",
                "balance": "0x056bc75e2d62ebfbf6",
                "code": "0x",
                "storage": {}
            },
            "0xbeac020008aff7331c0a389cb2aab67597567d7a": {
                "nonce": "0x01",
                "balance": "0x00",
                "code": "0x3373fffffffffffffffffffffffffffffffffffffffe14604d57602036146024575f5ffd5b5f35801560495762001fff810690815414603c575f5ffd5b62001fff01545f5260205ff35b5f5ffd5b62001fff42064281555f359062001fff015500",
                "storage": {
                    "0x03e8": "0x03e8"
                }
            }
        },
        "sealEngine": "NoProof"
    },
    "001-fork=Cancun-outer_selfdestruct_before_inner_call": {
        "_info": {
            "filling-transition-tool": "evm version 1.13.0-unstable-998b2182-20230919",
            "reference-spec": "https://github.com/ethereum/EIPs/blob/master/EIPS/eip-6780.md",
            "reference-spec-version": "2f8299df31bb8173618901a03a8366a3183479b0"
        },
        "network": "Cancun",
        "genesisRLP": "0xf90240f9023aa00000000000000000000000000000000000000000000000000000000000000000a01dcc4de8dec75d7aab85b567b6ccd41ad312451b948a7413f0a142fd40d49347940000000000000000000000000000000000000000a03f2210caf68c2003be11c4a2c1f8b5da843e359af529d3085453d7fd4cca93f2a056e81f171bcc55a6ff8345e692c0f86e5b48e01b996cadc001622fb5e363b421a056e81f171bcc55a6ff8345e692c0f86e5b48e01b996cadc001622fb5e363b421b9010000000000000000000000000000000000000000000000000000000000000000000000000000000000000000000000000000000000000000000000000000000000000000000000000000000000000000000000000000000000000000000000000000000000000000000000000000000000000000000000000000000000000000000000000000000000000000000000000000000000000000000000000000000000000000000000000000000000000000000000000000000000000000000000000000000000000000000000000000000000000000000000000000000000000000000000000000000000000000000000000000000000000000000000000000000000808088016345785d8a0000808000a0000000000000000000000000000000000000000000000000000000000000000088000000000000000007a056e81f171bcc55a6ff8345e692c0f86e5b48e01b996cadc001622fb5e363b4218080a00000000000000000000000000000000000000000000000000000000000000000c0c0c0",
        "genesisBlockHeader": {
            "parentHash": "0x0000000000000000000000000000000000000000000000000000000000000000",
            "uncleHash": "0x1dcc4de8dec75d7aab85b567b6ccd41ad312451b948a7413f0a142fd40d49347",
            "coinbase": "0x0000000000000000000000000000000000000000",
            "stateRoot": "0x3f2210caf68c2003be11c4a2c1f8b5da843e359af529d3085453d7fd4cca93f2",
            "transactionsTrie": "0x56e81f171bcc55a6ff8345e692c0f86e5b48e01b996cadc001622fb5e363b421",
            "receiptTrie": "0x56e81f171bcc55a6ff8345e692c0f86e5b48e01b996cadc001622fb5e363b421",
            "bloom": "0x00000000000000000000000000000000000000000000000000000000000000000000000000000000000000000000000000000000000000000000000000000000000000000000000000000000000000000000000000000000000000000000000000000000000000000000000000000000000000000000000000000000000000000000000000000000000000000000000000000000000000000000000000000000000000000000000000000000000000000000000000000000000000000000000000000000000000000000000000000000000000000000000000000000000000000000000000000000000000000000000000000000000000000000000000000000",
            "difficulty": "0x00",
            "number": "0x00",
            "gasLimit": "0x016345785d8a0000",
            "gasUsed": "0x00",
            "timestamp": "0x00",
            "extraData": "0x00",
            "mixHash": "0x0000000000000000000000000000000000000000000000000000000000000000",
            "nonce": "0x0000000000000000",
            "baseFeePerGas": "0x07",
            "withdrawalsRoot": "0x56e81f171bcc55a6ff8345e692c0f86e5b48e01b996cadc001622fb5e363b421",
            "blobGasUsed": "0x00",
            "excessBlobGas": "0x00",
            "parentBeaconBlockRoot": "0x0000000000000000000000000000000000000000000000000000000000000000",
            "hash": "0x5d6e2a1689e9bcf4f77116f57775b73aadac465116db43f922a499cb26343843"
        },
        "blocks": [
            {
                "rlp": "0xf902ddf9023fa05d6e2a1689e9bcf4f77116f57775b73aadac465116db43f922a499cb26343843a01dcc4de8dec75d7aab85b567b6ccd41ad312451b948a7413f0a142fd40d49347942adc25665018aa1fe0e6bc666dac8fc2697ff9baa0be423ac8fa8b47f46068aad78606851c27ae04c44c2b9f4263583bce82379f76a0b3311f08e0e6add21bf54e298fc03e742cf752dff6576f524c3bbf94b39bb005a0ba216058b12806178572364e550932d11bd7e16508f0047899cd89c57c993493b9010000000000000000000000000000000000000000000000000000000000000000000000000000000000000000000000000000000000000000000000000000000000000000000000000000000000000000000000000000000000000000000000000000000000000000000000000000000000000000000000000000000000000000000000000000000000000000000000000000000000000000000000000000000000000000000000000000000000000000000000000000000000000000000000000000000000000000000000000000000000000000000000000000000000000000000000000000000000000000000000000000000000000000000000000000000000800188016345785d8a00008303c94b8203e800a0000000000000000000000000000000000000000000000000000000000000000088000000000000000007a056e81f171bcc55a6ff8345e692c0f86e5b48e01b996cadc001622fb5e363b4218080a00000000000000000000000000000000000000000000000000000000000000000f897f895800a8405f5e1008080b847603d6000600073000000000000000000000000000000000000abcd3c603d60006000f0600055600060006000600060007300000000000000000000000000000000deadbeef45f11ca05e2399ead0884964c44343e87ac090921870df6da40048cf4a37c2a5144cc3e9a04b5f3ec615e2767d1a598c5b5ab49e9666c4214bd453b2270e06319a6412cca2c0c0",
                "blockHeader": {
                    "parentHash": "0x5d6e2a1689e9bcf4f77116f57775b73aadac465116db43f922a499cb26343843",
                    "uncleHash": "0x1dcc4de8dec75d7aab85b567b6ccd41ad312451b948a7413f0a142fd40d49347",
                    "coinbase": "0x2adc25665018aa1fe0e6bc666dac8fc2697ff9ba",
                    "stateRoot": "0xbe423ac8fa8b47f46068aad78606851c27ae04c44c2b9f4263583bce82379f76",
                    "transactionsTrie": "0xb3311f08e0e6add21bf54e298fc03e742cf752dff6576f524c3bbf94b39bb005",
                    "receiptTrie": "0xba216058b12806178572364e550932d11bd7e16508f0047899cd89c57c993493",
                    "bloom": "0x00000000000000000000000000000000000000000000000000000000000000000000000000000000000000000000000000000000000000000000000000000000000000000000000000000000000000000000000000000000000000000000000000000000000000000000000000000000000000000000000000000000000000000000000000000000000000000000000000000000000000000000000000000000000000000000000000000000000000000000000000000000000000000000000000000000000000000000000000000000000000000000000000000000000000000000000000000000000000000000000000000000000000000000000000000000",
                    "difficulty": "0x00",
                    "number": "0x01",
                    "gasLimit": "0x016345785d8a0000",
                    "gasUsed": "0x03c94b",
                    "timestamp": "0x03e8",
                    "extraData": "0x00",
                    "mixHash": "0x0000000000000000000000000000000000000000000000000000000000000000",
                    "nonce": "0x0000000000000000",
                    "baseFeePerGas": "0x07",
                    "withdrawalsRoot": "0x56e81f171bcc55a6ff8345e692c0f86e5b48e01b996cadc001622fb5e363b421",
                    "blobGasUsed": "0x00",
                    "excessBlobGas": "0x00",
                    "parentBeaconBlockRoot": "0x0000000000000000000000000000000000000000000000000000000000000000",
                    "hash": "0x7fd7c237db8b6172898e94aad3cf3169b5a53e4e2dbc6edcdcdeb7d0de4d56c1"
                },
                "transactions": [
                    {
                        "type": "0x00",
                        "chainId": "0x00",
                        "nonce": "0x00",
                        "gasPrice": "0x0a",
                        "gasLimit": "0x05f5e100",
                        "to": "",
                        "value": "0x00",
                        "data": "0x603d6000600073000000000000000000000000000000000000abcd3c603d60006000f0600055600060006000600060007300000000000000000000000000000000deadbeef45f1",
                        "v": "0x1c",
                        "r": "0x5e2399ead0884964c44343e87ac090921870df6da40048cf4a37c2a5144cc3e9",
                        "s": "0x4b5f3ec615e2767d1a598c5b5ab49e9666c4214bd453b2270e06319a6412cca2",
                        "sender": "0xa94f5374fce5edbc8e2a8697c15331677e6ebf0b"
                    }
                ],
                "uncleHeaders": [],
                "withdrawals": []
            }
        ],
        "lastblockhash": "0x7fd7c237db8b6172898e94aad3cf3169b5a53e4e2dbc6edcdcdeb7d0de4d56c1",
        "pre": {
            "0x000000000000000000000000000000000000abcd": {
                "nonce": "0x00",
                "balance": "0x00",
                "code": "0x610032600081600b8239f35f35805f811460115760018114602057005b5f54600181019050805f555f80f35b60015460018101905080600155611234ff",
                "storage": {}
            },
            "0x00000000000000000000000000000000deadbeef": {
                "nonce": "0x00",
                "balance": "0x03",
                "code": "0x5f355f6001825f811460145760018114608357005b60015f525f8060205f60017364e2ebd6405af8cb348aec519084d3fff42ebba645f1505f80525f8060205f60017364e2ebd6405af8cb348aec519084d3fff42ebba645f150815f525f8060205f803045f1507364e2ebd6405af8cb348aec519084d3fff42ebba6316001555f80f35b60015f525f8060205f60017364e2ebd6405af8cb348aec519084d3fff42ebba645f15f80fd",
                "storage": {}
            },
            "0xa94f5374fce5edbc8e2a8697c15331677e6ebf0b": {
                "nonce": "0x00",
                "balance": "0x056bc75e2d63100000",
                "code": "0x",
                "storage": {}
            },
            "0xbeac020008aff7331c0a389cb2aab67597567d7a": {
                "nonce": "0x01",
                "balance": "0x00",
                "code": "0x3373fffffffffffffffffffffffffffffffffffffffe14604d57602036146024575f5ffd5b5f35801560495762001fff810690815414603c575f5ffd5b62001fff01545f5260205ff35b5f5ffd5b62001fff42064281555f359062001fff015500",
                "storage": {}
            }
        },
        "postState": {
            "0x0000000000000000000000000000000000001234": {
                "nonce": "0x00",
                "balance": "0x01",
                "code": "0x",
                "storage": {}
            },
            "0x000000000000000000000000000000000000abcd": {
                "nonce": "0x00",
                "balance": "0x00",
                "code": "0x610032600081600b8239f35f35805f811460115760018114602057005b5f54600181019050805f555f80f35b60015460018101905080600155611234ff",
                "storage": {}
            },
            "0x00000000000000000000000000000000deadbeef": {
                "nonce": "0x00",
                "balance": "0x01",
                "code": "0x5f355f6001825f811460145760018114608357005b60015f525f8060205f60017364e2ebd6405af8cb348aec519084d3fff42ebba645f1505f80525f8060205f60017364e2ebd6405af8cb348aec519084d3fff42ebba645f150815f525f8060205f803045f1507364e2ebd6405af8cb348aec519084d3fff42ebba6316001555f80f35b60015f525f8060205f60017364e2ebd6405af8cb348aec519084d3fff42ebba645f15f80fd",
                "storage": {
                    "0x01": "0x01"
                }
            },
            "0x2adc25665018aa1fe0e6bc666dac8fc2697ff9ba": {
                "nonce": "0x00",
                "balance": "0x0b5be1",
                "code": "0x",
                "storage": {}
            },
            "0x6295ee1b4f6dd65047762f924ecd367c17eabf8f": {
                "nonce": "0x02",
                "balance": "0x00",
                "code": "0x",
                "storage": {
                    "0x00": "0x64e2ebd6405af8cb348aec519084d3fff42ebba6"
                }
            },
            "0xa94f5374fce5edbc8e2a8697c15331677e6ebf0b": {
                "nonce": "0x01",
                "balance": "0x056bc75e2d62ea2312",
                "code": "0x",
                "storage": {}
            },
            "0xbeac020008aff7331c0a389cb2aab67597567d7a": {
                "nonce": "0x01",
                "balance": "0x00",
                "code": "0x3373fffffffffffffffffffffffffffffffffffffffe14604d57602036146024575f5ffd5b5f35801560495762001fff810690815414603c575f5ffd5b62001fff01545f5260205ff35b5f5ffd5b62001fff42064281555f359062001fff015500",
                "storage": {
                    "0x03e8": "0x03e8"
                }
            }
        },
        "sealEngine": "NoProof"
    },
    "002-fork=Cancun-outer_selfdestruct_after_inner_call": {
        "_info": {
            "filling-transition-tool": "evm version 1.13.0-unstable-998b2182-20230919",
            "reference-spec": "https://github.com/ethereum/EIPs/blob/master/EIPS/eip-6780.md",
            "reference-spec-version": "2f8299df31bb8173618901a03a8366a3183479b0"
        },
        "network": "Cancun",
        "genesisRLP": "0xf90240f9023aa00000000000000000000000000000000000000000000000000000000000000000a01dcc4de8dec75d7aab85b567b6ccd41ad312451b948a7413f0a142fd40d49347940000000000000000000000000000000000000000a069517e16fb524e2c641d61f15a81bb1bc0895bfd25258c4d145e02bbf919cf8ba056e81f171bcc55a6ff8345e692c0f86e5b48e01b996cadc001622fb5e363b421a056e81f171bcc55a6ff8345e692c0f86e5b48e01b996cadc001622fb5e363b421b9010000000000000000000000000000000000000000000000000000000000000000000000000000000000000000000000000000000000000000000000000000000000000000000000000000000000000000000000000000000000000000000000000000000000000000000000000000000000000000000000000000000000000000000000000000000000000000000000000000000000000000000000000000000000000000000000000000000000000000000000000000000000000000000000000000000000000000000000000000000000000000000000000000000000000000000000000000000000000000000000000000000000000000000000000000000000808088016345785d8a0000808000a0000000000000000000000000000000000000000000000000000000000000000088000000000000000007a056e81f171bcc55a6ff8345e692c0f86e5b48e01b996cadc001622fb5e363b4218080a00000000000000000000000000000000000000000000000000000000000000000c0c0c0",
        "genesisBlockHeader": {
            "parentHash": "0x0000000000000000000000000000000000000000000000000000000000000000",
            "uncleHash": "0x1dcc4de8dec75d7aab85b567b6ccd41ad312451b948a7413f0a142fd40d49347",
            "coinbase": "0x0000000000000000000000000000000000000000",
            "stateRoot": "0x69517e16fb524e2c641d61f15a81bb1bc0895bfd25258c4d145e02bbf919cf8b",
            "transactionsTrie": "0x56e81f171bcc55a6ff8345e692c0f86e5b48e01b996cadc001622fb5e363b421",
            "receiptTrie": "0x56e81f171bcc55a6ff8345e692c0f86e5b48e01b996cadc001622fb5e363b421",
            "bloom": "0x00000000000000000000000000000000000000000000000000000000000000000000000000000000000000000000000000000000000000000000000000000000000000000000000000000000000000000000000000000000000000000000000000000000000000000000000000000000000000000000000000000000000000000000000000000000000000000000000000000000000000000000000000000000000000000000000000000000000000000000000000000000000000000000000000000000000000000000000000000000000000000000000000000000000000000000000000000000000000000000000000000000000000000000000000000000",
            "difficulty": "0x00",
            "number": "0x00",
            "gasLimit": "0x016345785d8a0000",
            "gasUsed": "0x00",
            "timestamp": "0x00",
            "extraData": "0x00",
            "mixHash": "0x0000000000000000000000000000000000000000000000000000000000000000",
            "nonce": "0x0000000000000000",
            "baseFeePerGas": "0x07",
            "withdrawalsRoot": "0x56e81f171bcc55a6ff8345e692c0f86e5b48e01b996cadc001622fb5e363b421",
            "blobGasUsed": "0x00",
            "excessBlobGas": "0x00",
            "parentBeaconBlockRoot": "0x0000000000000000000000000000000000000000000000000000000000000000",
            "hash": "0x464eaae1a5abb8d998a0764679f420a0fc8c23b8c2ad02bff4053a6e40002445"
        },
        "blocks": [
            {
                "rlp": "0xf902ddf9023fa0464eaae1a5abb8d998a0764679f420a0fc8c23b8c2ad02bff4053a6e40002445a01dcc4de8dec75d7aab85b567b6ccd41ad312451b948a7413f0a142fd40d49347942adc25665018aa1fe0e6bc666dac8fc2697ff9baa0de0c1800883effa5c3ff6821932ee47196041f519905ccd206de026ea6b764c4a0b3311f08e0e6add21bf54e298fc03e742cf752dff6576f524c3bbf94b39bb005a03c95d2b2b7b8fb524b84c854142ed429430a2226dff8242c34ac9fdec7afbe5eb9010000000000000000000000000000000000000000000000000000000000000000000000000000000000000000000000000000000000000000000000000000000000000000000000000000000000000000000000000000000000000000000000000000000000000000000000000000000000000000000000000000000000000000000000000000000000000000000000000000000000000000000000000000000000000000000000000000000000000000000000000000000000000000000000000000000000000000000000000000000000000000000000000000000000000000000000000000000000000000000000000000000000000000000000000000000000800188016345785d8a000083048aa58203e800a0000000000000000000000000000000000000000000000000000000000000000088000000000000000007a056e81f171bcc55a6ff8345e692c0f86e5b48e01b996cadc001622fb5e363b4218080a00000000000000000000000000000000000000000000000000000000000000000f897f895800a8405f5e1008080b847603d6000600073000000000000000000000000000000000000abcd3c603d60006000f0600055600060006000600060007300000000000000000000000000000000deadbeef45f11ca05e2399ead0884964c44343e87ac090921870df6da40048cf4a37c2a5144cc3e9a04b5f3ec615e2767d1a598c5b5ab49e9666c4214bd453b2270e06319a6412cca2c0c0",
                "blockHeader": {
                    "parentHash": "0x464eaae1a5abb8d998a0764679f420a0fc8c23b8c2ad02bff4053a6e40002445",
                    "uncleHash": "0x1dcc4de8dec75d7aab85b567b6ccd41ad312451b948a7413f0a142fd40d49347",
                    "coinbase": "0x2adc25665018aa1fe0e6bc666dac8fc2697ff9ba",
                    "stateRoot": "0xde0c1800883effa5c3ff6821932ee47196041f519905ccd206de026ea6b764c4",
                    "transactionsTrie": "0xb3311f08e0e6add21bf54e298fc03e742cf752dff6576f524c3bbf94b39bb005",
                    "receiptTrie": "0x3c95d2b2b7b8fb524b84c854142ed429430a2226dff8242c34ac9fdec7afbe5e",
                    "bloom": "0x00000000000000000000000000000000000000000000000000000000000000000000000000000000000000000000000000000000000000000000000000000000000000000000000000000000000000000000000000000000000000000000000000000000000000000000000000000000000000000000000000000000000000000000000000000000000000000000000000000000000000000000000000000000000000000000000000000000000000000000000000000000000000000000000000000000000000000000000000000000000000000000000000000000000000000000000000000000000000000000000000000000000000000000000000000000",
                    "difficulty": "0x00",
                    "number": "0x01",
                    "gasLimit": "0x016345785d8a0000",
                    "gasUsed": "0x048aa5",
                    "timestamp": "0x03e8",
                    "extraData": "0x00",
                    "mixHash": "0x0000000000000000000000000000000000000000000000000000000000000000",
                    "nonce": "0x0000000000000000",
                    "baseFeePerGas": "0x07",
                    "withdrawalsRoot": "0x56e81f171bcc55a6ff8345e692c0f86e5b48e01b996cadc001622fb5e363b421",
                    "blobGasUsed": "0x00",
                    "excessBlobGas": "0x00",
                    "parentBeaconBlockRoot": "0x0000000000000000000000000000000000000000000000000000000000000000",
                    "hash": "0x5ed72366b5e6e9da55d60fc4f02821f7a35516629126a97659714d393bca9b1a"
                },
                "transactions": [
                    {
                        "type": "0x00",
                        "chainId": "0x00",
                        "nonce": "0x00",
                        "gasPrice": "0x0a",
                        "gasLimit": "0x05f5e100",
                        "to": "",
                        "value": "0x00",
                        "data": "0x603d6000600073000000000000000000000000000000000000abcd3c603d60006000f0600055600060006000600060007300000000000000000000000000000000deadbeef45f1",
                        "v": "0x1c",
                        "r": "0x5e2399ead0884964c44343e87ac090921870df6da40048cf4a37c2a5144cc3e9",
                        "s": "0x4b5f3ec615e2767d1a598c5b5ab49e9666c4214bd453b2270e06319a6412cca2",
                        "sender": "0xa94f5374fce5edbc8e2a8697c15331677e6ebf0b"
                    }
                ],
                "uncleHeaders": [],
                "withdrawals": []
            }
        ],
        "lastblockhash": "0x5ed72366b5e6e9da55d60fc4f02821f7a35516629126a97659714d393bca9b1a",
        "pre": {
            "0x000000000000000000000000000000000000abcd": {
                "nonce": "0x00",
                "balance": "0x00",
                "code": "0x610032600081600b8239f35f35805f811460115760018114602057005b5f54600181019050805f555f80f35b60015460018101905080600155611234ff",
                "storage": {}
            },
            "0x00000000000000000000000000000000deadbeef": {
                "nonce": "0x00",
                "balance": "0x03",
                "code": "0x5f355f6001825f811460145760018114608257005b5f80525f8060205f60017364e2ebd6405af8cb348aec519084d3fff42ebba645f150815f525f8060205f803045f1507364e2ebd6405af8cb348aec519084d3fff42ebba63160015560015f525f8060205f60017364e2ebd6405af8cb348aec519084d3fff42ebba645f15f80f35b60015f525f8060205f60017364e2ebd6405af8cb348aec519084d3fff42ebba645f15f80fd",
                "storage": {}
            },
            "0xa94f5374fce5edbc8e2a8697c15331677e6ebf0b": {
                "nonce": "0x00",
                "balance": "0x056bc75e2d63100000",
                "code": "0x",
                "storage": {}
            },
            "0xbeac020008aff7331c0a389cb2aab67597567d7a": {
                "nonce": "0x01",
                "balance": "0x00",
                "code": "0x3373fffffffffffffffffffffffffffffffffffffffe14604d57602036146024575f5ffd5b5f35801560495762001fff810690815414603c575f5ffd5b62001fff01545f5260205ff35b5f5ffd5b62001fff42064281555f359062001fff015500",
                "storage": {}
            }
        },
        "postState": {
            "0x0000000000000000000000000000000000001234": {
                "nonce": "0x00",
                "balance": "0x02",
                "code": "0x",
                "storage": {}
            },
            "0x000000000000000000000000000000000000abcd": {
                "nonce": "0x00",
                "balance": "0x00",
                "code": "0x610032600081600b8239f35f35805f811460115760018114602057005b5f54600181019050805f555f80f35b60015460018101905080600155611234ff",
                "storage": {}
            },
            "0x00000000000000000000000000000000deadbeef": {
                "nonce": "0x00",
                "balance": "0x01",
                "code": "0x5f355f6001825f811460145760018114608257005b5f80525f8060205f60017364e2ebd6405af8cb348aec519084d3fff42ebba645f150815f525f8060205f803045f1507364e2ebd6405af8cb348aec519084d3fff42ebba63160015560015f525f8060205f60017364e2ebd6405af8cb348aec519084d3fff42ebba645f15f80f35b60015f525f8060205f60017364e2ebd6405af8cb348aec519084d3fff42ebba645f15f80fd",
                "storage": {
                    "0x01": "0x01"
                }
            },
            "0x2adc25665018aa1fe0e6bc666dac8fc2697ff9ba": {
                "nonce": "0x00",
                "balance": "0x0d9fef",
                "code": "0x",
                "storage": {}
            },
            "0x6295ee1b4f6dd65047762f924ecd367c17eabf8f": {
                "nonce": "0x02",
                "balance": "0x00",
                "code": "0x",
                "storage": {
                    "0x00": "0x64e2ebd6405af8cb348aec519084d3fff42ebba6"
                }
            },
            "0xa94f5374fce5edbc8e2a8697c15331677e6ebf0b": {
                "nonce": "0x01",
                "balance": "0x056bc75e2d62e2958e",
                "code": "0x",
                "storage": {}
            },
            "0xbeac020008aff7331c0a389cb2aab67597567d7a": {
                "nonce": "0x01",
                "balance": "0x00",
                "code": "0x3373fffffffffffffffffffffffffffffffffffffffe14604d57602036146024575f5ffd5b5f35801560495762001fff810690815414603c575f5ffd5b62001fff01545f5260205ff35b5f5ffd5b62001fff42064281555f359062001fff015500",
                "storage": {
                    "0x03e8": "0x03e8"
                }
            }
        },
        "sealEngine": "NoProof"
    }
}