{
    "000-fork=Cancun-no_outer_selfdestruct": {
        "_info": {
            "filling-transition-tool": "evm version 1.13.0-unstable-b1a1675c-20230912",
            "reference-spec": "https://github.com/ethereum/EIPs/blob/master/EIPS/eip-6780.md",
            "reference-spec-version": "2f8299df31bb8173618901a03a8366a3183479b0"
        },
        "blocks": [
            {
                "rlp": "0xf902b6f9023fa0f3c7365e1957c54fe237bd3389213c2e68a4a04a7b5ae7ba4cf0d17faefdc694a01dcc4de8dec75d7aab85b567b6ccd41ad312451b948a7413f0a142fd40d49347942adc25665018aa1fe0e6bc666dac8fc2697ff9baa037c08479b49acf94b7bd9b7ae9b562ad99ec4fd520736e95c48198e0f441219da0aee86bdc9f4cdcab98bcbd2bf7778c96fa0ece00fcbd5e3676d7b8df9a90febaa074cc8a34c6b9604c9301803c1f5c6e45319fca3745391e2fe76ceb9705616990b9010000000000000000000000000000000000000000000000000000000000000000000000000000000000000000000000000000000000000000000000000000000000000000000000000000000000000000000000000000000000000000000000000000000000000000000000000000000000000000000000000000000000000000000000000000000000000000000000000000000000000000000000000000000000000000000000000000000000000000000000000000000000000000000000000000000000000000000000000000000000000000000000000000000000000000000000000000000000000000000000000000000000000000000000000000000000800188016345785d8a000083029da58203e800a0000000000000000000000000000000000000000000000000000000000000000088000000000000000007a056e81f171bcc55a6ff8345e692c0f86e5b48e01b996cadc001622fb5e363b4218080a00000000000000000000000000000000000000000000000000000000000000000f870f86e800a8405f5e1008080a1600060006000600060007300000000000000000000000000000000deadbeef45f11ba04be9d4cb23e70d0bd36b18bedaa401fd9d2dc5bce6d37bae98777c094e8d6c46a046bb18ca04a74583befbf371e13a0190e72dcdb58e6da43d192008ddb9a6afb3c0c0",
                "blockHeader": {
                    "parentHash": "0xf3c7365e1957c54fe237bd3389213c2e68a4a04a7b5ae7ba4cf0d17faefdc694",
                    "uncleHash": "0x1dcc4de8dec75d7aab85b567b6ccd41ad312451b948a7413f0a142fd40d49347",
                    "coinbase": "0x2adc25665018aa1fe0e6bc666dac8fc2697ff9ba",
                    "stateRoot": "0x37c08479b49acf94b7bd9b7ae9b562ad99ec4fd520736e95c48198e0f441219d",
                    "transactionsTrie": "0xaee86bdc9f4cdcab98bcbd2bf7778c96fa0ece00fcbd5e3676d7b8df9a90feba",
                    "receiptTrie": "0x74cc8a34c6b9604c9301803c1f5c6e45319fca3745391e2fe76ceb9705616990",
                    "bloom": "0x00000000000000000000000000000000000000000000000000000000000000000000000000000000000000000000000000000000000000000000000000000000000000000000000000000000000000000000000000000000000000000000000000000000000000000000000000000000000000000000000000000000000000000000000000000000000000000000000000000000000000000000000000000000000000000000000000000000000000000000000000000000000000000000000000000000000000000000000000000000000000000000000000000000000000000000000000000000000000000000000000000000000000000000000000000000",
                    "difficulty": "0x00",
                    "number": "0x01",
                    "gasLimit": "0x016345785d8a0000",
                    "gasUsed": "0x029da5",
                    "timestamp": "0x03e8",
                    "extraData": "0x00",
                    "mixHash": "0x0000000000000000000000000000000000000000000000000000000000000000",
                    "nonce": "0x0000000000000000",
                    "baseFeePerGas": "0x07",
                    "withdrawalsRoot": "0x56e81f171bcc55a6ff8345e692c0f86e5b48e01b996cadc001622fb5e363b421",
                    "blobGasUsed": "0x00",
                    "excessBlobGas": "0x00",
                    "parentBeaconBlockRoot": "0x0000000000000000000000000000000000000000000000000000000000000000",
                    "hash": "0x9829788e170101395a8eee4f5cd20f2c26da88f7bf88069017233a25248bc3e1"
                },
                "engineNewPayload": {
                    "executionPayload": {
                        "parentHash": "0xf3c7365e1957c54fe237bd3389213c2e68a4a04a7b5ae7ba4cf0d17faefdc694",
                        "feeRecipient": "0x2adc25665018aa1fe0e6bc666dac8fc2697ff9ba",
                        "stateRoot": "0x37c08479b49acf94b7bd9b7ae9b562ad99ec4fd520736e95c48198e0f441219d",
                        "receiptsRoot": "0x74cc8a34c6b9604c9301803c1f5c6e45319fca3745391e2fe76ceb9705616990",
                        "logsBloom": "0x00000000000000000000000000000000000000000000000000000000000000000000000000000000000000000000000000000000000000000000000000000000000000000000000000000000000000000000000000000000000000000000000000000000000000000000000000000000000000000000000000000000000000000000000000000000000000000000000000000000000000000000000000000000000000000000000000000000000000000000000000000000000000000000000000000000000000000000000000000000000000000000000000000000000000000000000000000000000000000000000000000000000000000000000000000000",
                        "blockNumber": "0x1",
                        "gasLimit": "0x16345785d8a0000",
                        "gasUsed": "0x29da5",
                        "timestamp": "0x3e8",
                        "extraData": "0x00",
                        "prevRandao": "0x0000000000000000000000000000000000000000000000000000000000000000",
                        "baseFeePerGas": "0x7",
                        "blobGasUsed": "0x0",
                        "excessBlobGas": "0x0",
                        "blockHash": "0x9829788e170101395a8eee4f5cd20f2c26da88f7bf88069017233a25248bc3e1",
                        "transactions": [
                            "0xf86e800a8405f5e1008080a1600060006000600060007300000000000000000000000000000000deadbeef45f11ba04be9d4cb23e70d0bd36b18bedaa401fd9d2dc5bce6d37bae98777c094e8d6c46a046bb18ca04a74583befbf371e13a0190e72dcdb58e6da43d192008ddb9a6afb3"
                        ],
                        "withdrawals": []
                    },
                    "expectedBlobVersionedHashes": [],
                    "version": "3",
                    "parentBeaconBlockRoot": "0x0000000000000000000000000000000000000000000000000000000000000000"
                },
                "transactions": [
                    {
                        "type": "0x00",
                        "chainId": "0x00",
                        "nonce": "0x00",
                        "gasPrice": "0x0a",
                        "gasLimit": "0x05f5e100",
                        "to": "",
                        "value": "0x00",
                        "data": "0x600060006000600060007300000000000000000000000000000000deadbeef45f1",
                        "v": "0x1b",
                        "r": "0x4be9d4cb23e70d0bd36b18bedaa401fd9d2dc5bce6d37bae98777c094e8d6c46",
                        "s": "0x46bb18ca04a74583befbf371e13a0190e72dcdb58e6da43d192008ddb9a6afb3",
                        "sender": "0xa94f5374fce5edbc8e2a8697c15331677e6ebf0b"
                    }
                ],
                "uncleHeaders": [],
                "withdrawals": []
            }
        ],
        "genesisBlockHeader": {
            "parentHash": "0x0000000000000000000000000000000000000000000000000000000000000000",
            "uncleHash": "0x1dcc4de8dec75d7aab85b567b6ccd41ad312451b948a7413f0a142fd40d49347",
            "coinbase": "0x0000000000000000000000000000000000000000",
            "stateRoot": "0x6568843de5254f33fcf02c1bdd1bb78afbcb9420bcb599e38d306477a295f61f",
            "transactionsTrie": "0x56e81f171bcc55a6ff8345e692c0f86e5b48e01b996cadc001622fb5e363b421",
            "receiptTrie": "0x56e81f171bcc55a6ff8345e692c0f86e5b48e01b996cadc001622fb5e363b421",
            "bloom": "0x00000000000000000000000000000000000000000000000000000000000000000000000000000000000000000000000000000000000000000000000000000000000000000000000000000000000000000000000000000000000000000000000000000000000000000000000000000000000000000000000000000000000000000000000000000000000000000000000000000000000000000000000000000000000000000000000000000000000000000000000000000000000000000000000000000000000000000000000000000000000000000000000000000000000000000000000000000000000000000000000000000000000000000000000000000000",
            "difficulty": "0x00",
            "number": "0x00",
            "gasLimit": "0x016345785d8a0000",
            "gasUsed": "0x00",
            "timestamp": "0x00",
            "extraData": "0x00",
            "mixHash": "0x0000000000000000000000000000000000000000000000000000000000000000",
            "nonce": "0x0000000000000000",
            "baseFeePerGas": "0x07",
            "withdrawalsRoot": "0x56e81f171bcc55a6ff8345e692c0f86e5b48e01b996cadc001622fb5e363b421",
            "blobGasUsed": "0x00",
            "excessBlobGas": "0x00",
            "parentBeaconBlockRoot": "0x0000000000000000000000000000000000000000000000000000000000000000",
            "hash": "0xf3c7365e1957c54fe237bd3389213c2e68a4a04a7b5ae7ba4cf0d17faefdc694"
        },
        "genesisRLP": "0xf90240f9023aa00000000000000000000000000000000000000000000000000000000000000000a01dcc4de8dec75d7aab85b567b6ccd41ad312451b948a7413f0a142fd40d49347940000000000000000000000000000000000000000a06568843de5254f33fcf02c1bdd1bb78afbcb9420bcb599e38d306477a295f61fa056e81f171bcc55a6ff8345e692c0f86e5b48e01b996cadc001622fb5e363b421a056e81f171bcc55a6ff8345e692c0f86e5b48e01b996cadc001622fb5e363b421b9010000000000000000000000000000000000000000000000000000000000000000000000000000000000000000000000000000000000000000000000000000000000000000000000000000000000000000000000000000000000000000000000000000000000000000000000000000000000000000000000000000000000000000000000000000000000000000000000000000000000000000000000000000000000000000000000000000000000000000000000000000000000000000000000000000000000000000000000000000000000000000000000000000000000000000000000000000000000000000000000000000000000000000000000000000000000808088016345785d8a0000808000a0000000000000000000000000000000000000000000000000000000000000000088000000000000000007a056e81f171bcc55a6ff8345e692c0f86e5b48e01b996cadc001622fb5e363b4218080a00000000000000000000000000000000000000000000000000000000000000000c0c0c0",
        "lastblockhash": "0x9829788e170101395a8eee4f5cd20f2c26da88f7bf88069017233a25248bc3e1",
        "network": "Cancun",
        "pre": {
            "0x00000000000000000000000000000000deadbeef": {
                "nonce": "0x00",
                "balance": "0x02",
                "code": "0x5f355f6001825f811460145760018114606057005b5f80525f8060205f60017364e2ebd6405af8cb348aec519084d3fff42ebba645f150815f525f8060205f803045f1507364e2ebd6405af8cb348aec519084d3fff42ebba6316001555f80f35b60015f525f8060205f60017364e2ebd6405af8cb348aec519084d3fff42ebba645f15f80fd",
                "storage": {}
            },
            "0x64e2ebd6405af8cb348aec519084d3fff42ebba6": {
                "nonce": "0x00",
                "balance": "0x00",
                "code": "0x5f35805f811460115760018114602057005b5f54600181019050805f555f80f35b60015460018101905080600155611234ff",
                "storage": {}
            },
            "0xa94f5374fce5edbc8e2a8697c15331677e6ebf0b": {
                "nonce": "0x00",
                "balance": "0x056bc75e2d63100000",
                "code": "0x",
                "storage": {}
            },
            "0xbeac00ddb15f3b6d645c48263dc93862413a222d": {
                "nonce": "0x01",
                "balance": "0x00",
                "code": "0x3373fffffffffffffffffffffffffffffffffffffffe14604457602036146024575f5ffd5b620180005f350680545f35146037575f5ffd5b6201800001545f5260205ff35b6201800042064281555f359062018000015500",
                "storage": {}
            }
        },
        "postState": {
            "0x00000000000000000000000000000000deadbeef": {
                "nonce": "0x00",
                "balance": "0x01",
                "code": "0x5f355f6001825f811460145760018114606057005b5f80525f8060205f60017364e2ebd6405af8cb348aec519084d3fff42ebba645f150815f525f8060205f803045f1507364e2ebd6405af8cb348aec519084d3fff42ebba6316001555f80f35b60015f525f8060205f60017364e2ebd6405af8cb348aec519084d3fff42ebba645f15f80fd",
                "storage": {
                    "0x01": "0x01"
                }
            },
            "0x2adc25665018aa1fe0e6bc666dac8fc2697ff9ba": {
                "nonce": "0x00",
                "balance": "0x07d8ef",
                "code": "0x",
                "storage": {}
            },
            "0x6295ee1b4f6dd65047762f924ecd367c17eabf8f": {
                "nonce": "0x01",
                "balance": "0x00",
                "code": "0x",
                "storage": {}
            },
            "0x64e2ebd6405af8cb348aec519084d3fff42ebba6": {
                "nonce": "0x00",
                "balance": "0x01",
                "code": "0x5f35805f811460115760018114602057005b5f54600181019050805f555f80f35b60015460018101905080600155611234ff",
                "storage": {
                    "0x00": "0x01"
                }
            },
            "0xa94f5374fce5edbc8e2a8697c15331677e6ebf0b": {
                "nonce": "0x01",
                "balance": "0x056bc75e2d62f5d78e",
                "code": "0x",
                "storage": {}
            },
            "0xbeac00ddb15f3b6d645c48263dc93862413a222d": {
                "nonce": "0x01",
                "balance": "0x00",
                "code": "0x3373fffffffffffffffffffffffffffffffffffffffe14604457602036146024575f5ffd5b620180005f350680545f35146037575f5ffd5b6201800001545f5260205ff35b6201800042064281555f359062018000015500",
                "storage": {
                    "0x03e8": "0x03e8"
                }
            }
        },
        "sealEngine": "NoProof"
    },
    "001-fork=Cancun-outer_selfdestruct_before_inner_call": {
        "_info": {
            "filling-transition-tool": "evm version 1.13.0-unstable-b1a1675c-20230912",
            "reference-spec": "https://github.com/ethereum/EIPs/blob/master/EIPS/eip-6780.md",
            "reference-spec-version": "2f8299df31bb8173618901a03a8366a3183479b0"
        },
        "blocks": [
            {
                "rlp": "0xf902b6f9023fa0e6f6766e0cda04149f29082532050cf506b1ddbcfc9b647689146b40c53bf4d5a01dcc4de8dec75d7aab85b567b6ccd41ad312451b948a7413f0a142fd40d49347942adc25665018aa1fe0e6bc666dac8fc2697ff9baa04e09c4ca0363156f691fd7acee7265772ac6d343fec033f25d1c84860f3abe25a0aee86bdc9f4cdcab98bcbd2bf7778c96fa0ece00fcbd5e3676d7b8df9a90febaa0334e4b297114883128ee1b7d16cfbbb06eb77331aa76179e67a3c1096bb24c15b9010000000000000000000000000000000000000000000000000000000000000000000000000000000000000000000000000000000000000000000000000000000000000000000000000000000000000000000000000000000000000000000000000000000000000000000000000000000000000000000000000000000000000000000000000000000000000000000000000000000000000000000000000000000000000000000000000000000000000000000000000000000000000000000000000000000000000000000000000000000000000000000000000000000000000000000000000000000000000000000000000000000000000000000000000000000000800188016345785d8a00008302b8518203e800a0000000000000000000000000000000000000000000000000000000000000000088000000000000000007a056e81f171bcc55a6ff8345e692c0f86e5b48e01b996cadc001622fb5e363b4218080a00000000000000000000000000000000000000000000000000000000000000000f870f86e800a8405f5e1008080a1600060006000600060007300000000000000000000000000000000deadbeef45f11ba04be9d4cb23e70d0bd36b18bedaa401fd9d2dc5bce6d37bae98777c094e8d6c46a046bb18ca04a74583befbf371e13a0190e72dcdb58e6da43d192008ddb9a6afb3c0c0",
                "blockHeader": {
                    "parentHash": "0xe6f6766e0cda04149f29082532050cf506b1ddbcfc9b647689146b40c53bf4d5",
                    "uncleHash": "0x1dcc4de8dec75d7aab85b567b6ccd41ad312451b948a7413f0a142fd40d49347",
                    "coinbase": "0x2adc25665018aa1fe0e6bc666dac8fc2697ff9ba",
                    "stateRoot": "0x4e09c4ca0363156f691fd7acee7265772ac6d343fec033f25d1c84860f3abe25",
                    "transactionsTrie": "0xaee86bdc9f4cdcab98bcbd2bf7778c96fa0ece00fcbd5e3676d7b8df9a90feba",
                    "receiptTrie": "0x334e4b297114883128ee1b7d16cfbbb06eb77331aa76179e67a3c1096bb24c15",
                    "bloom": "0x00000000000000000000000000000000000000000000000000000000000000000000000000000000000000000000000000000000000000000000000000000000000000000000000000000000000000000000000000000000000000000000000000000000000000000000000000000000000000000000000000000000000000000000000000000000000000000000000000000000000000000000000000000000000000000000000000000000000000000000000000000000000000000000000000000000000000000000000000000000000000000000000000000000000000000000000000000000000000000000000000000000000000000000000000000000",
                    "difficulty": "0x00",
                    "number": "0x01",
                    "gasLimit": "0x016345785d8a0000",
                    "gasUsed": "0x02b851",
                    "timestamp": "0x03e8",
                    "extraData": "0x00",
                    "mixHash": "0x0000000000000000000000000000000000000000000000000000000000000000",
                    "nonce": "0x0000000000000000",
                    "baseFeePerGas": "0x07",
                    "withdrawalsRoot": "0x56e81f171bcc55a6ff8345e692c0f86e5b48e01b996cadc001622fb5e363b421",
                    "blobGasUsed": "0x00",
                    "excessBlobGas": "0x00",
                    "parentBeaconBlockRoot": "0x0000000000000000000000000000000000000000000000000000000000000000",
                    "hash": "0xaf95b052c6cccbbb4c14b4fec7221fab30d60fd5faeafbbf5ed6f14854d84a68"
                },
                "engineNewPayload": {
                    "executionPayload": {
                        "parentHash": "0xe6f6766e0cda04149f29082532050cf506b1ddbcfc9b647689146b40c53bf4d5",
                        "feeRecipient": "0x2adc25665018aa1fe0e6bc666dac8fc2697ff9ba",
                        "stateRoot": "0x4e09c4ca0363156f691fd7acee7265772ac6d343fec033f25d1c84860f3abe25",
                        "receiptsRoot": "0x334e4b297114883128ee1b7d16cfbbb06eb77331aa76179e67a3c1096bb24c15",
                        "logsBloom": "0x00000000000000000000000000000000000000000000000000000000000000000000000000000000000000000000000000000000000000000000000000000000000000000000000000000000000000000000000000000000000000000000000000000000000000000000000000000000000000000000000000000000000000000000000000000000000000000000000000000000000000000000000000000000000000000000000000000000000000000000000000000000000000000000000000000000000000000000000000000000000000000000000000000000000000000000000000000000000000000000000000000000000000000000000000000000",
                        "blockNumber": "0x1",
                        "gasLimit": "0x16345785d8a0000",
                        "gasUsed": "0x2b851",
                        "timestamp": "0x3e8",
                        "extraData": "0x00",
                        "prevRandao": "0x0000000000000000000000000000000000000000000000000000000000000000",
                        "baseFeePerGas": "0x7",
                        "blobGasUsed": "0x0",
                        "excessBlobGas": "0x0",
                        "blockHash": "0xaf95b052c6cccbbb4c14b4fec7221fab30d60fd5faeafbbf5ed6f14854d84a68",
                        "transactions": [
                            "0xf86e800a8405f5e1008080a1600060006000600060007300000000000000000000000000000000deadbeef45f11ba04be9d4cb23e70d0bd36b18bedaa401fd9d2dc5bce6d37bae98777c094e8d6c46a046bb18ca04a74583befbf371e13a0190e72dcdb58e6da43d192008ddb9a6afb3"
                        ],
                        "withdrawals": []
                    },
                    "expectedBlobVersionedHashes": [],
                    "version": "3",
                    "parentBeaconBlockRoot": "0x0000000000000000000000000000000000000000000000000000000000000000"
                },
                "transactions": [
                    {
                        "type": "0x00",
                        "chainId": "0x00",
                        "nonce": "0x00",
                        "gasPrice": "0x0a",
                        "gasLimit": "0x05f5e100",
                        "to": "",
                        "value": "0x00",
                        "data": "0x600060006000600060007300000000000000000000000000000000deadbeef45f1",
                        "v": "0x1b",
                        "r": "0x4be9d4cb23e70d0bd36b18bedaa401fd9d2dc5bce6d37bae98777c094e8d6c46",
                        "s": "0x46bb18ca04a74583befbf371e13a0190e72dcdb58e6da43d192008ddb9a6afb3",
                        "sender": "0xa94f5374fce5edbc8e2a8697c15331677e6ebf0b"
                    }
                ],
                "uncleHeaders": [],
                "withdrawals": []
            }
        ],
        "genesisBlockHeader": {
            "parentHash": "0x0000000000000000000000000000000000000000000000000000000000000000",
            "uncleHash": "0x1dcc4de8dec75d7aab85b567b6ccd41ad312451b948a7413f0a142fd40d49347",
            "coinbase": "0x0000000000000000000000000000000000000000",
            "stateRoot": "0x88a63874a687b26d23323e77f2af341d1e2073840143dd66dc0e689ba4a8edfa",
            "transactionsTrie": "0x56e81f171bcc55a6ff8345e692c0f86e5b48e01b996cadc001622fb5e363b421",
            "receiptTrie": "0x56e81f171bcc55a6ff8345e692c0f86e5b48e01b996cadc001622fb5e363b421",
            "bloom": "0x00000000000000000000000000000000000000000000000000000000000000000000000000000000000000000000000000000000000000000000000000000000000000000000000000000000000000000000000000000000000000000000000000000000000000000000000000000000000000000000000000000000000000000000000000000000000000000000000000000000000000000000000000000000000000000000000000000000000000000000000000000000000000000000000000000000000000000000000000000000000000000000000000000000000000000000000000000000000000000000000000000000000000000000000000000000",
            "difficulty": "0x00",
            "number": "0x00",
            "gasLimit": "0x016345785d8a0000",
            "gasUsed": "0x00",
            "timestamp": "0x00",
            "extraData": "0x00",
            "mixHash": "0x0000000000000000000000000000000000000000000000000000000000000000",
            "nonce": "0x0000000000000000",
            "baseFeePerGas": "0x07",
            "withdrawalsRoot": "0x56e81f171bcc55a6ff8345e692c0f86e5b48e01b996cadc001622fb5e363b421",
            "blobGasUsed": "0x00",
            "excessBlobGas": "0x00",
            "parentBeaconBlockRoot": "0x0000000000000000000000000000000000000000000000000000000000000000",
            "hash": "0xe6f6766e0cda04149f29082532050cf506b1ddbcfc9b647689146b40c53bf4d5"
        },
        "genesisRLP": "0xf90240f9023aa00000000000000000000000000000000000000000000000000000000000000000a01dcc4de8dec75d7aab85b567b6ccd41ad312451b948a7413f0a142fd40d49347940000000000000000000000000000000000000000a088a63874a687b26d23323e77f2af341d1e2073840143dd66dc0e689ba4a8edfaa056e81f171bcc55a6ff8345e692c0f86e5b48e01b996cadc001622fb5e363b421a056e81f171bcc55a6ff8345e692c0f86e5b48e01b996cadc001622fb5e363b421b9010000000000000000000000000000000000000000000000000000000000000000000000000000000000000000000000000000000000000000000000000000000000000000000000000000000000000000000000000000000000000000000000000000000000000000000000000000000000000000000000000000000000000000000000000000000000000000000000000000000000000000000000000000000000000000000000000000000000000000000000000000000000000000000000000000000000000000000000000000000000000000000000000000000000000000000000000000000000000000000000000000000000000000000000000000000000808088016345785d8a0000808000a0000000000000000000000000000000000000000000000000000000000000000088000000000000000007a056e81f171bcc55a6ff8345e692c0f86e5b48e01b996cadc001622fb5e363b4218080a00000000000000000000000000000000000000000000000000000000000000000c0c0c0",
        "lastblockhash": "0xaf95b052c6cccbbb4c14b4fec7221fab30d60fd5faeafbbf5ed6f14854d84a68",
        "network": "Cancun",
        "pre": {
            "0x00000000000000000000000000000000deadbeef": {
                "nonce": "0x00",
                "balance": "0x02",
                "code": "0x5f355f6001825f811460145760018114608357005b60015f525f8060205f60017364e2ebd6405af8cb348aec519084d3fff42ebba645f1505f80525f8060205f60017364e2ebd6405af8cb348aec519084d3fff42ebba645f150815f525f8060205f803045f1507364e2ebd6405af8cb348aec519084d3fff42ebba6316001555f80f35b60015f525f8060205f60017364e2ebd6405af8cb348aec519084d3fff42ebba645f15f80fd",
                "storage": {}
            },
            "0x64e2ebd6405af8cb348aec519084d3fff42ebba6": {
                "nonce": "0x00",
                "balance": "0x00",
                "code": "0x5f35805f811460115760018114602057005b5f54600181019050805f555f80f35b60015460018101905080600155611234ff",
                "storage": {}
            },
            "0xa94f5374fce5edbc8e2a8697c15331677e6ebf0b": {
                "nonce": "0x00",
                "balance": "0x056bc75e2d63100000",
                "code": "0x",
                "storage": {}
            },
            "0xbeac00ddb15f3b6d645c48263dc93862413a222d": {
                "nonce": "0x01",
                "balance": "0x00",
                "code": "0x3373fffffffffffffffffffffffffffffffffffffffe14604457602036146024575f5ffd5b620180005f350680545f35146037575f5ffd5b6201800001545f5260205ff35b6201800042064281555f359062018000015500",
                "storage": {}
            }
        },
        "postState": {
            "0x0000000000000000000000000000000000001234": {
                "nonce": "0x00",
                "balance": "0x01",
                "code": "0x",
                "storage": {}
            },
            "0x00000000000000000000000000000000deadbeef": {
                "nonce": "0x00",
                "balance": "0x00",
                "code": "0x5f355f6001825f811460145760018114608357005b60015f525f8060205f60017364e2ebd6405af8cb348aec519084d3fff42ebba645f1505f80525f8060205f60017364e2ebd6405af8cb348aec519084d3fff42ebba645f150815f525f8060205f803045f1507364e2ebd6405af8cb348aec519084d3fff42ebba6316001555f80f35b60015f525f8060205f60017364e2ebd6405af8cb348aec519084d3fff42ebba645f15f80fd",
                "storage": {
                    "0x01": "0x01"
                }
            },
            "0x2adc25665018aa1fe0e6bc666dac8fc2697ff9ba": {
                "nonce": "0x00",
                "balance": "0x0828f3",
                "code": "0x",
                "storage": {}
            },
            "0x6295ee1b4f6dd65047762f924ecd367c17eabf8f": {
                "nonce": "0x01",
                "balance": "0x00",
                "code": "0x",
                "storage": {}
            },
            "0x64e2ebd6405af8cb348aec519084d3fff42ebba6": {
                "nonce": "0x00",
                "balance": "0x01",
                "code": "0x5f35805f811460115760018114602057005b5f54600181019050805f555f80f35b60015460018101905080600155611234ff",
                "storage": {
                    "0x00": "0x01",
                    "0x01": "0x01"
                }
            },
            "0xa94f5374fce5edbc8e2a8697c15331677e6ebf0b": {
                "nonce": "0x01",
                "balance": "0x056bc75e2d62f4ccd6",
                "code": "0x",
                "storage": {}
            },
            "0xbeac00ddb15f3b6d645c48263dc93862413a222d": {
                "nonce": "0x01",
                "balance": "0x00",
                "code": "0x3373fffffffffffffffffffffffffffffffffffffffe14604457602036146024575f5ffd5b620180005f350680545f35146037575f5ffd5b6201800001545f5260205ff35b6201800042064281555f359062018000015500",
                "storage": {
                    "0x03e8": "0x03e8"
                }
            }
        },
        "sealEngine": "NoProof"
    },
    "002-fork=Cancun-outer_selfdestruct_after_inner_call": {
        "_info": {
            "filling-transition-tool": "evm version 1.13.0-unstable-b1a1675c-20230912",
            "reference-spec": "https://github.com/ethereum/EIPs/blob/master/EIPS/eip-6780.md",
            "reference-spec-version": "2f8299df31bb8173618901a03a8366a3183479b0"
        },
        "blocks": [
            {
                "rlp": "0xf902b6f9023fa0ca7f41ec95ebf328bd17999e25825650d4b2e546de52102b831f4f5ea59f045ca01dcc4de8dec75d7aab85b567b6ccd41ad312451b948a7413f0a142fd40d49347942adc25665018aa1fe0e6bc666dac8fc2697ff9baa083f0b1b1bd8bf409eaf715cbc19ece21c0b0009a6430cffd86371cbfbf2828d5a0aee86bdc9f4cdcab98bcbd2bf7778c96fa0ece00fcbd5e3676d7b8df9a90febaa0519698b6d7bf651575602756f0eca7bce1772ca28cfe0d5a71d365053c0bbefdb9010000000000000000000000000000000000000000000000000000000000000000000000000000000000000000000000000000000000000000000000000000000000000000000000000000000000000000000000000000000000000000000000000000000000000000000000000000000000000000000000000000000000000000000000000000000000000000000000000000000000000000000000000000000000000000000000000000000000000000000000000000000000000000000000000000000000000000000000000000000000000000000000000000000000000000000000000000000000000000000000000000000000000000000000000000000000800188016345785d8a000083038e498203e800a0000000000000000000000000000000000000000000000000000000000000000088000000000000000007a056e81f171bcc55a6ff8345e692c0f86e5b48e01b996cadc001622fb5e363b4218080a00000000000000000000000000000000000000000000000000000000000000000f870f86e800a8405f5e1008080a1600060006000600060007300000000000000000000000000000000deadbeef45f11ba04be9d4cb23e70d0bd36b18bedaa401fd9d2dc5bce6d37bae98777c094e8d6c46a046bb18ca04a74583befbf371e13a0190e72dcdb58e6da43d192008ddb9a6afb3c0c0",
                "blockHeader": {
                    "parentHash": "0xca7f41ec95ebf328bd17999e25825650d4b2e546de52102b831f4f5ea59f045c",
                    "uncleHash": "0x1dcc4de8dec75d7aab85b567b6ccd41ad312451b948a7413f0a142fd40d49347",
                    "coinbase": "0x2adc25665018aa1fe0e6bc666dac8fc2697ff9ba",
                    "stateRoot": "0x83f0b1b1bd8bf409eaf715cbc19ece21c0b0009a6430cffd86371cbfbf2828d5",
                    "transactionsTrie": "0xaee86bdc9f4cdcab98bcbd2bf7778c96fa0ece00fcbd5e3676d7b8df9a90feba",
                    "receiptTrie": "0x519698b6d7bf651575602756f0eca7bce1772ca28cfe0d5a71d365053c0bbefd",
                    "bloom": "0x00000000000000000000000000000000000000000000000000000000000000000000000000000000000000000000000000000000000000000000000000000000000000000000000000000000000000000000000000000000000000000000000000000000000000000000000000000000000000000000000000000000000000000000000000000000000000000000000000000000000000000000000000000000000000000000000000000000000000000000000000000000000000000000000000000000000000000000000000000000000000000000000000000000000000000000000000000000000000000000000000000000000000000000000000000000",
                    "difficulty": "0x00",
                    "number": "0x01",
                    "gasLimit": "0x016345785d8a0000",
                    "gasUsed": "0x038e49",
                    "timestamp": "0x03e8",
                    "extraData": "0x00",
                    "mixHash": "0x0000000000000000000000000000000000000000000000000000000000000000",
                    "nonce": "0x0000000000000000",
                    "baseFeePerGas": "0x07",
                    "withdrawalsRoot": "0x56e81f171bcc55a6ff8345e692c0f86e5b48e01b996cadc001622fb5e363b421",
                    "blobGasUsed": "0x00",
                    "excessBlobGas": "0x00",
                    "parentBeaconBlockRoot": "0x0000000000000000000000000000000000000000000000000000000000000000",
                    "hash": "0xc6d92bf12ca1fb04037b1a6d18b4398595e87401c1801377c017c4431c18d8d9"
                },
                "engineNewPayload": {
                    "executionPayload": {
                        "parentHash": "0xca7f41ec95ebf328bd17999e25825650d4b2e546de52102b831f4f5ea59f045c",
                        "feeRecipient": "0x2adc25665018aa1fe0e6bc666dac8fc2697ff9ba",
                        "stateRoot": "0x83f0b1b1bd8bf409eaf715cbc19ece21c0b0009a6430cffd86371cbfbf2828d5",
                        "receiptsRoot": "0x519698b6d7bf651575602756f0eca7bce1772ca28cfe0d5a71d365053c0bbefd",
                        "logsBloom": "0x00000000000000000000000000000000000000000000000000000000000000000000000000000000000000000000000000000000000000000000000000000000000000000000000000000000000000000000000000000000000000000000000000000000000000000000000000000000000000000000000000000000000000000000000000000000000000000000000000000000000000000000000000000000000000000000000000000000000000000000000000000000000000000000000000000000000000000000000000000000000000000000000000000000000000000000000000000000000000000000000000000000000000000000000000000000",
                        "blockNumber": "0x1",
                        "gasLimit": "0x16345785d8a0000",
                        "gasUsed": "0x38e49",
                        "timestamp": "0x3e8",
                        "extraData": "0x00",
                        "prevRandao": "0x0000000000000000000000000000000000000000000000000000000000000000",
                        "baseFeePerGas": "0x7",
                        "blobGasUsed": "0x0",
                        "excessBlobGas": "0x0",
                        "blockHash": "0xc6d92bf12ca1fb04037b1a6d18b4398595e87401c1801377c017c4431c18d8d9",
                        "transactions": [
                            "0xf86e800a8405f5e1008080a1600060006000600060007300000000000000000000000000000000deadbeef45f11ba04be9d4cb23e70d0bd36b18bedaa401fd9d2dc5bce6d37bae98777c094e8d6c46a046bb18ca04a74583befbf371e13a0190e72dcdb58e6da43d192008ddb9a6afb3"
                        ],
                        "withdrawals": []
                    },
                    "expectedBlobVersionedHashes": [],
                    "version": "3",
                    "parentBeaconBlockRoot": "0x0000000000000000000000000000000000000000000000000000000000000000"
                },
                "transactions": [
                    {
                        "type": "0x00",
                        "chainId": "0x00",
                        "nonce": "0x00",
                        "gasPrice": "0x0a",
                        "gasLimit": "0x05f5e100",
                        "to": "",
                        "value": "0x00",
                        "data": "0x600060006000600060007300000000000000000000000000000000deadbeef45f1",
                        "v": "0x1b",
                        "r": "0x4be9d4cb23e70d0bd36b18bedaa401fd9d2dc5bce6d37bae98777c094e8d6c46",
                        "s": "0x46bb18ca04a74583befbf371e13a0190e72dcdb58e6da43d192008ddb9a6afb3",
                        "sender": "0xa94f5374fce5edbc8e2a8697c15331677e6ebf0b"
                    }
                ],
                "uncleHeaders": [],
                "withdrawals": []
            }
        ],
        "genesisBlockHeader": {
            "parentHash": "0x0000000000000000000000000000000000000000000000000000000000000000",
            "uncleHash": "0x1dcc4de8dec75d7aab85b567b6ccd41ad312451b948a7413f0a142fd40d49347",
            "coinbase": "0x0000000000000000000000000000000000000000",
            "stateRoot": "0x6f3f99a280f4410eaacc71189afaa1fa40d64a0ebaf47d852f49a328bfb8f3ca",
            "transactionsTrie": "0x56e81f171bcc55a6ff8345e692c0f86e5b48e01b996cadc001622fb5e363b421",
            "receiptTrie": "0x56e81f171bcc55a6ff8345e692c0f86e5b48e01b996cadc001622fb5e363b421",
            "bloom": "0x00000000000000000000000000000000000000000000000000000000000000000000000000000000000000000000000000000000000000000000000000000000000000000000000000000000000000000000000000000000000000000000000000000000000000000000000000000000000000000000000000000000000000000000000000000000000000000000000000000000000000000000000000000000000000000000000000000000000000000000000000000000000000000000000000000000000000000000000000000000000000000000000000000000000000000000000000000000000000000000000000000000000000000000000000000000",
            "difficulty": "0x00",
            "number": "0x00",
            "gasLimit": "0x016345785d8a0000",
            "gasUsed": "0x00",
            "timestamp": "0x00",
            "extraData": "0x00",
            "mixHash": "0x0000000000000000000000000000000000000000000000000000000000000000",
            "nonce": "0x0000000000000000",
            "baseFeePerGas": "0x07",
            "withdrawalsRoot": "0x56e81f171bcc55a6ff8345e692c0f86e5b48e01b996cadc001622fb5e363b421",
            "blobGasUsed": "0x00",
            "excessBlobGas": "0x00",
            "parentBeaconBlockRoot": "0x0000000000000000000000000000000000000000000000000000000000000000",
            "hash": "0xca7f41ec95ebf328bd17999e25825650d4b2e546de52102b831f4f5ea59f045c"
        },
        "genesisRLP": "0xf90240f9023aa00000000000000000000000000000000000000000000000000000000000000000a01dcc4de8dec75d7aab85b567b6ccd41ad312451b948a7413f0a142fd40d49347940000000000000000000000000000000000000000a06f3f99a280f4410eaacc71189afaa1fa40d64a0ebaf47d852f49a328bfb8f3caa056e81f171bcc55a6ff8345e692c0f86e5b48e01b996cadc001622fb5e363b421a056e81f171bcc55a6ff8345e692c0f86e5b48e01b996cadc001622fb5e363b421b9010000000000000000000000000000000000000000000000000000000000000000000000000000000000000000000000000000000000000000000000000000000000000000000000000000000000000000000000000000000000000000000000000000000000000000000000000000000000000000000000000000000000000000000000000000000000000000000000000000000000000000000000000000000000000000000000000000000000000000000000000000000000000000000000000000000000000000000000000000000000000000000000000000000000000000000000000000000000000000000000000000000000000000000000000000000000808088016345785d8a0000808000a0000000000000000000000000000000000000000000000000000000000000000088000000000000000007a056e81f171bcc55a6ff8345e692c0f86e5b48e01b996cadc001622fb5e363b4218080a00000000000000000000000000000000000000000000000000000000000000000c0c0c0",
        "lastblockhash": "0xc6d92bf12ca1fb04037b1a6d18b4398595e87401c1801377c017c4431c18d8d9",
        "network": "Cancun",
        "pre": {
            "0x00000000000000000000000000000000deadbeef": {
                "nonce": "0x00",
                "balance": "0x02",
                "code": "0x5f355f6001825f811460145760018114608257005b5f80525f8060205f60017364e2ebd6405af8cb348aec519084d3fff42ebba645f150815f525f8060205f803045f1507364e2ebd6405af8cb348aec519084d3fff42ebba63160015560015f525f8060205f60017364e2ebd6405af8cb348aec519084d3fff42ebba645f15f80f35b60015f525f8060205f60017364e2ebd6405af8cb348aec519084d3fff42ebba645f15f80fd",
                "storage": {}
            },
            "0x64e2ebd6405af8cb348aec519084d3fff42ebba6": {
                "nonce": "0x00",
                "balance": "0x00",
                "code": "0x5f35805f811460115760018114602057005b5f54600181019050805f555f80f35b60015460018101905080600155611234ff",
                "storage": {}
            },
            "0xa94f5374fce5edbc8e2a8697c15331677e6ebf0b": {
                "nonce": "0x00",
                "balance": "0x056bc75e2d63100000",
                "code": "0x",
                "storage": {}
            },
            "0xbeac00ddb15f3b6d645c48263dc93862413a222d": {
                "nonce": "0x01",
                "balance": "0x00",
                "code": "0x3373fffffffffffffffffffffffffffffffffffffffe14604457602036146024575f5ffd5b620180005f350680545f35146037575f5ffd5b6201800001545f5260205ff35b6201800042064281555f359062018000015500",
                "storage": {}
            }
        },
        "postState": {
            "0x0000000000000000000000000000000000001234": {
                "nonce": "0x00",
                "balance": "0x02",
                "code": "0x",
                "storage": {}
            },
            "0x00000000000000000000000000000000deadbeef": {
                "nonce": "0x00",
                "balance": "0x00",
                "code": "0x5f355f6001825f811460145760018114608257005b5f80525f8060205f60017364e2ebd6405af8cb348aec519084d3fff42ebba645f150815f525f8060205f803045f1507364e2ebd6405af8cb348aec519084d3fff42ebba63160015560015f525f8060205f60017364e2ebd6405af8cb348aec519084d3fff42ebba645f15f80f35b60015f525f8060205f60017364e2ebd6405af8cb348aec519084d3fff42ebba645f15f80fd",
                "storage": {
                    "0x01": "0x01"
                }
            },
            "0x2adc25665018aa1fe0e6bc666dac8fc2697ff9ba": {
                "nonce": "0x00",
                "balance": "0x0aaadb",
                "code": "0x",
                "storage": {}
            },
            "0x6295ee1b4f6dd65047762f924ecd367c17eabf8f": {
                "nonce": "0x01",
                "balance": "0x00",
                "code": "0x",
                "storage": {}
            },
            "0x64e2ebd6405af8cb348aec519084d3fff42ebba6": {
                "nonce": "0x00",
                "balance": "0x00",
                "code": "0x5f35805f811460115760018114602057005b5f54600181019050805f555f80f35b60015460018101905080600155611234ff",
                "storage": {
                    "0x00": "0x01",
                    "0x01": "0x01"
                }
            },
            "0xa94f5374fce5edbc8e2a8697c15331677e6ebf0b": {
                "nonce": "0x01",
                "balance": "0x056bc75e2d62ec7126",
                "code": "0x",
                "storage": {}
            },
            "0xbeac00ddb15f3b6d645c48263dc93862413a222d": {
                "nonce": "0x01",
                "balance": "0x00",
                "code": "0x3373fffffffffffffffffffffffffffffffffffffffe14604457602036146024575f5ffd5b620180005f350680545f35146037575f5ffd5b6201800001545f5260205ff35b6201800042064281555f359062018000015500",
                "storage": {
                    "0x03e8": "0x03e8"
                }
            }
        },
        "sealEngine": "NoProof"
    }
}